


ARM Macro Assembler    Page 1 


    1 00000000         #line   1                "apollo\\resources\\firmware\\c
yw43362\\3.7.0\\firmware_cyw43362_apsta_armcc.S"
    1 00000000                 PRESERVE8
    2 00000000                 THUMB
    3 00000000         
    4 00000000                 AREA             IMG_WIFI_FW, DATA, READONLY, AL
IGN=4
    5 00000000                 EXPORT           __firmware_cyw43362_apsta_start
    6 00000000                 EXPORT           __firmware_cyw43362_apsta_end
    7 00000000         
    8 00000000         __firmware_cyw43362_apsta_start
    9 00000000 00 00 00 
              00 F9 C2 
              00 00 BD 
              C1 00 00 
              BD C1 00 
              00 BD C1 
              00 00 BD 
              C1 00 00 
              BD C1 00 
              00 BD C1 
              00 00 BD 
              C1 00 00 
              BD C1 00 
              00 BD C1 
              00 00 BD 
              C1 00 00 
              BD C1 00 
              00 BD C1 
              00 00 BD 
              C1 00 00 
              BD C1 00 
              00 BD C1 
              00 00 BD 
              C1 00 00 
              BD C1 00 
              00 BD C1 
              00 00 BD 
              C1 00 00 
              BD C1 00 
              00 BD C1 
              00 00 BD 
              C1 00 00 
              BD C1 00 
              00 BD C1 
              00 00 BD 
              C1 00 00 
              BD C1 00 
              00 BD C1 
              00 00 BD 
              C1 00 00 
              BD C1 00 
              00 BD C1 
              00 00 00 
              48 00 47 
              F9 C2 00 
              00 00 00 
              00 00 00 
              00 00 00 



ARM Macro Assembler    Page 2 


              00 00 00 
              00 00 00 
              00 00 00 
              00 00 00 
              00 00 00 
              00 00 00 
              00 00 00 
              00 00 00 
              00 00 00 
              00 00 00 
              00 00 00 
              00 00 00 
              00 00 00 
              00 00 00 
              00 00 00 
              00 00 00 
              00 00 00 
              00 00 00 
              00 00 00 
              00 00 00 
              00 00 00 
              00 00 00 
              00 00 00 
              00 00 00 
              00 00 00 
              00 00 00 
              00 00 00 
              00 00 00 
              00 00 00 
              00 00 00 
              00 00 00 
              00 00 00 
              00 00 00 
              00 00 00 
              00 00 00 
              00 00 00 
              00 00 00 
              00 D1 1E 
              80 00 B5 
              22 80 00 
              BD 24 80 
              00 49 1F 
              80 00 F9 
              21 80 00 
              D5 F8 00 
              00 F1 20 
              80 00 D1 
              20 80 00 
              59 48 80 
              00 69 48 
              80 00 15 
              64 80 00 
              E1 62 80 
              00 29 62 
              80 00 3D 
              65 80 00 
              8D 62 80 
              00 C5 62 
              80 00 59 



ARM Macro Assembler    Page 3 


              63 80 00 
              5D 65 80 
              00 7D 63 
              80 00 9D 
              63 80 00 
              0D 66 80 
              00 A9 61 
              80 00 61 
              61 80 00 
              75 60 80 
              00 95 60 
              80 00 DD 
              63 80 00 
              9D 65 80 
              00 29 66 
              80 00 FD 
              61 80 00 
              B9 65 80 
              00 1D 61 
              80 00 F1 
              65 80 00 
              9D 66 80 
              00 6D 65 
              80 00 91 
              6C 80 00 
              CD 6B 80 
              00 31 6C 
              80 00 8D 
              6B 80 00 
              55 6C 80 
              00 AD 6A 
              80 00 C1 
              6A 80 00 
              D5 6A 80 
              00 49 6B 
              80 00 1D 
              6A 80 00 
              FD 6A 80 
              00 AD 68 
              80 00 C1 
              69 80 00 
              D1 68 80 
              00 35 6B 
              80 00 B1 
              69 80 00 
              CD C9 00 
              00 D1 66 
              80 00 E1 
              67 80 00 
              8D 67 80 
              00 CD 67 
              80 00 9D 
              68 80 00 
              ED 67 80 
              00 BD 67 
              80 00 A1 
              67 80 00 
              ED 66 80 
              00 09 67 



ARM Macro Assembler    Page 4 


              80 00 61 
              67 80 00 
              4D 48 80 
              00 1D 48 
              80 00 85 
              98 80 00 
              DD 96 80 
              00 51 94 
              80 00 B1 
              9B 80 00 
              39 94 80 
              00 05 98 
              80 00 19 
              98 80 00 
              2D 98 80 
              00 C5 9B 
              80 00 D1 
              9A 80 00 
              89 9D 80 
              00 D1 93 
              80 00 D9 
              91 80 00 
              ED 9A 80 
              00 01 29 
              00 00 69 
              F8 00 00 
              51 29 00 
              00 45 F8 
              00 00 51 
              9B 80 00 
              79 29 00 
              00 49 A9 
              80 00 99 
              98 80 00 
              B1 29 00 
              00 31 A8 
              80 00 05 
              A7 80 00 
              21 A2 80 
              00 BD 93 
              80 00 DD 
              93 80 00 
              19 9E 80 
              00 7D 93 
              80 00 45 
              98 80 00 
              E5 9B 80 
              00 6D A6 
              80 00 C1 
              9C 80 00 
              C5 9F 80 
              00 A1 9D 
              80 00 AD 
              2A 00 00 
              91 F8 00 
              00 A5 F8 
              00 00 29 
              AA 80 00 
              B9 A9 80 



ARM Macro Assembler    Page 5 


              00 75 AA 
              80 00 E1 
              A9 80 00 
              39 AA 80 
              00 8D AA 
              80 00 5D 
              AA 80 00 
              0D AA 80 
              00 C5 A9 
              80 00 9D 
              A9 80 00 
              A9 0C 80 
              00 85 0D 
              80 00 C1 
              06 80 00 
              29 08 80 
              00 69 46 
              80 00 4D 
              46 80 00 
              D9 44 80 
              00 41 46 
              80 00 21 
              44 80 00 
              F5 43 80 
              00 15 44 
              80 00 E1 
              43 80 00 
              E1 42 80 
              00 85 46 
              80 00 75 
              44 80 00 
              2D 44 80 
              00 A9 42 
              80 00 F9 
              42 80 00 
              CD 43 80 
              00 B9 45 
              80 00 F5 
              44 80 00 
              39 45 80 
              00 09 00 
              80 00 3D 
              00 80 00 
              49 01 80 
              00 D1 04 
              80 00 0D 
              04 80 00 
              91 03 80 
              00 4D 03 
              80 00 E5 
              03 80 00 
              35 03 80 
              00 65 03 
              80 00 29 
              02 80 00 
              CD 02 80 
              00 51 02 
              80 00 85 
              02 80 00 



ARM Macro Assembler    Page 6 


              F5 02 80 
              00 95 06 
              80 00 39 
              06 80 00 
              81 05 80 
              00 05 06 
              80 00 FD 
              04 80 00 
              69 0F 80 
              00 25 16 
              80 00 15 
              16 80 00 
              45 13 80 
              00 15 13 
              80 00 25 
              13 80 00 
              09 13 80 
              00 35 13 
              80 00 0D 
              1E 80 00 
              F9 1D 80 
              00 29 1D 
              80 00 1D 
              1C 80 00 
              39 1C 80 
              00 31 16 
              80 00 59 
              13 80 00 
              65 0E 80 
              00 95 13 
              80 00 B9 
              1C 80 00 
              73 28 00 
              00 6D 0D 
              02 00 75 
              1D 80 00 
              AD 05 01 
              00 3D 1D 
              80 00 0D 
              1B 80 00 
              E9 10 80 
              00 79 0F 
              80 00 A9 
              16 80 00 
              31 14 80 
              00 2D 11 
              80 00 A5 
              1E 80 00 
              B1 1E 80 
              00 BD 1E 
              80 00 69 
              2B 80 00 
              AD 28 80 
              00 11 29 
              80 00 89 
              2B 80 00 
              FD 2B 80 
              00 E1 28 
              80 00 65 



ARM Macro Assembler    Page 7 


              28 80 00 
              B5 2C 80 
              00 91 2C 
              80 00 1D 
              2B 80 00 
              75 2D 80 
              00 25 2C 
              80 00 4D 
              30 80 00 
              DD 2D 80 
              00 59 27 
              80 00 31 
              31 80 00 
              F1 F7 00 
              00 8D 26 
              80 00 C5 
              26 80 00 
              E5 24 80 
              00 FD 26 
              80 00 21 
              25 80 00 
              B1 2A 80 
              00 65 25 
              80 00 25 
              28 80 00 
              61 29 80 
              00 41 29 
              80 00 D9 
              29 80 00 
              9D 29 80 
              00 81 29 
              80 00 89 
              30 80 00 
              4D 2E 80 
              00 B1 2B 
              80 00 31 
              2C 80 00 
              E1 2C 80 
              00 61 32 
              80 00 2D 
              32 80 00 
              C9 33 80 
              00 4D 36 
              80 00 69 
              3A 80 00 
              B5 35 80 
              00 F9 34 
              80 00 A9 
              34 80 00 
              3D 33 80 
              00 9D 33 
              80 00 01 
              34 80 00 
              35 36 80 
              00 31 38 
              80 00 35 
              3A 80 00 
              21 3A 80 
              00 AD 32 



ARM Macro Assembler    Page 8 


              80 00 0D 
              33 80 00 
              DD 32 80 
              00 95 3A 
              80 00 D9 
              37 80 00 
              99 36 80 
              00 19 37 
              80 00 59 
              38 80 00 
              49 38 80 
              00 19 39 
              80 00 31 
              3D 80 00 
              D5 3A 80 
              00 C9 3C 
              80 00 E1 
              3B 80 00 
              51 3D 80 
              00 D9 3D 
              80 00 AD 
              3E 80 00 
              59 3F 80 
              00 99 41 
              80 00 41 
              47 80 00 
              CD 5B 80 
              00 89 53 
              80 00 2D 
              4D 80 00 
              A9 4C 80 
              00 E1 4D 
              80 00 E9 
              4F 80 00 
              B1 4F 80 
              00 C9 4E 
              80 00 8D 
              4E 80 00 
              F1 51 80 
              00 5D 52 
              80 00 D1 
              51 80 00 
              2D 52 80 
              00 01 52 
              80 00 C9 
              4F 80 00 
              59 4C 80 
              00 6D 4C 
              80 00 45 
              5B 80 00 
              39 56 80 
              00 15 5A 
              80 00 C9 
              58 80 00 
              31 5A 80 
              00 81 57 
              80 00 F9 
              59 80 00 
              1D 56 80 



ARM Macro Assembler    Page 9 


              00 AD 55 
              80 00 91 
              55 80 00 
              4D 5A 80 
              00 2D 55 
              80 00 71 
              4B 80 00 
              71 54 80 
              00 09 54 
              80 00 F5 
              4D 80 00 
              1D 4C 80 
              00 F9 4B 
              80 00 09 
              4C 80 00 
              11 4E 80 
              00 15 58 
              80 00 FD 
              03 01 00 
              2D 50 80 
              00 E5 58 
              80 00 55 
              56 80 00 
              7D 5A 80 
              00 05 4F 
              80 00 35 
              4E 80 00 
              D9 55 80 
              00 51 58 
              80 00 9D 
              57 80 00 
              59 51 80 
              00 61 4D 
              80 00 B1 
              48 80 00 
              5D 5B 80 
              00 81 52 
              80 00 49 
              4C 80 00 
              41 FF 00 
              00 F1 5B 
              80 00 E5 
              5C 80 00 
              E1 5F 80 
              00 A5 5E 
              80 00 7D 
              5E 80 00 
              8D 5C 80 
              00 01 5C 
              80 00 A1 
              5F 80 00 
              89 5D 80 
              00 05 60 
              80 00 39 
              5D 80 00 
              D1 5E 80 
              00 49 5E 
              80 00 ED 
              6C 80 00 



ARM Macro Assembler    Page 10 


              65 6D 80 
              00 DD 6D 
              80 00 0D 
              6D 80 00 
              29 6D 80 
              00 89 6D 
              80 00 F9 
              6C 80 00 
              D9 6C 80 
              00 3D 6E 
              80 00 61 
              6F 80 00 
              75 6E 80 
              00 05 6E 
              80 00 A9 
              74 80 00 
              55 75 80 
              00 D5 74 
              80 00 05 
              74 80 00 
              D1 7C 80 
              00 45 7D 
              80 00 75 
              7C 80 00 
              11 7E 80 
              00 89 7E 
              80 00 E9 
              7E 80 00 
              91 7D 80 
              00 3D 7E 
              80 00 51 
              7F 80 00 
              A5 81 80 
              00 65 84 
              80 00 41 
              84 80 00 
              8D 83 80 
              00 65 83 
              80 00 35 
              85 80 00 
              E5 84 80 
              00 9D 84 
              80 00 21 
              85 80 00 
              75 84 80 
              00 BD 83 
              80 00 5D 
              85 80 00 
              BD 85 80 
              00 15 8F 
              80 00 91 
              8D 80 00 
              D5 89 80 
              00 19 86 
              80 00 19 
              AB 80 00 
              5D AC 80 
              00 A1 AA 
              80 00 B5 



ARM Macro Assembler    Page 11 


              AB 80 00 
              5D AB 80 
              00 FD B0 
              80 00 7D 
              B1 80 00 
              65 B0 80 
              00 6D AE 
              80 00 85 
              AE 80 00 
              ED AD 80 
              00 41 AF 
              80 00 1D 
              AE 80 00 
              31 B1 80 
              00 3D B1 
              80 00 B9 
              AE 80 00 
              F5 B1 80 
              00 79 B0 
              80 00 FD 
              AD 80 00 
              09 B1 80 
              00 8D B0 
              80 00 49 
              B1 80 00 
              69 B1 80 
              00 4D AE 
              80 00 3D 
              AE 80 00 
              95 AE 80 
              00 29 B3 
              80 00 C9 
              AE 80 00 
              CD AF 80 
              00 E5 AF 
              80 00 25 
              B0 80 00 
              8D AF 80 
              00 B5 B2 
              80 00 FD 
              B2 80 00 
              19 B3 80 
              00 ED B0 
              80 00 5D 
              AE 80 00 
              2D AE 80 
              00 29 B2 
              80 00 A9 
              B0 80 00 
              A1 B1 80 
              00 05 B2 
              80 00 39 
              B2 80 00 
              A9 AE 80 
              00 7D AF 
              80 00 AD 
              B3 80 00 
              A9 BD 80 
              00 9D C1 



ARM Macro Assembler    Page 12 


              80 00 25 
              C7 80 00 
              DD C8 80 
              00 65 CA 
              80 00 E1 
              CB 80 00 
              DD CE 80 
              00 19 CE 
              80 00 99 
              CE 80 00 
              15 CF 80 
              00 C1 2D 
              00 00 0D 
              D8 80 00 
              DD D7 80 
              00 91 D7 
              80 00 1D 
              05 01 00 
              B1 2C 00 
              00 69 D8 
              80 00 7D 
              CF 80 00 
              45 D9 80 
              00 E5 04 
              01 00 99 
              D1 80 00 
              39 04 01 
              00 F9 E0 
              80 00 71 
              F5 80 00 
              AB 2F 00 
              00 D1 DE 
              80 00 23 
              F2 00 00 
              09 EA 80 
              00 A1 E4 
              80 00 E1 
              F2 00 00 
              E1 EC 80 
              00 11 E3 
              80 00 39 
              EA 80 00 
              39 E3 80 
              00 99 E3 
              80 00 29 
              DF 80 00 
              DB F1 00 
              00 89 F1 
              00 00 19 
              F1 00 00 
              4D F0 00 
              00 17 F0 
              00 00 BD 
              EB 80 00 
              B9 2E 00 
              00 31 2F 
              00 00 35 
              F1 00 00 
              83 F0 00 



ARM Macro Assembler    Page 13 


              00 EF F1 
              00 00 E1 
              E1 80 00 
              A9 E9 80 
              00 59 F2 
              00 00 65 
              F2 00 00 
              ED F5 80 
              00 D9 00 
              81 00 9D 
              F6 80 00 
              C5 F7 80 
              00 85 FF 
              80 00 45 
              01 81 00 
              D5 02 81 
              00 4D 03 
              81 00 E5 
              00 81 00 
              7D F6 80 
              00 81 F7 
              80 00 D5 
              F5 80 00 
              51 F9 80 
              00 31 FB 
              80 00 F1 
              F6 80 00 
              F9 F5 80 
              00 41 FF 
              80 00 D9 
              F9 80 00 
              DD FC 80 
              00 A9 F7 
              80 00 C9 
              2F 00 00 
              59 FB 80 
              00 8D F7 
              80 00 A5 
              F9 80 00 
              8D 05 01 
              00 29 F6 
              80 00 A1 
              F8 80 00 
              5D F7 80 
              00 65 F6 
              80 00 95 
              FD 80 00 
              09 31 00 
              00 F5 02 
              81 00 2D 
              02 81 00 
              89 01 81 
              00 05 01 
              81 00 21 
              32 00 00 
              99 FF 80 
              00 19 F7 
              80 00 89 
              F6 80 00 



ARM Macro Assembler    Page 14 


              C1 F6 80 
              00 69 05 
              01 00 85 
              F5 80 00 
              05 F7 80 
              00 DD F6 
              80 00 B1 
              F6 80 00 
              AD 6A 81 
              00 BD 6A 
              81 00 DD 
              2F 81 00 
              E1 57 81 
              00 F5 6D 
              82 00 A9 
              8D 82 00 
              09 25 82 
              00 19 6E 
              82 00 01 
              AA 81 00 
              5D 60 82 
              00 A5 37 
              82 00 ED 
              69 81 00 
              79 59 82 
              00 E5 58 
              82 00 1D 
              59 82 00 
              FD 6D 81 
              00 49 3A 
              81 00 41 
              BC 82 00 
              E9 5A 82 
              00 CD 60 
              81 00 D5 
              96 81 00 
              1D 61 81 
              00 29 61 
              81 00 89 
              BF 81 00 
              1D AB 81 
              00 A9 32 
              82 00 67 
              36 00 00 
              25 69 81 
              00 05 A6 
              81 00 21 
              AD 82 00 
              29 58 81 
              00 BD 3E 
              81 00 A5 
              40 81 00 
              35 95 81 
              00 59 9B 
              81 00 3D 
              36 82 00 
              1D 45 82 
              00 09 28 
              81 00 99 



ARM Macro Assembler    Page 15 


              A0 81 00 
              D1 28 81 
              00 E9 3B 
              81 00 8D 
              28 81 00 
              41 6E 82 
              00 85 9B 
              81 00 29 
              5D 81 00 
              6D 39 82 
              00 FD 39 
              82 00 25 
              3A 82 00 
              95 69 81 
              00 C9 7A 
              81 00 91 
              57 81 00 
              5D 57 81 
              00 75 30 
              82 00 85 
              2F 82 00 
              35 57 81 
              00 D1 2F 
              82 00 21 
              57 81 00 
              49 57 81 
              00 F5 28 
              81 00 95 
              A8 82 00 
              2D A2 82 
              00 89 D3 
              81 00 D5 
              6B 81 00 
              59 59 81 
              00 75 59 
              81 00 F5 
              5A 82 00 
              05 AD 81 
              00 F1 D2 
              81 00 39 
              37 81 00 
              ED 71 81 
              00 C5 96 
              81 00 89 
              57 82 00 
              91 61 82 
              00 CD 61 
              82 00 A9 
              58 81 00 
              1D 27 82 
              00 45 43 
              82 00 01 
              44 82 00 
              15 6A 81 
              00 61 4A 
              81 00 ED 
              4E 81 00 
              71 22 82 
              00 05 5A 



ARM Macro Assembler    Page 16 


              81 00 4D 
              8A 81 00 
              75 49 81 
              00 71 24 
              82 00 B1 
              49 81 00 
              B1 44 81 
              00 75 AC 
              82 00 29 
              2B 82 00 
              59 52 81 
              00 E1 2A 
              82 00 B5 
              29 82 00 
              71 A7 81 
              00 35 A7 
              81 00 01 
              D4 81 00 
              F5 BE 81 
              00 55 B4 
              81 00 D1 
              6A 82 00 
              D1 9C 81 
              00 9D 9C 
              81 00 95 
              9B 81 00 
              B5 9D 81 
              00 45 9D 
              81 00 C5 
              9D 81 00 
              61 70 82 
              00 09 35 
              81 00 A1 
              AB 82 00 
              8D AB 82 
              00 75 AB 
              82 00 F1 
              93 81 00 
              99 68 81 
              00 15 D7 
              81 00 71 
              C1 82 00 
              7D 2B 81 
              00 E9 2F 
              81 00 0D 
              B6 81 00 
              25 BD 82 
              00 8D 4F 
              81 00 0D 
              50 81 00 
              85 43 82 
              00 31 D7 
              81 00 B1 
              BD 82 00 
              95 C1 82 
              00 5D B3 
              82 00 4D 
              09 01 00 
              8D D1 81 



ARM Macro Assembler    Page 17 


              00 A9 36 
              81 00 E9 
              BC 82 00 
              29 37 81 
              00 E9 36 
              81 00 A1 
              D6 81 00 
              A5 3B 81 
              00 6D AB 
              81 00 41 
              B0 81 00 
              C9 F3 00 
              00 7F F3 
              00 00 41 
              BD 82 00 
              95 BE 82 
              00 CD 2E 
              82 00 9D 
              6B 81 00 
              CD 45 82 
              00 45 39 
              81 00 35 
              3B 81 00 
              BD 3A 81 
              00 F1 D5 
              81 00 41 
              9F 81 00 
              11 9F 81 
              00 71 A4 
              82 00 AD 
              D5 81 00 
              C1 30 81 
              00 A1 39 
              82 00 4D 
              61 81 00 
              99 5B 81 
              00 A5 72 
              81 00 89 
              DA 81 00 
              61 BF 81 
              00 61 57 
              82 00 81 
              21 82 00 
              A9 21 82 
              00 D1 AD 
              82 00 09 
              BC 82 00 
              B5 A1 81 
              00 9D CA 
              81 00 B9 
              2F 82 00 
              D9 BB 82 
              00 11 30 
              82 00 7D 
              AD 82 00 
              CD A4 81 
              00 99 A4 
              81 00 CD 
              AB 82 00 



ARM Macro Assembler    Page 18 


              15 AB 82 
              00 C1 AA 
              82 00 B9 
              98 81 00 
              81 A5 81 
              00 D9 D0 
              81 00 A9 
              CF 81 00 
              E9 3B 82 
              00 ED CF 
              81 00 65 
              D1 81 00 
              79 D1 81 
              00 51 D0 
              81 00 65 
              D0 81 00 
              E5 21 82 
              00 11 22 
              82 00 BB 
              52 00 00 
              19 53 00 
              00 FD 9C 
              81 00 91 
              45 82 00 
              55 AE 82 
              00 41 B4 
              81 00 95 
              BD 81 00 
              F1 8A 82 
              00 09 8B 
              82 00 79 
              D9 81 00 
              7D 61 82 
              00 CD A4 
              82 00 41 
              91 81 00 
              A1 3F 82 
              00 35 94 
              82 00 49 
              94 82 00 
              89 89 82 
              00 5D C1 
              82 00 F1 
              C1 82 00 
              D1 3B 82 
              00 D5 95 
              82 00 E5 
              60 81 00 
              09 20 82 
              00 29 F8 
              00 00 BD 
              3B 82 00 
              75 A1 82 
              00 25 A5 
              82 00 25 
              3B 82 00 
              E9 3A 82 
              00 75 3A 
              82 00 F1 



ARM Macro Assembler    Page 19 


              30 82 00 
              B1 30 82 
              00 71 D7 
              81 00 45 
              99 82 00 
              91 D7 81 
              00 89 94 
              82 00 DD 
              C1 82 00 
              A9 6A 82 
              00 25 6B 
              82 00 C9 
              44 81 00 
              29 45 81 
              00 59 6B 
              81 00 59 
              49 81 00 
              ED AA 81 
              00 69 61 
              82 00 AD 
              24 82 00 
              05 36 81 
              00 D5 35 
              81 00 79 
              D0 81 00 
              A5 D0 81 
              00 71 5C 
              81 00 E1 
              AD 81 00 
              ED D0 81 
              00 49 C9 
              81 00 4D 
              D8 81 00 
              89 3D 82 
              00 49 20 
              82 00 65 
              96 82 00 
              F9 25 82 
              00 89 CF 
              81 00 85 
              6A 82 00 
              15 93 82 
              00 2D 5D 
              82 00 E9 
              CA 81 00 
              6D 40 82 
              00 61 30 
              82 00 15 
              48 82 00 
              31 3C 81 
              00 61 D6 
              81 00 11 
              4E 81 00 
              91 33 00 
              00 41 A1 
              81 00 15 
              A6 81 00 
              09 99 82 
              00 E5 C9 



ARM Macro Assembler    Page 20 


              81 00 B1 
              D7 81 00 
              35 C0 82 
              00 29 4A 
              81 00 41 
              AD 81 00 
              ED BE 82 
              00 2D BE 
              82 00 05 
              BE 82 00 
              79 BE 82 
              00 55 32 
              81 00 A5 
              95 81 00 
              B1 59 81 
              00 E5 47 
              81 00 91 
              52 81 00 
              15 63 81 
              00 95 64 
              81 00 8D 
              66 81 00 
              59 2C 81 
              00 39 2C 
              81 00 21 
              2E 81 00 
              65 35 82 
              00 D5 57 
              82 00 35 
              2B 82 00 
              99 60 82 
              00 01 61 
              82 00 1D 
              40 82 00 
              1D 20 82 
              00 1D D8 
              81 00 A9 
              AC 82 00 
              F1 AB 82 
              00 F5 2B 
              82 00 41 
              AE 82 00 
              E9 03 01 
              00 35 6A 
              81 00 09 
              AE 82 00 
              69 6D 82 
              00 09 8C 
              81 00 D5 
              8B 81 00 
              11 6F 81 
              00 81 90 
              81 00 29 
              6C 82 00 
              DD A1 81 
              00 E9 2B 
              81 00 55 
              2F 82 00 
              39 8C 81 



ARM Macro Assembler    Page 21 


              00 A5 5A 
              82 00 35 
              5C 82 00 
              45 BB 82 
              00 91 BE 
              81 00 2D 
              6E 81 00 
              11 5C 82 
              00 25 8A 
              81 00 4D 
              93 81 00 
              89 38 82 
              00 D5 37 
              82 00 55 
              5A 81 00 
              01 38 82 
              00 8D 03 
              81 00 E9 
              20 82 00 
              E1 3E 82 
              00 91 45 
              81 00 2D 
              6D 81 00 
              0D 58 82 
              00 21 47 
              82 00 FD 
              CE 81 00 
              11 CA 81 
              00 59 36 
              82 00 9F 
              4B 00 00 
              25 CB 81 
              00 91 2E 
              81 00 2D 
              2F 81 00 
              B9 3A 82 
              00 7D F3 
              00 00 DD 
              A9 81 00 
              31 D4 81 
              00 D1 B3 
              82 00 AD 
              A9 81 00 
              D5 38 82 
              00 8D D8 
              81 00 55 
              5E 82 00 
              71 9A 81 
              00 15 41 
              82 00 35 
              DA 81 00 
              19 25 82 
              00 69 26 
              82 00 35 
              35 81 00 
              2F 09 01 
              00 3D 71 
              81 00 01 
              2D 81 00 



ARM Macro Assembler    Page 22 


              09 A2 82 
              00 0D 23 
              82 00 FD 
              71 81 00 
              D9 60 82 
              00 51 72 
              81 00 41 
              61 82 00 
              45 28 81 
              00 C1 23 
              82 00 8D 
              6C 81 00 
              6D 23 82 
              00 95 47 
              81 00 B9 
              D9 81 00 
              B5 34 81 
              00 75 C9 
              81 00 F1 
              34 81 00 
              2D BF 81 
              00 59 AF 
              82 00 D9 
              3C 81 00 
              49 4F 81 
              00 E5 AB 
              81 00 25 
              FE 00 00 
              79 31 81 
              00 05 95 
              82 00 61 
              4C 00 00 
              DD 93 82 
              00 A5 66 
              82 00 0D 
              C8 81 00 
              09 5E 81 
              00 7D 75 
              81 00 15 
              62 81 00 
              91 59 81 
              00 51 4F 
              00 00 11 
              49 81 00 
              C1 48 81 
              00 B9 BF 
              81 00 A5 
              45 82 00 
              F5 59 82 
              00 F1 A9 
              82 00 41 
              A6 82 00 
              39 58 82 
              00 BD 42 
              82 00 BD 
              A7 82 00 
              4D 22 82 
              00 71 A7 
              82 00 A5 



ARM Macro Assembler    Page 23 


              A7 82 00 
              E1 5C 81 
              00 ED 41 
              82 00 D1 
              A7 82 00 
              D1 68 81 
              00 B5 CC 
              81 00 15 
              AF 82 00 
              95 41 81 
              00 E1 C8 
              81 00 89 
              AA 81 00 
              E9 96 81 
              00 7D 2F 
              81 00 39 
              39 00 00 
              49 42 82 
              00 59 44 
              82 00 ED 
              08 01 00 
              31 31 82 
              00 61 49 
              82 00 4D 
              49 82 00 
              0D A5 81 
              00 09 5E 
              82 00 25 
              3E 82 00 
              CD CD 81 
              00 29 B3 
              82 00 21 
              51 81 00 
              45 B1 82 
              00 A9 1D 
              82 00 79 
              BC 82 00 
              D1 56 81 
              00 59 9D 
              81 00 99 
              9D 81 00 
              19 1C 82 
              00 51 3F 
              82 00 1D 
              30 81 00 
              C9 BD 81 
              00 15 38 
              81 00 79 
              4A 81 00 
              DD 9B 81 
              00 19 9E 
              81 00 69 
              61 81 00 
              89 6E 81 
              00 B5 70 
              81 00 D1 
              32 82 00 
              F1 57 81 
              00 A9 33 



ARM Macro Assembler    Page 24 


              82 00 9D 
              5A 81 00 
              3D 35 82 
              00 89 33 
              82 00 D9 
              6E 81 00 
              45 70 81 
              00 FD 61 
              81 00 59 
              4B 81 00 
              0D 9C 81 
              00 55 8B 
              82 00 F1 
              8E 82 00 
              E5 9A 81 
              00 BD 35 
              82 00 49 
              36 81 00 
              29 1F 82 
              00 65 5C 
              82 00 81 
              FF 00 00 
              51 6F 81 
              00 29 9B 
              81 00 A5 
              6D 81 00 
              B5 A2 82 
              00 E1 AF 
              82 00 A9 
              56 82 00 
              89 44 81 
              00 3D 57 
              82 00 E1 
              6F 82 00 
              01 6F 82 
              00 DD 72 
              82 00 E5 
              3E 81 00 
              95 51 81 
              00 FD D4 
              81 00 F5 
              BC 81 00 
              81 B4 81 
              00 F1 99 
              81 00 19 
              31 81 00 
              35 8A 82 
              00 DD DA 
              81 00 41 
              3D 81 00 
              2D 3E 81 
              00 E9 89 
              82 00 C1 
              D4 81 00 
              FD 8D 82 
              00 99 B6 
              81 00 BD 
              A7 81 00 
              3D 9F 82 



ARM Macro Assembler    Page 25 


              00 5D 03 
              81 00 6D 
              92 82 00 
              21 8B 82 
              00 59 9A 
              81 00 ED 
              27 81 00 
              ED 94 82 
              00 FD 8A 
              81 00 9D 
              8A 81 00 
              41 6B 81 
              00 E1 6F 
              81 00 5D 
              46 82 00 
              A1 94 82 
              00 9D 89 
              82 00 C9 
              92 82 00 
              79 99 81 
              00 B1 90 
              82 00 21 
              91 82 00 
              1D 34 81 
              00 99 B2 
              82 00 DD 
              6A 82 00 
              8D C9 81 
              00 59 27 
              82 00 D3 
              03 01 00 
              D9 90 81 
              00 A5 6B 
              82 00 6D 
              3C 82 00 
              E5 6D 82 
              00 05 C2 
              82 00 C9 
              6A 81 00 
              ED 45 82 
              00 81 6B 
              81 00 35 
              3F 82 00 
              FD 90 82 
              00 71 BC 
              81 00 F1 
              6B 81 00 
              3D 4E 82 
              00 51 4A 
              82 00 3D 
              A2 81 00 
              75 07 01 
              00 D5 54 
              00 00 B9 
              7E 82 00 
              69 88 82 
              00 69 5A 
              82 00 DD 
              2E 81 00 



ARM Macro Assembler    Page 26 


              15 13 82 
              00 11 73 
              81 00 69 
              80 82 00 
              9D 91 81 
              00 5D 8B 
              81 00 81 
              6C 82 00 
              8D 8F 81 
              00 4D 8F 
              81 00 09 
              88 81 00 
              BD 6D 82 
              00 01 8E 
              81 00 1D 
              5E 82 00 
              91 71 81 
              00 C1 27 
              81 00 79 
              75 82 00 
              2D BE 81 
              00 2D 5B 
              82 00 E9 
              A5 82 00 
              B5 72 82 
              00 05 61 
              00 00 21 
              7D 82 00 
              4D 80 82 
              00 8D 7F 
              82 00 01 
              A0 81 00 
              ED 7F 82 
              00 2D 41 
              81 00 F9 
              84 81 00 
              61 85 82 
              00 45 72 
              82 00 F9 
              54 81 00 
              69 2B 82 
              00 69 51 
              81 00 C5 
              55 81 00 
              31 56 81 
              00 A1 A6 
              81 00 71 
              50 81 00 
              39 2A 82 
              00 61 53 
              81 00 C5 
              73 81 00 
              D5 6A 00 
              00 F1 97 
              81 00 A9 
              9B 81 00 
              FD 3B 82 
              00 25 A0 
              82 00 DD 



ARM Macro Assembler    Page 27 


              39 81 00 
              71 5D 81 
              00 AF FF 
              00 00 49 
              95 81 00 
              09 CC 81 
              00 21 A3 
              82 00 45 
              AA 81 00 
              AD 81 82 
              00 91 67 
              82 00 E9 
              85 00 00 
              7D 70 82 
              00 E1 2F 
              82 00 E9 
              03 81 00 
              81 DB 81 
              00 95 24 
              82 00 69 
              89 82 00 
              89 C3 82 
              00 C5 C4 
              82 00 AD 
              F7 00 00 
              B1 EB 82 
              00 09 CB 
              82 00 0D 
              CC 82 00 
              59 EB 82 
              00 61 E9 
              82 00 15 
              F1 82 00 
              E9 CD 82 
              00 45 DF 
              82 00 09 
              F1 82 00 
              8D F7 82 
              00 8D CA 
              82 00 89 
              F3 82 00 
              D5 CA 82 
              00 A1 09 
              83 00 C9 
              F7 82 00 
              FD EF 82 
              00 99 F8 
              82 00 25 
              F9 82 00 
              39 FA 82 
              00 89 ED 
              82 00 F5 
              88 00 00 
              AD E5 82 
              00 65 DA 
              82 00 7D 
              C5 82 00 
              2D E6 82 
              00 DD 89 



ARM Macro Assembler    Page 28 


              00 00 31 
              E4 82 00 
              E5 F1 82 
              00 9D C8 
              82 00 55 
              F3 82 00 
              27 FF 00 
              00 61 C7 
              82 00 CD 
              E1 82 00 
              6D E1 82 
              00 A5 E2 
              82 00 59 
              DF 82 00 
              29 F4 82 
              00 09 C7 
              82 00 55 
              EF 82 00 
              E9 EC 82 
              00 C9 08 
              01 00 BD 
              DD 82 00 
              E1 C5 82 
              00 4D E5 
              82 00 05 
              E0 82 00 
              A5 F9 82 
              00 0D C5 
              82 00 7D 
              8F 00 00 
              05 8B 00 
              00 D9 8B 
              00 00 91 
              E6 82 00 
              BD CC 82 
              00 FD E9 
              82 00 8D 
              D1 82 00 
              2D F1 82 
              00 2D F7 
              82 00 95 
              FB 82 00 
              69 CE 82 
              00 A1 F0 
              82 00 D5 
              F0 82 00 
              F5 CC 82 
              00 8B 8C 
              00 00 81 
              D9 82 00 
              45 C5 82 
              00 FD CB 
              82 00 25 
              CB 82 00 
              BD EB 82 
              00 1D DB 
              82 00 15 
              CD 82 00 
              1D 8D 00 



ARM Macro Assembler    Page 29 


              00 CD E6 
              82 00 4D 
              CF 82 00 
              9D CB 82 
              00 45 0C 
              83 00 E5 
              0D 83 00 
              59 0E 83 
              00 41 0E 
              83 00 01 
              0B 83 00 
              4D 0A 83 
              00 D1 0D 
              83 00 31 
              0C 83 00 
              59 0C 83 
              00 71 0A 
              83 00 65 
              0E 83 00 
              F1 0D 83 
              00 41 0B 
              83 00 A1 
              1E 83 00 
              B1 1E 83 
              00 01 2B 
              83 00 F5 
              4E 83 00 
              11 2B 83 
              00 B1 27 
              83 00 99 
              23 83 00 
              01 4A 83 
              00 ED 49 
              83 00 FD 
              47 83 00 
              CD 4C 83 
              00 BD 4C 
              83 00 71 
              4C 83 00 
              D5 27 83 
              00 4D 25 
              83 00 95 
              25 83 00 
              E1 4C 83 
              00 41 4C 
              83 00 F5 
              03 01 00 
              65 11 83 
              00 E1 44 
              83 00 21 
              28 83 00 
              BD 28 83 
              00 79 29 
              83 00 65 
              28 83 00 
              65 2B 83 
              00 41 45 
              83 00 D5 
              29 83 00 



ARM Macro Assembler    Page 30 


              49 1D 83 
              00 A1 2A 
              83 00 5D 
              30 83 00 
              51 48 83 
              00 E5 48 
              83 00 29 
              48 83 00 
              F5 23 83 
              00 11 4A 
              83 00 79 
              34 83 00 
              91 18 83 
              00 A5 33 
              83 00 ED 
              34 83 00 
              1D 11 83 
              00 9D 4E 
              83 00 95 
              4D 83 00 
              B5 1A 83 
              00 61 47 
              83 00 1D 
              4D 83 00 
              ED 10 83 
              00 0D 45 
              83 00 C1 
              1E 83 00 
              01 20 83 
              00 E9 21 
              83 00 F1 
              25 83 00 
              F9 1D 83 
              00 75 01 
              01 00 F3 
              95 00 00 
              49 10 83 
              00 C1 0F 
              83 00 21 
              24 83 00 
              A5 24 83 
              00 B9 4A 
              83 00 B5 
              2F 83 00 
              C1 45 83 
              00 FD 1C 
              83 00 71 
              1D 83 00 
              F5 18 83 
              00 59 19 
              83 00 F1 
              19 83 00 
              DB 06 01 
              00 49 2A 
              83 00 A5 
              11 83 00 
              B9 57 83 
              00 29 57 
              83 00 65 



ARM Macro Assembler    Page 31 


              4F 83 00 
              01 60 83 
              00 E5 59 
              83 00 39 
              51 83 00 
              F5 4F 83 
              00 55 54 
              83 00 1D 
              5E 83 00 
              21 52 83 
              00 65 59 
              83 00 79 
              50 83 00 
              71 4F 83 
              00 09 59 
              83 00 3D 
              63 83 00 
              C5 57 83 
              00 81 5C 
              83 00 B1 
              5B 83 00 
              DD 53 83 
              00 11 53 
              83 00 9D 
              4F 83 00 
              29 50 83 
              00 25 4F 
              83 00 D5 
              58 83 00 
              CD 62 83 
              00 39 60 
              83 00 F9 
              5C 83 00 
              4D 61 83 
              00 5D 5F 
              83 00 2D 
              54 83 00 
              DD 50 83 
              00 39 57 
              83 00 A5 
              55 83 00 
              91 63 83 
              00 A1 62 
              83 00 C1 
              5D 83 00 
              2D 5E 83 
              00 45 5F 
              83 00 A1 
              51 83 00 
              07 09 01 
              00 19 5B 
              83 00 6D 
              5A 83 00 
              A9 56 83 
              00 A5 50 
              83 00 09 
              57 83 00 
              0D 74 83 
              00 DD 63 



ARM Macro Assembler    Page 32 


              83 00 29 
              7A 83 00 
              01 66 83 
              00 B9 B2 
              83 00 D5 
              A7 83 00 
              7D 84 83 
              00 81 93 
              83 00 5D 
              B3 83 00 
              A1 93 83 
              00 E9 93 
              83 00 35 
              07 01 00 
              4D 97 00 
              00 31 A0 
              00 00 71 
              7A 83 00 
              5D 67 83 
              00 51 66 
              83 00 CD 
              70 83 00 
              55 71 83 
              00 DD 74 
              83 00 8D 
              AA 83 00 
              51 A8 83 
              00 A9 B1 
              83 00 9D 
              91 83 00 
              D1 84 83 
              00 57 96 
              00 00 61 
              84 83 00 
              AD 77 83 
              00 81 81 
              83 00 15 
              82 83 00 
              B1 80 83 
              00 E5 B5 
              83 00 6D 
              7E 83 00 
              B5 79 83 
              00 8D 97 
              00 00 91 
              6E 83 00 
              75 8F 83 
              00 55 87 
              83 00 49 
              02 01 00 
              21 9C 00 
              00 25 67 
              83 00 C1 
              88 83 00 
              D9 8F 83 
              00 F5 AC 
              83 00 E9 
              77 83 00 
              9D 6D 83 



ARM Macro Assembler    Page 33 


              00 A1 A7 
              83 00 67 
              09 01 00 
              C9 A4 83 
              00 29 9F 
              00 00 55 
              8B 83 00 
              E5 8A 83 
              00 CD 6A 
              83 00 F5 
              86 83 00 
              59 6A 83 
              00 B9 AA 
              83 00 15 
              66 83 00 
              51 B2 83 
              00 9D B3 
              83 00 D9 
              B6 83 00 
              59 B1 83 
              00 91 82 
              83 00 D5 
              B0 83 00 
              81 86 83 
              00 C9 7A 
              83 00 05 
              85 83 00 
              79 7C 83 
              00 89 65 
              83 00 55 
              A5 83 00 
              C9 AF 83 
              00 C5 FE 
              00 00 79 
              99 83 00 
              91 89 83 
              00 C5 B5 
              83 00 0D 
              B8 83 00 
              99 D4 83 
              00 2D C0 
              83 00 9D 
              C2 83 00 
              AD C3 83 
              00 A1 C6 
              83 00 B1 
              C6 83 00 
              C5 C2 83 
              00 A9 D0 
              83 00 55 
              BF 83 00 
              F9 CF 83 
              00 29 BF 
              83 00 C5 
              E1 83 00 
              C1 C0 83 
              00 95 C0 
              83 00 4D 
              D8 83 00 



ARM Macro Assembler    Page 34 


              0D D7 83 
              00 15 D8 
              83 00 F1 
              D7 83 00 
              79 BD 83 
              00 A1 E1 
              83 00 35 
              C2 83 00 
              C5 E0 83 
              00 DD E0 
              83 00 C5 
              DC 83 00 
              99 DA 83 
              00 01 DA 
              83 00 4D 
              B8 83 00 
              75 C0 83 
              00 19 C2 
              83 00 F9 
              C9 83 00 
              3D D6 83 
              00 15 BE 
              83 00 C9 
              D6 83 00 
              5D BA 83 
              00 29 D6 
              83 00 31 
              B9 83 00 
              35 BC 83 
              00 9D D8 
              83 00 5D 
              DC 83 00 
              29 C1 83 
              00 A9 C2 
              83 00 E5 
              C0 83 00 
              25 DB 83 
              00 75 C2 
              83 00 1D 
              D0 83 00 
              5D BC 83 
              00 61 C6 
              83 00 D5 
              C2 83 00 
              05 BC 83 
              00 01 C9 
              83 00 B5 
              C8 83 00 
              ED C8 83 
              00 55 D6 
              83 00 15 
              D9 83 00 
              A5 D1 83 
              00 F1 D5 
              83 00 01 
              D9 83 00 
              81 B8 83 
              00 89 E0 
              83 00 E1 



ARM Macro Assembler    Page 35 


              BC 83 00 
              A5 DB 83 
              00 ED E1 
              83 00 71 
              C1 83 00 
              E9 B7 83 
              00 6D C7 
              83 00 8D 
              C1 83 00 
              1D C8 83 
              00 B5 D1 
              83 00 71 
              DC 83 00 
              E1 C1 83 
              00 A9 C1 
              83 00 19 
              DC 83 00 
              39 D8 83 
              00 4D CB 
              83 00 A5 
              B7 83 00 
              69 CB 83 
              00 8D C9 
              83 00 C9 
              D4 83 00 
              3D A9 00 
              00 99 D6 
              83 00 E5 
              DC 83 00 
              4D D4 83 
              00 1D C3 
              83 00 21 
              DD 83 00 
              45 D9 83 
              00 7D D3 
              83 00 3D 
              D2 83 00 
              41 DA 83 
              00 CD D8 
              83 00 D9 
              BF 83 00 
              95 BD 83 
              00 ED BD 
              83 00 51 
              C0 83 00 
              2D B8 83 
              00 49 BB 
              83 00 31 
              BB 83 00 
              CD DA 83 
              00 D5 D0 
              83 00 49 
              CA 83 00 
              9D D5 83 
              00 81 BF 
              83 00 D5 
              CF 83 00 
              3D C9 83 
              00 DD D1 



ARM Macro Assembler    Page 36 


              83 00 B9 
              D7 83 00 
              25 C7 83 
              00 11 A5 
              00 00 5D 
              BE 83 00 
              21 E1 83 
              00 F9 E0 
              83 00 71 
              B9 83 00 
              8D E1 83 
              00 25 D9 
              83 00 49 
              D7 83 00 
              DD DB 83 
              00 A9 B9 
              83 00 81 
              A1 00 00 
              81 08 01 
              00 59 EB 
              83 00 C5 
              E7 83 00 
              41 E2 83 
              00 25 E2 
              83 00 6D 
              F5 83 00 
              65 EB 83 
              00 85 F2 
              83 00 89 
              F7 83 00 
              B1 F2 83 
              00 A9 F5 
              83 00 AD 
              00 84 00 
              E1 00 84 
              00 19 FD 
              83 00 35 
              EE 83 00 
              FD F3 83 
              00 C9 AE 
              00 00 89 
              FB 83 00 
              B9 FA 83 
              00 21 F9 
              83 00 F1 
              FA 83 00 
              D9 F8 83 
              00 D9 F9 
              83 00 31 
              00 84 00 
              C5 FE 83 
              00 49 E7 
              83 00 05 
              00 84 00 
              4D FF 83 
              00 6D F3 
              83 00 59 
              FE 83 00 
              01 FE 83 



ARM Macro Assembler    Page 37 


              00 25 EB 
              83 00 0D 
              EB 83 00 
              5F AE 00 
              00 35 FD 
              83 00 81 
              EB 83 00 
              59 FD 83 
              00 11 F8 
              83 00 FD 
              F7 83 00 
              C5 ED 83 
              00 AD ED 
              83 00 A1 
              01 84 00 
              E9 E7 83 
              00 B1 F3 
              83 00 DD 
              F2 83 00 
              25 F3 83 
              00 F9 E6 
              83 00 E5 
              E2 83 00 
              41 03 01 
              00 A5 E9 
              83 00 8D 
              F5 83 00 
              51 EE 83 
              00 79 F8 
              83 00 71 
              E2 83 00 
              F1 E8 83 
              00 45 E6 
              83 00 99 
              F7 83 00 
              6D EE 83 
              00 41 F4 
              83 00 B9 
              EB 83 00 
              75 E7 83 
              00 B1 E8 
              83 00 F1 
              AC 00 00 
              61 F1 83 
              00 0D F8 
              00 00 89 
              EE 83 00 
              21 AE 00 
              00 FD E5 
              83 00 A9 
              FD 83 00 
              25 03 01 
              00 B5 FB 
              83 00 F1 
              F1 83 00 
              2D 10 84 
              00 E1 15 
              84 00 B1 
              19 84 00 



ARM Macro Assembler    Page 38 


              C5 15 84 
              00 D9 0F 
              84 00 CD 
              21 84 00 
              49 1E 84 
              00 4D 1F 
              84 00 E1 
              12 84 00 
              ED 08 84 
              00 F1 01 
              84 00 2D 
              0F 84 00 
              ED 23 84 
              00 F5 1E 
              84 00 E5 
              20 84 00 
              49 20 84 
              00 AD 12 
              84 00 F1 
              1A 84 00 
              71 1F 84 
              00 C9 19 
              84 00 AD 
              18 84 00 
              45 0B 84 
              00 91 0B 
              84 00 0D 
              24 84 00 
              8D 23 84 
              00 0D 18 
              84 00 21 
              06 84 00 
              8D 16 84 
              00 31 03 
              84 00 69 
              09 84 00 
              FD 15 84 
              00 E9 02 
              84 00 01 
              02 84 00 
              A9 09 84 
              00 8D 14 
              84 00 81 
              1E 84 00 
              E1 0B 84 
              00 75 1C 
              84 00 AD 
              0A 84 00 
              49 10 84 
              00 71 20 
              84 00 01 
              21 84 00 
              85 0A 84 
              00 29 1D 
              84 00 45 
              07 84 00 
              39 0C 84 
              00 29 19 
              84 00 55 



ARM Macro Assembler    Page 39 


              1E 84 00 
              89 03 84 
              00 E5 1D 
              84 00 21 
              25 84 00 
              49 13 84 
              00 29 1A 
              84 00 55 
              03 01 00 
              ED 12 84 
              00 45 06 
              84 00 01 
              0D 84 00 
              89 43 84 
              00 6D 2A 
              84 00 01 
              4D 84 00 
              15 28 84 
              00 69 28 
              84 00 6D 
              EE 00 00 
              09 40 84 
              00 11 2C 
              84 00 F9 
              27 84 00 
              91 2D 84 
              00 79 4C 
              84 00 89 
              34 84 00 
              19 33 84 
              00 6D 2F 
              84 00 C9 
              2D 84 00 
              F1 2E 84 
              00 7D 2E 
              84 00 65 
              25 84 00 
              DD 34 84 
              00 FD 25 
              84 00 19 
              29 84 00 
              B5 40 84 
              00 D9 44 
              84 00 79 
              29 84 00 
              B9 2B 84 
              00 3D 45 
              84 00 95 
              32 84 00 
              B9 28 84 
              00 D1 38 
              84 00 31 
              48 84 00 
              A9 30 84 
              00 6D 2C 
              84 00 99 
              43 84 00 
              D1 32 84 
              00 6D 33 



ARM Macro Assembler    Page 40 


              84 00 FD 
              2F 84 00 
              5D 45 84 
              00 11 34 
              84 00 B5 
              4A 84 00 
              75 48 84 
              00 C5 48 
              84 00 B1 
              27 84 00 
              31 4A 84 
              00 D9 49 
              84 00 59 
              32 84 00 
              01 4C 84 
              00 39 38 
              84 00 31 
              4D 84 00 
              55 44 84 
              00 D9 3D 
              84 00 55 
              43 84 00 
              51 3C 84 
              00 91 39 
              84 00 95 
              36 84 00 
              91 37 84 
              00 F5 36 
              84 00 E1 
              47 84 00 
              15 47 84 
              00 CD 4C 
              84 00 F5 
              2B 84 00 
              25 46 84 
              00 E5 3A 
              84 00 C9 
              37 84 00 
              49 42 84 
              00 29 2A 
              84 00 A5 
              3F 84 00 
              59 26 84 
              00 95 2A 
              84 00 45 
              2B 84 00 
              C9 5D 84 
              00 C5 09 
              01 00 A1 
              56 84 00 
              95 56 84 
              00 19 57 
              84 00 E9 
              56 84 00 
              05 57 84 
              00 35 5F 
              84 00 1D 
              62 84 00 
              B5 57 84 



ARM Macro Assembler    Page 41 


              00 65 63 
              84 00 ED 
              62 84 00 
              21 63 84 
              00 BD 62 
              84 00 19 
              4E 84 00 
              B9 53 84 
              00 B1 5D 
              84 00 B5 
              51 84 00 
              D5 5F 84 
              00 F9 55 
              84 00 65 
              60 84 00 
              59 53 84 
              00 E5 53 
              84 00 E9 
              4D 84 00 
              F5 09 01 
              00 E1 5F 
              84 00 C9 
              09 01 00 
              99 09 01 
              00 B5 5B 
              84 00 31 
              56 84 00 
              A5 63 84 
              00 CD 60 
              84 00 91 
              63 84 00 
              ED 50 84 
              00 2D 5E 
              84 00 31 
              51 84 00 
              15 5C 84 
              00 61 54 
              84 00 F5 
              5E 84 00 
              F1 5D 84 
              00 D1 0A 
              01 00 71 
              52 84 00 
              59 58 84 
              00 81 5C 
              84 00 71 
              57 84 00 
              25 57 84 
              00 71 58 
              84 00 AD 
              56 84 00 
              41 59 84 
              00 6D 4F 
              84 00 29 
              50 84 00 
              E1 54 84 
              00 BD 61 
              84 00 6D 
              61 84 00 



ARM Macro Assembler    Page 42 


              05 59 84 
              00 A5 66 
              84 00 D9 
              67 84 00 
              45 66 84 
              00 0D 65 
              84 00 91 
              67 84 00 
              B9 63 84 
              00 5D 67 
              84 00 79 
              67 84 00 
              F9 66 84 
              00 21 65 
              84 00 21 
              67 84 00 
              C5 66 84 
              00 8D 66 
              84 00 65 
              66 84 00 
              11 68 84 
              00 51 6C 
              84 00 AD 
              6E 84 00 
              01 6E 84 
              00 F9 70 
              84 00 4D 
              7F 84 00 
              7D 6C 84 
              00 2D 74 
              84 00 45 
              6A 84 00 
              0D 7B 84 
              00 F9 03 
              01 00 15 
              6E 84 00 
              45 7A 84 
              00 E5 6C 
              84 00 45 
              6F 84 00 
              CD EE 00 
              00 29 7E 
              84 00 75 
              6D 84 00 
              95 6B 84 
              00 B5 6D 
              84 00 7D 
              7D 84 00 
              5D 6B 84 
              00 D5 6A 
              84 00 81 
              6A 84 00 
              85 74 84 
              00 B1 80 
              84 00 85 
              7E 84 00 
              CD 7F 84 
              00 49 81 
              84 00 69 



ARM Macro Assembler    Page 43 


              81 84 00 
              ED 89 84 
              00 6D 8A 
              84 00 FD 
              89 84 00 
              8D 89 84 
              00 9D 89 
              84 00 E9 
              85 84 00 
              F9 82 84 
              00 25 85 
              84 00 51 
              8A 84 00 
              75 85 84 
              00 95 84 
              84 00 81 
              81 84 00 
              71 83 84 
              00 C1 89 
              84 00 5D 
              89 84 00 
              D5 89 84 
              00 6D 89 
              84 00 7D 
              89 84 00 
              0D 8A 84 
              00 09 86 
              84 00 79 
              8C 84 00 
              7D 8A 84 
              00 0D 8B 
              84 00 49 
              94 84 00 
              8D 92 84 
              00 E9 8D 
              84 00 9D 
              8B 84 00 
              FD 8C 84 
              00 79 90 
              84 00 0D 
              8C 84 00 
              45 8C 84 
              00 E9 A6 
              84 00 A5 
              AD 84 00 
              29 96 84 
              00 C5 98 
              84 00 15 
              C1 84 00 
              09 A9 84 
              00 99 C2 
              84 00 45 
              B7 84 00 
              31 C1 84 
              00 D1 B8 
              84 00 8D 
              99 84 00 
              B9 9A 84 
              00 25 AC 



ARM Macro Assembler    Page 44 


              84 00 D9 
              BF 84 00 
              C9 BE 84 
              00 A1 96 
              84 00 25 
              B1 84 00 
              51 9B 84 
              00 91 98 
              84 00 4D 
              97 84 00 
              1D 97 84 
              00 7D A6 
              84 00 D1 
              B7 84 00 
              2D AB 84 
              00 85 95 
              84 00 19 
              B0 84 00 
              F5 AD 84 
              00 29 A9 
              84 00 C1 
              A9 84 00 
              21 9F 84 
              00 25 A2 
              84 00 B1 
              AE 84 00 
              C1 AF 84 
              00 D5 A3 
              84 00 75 
              B7 84 00 
              41 A2 84 
              00 E1 BC 
              84 00 6D 
              A8 84 00 
              BD 9D 84 
              00 95 B8 
              84 00 5D 
              95 84 00 
              75 BE 84 
              00 51 B9 
              84 00 A9 
              95 84 00 
              C5 C1 84 
              00 59 9A 
              84 00 41 
              96 84 00 
              3D B8 84 
              00 9D A8 
              84 00 E5 
              A8 84 00 
              A5 9B 84 
              00 F5 A6 
              84 00 3D 
              AF 84 00 
              15 9A 84 
              00 F9 98 
              84 00 ED 
              A9 84 00 
              6D B1 84 



ARM Macro Assembler    Page 45 


              00 FD F0 
              84 00 25 
              DF 84 00 
              25 ED 84 
              00 E5 D0 
              84 00 CD 
              F1 84 00 
              09 F2 84 
              00 35 F2 
              84 00 55 
              F2 84 00 
              CD F2 84 
              00 B1 D3 
              84 00 F5 
              D3 84 00 
              2D D4 84 
              00 C1 D4 
              84 00 A5 
              04 85 00 
              F9 05 85 
              00 6D 05 
              85 00 99 
              04 85 00 
              8D 04 85 
              00 79 D4 
              84 00 45 
              E8 84 00 
              B1 C5 84 
              00 95 DF 
              84 00 31 
              DF 84 00 
              75 E4 84 
              00 1D E0 
              84 00 BD 
              C9 84 00 
              05 ED 84 
              00 A5 00 
              85 00 91 
              FB 84 00 
              F9 ED 84 
              00 91 EF 
              84 00 9D 
              FB 84 00 
              81 EA 84 
              00 79 E2 
              84 00 59 
              C6 84 00 
              61 EB 84 
              00 A1 EB 
              84 00 D1 
              E4 84 00 
              9D 02 85 
              00 A1 F3 
              84 00 15 
              CC 84 00 
              5D FB 84 
              00 81 C5 
              84 00 15 
              D5 84 00 



ARM Macro Assembler    Page 46 


              99 D6 84 
              00 35 E7 
              84 00 B9 
              DF 84 00 
              45 F4 84 
              00 B9 C7 
              84 00 01 
              DF 84 00 
              2D 01 85 
              00 E1 C7 
              84 00 25 
              D1 84 00 
              BF EF 00 
              00 BD DD 
              84 00 4D 
              F3 84 00 
              E1 C9 84 
              00 41 E0 
              84 00 2D 
              CA 84 00 
              9D D4 84 
              00 05 EB 
              84 00 D9 
              00 85 00 
              79 CB 84 
              00 21 FC 
              84 00 B9 
              E8 84 00 
              B5 D8 84 
              00 31 FD 
              84 00 BD 
              FB 84 00 
              1D 04 85 
              00 5D 04 
              85 00 31 
              ED 84 00 
              45 06 85 
              00 5D EC 
              84 00 25 
              C3 84 00 
              1D F3 84 
              00 D9 C6 
              84 00 2D 
              EC 84 00 
              F1 C5 84 
              00 59 E9 
              84 00 19 
              C8 84 00 
              B1 EF 84 
              00 B1 00 
              85 00 49 
              D3 84 00 
              01 C9 84 
              00 E1 D2 
              84 00 8D 
              CB 84 00 
              DD EB 84 
              00 11 F4 
              84 00 09 



ARM Macro Assembler    Page 47 


              FC 84 00 
              D9 F3 84 
              00 69 C3 
              84 00 A1 
              C8 84 00 
              2D EE 84 
              00 71 D6 
              84 00 79 
              01 85 00 
              BD EE 84 
              00 25 D8 
              84 00 DD 
              F9 84 00 
              09 F0 84 
              00 35 F7 
              84 00 B9 
              EF 00 00 
              D9 FC 84 
              00 15 D7 
              84 00 DD 
              D5 84 00 
              1D DE 84 
              00 D9 F5 
              84 00 19 
              F1 84 00 
              99 F1 84 
              00 49 F1 
              84 00 F1 
              F4 84 00 
              A1 F4 84 
              00 F1 D0 
              84 00 3D 
              CC 84 00 
              69 D2 84 
              00 89 E9 
              84 00 71 
              CD 84 00 
              C9 D3 84 
              00 85 06 
              85 00 89 
              07 85 00 
              E9 06 85 
              00 4D 07 
              85 00 11 
              07 85 00 
              25 07 85 
              00 71 06 
              85 00 95 
              06 85 00 
              BD 06 85 
              00 75 07 
              85 00 B1 
              07 85 00 
              9D 07 85 
              00 A9 06 
              85 00 D1 
              06 85 00 
              FD 06 85 
              00 39 07 



ARM Macro Assembler    Page 48 


              85 00 61 
              07 85 00 
              5D 06 85 
              00 15 09 
              85 00 79 
              09 85 00 
              35 0A 85 
              00 BD 09 
              85 00 0D 
              0A 85 00 
              F9 C0 00 
              00 6B 03 
              01 00 4D 
              0A 85 00 
              A9 09 85 
              00 25 09 
              85 00 DD 
              0A 85 00 
              6D 0A 85 
              00 81 08 
              85 00 C5 
              07 85 00 
              0D 0B 85 
              00 59 0F 
              85 00 ED 
              11 85 00 
              C9 12 85 
              00 21 10 
              85 00 F9 
              0D 85 00 
              D5 11 85 
              00 51 10 
              85 00 AD 
              11 85 00 
              01 11 85 
              00 6D 10 
              85 00 11 
              B5 01 00 
              85 0F 85 
              00 85 10 
              85 00 99 
              0D 85 00 
              11 12 85 
              00 0D 22 
              85 00 41 
              17 85 00 
              D9 17 85 
              00 75 20 
              85 00 7D 
              2C 85 00 
              35 2F 85 
              00 B9 22 
              85 00 2D 
              25 85 00 
              9D 23 85 
              00 61 2F 
              85 00 A5 
              27 85 00 
              C9 2A 85 



ARM Macro Assembler    Page 49 


              00 6D 29 
              85 00 9D 
              22 85 00 
              31 22 85 
              00 A5 24 
              85 00 E1 
              23 85 00 
              B1 2F 85 
              00 BD 2C 
              85 00 59 
              14 85 00 
              C9 13 85 
              00 A1 1C 
              85 00 45 
              2C 85 00 
              A9 17 85 
              00 B1 20 
              85 00 31 
              1A 85 00 
              FD 17 85 
              00 29 1D 
              85 00 21 
              14 85 00 
              AD 21 85 
              00 B5 30 
              85 00 45 
              31 85 00 
              35 27 85 
              00 D1 31 
              85 00 C5 
              14 85 00 
              BD 2D 85 
              00 2D 23 
              85 00 59 
              23 85 00 
              89 14 85 
              00 4D 46 
              85 00 65 
              47 85 00 
              25 36 85 
              00 51 47 
              85 00 3D 
              46 85 00 
              8D 3C 85 
              00 51 4A 
              85 00 99 
              4A 85 00 
              75 47 85 
              00 1D 47 
              85 00 55 
              36 85 00 
              5D 46 85 
              00 D5 3B 
              85 00 49 
              49 85 00 
              D5 3A 85 
              00 E1 39 
              85 00 41 
              39 85 00 



ARM Macro Assembler    Page 50 


              E5 38 85 
              00 09 37 
              85 00 45 
              35 85 00 
              C9 3C 85 
              00 75 4B 
              85 00 B9 
              45 85 00 
              ED 48 85 
              00 21 46 
              85 00 21 
              3A 85 00 
              A9 40 85 
              00 01 32 
              85 00 F5 
              32 85 00 
              FD 37 85 
              00 89 4E 
              85 00 DD 
              50 85 00 
              ED 50 85 
              00 5D 57 
              85 00 09 
              55 85 00 
              49 50 85 
              00 5D 50 
              85 00 D1 
              52 85 00 
              F5 52 85 
              00 E5 4E 
              85 00 C9 
              55 85 00 
              65 56 85 
              00 C9 50 
              85 00 09 
              4F 85 00 
              C7 B5 01 
              00 9D 55 
              85 00 0D 
              53 85 00 
              A9 4C 85 
              00 B9 57 
              85 00 A5 
              57 85 00 
              0D 51 85 
              00 FD 5A 
              85 00 D5 
              51 85 00 
              A9 51 85 
              00 B1 52 
              85 00 9D 
              53 85 00 
              39 55 85 
              00 9D 4E 
              85 00 C9 
              57 85 00 
              6D 57 85 
              00 95 4C 
              85 00 09 



ARM Macro Assembler    Page 51 


              57 85 00 
              8D 4F 85 
              00 FF B5 
              01 00 FD 
              59 85 00 
              01 4D 85 
              00 ED 59 
              85 00 D9 
              59 85 00 
              19 4C 85 
              00 75 6C 
              85 00 81 
              6E 85 00 
              51 6C 85 
              00 29 5C 
              85 00 41 
              6E 85 00 
              79 5E 85 
              00 8B 06 
              01 00 AD 
              6E 85 00 
              B5 6C 85 
              00 6D 65 
              85 00 1D 
              5F 85 00 
              19 6B 85 
              00 85 79 
              85 00 71 
              73 85 00 
              B5 8E 85 
              00 E1 95 
              85 00 01 
              82 85 00 
              51 90 85 
              00 2D 82 
              85 00 D1 
              90 85 00 
              FD 90 85 
              00 BD 92 
              85 00 6D 
              8F 85 00 
              CD 92 85 
              00 55 96 
              85 00 C5 
              8E 85 00 
              85 72 85 
              00 5D 8D 
              85 00 01 
              83 85 00 
              C1 91 85 
              00 25 70 
              85 00 0D 
              91 85 00 
              C1 76 85 
              00 69 71 
              85 00 41 
              71 85 00 
              F9 7F 85 
              00 79 70 



ARM Macro Assembler    Page 52 


              85 00 F1 
              93 85 00 
              9D 95 85 
              00 F5 74 
              85 00 49 
              74 85 00 
              6D 78 85 
              00 BD 72 
              85 00 ED 
              8A 85 00 
              C9 8C 85 
              00 99 91 
              85 00 59 
              7D 85 00 
              BD 71 85 
              00 75 81 
              85 00 0D 
              81 85 00 
              A9 79 85 
              00 21 77 
              85 00 21 
              93 85 00 
              89 92 85 
              00 D1 94 
              85 00 95 
              96 85 00 
              65 83 85 
              00 D9 73 
              85 00 65 
              82 85 00 
              CD B6 01 
              00 59 75 
              85 00 21 
              76 85 00 
              55 6F 85 
              00 6D 95 
              85 00 E5 
              83 85 00 
              29 84 85 
              00 AD 8F 
              85 00 F1 
              6E 85 00 
              DF 20 01 
              00 09 11 
              01 00 6B 
              1D 01 00 
              77 1D 01 
              00 7D 1B 
              01 00 A5 
              15 01 00 
              6D 16 01 
              00 15 16 
              01 00 DD 
              15 01 00 
              B1 15 01 
              00 AB 15 
              01 00 55 
              23 01 00 
              CD 1F 01 



ARM Macro Assembler    Page 53 


              00 CD 14 
              01 00 25 
              11 01 00 
              15 23 01 
              00 1D 23 
              01 00 81 
              14 01 00 
              57 11 01 
              00 11 1E 
              01 00 55 
              11 01 00 
              9B 25 01 
              00 0D 28 
              01 00 07 
              1B 01 00 
              95 14 01 
              00 A7 1F 
              01 00 A3 
              1F 01 00 
              8D 1F 01 
              00 77 1B 
              01 00 4F 
              11 01 00 
              49 11 01 
              00 FD 22 
              01 00 5D 
              2B 01 00 
              C7 1F 01 
              00 F5 22 
              01 00 0D 
              15 01 00 
              2D 23 01 
              00 D1 20 
              01 00 A3 
              17 01 00 
              B9 16 01 
              00 8D 1C 
              01 00 A5 
              17 01 00 
              6D 1C 01 
              00 73 1C 
              01 00 33 
              23 01 00 
              15 1B 01 
              00 9B 19 
              01 00 45 
              17 01 00 
              01 1B 01 
              00 CF 1F 
              01 00 05 
              C2 00 00 
              41 C2 00 
              00 7D C2 
              00 00 A9 
              C5 00 00 
              C1 CA 00 
              00 09 0D 
              02 00 29 
              CB 00 00 



ARM Macro Assembler    Page 54 


              31 CB 00 
              00 33 D1 
              00 00 D3 
              CE 00 00 
              CF CF 00 
              00 47 CF 
              00 00 89 
              32 00 00 
              D1 30 00 
              00 A1 30 
              00 00 C3 
              30 00 00 
              5D 30 00 
              00 49 30 
              00 00 3D 
              08 01 00 
              41 08 01 
              00 EB 32 
              00 00 3B 
              33 00 00 
              2D 4B 00 
              00 5D F3 
              00 00 59 
              3A 00 00 
              5B F3 00 
              00 41 56 
              00 00 D5 
              73 00 00 
              B9 7D 00 
              00 A1 6A 
              00 00 29 
              EB 00 00 
              55 EB 00 
              00 DB EB 
              00 00 AD 
              EC 00 00 
              67 EB 00 
              00 19 A2 
              00 00 4D 
              F3 00 00 
              49 F3 00 
              00 3D F3 
              00 00 43 
              F3 00 00 
              6B EE 00 
              00 55 F3 
              00 00 53 
              F3 00 00 
              57 F3 00 
              00 59 F3 
              00 00 3B 
              F3 00 00 
              41 F3 00 
              00 47 F3 
              00 00 4F 
              F3 00 00 
              43 B0 00 
              00 2F B0 
              00 00 35 



ARM Macro Assembler    Page 55 


              B0 00 00 
              39 B0 00 
              00 4D B0 
              00 00 5D 
              08 01 00 
              63 08 01 
              00 75 08 
              01 00 6F 
              08 01 00 
              73 08 01 
              00 61 08 
              01 00 79 
              08 01 00 
              7B 08 01 
              00 77 08 
              01 00 69 
              08 01 00 
              67 08 01 
              00 6B 08 
              01 00 91 
              EF 00 00 
              43 08 01 
              00 47 08 
              01 00 49 
              08 01 00 
              4D 08 01 
              00 4F 08 
              01 00 51 
              08 01 00 
              53 08 01 
              00 55 08 
              01 00 59 
              08 01 00 
              77 F3 00 
              00 73 F3 
              00 00 6B 
              F3 00 00 
              79 F3 00 
              00 69 F3 
              00 00 61 
              F3 00 00 
              6F F3 00 
              00 5F F3 
              00 00 63 
              F3 00 00 
              75 F3 00 
              00 97 EF 
              00 00 01 
              00 00 00 
              20 00 00 
              00 1F 00 
              00 00 50 
              00 00 00 
              02 00 00 
              00 01 00 
              00 00 01 
              00 00 00 
              01 00 00 
              00 00 00 



ARM Macro Assembler    Page 56 


              00 00 56 
              B8 01 00 
              0A 07 08 
              00 A5 13 
              02 00 51 
              FB 80 00 
              C3 30 00 
              00 C9 2F 
              00 00 00 
              00 00 00 
              D1 F9 80 
              00 00 00 
              00 00 29 
              FB 80 00 
              00 00 00 
              00 00 00 
              00 00 9C 
              18 00 40 
              96 00 FF 
              FF FF FF 
              FF FF FF 
              FF FF FF 
              FF FF FF 
              FF FF FF 
              FF FF FF 
              FF AA AA 
              03 00 40 
              96 00 00 
              00 00 00 
              00 00 00 
              00 00 00 
              00 00 00 
              00 00 00 
              00 00 00 
              00 00 00 
              00 00 00 
              00 00 00 
              00 00 00 
              00 00 00 
              00 00 00 
              00 00 00 
              00 00 00 
              00 00 00 
              00 00 00 
              00 00 00 
              00 00 00 
              00 00 00 
              00 00 00 
              00 00 00 
              00 00 00 
              00 00 00 
              00 00 00 
              00 00 00 
              00 00 00 
              00 00 00 
              00 00 00 
              00 00 00 
              00 00 00 
              00 00 00 



ARM Macro Assembler    Page 57 


              00 00 00 
              00 00 00 
              00 00 00 
              00 00 00 
              00 00 00 
              00 00 00 
              00 00 00 
              00 00 00 
              00 00 00 
              00 00 00 
              00 00 00 
              00 00 00 
              00 00 00 
              00 00 00 
              00 00 00 
              00 00 00 
              00 00 00 
              00 00 00 
              00 00 00 
              00 00 00 
              00 00 00 
              00 00 00 
              00 00 00 
              00 00 00 
              00 00 00 
              00 00 00 
              00 00 00 
              00 00 00 
              00 00 00 
              00 00 00 
              00 00 00 
              00 00 00 
              00 00 00 
              00 00 00 
              00 00 00 
              00 00 00 
              00 00 00 
              00 00 00 
              00 00 00 
              00 00 00 
              00 00 00 
              00 00 00 
              00 00 00 
              00 00 00 
              00 00 00 
              00 00 00 
              00 00 00 
              00 00 00 
              00 00 00 
              00 00 00 
              00 00 00 
              00 00 00 
              00 00 00 
              00 00 00 
              00 00 00 
              00 00 00 
              00 00 00 
              00 00 00 
              00 00 00 



ARM Macro Assembler    Page 58 


              00 00 00 
              00 00 00 
              00 00 00 
              00 00 00 
              00 00 00 
              00 00 00 
              00 00 00 
              00 00 00 
              00 00 00 
              00 00 00 
              00 00 00 
              00 00 00 
              00 00 00 
              00 00 00 
              00 00 00 
              00 00 00 
              00 00 00 
              00 00 00 
              00 00 00 
              00 00 00 
              00 00 00 
              00 00 00 
              00 00 00 
              00 00 00 
              00 00 00 
              00 00 00 
              00 00 00 
              00 00 00 
              00 00 00 
              00 00 00 
              00 00 00 
              00 00 00 
              00 00 00 
              00 00 00 
              00 00 00 
              00 00 00 
              00 00 00 
              00 00 00 
              00 00 00 
              00 00 00 
              00 00 00 
              00 2D E9 
              F7 4F B1 
              F1 00 0B 
              04 46 15 
              46 9A 46 
              4A DB 43 
              8A 81 8A 
              5A 44 4B 
              43 9A 42 
              44 DA 80 
              68 08 F0 
              4B DB 00 
              21 01 90 
              A0 68 08 
              F0 18 DD 
              43 69 06 
              46 43 F0 
              00 43 43 



ARM Macro Assembler    Page 59 


              61 00 27 
              1D E0 1A 
              F8 01 9B 
              4F F0 08 
              08 01 E0 
              AF 42 18 
              D0 19 F0 
              01 0F 0D 
              D0 20 46 
              31 46 07 
              EB 0B 02 
              FE F3 05 
              F7 30 B1 
              73 69 4F 
              F0 FF 30 
              23 F0 00 
              43 73 61 
              1F E0 01 
              37 B8 F1 
              01 08 4F 
              EA 59 09 
              E6 D1 AF 
              42 DF DB 
              73 69 A0 
              68 23 F0 
              00 43 73 
              61 00 21 
              08 F0 59 
              DC A0 68 
              01 21 08 
              F0 55 DC 
              20 46 31 
              46 FE F3 
              FF F2 A0 
              68 01 99 
              08 F0 DD 
              DC 00 20 
              01 E0 6F 
              F0 1C 00 
              BD E8 FE 
              8F 2D E9 
              F0 41 1E 
              46 05 46 
              88 46 17 
              46 1E F0 
              43 FA 43 
              68 41 46 
              9C 69 28 
              46 3A 46 
              33 46 A0 
              47 BD E8 
              F0 81 40 
              7C 70 47 
              13 B5 00 
              F0 99 D8 
              78 B1 00 
              24 09 E0 
              00 22 01 
              A9 FF F3 



ARM Macro Assembler    Page 60 


              52 F7 01 
              98 03 78 
              2C 2B 08 
              BF 01 30 
              01 34 03 
              78 00 2B 
              F2 D1 00 
              E0 04 46 
              20 46 1C 
              BD 38 B5 
              B0 F8 42 
              30 05 46 
              B3 B1 40 
              F2 E9 34 
              02 E0 0A 
              20 03 F0 
              3E DF 2B 
              6B 1A 69 
              02 F0 70 
              42 B2 F1 
              00 5F 05 
              D0 B2 F1 
              40 5F 02 
              D0 0A B1 
              01 3C EF 
              D1 1A 68 
              22 F0 10 
              02 1A 60 
              38 BD 70 
              B5 90 F8 
              78 31 04 
              46 FF 2B 
              1C D0 0E 
              4D 40 6A 
              EB 6E 98 
              47 D5 F8 
              9C 50 60 
              6A A8 47 
              01 28 0B 
              D8 94 F8 
              14 12 41 
              B9 0B 46 
              20 46 08 
              4A 03 F0 
              40 DE 01 
              23 84 F8 
              14 32 70 
              BD 60 6A 
              94 F8 05 
              61 A8 47 
              30 18 84 
              F8 06 01 
              70 BD E0 
              A6 85 00 
              3D 98 80 
              00 71 B1 
              91 F8 08 
              32 01 2B 
              0A D0 91 



ARM Macro Assembler    Page 61 


              F8 75 31 
              3B B1 4B 
              69 1A 6A 
              03 4B 13 
              40 13 B1 
              08 46 0C 
              F0 7C BF 
              70 47 00 
              BF 00 FC 
              01 01 D0 
              F8 80 11 
              10 B5 04 
              46 99 B1 
              02 23 C0 
              68 D4 F8 
              84 21 08 
              F0 27 DB 
              07 4B 1B 
              68 53 B9 
              D4 F8 80 
              11 D4 F8 
              84 21 E0 
              68 4A 40 
              02 23 BD 
              E8 10 40 
              08 F0 19 
              9B 10 BD 
              90 08 02 
              00 F8 B5 
              90 F8 17 
              32 04 46 
              01 2B 74 
              D0 01 23 
              80 F8 17 
              32 00 27 
              42 E0 A0 
              68 31 46 
              00 F0 A5 
              DB D4 F8 
              F0 30 1B 
              68 98 42 
              05 D9 28 
              46 00 21 
              32 46 00 
              F0 31 DB 
              41 E0 20 
              46 FF F7 
              8B FF 35 
              69 00 23 
              AB 71 94 
              F8 78 31 
              31 46 2B 
              72 94 F8 
              06 31 84 
              F8 07 31 
              6B 72 D4 
              F8 FC 31 
              60 6A 01 
              33 C4 F8 



ARM Macro Assembler    Page 62 


              FC 31 6A 
              79 25 4B 
              82 F0 80 
              02 D2 09 
              5B 6A 98 
              47 B0 B9 
              D4 F8 F8 
              20 6B 79 
              7A B1 18 
              07 0D D0 
              69 78 2B 
              78 12 69 
              43 EA 01 
              23 0F 33 
              1B 09 19 
              0A 18 BF 
              00 23 93 
              71 94 F8 
              78 31 13 
              72 C4 F8 
              F8 60 01 
              27 D4 F8 
              F0 30 1B 
              68 01 2B 
              08 D9 04 
              F1 28 05 
              28 46 00 
              21 00 F0 
              73 DA 06 
              46 00 28 
              AE D1 00 
              23 84 F8 
              17 32 C4 
              F8 F8 30 
              2F B1 63 
              69 04 22 
              5A 64 20 
              46 07 F0 
              60 DF E3 
              8D D4 F8 
              C8 21 93 
              42 04 D9 
              20 69 BD 
              E8 F8 40 
              01 F0 E6 
              9D D4 F8 
              CC 21 93 
              42 04 D2 
              20 69 BD 
              E8 F8 40 
              01 F0 CF 
              9D F8 BD 
              E0 A6 85 
              00 11 F4 
              7C 4F 2D 
              E9 F0 41 
              04 46 0D 
              46 56 4E 
              66 D0 11 



ARM Macro Assembler    Page 63 


              F4 80 68 
              0E D0 F3 
              6D 40 6A 
              98 47 33 
              6B 07 1C 
              60 6A 18 
              BF 01 27 
              98 47 10 
              F1 00 08 
              18 BF 4F 
              F0 01 08 
              00 E0 47 
              46 2A 05 
              0C D5 F3 
              6D 60 6A 
              98 47 33 
              6B 00 28 
              18 BF 01 
              27 60 6A 
              98 47 00 
              28 18 BF 
              4F F0 01 
              08 EB 04 
              0C D5 F3 
              6D 60 6A 
              98 47 33 
              6B 00 28 
              18 BF 01 
              27 60 6A 
              98 47 00 
              28 18 BF 
              4F F0 01 
              08 A8 04 
              04 D5 D4 
              F8 38 31 
              01 33 C4 
              F8 38 31 
              69 04 09 
              D5 D4 F8 
              3C 31 01 
              27 01 33 
              C4 F8 3C 
              31 D4 F8 
              3C 31 D4 
              F8 38 31 
              2A 04 10 
              D5 D4 F8 
              40 31 D4 
              F8 F4 10 
              01 33 C4 
              F8 40 31 
              31 B1 A0 
              68 01 22 
              04 F0 E0 
              D8 00 23 
              C4 F8 F4 
              30 4F F0 
              01 08 1F 
              B9 B8 F1 



ARM Macro Assembler    Page 64 


              00 0F 03 
              D1 0A E0 
              B8 F1 00 
              0F 04 D0 
              20 46 00 
              21 07 F0 
              BD DD 17 
              B1 20 46 
              07 F0 07 
              D9 EB 01 
              02 D5 20 
              46 0C F0 
              6A FE 15 
              F4 90 3F 
              12 D1 B3 
              6F 60 6A 
              98 47 70 
              B9 05 46 
              2D E0 20 
              46 07 F0 
              08 DA D4 
              F8 D8 31 
              01 35 9D 
              42 05 D3 
              23 6A 43 
              F4 80 33 
              23 62 06 
              E0 00 25 
              B3 6E 60 
              6A 98 47 
              01 46 00 
              28 EB D1 
              D4 F8 0C 
              02 20 B1 
              03 78 13 
              B1 00 21 
              00 F0 1F 
              D8 20 46 
              FF F7 8E 
              FE 94 F8 
              07 31 94 
              F8 06 21 
              9A 42 08 
              D0 94 F8 
              05 21 9B 
              1A DB B2 
              02 2B 02 
              D8 20 46 
              07 F0 07 
              D9 D4 F8 
              D8 01 85 
              42 34 BF 
              00 20 01 
              20 BD E8 
              F0 81 00 
              BF E0 A6 
              85 00 2D 
              E9 F0 41 
              04 46 0D 



ARM Macro Assembler    Page 65 


              46 16 46 
              98 46 40 
              F2 E9 37 
              02 E0 0A 
              20 03 F0 
              94 DD 63 
              69 1A 6D 
              00 2A 04 
              DA 01 3F 
              F6 D1 38 
              46 BD E8 
              F0 81 06 
              9A 46 44 
              36 02 B2 
              F1 80 7F 
              46 F0 00 
              46 03 D1 
              2A 78 42 
              F0 80 72 
              B6 18 1E 
              65 40 F2 
              E9 36 02 
              E0 0A 20 
              03 F0 78 
              DD 63 69 
              1B 6D 00 
              2B 03 DB 
              2B 70 01 
              20 BD E8 
              F0 81 01 
              3E F2 D1 
              30 46 BD 
              E8 F0 81 
              D0 F8 94 
              31 10 B5 
              99 42 04 
              46 03 D8 
              0C F0 EB 
              FD E0 8D 
              10 BD 00 
              20 10 BD 
              00 23 C2 
              6B 0A B1 
              01 3A C2 
              63 01 33 
              DB B2 10 
              30 10 2B 
              F6 D1 70 
              47 03 68 
              2D E9 F7 
              4F 01 2A 
              14 BF 4F 
              F0 2A 08 
              4F F0 32 
              08 05 46 
              0E 46 58 
              68 41 46 
              91 46 04 
              F0 58 D8 



ARM Macro Assembler    Page 66 


              07 46 48 
              B9 2B 68 
              4F F0 FF 
              30 1B 68 
              D3 F8 8C 
              30 1A 6D 
              01 32 1A 
              65 64 E0 
              06 F1 0E 
              0B 59 46 
              04 69 04 
              22 01 A8 
              FF F3 40 
              F1 01 9A 
              4A F6 FE 
              13 12 BA 
              B3 EB 12 
              4F 0C BF 
              2C 49 06 
              F1 08 01 
              20 46 06 
              22 05 F1 
              28 0A FF 
              F3 30 F1 
              A0 1D 51 
              46 06 22 
              FF F3 2B 
              F1 B9 F1 
              00 0F 0E 
              D0 00 23 
              23 73 84 
              F8 0D 80 
              04 F1 0E 
              00 21 49 
              06 22 FF 
              F3 1E F1 
              08 23 23 
              75 06 23 
              63 75 03 
              E0 08 23 
              23 73 06 
              23 63 73 
              A8 F1 1C 
              08 44 44 
              31 46 06 
              22 20 46 
              FF F3 0D 
              F1 00 23 
              A3 71 02 
              23 E3 71 
              51 46 06 
              22 04 F1 
              08 00 FF 
              F3 03 F1 
              06 F1 18 
              01 04 22 
              04 F1 0E 
              00 FF F3 
              FC F0 06 



ARM Macro Assembler    Page 67 


              F1 08 01 
              06 22 04 
              F1 12 00 
              FF F3 F5 
              F0 59 46 
              04 22 04 
              F1 18 00 
              FF F3 EF 
              F0 D5 F8 
              5C 31 28 
              68 01 33 
              C5 F8 5C 
              31 39 46 
              D5 F8 68 
              21 25 F0 
              FA D9 01 
              20 BD E8 
              FE 8F 00 
              BF 2C 9E 
              85 00 14 
              D2 85 00 
              10 B5 03 
              68 D3 F8 
              00 48 1B 
              68 93 F8 
              AB 30 6B 
              B1 FF F7 
              63 FF 08 
              E0 A1 68 
              29 B1 01 
              20 00 F0 
              80 FA 08 
              B1 FF F7 
              5A FF 24 
              68 00 2C 
              F4 D1 00 
              20 10 BD 
              F8 B5 06 
              68 05 46 
              0F 46 70 
              68 4F F4 
              BC 71 03 
              F0 67 DF 
              04 46 88 
              B1 00 21 
              4F F4 BC 
              72 FF F3 
              18 F1 D5 
              F8 60 31 
              26 60 C4 
              F8 60 31 
              95 F8 64 
              31 C4 F8 
              68 71 84 
              F8 64 31 
              6B 68 63 
              60 20 46 
              F8 BD 01 
              46 28 B1 



ARM Macro Assembler    Page 68 


              03 68 4F 
              F4 BC 72 
              58 68 03 
              F0 59 9F 
              70 47 F8 
              B5 C3 68 
              05 46 0E 
              46 58 68 
              38 21 17 
              46 03 F0 
              3F DF 04 
              46 00 28 
              2B D0 00 
              21 38 22 
              FF F3 F0 
              F0 01 23 
              31 46 23 
              60 63 60 
              A3 60 06 
              22 04 F1 
              0C 00 FF 
              F3 82 F0 
              73 8E 06 
              F1 09 01 
              A3 74 33 
              7A 04 F1 
              14 00 E3 
              74 32 7A 
              FF F3 77 
              F0 76 8D 
              28 46 A6 
              86 E7 86 
              21 46 38 
              22 21 23 
              0B F0 82 
              DD 50 B1 
              EB 68 21 
              46 58 68 
              38 22 03 
              F0 23 DF 
              4F F0 FF 
              30 F8 BD 
              6F F0 1A 
              00 F8 BD 
              00 00 70 
              B5 0D 46 
              03 80 19 
              46 90 F8 
              CF 30 90 
              B0 14 46 
              17 4E 4F 
              F0 FF 32 
              00 95 7B 
              B9 02 92 
              03 92 04 
              92 05 92 
              0C 22 01 
              93 06 93 
              07 93 08 



ARM Macro Assembler    Page 69 


              93 09 93 
              0A 96 0B 
              90 0C 92 
              0D 93 0E 
              93 12 E0 
              5B B2 00 
              25 02 92 
              03 92 04 
              92 05 92 
              07 93 00 
              F1 D0 02 
              0C 23 01 
              95 06 92 
              08 95 09 
              95 0A 96 
              0B 90 0C 
              93 0D 95 
              0E 95 04 
              4A 23 46 
              C0 68 23 
              F0 EB DF 
              10 B0 70 
              BD 00 BF 
              65 F2 00 
              00 2C 9E 
              85 00 1F 
              B5 83 6D 
              04 46 01 
              2B 16 D1 
              B0 F8 58 
              31 DB 07 
              12 D4 C3 
              68 93 F8 
              70 32 73 
              B9 02 AA 
              03 A9 01 
              AB 0C F0 
              43 F9 02 
              9A 3A B1 
              20 46 03 
              99 01 9B 
              FF F7 AB 
              FF 08 B9 
              02 23 A3 
              65 1F BD 
              08 B5 B0 
              F8 58 21 
              69 B1 42 
              F0 01 02 
              A0 F8 58 
              21 82 6D 
              02 2A 12 
              D1 C3 68 
              0C 21 D3 
              F8 68 01 
              51 F0 12 
              DB 0B E0 
              D1 07 09 
              D5 22 F0 



ARM Macro Assembler    Page 70 


              01 02 A0 
              F8 58 21 
              82 6D 1A 
              B1 01 22 
              82 65 FF 
              F7 C5 FF 
              00 20 08 
              BD 70 47 
              10 B5 0C 
              46 41 B1 
              8B 68 23 
              B9 C0 6F 
              09 68 FF 
              F7 19 FF 
              A0 60 A0 
              68 10 BD 
              C0 6F 10 
              BD F8 B5 
              8C 69 0B 
              46 21 69 
              8B 42 03 
              D0 DD 6A 
              15 B1 2F 
              68 01 E0 
              00 25 2F 
              46 63 68 
              11 46 D8 
              68 03 F0 
              B9 DE A3 
              68 06 46 
              1B 68 93 
              F8 95 30 
              1B B1 C3 
              8A 43 F0 
              80 03 C3 
              82 63 68 
              93 F8 AB 
              30 8B B1 
              20 46 29 
              46 FF F7 
              CF FF 60 
              B1 31 46 
              0A F0 BD 
              D8 02 28 
              07 D1 63 
              68 31 46 
              D8 68 01 
              22 03 F0 
              7D DE 01 
              20 F8 BD 
              A0 68 31 
              46 3A 46 
              25 F0 B8 
              D8 00 30 
              18 BF 01 
              20 F8 BD 
              08 B5 80 
              68 00 F0 
              62 FC 00 



ARM Macro Assembler    Page 71 


              20 08 BD 
              10 B5 04 
              46 FF F7 
              F6 FF A0 
              68 BD E8 
              10 40 03 
              F0 C1 BB 
              00 00 38 
              B5 05 46 
              6B 68 80 
              68 1B 7E 
              B3 B9 02 
              F0 6D F9 
              04 46 20 
              B9 D5 F8 
              80 00 0A 
              F0 33 FA 
              04 46 09 
              F0 67 FC 
              6B 68 D3 
              F8 9C 10 
              41 B1 0B 
              78 33 B1 
              04 4B 00 
              22 18 68 
              FF F3 CA 
              F5 00 E0 
              00 24 20 
              46 38 BD 
              10 09 02 
              00 10 B5 
              43 68 04 
              46 1B 7E 
              53 B1 D0 
              F8 80 00 
              0A F0 2B 
              FA A0 68 
              05 F0 19 
              FB 63 68 
              00 22 83 
              F8 20 20 
              10 BD 08 
              B5 80 69 
              FF F7 EB 
              FF 00 20 
              08 BD 00 
              00 1F B5 
              08 4A 03 
              46 00 92 
              07 4A 08 
              46 01 92 
              07 4A 07 
              49 D2 69 
              02 92 1A 
              68 06 4B 
              FF F3 15 
              F2 05 B0 
              00 BD 00 
              BF E7 BB 



ARM Macro Assembler    Page 72 


              01 00 AC 
              BB 01 00 
              EC 08 02 
              00 B8 BB 
              01 00 DB 
              BB 01 00 
              2D E9 F8 
              43 04 46 
              08 46 15 
              46 0D F0 
              F9 F9 01 
              46 10 B9 
              D4 F8 10 
              90 01 E0 
              D0 F8 04 
              90 A2 68 
              D9 F8 24 
              70 12 68 
              2B 69 92 
              F8 95 20 
              1A B1 EE 
              8A C6 F3 
              C0 26 09 
              E0 1E 7B 
              5B 7B 43 
              EA 06 26 
              48 F6 6C 
              03 F3 1A 
              5E 42 46 
              EB 03 06 
              D6 B9 63 
              68 93 F8 
              AB 30 CB 
              B1 20 46 
              FF F7 26 
              FF A8 B1 
              29 46 09 
              F0 06 DF 
              04 28 01 
              D0 01 28 
              04 D1 63 
              68 29 46 
              D8 68 00 
              22 4C E0 
              A0 F1 05 
              0C DC F1 
              00 08 48 
              EB 0C 08 
              03 E0 4F 
              F0 00 08 
              00 E0 B0 
              46 63 68 
              93 F8 95 
              30 1B B1 
              16 B9 AB 
              8A 2D 33 
              AB 82 00 
              2F 33 D0 
              06 BB FB 



ARM Macro Assembler    Page 73 


              69 D8 07 
              0B D5 63 
              7D 4B B1 
              20 46 29 
              46 0C F0 
              F2 DB 20 
              B9 63 68 
              29 46 D8 
              68 32 46 
              27 E0 B8 
              F1 00 0F 
              0E D1 63 
              68 93 F8 
              96 30 53 
              B1 D4 F8 
              84 00 29 
              46 0D F0 
              C7 F8 20 
              B9 63 68 
              29 46 D8 
              68 42 46 
              15 E0 63 
              68 29 46 
              D8 68 03 
              F0 F1 DD 
              3B 69 04 
              46 DB 68 
              48 46 39 
              46 22 46 
              98 47 60 
              B1 20 46 
              BD E8 F8 
              43 03 F0 
              20 9D 63 
              68 29 46 
              D8 68 3A 
              46 BD E8 
              F8 43 03 
              F0 82 9D 
              BD E8 F8 
              83 4A 6A 
              08 B5 42 
              F4 80 12 
              91 F8 43 
              30 4A 62 
              D0 F8 88 
              20 03 F0 
              07 03 D3 
              18 93 F8 
              80 20 01 
              32 83 F8 
              80 20 D0 
              F8 88 30 
              01 22 83 
              F8 86 20 
              D0 F8 88 
              30 93 F8 
              81 10 93 
              F8 7B 20 



ARM Macro Assembler    Page 74 


              91 42 11 
              D2 93 F8 
              80 10 93 
              F8 7A 20 
              91 42 0B 
              D2 93 F8 
              82 10 93 
              F8 7C 20 
              91 42 05 
              D2 93 F8 
              83 20 93 
              F8 7D 30 
              9A 42 01 
              D3 0D F0 
              34 D8 00 
              20 08 BD 
              73 B5 14 
              46 05 46 
              11 46 40 
              6F FF F7 
              8A FE 63 
              68 11 2B 
              08 D0 12 
              2B 01 D0 
              10 2B 1C 
              D1 A3 78 
              03 F0 01 
              03 2B 75 
              17 E0 02 
              AA 00 23 
              42 F8 04 
              3D A8 68 
              94 F8 2F 
              10 3B F0 
              DE DF 06 
              46 60 B1 
              83 79 23 
              B9 61 88 
              C1 F3 80 
              01 26 F0 
              97 DF B3 
              79 1B B1 
              A8 68 31 
              46 0B F0 
              96 FD 7C 
              BD 01 28 
              0C BF 88 
              68 00 20 
              70 47 64 
              29 11 DC 
              63 29 1E 
              DA 4A 29 
              1C D0 06 
              DC 07 29 
              1C DB 08 
              29 17 DD 
              3C 29 18 
              D1 14 E0 
              50 29 12 



ARM Macro Assembler    Page 75 


              D0 14 DB 
              5C 39 03 
              29 0D E0 
              C3 29 04 
              DC C2 29 
              0A DA A8 
              39 02 29 
              06 E0 B1 
              F5 84 7F 
              04 D0 06 
              DB A1 F5 
              89 71 01 
              29 02 D8 
              6F F0 16 
              00 70 47 
              00 20 70 
              47 C8 88 
              10 F0 08 
              00 18 BF 
              6F F0 16 
              00 70 47 
              4F F0 FF 
              33 10 B5 
              A0 F8 3C 
              32 04 46 
              00 F5 0E 
              70 06 30 
              00 21 0C 
              22 FE F3 
              6F F6 23 
              68 5B 6B 
              23 B9 4F 
              F0 FF 33 
              A4 F8 40 
              32 0B E0 
              0F 23 A4 
              F8 3E 32 
              F0 23 A4 
              F8 40 32 
              4F F4 70 
              63 A4 F8 
              42 32 4F 
              F2 00 03 
              A4 F8 44 
              32 10 BD 
              2D E9 F0 
              4F 87 B0 
              17 46 03 
              93 D2 F8 
              10 80 69 
              4B 52 68 
              DD F8 40 
              A0 13 40 
              83 46 0D 
              46 0E 69 
              00 2B 14 
              BF 4F F0 
              0C 09 4F 
              F0 0A 09 



ARM Macro Assembler    Page 76 


              BA F1 00 
              0F 04 D0 
              9A F9 0E 
              30 99 44 
              1F FA 89 
              F9 AB 8A 
              C9 EB 06 
              04 4B 44 
              AB 82 4A 
              46 2C 61 
              20 46 00 
              21 FE F3 
              30 F6 12 
              9B 09 F1 
              0E 09 A3 
              F8 00 90 
              98 F8 06 
              30 FB B1 
              31 46 06 
              22 20 1D 
              FE F3 BF 
              F5 04 F1 
              0A 00 08 
              F1 BC 01 
              06 22 FE 
              F3 B8 F5 
              BA F1 00 
              0F 04 D1 
              7A 68 4C 
              4B 13 40 
              00 2B 3F 
              D0 B1 1D 
              06 22 04 
              A8 FE F3 
              AB F5 04 
              F1 10 00 
              04 A9 06 
              22 FE F3 
              A5 F5 33 
              E0 98 F8 
              12 30 20 
              1D E3 B1 
              D8 F8 CC 
              30 1B 06 
              18 D4 08 
              F1 BC 01 
              06 22 FE 
              F3 97 F5 
              31 46 06 
              22 04 A8 
              FE F3 92 
              F5 B1 1D 
              06 22 04 
              F1 0A 00 
              FE F3 8C 
              F5 04 F1 
              10 00 04 
              A9 06 22 
              FE F3 86 



ARM Macro Assembler    Page 77 


              F5 4F F4 
              80 76 14 
              E0 31 46 
              06 22 FE 
              F3 7F F5 
              B1 1D 06 
              22 04 F1 
              0A 00 FE 
              F3 79 F5 
              04 F1 10 
              00 08 F1 
              BC 01 06 
              22 FE F3 
              72 F5 00 
              26 01 E0 
              4F F4 00 
              76 7A 68 
              29 4B 13 
              40 53 B3 
              9D F8 44 
              30 69 6A 
              03 F0 07 
              03 48 05 
              AD F8 16 
              30 0F D4 
              9B F8 F8 
              21 01 2A 
              05 D1 41 
              F4 80 21 
              69 62 43 
              F0 20 03 
              03 E0 52 
              01 02 F0 
              60 02 13 
              43 AD F8 
              16 30 6B 
              6A 59 06 
              05 D5 BD 
              F8 16 30 
              43 F0 80 
              03 AD F8 
              16 30 04 
              F1 18 00 
              0D F1 16 
              01 02 22 
              FE F3 41 
              F5 46 F0 
              80 06 BA 
              F1 00 0F 
              0F D0 7A 
              68 10 4B 
              13 40 13 
              B9 04 F1 
              18 03 01 
              E0 04 F1 
              1A 03 01 
              22 00 92 
              58 46 41 
              46 52 46 



ARM Macro Assembler    Page 78 


              44 F0 F2 
              DA 03 9B 
              46 F0 08 
              06 13 B1 
              46 F4 80 
              66 B6 B2 
              BA F1 00 
              0F 01 D0 
              46 F4 80 
              46 26 80 
              20 46 07 
              B0 BD E8 
              F0 8F 00 
              BF 40 00 
              01 80 38 
              B5 04 46 
              D4 F8 74 
              15 80 68 
              0C F0 83 
              D8 D4 F8 
              F8 16 D0 
              F1 01 05 
              A0 68 38 
              BF 00 25 
              0C F0 7A 
              D8 00 B9 
              01 35 A0 
              68 D4 F8 
              FC 16 0C 
              F0 73 D8 
              00 B9 01 
              35 D4 F8 
              E0 36 A0 
              68 19 6A 
              0C F0 6B 
              D8 00 B9 
              01 35 D4 
              F8 E0 36 
              00 22 DA 
              60 A0 68 
              D4 F8 3C 
              15 0C F0 
              60 D8 00 
              B9 01 35 
              A0 68 D4 
              F8 94 17 
              0C F0 59 
              D8 00 B9 
              01 35 28 
              46 38 BD 
              D0 F8 40 
              35 70 B5 
              5C 8E 05 
              46 04 F4 
              40 63 B3 
              F5 40 6F 
              21 D1 03 
              68 93 F8 
              46 30 9A 



ARM Macro Assembler    Page 79 


              07 0B D0 
              04 F4 70 
              41 A1 F5 
              80 53 59 
              42 41 EB 
              03 01 D0 
              F8 5C 01 
              42 F0 67 
              DE 80 B9 
              20 46 FF 
              F3 1B F6 
              40 F4 30 
              60 86 B2 
              20 46 FF 
              F3 15 F6 
              0E 28 8C 
              BF 4F F4 
              80 50 4F 
              F4 00 50 
              46 EA 00 
              04 04 F4 
              70 42 2B 
              6B A2 F5 
              80 5C DC 
              F1 00 02 
              5B 68 42 
              EB 0C 02 
              9A 42 05 
              D0 D5 F8 
              5C 01 01 
              21 42 F0 
              68 D9 04 
              46 D5 F8 
              5C 01 21 
              46 42 F0 
              B2 DE 98 
              B9 04 F4 
              70 44 A4 
              F5 80 5E 
              DE F1 00 
              04 44 EB 
              0E 04 0E 
              34 55 F8 
              24 30 2E 
              6B D5 F8 
              5C 01 2B 
              63 01 21 
              42 F0 4F 
              D9 2E 63 
              04 46 20 
              46 70 BD 
              07 2A 01 
              DD 4A 68 
              0A B9 02 
              6B 12 68 
              03 2A 06 
              D0 51 1E 
              01 29 0D 
              D8 01 6B 



ARM Macro Assembler    Page 80 


              09 68 8A 
              42 09 D1 
              9D F8 00 
              10 11 B1 
              90 F8 29 
              10 31 B1 
              43 B1 1A 
              60 00 20 
              70 47 6F 
              F0 0C 00 
              70 47 6F 
              F0 0A 00 
              70 47 18 
              46 70 47 
              2D E9 F0 
              4F 89 B0 
              00 23 0F 
              46 17 99 
              05 46 05 
              92 14 9C 
              15 9E 06 
              93 07 93 
              DD F8 48 
              B0 DD F8 
              4C A0 3B 
              F0 94 DE 
              05 99 04 
              90 01 F0 
              01 08 28 
              68 39 46 
              22 46 33 
              46 CD F8 
              00 80 1F 
              F0 F2 DD 
              81 46 00 
              28 40 F0 
              DC 80 B7 
              F9 06 30 
              00 2B 1B 
              DA B9 88 
              3A 89 B8 
              F1 00 0F 
              09 D0 16 
              9B 49 00 
              03 93 00 
              96 01 94 
              02 96 28 
              69 01 31 
              23 46 08 
              E0 16 9B 
              28 69 03 
              93 CD F8 
              00 A0 01 
              94 02 96 
              49 00 5B 
              46 39 F0 
              1C DA 81 
              46 BB E0 
              BA F1 03 



ARM Macro Assembler    Page 81 


              0F 0D D9 
              04 22 06 
              A8 59 46 
              FE F3 1E 
              F4 BA F1 
              07 0F 05 
              D9 07 A8 
              0B F1 04 
              01 04 22 
              FE F3 15 
              F4 05 99 
              06 9B 8A 
              1E 1F 2A 
              00 F2 9D 
              80 DF E8 
              12 F0 20 
              00 22 00 
              24 00 28 
              00 2C 00 
              2E 00 36 
              00 38 00 
              4A 00 4C 
              00 51 00 
              53 00 55 
              00 57 00 
              59 00 5B 
              00 5D 00 
              9B 00 9B 
              00 9B 00 
              63 00 65 
              00 76 00 
              78 00 7C 
              00 7E 00 
              83 00 85 
              00 8A 00 
              9B 00 95 
              00 8C 00 
              43 4B 02 
              E0 42 4A 
              63 E0 42 
              4B 1B 68 
              23 60 7A 
              E0 00 2B 
              73 DC 3F 
              4A 04 E0 
              3F 4B F6 
              E7 00 2B 
              6D DB 3D 
              4A 13 60 
              3D 4B 00 
              22 1A 60 
              6C E0 3C 
              4B EC E7 
              1B B1 3B 
              4A 12 68 
              00 2A 60 
              D0 38 4A 
              13 60 39 
              4A 00 23 



ARM Macro Assembler    Page 82 


              13 60 39 
              4A 13 60 
              39 4A 13 
              60 4F F0 
              FF 32 38 
              4B E9 E7 
              33 4B D8 
              E7 32 4A 
              11 68 00 
              29 37 DC 
              4C E0 34 
              4B D1 E7 
              33 4A 32 
              E0 33 4B 
              CD E7 32 
              4A 2E E0 
              2C 4B C9 
              E7 2B 4A 
              2A E0 D5 
              F8 6C 32 
              D3 F8 D8 
              32 9B 68 
              C2 E7 2D 
              4B BF E7 
              2C 4A 13 
              60 00 2B 
              39 D0 2B 
              4A 00 23 
              2B 49 13 
              60 4F F0 
              FF 32 0A 
              60 2A 49 
              0A 60 2A 
              4A 13 60 
              2A 4A 11 
              E0 2A 4B 
              AC E7 00 
              2B 23 DD 
              28 4A 0B 
              E0 28 4B 
              A6 E7 5A 
              1E 09 2A 
              1C D8 25 
              4A 04 E0 
              25 4B 9F 
              E7 00 2B 
              16 DD 23 
              4A 13 60 
              18 E0 23 
              4B 98 E7 
              04 99 8A 
              79 8A B9 
              00 33 21 
              4A 18 BF 
              01 23 13 
              70 0D E0 
              04 9A 93 
              79 43 B9 
              1D 4B 1B 



ARM Macro Assembler    Page 83 


              78 8A E7 
              6F F0 16 
              09 04 E0 
              6F F0 1C 
              09 01 E0 
              6F F0 06 
              09 48 46 
              09 B0 BD 
              E8 F0 8F 
              D0 08 02 
              00 B4 08 
              02 00 C4 
              08 02 00 
              98 08 02 
              00 A4 08 
              02 00 1C 
              FF 01 00 
              BC 08 02 
              00 B8 08 
              02 00 B0 
              08 02 00 
              9C 08 02 
              00 08 FF 
              01 00 20 
              FF 01 00 
              A0 08 02 
              00 C8 08 
              02 00 04 
              FF 01 00 
              10 FF 01 
              00 AC 08 
              02 00 C0 
              08 02 00 
              0C FF 01 
              00 18 FF 
              01 00 00 
              FF 01 00 
              A8 08 02 
              00 94 08 
              02 00 38 
              B5 00 25 
              04 46 80 
              F8 E8 51 
              26 F0 13 
              D8 E3 6A 
              29 46 98 
              6A 80 22 
              FE F3 8F 
              F3 20 69 
              06 F0 DE 
              FC D4 F8 
              40 01 2B 
              F0 FA DE 
              C4 F8 88 
              56 38 BD 
              00 00 2D 
              E9 F8 43 
              98 46 53 
              6A 0E 46 



ARM Macro Assembler    Page 84 


              99 05 04 
              46 15 46 
              9D F9 20 
              90 17 69 
              09 D5 13 
              6B A7 F8 
              42 30 1B 
              0C A7 F8 
              44 30 3B 
              88 43 F4 
              00 53 3B 
              80 22 68 
              6B 6B 92 
              F8 44 20 
              9A B1 E2 
              6A 02 EB 
              46 02 B2 
              F9 1C 20 
              6A B9 63 
              B1 1A 69 
              D2 F8 D4 
              22 92 F8 
              9D 20 03 
              2A 05 D9 
              D4 F8 64 
              01 31 46 
              2A 46 3E 
              F0 F7 DC 
              04 2E 1D 
              D1 23 68 
              B7 F8 4C 
              70 93 F8 
              38 30 3A 
              46 C3 B1 
              28 46 13 
              F0 7B D8 
              04 EB 80 
              00 D0 F8 
              4C 32 D3 
              F8 58 25 
              A3 F8 C8 
              70 01 32 
              C3 F8 58 
              25 D3 F8 
              60 35 D9 
              69 8A 42 
              88 BF DA 
              61 1A 6A 
              01 32 1A 
              62 4F F6 
              FF 72 B8 
              F1 00 0F 
              07 D0 E3 
              6A 06 F1 
              0C 01 03 
              EB 41 03 
              99 88 49 
              44 99 80 
              4F F6 FF 



ARM Macro Assembler    Page 85 


              73 9A 42 
              03 D0 20 
              69 A8 21 
              3A F0 2A 
              D9 23 69 
              29 46 03 
              EB 86 03 
              D8 68 0D 
              4B 42 46 
              5B 6A 98 
              47 00 28 
              12 DA 0B 
              48 0B F0 
              5C FF 0A 
              4B 1A 68 
              01 32 1A 
              60 B8 F1 
              00 0F 08 
              D0 E3 6A 
              0C 36 03 
              EB 46 06 
              B3 88 C9 
              EB 03 09 
              A6 F8 04 
              90 BD E8 
              F8 83 E0 
              A6 85 00 
              BC 56 86 
              00 CC 08 
              02 00 19 
              B1 40 68 
              30 22 03 
              F0 4D 99 
              70 47 2D 
              E9 F0 4F 
              0E 46 04 
              46 11 69 
              D2 F8 7C 
              01 9F B0 
              D6 F8 10 
              B0 13 93 
              07 90 0C 
              91 91 46 
              BB F8 00 
              20 60 68 
              02 F0 0C 
              03 9B 08 
              02 2B 0F 
              93 0C BF 
              C2 F3 C0 
              13 00 23 
              DB B2 31 
              46 2C 9F 
              DD F8 B4 
              80 0E 92 
              14 93 FF 
              F3 BB F3 
              04 30 0A 
              90 87 B1 



ARM Macro Assembler    Page 86 


              3B 7A 0B 
              2B 08 D1 
              94 F8 F0 
              37 53 B1 
              94 F8 F1 
              37 3B B1 
              BB 79 07 
              2B 04 D8 
              0A 98 97 
              F9 0F 30 
              C0 18 0A 
              90 D4 F8 
              88 31 00 
              2B 19 DA 
              DF B1 3B 
              7A 02 2B 
              1A D1 94 
              F8 A0 24 
              D2 B9 0C 
              99 8B 6D 
              13 F0 08 
              03 16 D1 
              BA 79 29 
              2A 15 D8 
              03 2A 13 
              D9 0B 2A 
              11 D8 29 
              9A 01 2A 
              0E D1 0A 
              9B 08 33 
              0A 93 08 
              E0 00 20 
              08 90 08 
              E0 08 97 
              06 E0 00 
              21 08 91 
              03 E0 00 
              22 08 92 
              00 E0 08 
              93 35 69 
              00 21 AB 
              1F 15 93 
              B3 8A A5 
              F1 76 00 
              76 33 B3 
              82 70 22 
              30 61 12 
              90 FE F3 
              85 F2 73 
              6A 5B 05 
              01 D5 33 
              8D 22 E0 
              D9 F8 04 
              20 94 4B 
              13 40 BB 
              B1 0E 99 
              01 F0 FC 
              03 88 2B 
              12 D1 9B 



ARM Macro Assembler    Page 87 


              F8 04 30 
              D8 07 0E 
              D4 29 98 
              F2 8A 41 
              1E 02 F0 
              07 02 28 
              98 5C 32 
              09 EB 42 
              02 88 42 
              D3 88 08 
              D1 59 1C 
              D1 80 05 
              E0 0F 99 
              01 29 08 
              D1 4F F0 
              00 0A 10 
              E0 0F 9A 
              4F F0 00 
              0A 01 2A 
              03 D1 0A 
              E0 4F F0 
              10 0A 00 
              23 28 98 
              1B 01 9B 
              B2 00 F0 
              0F 02 13 
              43 AB F8 
              16 30 2A 
              99 04 29 
              07 D1 20 
              46 0C 99 
              12 9A 0E 
              F0 24 DE 
              AD F8 72 
              00 19 E0 
              28 98 B4 
              F8 46 35 
              00 F0 0F 
              02 29 98 
              42 EA 03 
              12 41 1E 
              28 98 92 
              B2 88 42 
              02 D1 01 
              33 A4 F8 
              46 35 2A 
              99 52 01 
              47 F6 E0 
              73 13 40 
              01 F0 07 
              02 13 43 
              AD F8 72 
              30 99 F8 
              DF 30 23 
              B9 0E 9A 
              02 F0 FC 
              03 80 2B 
              01 D1 4A 
              F0 20 0A 



ARM Macro Assembler    Page 88 


              65 4B 08 
              EA 03 03 
              23 B1 CD 
              F8 6C 80 
              CD F8 68 
              80 0E E0 
              0F 9B 01 
              2B 05 D9 
              73 6A 00 
              2B 02 DB 
              13 F0 10 
              03 07 D0 
              99 F8 48 
              30 03 F0 
              7F 03 1B 
              93 1A 93 
              00 23 38 
              E0 20 6B 
              57 49 82 
              6C 11 40 
              19 B1 9B 
              F8 04 10 
              C9 07 08 
              D4 9B F8 
              04 30 13 
              F0 01 03 
              E9 D1 42 
              6C 50 49 
              11 40 11 
              B1 1B 92 
              1A 92 23 
              E0 1B AB 
              00 93 0D 
              F1 76 03 
              01 93 0D 
              F1 77 03 
              02 93 1D 
              AB 03 93 
              49 46 0D 
              F1 72 02 
              1A AB D4 
              F8 60 01 
              4F F0 16 
              D8 73 6A 
              43 F0 00 
              62 72 62 
              BD F8 74 
              20 D1 07 
              04 D5 43 
              F0 00 63 
              43 F4 00 
              53 73 62 
              28 98 D0 
              F1 01 03 
              38 BF 00 
              23 22 68 
              D4 F8 60 
              06 92 F8 
              46 20 90 



ARM Macro Assembler    Page 89 


              F8 0A C0 
              12 F0 03 
              02 1A 99 
              00 F0 32 
              81 11 F0 
              00 6F 01 
              F0 7F 02 
              04 D0 07 
              2A 08 D9 
              20 2A 2B 
              D1 05 E0 
              DF F8 C4 
              E0 1E F9 
              02 20 00 
              2A 24 DA 
              4A 00 01 
              D4 00 29 
              20 DB 21 
              F4 40 12 
              22 F4 60 
              52 09 01 
              1A 92 16 
              D5 81 78 
              01 29 13 
              D9 21 6B 
              91 F9 4D 
              10 01 29 
              09 D0 D9 
              F8 04 E0 
              1E F0 80 
              4F 09 D0 
              01 31 07 
              D1 01 7B 
              49 07 04 
              D5 42 F4 
              80 12 42 
              F4 80 52 
              01 E0 42 
              EA CC 22 
              1A 92 1B 
              99 11 F0 
              00 6F 01 
              F0 7F 02 
              04 D0 07 
              2A 06 D9 
              20 2A 33 
              D1 03 E0 
              16 48 82 
              56 00 2A 
              2E DA 1A 
              9A 50 00 
              01 D4 00 
              2A 29 DB 
              21 F4 40 
              12 22 F4 
              60 52 09 
              01 1B 92 
              1F D5 D4 
              F8 60 16 



ARM Macro Assembler    Page 90 


              88 78 01 
              28 1A D9 
              20 6B 90 
              F9 4D 00 
              01 28 09 
              D0 D9 F8 
              04 E0 1E 
              F0 80 4F 
              10 D0 01 
              30 0E D1 
              09 7B 48 
              07 0B D5 
              42 F4 80 
              12 42 F4 
              80 52 08 
              E0 00 BF 
              40 00 01 
              80 7F 00 
              00 08 40 
              1B 86 00 
              42 EA CC 
              22 1B 92 
              B4 F8 28 
              26 02 F4 
              40 62 B2 
              F5 40 6F 
              2D D1 22 
              6B 10 69 
              05 93 0D 
              F0 F7 FB 
              1A 9A 00 
              F4 40 70 
              B0 F5 00 
              7F 14 BF 
              02 20 03 
              20 12 F0 
              00 6F 05 
              9B 02 F0 
              7F 02 0D 
              D0 20 2A 
              29 D0 94 
              F9 CA 24 
              51 1C 01 
              D0 06 90 
              10 E0 D9 
              F8 04 20 
              06 90 12 
              03 21 D4 
              24 E0 9E 
              49 06 90 
              8A 56 00 
              2A B4 BF 
              94 F9 C9 
              24 94 F9 
              C8 24 51 
              1C 19 D0 
              90 B2 17 
              E0 1A 9A 
              02 F0 7F 



ARM Macro Assembler    Page 91 


              02 20 2A 
              04 BF 4F 
              F0 00 62 
              1A 92 1B 
              9A 02 F0 
              7F 02 20 
              2A 08 D1 
              4F F0 00 
              62 1B 92 
              04 E0 06 
              90 05 20 
              03 E0 04 
              20 01 E0 
              02 20 06 
              90 DD F8 
              6C E0 1A 
              9A 00 02 
              22 F4 E0 
              62 1E F0 
              00 6F 40 
              EA 02 02 
              08 BF 06 
              98 2E F4 
              E0 61 14 
              BF 01 43 
              41 EA 00 
              21 12 F0 
              00 6F 1B 
              91 1A 92 
              94 F8 DC 
              11 04 D0 
              01 29 02 
              D1 42 F4 
              00 02 02 
              E0 11 B9 
              22 F4 00 
              02 1A 92 
              1B 9A 94 
              F8 DC 11 
              12 F0 00 
              6F 04 D0 
              01 29 02 
              D1 42 F4 
              00 02 02 
              E0 11 B9 
              22 F4 00 
              02 1B 92 
              49 46 20 
              46 05 93 
              11 F0 38 
              DF 1A 9A 
              05 9B 12 
              F0 00 61 
              21 D0 D4 
              F8 58 16 
              91 F9 05 
              10 02 29 
              0D D1 02 
              F4 E0 68 



ARM Macro Assembler    Page 92 


              4F EA 18 
              28 A8 F1 
              04 08 B8 
              F1 01 0F 
              8C BF 4F 
              F0 00 08 
              4F F0 01 
              08 01 E0 
              4F F0 00 
              08 11 02 
              0C D5 02 
              F0 7F 02 
              07 2A 0A 
              D9 20 2A 
              14 BF 02 
              46 04 22 
              09 92 06 
              E0 09 91 
              88 46 03 
              E0 09 90 
              01 E0 04 
              21 09 91 
              1B 9A 12 
              F0 00 61 
              1D D0 11 
              02 18 D5 
              02 F0 7F 
              02 07 2A 
              16 D9 20 
              2A 08 BF 
              04 20 10 
              E0 1B 98 
              21 F4 E0 
              61 20 F4 
              E0 60 40 
              F4 00 70 
              41 F4 00 
              71 1B 90 
              02 20 1A 
              91 06 90 
              0D 92 09 
              92 90 46 
              03 E0 0D 
              90 01 E0 
              04 21 0D 
              91 8B B1 
              0C 9A 1A 
              99 D2 F8 
              10 33 29 
              98 02 EB 
              C3 02 C2 
              F8 14 13 
              C1 B2 C2 
              F8 18 13 
              01 33 0C 
              99 03 F0 
              3F 03 C1 
              F8 10 33 
              07 9A 00 



ARM Macro Assembler    Page 93 


              2A 3F D0 
              D4 F8 0C 
              E0 D2 F8 
              04 34 07 
              99 DE F8 
              80 21 03 
              F1 40 00 
              01 EB C0 
              00 DE F8 
              84 C1 42 
              60 01 EB 
              C3 02 C2 
              F8 08 C2 
              F2 8A 34 
              49 02 F0 
              07 02 8A 
              5C 02 2A 
              14 D1 07 
              9A 41 68 
              D2 F8 00 
              E0 29 98 
              02 EB CE 
              02 C2 F8 
              04 11 1A 
              99 0E F1 
              01 0E 51 
              60 C1 B2 
              91 60 07 
              99 C2 F8 
              08 C1 0E 
              F0 1F 02 
              0A 60 1A 
              99 07 98 
              03 F1 81 
              02 40 F8 
              32 10 00 
              EB C3 02 
              29 98 01 
              33 C1 B2 
              C2 F8 0C 
              14 07 99 
              03 F0 3F 
              03 C1 F8 
              04 34 1A 
              9B 13 F0 
              00 6E 1F 
              D0 03 F4 
              E0 60 4F 
              EA 10 20 
              13 F4 00 
              0F 1A 4A 
              03 F0 7F 
              01 A0 F1 
              04 00 08 
              D0 01 28 
              4F F0 14 
              00 00 FB 
              01 22 94 
              BF D2 68 



ARM Macro Assembler    Page 94 


              92 68 0C 
              E0 01 28 
              4F F0 14 
              00 03 D8 
              00 FB 01 
              22 52 68 
              04 E0 41 
              43 52 58 
              01 E0 03 
              F0 7F 02 
              0F 98 11 
              92 02 28 
              00 D0 A8 
              B9 B4 F8 
              38 26 0A 
              99 91 42 
              03 DC 72 
              6A 12 F0 
              80 62 0D 
              D0 9B F8 
              04 20 02 
              F0 01 02 
              82 F0 01 
              02 06 E0 
              40 1B 86 
              00 C4 D2 
              85 00 84 
              18 86 00 
              00 22 10 
              92 22 6B 
              52 7D 62 
              B1 D4 F8 
              58 16 09 
              78 41 B1 
              BE F1 00 
              0F 05 D1 
              94 48 03 
              F0 7F 01 
              41 56 00 
              29 0C DB 
              21 68 91 
              F8 46 10 
              89 07 2E 
              D0 BE F1 
              00 0F 2B 
              D0 D4 F8 
              58 16 91 
              F9 05 10 
              31 B3 29 
              98 01 28 
              12 D9 D4 
              F8 58 36 
              1B 78 0B 
              B1 16 23 
              00 E0 30 
              23 1B 93 
              73 6A 06 
              99 23 F0 
              00 63 73 



ARM Macro Assembler    Page 95 


              62 1B 9B 
              43 EA 01 
              23 1B 93 
              1A 93 10 
              E0 7A B1 
              D4 F8 58 
              26 12 78 
              5A B1 BE 
              F1 00 0F 
              08 D1 7C 
              4A 03 F0 
              7F 03 D3 
              56 38 EA 
              23 08 28 
              BF 4F F0 
              01 08 1A 
              99 11 F0 
              00 63 15 
              D1 01 F0 
              7F 02 16 
              2A 11 D8 
              74 48 90 
              40 0E D5 
              13 98 40 
              B1 02 2A 
              09 D0 94 
              F9 5C 26 
              12 F1 FF 
              32 18 BF 
              01 22 00 
              E0 13 9A 
              09 92 00 
              E0 09 93 
              1B 9A 12 
              F0 00 6E 
              16 D1 02 
              F0 7F 02 
              16 2A 12 
              D8 67 48 
              90 40 0F 
              D5 13 98 
              40 B1 02 
              2A 09 D0 
              94 F9 5C 
              26 12 F1 
              FF 32 18 
              BF 01 22 
              00 E0 13 
              9A 0D 92 
              01 E0 CD 
              F8 34 E0 
              0F 98 D9 
              F8 04 20 
              02 28 08 
              BF C9 F8 
              60 11 12 
              F4 80 32 
              31 D0 94 
              F8 CE 21 



ARM Macro Assembler    Page 96 


              72 B3 94 
              F8 D1 21 
              5A B3 D4 
              F8 58 26 
              92 F9 05 
              20 03 2A 
              27 D0 4B 
              B9 01 F0 
              7F 02 02 
              2A 27 D0 
              04 2A 25 
              D0 0B 2A 
              23 D0 16 
              2A 21 D0 
              9B F8 04 
              30 13 F0 
              01 03 19 
              D1 0E 98 
              00 F0 FC 
              02 88 2A 
              17 D1 73 
              6A 4A F4 
              A0 4A 43 
              F4 80 53 
              73 62 BB 
              F8 18 30 
              01 22 23 
              F0 60 03 
              1B 04 1B 
              0C 43 F0 
              20 03 AB 
              F8 18 30 
              07 92 05 
              E0 00 23 
              02 E0 00 
              20 07 90 
              00 E0 07 
              93 20 46 
              0A 9A 15 
              9B 19 F0 
              28 DA 16 
              AB 20 46 
              1B 99 0A 
              9A 19 F0 
              22 DA 06 
              22 A5 F1 
              40 00 16 
              A9 FD F3 
              AC F6 1B 
              9B 18 01 
              0C D4 03 
              F0 7F 03 
              16 2B 08 
              D8 30 4A 
              9A 40 05 
              D5 0A 99 
              0B 0A 05 
              F8 3C 1C 
              05 F8 3B 



ARM Macro Assembler    Page 97 


              3C 73 6A 
              59 05 10 
              D5 1A 9A 
              12 01 0D 
              D5 17 B1 
              3A 7A 04 
              2A 09 D1 
              43 F4 00 
              63 73 62 
              10 9A 94 
              F8 C3 34 
              00 2B 18 
              BF 01 22 
              10 92 1A 
              99 0B 01 
              0A D4 1F 
              4A 01 F0 
              7F 03 D3 
              56 00 2B 
              04 DA 15 
              F8 06 3C 
              03 F0 0F 
              03 01 E0 
              15 F8 06 
              3C 0E 98 
              0B 93 A4 
              28 0D D0 
              9B F8 04 
              30 D8 07 
              09 D4 07 
              9A 4A B9 
              09 9A 2B 
              9B 20 46 
              0F F0 7B 
              DC AB F8 
              02 00 13 
              E0 07 9B 
              4B B1 09 
              9A 20 46 
              40 F6 2A 
              13 18 F0 
              64 DF 80 
              B2 02 30 
              AB F8 02 
              00 0E 98 
              A4 28 04 
              D1 BB F8 
              02 30 25 
              F8 3A 3C 
              17 E0 9B 
              F8 04 30 
              D9 07 01 
              D4 07 99 
              49 B1 00 
              23 05 F8 
              3A 3C 05 
              F8 39 3C 
              0B E0 40 
              1B 86 00 



ARM Macro Assembler    Page 98 


              00 02 10 
              28 1B 99 
              0D 9A 2B 
              9B 20 46 
              0F F0 4E 
              DC 25 F8 
              3A 0C 73 
              6A 9A 05 
              07 D5 32 
              6B 4A F4 
              00 5A 25 
              F8 34 2C 
              12 0C 25 
              F8 32 2C 
              28 9A 0A 
              B9 4A F0 
              08 0A 9B 
              F8 04 20 
              D0 07 0F 
              D4 D9 04 
              0D D4 94 
              F8 D0 21 
              0A B1 5A 
              06 08 D4 
              58 05 04 
              D4 14 98 
              10 B1 94 
              F8 F8 21 
              0A B9 4A 
              F0 01 0A 
              0F 99 02 
              29 11 D1 
              94 F8 CE 
              21 72 B1 
              11 9A 04 
              2A 0B D9 
              A4 4A 2A 
              98 12 5C 
              04 EB 42 
              02 B2 F8 
              FE 21 0A 
              B1 59 05 
              01 D5 4A 
              F4 80 5A 
              23 6B 18 
              69 0D F0 
              1A F9 08 
              99 00 F4 
              40 60 B0 
              F5 40 6F 
              08 BF 4A 
              F4 80 7A 
              09 B1 4A 
              F4 00 4A 
              25 F8 76 
              AC EF B1 
              94 F8 A0 
              34 03 BB 
              0C 98 82 



ARM Macro Assembler    Page 99 


              6D 12 F0 
              08 02 17 
              D1 3B 7A 
              0B 2B 08 
              D1 94 F8 
              F0 37 8B 
              B1 94 F8 
              F1 37 73 
              B1 BB 79 
              07 2B 0D 
              D8 BB 79 
              29 2B 0C 
              D8 97 F8 
              0C A0 0A 
              F0 07 0A 
              4A EA 03 
              1A 07 E0 
              BA 46 05 
              E0 9A 46 
              03 E0 92 
              46 01 E0 
              4F F0 00 
              0A 73 6A 
              0D 99 9A 
              00 44 BF 
              4A F0 08 
              0A 1F FA 
              8A FA 4B 
              1E DB B2 
              01 2B 9C 
              BF 4A F4 
              00 5A 1F 
              FA 8A FA 
              A5 F1 72 
              00 59 46 
              02 22 FD 
              F3 B4 F5 
              00 23 05 
              F8 70 3C 
              05 F8 6F 
              3C 05 F8 
              4A 3C 05 
              F8 49 3C 
              00 2F 43 
              D0 94 F8 
              A0 34 00 
              2B 3F D1 
              0C 9A 93 
              6D 1B 07 
              3B D4 3B 
              7A 0B 2B 
              0A D1 94 
              F8 F0 27 
              00 2A 34 
              D0 94 F8 
              F1 27 00 
              2A 30 D0 
              BA 79 07 
              2A 2D D8 



ARM Macro Assembler    Page 100 


              BA 79 29 
              2A 2A D8 
              0E 98 00 
              F4 40 72 
              B2 F5 40 
              7F 14 9A 
              14 BF 0B 
              F1 18 01 
              0B F1 1E 
              01 02 B1 
              02 31 02 
              2B 10 D1 
              12 9B 00 
              20 3A 18 
              B2 F8 BC 
              20 02 30 
              9A 75 C2 
              F3 07 22 
              DA 75 02 
              33 0A 28 
              F4 D1 A5 
              F1 56 00 
              03 22 08 
              E0 0B 2B 
              A5 F1 60 
              00 02 D1 
              02 31 10 
              22 01 E0 
              97 F9 0E 
              20 FD F3 
              65 F5 0B 
              F1 04 03 
              19 46 A5 
              F1 50 00 
              06 22 0F 
              93 FD F3 
              5C F5 BD 
              F8 72 30 
              25 F8 2A 
              3C 00 23 
              05 F8 28 
              3C 05 F8 
              27 3C 05 
              F8 26 3C 
              05 F8 25 
              3C 05 F8 
              24 3C 05 
              F8 23 3C 
              05 F8 22 
              3C 05 F8 
              21 3C 05 
              F8 20 3C 
              05 F8 1F 
              3C 10 98 
              18 B9 B8 
              F1 00 0F 
              01 D1 0B 
              E1 98 46 
              00 22 06 



ARM Macro Assembler    Page 101 


              9B 1A 99 
              20 46 22 
              F0 96 DC 
              1B 99 08 
              90 00 22 
              06 9B 20 
              46 22 F0 
              8F DC 08 
              99 06 90 
              11 F0 00 
              61 11 91 
              07 D1 08 
              9A 02 F0 
              7F 03 31 
              4A D2 56 
              00 2A 21 
              DA 2D E0 
              08 98 08 
              9B 00 F4 
              E0 61 13 
              F4 00 0F 
              4F EA 11 
              21 2C 4B 
              00 F0 7F 
              02 A1 F1 
              04 01 08 
              D0 01 29 
              4F F0 14 
              01 01 FB 
              02 33 94 
              BF DB 68 
              9B 68 09 
              E0 01 29 
              4F F0 14 
              01 03 D8 
              01 FB 02 
              33 5B 68 
              01 E0 4A 
              43 9B 58 
              02 3B 18 
              BF 01 23 
              53 B1 94 
              F9 5C 36 
              01 2B 08 
              D0 4A F4 
              80 4A 1F 
              FA 8A FA 
              01 21 0C 
              91 03 E0 
              0C 93 01 
              E0 00 22 
              0C 92 06 
              9B 13 F0 
              00 62 06 
              D1 13 49 
              03 F0 7F 
              03 C9 56 
              00 29 26 
              DA 39 E0 



ARM Macro Assembler    Page 102 


              06 98 10 
              4B 00 F4 
              E0 61 4F 
              EA 11 21 
              10 F4 00 
              0F 00 F0 
              7F 02 A1 
              F1 04 01 
              08 D0 01 
              29 4F F0 
              14 01 01 
              FB 02 33 
              94 BF DB 
              68 9B 68 
              0F E0 01 
              29 4F F0 
              14 01 09 
              D8 01 FB 
              02 33 5B 
              68 07 E0 
              98 E0 85 
              00 40 1B 
              86 00 84 
              18 86 00 
              4A 43 9B 
              58 02 3B 
              18 BF 01 
              23 63 B1 
              94 F9 5C 
              36 01 2B 
              0A D0 6F 
              EA 4A 4A 
              6F EA 5A 
              4A 01 21 
              1F FA 8A 
              FA 0E 91 
              03 E0 0E 
              93 01 E0 
              00 22 0E 
              92 35 F8 
              76 3C B8 
              F1 00 0F 
              02 D0 43 
              F4 00 63 
              01 E0 43 
              F0 06 03 
              25 F8 76 
              3C B8 F1 
              00 0F 0C 
              BF 14 27 
              0E 27 3A 
              46 20 46 
              08 99 A5 
              F1 1E 03 
              18 F0 FF 
              DF 3A 46 
              18 AB 20 
              46 06 99 
              18 F0 F9 



ARM Macro Assembler    Page 103 


              DF 18 A9 
              06 22 A5 
              F1 48 00 
              FD F3 83 
              F4 0C 9B 
              09 98 0A 
              99 00 22 
              00 93 01 
              90 1A 9B 
              02 91 03 
              92 41 46 
              08 9A 20 
              46 19 F0 
              05 D8 25 
              F8 16 0C 
              0E 9B 0D 
              98 0A 99 
              00 22 00 
              93 01 90 
              02 91 03 
              92 1B 9B 
              06 9A 20 
              46 41 46 
              18 F0 F5 
              DF A5 F1 
              18 07 25 
              F8 42 0C 
              A5 F1 14 
              00 B8 F1 
              00 0F 0A 
              D0 6F F0 
              3B 03 05 
              F8 18 3C 
              00 23 05 
              F8 17 3C 
              0B F1 0A 
              01 06 22 
              07 E0 6F 
              F0 4B 03 
              05 F8 18 
              3C 05 F8 
              17 8C 0F 
              99 0C 22 
              FD F3 47 
              F4 0B 98 
              11 9A 81 
              B2 5A B9 
              08 98 A0 
              4A 00 F0 
              7F 03 D3 
              56 00 2B 
              04 DA 15 
              F8 1E 3C 
              03 F0 0F 
              03 01 E0 
              15 F8 1E 
              3C 1B 02 
              19 43 0B 
              91 1E E0 



ARM Macro Assembler    Page 104 


              41 46 06 
              22 A5 F1 
              1E 00 FD 
              F3 8F F4 
              41 46 10 
              22 A5 F1 
              18 00 FD 
              F3 89 F4 
              A5 F1 48 
              00 41 46 
              06 22 FD 
              F3 83 F4 
              47 46 05 
              F8 42 8C 
              05 F8 41 
              8C CD F8 
              18 80 CD 
              F8 20 80 
              CD F8 38 
              80 CD F8 
              30 80 73 
              6A 58 05 
              0A D5 1A 
              9A 11 01 
              07 D5 D4 
              F8 40 01 
              49 46 0A 
              9B 2A F0 
              0A DE 05 
              F8 43 0C 
              25 F8 74 
              AC 0B 99 
              25 F8 64 
              1C 1B 9B 
              13 F0 00 
              61 02 D0 
              94 F8 C0 
              14 07 E0 
              03 F0 7F 
              03 16 2B 
              02 D8 7A 
              4A 9A 40 
              00 D4 01 
              21 08 9A 
              89 B2 12 
              F0 00 6A 
              04 D0 94 
              F8 C0 A4 
              4F EA 8A 
              0A 0D E0 
              08 98 00 
              F0 7F 03 
              16 2B 02 
              D8 71 4A 
              9A 40 01 
              D4 4F F0 
              01 0A 4F 
              EA 8A 0A 
              1F FA 8A 



ARM Macro Assembler    Page 105 


              FA 06 9A 
              4A EA 01 
              01 12 F0 
              00 6A 04 
              D0 94 F8 
              C0 A4 4F 
              EA 0A 1A 
              0D E0 06 
              98 00 F0 
              7F 03 16 
              2B 02 D8 
              64 4A 9A 
              40 01 D4 
              4F F0 01 
              0A 4F EA 
              0A 1A 1F 
              FA 8A FA 
              23 6B 41 
              EA 0A 0A 
              18 69 0C 
              F0 D5 FE 
              C0 B2 4A 
              EA 00 2A 
              25 F8 62 
              AC DD F8 
              68 B0 1B 
              F0 00 6A 
              02 D0 94 
              F8 C0 A4 
              0A E0 0B 
              F0 7F 03 
              16 2B 02 
              D8 54 4A 
              9A 40 01 
              D4 4F F0 
              01 0A 1F 
              FA 8A FA 
              09 99 4B 
              1E DB B2 
              01 2B 07 
              D8 23 68 
              4A F0 10 
              0A D3 F8 
              8C 30 9A 
              69 01 32 
              9A 61 59 
              46 20 46 
              15 F0 92 
              D9 40 EA 
              0A 00 25 
              F8 6E 0C 
              59 46 20 
              46 1F F0 
              BE DC 25 
              F8 6C 0C 
              1B 99 20 
              46 1F F0 
              B8 DC 25 
              F8 6A 0C 



ARM Macro Assembler    Page 106 


              10 9A 12 
              B9 B8 F1 
              00 0F 0B 
              D0 08 99 
              20 46 1F 
              F0 AD DC 
              25 F8 68 
              0C 06 99 
              20 46 1F 
              F0 A7 DC 
              25 F8 66 
              0C 1A 99 
              0B 01 08 
              D5 09 9B 
              04 2B 05 
              D1 0A 9A 
              20 46 18 
              F0 1D DD 
              25 F8 38 
              0C 1B 99 
              08 01 08 
              D5 0D 98 
              04 28 05 
              D1 0A 9A 
              20 46 18 
              F0 11 DD 
              25 F8 36 
              0C D9 F8 
              04 30 5A 
              06 40 F1 
              B9 80 14 
              99 00 29 
              00 F0 B5 
              80 28 4B 
              2A 9A 9B 
              5C 0F 93 
              04 EB 43 
              03 B3 F8 
              FE B1 BB 
              F1 00 0F 
              00 F0 A9 
              80 73 6A 
              10 93 5B 
              05 7E D4 
              28 98 00 
              28 7B D1 
              1A 99 20 
              46 09 9A 
              0A 9B 0B 
              91 18 F0 
              3A DC 82 
              46 97 B1 
              08 99 0C 
              9A 20 46 
              0E F0 01 
              DF 06 99 
              03 46 0E 
              9A 20 46 
              05 93 0E 



ARM Macro Assembler    Page 107 


              F0 FA DE 
              B7 F8 02 
              80 05 9B 
              35 F8 42 
              7C 98 44 
              1C E0 07 
              9A 12 BB 
              0B 99 09 
              9A 07 9B 
              20 46 0F 
              F0 29 D9 
              DD F8 6C 
              C0 0D 9A 
              61 46 0A 
              9B 00 EB 
              0A 08 20 
              46 CD F8 
              14 C0 18 
              F0 11 DC 
              DD F8 14 
              C0 07 46 
              61 46 20 
              46 0D 9A 
              07 9B 0F 
              F0 14 D9 
              C7 19 06 
              E0 40 1B 
              86 00 00 
              02 10 28 
              98 E0 85 
              00 80 46 
              CA EB 08 
              03 9B 45 
              25 F8 70 
              8C 25 F8 
              4A 7C 24 
              D3 10 9B 
              58 06 02 
              D5 2A 98 
              01 28 1E 
              D0 DA 44 
              20 46 0B 
              99 09 9A 
              C8 EB 0A 
              03 0E F0 
              BF DE FF 
              28 05 D9 
              B4 F8 2A 
              36 98 42 
              28 BF 18 
              46 01 E0 
              4F F4 80 
              70 2A 99 
              80 B2 01 
              F5 45 73 
              04 EB 43 
              03 9A 88 
              82 42 03 
              D0 98 80 



ARM Macro Assembler    Page 108 


              20 46 25 
              F0 56 DF 
              23 68 93 
              F8 44 30 
              00 2B 2D 
              D0 2A 9A 
              03 2A 2A 
              D8 D4 F8 
              64 01 0F 
              99 42 46 
              22 E0 23 
              68 93 F8 
              44 30 0B 
              B3 2A 9B 
              03 2B 1E 
              D8 3F B1 
              0C 9A 20 
              46 08 99 
              0E F0 86 
              DE 7A 88 
              82 18 0F 
              E0 DD F8 
              68 80 09 
              9A 41 46 
              0A 9B 20 
              46 18 F0 
              AD DB 09 
              9A 05 46 
              41 46 20 
              46 3B 46 
              0F F0 B2 
              D8 42 19 
              D4 F8 64 
              01 0F 99 
              4B 46 3D 
              F0 BF DB 
              73 6A BD 
              F8 72 00 
              43 F0 84 
              03 73 62 
              1F B0 BD 
              E8 F0 8F 
              38 B5 D1 
              F8 D8 32 
              04 46 1D 
              8C 05 BB 
              8B 6D 40 
              F2 37 15 
              1D 40 03 
              6B 00 2D 
              14 BF 11 
              25 01 25 
              19 68 02 
              29 07 D1 
              90 F8 5C 
              16 01 31 
              C9 B2 01 
              29 98 BF 
              45 F0 20 



ARM Macro Assembler    Page 109 


              05 5B 7D 
              53 B1 90 
              6B 02 F1 
              3C 01 21 
              F0 DD DA 
              20 B1 94 
              F9 47 36 
              0B B1 45 
              F4 80 65 
              28 46 38 
              BD 4B 78 
              30 B5 01 
              2B 35 DD 
              C8 78 8A 
              78 42 EA 
              00 22 01 
              2A 2F D1 
              07 2B 30 
              DD 0A 7A 
              4C 7A A3 
              F1 08 00 
              42 EA 04 
              24 00 22 
              01 E0 01 
              32 04 38 
              A2 42 01 
              DA 04 28 
              F9 DC 12 
              1B 00 EB 
              82 02 01 
              2A 1D DD 
              01 F1 08 
              00 00 EB 
              84 04 A0 
              78 E5 78 
              02 3A 40 
              EA 05 24 
              00 20 01 
              E0 01 30 
              04 3A A0 
              42 01 DA 
              03 2A F9 
              DC 00 1B 
              02 EB 80 
              02 01 2A 
              09 DD 90 
              1E 08 D0 
              18 1A 48 
              70 02 E0 
              6F F0 16 
              00 30 BD 
              00 20 30 
              BD 00 20 
              30 BD 2F 
              2A 70 B5 
              30 D9 B0 
              F8 80 31 
              04 6B 0B 
              60 B0 F8 



ARM Macro Assembler    Page 110 


              82 31 A5 
              89 4B 60 
              E3 89 1B 
              07 43 EA 
              05 33 05 
              68 8B 60 
              2B 69 D0 
              F8 84 01 
              DE 6B 3B 
              2A CE 60 
              AE 68 0E 
              61 9E 6A 
              4E 61 DE 
              6A 8E 61 
              B5 F8 7A 
              60 48 62 
              D5 F8 B0 
              00 CE 61 
              08 62 58 
              68 88 62 
              98 6B C8 
              62 0D D9 
              20 89 08 
              63 60 89 
              48 63 00 
              20 3F 2A 
              88 63 06 
              D9 1B 6C 
              CB 63 70 
              BD 6F F0 
              0D 00 70 
              BD 00 20 
              70 BD 2D 
              E9 F0 4F 
              85 B0 03 
              91 01 68 
              91 46 91 
              F8 2F 10 
              0E AA 1F 
              46 05 46 
              92 E8 0C 
              08 11 9E 
              DD F8 48 
              A0 DD F8 
              4C 80 11 
              B1 B9 F1 
              14 0F 47 
              D0 D5 F8 
              7C 02 02 
              92 01 93 
              41 F0 43 
              DD 02 9A 
              04 46 01 
              9B 00 28 
              3C D0 C0 
              F8 04 90 
              82 60 C3 
              60 C0 F8 
              10 B0 B8 



ARM Macro Assembler    Page 111 


              F1 00 0F 
              01 D0 0A 
              F1 10 0A 
              C4 F8 14 
              A0 BA F1 
              00 0F 1F 
              D0 F6 B1 
              68 68 51 
              46 02 F0 
              63 D8 E0 
              63 38 B9 
              D5 F8 7C 
              02 21 46 
              05 B0 BD 
              E8 F0 4F 
              41 F0 33 
              9D B8 F1 
              00 0F 09 
              D0 41 46 
              10 22 FD 
              F3 A6 F1 
              E0 6B 62 
              69 10 30 
              31 46 10 
              3A 01 E0 
              62 69 31 
              46 FD F3 
              9C F1 28 
              46 03 99 
              22 46 3B 
              46 1D F0 
              4A DA 28 
              46 21 46 
              05 B0 BD 
              E8 F0 4F 
              20 F0 D5 
              9D 05 B0 
              BD E8 F0 
              8F 2D E9 
              F0 4F 87 
              B0 8A 46 
              11 99 05 
              46 0B 29 
              93 46 03 
              93 DD F8 
              40 90 12 
              9C 40 F2 
              63 81 BA 
              F8 16 30 
              A1 F1 0C 
              06 09 F1 
              0C 07 03 
              F4 FF 63 
              DB 08 38 
              46 31 46 
              03 22 02 
              93 FD F3 
              11 F5 B0 
              B1 90 F8 



ARM Macro Assembler    Page 112 


              02 80 D5 
              F8 5C 01 
              48 F4 30 
              61 B8 F1 
              0E 0F 8C 
              BF 4F F4 
              80 53 4F 
              F4 00 53 
              19 43 41 
              F0 70 DB 
              38 B9 D5 
              F8 68 31 
              9B 88 99 
              05 02 D4 
              3B E1 DD 
              F8 08 80 
              00 21 AC 
              22 20 46 
              FD F3 B4 
              F1 59 46 
              06 22 20 
              46 FD F3 
              4B F1 99 
              F8 0A 30 
              99 F8 0B 
              B0 03 99 
              43 EA 0B 
              2B 0B F0 
              03 03 01 
              2B 08 BF 
              84 F8 34 
              30 E3 88 
              00 29 14 
              BF 4F F4 
              80 72 00 
              22 13 43 
              E3 80 51 
              46 A4 F8 
              62 B0 28 
              46 1E F0 
              40 DE 51 
              46 60 85 
              28 46 12 
              F0 CF DE 
              02 9B A0 
              85 43 45 
              03 D1 E3 
              88 43 F0 
              02 03 E3 
              80 05 EB 
              08 03 93 
              F8 4C 30 
              31 46 84 
              F8 61 30 
              99 F8 09 
              20 99 F8 
              08 30 38 
              46 43 EA 
              02 23 E3 



ARM Macro Assembler    Page 113 


              85 00 22 
              FD F3 B3 
              F4 01 46 
              48 B1 42 
              78 20 2A 
              06 D8 22 
              72 04 F1 
              09 00 02 
              31 FD F3 
              06 F1 01 
              E0 00 23 
              23 72 00 
              23 00 93 
              28 46 39 
              46 32 46 
              23 46 1F 
              F0 C5 D9 
              00 28 40 
              F0 DD 80 
              38 46 31 
              46 01 22 
              FD F3 95 
              F4 30 B1 
              43 78 08 
              2B 03 D9 
              E3 88 43 
              F0 01 03 
              E3 80 48 
              F4 30 63 
              B8 F1 0E 
              0F 8C BF 
              4F F4 80 
              58 4F F4 
              00 58 43 
              EA 08 08 
              1B F0 02 
              0F A4 F8 
              32 80 0D 
              D0 38 46 
              31 46 06 
              22 FD F3 
              78 F4 38 
              B1 43 78 
              01 2B 04 
              D9 C2 78 
              83 78 43 
              EA 02 23 
              23 86 D5 
              F8 68 01 
              83 79 5B 
              B1 11 99 
              22 46 01 
              91 53 46 
              03 99 CD 
              F8 00 90 
              4F F0 28 
              DE 00 28 
              00 F0 A2 
              80 31 46 



ARM Macro Assembler    Page 114 


              38 46 30 
              22 FD F3 
              5A F4 01 
              46 18 B1 
              28 46 22 
              46 11 F0 
              3C DB 31 
              46 38 46 
              44 22 FD 
              F3 4F F4 
              01 46 18 
              B1 28 46 
              22 46 11 
              F0 71 DA 
              31 46 38 
              46 04 97 
              05 96 FE 
              F3 4F F2 
              01 46 18 
              B1 28 46 
              22 46 11 
              F0 21 DC 
              2B 68 5B 
              6B D3 B1 
              04 97 05 
              96 06 E0 
              28 46 41 
              46 04 AA 
              05 AB 1E 
              F0 81 DB 
              40 B9 04 
              98 05 99 
              DD 22 FD 
              F3 2B F4 
              80 46 00 
              28 F0 D1 
              07 E0 E3 
              88 43 F0 
              04 03 E3 
              80 98 F8 
              08 30 84 
              F8 6A 30 
              00 23 38 
              46 31 46 
              31 4A 00 
              93 1D F0 
              3C DA 18 
              B1 E3 88 
              43 F0 08 
              03 E3 80 
              E3 88 28 
              46 23 F4 
              66 63 E3 
              80 39 46 
              32 46 21 
              F0 48 D9 
              81 46 00 
              28 4B D0 
              03 78 90 



ARM Macro Assembler    Page 115 


              F8 01 80 
              43 EA 08 
              28 E3 88 
              18 F4 80 
              4F 43 F0 
              20 03 9B 
              B2 E3 80 
              0D D0 43 
              F4 00 73 
              E3 80 2B 
              68 93 F8 
              2F 30 33 
              B1 D5 F8 
              FC 34 1B 
              78 13 B1 
              28 46 2F 
              F0 9E DC 
              18 F0 20 
              0F 03 D0 
              E3 88 43 
              F4 80 63 
              E3 80 18 
              F0 40 0F 
              03 D0 E3 
              88 43 F4 
              00 63 E3 
              80 09 F1 
              03 01 10 
              22 04 F1 
              4D 00 FD 
              F3 35 F0 
              32 46 28 
              46 39 46 
              21 F0 DC 
              D8 06 46 
              A0 B1 31 
              78 72 78 
              28 46 10 
              F0 2F D8 
              60 86 18 
              F0 02 00 
              0B D0 70 
              78 10 F0 
              04 00 07 
              D0 E3 88 
              00 20 43 
              F0 40 03 
              E3 80 01 
              E0 4F F0 
              FF 30 07 
              B0 BD E8 
              F0 8F B5 
              B7 01 00 
              2D E9 F0 
              4F D0 F8 
              68 61 B5 
              B0 1D 46 
              DD F8 F8 
              B0 B3 79 



ARM Macro Assembler    Page 116 


              07 91 04 
              46 3F 9F 
              BB F8 0A 
              A0 13 B1 
              30 46 4F 
              F0 60 DB 
              B5 F8 00 
              80 08 F0 
              FC 08 A8 
              F1 80 00 
              D0 F1 00 
              08 48 EB 
              00 08 B8 
              F1 00 0F 
              11 D0 B3 
              88 59 07 
              10 D4 07 
              9A D4 F8 
              5C 01 D1 
              8A 01 F4 
              FF 61 C9 
              08 40 F0 
              C3 DF D0 
              F1 01 09 
              38 BF 4F 
              F0 00 09 
              03 E0 C1 
              46 01 E0 
              4F F0 00 
              09 A7 F1 
              0C 01 00 
              22 0B F1 
              0C 00 FD 
              F3 7A F3 
              B3 68 01 
              46 02 2B 
              0A D0 13 
              B9 1A F0 
              01 0F 04 
              E0 01 2B 
              40 F0 60 
              81 1A F0 
              02 0F 00 
              F0 5C 81 
              30 46 4A 
              46 4F F0 
              51 DD 00 
              28 00 F0 
              55 81 73 
              7B DA 07 
              09 D4 06 
              F1 0D 00 
              05 F1 10 
              01 06 22 
              FC F3 9C 
              F7 00 28 
              40 F0 48 
              81 09 AB 
              05 F1 10 



ARM Macro Assembler    Page 117 


              0A 02 93 
              20 46 07 
              99 52 46 
              43 46 CD 
              F8 00 B0 
              01 97 FF 
              F7 1C FE 
              00 28 40 
              F0 38 81 
              9D F8 2C 
              30 BD F8 
              56 20 00 
              93 20 46 
              51 46 0D 
              F1 2D 03 
              0D F0 EA 
              DE 05 46 
              30 B1 B8 
              F1 00 0F 
              03 D0 C3 
              88 DB 05 
              40 F1 24 
              81 93 4A 
              BD F8 4E 
              30 12 68 
              19 B2 D1 
              42 44 BF 
              D3 18 AD 
              F8 4E 30 
              E5 B1 EA 
              88 BD F8 
              2A 30 83 
              EA 02 01 
              88 07 09 
              D4 B5 F9 
              2A 20 BD 
              F9 4E 30 
              9A 42 A8 
              BF 13 46 
              AD F8 4E 
              30 14 E0 
              91 07 12 
              D5 9A 07 
              10 D4 6A 
              8D 43 F0 
              02 03 AD 
              F8 4E 20 
              AD F8 2A 
              30 08 E0 
              D4 F8 1C 
              35 2B B1 
              BD F9 4E 
              20 1B B2 
              9A 42 C0 
              F2 F3 80 
              94 F8 F4 
              37 D8 07 
              5D D5 00 
              23 AD F8 



ARM Macro Assembler    Page 118 


              8C 30 B3 
              88 99 07 
              0B D5 60 
              68 39 46 
              01 F0 FE 
              DD 22 90 
              A8 B1 59 
              46 3A 46 
              FC F3 4C 
              F7 AD F8 
              8C 70 BD 
              F8 8C 10 
              60 68 8C 
              31 01 F0 
              F0 DD BD 
              F8 8C 30 
              05 46 58 
              B9 23 B1 
              60 68 22 
              99 1A 46 
              01 F0 F6 
              DD D4 F8 
              68 01 04 
              21 4F F0 
              51 DA C6 
              E0 01 26 
              20 46 09 
              A9 05 F1 
              0C 02 80 
              33 00 96 
              0E F0 95 
              D8 07 46 
              C8 B9 6D 
              23 B4 F8 
              F6 27 6B 
              60 2B 69 
              2A 81 0C 
              33 2B 60 
              6E 81 D4 
              F8 68 01 
              4F F0 7A 
              DA 08 23 
              8D E8 88 
              00 02 97 
              03 95 2B 
              68 01 46 
              04 93 20 
              46 45 22 
              3B 46 17 
              F0 E1 DC 
              BD F8 8C 
              20 60 68 
              8C 32 29 
              46 01 F0 
              C4 DD BD 
              F8 8C 20 
              00 2A 00 
              F0 96 80 
              60 68 22 



ARM Macro Assembler    Page 119 


              99 01 F0 
              BB DD 90 
              E0 D4 F8 
              18 08 0A 
              F0 F2 D9 
              28 B1 D4 
              F8 18 08 
              09 A9 0A 
              F0 A8 F8 
              85 E0 E5 
              B9 D4 F8 
              28 35 02 
              2B 1A D1 
              07 9B 20 
              46 B3 F8 
              16 90 BD 
              F8 56 30 
              09 F4 FF 
              69 23 F0 
              FF 03 43 
              EA D9 09 
              9D F8 2C 
              30 1F FA 
              89 F9 00 
              93 51 46 
              4A 46 0D 
              F1 2D 03 
              0D F0 33 
              DD 18 B1 
              67 E0 81 
              46 00 E0 
              A9 46 B6 
              F8 04 80 
              18 F0 02 
              08 06 D0 
              60 68 39 
              46 01 F0 
              75 DD 80 
              46 00 28 
              58 D0 9D 
              B9 20 46 
              0D F0 F6 
              DC 05 46 
              00 28 4D 
              D0 D4 F8 
              28 35 02 
              2B 09 D1 
              9D F8 2C 
              30 20 46 
              00 93 51 
              46 4A 46 
              0D F1 2D 
              03 0D F0 
              AF DC 69 
              6E 41 B1 
              60 68 B5 
              F8 68 20 
              01 F0 66 
              DD 00 23 



ARM Macro Assembler    Page 120 


              6B 66 A5 
              F8 68 30 
              AC 22 28 
              46 09 A9 
              FC F3 A1 
              F6 B3 88 
              9A 07 08 
              D5 C5 F8 
              64 80 40 
              46 59 46 
              3A 46 FC 
              F3 97 F6 
              A5 F8 68 
              70 D4 F8 
              68 01 43 
              7B DB 07 
              22 D4 0D 
              30 FD F3 
              7D F3 05 
              46 E8 B9 
              D4 F8 68 
              01 4F F0 
              ED D9 01 
              28 17 D1 
              D4 F8 68 
              01 29 46 
              0C E0 60 
              68 41 46 
              3A 46 01 
              F0 38 DD 
              D4 F8 28 
              35 30 46 
              02 2B 08 
              BF A4 F8 
              38 95 08 
              21 4F F0 
              6C DC 03 
              E0 B8 F1 
              00 0F EC 
              D1 F0 E7 
              35 B0 BD 
              E8 F0 8F 
              D0 08 02 
              00 10 B5 
              04 46 24 
              F0 92 D8 
              20 46 BD 
              E8 10 40 
              15 F0 A9 
              99 38 B5 
              D0 F8 60 
              36 DA 7A 
              9C 7A 92 
              B1 9D 89 
              4F F6 FF 
              72 95 42 
              0D D0 99 
              7B 41 B9 
              9A 78 01 



ARM Macro Assembler    Page 121 


              2A 06 D0 
              19 7B 01 
              F0 01 01 
              81 F0 01 
              01 00 E0 
              00 21 C9 
              B2 0D E0 
              02 6B 8A 
              42 10 D1 
              9A 7B 2A 
              B9 9D 78 
              01 2D 04 
              D0 91 F8 
              4C 10 02 
              E0 00 21 
              00 E0 11 
              46 8C 42 
              03 D0 99 
              72 00 69 
              36 F0 C6 
              DF 00 20 
              38 BD 38 
              B5 0D 46 
              D0 F8 60 
              16 04 46 
              CB 7A AB 
              42 0C D0 
              25 B1 0C 
              31 B0 F8 
              28 26 14 
              F0 68 DC 
              D4 F8 60 
              36 20 46 
              DD 72 21 
              6B FF F7 
              BC FF 00 
              20 38 BD 
              73 B5 03 
              68 04 46 
              5B 7E 00 
              2B 40 F0 
              BD 80 03 
              69 93 F8 
              EA 20 4A 
              B1 DB 6E 
              D3 F8 20 
              21 40 F2 
              04 43 13 
              40 B3 F5 
              80 6F 06 
              D0 AE E0 
              18 6E 07 
              F0 DE FE 
              00 28 40 
              F0 A9 80 
              23 68 93 
              F8 20 30 
              33 B9 20 
              69 05 F0 



ARM Macro Assembler    Page 122 


              2F F8 23 
              68 01 22 
              83 F8 20 
              20 23 68 
              1B 6F EB 
              B9 20 69 
              05 F0 4D 
              F8 09 30 
              18 D1 23 
              68 1A 6F 
              91 07 14 
              D4 42 F0 
              02 02 1A 
              67 25 46 
              04 F1 20 
              06 D5 F8 
              4C 12 41 
              B1 8B 79 
              33 B9 4B 
              79 23 B1 
              8B 7C 13 
              B1 20 46 
              39 F0 59 
              DD 04 35 
              B5 42 F0 
              D1 23 68 
              1D 6F 1D 
              B1 20 46 
              11 F0 94 
              DD 73 E0 
              01 23 84 
              F8 29 30 
              20 46 20 
              F0 1F DC 
              23 68 20 
              46 59 6B 
              03 23 00 
              93 21 B1 
              4F F4 80 
              72 29 46 
              13 46 02 
              E0 4F F4 
              80 72 0B 
              46 1E F0 
              DD DB A0 
              68 0A F0 
              4A D9 23 
              68 01 22 
              1A 76 94 
              F8 9D 31 
              73 B1 20 
              46 0A F0 
              01 FA D4 
              F8 40 35 
              20 46 59 
              8E 23 F0 
              FD DA 00 
              23 84 F8 
              9D 31 20 



ARM Macro Assembler    Page 123 


              46 1C F0 
              E1 DD B4 
              F8 5C 17 
              20 46 21 
              F0 6A DB 
              20 69 04 
              F0 6A FE 
              23 68 93 
              F8 2F 30 
              1B B1 D4 
              F8 34 07 
              2F F0 5B 
              DC 23 68 
              93 F8 31 
              30 7B B1 
              25 46 04 
              F1 20 06 
              D5 F8 4C 
              12 31 B1 
              8B 79 23 
              B9 4B 79 
              13 B1 20 
              46 35 F0 
              18 DB 04 
              35 B5 42 
              F2 D1 20 
              46 15 F0 
              2C DB 20 
              46 16 F0 
              D6 F8 01 
              25 D4 F8 
              AC 11 4F 
              F4 7A 72 
              01 23 A0 
              68 0A F0 
              94 D8 20 
              46 84 F8 
              F1 51 25 
              F0 EF D9 
              20 46 14 
              F0 90 DB 
              20 46 25 
              F0 4B DD 
              50 B1 20 
              46 25 F0 
              25 DD 20 
              46 29 46 
              25 F0 2B 
              DF 00 20 
              01 E0 6F 
              F0 08 00 
              7C BD 2D 
              E9 F0 4F 
              90 F8 75 
              32 97 B0 
              DB 06 04 
              46 0E 46 
              01 F1 04 
              09 00 F1 



ARM Macro Assembler    Page 124 


              A5 80 D0 
              F8 04 38 
              99 42 40 
              F0 A0 80 
              51 4B 1A 
              78 9A 46 
              00 2A 40 
              F0 9A 80 
              01 23 8A 
              F8 00 30 
              B0 F8 3C 
              52 81 E0 
              11 F0 D1 
              DA 01 69 
              D1 F8 CC 
              30 98 03 
              0D D5 20 
              46 3A 46 
              13 9B 3A 
              F0 2D DB 
              00 28 73 
              D0 23 68 
              03 99 D8 
              68 01 22 
              01 F0 F5 
              DB 6C E0 
              7B 6A 5A 
              05 07 D5 
              D4 F8 40 
              01 31 46 
              03 AA 13 
              9B 2A F0 
              20 DB 43 
              E0 58 07 
              07 D5 01 
              23 20 46 
              39 46 15 
              AA 14 93 
              1F F0 6A 
              DC 05 E0 
              20 46 03 
              A9 14 AA 
              15 AB 0B 
              F0 03 F9 
              00 28 31 
              D1 23 68 
              93 F8 A1 
              30 01 2B 
              07 D1 15 
              99 03 29 
              04 D8 D4 
              F8 40 01 
              03 22 29 
              F0 C0 DD 
              02 AF 4F 
              F0 00 08 
              1C E0 78 
              68 03 69 
              B3 F8 4C 



ARM Macro Assembler    Page 125 


              30 1F FA 
              83 FB 1B 
              B2 00 2B 
              09 DA 11 
              F0 85 DA 
              00 23 01 
              46 5A 46 
              D4 F8 60 
              01 00 93 
              4D F0 CF 
              DC 01 23 
              00 93 20 
              46 15 99 
              57 F8 04 
              2F FE F7 
              B7 F9 08 
              F1 01 08 
              14 9B 98 
              45 DF DB 
              1D E0 10 
              30 1B D1 
              48 46 13 
              99 03 9A 
              FD F3 30 
              F5 94 F8 
              75 32 73 
              B1 23 68 
              93 F8 B5 
              30 D9 07 
              09 D5 B4 
              F8 3C 32 
              01 22 1D 
              40 13 9B 
              12 FA 03 
              F3 25 EA 
              03 05 04 
              E0 B4 F8 
              3C 32 9D 
              42 0B D0 
              1D 46 4D 
              B1 48 46 
              29 46 13 
              AA FD F3 
              47 F4 07 
              46 03 90 
              00 28 7F 
              F4 73 AF 
              20 46 31 
              46 14 F0 
              40 D9 00 
              23 8A F8 
              00 30 17 
              B0 BD E8 
              F0 8F 7C 
              27 00 00 
              2D E9 F0 
              4F 9D B0 
              27 9F 12 
              93 0E 92 



ARM Macro Assembler    Page 126 


              7F 89 04 
              46 11 97 
              27 9F 10 
              46 0C 37 
              0B 97 28 
              9F 0D 46 
              0C 3F 0C 
              97 B2 F8 
              16 90 19 
              46 09 F4 
              FF 69 4F 
              EA D9 09 
              B9 F1 0E 
              0F 94 BF 
              00 27 01 
              27 10 97 
              97 88 0D 
              F1 70 08 
              14 97 15 
              F0 44 FF 
              26 9F 15 
              90 0A 37 
              39 46 10 
              9A 20 46 
              13 97 50 
              F0 8B D8 
              00 23 48 
              F8 10 3D 
              06 46 19 
              93 19 AF 
              20 46 27 
              99 28 9A 
              43 46 00 
              97 1C F0 
              B0 DC 30 
              B9 20 46 
              27 99 28 
              9A 43 46 
              00 97 1E 
              F0 A8 DC 
              16 B1 73 
              68 DB 07 
              26 D4 0C 
              99 0B 98 
              32 22 FC 
              F3 F3 F7 
              01 46 20 
              B1 40 78 
              02 31 20 
              F0 B9 DC 
              70 B9 0C 
              99 0B 98 
              01 22 FC 
              F3 E7 F7 
              01 46 50 
              B1 02 31 
              40 78 20 
              F0 AD DC 
              00 30 18 



ARM Macro Assembler    Page 127 


              BF 01 20 
              02 E0 01 
              27 0D 97 
              00 E0 0D 
              90 56 B1 
              0D 9F 37 
              B9 73 68 
              43 F0 01 
              03 73 60 
              03 E0 00 
              27 00 E0 
              01 27 0D 
              97 0B 98 
              0C 99 03 
              22 FC F3 
              C8 F7 23 
              68 07 46 
              08 B1 42 
              78 AA B9 
              93 F8 3F 
              00 70 B1 
              B4 F8 26 
              06 C3 B2 
              4B 45 08 
              D0 FD F3 
              6D F5 C9 
              EB 00 0E 
              DE F1 00 
              00 40 EB 
              0E 00 00 
              E0 01 20 
              C0 B2 0F 
              90 00 27 
              10 E0 93 
              F8 3F 00 
              50 B1 B4 
              F8 26 06 
              FD F3 5A 
              F5 97 F8 
              02 90 C0 
              EB 09 07 
              78 42 40 
              EB 07 00 
              C0 B2 0F 
              90 07 46 
              0F 99 29 
              B1 15 F1 
              00 08 18 
              BF 4F F0 
              01 08 01 
              E0 DD F8 
              3C 80 23 
              68 5F FA 
              88 F8 93 
              F8 46 90 
              19 F0 03 
              09 23 D0 
              94 F8 72 
              32 4B B9 



ARM Macro Assembler    Page 128 


              B8 F1 00 
              0F 06 D0 
              D5 F8 D4 
              32 B3 F8 
              06 90 19 
              F0 20 09 
              1F D0 0B 
              99 0C 9A 
              20 46 20 
              F0 B6 DC 
              0B 99 83 
              46 0C 9A 
              20 46 20 
              F0 7C DC 
              23 68 07 
              90 93 F9 
              4C 30 53 
              B1 20 46 
              0B 99 0C 
              9A 1D F0 
              A0 D9 81 
              46 04 E0 
              CB 46 CD 
              F8 1C 90 
              00 E0 99 
              46 B8 F1 
              00 0F 6C 
              D0 02 E0 
              CB 46 CD 
              F8 1C 90 
              23 68 93 
              F8 46 A0 
              1A F0 03 
              0A 6C D0 
              07 9A 00 
              2A 61 D0 
              BB F1 00 
              0F 61 D0 
              11 78 20 
              46 52 78 
              0F F0 AD 
              DB B4 F8 
              26 C6 03 
              46 0C F4 
              70 42 B2 
              F5 00 52 
              18 BF 01 
              22 0E 32 
              54 F8 22 
              80 0C F4 
              40 6C D8 
              F8 04 10 
              D4 F8 5C 
              01 08 93 
              CD F8 24 
              C0 3F F0 
              52 DF 10 
              F0 08 0F 
              08 9B DD 



ARM Macro Assembler    Page 129 


              F8 24 C0 
              07 D1 98 
              F8 EC A0 
              1A F1 00 
              0A 18 BF 
              4F F0 01 
              0A 01 E0 
              4F F0 00 
              0A 9B F8 
              00 20 12 
              F0 02 02 
              03 D0 07 
              99 4A 78 
              C2 F3 80 
              02 BC F5 
              40 6F 05 
              D1 B4 F8 
              26 26 9A 
              42 0B D1 
              00 F0 13 
              BC BA F1 
              00 0F 25 
              D0 0A B3 
              03 F4 40 
              62 B2 F5 
              40 6F 40 
              F0 09 84 
              22 68 92 
              F8 2F A0 
              BA F1 00 
              0F 40 F0 
              05 84 18 
              46 08 93 
              FD F3 AF 
              F4 80 46 
              B4 F8 26 
              06 FD F3 
              AA F4 80 
              45 08 9B 
              40 F0 FA 
              83 08 E0 
              C2 46 09 
              E0 DD F8 
              1C A0 04 
              E0 DA 46 
              02 E0 92 
              46 00 E0 
              9A 46 4F 
              F0 01 08 
              23 6B 5B 
              7D 00 2B 
              37 D0 0F 
              9A 00 2A 
              34 D0 94 
              F8 72 32 
              33 B9 94 
              F8 74 32 
              00 2B 2D 
              D0 B8 F1 



ARM Macro Assembler    Page 130 


              00 0F 2A 
              D1 94 F8 
              49 36 53 
              B1 19 9B 
              00 2B 07 
              DD 18 9B 
              1B 78 58 
              07 03 D5 
              D4 F8 58 
              36 04 22 
              1A 61 94 
              F8 49 36 
              4B B1 0D 
              9B 4B B9 
              11 99 89 
              06 0D D4 
              D4 F8 58 
              36 04 22 
              DA 60 08 
              E0 0D 9A 
              32 B1 19 
              9B 00 2B 
              07 DD 18 
              9B 1B 78 
              DA 07 03 
              D5 D4 F8 
              58 36 04 
              22 1A 62 
              20 46 25 
              F0 37 DB 
              23 68 93 
              F8 46 30 
              9B 07 47 
              D0 0F 9B 
              00 2B 44 
              D0 94 F8 
              72 32 33 
              B9 94 F8 
              74 32 00 
              2B 3D D0 
              B8 F1 00 
              0F 3A D1 
              B4 F8 26 
              36 07 99 
              03 F4 40 
              63 A3 F5 
              40 60 43 
              42 43 EB 
              00 03 11 
              B9 0D 9A 
              32 B9 16 
              E0 07 99 
              8A 78 02 
              F0 03 02 
              03 2A 05 
              D1 D4 F8 
              58 26 04 
              21 91 61 
              07 9A 52 



ARM Macro Assembler    Page 131 


              B1 07 99 
              8A 78 02 
              F0 03 02 
              02 2A 04 
              D1 1B B1 
              D4 F8 58 
              26 04 21 
              D1 62 BB 
              F1 00 0F 
              0F D0 07 
              9A 6A B1 
              9B F8 00 
              10 52 78 
              89 07 08 
              D4 02 F0 
              04 02 D2 
              B2 22 B1 
              1B B1 D4 
              F8 58 36 
              04 22 DA 
              62 20 46 
              25 F0 9C 
              DB 23 68 
              93 F8 2F 
              30 DB B1 
              D4 F8 FC 
              34 1B 78 
              BB B1 B7 
              B9 20 46 
              59 46 2E 
              F0 EB DE 
              88 B1 20 
              46 39 46 
              2E F0 E8 
              DF 20 46 
              2E F0 DB 
              DF B4 F8 
              26 36 03 
              F4 40 63 
              B3 F5 40 
              6F 03 D1 
              20 46 01 
              21 2E F0 
              4C DF 94 
              F8 70 32 
              00 2B 00 
              F0 55 83 
              1D B1 D5 
              F8 DC 72 
              0A 97 00 
              E0 0A 95 
              B8 F1 00 
              0F 7C D0 
              23 68 93 
              F8 46 30 
              9B 07 2E 
              D0 AB 7C 
              33 B9 36 
              B9 20 46 



ARM Macro Assembler    Page 132 


              13 99 10 
              9A 4F F0 
              B5 DF 06 
              46 26 B3 
              BB F1 00 
              0F 0E D0 
              07 9B 20 
              46 31 46 
              5A 46 CD 
              F8 00 90 
              1D F0 AC 
              D8 B5 F8 
              34 35 23 
              F0 20 03 
              A5 F8 34 
              35 0C E0 
              AB 7C 53 
              B9 73 68 
              DF 03 07 
              D5 20 46 
              31 46 5A 
              46 5B 46 
              CD F8 00 
              B0 1D F0 
              98 D8 20 
              46 0B 99 
              0C 9A 33 
              46 1F F0 
              82 DE 0E 
              99 20 46 
              1D F0 64 
              DF 01 46 
              28 46 1D 
              F0 A2 DF 
              28 46 1D 
              F0 F7 DE 
              0E 99 20 
              46 11 F0 
              ED DF 01 
              46 28 46 
              10 F0 4F 
              DF AB 79 
              83 B9 D5 
              F8 E0 22 
              D5 F8 D4 
              32 11 8A 
              92 8A 0A 
              9F 59 85 
              9A 85 7B 
              79 2B B9 
              AB 7C 1B 
              B1 28 46 
              01 21 35 
              F0 40 DC 
              0A 9F 00 
              23 BB 71 
              FB 71 95 
              F8 12 90 
              B9 F1 00 



ARM Macro Assembler    Page 133 


              0F 19 D1 
              97 F8 85 
              30 01 2B 
              15 D1 87 
              F8 85 90 
              D4 F8 40 
              01 26 F0 
              01 DD 20 
              46 29 46 
              0F 22 4B 
              46 CD F8 
              00 90 CD 
              F8 04 90 
              CD F8 08 
              90 CD F8 
              0C 90 CD 
              F8 10 90 
              16 F0 E1 
              DF 00 2D 
              59 D0 AB 
              79 00 2B 
              56 D1 AB 
              7C 00 2B 
              53 D0 27 
              9F BB 78 
              7A 78 1B 
              04 43 EA 
              02 23 3A 
              78 13 43 
              FA 78 43 
              EA 02 62 
              BB 79 10 
              92 7A 79 
              1B 04 43 
              EA 02 23 
              3A 79 13 
              43 FA 79 
              0A 9F 43 
              EA 02 69 
              FB 69 13 
              B9 3A 6A 
              12 B9 32 
              E0 99 45 
              06 D3 99 
              45 2E D1 
              0A 9F 3B 
              6A 10 9F 
              9F 42 29 
              D2 26 9F 
              00 23 00 
              93 01 93 
              02 93 03 
              93 04 93 
              20 46 07 
              F1 10 03 
              29 46 16 
              22 16 F0 
              A6 DF 28 
              46 0E 99 



ARM Macro Assembler    Page 134 


              12 9A 27 
              9B 24 F0 
              A0 DC 0F 
              9F 9F B1 
              EB 79 4B 
              B1 AB 7C 
              23 B1 05 
              F1 BC 00 
              FC F3 B4 
              F6 10 B9 
              05 F1 BC 
              01 01 E0 
              05 F1 D6 
              01 00 22 
              20 46 13 
              46 00 92 
              22 F0 2C 
              DA 0A 99 
              10 9F C1 
              F8 1C 90 
              0F 62 B8 
              F1 00 0F 
              00 F0 0D 
              82 AA 79 
              AB 7C 00 
              2A 40 F0 
              8D 81 00 
              2B 00 F0 
              8A 81 1A 
              AB 00 93 
              28 9A 28 
              46 27 99 
              0D F1 6F 
              03 16 F0 
              16 D8 BD 
              F8 68 20 
              D5 F8 E4 
              82 A5 F8 
              20 25 94 
              F8 EB 91 
              B9 F1 00 
              0F 67 D1 
              00 28 4D 
              D0 98 F8 
              00 30 02 
              2B 1A D1 
              28 46 49 
              46 B8 F8 
              26 B0 0A 
              F0 B4 FB 
              B4 F8 30 
              38 84 F8 
              32 98 0B 
              B1 A8 F8 
              26 30 28 
              46 1E F0 
              A3 DC D5 
              F8 E4 32 
              A8 F8 26 



ARM Macro Assembler    Page 135 


              B0 5B 8B 
              00 2B 4A 
              D0 28 46 
              10 F0 5F 
              DF 46 E0 
              23 68 5B 
              6B 3B B1 
              94 F8 FA 
              31 23 B1 
              AE B1 96 
              F8 D2 30 
              0F 2B 11 
              D0 98 F8 
              02 20 22 
              B1 20 46 
              29 46 22 
              F0 D4 DD 
              33 E0 4F 
              F0 FF 33 
              00 93 20 
              46 05 F1 
              BC 01 13 
              46 22 F0 
              CA D9 29 
              E0 94 F8 
              0D 37 33 
              B3 98 F8 
              02 30 3B 
              B1 1E B1 
              73 68 23 
              F0 00 63 
              73 60 28 
              46 16 F0 
              9D D8 28 
              46 23 F0 
              BA DA 17 
              E0 98 F8 
              08 30 2B 
              B1 B8 F8 
              0A 10 11 
              B9 28 46 
              23 F0 DE 
              DA D5 F8 
              E4 32 5B 
              8B 53 B1 
              98 F8 00 
              30 02 2B 
              06 D1 D8 
              F8 20 30 
              01 2B 02 
              D1 28 46 
              1E F0 3D 
              DC 98 F8 
              03 30 1B 
              B1 28 46 
              00 21 23 
              F0 BC D9 
              98 F8 09 
              30 3B B9 



ARM Macro Assembler    Page 136 


              28 46 0D 
              F0 82 DE 
              18 B1 28 
              46 01 21 
              23 F0 A9 
              DB 98 F8 
              09 30 5B 
              B1 14 9F 
              28 46 C7 
              F3 C0 11 
              15 9A 27 
              9B 24 F0 
              86 DB 28 
              46 00 21 
              23 F0 9A 
              DB 23 6B 
              5B 7D 00 
              2B 38 D0 
              11 9F 20 
              46 C7 F3 
              80 21 24 
              F0 9A DA 
              18 9A 00 
              2A 2F D0 
              19 9B 00 
              2B 2C DD 
              D4 F8 58 
              36 93 F9 
              01 10 01 
              31 09 D1 
              12 78 1B 
              78 C2 F3 
              40 02 93 
              42 03 D0 
              20 46 01 
              21 1F F0 
              E6 DD 18 
              9B 1B 78 
              C3 F3 80 
              03 84 F8 
              46 36 3B 
              B9 D4 F8 
              58 36 1B 
              69 D3 F1 
              01 03 38 
              BF 00 23 
              00 E0 00 
              23 84 F8 
              42 36 4E 
              B1 73 68 
              23 F0 04 
              03 73 60 
              94 F9 46 
              26 12 B9 
              43 F0 04 
              03 73 60 
              23 68 93 
              F8 46 30 
              98 07 33 



ARM Macro Assembler    Page 137 


              D0 07 9F 
              00 2F 30 
              D0 D4 F8 
              58 36 93 
              F9 06 20 
              51 1C 25 
              D1 BA 78 
              93 F9 05 
              30 02 F0 
              03 02 93 
              42 03 D0 
              20 46 0B 
              21 1F F0 
              B0 DD 07 
              9F D4 F8 
              58 36 BA 
              78 DB 79 
              C2 F3 80 
              02 93 42 
              03 D0 20 
              46 0D 21 
              1F F0 A3 
              DD 07 9F 
              D4 F8 58 
              36 BA 78 
              9B 7A C2 
              F3 00 12 
              93 42 09 
              D0 20 46 
              10 21 1F 
              F0 96 DD 
              04 E0 01 
              2A 0C BF 
              03 22 00 
              22 5A 71 
              D4 F8 5C 
              01 B4 F8 
              26 16 40 
              F0 68 D8 
              90 B1 D4 
              F8 5C 01 
              B4 F8 26 
              16 3F F0 
              A1 DC 23 
              6B 18 69 
              0B F0 9F 
              FB B4 F8 
              26 36 83 
              42 04 D1 
              00 21 20 
              46 0A 46 
              1E F0 8A 
              D8 00 2E 
              42 D0 73 
              68 5B 06 
              40 F1 27 
              81 0B 9F 
              16 97 0C 
              9F 17 97 



ARM Macro Assembler    Page 138 


              06 E0 20 
              46 39 46 
              16 AA 17 
              AB 1D F0 
              5B DB 40 
              B9 16 98 
              17 99 DD 
              22 FC F3 
              05 F4 07 
              46 00 28 
              F0 D1 0A 
              E1 BB 79 
              01 2B 40 
              F0 0E 81 
              94 F8 0C 
              22 3B 7A 
              53 40 18 
              07 00 F0 
              07 81 04 
              F5 00 79 
              09 F1 06 
              08 40 46 
              B9 1C 18 
              22 FC F3 
