S0180000696D675F7274313035305F64656275672E737265635E
S31560000000464346420001015600000000000303001B
S31560000010000000000000000000000000000000007A
S31560000020000000000000000000000000000000006A
S31560000030000000000000000000000000000000005A
S31560000040210000000104050100000000000000001E
S315600000500000000400000000000000000000000036
S31560000060000000000000000000000000000000002A
S315600000700000000000000000030000000000010016
S315600000806B04180808320426000000000000000017
S3156000009005040424000000000000000000000000C9
S315600000A000000000000000000000000000000000EA
S315600000B006040000000000000000000000000000D0
S315600000C000000000000000000000000000000000CA
S315600000D02004180800000000000000000000000076
S315600000E000000000000000000000000000000000AA
S315600000F0000000000000000000000000000000009A
S315600001000000000000000000000000000000000089
S3156000011038041808042200000000000000000000F7
S315600001200000000000000000000000000000000069
S315600001300000000000000000000000000000000059
S315600001400000000000000000000000000000000049
S315600001500000000000000000000000000000000039
S315600001600000000000000000000000000000000029
S315600001700000000000000000000000000000000019
S3156000018000000000020100000203000004050000F8
S3156000019002090000040B00000000000000000000DF
S315600001A000000000000000000000000000000000E9
S315600001B000000000000000000000000000000000D9
S315600001C000010000001000000000000000000000B8
S315600001D000000000000000000000000000000000B9
S315600001E000000000000000000000000000000000A9
S315600001F00000000000000000000000000000000099
S31560001000D100204101FE0760000000003010006042
S31560001010201000600010006000000000000000006A
S315600010200000006018E2130000000000FFFFFFFFF1
S31560001030D2001041C0000400C0000400C0000400DB
S315600020000020002001FE07607D0E0B6029030B6037
S3156000201029030B6029030B6029030B600000000095
S3156000202000000000000000000000000035030B60A7
S3156000203061FF07600000000061030B60F10F0B6039
S3156000204071A00A6071A00A6071A00A6071A00A603E
S3156000205071A00A6071A00A6071A00A6071A00A602E
S3156000206071A00A6071A00A6071A00A6071A00A601E
S3156000207071A00A6071A00A6071A00A6071A00A600E
S315600022C071A00A6001B441EA000313F003036FD101
S315600022D0403A41D351F8043B40F8043B51F8043B83
S315600022E040F8043B51F8043B40F8043B51F8043B8A
S315600022F040F8043B51F8043B40F8043B51F8043B7A
S3156000230040F8043B51F8043B40F8043B51F8043B69
S3156000231040F8043B51F8043B40F8043B51F8043B59
S3156000232040F8043B51F8043B40F8043B51F8043B49
S3156000233040F8043B51F8043B40F8043B51F8043B39
S3156000234040F8043B51F8043B40F8043B51F8043B29
S3156000235040F8043B403ABDD2303211D351F8043BC9
S3156000236040F8043B51F8043B40F8043B51F8043B09
S3156000237040F8043B51F8043B40F8043B103AEDD278
S315600023800C3205D351F8043B40F8043B043AF9D2C9
S3156000239004320AD0D2071CBF11F8013B00F8013B9A
S315600023A003D30B7803704B78437001BC704700BF52
S315600023B00C2A4AD310F0030311D0C3F10403D21AD6
S315600023C0DB071CBF11F8013B00F8013B07D311F88E
S315600023D0013B00F8013B11F8013B00F8013B11F0AD
S315600023E003033FF475AF30B4043AC91AC3F1040C61
S315600023F051F8044B022B19D0032B0BD0240A51F849
S31560002400043B1D0644EA050440F8044B1C46043AA6
S31560002410F4D216E0240E51F8043B1D0244EA05048A
S3156000242040F8044B1C46043AF4D20AE0240C51F8F6
S31560002430043B1D0444EA050440F8044B1C46043A78
S31560002440F4D20432B1EB0C0130BC043AA0D3013AA9
S3156000245011F8013B00F8013BF9D20B7803704B7819
S3156000246043708B78837001BC704700BF000000002A
S31560002470CC07008000000000AC492DE9F047064615
S3156000248082B00846A94BD1F8E020D407FAD5D0F837
S31560002490E0209207F6D53279203253F8221041F0C7
S315600024A000413279203243F822105A6942F0100214
S315600024B05A615A6942F008025A615A6942F0040246
S315600024C05A615A6942F002025A613268C3F8A02022
S315600024D0D3F8BC2042F00102C3F8BC20D3F8B82080
S315600024E042F00102C3F8B8207379013B022B40D851
S315600024F0B189F279B379013A1B04120603F47023A9
S3156000250002F0E06213430B43884CC4F8A430012305
S31560002510C4F8B030737903F0FD02012A2BD0022B88
S3156000252000F08F80002081490C46804AD1F8E03067
S31560002530DD07FAD5D4F8E0309B07F6D57379ABB9E9
S31560002540536940F60A00184080B1536918435061D8
S31560002550D2F8BC3043F00103C2F8BC30D2F8B830D0
S3156000256043F00103C2F8B8304FF0FF3002B0BDE867
S31560002570F0870021BDE70023B568F2680193D4F8BF
S31560002580BC30C3F383030133002ACBD04FEAC30ABE
S31560002590A0464FF0010E02E06369DB0719D4634879
S315600025A061694F06F8D540F60A030B40A3B142694C
S315600025B013434361D0F8BC3043F00103C0F8BC302C
S315600025C0D0F8B83043F00103C0F8B8304FF0FF30B0
S315600025D0A9E7C8F814E0E2E7924518D95FEA9209DC
S315600025E00BD0294651F8047B03F1600044F8207053
S315600025F001334B45F6D105EB890512F0030215D17F
S31560002600636943F040036361002AC2D18AE705EB40
S315600026100A0E55F8040B03F1600144F82100754574
S3156000262003F10103F5D1CAEB0202E9E7294601A8E5
S3156000263000F06AFA09F16109019B44F82930002229
S31560002640DEE70023B568F1680193D4F8B870C7F384
S315600026508307013700293FF465AFFF00B9421CD3F9
S31560002660324A606940F60A0310F0200F03EA00035D
S3156000267021D1002BF4D051690B435361D2F8BC30A1
S3156000268043F00103C2F8BC30D2F8B83043F001031E
S31560002690C2F8B8304FF0FF3045E7244AD4F8F0303E
S315600026A0DBB2B1EBC30F06D9606940F60A0303409B
S315600026B0002BE0D1F1E71D4A606940F60A0303404A
S315600026C0002BD8D1B94213D25FEA910E0BD02A46BD
S315600026D003F1400054F82000013342F8040B7345BF
S315600026E0F6D105EB8E0511F0030214D111460BE00D
S315600026F0E81903F1400254F8222045F8042BA84259
S3156000270003F10103F5D1C91B636943F020036361DB
S315600027100029A3D106E70EF1400E54F82E3001A928
S315600027202846019300F0F0F90021EDE700802A4089
S315600027302DE9F04701248AB00F46924699468DF8F6
S315600027400740032600F0D6F90023804606A80697C0
S315600027508DF81F408DF81C308DF81D308DF81E6089
S31560002760FFF78AFE054630B1404600F0C7F92846B5
S315600027700AB0BDE8F087092302A88DF80C500297CD
S315600027808DF80D608DF80F40CDF810A0CDF814903F
S315600027908DF80E30FFF770FE05460028E4D19DF8EF
S315600027A00730DA07E0D506460DF10709022706A8C5
S315600027B006968DF81C608DF81D708DF81E408DF89C
S315600027C01F40CDF820900994FFF756FE9DF807301C
S315600027D00546DB07EBD4404600F090F928460AB080
S315600027E0BDE8F0872DE9F0434FF001088BB0002477
S315600027F00D468DF8078000F07DF90323814606A813
S315600028008DF81F8006948DF81C408DF81D408DF85C
S315600028101E30FFF731FE074630B1484600F06EF9CC
S3156000282038460BB0BDE8F0831C4B1D489861022604
S31560002830DE611C4A29040A43C3F880229861C3F802
S315600028401C800E2302A8029745468DF80C708DF801
S315600028500D708DF80F800DF10708049705978DF8B8
S315600028600E30FFF709FE074606A806948DF81C4051
S315600028708DF81D608DF81E508DF81F50CDF82080A4
S315600028800995FFF7F9FD9DF80730DB07ECD448465C
S3156000289000F034F938460BB0BDE8F08300802A407A
S315600028A0F05AF05A420400042DE9F0438BB000243C
S315600028B00D464FF0010800F01DF90323814606A876
S315600028C006948DF81C408DF81D408DF81E308DF8ED
S315600028D01F80FFF7D1FD074630B1484600F00EF97C
S315600028E038460BB0BDE8F0831D4B1E489861022642
S315600028F0DE611D4A29040A43C3F880229861C3F841
S315600029001C80082302978DF80C7045460DEB03007A
S315600029108DF80D708DF80F800DF1070804970597F7
S315600029208DF80E30FFF7A8FD074606A806948DF8C9
S315600029301C408DF81D608DF81E508DF81F50CDF827
S3156000294020800995FFF798FD9DF80730DB07ECD4EA
S31560002950484600F0D3F838460BB0BDE8F08300BFB8
S3156000296000802A40F05AF05A010400042DE9F04331
S3156000297001248BB00E468DF8074000F0BBF80023AB
S315600029800322804606A806968DF81F408DF81C30F7
S315600029908DF81D308DF81E20FFF76EFD054630B1AF
S315600029A0404600F0ABF828460BB0BDE8F08305233F
S315600029B002A88DF80C508DF80D5002968DF80F40D8
S315600029C08DF80E30FFF758FD05460028E8D19DF8D2
S315600029D00730DA07E4D506460DF10709022706A88F
S315600029E006968DF81C608DF81D708DF81E408DF86A
S315600029F01F40CDF820900994FFF73EFD9DF8073003
S31560002A000546DB07EBD4404600F078F828460BB065
S31560002A10BDE8F08310B584B0002301220324684624
S31560002A2000918DF804308DF805308DF806408DF8EC
S31560002A300720FFF721FD04B010BD00BF30B50023AD
S31560002A4085B002250D2401200291039200938DF832
S31560002A5004308DF805508DF806408DF8070000F0BB
S31560002A6049F805466846FFF707FD0446284600F024
S31560002A7045F8204605B030BD30B585B00123002449
S31560002A80022568460291039200948DF804408DF801
S31560002A9005508DF806308DF80730FFF7EDFC05B070
S31560002AA030BD00BF2DE9F04784B08A46914698460E
S31560002AB000240227012600F01DF8054668468DF8B9
S31560002AC004408DF80640CDF800A0CDF80890CDF80A
S31560002AD00C808DF805708DF80760FFF7CDFC044615
S31560002AE0284600F00BF8204604B0BDE8F08700BF2A
S31560002AF000207047EFF3108072B6704780F310883D
S31560002B007047FFF7F5FFFEE7844641EA000313F0DE
S31560002B1003036DD1403A41D351F8043B40F8043B7E
S31560002B2051F8043B40F8043B51F8043B40F8043B41
S31560002B3051F8043B40F8043B51F8043B40F8043B31
S31560002B4051F8043B40F8043B51F8043B40F8043B21
S31560002B5051F8043B40F8043B51F8043B40F8043B11
S31560002B6051F8043B40F8043B51F8043B40F8043B01
S31560002B7051F8043B40F8043B51F8043B40F8043BF1
S31560002B8051F8043B40F8043B51F8043B40F8043BE1
S31560002B9051F8043B40F8043B403ABDD2303211D381
S31560002BA051F8043B40F8043B51F8043B40F8043BC1
S31560002BB051F8043B40F8043B51F8043B40F8043BB1
S31560002BC0103AEDD20C3205D351F8043B40F8043B81
S31560002BD0043AF9D2043208D0D2071CBF11F8013B7F
S31560002BE000F8013B01D30B8803806046704700BF45
S31560002BF0082A13D38B078DD010F003038AD0C3F154
S31560002C000403D21ADB071CBF11F8013B00F8013B35
S31560002C1080D331F8023B20F8023B7BE7043AD9D3F4
S31560002C20013A11F8013B00F8013BF9D20B780370C9
S31560002C304B7843708B7883706046704735060080AA
S31560002C400906008039040080A5050080FD04008027
S31560002C50C1020080CD050080750300800000000081
S31560002C60000000009DC7000061C6000061C600004C
S31560002C7061C6000061C6000061C6000061C6000052
S31560002C8061C6000061C6000061C6000061C6000042
S31560002C9061C6000061C6000061C6000061C6000032
S31560002CA061C6000061C6000061C6000061C6000022
S31560002CB061C6000061C6000061C6000061C6000012
S31560002CC061C6000061C6000061C6000061C6000002
S31560002CD061C6000061C6000061C6000061C60000F2
S31560002CE0004800479DC7000000000000000000008B
S31560002CF0000000000000000000000000000000006E
S31560002D00000000000000000000000000000000005D
S31560002D10000000000000000000000000000000004D
S31560002D20000000000000000000000000000000003D
S31560002D30000000000000000000000000000000002D
S31560002D40000000000000000000000000000000001D
S31560002D50000000000000000000000000000000000D
S31560002D60D11E8000B5228000BD248000491F8000EE
S31560002D70F921800015FC0000F1208000D120800040
S31560002D80594880006948800015648000E1628000CF
S31560002D90296280003D6580008D628000C56280008A
S31560002DA0596380005D6580007D6380009D6380005F
S31560002DB00D668000A9618000616180007560800099
S31560002DC095608000DD6380009D65800029668000D7
S31560002DD0FD618000B96580001D618000F16580003D
S31560002DE09D6680006D658000916C8000CD6B800073
S31560002DF0316C80008D6B8000556C8000AD6A800000
S31560002E00C16A8000D56A8000496B80001D6A8000B7
S31560002E10FD6A8000AD688000C1698000D16880006D
S31560002E20356B8000B169800071CE0000D16680008C
S31560002E30E16780008D678000CD6780009D688000B7
S31560002E40ED678000BD678000A1678000ED66800049
S31560002E5009678000616780004D4880001D488000DA
S31560002E6085988000DD96800051948000B19B80003B
S31560002E703994800005988000199880002D9880000C
S31560002E80C59B8000D19A8000899D8000D193800087
S31560002E90D9918000ED9A800001290000A9FB00000D
S31560002EA05129000085FB0000519B800079290000B4
S31560002EB049A9800099988000B129000031A8800056
S31560002EC005A7800021A28000BD938000DD9380006D
S31560002ED0199E80007D93800045988000E59B800068
S31560002EE06DA68000C19C8000C59F8000A19D80006A
S31560002EF0AD2A0000D1FB0000E5FB000029AA800096
S31560002F00B9A9800075AA8000E1A9800039AA80006D
S31560002F108DAA80005DAA80000DAA8000C5A98000E8
S31560002F209DA98000A90C8000850D8000C1068000E7
S31560002F3029088000694680004D468000D94480009B
S31560002F404146800021448000F5438000154480009E
S31560002F50E1438000E1428000854680007544800040
S31560002F602D448000A9428000F9428000CD43800054
S31560002F70B9458000F544800039458000090080002D
S31560002F803D00800049018000D10480000D0480006E
S31560002F90910380004D038000E503800035038000C7
S31560002FA06503800029028000CD0280005102800006
S31560002FB085028000F5028000950680003906800053
S31560002FC08105800005068000FD048000690F800091
S31560002FD025168000151680004513800015138000A5
S31560002FE02513800009138000351380000D1E8000B4
S31560002FF0F91D8000291D80001D1C8000391C800081
S315600030003116800059138000650E8000951380008C
S31560003010B91C80007328000099140200751D800099
S31560003020C50901003D1D80000D1B8000E910800070
S31560003030790F8000A9168000311480002D11800060
S31560003040A51E8000B11E8000BD1E8000692B800019
S31560003050AD28800011298000892B8000FD2B80001F
S31560003060E128800065288000B52C8000912C8000C6
S315600030701D2B8000752D8000252C80004D30800032
S31560003080DD2D8000592780003131800031FB000042
S315600030908D268000C5268000E5248000FD26800000
S315600030A021258000B12A80006525800025288000C2
S315600030B06129800041298000D92980009D298000EE
S315600030C081298000893080004D2E8000B12B8000E0
S315600030D0312C8000E12C8000613280002D3280002E
S315600030E0C93380004D368000693A8000B53580006E
S315600030F0F9348000A93480003D3380009D33800020
S31560003100013480003536800031388000353A8000E1
S31560003110213A8000AD3280000D338000DD328000C0
S31560003120953A8000D937800099368000193780003B
S31560003130593880004938800019398000313D800057
S31560003140D53A8000C93C8000E13B8000513D80005B
S31560003150D93D8000AD3E8000593F80009941800096
S3156000316041478000CD5B8000895380002D4D8000F3
S31560003170A94C8000E14D8000E94F8000B14F80008E
S31560003180C94E80008D4E8000F15180005D528000F6
S31560003190D15180002D52800001528000C94F8000BD
S315600031A0594C80006D4C8000455B8000395680002C
S315600031B0155A8000C9588000315A800081578000B6
S315600031C0F95980001D568000AD55800091558000EC
S315600031D04D5A80002D558000714B800071548000DF
S315600031E009548000F54D80001D4C8000F94B80002D
S315600031F0094C8000114E80001558800015080100AA
S315600032002D508000E5588000555680007D5A80001C
S31560003210054F8000354E8000D9558000515880009A
S315600032209D57800059518000614D8000B1488000F3
S315600032305D5B800081528000494C8000E1020100A4
S31560003240F15B8000E55C8000E15F8000A55E800048
S315600032507D5E80008D5C8000015C8000A15F8000E7
S31560003260895D800005608000395D8000D15E8000E8
S31560003270495E8000ED6C8000656D8000DD6D8000CC
S315600032800D6D8000296D8000896D8000F96C80006D
S31560003290D96C80003D6E8000616F8000756E800025
S315600032A0056E8000A974800055758000D574800015
S315600032B005748000D17C8000457D8000757C80002F
S315600032C0117E8000897E8000E97E8000917D80008D
S315600032D03D7E8000517F8000A581800065848000EE
S315600032E0418480008D838000658380003585800001
S315600032F0E58480009D84800021858000758480003F
S31560003300BD8380005D858000BD858000158F80004F
S31560003310918D8000D58980001986800019AB800068
S315600033205DAC8000A1AA8000B5AB80005DAB80007B
S31560003330FDB080007DB1800065B080006DAE80001C
S3156000334085AE8000EDAD800041AF80001DAE80008F
S3156000335031B180003DB18000B9AE8000F5B180002A
S3156000336079B08000FDAD800009B180008DB080002D
S3156000337049B1800069B180004DAE80003DAE8000ED
S3156000338095AE800029B38000C9AE8000CDAF8000C5
S31560003390E5AF800025B080008DAF8000B5B28000BB
S315600033A0FDB2800019B38000EDB080005DAE800094
S315600033B02DAE800029B28000A9B08000A1B1800046
S315600033C005B2800039B28000A9AE80007DAF800072
S315600033D0ADB38000A9BD80009DC1800025C7800077
S315600033E0DDC8800065CA8000E1CB8000DDCE80004C
S315600033F019CE800099CE800015CF8000C12D0000C7
S315600034000DD88000DDD7800091D780003509010096
S31560003410B12C000069D880007DCF800045D980003E
S31560003420FD08010099D1800051080100F9E0800093
S3156000343071F58000AB2F0000D1DE800033F500000F
S3156000344009EA8000A1E48000F1F50000E1EC80006B
S3156000345011E3800039EA800039E3800099E3800057
S3156000346029DF8000EBF4000099F4000027F40000E7
S315600034705BF3000025F30000BDEB8000B92E000071
S31560003480312F000045F4000091F30000FFF40000C6
S31560003490E1E18000A9E9800069F5000075F50000AA
S315600034A0EDF58000D90081009DF68000C5F78000AB
S315600034B085FF800045018100D50281004D038100B2
S315600034C0E50081007DF6800081F78000D5F58000FB
S315600034D051F9800031FB8000F1F68000F9F580003B
S315600034E041FF8000D9F98000DDFC8000A9F78000EB
S315600034F0C92F000059FB80008DF78000A5F9800078
S31560003500A509010029F68000A1F880005DF780001A
S3156000351065F6800095FD800009310000F5028100A6
S315600035202D028100890181000501810021320000A0
S3156000353099FF800019F7800089F68000C1F6800047
S315600035408109010085F5800005F78000DDF68000C1
S31560003550B1F68000AD6A8100BD6A8100DD2F810011
S31560003560E1578100F56D8200A98D820009258200F0
S31560003570196E820001AA81005D608200A537820013
S31560003580ED69810079598200E55882001D598200F3
S31560003590FD6D8100493A810041BC8200E95A820092
S315600035A0CD608100D59681001D6181002961810011
S315600035B089BF81001DAB8100A93282006736000099
S315600035C02569810005A6810021AD82002958810008
S315600035D0BD3E8100A540810035958100599B8100E3
S315600035E03D3682001D4582000928810099A0810030
S315600035F0D1288100E93B81008D288100416E8200DF
S31560003600859B8100295D81006D398200FD398200CC
S31560003610253A820095698100C97A810091578100B7
S315600036205D57810075308200852F82003557810095
S31560003630D12F82002157810049578100F5288100EA
S3156000364095A882002DA2820089D38100D56B810066
S315600036505959810075598100F55A820005AD81007E
S31560003660F1D2810039378100ED718100C596810004
S315600036708957820091618200CD618200A9588100DC
S315600036801D2782004543820001448200156A81003D
S31560003690614A8100ED4E810071228200055A8100E7
S315600036A04D8A81007549810071248200B14981008B
S315600036B0B144810075AC8200292B82005952810089
S315600036C0E12A8200B529820071A7810035A78100B1
S315600036D001D48100F5BE810055B48100D16A8200B3
S315600036E0D19C81009D9C8100959B8100B59D810048
S315600036F0459D8100C59D810061708200093581000C
S31560003700A1AB82008DAB820075AB8200F193810024
S315600037109968810015D7810071C182007D2B810077
S31560003720E92F81000DB6810025BD82008D4F810095
S315600037300D5081008543820031D78100B1BD820082
S3156000374095C182005DB38200670D01008DD1810055
S31560003750A9368100E9BC820029378100E9368100FB
S31560003760A1D68100A53B81006DAB810041B081008F
S31560003770D9F600008FF6000041BD820095BE82003A
S31560003780CD2E82009D6B8100CD458200453981003A
S31560003790353B8100BD3A8100F1D58100419F8100B2
S315600037A0119F810071A48200ADD58100C130810076
S315600037B0A13982004D618100995B8100A57281000B
S315600037C089DA810061BF81006157820081218200B0
S315600037D0A9218200D1AD820009BC8200B5A1810019
S315600037E09DCA8100B92F8200D9BB82001130820048
S315600037F07DAD8200CDA4810099A48100CDAB82000D
S3156000380015AB8200C1AA8200B998810081A58100AA
S31560003810D9D08100A9CF8100E93B8200EDCF81003C
S3156000382065D1810079D1810051D0810065D0810058
S31560003830E5218200112282000354000061540000D9
S31560003840FD9C81009145820055AE820041B48100A5
S3156000385095BD8100F18A8200098B820079D9810049
S315600038607D618200CDA4820041918100A13F8200EA
S315600038703594820049948200898982005DC1820004
S31560003880F1C18200D13B8200D5958200E56081005E
S315600038900920820069FB0000BD3B820075A18200A1
S315600038A025A58200253B8200E93A8200753A8200AE
S315600038B0F1308200B130820071D781004599820073
S315600038C091D7810089948200DDC18200A96A820055
S315600038D0256B8200C944810029458100596B8100AE
S315600038E059498100EDAA810069618200AD24820098
S315600038F005368100D535810079D08100A5D081005B
S31560003900715C8100E1AD8100EDD0810049C9810023
S315600039104DD88100893D82004920820065968200EB
S31560003920F925820089CF8100856A8200159382001D
S315600039302D5D8200E9CA81006D408200613082009F
S3156000394015488200313C810061D68100114E8100AC
S315600039509133000041A1810015A68100099982007A
S31560003960E5C98100B1D7810035C08200294A81004E
S3156000397041AD8100EDBE82002DBE820005BE820093
S3156000398079BE820055328100A5958100B1598100CA
S31560003990E54781009152810015638100956481003D
S315600039A08D668100592C8100392C8100212E810081
S315600039B065358200D5578200352B8200996082007A
S315600039C0016182001D4082001D2082001DD8810099
S315600039D0A9AC8200F1AB8200F52B820041AE820079
S315600039E001080100356A810009AE8200696D8200B6
S315600039F0098C8100D58B8100116F810081908100D7
S31560003A00296C8200DDA18100E92B8100552F82009F
S31560003A10398C8100A55A8200355C820045BB8200E4
S31560003A2091BE81002D6E8100115C8200258A810025
S31560003A304D93810089388200D5378200555A8100BE
S31560003A40013882008D038100E9208200E13E820018
S31560003A50914581002D6D81000D58820021478200BD
S31560003A60FDCE810011CA810059368200E74C000004
S31560003A7025CB8100912E81002D2F8100B93A8200DD
S31560003A808DF60000DDA9810031D48100D1B38200BA
S31560003A90ADA98100D53882008DD88100555E82003F
S31560003AA0719A81001541820035DA810019258200FC
S31560003AB06926820035358100490D01003D7181001E
S31560003AC0012D810009A282000D238200FD71810013
S31560003AD0D96082005172810041618200452881006F
S31560003AE0C12382008D6C81006D2382009547810021
S31560003AF0B9D98100B534810075C98100F13481007E
S31560003B002DBF810059AF8200D93C8100494F8100A9
S31560003B10E5AB81003D0101007931810005958200A8
S31560003B20A94D0000DD938200A56682000DC8810064
S31560003B30095E81006D550000156281009159810012
S31560003B409950000011498100C1488100B9BF8100C8
S31560003B50A5458200F5598200F1A9820041A682003E
S31560003B6039588200BD428200BDA782004D22820084
S31560003B7071A78200A5A78200E15C8100ED41820009
S31560003B80D1A78200D1688100B5CC810015AF8200D3
S31560003B9095418100E1C8810089AA8100E99681008A
S31560003BA07D2F8100393900004942820059448200E4
S31560003BB0050D010031318200614982004D49820064
S31560003BC00DA58100095E8200253E8200CDCD810073
S31560003BD029B382002151810045B18200A91D82006E
S31560003BE079BC8200D1568100599D8100999D8100E2
S31560003BF0191C8200513F82001D308100C9BD8100C1
S31560003C0015388100794A8100DD9B8100199E81000B
S31560003C1069618100896E8100B5708100D132820050
S31560003C20F1578100593A00009D5A81003D35820066
S31560003C3089338200D96E810045708100FD61810003
S31560003C40594B81000D9C8100558B8200F18E82005C
S31560003C50E59A8100BD35820049368100291F8200C0
S31560003C60655C820021030100516F8100299B810000
S31560003C70A56D8100B5A28200E1AF8200A9568200DF
S31560003C80894481003D578200E16F8200016F8200A6
S31560003C90DD728200E53E810095518100FDD4810090
S31560003CA0F5BC810081B48100F199810019318100F0
S31560003CB0358A8200DDDA810091540000CF5500001C
S31560003CC0E9898200C1D48100FD8D820099B68100A8
S31560003CD0BDA781003D9F82005D0381006D928200D9
S31560003CE0218B8200599A8100ED278100ED94820034
S31560003CF0FD8A81009D8A8100416B8100E16F8100B0
S31560003D005D468200A19482009D898200C9928200EC
S31560003D1079998100B1908200219182001D348100E1
S31560003D2099B28200DD6A82008DC9810059278200BE
S31560003D30EB070100D9908100A56B82006D3C820083
S31560003D40E56D820005C28200C96A8100ED45820088
S31560003D50816B8100353F8200FD90820071BC8100DD
S31560003D60F16B81003D4E8200514A82003DA2810086
S31560003D708D0B0100F9570000B97E820069888200C8
S31560003D80695A8200DD2E810015138200117381004D
S31560003D90698082009D9181005D8B8100816C8200CB
S31560003DA08D8F81004D8F810009888100BD6D8200F5
S31560003DB0018E81001D5E820091718100C1278100A4
S31560003DC0797582002DBE81002D5B8200E9A5820097
S31560003DD0B572820029640000217D82004D808200D8
S31560003DE08D7F820001A08100ED7F82002D418100E0
S31560003DF0F98481006185820045728200F9548100F0
S31560003E00692B820069518100C55581003156810058
S31560003E10A1A6810071508100392A82006153810018
S31560003E20C5738100F96D0000F1978100A99B81003F
S31560003E30FD3B820025A08200DD398100715D810035
S31560003E404F0301004995810009CC810021A38200BE
S31560003E5045AA8100AD818200916782000D890000CC
S31560003E607D708200E12F8200E903810081DB8100A1
S31560003E70952482006989820089C38200C5C4820054
S31560003E80EDFA0000B1EB820009CB82000DCC820016
S31560003E9059EB820061E9820015F18200E9CD82006A
S31560003EA045DF820009F182008DF782008DCA8200AB
S31560003EB089F38200D5CA8200A1098300C9F782000E
S31560003EC0FDEF820099F8820025F9820039FA8200B6
S31560003ED089ED8200198C0000ADE5820065DA82000A
S31560003EE07DC582002DE68200018D000031E48200EE
S31560003EF0E5F182009DC8820055F38200C902010087
S31560003F0061C78200CDE182006DE18200A5E2820098
S31560003F1059DF820029F4820009C7820055EF8200CA
S31560003F20E9EC8200E10C0100BDDD8200E1C58200A2
S31560003F304DE5820005E08200A5F982000DC582008C
S31560003F40A1920000298E0000FD8E000091E682009D
S31560003F50BDCC8200FDE982008DD182002DF1820008
S31560003F602DF7820095FB820069CE8200A1F0820067
S31560003F70D5F08200F5CC8200AF8F000081D9820037
S31560003F8045C58200FDCB820025CB8200BDEB820059
S31560003F901DDB820015CD820041900000CDE68200D7
S31560003FA04DCF82009DCB8200450C8300E50D8300DA
S31560003FB0590E8300410E8300010B83004D0A830076
S31560003FC0D10D8300310C8300590C8300710A830084
S31560003FD0650E8300F10D8300410B8300A11E8300F3
S31560003FE0B11E8300012B8300F54E8300112B8300E5
S31560003FF0B127830099238300014A8300ED4983003A
S31560004000FD478300CD4C8300BD4C8300714C83001B
S31560004010D52783004D25830095258300E14C8300D9
S31560004020414C83000D08010065118300E144830063
S3156000403021288300BD2883007929830065288300B1
S31560004040652B830041458300D5298300491D830084
S31560004050A12A83005D30830051488300E5488300D0
S3156000406029488300F5238300114A8300793483004D
S3156000407091188300A5338300ED3483001D118300FE
S315600040809D4E8300954D8300B51A8300614783007A
S315600040901D4D8300ED1083000D458300C11E830016
S315600040A001208300E9218300F1258300F91D830047
S315600040B0150501001799000049108300C10F8300A0
S315600040C021248300A5248300B94A8300B52F830089
S315600040D0C1458300FD1C8300711D8300F5188300B4
S315600040E059198300F1198300F30A0100492A8300F4
S315600040F0A5118300B957830029578300654F830054
S3156000410001608300E559830039518300F54F8300D0
S31560004110555483001D5E83002152830065598300D8
S3156000412079508300714F8300095983003D63830092
S31560004130C5578300815C8300B15B8300DD538300D8
S31560004140115383009D4F830029508300254F8300C0
S31560004150D5588300CD62830039608300F95C8300A3
S315600041604D6183005D5F83002D548300DD508300C5
S3156000417039578300A555830091638300A16283004C
S31560004180C15D83002D5E8300455F8300A15183007E
S315600041901F0D0100195B83006D5A8300A9568300C9
S315600041A0A5508300095783000D748300DD63830087
S315600041B0297A830001668300B9B28300D5A783009C
S315600041C07D848300819383005DB38300A193830024
S315600041D0E99383004D0B0100719A000055A300001E
S315600041E0717A83005D67830051668300CD708300BA
S315600041F055718300DD7483008DAA830051A8830006
S31560004200A9B183009D918300D18483007B990000CE
S3156000421061848300AD77830081818300158283008A
S31560004220B1808300E5B583006D7E8300B579830038
S31560004230B19A0000916E8300758F83005587830065
S3156000424061060100459F000025678300C1888300E1
S31560004250D98F8300F5AC8300E97783009D6D830079
S31560004260A1A78300810D0100C9A483004DA20000AF
S315600042703F020100E58A8300CD6A8300F5868300EC
S31560004280596A8300B9AA83001566830051B2830018
S315600042909DB38300D9B6830059B1830091828300B0
S315600042A0D5B0830081868300C97A83000585830043
S315600042B0797C83008965830055A58300C9AF830037
S315600042C0DD0101007999830091898300C5B583007A
S315600042D00DB8830099D483002DC083009DC28300EE
S315600042E0ADC38300A1C68300B1C68300C5C2830087
S315600042F0A9D0830055BF8300F9CF830029BF83000F
S31560004300C5E18300C1C0830095C083004DD883009A
S315600043100DD7830015D88300F1D7830079BD83005C
S31560004320A1E1830035C28300C5E08300DDE0830040
S31560004330C5DC830099DA830001DA83004DB8830017
S3156000434075C0830019C28300F9C983003DD6830016
S3156000435015BE8300C9D683005DBA830029D6830063
S3156000436031B9830035BC83009DD883005DDC830052
S3156000437029C18300A9C28300E5C0830025DB8300D1
S3156000438075C283001DD083005DBC830061C6830057
S31560004390D5C2830005BC830001C98300B5C883000C
S315600043A0EDC8830055D6830015D98300A5D1830057
S315600043B0F1D5830001D9830081B8830089E0830049
S315600043C0E1BC8300A5DB8300EDE1830071C183005E
S315600043D0E9B783006DC783008DC183001DC8830064
S315600043E0B5D1830071DC8300E1C18300A9C183007C
S315600043F019DC830039D883004DCB8300A5B78300D1
S3156000440069CB83008DC98300C9D4830061AC000089
S3156000441099D68300E5DC83004DD483001DC38300F9
S3156000442021DD830045D983007DD383003DD283009F
S3156000443041DA8300CDD88300D9BF830095BD830060
S31560004440EDBD830051C083002DB8830049BB830056
S3156000445031BB8300CDDA8300D5D0830049CA83009F
S315600044609DD5830081BF8300D5CF83003DC983007E
S31560004470DDD18300B9D7830025C7830035A8000046
S315600044805DBE830021E18300F9E0830071B983009A
S315600044908DE1830025D9830049D78300DDDB830066
S315600044A0A9B98300A5A40000990C010059EB83000B
S315600044B0C5E7830041E2830025E283006DF5830052
S315600044C065EB830085F2830089F78300B1F2830090
S315600044D0A9F58300AD008400E100840019FD830026
S315600044E035EE8300FDF3830049B2000089FB83004B
S315600044F0B9FA830021F98300F1FA8300D9F88300C1
S31560004500D9F9830031008400C5FE830049E7830042
S31560004510050084004DFF83006DF3830059FE830020
S3156000452001FE830025EB83000DEB8300DFB1000005
S3156000453035FD830081EB830059FD830011F883000C
S31560004540FDF78300C5ED8300ADED8300A101840016
S31560004550E9E78300B1F38300DDF2830025F383008E
S31560004560F9E68300E5E2830059070100A5E98300C7
S315600045708DF5830051EE830079F8830071E2830044
S31560004580F1E8830045E6830099F783006DEE8300CA
S3156000459041F48300B9EB830075E78300B1E88300DB
S315600045A071B0000061F183004DFB000089EE83006D
S315600045B0A1B10000FDE58300A9FD83003D07010070
S315600045C0B5FB8300F1F183002D108400E1158400B2
S315600045D0B1198400C5158400D90F8400CD218400EB
S315600045E0491E84004D1F8400E1128400ED0884009A
S315600045F0F10184002D0F8400ED238400F51E8400F4
S31560004600E520840049208400AD128400F11A8400FC
S31560004610711F8400C9198400AD188400450B84009D
S31560004620910B84000D2484008D2384000D18840072
S31560004630210684008D168400310384006909840094
S31560004640FD158400E902840001028400A909840042
S315600046508D148400811E8400E10B8400751C840027
S31560004660AD0A840049108400712084000121840011
S31560004670850A8400291D840045078400390C84005E
S3156000468029198400551E840089038400E51D840071
S315600046902125840049138400291A84006D070100CE
S315600046A0ED12840045068400010D84008943840070
S315600046B06D2A8400014D84001528840069288400D1
S315600046C0F9F1000009408400112C8400F927840068
S315600046D0912D8400794C84008934840019338400D8
S315600046E06D2F8400C92D8400F12E84007D2E8400F8
S315600046F065258400DD348400FD2584001929840045
S31560004700B5408400D944840079298400B92B84009B
S315600047103D45840095328400B9288400D1388400F0
S3156000472031488400A93084006D2C8400994384004C
S31560004730D13284006D338400FD2F84005D45840092
S3156000474011348400B54A840075488400C5488400E5
S31560004750B1278400314A8400D949840059328400E3
S31560004760014C840039388400314D840055448400FE
S31560004770D93D840055438400513C840091398400BE
S315600047809536840091378400F5368400E1478400CD
S3156000479015478400CD4C8400F52B840025468400A3
S315600047A0E53A8400C937840049428400292A840096
S315600047B0A53F840059268400952A8400452B8400F1
S315600047C0C95D8400990F0100A15684009556840046
S315600047D019578400E956840005578400355F8400C4
S315600047E01D628400B557840065638400ED628400B1
S315600047F021638400BD628400194E8400B95384002D
S31560004800B15D8400B5518400D55F8400F95584009C
S315600048106560840059538400E5538400E94D840043
S31560004820C90F0100E15F84009D0F01006D0F01005B
S31560004830B55B840031568400A5638400CD60840036
S3156000484091638400ED5084002D5E840031518400B4
S31560004850155C840061548400F55E8400F15D84001B
S31560004860A51001007152840059588400815C84004F
S31560004870715784002557840071588400AD568400B2
S31560004880415984006D4F840029508400E1548400AE
S31560004890BD6184006D61840005598400A56684004D
S315600048A0D9678400456684000D658400916784003D
S315600048B0B96384005D67840079678400F966840063
S315600048C02165840021678400C56684008D66840046
S315600048D06566840011688400516C8400AD6E840046
S315600048E0016E8400F97084004D7F84007D6C8400C5
S315600048F02D748400456A84000D7B840011080100D4
S31560004900156E8400457A8400E56C8400456F8400EA
S31560004910D9C40000297E8400756D8400956B84007F
S31560004920B56D84007D7D84005D6B8400D56A8400EE
S31560004930816A8400B10D0100B1808400857E8400A7
S31560004940CD7F84004981840069818400ED8984007B
S315600049506D8A8400FD8984008D8984009D89840028
S31560004960E9858400F982840025858400518A840063
S3156000497075858400958484008181840071838400B8
S31560004980C18984005D898400D58984006D8984002D
S315600049907D8984000D8A840009868400798C840070
S315600049A07D8A84000D8B8400499484008D928400F6
S315600049B0E98D84009D8B8400FD8C84007990840051
S315600049C00D8C8400458C8400E9A68400A5AD840026
S315600049D029968400C598840015C1840009A98400BD
S315600049E099C2840045B7840031C18400D1B884007F
S315600049F08D998400B99A840025AC8400D9BF84005F
S31560004A00C9BE8400A196840025B18400519B8400B0
S31560004A10919884004D9784001D9784007DA684003C
S31560004A20D1B784002DAB84008595840019B08400CD
S31560004A30F5AD840029A98400C1A98400219F840062
S31560004A4025A28400B1AE8400C1AF8400D5A38400E2
S31560004A5075B7840041A28400E1BC84006DA884001F
S31560004A60BD9D840095B884005D95840075BE840004
S31560004A7051B98400A9958400C5C18400599A8400FF
S31560004A80419684003DB884009DA88400E5A8840012
S31560004A90A59B8400F5A684003DAF8400159A84002A
S31560004AA0F9988400EDA984006DB18400FDF084005E
S31560004AB025DF840025ED8400E5D08400CDF18400F7
S31560004AC009F2840035F2840055F28400CDF2840048
S31560004AD0B1D38400F5D384002DD48400C1D484007E
S31560004AE0A5048500F90585006D0585009904850096
S31560004AF08D04850079D4840045E88400B1C58400BE
S31560004B0095DF840031DF840075E484001DE0840055
S31560004B10BDC9840005ED8400A500850091FB840075
S31560004B20F9ED840091EF84009DFB840081EA8400A6
S31560004B3079E2840059C6840061EB8400A1EB8400AD
S31560004B40D1E484009D028500A1F3840015CC840025
S31560004B505DFB840081C5840015D5840099D68400E8
S31560004B6035E78400B9DF840045F48400B9C7840062
S31560004B7001DF84002D018500E1C7840025D1840012
S31560004B80CDF20000BDDD84004DF38400E1C98400F0
S31560004B9041E084002DCA84009DD4840005EB840026
S31560004BA0D900850079CB840021FC8400B9E88400B3
S31560004BB0B5D8840031FD8400BDFB84001D048500EA
S31560004BC05D04850031ED8400450685005DEC84005A
S31560004BD025C384001DF38400D9C684002DEC8400AF
S31560004BE06DF2000059E9840019C88400B1EF8400B1
S31560004BF0B100850049D3840001C98400E1D28400F4
S31560004C008DCB8400DDEB840011F4840009FC840004
S31560004C10D9F3840069C38400A1C884002DEE8400A2
S31560004C2071D6840079018500BDEE840025D88400A4
S31560004C30DDF9840009F0840035F78400C7F20000CE
S31560004C40D9FC840015D78400DDD584001DDE840080
S31560004C50D9F5840019F1840099F1840049F1840042
S31560004C60F1F48400A1F48400F1D084003DCC84008A
S31560004C7069D2840089E9840071CD8400C9D3840037
S31560004C808506850089078500E90685004D0785004C
S31560004C901107850025078500710685009506850044
S31560004CA0BD06850075078500B10785009D078500EF
S31560004CB0A9068500D1068500FD06850039078500B1
S31560004CC0610785005D0685001509850079098500FF
S31560004CD0350A8500BD0985000D0A85009DC5000061
S31560004CE0830701004D0A8500A9098500250985000D
S31560004CF0DD0A85006D0A850081088500C507850087
S31560004D000D0B8500590F8500ED118500C9128500D0
S31560004D1021108500F90D8500D5118500511085009B
S31560004D20AD118500011185006D10850075BB010010
S31560004D30850F850085108500990D85001112850007
S31560004D400D22850041178500D917850075208500DD
S31560004D507D2C8500352F8500B92285002D2585009F
S31560004D609D238500612F8500A5278500C92A8500BA
S31560004D706D2985009D22850031228500A524850048
S31560004D80E1238500B12F8500BD2C8500591485006F
S31560004D90C9138500A11C8500452C8500A9178500CF
S31560004DA0B1208500311A8500FD178500291D850013
S31560004DB021148500AD218500B5308500453185001B
S31560004DC035278500D1318500C5148500BD2D850048
S31560004DD02D23850059238500891485004D4685005D
S31560004DE06547850025368500514785003D46850027
S31560004DF08D3C8500514A8500994A85007547850036
S31560004E001D478500553685005D468500D53B850086
S31560004E1049498500D53A8500E139850041398500E3
S31560004E20E53885000937850045358500C93C85002C
S31560004E30754B8500B9458500ED488500214685009E
S31560004E40213A8500A940850001328500F53285004A
S31560004E50FD378500894E8500DD508500ED50850063
S31560004E605D57850009558500495085005D50850070
S31560004E70D1528500F5528500E54E8500C9558500FD
S31560004E8065568500C9508500094F85002BBC010019
S31560004E909D5585000D538500A94C8500B957850041
S31560004EA0A55785000D518500FD5A8500D5518500B1
S31560004EB0A9518500B15285009D53850039558500FD
S31560004EC09D4E8500C95785006D578500954C8500B8
S31560004ED0095785008D4F850063BC0100FD5985002B
S31560004EE0014D8500ED598500D9598500194C85001D
S31560004EF0756C8500816E8500516C8500295C850026
S31560004F00416E8500795E8500A30A0100AD6E85005D
S31560004F10B56C85006D6585001D5F8500196B850024
S31560004F208579850071738500B58E8500E19585006C
S31560004F3001828500519085002D828500D190850083
S31560004F40FD908500BD9285006D8F8500CD928500B0
S31560004F5055968500C58E8500857285005D8D8500B8
S31560004F6001838500C1918500257085000D918500BE
S31560004F70C17685006971850041718500F97F85007C
S31560004F8079708500F19385009D958500F57485009F
S31560004F90497485006D788500BD728500ED8A85004F
S31560004FA0C98C850099918500597D8500BD71850004
S31560004FB0758185000D818500A97985002177850039
S31560004FC02193850089928500D19485009596850008
S31560004FD065838500D973850065828500D5BC01002F
S31560004FE05975850021768500556F85006D9585001C
S31560004FF0E583850029848500AD8F8500F16E850087
S31560005000CF260100F91601005B230100672301002A
S315600050106D210100951B01005D1C0100051C01004E
S31560005020CD1B0100A11B01009B1B0100452901004E
S31560005030BD250100BD1A01001517010005290100F3
S315600050400D290100711A01004717010001240100B2
S31560005050451701008B2B0100FD2D0100F720010093
S31560005060851A010097250100932501007D25010021
S31560005070672101003F17010039170100ED28010083
S3156000508051310100B7250100E5280100FD1A010034
S315600050901D290100C1260100931D0100A91C010004
S315600050A07D220100951D01005D2201006322010041
S315600050B023290100052101008B1F0100351D010018
S315600050C0F1200100BF250100A9C60000E5C6000069
S315600050D021C700004DCA000065CF000035140200EC
S315600050E0CDCF0000D5CF0000D7D5000077D3000024
S315600050F073D40000EBD3000089320000D130000089
S31560005100A1300000C33000005D300000493000006F
S31560005110550C0100590C0100EB3200003B330000D6
S31560005120754C00006DF60000A13B00006BF60000B8
S3156000513065590000F9760000DD800000C56D00004D
S3156000514029EF000055EF000067EF000039F000001E
S31560005150470D01003DA500005DF6000059F6000010
S315600051604DF6000053F60000F7F1000065F600000A
S3156000517063F6000067F6000069F600004BF6000073
S3156000518051F6000057F600005FF60000C3B300005A
S31560005190AFB30000B5B30000B9B30000CDB30000F3
S315600051A0750C01007B0C01008D0C0100870C010061
S315600051B08B0C0100790C0100910C0100930C01002D
S315600051C08F0C0100810C01007F0C0100830C010033
S315600051D045F200005B0C01005F0C0100610C0100F0
S315600051E0650C0100670C0100690C01006B0C010085
S315600051F06D0C0100710C010087F6000083F600005B
S315600052007BF6000089F6000079F6000071F6000072
S315600052107FF600006FF6000073F6000085F600006A
S315600052204BF2000001000000200000001F0000009B
S3156000523050000000020000000100000001000000B4
S3156000524001000000000000005EBE01000A070800C1
S31560005250D11A020051FB8000C3300000C92F000044
S3156000526000000000D1F980000000000029FB8000EA
S3156000527000000000000000009C1800409600FFFF40
S31560005280FFFFFFFFFFFFFFFFFFFFFFFFFFFFFFFFC8
S31560005290FFFFAAAA0300409600000000000000007D
S315600052A00000000000000000000000000000000098
S315600052B00000000000000000000000000000000088
S315600052C00000000000000000000000000000000078
S315600052D00000000000000000000000000000000068
S315600052E00000000000000000000000000000000058
S315600052F00000000000000000000000000000000048
S315600053000000000000000000000000000000000037
S315600053100000000000000000000000000000000027
S315600053200000000000000000000000000000000017
S315600053300000000000000000000000000000000007
S3156000534000000000000000000000000000000000F7
S3156000535000000000000000000000000000000000E7
S3156000536000000000000000000000000000000000D7
S3156000537000000000000000000000000000000000C7
S3156000538000000000000000000000000000000000B7
S3156000539000000000000000000000000000000000A7
S315600053A00000000000000000000000000000000097
S315600053B00000000000000000000000000000000087
S315600053C00000000000000000000000000000000077
S315600053D00000000000000000000000000000000067
S315600053E00000000000000000000000000000000057
S315600053F00000000000000000000000000000000047
S315600054000000000000000000000000000000000036
S315600054100000000000000000000000000000000026
S31560005420000000002DE9F74FB1F1000B0446154668
S315600054309A464ADB438A818A5A444B439A4244DA03
S31560005440806808F04BDB00210190A06808F018DD49
S315600054504369064643F00043436100271DE01AF89E
S31560005460019B4FF0080801E0AF4218D019F0010F18
S315600054700DD02046314607EB0B02FEF305F730B13F
S3156000548073694FF0FF3023F0004373611FE001370B
S31560005490B8F101084FEA5909E6D1AF42DFDB73691B
S315600054A0A06823F000437361002108F059DCA0680E
S315600054B0012108F055DC20463146FEF3FFF2A06874
S315600054C0019908F0DDDC002001E06FF01C00BDE80A
S315600054D0FE8F2DE9F0411E460546884617461EF0AA
S315600054E0D9FD436841469C6928463A463346A047FB
S315600054F0BDE8F081407C704713B500F099D878B16B
S31560005500002409E0002201A9FFF352F7019803780D
S315600055102C2B08BF013001340378002BF2D100E058
S31560005520044620461CBD38B5B0F842300546B3B1D6
S3156000553040F2E93402E00A2003F03EDF2B6B1A6981
S3156000554002F07042B2F1005F05D0B2F1405F02D066
S315600055500AB1013CEFD11A6822F010021A6038BD18
S3156000556070B590F878310446FF2B1CD00E4D406A1A
S31560005570EB6E9847D5F89C50606AA84701280BD80F
S3156000558094F8141241B90B462046084A03F040DEEF
S31560005590012384F8143270BD606A94F80561A847E7
S315600055A0301884F8060170BDE0A685003D9880003D
S315600055B071B191F80832012B0AD091F875313BB17F
S315600055C04B691A6A034B134013B108460DF01CB9B8
S315600055D0704700BF00FC0101D0F8801110B5044689
S315600055E099B10223C068D4F8842108F027DB074B01
S315600055F01B6853B9D4F88011D4F88421E0684A4016
S315600056000223BDE8104008F0199B10BDBC0F0200D4
S31560005610F8B590F817320446012B74D0012380F850
S315600056201732002742E0A068314600F0A5DBD4F8C7
S31560005630F0301B68984205D928460021324600F0B2
S3156000564031DB41E02046FFF78BFF35690023AB7104
S3156000565094F8783131462B7294F8063184F8073124
S315600056606B72D4F8FC31606A0133C4F8FC316A7934
S31560005670254B82F08002D2095B6A9847B0B9D4F8AC
S31560005680F8206B797AB118070DD069782B78126992
S3156000569043EA01230F331B09190A18BF00239371CC
S315600056A094F878311372C4F8F8600127D4F8F030B2
S315600056B01B68012B08D904F128052846002100F053
S315600056C073DA06460028AED1002384F81732C4F890
S315600056D0F8302FB1636904225A64204607F060DF10
S315600056E0E38DD4F8C821934204D92069BDE8F84017
S315600056F001F0E69DD4F8CC21934204D22069BDE83E
S31560005700F84001F0CF9DF8BDE0A6850011F47C4F0E
S315600057102DE9F04104460D46564E66D011F4806878
S315600057200ED0F36D406A9847336B071C606A18BFEA
S315600057300127984710F1000818BF4FF0010800E0F4
S3156000574047462A050CD5F36D606A9847336B002887
S3156000575018BF0127606A9847002818BF4FF00108F4
S31560005760EB040CD5F36D606A9847336B002818BF5D
S315600057700127606A9847002818BF4FF00108A804FF
S3156000578004D5D4F838310133C4F83831690409D501
S31560005790D4F83C3101270133C4F83C31D4F83C31AC
S315600057A0D4F838312A0410D5D4F84031D4F8F4103E
S315600057B00133C4F8403131B1A068012204F0E0D869
S315600057C00023C4F8F4304FF001081FB9B8F1000F98
S315600057D003D10AE0B8F1000F04D02046002107F09B
S315600057E0BDDD17B1204607F007D9EB0102D520468B
S315600057F00DF00AF815F4903F12D1B36F606A9847BE
S3156000580070B905462DE0204607F008DAD4F8D8319D
S3156000581001359D4205D3236A43F48033236206E053
S315600058200025B36E606A984701460028EBD1D4F82C
S315600058300C0220B1037813B1002100F01FD8204676
S31560005840FFF78EFE94F8073194F806219A4208D045
S3156000585094F805219B1ADBB2022B02D8204607F08A
S3156000586007D9D4F8D801854234BF00200120BDE8AD
S31560005870F08100BFE0A685002DE9F04104460D46A3
S315600058801646984640F2E93702E00A2003F094DDB6
S3156000589063691A6D002A04DA013FF6D13846BDE81D
S315600058A0F081069A46443602B2F1807F46F00046A1
S315600058B003D12A7842F08072B6181E6540F2E93646
S315600058C002E00A2003F078DD63691B6D002B03DBC1
S315600058D02B700120BDE8F081013EF2D13046BDE873
S315600058E0F081D0F8943110B59942044603D80CF093
S315600058F08BFFE08D10BD002010BD0023C26B0AB186
S31560005900013AC2630133DBB21030102BF6D1704717
S3156000591003682DE9F74F012A14BF4FF02A084FF0AC
S31560005920320805460E4658684146914604F058D8F6
S31560005930074648B92B684FF0FF301B68D3F88C30A8
S315600059401A6D01321A6564E006F10E0B5946046958
S31560005950042201A8FFF340F1019A4AF6FE1312BA37
S31560005960B3EB124F0CBF2C4906F108012046062204
S3156000597005F1280AFFF330F1A01D51460622FFF318
S315600059802BF1B9F1000F0ED00023237384F80D803C
S3156000599004F10E0021490622FFF31EF10823237548
S315600059A00623637503E00823237306236373A8F154
S315600059B01C084444314606222046FFF30DF10023BD
S315600059C0A3710223E3715146062204F10800FFF336
S315600059D003F106F11801042204F10E00FFF3FCF056
S315600059E006F10801062204F11200FFF3F5F05946AC
S315600059F0042204F11800FFF3EFF0D5F85C31286853
S31560005A000133C5F85C313946D5F8682125F0FAD9F5
S31560005A100120BDE8FE8F00BF2C9E850014D2850054
S31560005A2010B50368D3F800481B6893F8AB306BB1C8
S31560005A30FFF763FF08E0A16829B1012000F080FA52
S31560005A4008B1FFF75AFF2468002CF4D1002010BD7E
S31560005A50F8B5066805460F4670684FF4BC7103F0EA
S31560005A6067DF044688B100214FF4BC72FFF318F17A
S31560005A70D5F860312660C4F8603195F86431C4F8B1
S31560005A80687184F864316B6863602046F8BD0146CE
S31560005A9028B103684FF4BC72586803F0599F704789
S31560005AA0F8B5C36805460E4658683821174603F0B0
S31560005AB03FDF044600282BD000213822FFF3F0F0A8
S31560005AC00123314623606360A360062204F10C0063
S31560005AD0FFF382F0738E06F10901A374337A04F141
S31560005AE01400E374327AFFF377F0768D2846A68643
S31560005AF0E7862146382221230BF082DD50B1EB6820
S31560005B0021465868382203F023DF4FF0FF30F8BD96
S31560005B106FF01A00F8BD000070B50D460380194697
S31560005B2090F8CF3090B01446174E4FF0FF32009584
S31560005B307BB902920392049205920C22019306931A
S31560005B400793089309930A960B900C920D930E9304
S31560005B5012E05BB2002502920392049205920793CB
S31560005B6000F1D0020C2301950692089509950A96D4
S31560005B700B900C930D950E95044A2346C06823F04E
S31560005B80EBDF10B070BD00BF75F500002C9E850080
S31560005B901FB5836D0446012B16D1B0F85831DB076B
S31560005BA012D4C36893F8703273B902AA03A901AB21
S31560005BB00CF0CBFA029A3AB120460399019BFFF7A3
S31560005BC0ABFF08B90223A3651FBD08B5B0F858211D
S31560005BD069B142F00102A0F85821826D022A12D101
S31560005BE0C3680C21D3F8680151F012DB0BE0D107D2
S31560005BF009D522F00102A0F85821826D1AB101225E
S31560005C008265FFF7C5FF002008BD704710B50C46DA
S31560005C1041B18B6823B9C06F0968FFF719FFA060AF
S31560005C20A06810BDC06F10BDF8B58C690B462169C0
S31560005C308B4203D0DD6A15B12F6801E000252F463F
S31560005C4063681146D86803F0B9DEA36806461B6828
S31560005C5093F895301BB1C38A43F08003C3826368AF
S31560005C6093F8AB308BB120462946FFF7CFFF60B182
S31560005C7031460AF0BDD8022807D163683146D86834
S31560005C80012203F07DDE0120F8BDA06831463A4668
S31560005C9025F0B8D8003018BF0120F8BD08B5806877
S31560005CA000F062FC002008BD10B50446FFF7F6FF61
S31560005CB0A068BDE8104003F053BD000038B5054646
S31560005CC06B6880681B7EB3B902F0FEFA044620B9A1
S31560005CD0D5F880000AF05CFC044609F0B9FE6B68F2
S31560005CE0D3F89C1041B10B7833B1044B002218688D
S31560005CF0FFF3CAF500E00024204638BD3C100200E0
S31560005D0010B5436804461B7E53B1D0F880000AF094
S31560005D1054FCA06805F0ABFC6368002283F8202081
S31560005D2010BD08B58069FFF7EBFF002008BD0000D5
S31560005D301FB5084A03460092074A08460192074A79
S31560005D400749D26902921A68064BFFF315F205B04D
S31560005D5000BD00BFEFC10100B4C101001810020010
S31560005D60C0C10100E3C101002DE9F84304460846BD
S31560005D7015460DF005FC014610B9D4F8109001E007
S31560005D80D0F80490A268D9F8247012682B6992F84A
S31560005D9095201AB1EE8AC6F3C02609E01E7B5B7BAE
S31560005DA043EA062648F66C03F31A5E4246EB0306A0
S31560005DB0D6B9636893F8AB30CBB12046FFF726FFC0
S31560005DC0A8B1294609F006DF042801D0012804D1CC
S31560005DD063682946D86800224CE0A0F1050CDCF126
S31560005DE0000848EB0C0803E04FF0000800E0B046FE
S31560005DF0636893F895301BB116B9AB8A2D33AB82C5
S31560005E00002F33D006BBFB69D8070BD5637D4BB13A
S31560005E10204629460CF0F2DB20B963682946D8682B
S31560005E20324627E0B8F1000F0ED1636893F89630DA
S31560005E3053B1D4F8840029460DF0D3FA20B96368CB
S31560005E402946D868424615E063682946D86803F053
S31560005E50F1DD3B690446DB68484639462246984789
S31560005E6060B12046BDE8F84303F0209D636829468B
S31560005E70D8683A46BDE8F84303F0829DBDE8F883EA
S31560005E804A6A08B542F4801291F843304A62D0F803
S31560005E90882003F00703D31893F88020013283F833
S31560005EA08020D0F88830012283F88620D0F88830A8
S31560005EB093F8811093F87B20914211D293F8801069
S31560005EC093F87A2091420BD293F8821093F87C2053
S31560005ED0914205D293F8832093F87D309A4201D39C
S31560005EE00DF034D8002008BD73B51446054611463A
S31560005EF0406FFFF78AFE6368112B08D0122B01D022
S31560005F00102B1CD1A37803F001032B7517E002AAAE
S31560005F10002342F8043DA86894F82F103BF0DEDFBA
S31560005F20064660B1837923B96188C1F3800126F0A2
S31560005F3097DFB3791BB1A86831460BF05CFF7CBD77
S31560005F4001280CBF886800207047642911DC63292A
S31560005F501EDA4A291CD006DC07291CDB082917DD56
S31560005F603C2918D114E0502912D014DB5C3903297E
S31560005F700DE0C32904DCC2290ADAA839022906E041
S31560005F80B1F5847F04D006DBA1F58971012902D8B9
S31560005F906FF01600704700207047C88810F0080040
S31560005FA018BF6FF0160070474FF0FF3310B5A0F8BA
S31560005FB03C32044600F50E70063000210C22FEF3DA
S31560005FC06FF623685B6B23B94FF0FF33A4F840325A
S31560005FD00BE00F23A4F83E32F023A4F840324FF4CE
S31560005FE07063A4F842324FF20003A4F8443210BD45
S31560005FF02DE9F04F87B017460393D2F81080694BAE
S315600060005268DDF840A0134083460D460E69002BAA
S3156000601014BF4FF00C094FF00A09BAF1000F04D013
S315600060209AF90E3099441FFA89F9AB8AC9EB0604CE
S315600060304B44AB824A462C6120460021FEF330F683
S31560006040129B09F10E09A3F8009098F80630FBB18F
S3156000605031460622201DFEF3BFF504F10A0008F161
S31560006060BC010622FEF3B8F5BAF1000F04D17A68D6
S315600060704C4B1340002B3FD0B11D062204A8FEF303
S31560006080ABF504F1100004A90622FEF3A5F533E092
S3156000609098F81230201DE3B1D8F8CC301B0618D41E
S315600060A008F1BC010622FEF397F53146062204A8E4
S315600060B0FEF392F5B11D062204F10A00FEF38CF59B
S315600060C004F1100004A90622FEF386F54FF48076EB
S315600060D014E031460622FEF37FF5B11D062204F177
S315600060E00A00FEF379F504F1100008F1BC010622FE
S315600060F0FEF372F5002601E04FF400767A68294BCC
S31560006100134053B39DF84430696A03F007034805AA
S31560006110ADF816300FD49BF8F821012A05D141F469
S315600061208021696243F0200303E0520102F06002BD
S315600061301343ADF816306B6A590605D5BDF81630AF
S3156000614043F08003ADF8163004F118000DF1160126
S315600061500222FEF341F546F08006BAF1000F0FD039
S315600061607A68104B134013B904F1180301E004F187
S315600061701A030122009258464146524644F0F2DA2A
S31560006180039B46F0080613B146F48066B6B2BAF1D0
S31560006190000F01D046F480462680204607B0BDE851
S315600061A0F08F00BF4000018038B50446D4F87415FE
S315600061B080680CF083D8D4F8F816D0F10105A06891
S315600061C038BF00250CF07AD800B90135A068D4F83C
S315600061D0FC160CF073D800B90135D4F8E036A06827
S315600061E0196A0CF06BD800B90135D4F8E036002294
S315600061F0DA60A068D4F83C150CF060D800B90135B7
S31560006200A068D4F894170CF059D800B9013528461F
S3156000621038BDD0F8403570B55C8E054604F44063F1
S31560006220B3F5406F21D1036893F846309A070BD0D7
S3156000623004F47041A1F58053594241EB0301D0F853
S315600062405C0142F067DE80B92046FFF31BF640F43E
S31560006250306086B22046FFF315F60E288CBF4FF4E9
S3156000626080504FF4005046EA000404F470422B6BF1
S31560006270A2F5805CDCF100025B6842EB0C029A429C
S3156000628005D0D5F85C01012142F068D90446D5F8FD
S315600062905C01214642F0B2DE98B904F47044A4F57C
S315600062A0805EDEF1000444EB0E040E3455F82430B3
S315600062B02E6BD5F85C012B63012142F04FD92E631A
S315600062C00446204670BD072A01DD4A680AB9026B9A
S315600062D01268032A06D0511E01290DD8016B096880
S315600062E08A4209D19DF8001011B190F8291031B198
S315600062F043B11A60002070476FF00C0070476FF072
S315600063000A007047184670472DE9F04F89B00023A0
S315600063100F46179905460592149C159E069307939A
S31560006320DDF848B0DDF84CA03BF094DE05990490AA
S3156000633001F001082868394622463346CDF80080C8
S315600063401FF0F2DD8146002840F0DC80B7F90630A8
S31560006350002B1BDAB9883A89B8F1000F09D0169B71
S3156000636049000393009601940296286901312346F9
S3156000637008E0169B28690393CDF800A00194029665
S3156000638049005B4639F01CDA8146BBE0BAF1030F7F
S315600063900DD9042206A85946FEF31EF4BAF1070F7A
S315600063A005D907A80BF104010422FEF315F405993B
S315600063B0069B8A1E1F2A00F29D80DFE812F02000ED
S315600063C02200240028002C002E00360038004A00E7
S315600063D04C00510053005500570059005B005D00AA
S315600063E09B009B009B0063006500760078007C0044
S315600063F07E00830085008A009B0095008C00434BDD
S3156000640002E0424A63E0424B1B6823607AE0002B5D
S3156000641073DC3F4A04E03F4BF6E7002B6DDB3D4AF9
S3156000642013603D4B00221A606CE03C4BECE71BB1FD
S315600064303B4A1268002A60D0384A1360394A002302
S315600064401360394A1360394A13604FF0FF32384B94
S31560006450E9E7334BD8E7324A1168002937DC4CE06C
S31560006460344BD1E7334A32E0334BCDE7324A2EE044
S315600064702C4BC9E72B4A2AE0D5F86C32D3F8D832D0
S315600064809B68C2E72D4BBFE72C4A1360002B39D0BF
S315600064902B4A00232B4913604FF0FF320A602A49CA
S315600064A00A602A4A13602A4A11E02A4BACE7002B9D
S315600064B023DD284A0BE0284BA6E75A1E092A1CD87A
S315600064C0254A04E0254B9FE7002B16DD234A13601F
S315600064D018E0234B98E704998A798AB90033214AF0
S315600064E018BF012313700DE0049A937943B91D4BCD
S315600064F01B788AE76FF0160904E06FF01C0901E06B
S315600065006FF00609484609B0BDE8F08FFC0F02003F
S31560006510EC0F0200F00F0200C80F0200D40F020059
S3156000652010060200E80F0200E40F0200E00F02000E
S31560006530C40F0200FC05020014060200CC0F020024
S31560006540F40F0200F805020004060200DC0F0200E8
S31560006550D80F0200000602000C060200F4050200D5
S31560006560D00F0200C00F020038B50025044680F83F
S31560006570E85126F013D8E36A2946986A8022FEF32A
S315600065808FF3206906F070FED4F840012BF0FADE36
S31560006590C4F8885638BD00002DE9F8439846536A1A
S315600065A00E469905044615469DF92090176909D54A
S315600065B0136BA7F842301B0CA7F844303B8843F4B2
S315600065C000533B8022686B6B92F844209AB1E26A72
S315600065D002EB4602B2F91C206AB963B11A69D2F8B5
S315600065E0D42292F89D20032A05D9D4F86401314655
S315600065F02A463EF0F7DC042E1DD12368B7F84C70AE
S3156000660093F838303A46C3B1284613F07BD804EB8A
S315600066108000D0F84C32D3F85825A3F8C870013200
S31560006620C3F85825D3F86035D9698A4288BFDA61DC
S315600066301A6A01321A624FF6FF72B8F1000F07D07C
S31560006640E36A06F10C0103EB41039988494499809A
S315600066504FF6FF739A4203D02069A8213AF02AD9EF
S315600066602369294603EB8603D8680D4B42465B6A6D
S315600066709847002812DA0B480CF0FCF80A4B1A68A7
S3156000668001321A60B8F1000F08D0E36A0C3603EBEA
S315600066904606B388C9EB0309A6F80490BDE8F883FB
S315600066A0E0A68500BC568600F80F020019B1406866
S315600066B0302203F04D9970472DE9F04F8BB00027DB
S315600066C0DDF854A0DDF85CB00446884615461E46E3
S315600066D00897D4F8B434DB19186A18B1414611F03A
S315600066E0B3DE28B9343740F2AC439F42F1D181E042
S315600066F006900DB9149D5646069A13891BB1082B50
S315600067000CBF534604230793069BB3F804909DF889
S3156000671058304FEA49090BB109F10109374841463A
S315600067200722FEF355F3002841D1032E02DC6FF0F9
S315600067300D0361E02946042209A8FEF34DF22046C6
S31560006740099908AA3BF0CADB8346E8B9089B1E3361
S315600067501AD119F0010F17D0012300935A465B46F0
S31560006760204609993BF054D8834618B96FF01A034E
S31560006770089309E0204659463BF034DD089018B18D
S31560006780204659463BF088DC089B002B2ED11B48DF
S31560006790FEF316F30435043E19F0010F804404D06D
S315600067A0149AAAF1040A04321492DBF808B0D4F8F9
S315600067B0B4348DE86000DF19079A149B0492029343
S315600067C0CDF80CA0CDF814B0FD6A786A06994A46F1
S315600067D04346A84719F0010F089007D0204626F0D7
S315600067E085DED4F8E4310133C4F8E43108980BB09F
S315600067F0BDE8F08F6FF016030893F7E76F598600D0
S315600068002DE9F04F0E4604461169D2F87C019FB01F
S31560006810D6F810B0139307900C919146BBF8002000
S31560006820606802F00C039B08022B0F930CBFC2F347
S31560006830C0130023DBB231462C9FDDF8B4800E9284
S315600068401493FFF317F304300A9087B13B7A0B2B4E
S3156000685008D194F8F03753B194F8F1373BB1BB796E
S31560006860072B04D80A9897F90F30C0180A90D4F805
S315600068708831002B19DADFB13B7A022B1AD194F8F2
S31560006880A024D2B90C998B6D13F0080316D1BA798E
S31560006890292A15D8032A13D90B2A11D8299A012A2D
S315600068A00ED10A9B08330A9308E00020089008E09E
S315600068B0089706E00021089103E00022089200E0B4
S315600068C0089335690021AB1F1593B38AA5F176004D
S315600068D07633B382702230611290FEF3E1F1736A0F
S315600068E05B0501D5338D22E0D9F80420944B134023
S315600068F0BBB10E9901F0FC03882B12D19BF80430D2
S31560006900D8070ED42998F28A411E02F00702289809
S315600069105C3209EB42028842D38808D1591CD18087
S3156000692005E00F99012908D14FF0000A10E00F9A8F
S315600069304FF0000A012A03D10AE04FF0100A002343
S3156000694028981B019BB200F00F021343ABF8163078
S315600069502A99042907D120460C99129A0EF080DDF7
S31560006960ADF8720019E02898B4F8463500F00F02C9
S31560006970299842EA0312411E289892B2884202D1AF
S315600069800133A4F846352A99520147F6E07313405D
S3156000699001F007021343ADF8723099F8DF3023B97E
S315600069A00E9A02F0FC03802B01D14AF0200A654B57
S315600069B008EA030323B1CDF86C80CDF868800EE059
S315600069C00F9B012B05D9736A002B02DB13F01003B2
S315600069D007D099F8483003F07F031B931A9300237E
S315600069E038E0206B5749826C114019B19BF804104E
S315600069F0C90708D49BF8043013F00103E9D1426C4F
S31560006A005049114011B11B921A9223E01BAB0093BF
S31560006A100DF1760301930DF1770302931DAB03939A
S31560006A2049460DF172021AABD4F860014EF072DF7E
S31560006A30736A43F000627262BDF87420D10704D5B0
S31560006A4043F0006343F4005373622898D0F1010366
S31560006A5038BF00232268D4F8600692F8462090F882
S31560006A600AC012F003021A9900F0328111F0006F29
S31560006A7001F07F0204D0072A08D9202A2BD105E02D
S31560006A80DFF8C4E01EF90220002A24DA4A0001D4A5
S31560006A90002920DB21F4401222F4605209011A9287
S31560006AA016D58178012913D9216B91F94D100129E9
S31560006AB009D0D9F804E01EF0804F09D0013107D122
S31560006AC0017B490704D542F4801242F4805201E00A
S31560006AD042EACC221A921B9911F0006F01F07F02F4
S31560006AE004D0072A06D9202A33D103E016488256F5
S31560006AF0002A2EDA1A9A500001D4002A29DB21F4E2
S31560006B00401222F4605209011B921FD5D4F8601618
S31560006B10887801281AD9206B90F94D00012809D090
S31560006B20D9F804E01EF0804F10D001300ED1097BF9
S31560006B3048070BD542F4801242F4805208E000BF49
S31560006B40400001807F000008401B860042EACC229C
S31560006B501B92B4F8282602F44062B2F5406F2DD13C
S31560006B60226B106905930DF04BFE1A9A00F4407083
S31560006B70B0F5007F14BF0220032012F0006F059B62
S31560006B8002F07F020DD0202A29D094F9CA24511C24
S31560006B9001D0069010E0D9F804200690120321D4A3
S31560006BA024E09E4906908A56002AB4BF94F9C92407
S31560006BB094F9C824511C19D090B217E01A9A02F0C1
S31560006BC07F02202A04BF4FF000621A921B9A02F0DD
S31560006BD07F02202A08D14FF000621B9204E00690E3
S31560006BE0052003E0042001E002200690DDF86CE059
S31560006BF01A9A000222F4E0621EF0006F40EA020276
S31560006C0008BF06982EF4E06114BF014341EA0021F3
S31560006C1012F0006F1B911A9294F8DC1104D00129CE
S31560006C2002D142F4000202E011B922F400021A9283
S31560006C301B9A94F8DC1112F0006F04D0012902D17E
S31560006C4042F4000202E011B922F400021B924946A6
S31560006C502046059311F094DE1A9A059B12F00061A6
S31560006C6021D0D4F8581691F9051002290DD102F4F5
S31560006C70E0684FEA1828A8F10408B8F1010F8CBF44
S31560006C804FF000084FF0010801E04FF000081102D4
S31560006C900CD502F07F02072A0AD9202A14BF0246C1
S31560006CA00422099206E00991884603E0099001E012
S31560006CB0042109911B9A12F000611DD0110218D5AA
S31560006CC002F07F02072A16D9202A08BF042010E0A6
S31560006CD01B9821F4E06120F4E06040F4007041F418
S31560006CE000711B9002201A9106900D9209929046AF
S31560006CF003E00D9001E004210D918BB10C9A1A9975
S31560006D00D2F81033299802EBC302C2F81413C1B249
S31560006D10C2F8181301330C9903F03F03C1F810331E
S31560006D20079A002A3FD0D4F80CE0D2F804340799C9
S31560006D30DEF8802103F1400001EBC000DEF884C17B
S31560006D40426001EBC302C2F808C2F28A344902F01B
S31560006D5007028A5C022A14D1079A4168D2F800E0D9
S31560006D60299802EBCE02C2F804111A990EF1010EAF
S31560006D705160C1B291600799C2F808C10EF01F0256
S31560006D800A601A99079803F1810240F8321000EB05
S31560006D90C30229980133C1B2C2F80C14079903F0F3
S31560006DA03F03C1F804341A9B13F0006E1FD003F43E
S31560006DB0E0604FEA102013F4000F1A4A03F07F01D7
S31560006DC0A0F1040008D001284FF0140000FB012256
S31560006DD094BFD26892680CE001284FF0140003D883
S31560006DE000FB0122526804E04143525801E003F07F
S31560006DF07F020F981192022800D0A8B9B4F83826FD
S31560006E000A99914203DC726A12F080620DD09BF897
S31560006E10042002F0010282F0010206E0401B8600B7
S31560006E20C4D285008418860000221092226B527D9F
S31560006E3062B1D4F85816097841B1BEF1000F05D198
S31560006E40944803F07F01415600290CDB216891F8D4
S31560006E50461089072ED0BEF1000F2BD0D4F85816F5
S31560006E6091F9051031B32998012812D9D4F858360A
S31560006E701B780BB1162300E030231B93736A0699C7
S31560006E8023F0006373621B9B43EA01231B931A93EF
S31560006E9010E07AB1D4F8582612785AB1BEF1000FD4
S31560006EA008D17C4A03F07F03D35638EA230828BF0B
S31560006EB04FF001081A9911F0006315D101F07F02B5
S31560006EC0162A11D8744890400ED5139840B1022AFC
S31560006ED009D094F95C2612F1FF3218BF012200E056
S31560006EE0139A099200E009931B9A12F0006E16D16C
S31560006EF002F07F02162A12D8674890400FD5139881
S31560006F0040B1022A09D094F95C2612F1FF3218BF0B
S31560006F10012200E0139A0D9201E0CDF834E00F985B
S31560006F20D9F80420022808BFC9F8601112F480322B
S31560006F3031D094F8CE2172B394F8D1215AB3D4F8F3
S31560006F40582692F90520032A27D04BB901F07F0213
S31560006F50022A27D0042A25D00B2A23D0162A21D02C
S31560006F609BF8043013F0010319D10E9800F0FC026F
S31560006F70882A17D1736A4AF4A04A43F4805373622D
S31560006F80BBF81830012223F060031B041B0C43F08E
S31560006F902003ABF81830079205E0002302E00020DA
S31560006FA0079000E0079320460A9A159B19F084D94A
S31560006FB016AB20461B990A9A19F07ED90622A5F1CE
S31560006FC0400016A9FDF308F61B9B18010CD403F0CC
S31560006FD07F03162B08D8304A9A4005D50A990B0AC2
S31560006FE005F83C1C05F83B3C736A590510D51A9A9E
S31560006FF012010DD517B13A7A042A09D143F4006318
S315600070007362109A94F8C334002B18BF0122109251
S315600070101A990B010AD41F4A01F07F03D356002B3D
S3156000702004DA15F8063C03F00F0301E015F8063C98
S315600070300E980B93A4280DD09BF80430D80709D47A
S31560007040079A4AB9099A2B9B20460FF0D7DBABF813
S31560007050020013E0079B4BB1099A204640F62A13BB
S3156000706018F0C0DE80B20230ABF802000E98A42899
S3156000707004D1BBF8023025F83A3C17E09BF804309F
S31560007080D90701D4079949B1002305F83A3C05F8B8
S31560007090393C0BE0401B8600000210281B990D9AB4
S315600070A02B9B20460FF0AADB25F83A0C736A9A05EB
S315600070B007D5326B4AF4005A25F8342C120C25F8A1
S315600070C0322C289A0AB94AF0080A9BF80420D0079D
S315600070D00FD4D9040DD494F8D0210AB15A0608D435
S315600070E0580504D4149810B194F8F8210AB94AF0F6
S315600070F0010A0F99022911D194F8CE2172B1119A21
S31560007100042A0BD9A44A2A98125C04EB4202B2F80C
S31560007110FE210AB1590501D54AF4805A236B1869D4
S315600071200DF06EFB089900F44060B0F5406F08BF43
S315600071304AF4807A09B14AF4004A25F876ACEFB190
S3156000714094F8A03403BB0C98826D12F0080217D134
S315600071503B7A0B2B08D194F8F0378BB194F8F13762
S3156000716073B1BB79072B0DD8BB79292B0CD897F84F
S315600071700CA00AF0070A4AEA031A07E0BA4605E0D5
S315600071809A4603E0924601E04FF0000A736A0D9951
S315600071909A0044BF4AF0080A1FFA8AFA4B1EDBB20D
S315600071A0012B9CBF4AF4005A1FFA8AFAA5F17200B5
S315600071B059460222FDF310F5002305F8703C05F8E8
S315600071C06F3C05F84A3C05F8493C002F43D094F8DB
S315600071D0A034002B3FD10C9A936D1B073BD43B7AAE
S315600071E00B2B0AD194F8F027002A34D094F8F127B3
S315600071F0002A30D0BA79072A2DD8BA79292A2AD80E
S315600072000E9800F44072B2F5407F149A14BF0BF1E9
S3156000721018010BF11E0102B10231022B10D1129B33
S3156000722000203A18B2F8BC2002309A75C2F30722E1
S31560007230DA7502330A28F4D1A5F15600032208E074
S315600072400B2BA5F1600002D10231102201E097F903
S315600072500E20FDF3C1F40BF104031946A5F15000AD
S3156000726006220F93FDF3B8F4BDF8723025F82A3C78
S31560007270002305F8283C05F8273C05F8263C05F868
S31560007280253C05F8243C05F8233C05F8223C05F826
S31560007290213C05F8203C05F81F3C109818B9B8F158
S315600072A0000F01D10BE198460022069B1A992046F1
S315600072B022F0F2DB1B9908900022069B204622F002
S315600072C0EBDB0899069011F00061119107D1089ADD
S315600072D002F07F03314AD256002A21DA2DE008985F
S315600072E0089B00F4E06113F4000F4FEA11212C4B68
S315600072F000F07F02A1F1040108D001294FF01401CA
S3156000730001FB023394BFDB689B6809E001294FF0FB
S31560007310140103D801FB02335B6801E04A439B58C2
S31560007320023B18BF012353B194F95C36012B08D098
S315600073304AF4804A1FFA8AFA01210C9103E00C9301
S3156000734001E000220C92069B13F0006206D11349FD
S3156000735003F07F03C956002926DA39E00698104BF8
S3156000736000F4E0614FEA112110F4000F00F07F0293
S31560007370A1F1040108D001294FF0140101FB023389
S3156000738094BFDB689B680FE001294FF0140109D8B0
S3156000739001FB02335B6807E098E08500401B8600CE
S315600073A0841886004A439B58023B18BF012363B189
S315600073B094F95C36012B0AD06FEA4A4A6FEA5A4A58
S315600073C001211FFA8AFA0E9103E00E9301E0002272
S315600073D00E9235F8763CB8F1000F02D043F40063A4
S315600073E001E043F0060325F8763CB8F1000F0CBFC8
S315600073F014270E273A4620460899A5F11E0318F071
S315600074005BDF3A4618AB2046069918F055DF18A997
S315600074100622A5F14800FDF3DFF30C9B09980A9953
S315600074200022009301901A9B029103924146089AAA
S31560007430204618F061DF25F8160C0E9B0D980A9908
S31560007440002200930190029103921B9B069A2046AC
S31560007450414618F051DFA5F1180725F8420CA5F151
S315600074601400B8F1000F0AD06FF03B0305F8183C22
S31560007470002305F8173C0BF10A01062207E06FF0BE
S315600074804B0305F8183C05F8178C0F990C22FDF391
S31560007490A3F30B98119A81B25AB90898A04A00F0E2
S315600074A07F03D356002B04DA15F81E3C03F00F0356
S315600074B001E015F81E3C1B0219430B911EE0414684
S315600074C00622A5F11E00FDF3EBF341461022A5F15D
S315600074D01800FDF3E5F3A5F1480041460622FDF3E9
S315600074E0DFF3474605F8428C05F8418CCDF81880E5
S315600074F0CDF82080CDF83880CDF83080736A580595
S315600075000AD51A9A110107D5D4F8400149460A9B53
S315600075102AF066DD05F8430C25F874AC0B9925F85E
S31560007520641C1B9B13F0006102D094F8C01407E042
S3156000753003F07F03162B02D87A4A9A4000D40121C1
S31560007540089A89B212F0006A04D094F8C0A44FEA8F
S315600075508A0A0DE0089800F07F03162B02D8714A5C
S315600075609A4001D44FF0010A4FEA8A0A1FFA8AFA52
S31560007570069A4AEA010112F0006A04D094F8C0A49F
S315600075804FEA0A1A0DE0069800F07F03162B02D820
S31560007590644A9A4001D44FF0010A4FEA0A1A1FFA68
S315600075A08AFA236B41EA0A0A18690DF029F9C0B212
S315600075B04AEA002A25F862ACDDF868B01BF0006A7A
S315600075C002D094F8C0A40AE00BF07F03162B02D811
S315600075D0544A9A4001D44FF0010A1FFA8AFA09996F
S315600075E04B1EDBB2012B07D823684AF0100AD3F88A
S315600075F08C309A6901329A615946204615F0EED868
S3156000760040EA0A0025F86E0C594620461FF01ADC3F
S3156000761025F86C0C1B9920461FF014DC25F86A0CC3
S31560007620109A12B9B8F1000F0BD0089920461FF0D6
S3156000763009DC25F8680C069920461FF003DC25F85E
S31560007640660C1A990B0108D5099B042B05D10A9A79
S31560007650204618F079DC25F8380C1B99080108D506
S315600076600D98042805D10A9A204618F06DDC25F895
S31560007670360CD9F804305A0640F1B98014990029BD
S3156000768000F0B580284B2A9A9B5C0F9304EB43036A
S31560007690B3F8FEB1BBF1000F00F0A980736A1093D6
S315600076A05B057ED4289800287BD11A992046099AD2
S315600076B00A9B0B9118F096DB824697B108990C9A53
S315600076C020460EF05DDE069903460E9A2046059327
S315600076D00EF056DEB7F80280059B35F8427C98447A
S315600076E01CE0079A12BB0B99099A079B20460FF07C
S315600076F085D8DDF86CC00D9A61460A9B00EB0A08D6
S315600077002046CDF814C018F06DDBDDF814C00746CE
S31560007710614620460D9A079B0FF070D8C71906E0A0
S31560007720401B86000002102898E085008046CAEB60
S3156000773008039B4525F8708C25F84A7C24D3109B5A
S31560007740580602D52A9801281ED0DA4420460B999D
S31560007750099AC8EB0A030EF01BDEFF2805D9B4F8B8
S315600077602A36984228BF184601E04FF480702A995D
S3156000777080B201F5457304EB43039A88824203D0D5
S315600077809880204625F0B2DE236893F84430002BBB
S315600077902DD02A9A032A2AD8D4F864010F99424632
S315600077A022E0236893F844300BB32A9B032B1ED840
S315600077B03FB10C9A204608990EF0E2DD7A8882186D
S315600077C00FE0DDF86880099A41460A9B204618F06A
S315600077D009DB099A0546414620463B460FF00ED81E
S315600077E04219D4F864010F994B463DF01BDB736A6E
S315600077F0BDF8720043F0840373621FB0BDE8F08F7A
S3156000780038B5D1F8D83204461D8C05BB8B6D40F275
S3156000781037151D40036B002D14BF1125012519680E
S31560007820022907D190F85C160131C9B2012998BFC7
S3156000783045F020055B7D53B1906B02F13C0121F070
S3156000784039DA20B194F947360BB145F4806528469C
S3156000785038BD4B7830B5012B35DDC8788A7842EA79
S315600078600022012A2FD1072B30DD0A7A4C7AA3F148
S31560007870080042EA0424002201E001320438A242F0
S3156000788001DA0428F9DC121B00EB8202012A1DDDF5
S3156000789001F1080000EB8404A078E578023A40EA3A
S315600078A00524002001E00130043AA04201DA032AEF
S315600078B0F9DC001B02EB8002012A09DD901E08D06C
S315600078C0181A487002E06FF0160030BD002030BD17
S315600078D0002030BD2F2A70B530D9B0F88031046BE6
S315600078E00B60B0F88231A5894B60E3891B0743EAD8
S315600078F0053305688B602B69D0F88401DE6B3B2A03
S31560007900CE60AE680E619E6A4E61DE6A8E61B5F8C3
S315600079107A604862D5F8B000CE61086258688862BD
S31560007920986BC8620DD92089086360894863002016
S315600079303F2A886306D91B6CCB6370BD6FF00D0060
S3156000794070BD002070BD2DE9F04F85B003910168D0
S31560007950914691F82F100EAA1F46054692E80C082C
S31560007960119EDDF848A0DDF84C8011B1B9F1140F15
S3156000797047D0D5F87C020292019341F09FDC029ACF
S315600079800446019B00283CD0C0F804908260C36026
S31560007990C0F810B0B8F1000F01D00AF1100AC4F8AF
S315600079A014A0BAF1000F1FD0F6B16868514601F015
S315600079B0BFDFE06338B9D5F87C02214605B0BDE883
S315600079C0F04F41F08F9CB8F1000F09D0414610226C
S315600079D0FDF302F1E06B626910303146103A01E066
S315600079E062693146FDF3F8F02846039922463B4624
S315600079F01DF0A6D92846214605B0BDE8F04F20F017
S31560007A00319D05B0BDE8F08F2DE9F04F87B08A460D
S31560007A10119905460B2993460393DDF84090129C15
S31560007A2040F26381BAF81630A1F10C0609F10C0731
S31560007A3003F4FF63DB083846314603220293FDF305
S31560007A406DF4B0B190F80280D5F85C0148F430610D
S31560007A50B8F10E0F8CBF4FF480534FF400531943A7
S31560007A6041F0CCDA38B9D5F868319B88990502D4EB
S31560007A703BE1DDF808800021AC222046FDF310F1E1
S31560007A80594606222046FDF3A7F099F80A3099F880
S31560007A900BB0039943EA0B2B0BF00303012B08BFD2
S31560007AA084F83430E388002914BF4FF480720022D2
S31560007AB01343E3805146A4F862B028461EF09CDD6D
S31560007AC051466085284612F02BDE029BA085434511
S31560007AD003D1E38843F00203E38005EB080393F8E0
S31560007AE04C30314684F8613099F8092099F80830AD
S31560007AF0384643EA0223E3850022FDF30FF401468C
S31560007B0048B14278202A06D8227204F1090002316F
S31560007B10FDF362F001E00023237200230093284600
S31560007B203946324623461FF021D9002840F0DD80D1
S31560007B30384631460122FDF3F1F330B14378082B24
S31560007B4003D9E38843F00103E38048F43063B8F176
S31560007B500E0F8CBF4FF480584FF4005843EA080864
S31560007B601BF0020FA4F832800DD03846314606224B
S31560007B70FDF3D4F338B14378012B04D9C278837806
S31560007B8043EA02232386D5F8680183795BB11199AC
S31560007B902246019153460399CDF800904FF084DD5B
S31560007BA0002800F0A280314638463022FDF3B6F355
S31560007BB0014618B12846224611F098DA3146384611
S31560007BC04422FDF3ABF3014618B12846224611F074
S31560007BD0CDD93146384604970596FEF3ABF101469A
S31560007BE018B12846224611F07DDB2B685B6BD3B15A
S31560007BF00497059606E02846414604AA05AB1EF0A2
S31560007C00DDDA40B904980599DD22FDF387F38046F5
S31560007C100028F0D107E0E38843F00403E38098F896
S31560007C20083084F86A30002338463146314A00937A
S31560007C301DF098D918B1E38843F00803E380E38820
S31560007C40284623F46663E3803946324621F0A4D899
S31560007C50814600284BD0037890F8018043EA0828D3
S31560007C60E38818F4804F43F020039BB2E3800DD085
S31560007C7043F40073E3802B6893F82F3033B1D5F863
S31560007C80FC341B7813B128462FF0FADB18F0200F6E
S31560007C9003D0E38843F48063E38018F0400F03D099
S31560007CA0E38843F40063E38009F10301102204F1E1
S31560007CB04D00FCF391F732462846394621F038D814
S31560007CC00646A0B13178727828460FF08BDF608661
S31560007CD018F002000BD0707810F0040007D0E3882B
S31560007CE0002043F04003E38001E04FF0FF3007B02F
S31560007CF0BDE8F08FBDBD01002DE9F04FD0F8686199
S31560007D00B5B01D46DDF8F8B0B379079104463F9FDC
S31560007D10BBF80AA013B130464FF0BCDAB5F8008064
S31560007D2008F0FC08A8F18000D0F1000848EB0008D4
S31560007D30B8F1000F11D0B388590710D4079AD4F858
S31560007D405C01D18A01F4FF61C90840F01FDFD0F100
S31560007D50010938BF4FF0000903E0C14601E04FF06A
S31560007D600009A7F10C0100220BF10C00FDF3D6F21D
S31560007D70B3680146022B0AD013B91AF0010F04E06A
S31560007D80012B40F060811AF0020F00F05C813046F2
S31560007D904A464FF0ADDC002800F05581737BDA0768
S31560007DA009D406F10D0005F110010622FCF3F8F680
S31560007DB0002840F0488109AB05F1100A029320467D
S31560007DC0079952464346CDF800B00197FFF71CFE6F
S31560007DD0002840F038819DF82C30BDF8562000937D
S31560007DE0204651460DF12D030DF046DE054630B1B5
S31560007DF0B8F1000F03D0C388DB0540F12481934AB4
S31560007E00BDF84E30126819B2D14244BFD318ADF8EE
S31560007E104E30E5B1EA88BDF82A3083EA0201880768
S31560007E2009D4B5F92A20BDF94E309A42A8BF134647
S31560007E30ADF84E3014E0910712D59A0710D46A8DCA
S31560007E4043F00203ADF84E20ADF82A3008E0D4F8CE
S31560007E501C352BB1BDF94E201BB29A42C0F2F3809D
S31560007E6094F8F437D8075DD50023ADF88C30B38825
S31560007E7099070BD56068394601F05ADD2290A8B1A2
S31560007E8059463A46FCF3A8F6ADF88C70BDF88C10EE
S31560007E9060688C3101F04CDDBDF88C30054658B910
S31560007EA023B1606822991A4601F052DDD4F8680160
S31560007EB004214FF0ADD9C6E00126204609A905F197
S31560007EC00C02803300960DF0F1DF0746C8B96D23CA
S31560007ED0B4F8F6276B602B692A810C332B606E81B0
S31560007EE0D4F868014FF0D6D908238DE88800029748
S31560007EF003952B6801460493204645223B4617F0BE
S31560007F003DDCBDF88C2060688C32294601F020DDAE
S31560007F10BDF88C20002A00F096806068229901F0F6
S31560007F2017DD90E0D4F818080AF04ED928B1D4F8D5
S31560007F30180809A90AF08CF985E0E5B9D4F828355E
S31560007F40022B1AD1079B2046B3F81690BDF856301F
S31560007F5009F4FF6923F0FF0343EAD9099DF82C3041
S31560007F601FFA89F9009351464A460DF12D030DF02B
S31560007F708FDC18B167E0814600E0A946B6F8048058
S31560007F8018F0020806D06068394601F0D1DC8046F8
S31560007F90002858D09DB920460DF052DC05460028D1
S31560007FA04DD0D4F82835022B09D19DF82C302046C7
S31560007FB0009351464A460DF12D030DF00BDC696EB8
S31560007FC041B16068B5F8682001F0C2DC00236B66D9
S31560007FD0A5F86830AC22284609A9FCF3FDF5B388FC
S31560007FE09A0708D5C5F86480404659463A46FCF378
S31560007FF0F3F5A5F86870D4F86801437BDB0722D4F3
S315600080000D30FDF3D9F20546E8B9D4F868014FF0B2
S3156000801049D9012817D1D4F8680129460CE060686F
S3156000802041463A4601F094DCD4F828353046022BB6
S3156000803008BFA4F8389508214FF0C8DB03E0B8F113
S31560008040000FECD1F0E735B0BDE8F08FFC0F020011
S3156000805010B5044623F0EEDF2046BDE8104015F06B
S31560008060059938B5D0F86036DA7A9C7A92B19D89EE
S315600080704FF6FF7295420DD0997B41B99A78012AE5
S3156000808006D0197B01F0010181F0010100E00021B9
S31560008090C9B20DE0026B8A4210D19A7B2AB99D78EB
S315600080A0012D04D091F84C1002E0002100E0114649
S315600080B08C4203D09972006936F022DF002038BD09
S315600080C038B50D46D0F860160446CB7AAB420CD074
S315600080D025B10C31B0F8282614F0C4DBD4F860362C
S315600080E02046DD72216BFFF7BCFF002038BD000023
S315600080F0F0B5D0F86C620446D6F8D43287B0D0F8C2
S315600081005C01B4F86E15DF8D40F06EDF0546C0B9D0
S3156000811041F60F310122D4F85C012B4640F0B2DC07
S31560008120B4F82616A4F86E05814207D1D4F85C012E
S3156000813001222B4640F0A6DCA4F86E05012384F8E4
S315600081406D35D4F8E42694F86D35002A3AD15F434C
S315600081501D4ABF02B7FBF2F7012F18D894F86C25B9
S3156000816002B9A7B92046B4F86E1518F0E3DA04F53B
S31560008170AC620C32039201220023049220463146FF
S31560008180502200930193029317F0F8DA1AE0B4F8DC
S315600081906E25A068A4F8E82694F85825D4F87415D6
S315600081A042F0020284F85825D4F86C22C4F8E476CA
S315600081B0D2F8D422D28D5A43002307B0BDE8F040EE
S315600081C00AF0349807B0F0BD40420F00062B2DE947
S315600081D0F04104460E4615461F46D0F86C8224D1FF
S315600081E0937880F86C35537980F86D35D178D0F80E
S315600081F05C0140F021DD2979024620460FF0F2DC71
S31560008200A4F86E05EB7884F8703598F8073063B19A
S3156000821006F1100008F1BC013A46FCF3C1F420B93E
S315600082202046BDE8F041FFF763BFBDE8F08130B599
S31560008230036887B01B7E0446D0F86C52002B41D091
S31560008240036993F8EA2042B1DB6E40F20440D3F84A
S3156000825020311840B0F5806003E0186E07F0EBFF40
S31560008260003018BF012028B1A06807B0BDE83040D3
S31560008270FDF746BD94F86D3513B1D4F8E4368BB18D
S3156000828094F858359B070DD50023C4F8E43620468C
S31560008290B4F86E1518F04EDA94F8583523F00203E8
S315600082A084F85835AB796BB904F5AC620C3203923D
S315600082B0012204922046294650220093019302939C
S315600082C017F05CDA07B030BD73B5036804465B7EB1
S315600082D0002B40F0BD80036993F8EA204AB1DB6E5B
S315600082E0D3F8202140F204431340B3F5806F06D0E3
S315600082F0AEE0186E07F09FFF002840F0A980236863
S3156000830093F8203033B9206905F030F823680122EC
S3156000831083F8202023681B6FEBB9206905F04EF8BF
S31560008320093018D123681A6F910714D442F00202FB
S315600083301A67254604F12006D5F84C1241B18B79AF
S3156000834033B94B7923B18B7C13B1204639F0C8DB46
S315600083500435B542F0D123681D6F1DB1204611F07A
S3156000836003DC73E0012384F82930204620F08EDA9E
S3156000837023682046596B0323009321B14FF4807222
S315600083802946134602E04FF480720B461EF04CDA23
S31560008390A06809F0B9DF236801221A7694F89D3146
S315600083A073B120460AF010FAD4F840352046598E4B
S315600083B023F06CD9002384F89D3120461CF050DCF4
S315600083C0B4F85C17204621F0D9D9206904F06BFE19
S315600083D0236893F82F301BB1D4F834072FF0CADA2C
S315600083E0236893F831307BB1254604F12006D5F831
S315600083F04C1231B18B7923B94B7913B1204635F0E4
S3156000840087D90435B542F2D1204615F09BD920466E
S3156000841016F077FA0125D4F8AC114FF47A7201237D
S31560008420A06809F003DF204684F8F15125F05ED894
S31560008430204614F0FFD9204625F0BADB50B120461D
S3156000844025F094DB2046294625F09ADD002001E0E0
S315600084506FF008007CBD00002DE9F04F90F8753292
S3156000846097B0DB0604460E4601F1040900F1A580CB
S31560008470D0F80438994240F0A080514B1A789A4659
S31560008480002A40F09A8001238AF80030B0F83C5206
S3156000849081E011F03FD90169D1F8CC3098030DD550
S315600084A020463A46139B3AF09BD9002873D023683E
S315600084B00399D868012201F063DA6CE07B6A5A0599
S315600084C007D5D4F84001314603AA139B2AF08ED90A
S315600084D043E0580707D501232046394615AA149369
S315600084E01FF0D8DA05E0204603A914AA15AB0BF0F5
S315600084F07DF9002831D1236893F8A130012B07D18B
S315600085001599032904D8D4F84001032229F02EDCFA
S3156000851002AF4FF000081CE078680369B3F84C308E
S315600085201FFA83FB1BB2002B09DA11F0F3D8002384
S3156000853001465A46D4F8600100934DF03DDB0123B5
S3156000854000932046159957F8042FFEF725F808F191
S315600085500108149B9845DFDB1DE010301BD14846AF
S315600085601399039AFDF39EF394F8753273B12368F9
S3156000857093F8B530D90709D5B4F83C3201221D40CD
S31560008580139B12FA03F325EA030504E0B4F83C32C0
S315600085909D420BD01D464DB14846294613AAFDF3B0
S315600085A0B5F20746039000287FF473AF2046314644
S315600085B013F0AEDF00238AF8003017B0BDE8F08F05
S315600085C07C2700002DE9F04F9DB0279F12930E92F5
S315600085D07F8904461197279F10460C370B97289F73
S315600085E00D460C3F0C97B2F81690194609F4FF69D0
S315600085F04FEAD909B9F10E0F94BF002701271097EA
S3156000860097880DF17008149716F0E4F8269F159078
S315600086100A373946109A204613974FF0F9DE002341
S3156000862048F8103D0646199319AF20462799289AAF
S31560008630434600971CF01EDB30B920462799289ADE
S31560008640434600971EF016DB16B17368DB0726D427
S315600086500C990B983222FCF361F6014620B1407802
S31560008660023120F027DB70B90C990B980122FCF3DC
S3156000867055F6014650B10231407820F01BDB0030E0
S3156000868018BF012002E001270D9700E00D9056B15A
S315600086900D9F37B9736843F00103736003E00027E9
S315600086A000E001270D970B980C990322FCF336F630
S315600086B02368074608B14278AAB993F83F0070B1BB
S315600086C0B4F82606C3B24B4508D0FDF3DBF3C9EB1D
S315600086D0000EDEF1000040EB0E0000E00120C0B2AB
S315600086E00F90002710E093F83F0050B1B4F82606CB
S315600086F0FDF3C8F397F80290C0EB0907784240EBA8
S315600087000700C0B20F9007460F9929B115F100080E
S3156000871018BF4FF0010801E0DDF83C8023685FFA7E
S3156000872088F893F8469019F0030923D094F87232CA
S315600087304BB9B8F1000F06D0D5F8D432B3F806902D
S3156000874019F020091FD00B990C9A204620F024DBE3
S315600087500B9983460C9A204620F0EADA2368079044
S3156000876093F94C3053B120460B990C9A1DF00ED8F4
S31560008770814604E0CB46CDF81C9000E09946B8F1FE
S31560008780000F6CD002E0CB46CDF81C90236893F8BE
S3156000879046A01AF0030A6CD0079A002A61D0BBF192
S315600087A0000F61D01178204652780FF01BDAB4F8CA
S315600087B026C603460CF47042B2F5005218BF012279
S315600087C00E3254F822800CF4406CD8F80410D4F8B9
S315600087D05C010893CDF824C03FF0C0DD10F0080FAF
S315600087E0089BDDF824C007D198F8ECA01AF1000ABE
S315600087F018BF4FF0010A01E04FF0000A9BF8002015
S3156000880012F0020203D007994A78C2F38002BCF5DF
S31560008810406F05D1B4F826269A420BD100F013BCFE
S31560008820BAF1000F25D00AB303F44062B2F5406F87
S3156000883040F00984226892F82FA0BAF1000F40F048
S31560008840058418460893FDF31DF38046B4F82606A2
S31560008850FDF318F38045089B40F0FA8308E0C246B2
S3156000886009E0DDF81CA004E0DA4602E0924600E08A
S315600088709A464FF00108236B5B7D002B37D00F9A29
S31560008880002A34D094F8723233B994F87432002BDB
S315600088902DD0B8F1000F2AD194F8493653B1199BFF
S315600088A0002B07DD189B1B78580703D5D4F858367C
S315600088B004221A6194F849364BB10D9B4BB9119954
S315600088C089060DD4D4F858360422DA6008E00D9A89
S315600088D032B1199B002B07DD189B1B78DA0703D58D
S315600088E0D4F8583604221A62204625F0A5D92368A2
S315600088F093F846309B0747D00F9B002B44D094F8E3
S31560008900723233B994F87432002B3DD0B8F1000F4F
S315600089103AD1B4F82636079903F44063A3F540606C
S31560008920434243EB000311B90D9A32B916E0079939
S315600089308A7802F00302032A05D1D4F85826042166
S315600089409161079A52B107998A7802F00302022A66
S3156000895004D11BB1D4F858260421D162BBF1000FB3
S315600089600FD0079A6AB19BF800105278890708D42D
S3156000897002F00402D2B222B11BB1D4F858360422F6
S31560008980DA62204625F00ADA236893F82F30DBB1E5
S31560008990D4F8FC341B78BBB1B7B9204659462EF0E3
S315600089A059DD88B1204639462EF056DE20462EF037
S315600089B049DEB4F8263603F44063B3F5406F03D15D
S315600089C0204601212EF0BADD94F87032002B00F0BB
S315600089D055831DB1D5F8DC720A9700E00A95B8F1A7
S315600089E0000F7CD0236893F846309B072ED0AB7C73
S315600089F033B936B920461399109A4FF023DE0646EE
S31560008A0026B3BBF1000F0ED0079B204631465A466F
S31560008A10CDF800901CF01ADFB5F8343523F020034A
S31560008A20A5F834350CE0AB7C53B97368DF0307D522
S31560008A30204631465A465B46CDF800B01CF006DF4C
S31560008A4020460B990C9A33461FF0F0DC0E992046AF
S31560008A501DF0D2DD014628461DF010DE28461DF0C9
S31560008A6065DD0E99204611F05BDE0146284610F062
S31560008A70BDDDAB7983B9D5F8E022D5F8D432118A59
S31560008A80928A0A9F59859A857B792BB9AB7C1BB1F3
S31560008A902846012135F0AEDA0A9F0023BB71FB71CF
S31560008AA095F81290B9F1000F19D197F88530012B1E
S31560008AB015D187F88590D4F8400126F06FDB204603
S31560008AC029460F224B46CDF80090CDF80490CDF89C
S31560008AD00890CDF80C90CDF8109016F04FDE002D72
S31560008AE059D0AB79002B56D1AB7C002B53D0279F46
S31560008AF0BB787A781B0443EA02233A781343FA7800
S31560008B0043EA0262BB7910927A791B0443EA022334
S31560008B103A791343FA790A9F43EA0269FB6913B902
S31560008B203A6A12B932E0994506D399452ED10A9F21
S31560008B303B6A109F9F4229D2269F00230093019390
S31560008B40029303930493204607F1100329461622E5
S31560008B5016F014DE28460E99129A279B24F00EDB37
S31560008B600F9F9FB1EB794BB1AB7C23B105F1BC0094
S31560008B70FCF322F510B905F1BC0101E005F1D6015F
S31560008B80002220461346009222F09AD80A99109F36
S31560008B90C1F81C900F62B8F1000F00F00D82AA793F
S31560008BA0AB7C002A40F08D81002B00F08A811AABE5
S31560008BB00093289A284627990DF16F0315F084DEF5
S31560008BC0BDF86820D5F8E482A5F8202594F8EB91E5
S31560008BD0B9F1000F67D100284DD098F80030022B0C
S31560008BE01AD128464946B8F826B00AF02EFCB4F8E1
S31560008BF0303884F832980BB1A8F8263028461EF033
S31560008C0011DBD5F8E432A8F826B05B8B002B4AD08E
S31560008C10284610F0CDDD46E023685B6B3BB194F8E7
S31560008C20FA3123B1AEB196F8D2300F2B11D098F845
S31560008C30022022B12046294622F042DC33E04FF082
S31560008C40FF330093204605F1BC01134622F038D865
S31560008C5029E094F80D3733B398F802303BB11EB172
S31560008C60736823F000637360284615F00BDF2846AF
S31560008C7023F028D917E098F808302BB1B8F80A1015
S31560008C8011B9284623F04CD9D5F8E4325B8B53B141
S31560008C9098F80030022B06D1D8F82030012B02D18B
S31560008CA028461EF0ABDA98F803301BB1284600213F
S31560008CB023F02AD898F809303BB928460DF0F0DC45
S31560008CC018B12846012123F017DA98F809305BB10C
S31560008CD0149F2846C7F3C011159A279B24F0F4D930
S31560008CE02846002123F008DA236B5B7D002B38D001
S31560008CF0119F2046C7F3802124F008D9189A002ACC
S31560008D002FD0199B002B2CDDD4F8583693F901101F
S31560008D10013109D112781B78C2F34002934203D025
S31560008D20204601211FF054DC189B1B78C3F3800397
S31560008D3084F846363BB9D4F858361B69D3F101033B
S31560008D4038BF002300E0002384F842364EB17368D2
S31560008D5023F00403736094F9462612B943F00403C2
S31560008D607360236893F84630980733D0079F002FC7
S31560008D7030D0D4F8583693F90620511C25D1BA78EC
S31560008D8093F9053002F00302934203D020460B218B
S31560008D901FF01EDC079FD4F85836BA78DB79C2F329
S31560008DA08002934203D020460D211FF011DC079FFD
S31560008DB0D4F85836BA789B7AC2F30012934209D037
S31560008DC0204610211FF004DC04E0012A0CBF0322B8
S31560008DD000225A71D4F85C01B4F826163FF0D6DE4C
S31560008DE090B1D4F85C01B4F826163FF00FDB236B24
S31560008DF018690BF005FDB4F82636834204D10021CC
S31560008E0020460A461DF0F8DE002E42D073685B06E7
S31560008E1040F127810B9F16970C9F179706E0204617
S31560008E20394616AA17AB1DF0C9D940B916981799D5
S31560008E30DD22FCF373F207460028F0D10AE1BB7924
S31560008E40012B40F00E8194F80C223B7A53401807B0
S31560008E5000F0078104F5007909F106084046B91C5F
S31560008E601822FBF3B9F6236893F83030002B00F034
S31560008E70F480D4F83477434607F5637709F11E0921
S31560008E80186859683A4603C208334B451746F7D106
S31560008E90E3E020460B990C9A0FF0E8DF012802D137
S31560008EA02046FFF725F9BAF1000F00F0E78094F845
S31560008EB06D35002B40F0E2802046514617F03ADCD3
S31560008EC0DCE0002B78D10D9F1FB9119FC7F34015C9
S31560008ED000E00125EDB29EB1736815B143F004035D
S31560008EE001E023F0040373600C990023654A0B9834
S31560008EF000931CF037D83146024620461FF070DAE0
S31560008F00236B5B7DFBB1199B002B0EDD189B1A78DA
S31560008F10510703D5D4F85826042111611B789A07A6
S31560008F2003D5D4F8583604225A620D9F1FB9D4F877
S31560008F3058360422DA611DB9D4F858360422DA604C
S31560008F40204624F079DE236893F846309B0700F0CC
S31560008F509580079F47B1BB7803F00303032B03D1CA
S31560008F60D4F8583604229A62BBF1000F18D09BF8E9
S31560008F7001109BF80030B4F8262643EA0123DF0689
S31560008F8003D4D4F8581604204863980708D402F42A
S31560008F904063B3F5406F03D1D4F8583604221A63A0
S31560008FA0079F2FB90D9F1FB1D4F8583604225A6116
S31560008FB0204624F0F3DE61E094F85735002B5DD04F
S31560008FC00F9F002F5AD0119FB90757D50B980C9950
S31560008FD00022FCF3A3F1034600284FD02046991CDB
S31560008FE05A7838F0EFDF0546002847D0837C002B9F
S31560008FF044D10E99129A16F035DA00283ED0279F92
S31560009000D5F8D0620097289F20460197269F0E9933
S3156000901007F1100201230296FEF7F6FC02460028CD
S315600090202CD1216BD4F86036503106F138009B782C
S315600090304AF0D4DD289F28460E99129A279B0097FE
S3156000904034F0B4D81AE04FF0000A12E44FF0000A88
S31560009050D04610E4022384F80E32284601211BF024
S31560009060CFDC00230C990B98064A00931BF07ADF3D
S315600090703146024620461FF0B3D90AE71DB0BDE867
S31560009080F08F00BFBDBD01002DE9F04F1769C1B07B
S31560009090D7F8D88204468B469246D8F82C00D8F882
S315600090A0301000220F93FCF339F120B1811C407817
S315600090B010910D9005E09BF808300BF109021092B3
S315600090C00D930021282222A8FBF3EAF5002128222D
S315600090D02CA8FBF3E5F5D8F830100122D8F82C005F
S315600090E0FCF31CF1D8F8301005463222D8F82C0073
S315600090F0FCF314F106463DB16A78102A04D823A819
S31560009100A91C2292FBF368F53EB17278102A04D846
S315600091102DA8B11C2C92FBF35FF5BBF80630D9077E
S315600091200BD5216B4B7D43B10A6D23A85431229236
S31560009130FBF352F500232C9308E02CAB00932046FA
S3156000914039460BF1380222AB1FF0B0DCB7F862503B
S31560009150D8F82C60B5F5806FD8F830905ED0B5F54C
S31560009160006F5BD030464946FCF3E4F6099018B1CF
S315600091704178002608910AE0304649463022FCF3E1
S31560009180CDF0064610B14278089200E00890802D36
S315600091900AD003D8102D07D0402D04E0B5F5807FA6
S315600091A002D0B5F5007F37D1BA6D40F23713134060
S315600091B0002B36D0089B002E08BF1423402D089341
S315600091C01CD0002107913AE0162606FB057606F5C7
S315600091D0B4765846311D0622CDF818C0FBF3E0F48C
S315600091E0DDF818C040B9079B40A901EB83020A3637
S315600091F0013342F8B86C0793013505E00023C14698
S315600092000793A846B4461D46D7F8CC229542DBD3D1
S3156000921045466646C84612E085B102E000260996D4
S315600092200896BA6D40F237131340089A002B18BFA0
S31560009230002318BF18220793089200E0079540F2B2
S31560009240EE5301933FAB02930F9B2046002B14BF56
S31560009250202100215A4607F1C203CDF800B01BF069
S31560009260DBDE0A9030B920460A99B7F80C2332F053
S3156000927065DA6FE23F99204601F5BC620E32A1F1D4
S3156000928018030B910C9239465A461193FEF7B8FAB9
S315600092900B990880B8F822304B800F9A0B1D3F93CC
S315600092A08AB108F124094846FCF386F110B93F9863
S315600092B0494602E03F9807F1D6010622FBF38CF49B
S315600092C03F9B06333F933F9B00210E9318460D9AB2
S315600092D0109B25F079DD0121229A23AB3F9025F082
S315600092E073DD089981463F90002900F0848086B13D
S315600092F0079A1AB120463146FEF7ABFADDF8FC90C4
S315600093003146484617F032D83F90737889F8013075
S3156000931019E0802D0AD003D8102D07D0402D04E027
S31560009320B5F5807F02D0B5F5007F0DD190494846EE
S3156000933017F01CD839463F900BF17B02204609F1A5
S31560009340040312F081DE4E46802D0AD003D8102D1C
S3156000935007D0402D04E0B5F5807F02D0B5F5007FDB
S3156000936049D1079B002B2ED07378079AF3189A7011
S31560009370991C130A4B7073780DF1440C02337370A9
S315600093803F9B0D9102333F934FF000093B462F46BA
S31560009390654612E00D99102201EB0910023055F86E
S315600093A0041F0693FBF318F4727809F10109103271
S315600093B072703F9A069B10323F92079A9145E9D1A7
S315600093C03D461F4601E0DDF81C90D4F86C32D3F8B8
S315600093D0D8325B68022B0ED1B9F1000F0BD0002298
S315600093E000920192029673782046023303935721C6
S315600093F013461DF08DD92C9A2AB13F9832212DAB98
S3156000940025F0E2DC3F904346D8F82C60B8461F460C
S315600094101AE07278711A0231891899421AD8099B32
S31560009420B34217D03378012B0BD9302B09D00232D7
S315600094303F983146FBF3D0F373783F9A0233D318E3
S315600094403F9373780233F61826B1F96A3B6BCA18F4
S315600094509642DED33B4647469846236893F84630A5
S315600094609A0717D0DAF80430DB0313D5226B384637
S3156000947013686532A3F1020EDEF1000343EB0E03BF
S3156000948036A925F003DC3F982D211A2236AB25F04C
S315600094909BDC3F9094F8653633B104F5CC613F9818
S315600094A0043116F063DF3F90236893F846309A07DD
S315600094B01DD0DAF80430DB0319D5226B3846136801
S315600094C06532A3F1020EDEF1000343EB0E0336A90B
S315600094D025F0DCDB0C9A3F9920468A4228BFC1EB17
S315600094E0020236AB38BF002225F08EDA3F90236841
S315600094F05B6B2BB3BBF806305B0721D503223DA817
S315600095001C49FBF369F3012202238DF8F92094F8D4
S31560009510FA218DF8F73000238DF8F83032B19BF9D7
S315600095206A209A4203DA94F80A3700E013468DF807
S31560009530FA303F98DD2107223DAB25F045DC3F90B0
S31560009540B5F5806F02D0B5F5006F07D1D7F82C3529
S31560009550002B2BD03F98D7F8281504E0089B2BB337
S31560009560099949B13F9816F001DF3F901EE000BFB0
S31560009570CCD28500C9BD0100402D17D0802D15D0F5
S31560009580102D13D0B5F5807F10D0B5F5007F0DD0C6
S315600095903F9E7249304616F0E9DE39463F900BF140
S315600095A06B02204606F1080312F04EDD6B1E9BB27D
S315600095B0012B03D9042D01D0082D0AD1DBF86400F4
S315600095C0002833D0BBF868100C300C39FCF3B2F4C9
S315600095D016E0802D0AD003D8102D07D0402D04E068
S315600095E0B5F5807F02D0B5F5007F1FD1DBF864004A
S315600095F0E0B1BBF868100C300C393022FBF38EF604
S31560009600A0B1D4F86C32D3F8D8325B68022B0DD196
S315600096104378102B0AD90233002202900393204626
S3156000962057210123009201921DF072D8BB6D580735
S3156000963001D504230CE0990701D5022308E0DA0777
S3156000964001D5012304E013F4807318BF4FF48073CF
S31560009650CAF84030236893F846309D072AD0DAF876
S315600096604030013B012B09D8DAF80430580305D5A0
S3156000967020465146062224F043D91BE0DAF804302E
S31560009680590317D551460622204624F0DDD82046D8
S3156000969016F00ADB012801460CD1D4F8F8372046CB
S315600096A01A8842F20E73013A92B29A4298BF00212A
S315600096B028F03CDB0C9A3F9B38469A422CBFC3EBA2
S315600096C00202002200922022019200214FF0FF3216
S315600096D004F0B5FB0E993F90401A00230391049065
S315600096E039465522204600930193029316F046D8D8
S315600096F03F9D119A0A9BD8F83410AD1A9D8221B10C
S315600097006068D8F8382000F023D9183D606829468B
S3156000971000F00ED9C8F8340040B10F99C8F8385037
S3156000972088F83C102A460B99FBF356F2BBF8623078
S315600097302046C3F340130093002301930293D4F8A9
S3156000974004280A9953461FF01DD80A9A002808BFB4
S3156000975000220A920A9841B0BDE8F08FE2D28500F5
S315600097602DE9F0410368044693F83F30C56813B1AC
S31560009770B0F8266602E0FCF74CFD0646002220693A
S31560009780314604F05DFA5621206936F079DDD4F869
S3156000979088314000002BC4F8040506DA2069B2213E
S315600097A036F06EDD4000C4F80805A221206936F067
S315600097B067DD4000C4F8EC07204615F029DA94F816
S315600097C0CD3133B920694C2136F05ADDC00984F8B1
S315600097D0CD0120461FF082DF204640F053DC002793
S315600097E0E319D3F84C82B8F1000F05D0404622F059
S315600097F031D9404621F024DF0437202FF0D1236889
S3156000980093F83F3093B10023E218D2F84C0250B17E
S31560009810027942B1D0F8D432DB8D1B04C5F88831A9
S3156000982022F050DB02E00433202BEDD12046314696
S315600098300CF09EDA20467421B4F87A2525F0FADA1F
S3156000984094F8D12142F21073002A0CBF1A464FF4E5
S31560009850BC622046822125F0EDDA236B94F8D111A3
S3156000986018690BF08BFE01221346B4F87817204670
S315600098700DF056DC0123B4F87A17002220460DF06D
S315600098804FDCD4F8400128F0CBDD2046FEF7E0FB44
S3156000989023685B6B5BB1B5F88836D4F86C029BB213
S315600098A043F00403A5F8883600211BF0A9D82046AA
S315600098B0FCF77AFBD4F8841161B920461FF080DA90
S315600098C00504C4F88451204602211FF079DA284342
S315600098D0C4F88401236893F8A130012B03D1D4F82E
S315600098E0400129F089DE20461BF0BAD920460BF0EC
S315600098F0A9DDB4F85C1720461FF040DF204613F060
S31560009900F7DB002384F84430454AE368C3F8DC2378
S31560009910012384F8A83184F8AA31236893F8383093
S315600099201BB925462646002711E0FF2384F89538A3
S3156000993084F8963884F8973884F8983884F8993893
S3156000994084F89A3884F89B3884F89C38E9E707F5F8
S31560009950407120461FF034DAB6F82032190706D176
S3156000996023F00F0300F00F021343A6F82032B6F877
S31560009970203213F0F00F06D123F0F00300F0F0026E
S315600099801343A6F82032B6F8203213F4706F06D16E
S3156000999023F4706300F470621343A6F82032B6F8BD
S315600099A020321A0B08D11B0520F47E601B0D20F0B7
S315600099B01F001843A6F8200202370236082FC6D1C8
S315600099C02368204693F94C100EF05EDC23681A7EFD
S315600099D0FAB193F82F30E3B104F12007D5F84C6261
S315600099E06EB1B3795BB1236893F838302BB12046FA
S315600099F0D6F84C15002238F0DBDF0023F37104350E
S31560009A00BD42EBD1002384F87232D4F834072DF0CE
S31560009A10B1DFD4F868010421BDE8F0414DF0F89B50
S31560009A20809698002DE9F341089C07460E46154638
S31560009A309846009408F048FF10F1170F09D1384690
S31560009A4031462A464346089402B0BDE8F04109F023
S31560009A50F79A02B0BDE8F0812DE9F04F1E6995B026
S31560009A6011919A46F388C0F878289DB2069505F05C
S31560009A700C089588934605F00302022A04464FEACD
S31560009A8098080D9507D11BB2002B04DAD8F10103B3
S31560009A9038BF002300E00023BAF81490DBB20C93C1
S31560009AA0A9F10A099B00B8F1000F03D117334B45A2
S31560009AB080F2A481069D05F0FC07942F03D0A42FA5
S31560009AC001D0842F03D1B9F10F0F40F39781B37A98
S31560009AD013F001030A9309D1204606F10A0138F012
S31560009AE04DDA051C099018BF012501E0002509958E
S31560009AF00895B8F1000F0ED106F1160520462946E5
S31560009B0038F018DA079050B92946204638F07CDAE2
S31560009B100B90054606E000250B95079502E0079D2C
S31560009B20CDF82C8094F8C83123B9236893F82C209B
S31560009B3032B926E020465946524600230EF090DFA1
S31560009B40942F03D0A42F01D0842F02D1089959BB3A
S31560009B5003E0802F28D0502F26D0B8F1000F40F0B8
S31560009B60EC83089A02BB06F10A00FBF315F50028A0
S31560009B7000F0E383C5B906F11600FBF30DF598B95D
S31560009B80DBE30A9981B9089A42B193F838205AB151
S31560009B90B8F1000F08D13DB9099929B9D3F88C30CD
S31560009BA09A6F01329A67C8E394F8C8316BB915B9F0
S31560009BB0D4F86C3200E02B4693F8E5202AB12046B3
S31560009BC0594652469B680EF04BDFB8F1010F0ED135
S31560009BD0C42F0CD0D42F0AD006F11000FBF3ECF49E
S31560009BE0002840F0AA83337CD80700F1A683DAF810
S31560009BF01030B21D0633CAF8103023680592D3F8C8
S31560009C008C301FFA89F1DA6CAAF814100132DA6422
S31560009C10204600915A46059913AB11F099DA30B196
S31560009C202368D3F88C30DA6F0132DA6785E31399EB
S31560009C3011B123689B6A0B62B8F1010F38D1BAF88B
S31560009C401430DAF81000A3F11005AAF814500C9D30
S31560009C5000F11002CAF8102035B100F11402143B6D
S31560009C60CAF81020AAF81430A42FBAF814300ED10E
S31560009C700B699B79002B00F0608391F8DF30002B35
S31560009C8000F05B832046069A2FF002D855E32068E1
S31560009C9090F84200002800F05083842F02D0942F61
S31560009CA040F04B83D4F84001009728F0E9D944E3AB
S31560009CB0BBF816300A9A03F4FF63702B94BF002337
S31560009CC001230E93002A6BD1B38BADF828309BB27B
S31560009CD00F9331B9204606F110010E9A4EF098DBCB
S31560009CE01390069B13F400631093139B05D023B166
S31560009CF0B3F8BC200F998A422AD0C3B1BDF8282098
S31560009D00A3F8BC204CE009F1F30804EBC808404610
S31560009D10FBF352F480B906F1100041460622FAF3CD
S31560009D203FF758B109F101095FFA89F900E09946F0
S31560009D3094F8E8374B45E6D24FF00008109B83B1A4
S31560009D40B8F1000F10D0B8F806300F998B4223D1C6
S31560009D502368D3F88C30D3F8BC210132C3F8BC2118
S31560009D60EBE2B8F1000F17D194F8E83706F110016D
S31560009D7003F1F30804EBC808013384F8E8370622D8
S31560009D804046FAF329F794F8E8270A23B2FBF3F181
S31560009D9003FB112384F8E837BDF82830A8F80630AD
S31560009DA0089959B1079A4AB1AB793BB9D5F8E4320B
S31560009DB01B7A1BB12846069910F0D6D8BAF814104B
S31560009DC0DAF81030A1F11802AAF814200C9A03F1FF
S31560009DD01809CAF8109032B103F11C091C39CAF887
S31560009DE01090AAF814100D99069AC1F3C013510485
S31560009DF0BAF814800DD5B8F1070F06DC2368D3F8DE
S31560009E008C305A6E01325A6697E2B02F40F09582D6
S31560009E1027E0502F79D010D8202F00F05F8206D827
S31560009E20002F00F05B82102F40F0878241E0302FD8
S31560009E303FD0402F40F081824FE0B02F0DD005D843
S31560009E40802F7BD0A02F40F078823FE1C02F00F0BA
S31560009E509381D02F40F071825FE2B8F1050F40F335
S31560009E606682002D00F06982AA799AB12A79002A61
S31560009E7000F06382CDF800800193BBF81030D4F80F
S31560009E80340703F0080302932946059A4B4602F00D
S31560009E9072FB52E2D4F8402592F93420002A00F091
S31560009EA04C820093284605994A46434631F0C0DE07
S31560009EB043E2B8F1050F40F33A82002D00F03D828F
S31560009EC0AB79002B40F03982139B284600930599A5
S31560009ED04A46434608F0E3FF2FE2236893F895303D
S31560009EE023B994F87232002B00F0278208F1180229
S31560009EF0059D0023039220462C2106F11002009353
S31560009F00019302951CF004DC17E2B8F10B0F40F3E5
S31560009F100E82D4F868319B79002B00F00E82089D82
S31560009F20002D00F00A82204659463246059BCDF840
S31560009F300090CDF80480FDF7DFFEFEE1B8F10B0F6F
S31560009F4040F3F581059933468DE80202204607996C
S31560009F505A46CDF80880FEF735FBD4F868319B7910
S31560009F604BB1204659463246059BCDF80090CDF858
S31560009F700480FDF7C1FE94F872325BBBB9F80A3013
S31560009F80DA0727D520464946424616F073DA08BBFB
S31560009F90BBF8167007F4FF67FF080E2F00F2D58135
S31560009FA009F10C00A8F10C010322FBF3B7F188B1AB
S31560009FB043787BB18378BB420CD1226B10690493E2
S31560009FC00AF01EFC049BC0B2834203D1D4F8680138
S31560009FD04DF0E6DA0B9A3AB9204606F1160138F0EA
S31560009FE013D8074608B94DE00B9FBA79002A49D1C4
S31560009FF0D7F8DC12D7F8D832059109F10C00A8F130
S3156000A0000C010493FBF38AF1049B06909B680B2B6F
S3156000A01008D13846594632464B46CDF8008033F073
S3156000A020C5D80DE0226892F831204AB10F2B07D1CE
S3156000A0303846594632464B46CDF8008033F086DCCA
S3156000A040BB7CFBB1059A92F85A30DBB1D4F8680153
S3156000A050069901224DF04CDB38B1059991F85930DB
S3156000A0601BB9012381F859300CE0D4F868010699D0
S3156000A07001224DF03DDB28B9059A92F859300BB1B3
S3156000A08082F85900079B002B00F05781D5F8D8322B
S3156000A0909B680C2B40F051814B4628465946324608
S3156000A0A023F06CD82846002131F036DA236893F81D
S3156000A0B02F3023B1D4F834072DF05CDC3DE1D5F8C0
S3156000A0C0E4322846997809F0C0F936E1B8F1010F13
S3156000A0D040F32D81002D00F03081AB79B9F8007026
S3156000A0E04BBB204613991FF0A7DD1398037E9B0791
S3156000A0F013D502214DF0D4DD139B1A7E12F00802AF
S3156000A1000BD12046294606F1100300970192CDF83F
S3156000A1100890CDF80C8009F049FB0799002900F0FA
S3156000A1200C81D5F8D8329B6813B1284631F03ED9F8
S3156000A13028460321B4E013990B69AB4240F0FD80D9
S3156000A14020461FF079DD1398037E990710D51221FA
S3156000A1504DF0A6DD00222046294606F11003009741
S3156000A1600192CDF80890CDF80C8009F01FFBB0E0A5
S3156000A17010214DF095DDE0E0B8F1010F40F3D78096
S3156000A1802DB9099A002A00F0D880174600E02F46BC
S3156000A1904FF0000BCC46A9465D4604EB0B02D2F8A5
S3156000A1A04C1261B106F11600BC310622CDF810C022
S3156000A1B0FAF3F6F4DDF810C0002808BF01250BF1AC
S3156000A1C0040BBBF1200FE8D12B464D46E146002B30
S3156000A1D000F0B380139BB9F800B033B9204606F19E
S3156000A1E010010E9A4EF014D91390139911B12046AE
S3156000A1F01FF022DDBB791398002B54D100283BD089
S3156000A20012214DF04DDD1398037EDA0702D44368C0
S3156000A2109B0031D501214DF043DDABF10D039BB2BF
S3156000A220092B07D82368D3F88C30D3F8F82101328C
S3156000A230C3F8F82197F91030022B03D1F8680E2184
S3156000A24051F0C0DF139B1A7E12F004020FD1CDF8D5
S3156000A25000B05B682046C3F340730193394606F14C
S3156000A2601003CDF80890CDF80C8031F0E9DE139B31
S3156000A2705A6822F000525A60079B002B5DD0AB7C77
S3156000A280002B5AD0D5F8D8325A689B68022A01D179
S3156000A290082B52D813B1284631F088D828460221B7
S3156000A2A033F0A8DE49E0002847D00369BB4244D1B9
S3156000A2B0037ED80741D500222046394606F11003B1
S3156000A2C0CDF800B00192CDF80890CDF80C8031F051
S3156000A2D0B7DE204613994EF0A3D82EE0B8F1030FEF
S3156000A2E025DD55B32A7942B3AA7932B306F1160051
S3156000A2F005F1BC0106220493FAF352F4049BE0B91B
S3156000A300139A02930192D4F834072946059A4B466C
S3156000A310CDF8008008F02EFF0FE020461399059ACD
S3156000A3204B468DE8000902960FF078DE05E023685B
S3156000A330D3F88C301A6F01321A6711985146002291
S3156000A340FFF31EF315B0BDE8F08F236B18690AF0B2
S3156000A35057FAC0B2874238E62DE9F04F064692F8C2
S3156000A3602A3010680D469BB01446918B0590D6F83E
S3156000A37004A02F6913B192F8228000E0984694F801
S3156000A3802C309BB90A0511D505EB4802B2F8AC0032
S3156000A390B4F87E20904209D13368D3F88C30D3F874
S3156000A3A0BC210132C3F8BC2100F079BCBA79C1F393
S3156000A3B0802B12BBD7F8E49299F808206AB163B98A
S3156000A3C0BBF1000F09D195F8D220636A52FA03F304
S3156000A3D0D80702D438460FF0C7DD33685B6B63B1CC
S3156000A3E099F818304BB194F82A3033B194F8283084
S3156000A3F01BB13846002121F0FDD8238C5A0700F1A5
S3156000A4004E84A38B03F48043636363B9BB6D40F2F0
S3156000A410371903EA0909B9F1000F27D097F8609058
S3156000A420B9F1000F22D04FF00009C4F838903046D9
S3156000A43051462A462346CDF800804FF099D970B927
S3156000A440636B23B1D5F86C310133C5F86C31336871
S3156000A45093F89530002B00F022844FF00109636B6E
S3156000A46023B1D5F868310133C5F8683194F82C30DA
S3156000A47043B908F15403B4F87E1005EB43039A8898
S3156000A480998000E000223368029393F895301BB1FF
S3156000A490B9F1000F40F0038494F82C30002B40F0A3
S3156000A4A02981B4F87EC008F11A091CF00F0340F048
S3156000A4B08A8005EB8909D9F8041079B11A465046A5
S3156000A4C00393FFF35DF2039B05EB8802C2F88C30C1
S3156000A4D008F14C02C9F8043045F82230BBF1000F90
S3156000A4E000F00881E36808F11A090493636905EBD3
S3156000A4F08909C9F8043018699A8A3168D3F80CC09A
S3156000A5009B6800EB020EC969CEEB0C0EC01A896817
S3156000A510864472448A4222DA5046FFF361F2C9F8F1
S3156000A5200400002800F0BB836369006999681A69B2
S3156000A5309B8A521AD218FAF34FF361690A698B68DB
S3156000A540D21AD9F80430186980181861988A821A64
S3156000A5509A82888A002298825046FFF311F2326806
S3156000A5600499D26905EB88039268A448521AD6F812
S3156000A5702818063A521AC3F88C2061680822FAF342
S3156000A5800FF350B19E4861680622FAF309F340B9A9
S3156000A5906368DB88B3F5407F03D16B6843F00803DB
S3156000A5A002E06B6823F008036B60964861680822D6
S3156000A5B0FAF3F6F2AB6810B943F0200301E023F03A
S3156000A5C02003AB6096E005EB89004168049019B9F9
S3156000A5D00299D1F88C301FE082EA0C0C3CF00F0C2B
S3156000A5E004D102F00F020132934219D00022504684
S3156000A5F0FFF3C6F108F11A02002305EB82025360ED
S3156000A60008F1220205EB820208F14C08536045F816
S3156000A61028303368D3F88C301A6E01321A663EE3FE
S3156000A62008F1220905EB8909A368D9F80420934249
S3156000A63011D962465046CDF80CC0FFF3A1F1DDF8A2
S3156000A6400CC0049A08F14C08C2F804C0C9F804C0EA
S3156000A65045F828C0DDE78DE80804304609F10402B4
S3156000A6606368CDF80CC00BF0EBDADDF80CC0504631
S3156000A67061696246FFF384F1BBF1000F3AD1049B36
S3156000A6805A686261C3F804B008F14C0345F823B018
S3156000A6901369928A03F11801C9F804B06160A2F1E6
S3156000A6A01801A16094F829102360E26021B103F1DA
S3156000A6B01E011E3A6160A26094F82A203AB162686F
S3156000A6C084F8228002326260A268023AA2601A7836
S3156000A6D05B7842EA0323A383636B5BB1A36B4BB1E5
S3156000A6E093F90E2061688A18626093F90E30A26849
S3156000A6F0D31AA360A36B73B11B7A042B03D13046C4
S3156000A70021464FF0E3D8A36B1B7A0B2B03D130465F
S3156000A71021464FF0F7D9BBF1000F40F00183336853
S3156000A72093F89530002B52D0BB689B79DB0700F11C
S3156000A730D5824CE000F4E06210F4000F4FEA12227A
S3156000A740314B00F07F00A2F1040208D0012A4FF0DD
S3156000A750140202FB003094BFC068806809E0012AD9
S3156000A7604FF0140203D802FB0030406801E050430A
S3156000A77018584FF4FA7304E000F07F004FF4FA7350
S3156000A7805843B0FBF3F0CDF821004FF0010B0DF10B
S3156000A7902700216818228DF826B0FAF31DF294F886
S3156000A7A02F30A3B1BDF827300DF1310143F40073AA
S3156000A7B006220DF13700ADF82730FAF30DF2D6F820
S3156000A7C06C120DF13100BC310622FAF305F23368E2
S3156000A7D093F895200AB9134601E02D2206AB61690C
S3156000A7E0496A480612D5090640F159820092D6F8A0
S3156000A7F03C012946224629F05BD891E2401E86003C
S3156000A800E6BD0100481E860084188600216806227F
S3156000A810043112A8FAF3E0F1216806220A3114A87D
S3156000A820FAF3DAF1216816A810310622FAF3D4F1A8
S3156000A83094F829302BB1216818A818310622FAF34A
S3156000A840CBF1A38B13F4807F03F4007304D112AAB7
S3156000A850626723B116AB05E016AA62670BB914AB43
S3156000A86000E018AB2367D4F80490BBF1000F00F04A
S3156000A87000812368E36699F80030AA2B30D199F8F5
S3156000A8800130AA2B2CD199F80230032B28D199F8E4
S3156000A89003302BBB99F8043013BB99F8053053B9D4
S3156000A8A0B9F806303046190A41EA032189B20AF03E
S3156000A8B03BDE60B114E0F82B12D1B9F806303046B1
S3156000A8C0190A41EA032189B20AF02EDE40B1B9F8CD
S3156000A8D006304FEA132949EA03291FFA89F901E08C
S3156000A8E0B4F80890336893F89530CBB1D7F8E03078
S3156000A8F04BB9636BA3B9BA6D40F2371313407BB1A2
S3156000A90097F8603063B1304629463A462346CDF81B
S3156000A9100090CDF804800CF067DC002840F0BF8121
S3156000A920A36B6BB11B7A012B0AD0032B08D0304680
S3156000A93051462A46234608F0E4FE002800F0AF811F
S3156000A940636F1B78D80707D53368D3F88C30D3F894
S3156000A950D0210132C3F8D021A36B33B11B7A022B0D
S3156000A96003D1304621464EF0B1DF636B1BB994F8D4
S3156000A9702A201AB921E0A36B93F90E3094F82A20A5
S3156000A9803AB1216802330A8822F080021204120C5E
S3156000A9900A80616805E0CA1A12F8012C01F8012CD8
S3156000A9A07146626901F1FF3E10697045F3D9C118BD
S3156000A9B0908A1161C31A9382216094F82F3093B103
S3156000A9C0206806220388804643F4007328F80A3B11
S3156000A9D041461030FAF300F1D6F86C124046BC31AD
S3156000A9E00622FAF3F9F097F910308BB148F68E0328
S3156000A9F099450DD12168626B1231003218BF012270
S3156000AA00F86807F1180351F0FDD8002840F0478137
S3156000AA1097F8303583B148F68E0399450CD1216895
S3156000AA20626B1231003218BF012278692B4607F03B
S3156000AA301EF9002840F0338163699A8A1869DB68D9
S3156000AA4080181B1A2C2B40F22A81002306A92D227E
S3156000AA508DF82630FAF3C0F0636994F82210DA8A2A
S3156000AA6001F0070122F007020A43DA8294F82920EE
S3156000AA700EE1D4F814B099F80030DBF81020AA2B58
S3156000AA800492C2EB090836D199F80130AA2B32D16B
S3156000AA9099F80230032B2ED199F803305BBB99F8F5
S3156000AAA0043043BB99F8053053B9B9F806303046DF
S3156000AAB0190A41EA032189B20AF036DD60B11AE06B
S3156000AAC0F82B18D1B9F806303046190A41EA032145
S3156000AAD089B20AF029DD70B1049AA8F1060802EB82
S3156000AAE00803BBF81420CBF81030C8EB0208ABF8AB
S3156000AAF01480E36626E0BB6D990612D548468A49FE
S3156000AB000822FAF34DF060B9636908F104081A691E
S3156000AB10998A4244C8EB01081A61A3F81480E26678
S3156000AB2010E06369A8F10E08998A1A694244C8EB75
S3156000AB3001081A61A3F814802389E266190A41EABA
S3156000AB4003239381A36B6BB11B7A012B0AD0032B72
S3156000AB5008D0304651462A46234608F0D2FD0028E2
S3156000AB6000F09D80A36B33B11B7A022B03D1304674
S3156000AB7021464EF0ABDE0622616FE06EFAF32CF0F2
S3156000AB80E06E06220630216FFAF326F0636994F8C8
S3156000AB902210DA8A01F0070122F007020A43DA82FC
S3156000ABA0626F1278D20707D53268D2F88C20D2F855
S3156000ABB0D0110131C2F8D01197F8612072B12A7EA6
S3156000ABC0D0060BD4E26E9289110A41EA02225749F5
S3156000ABD012B28A4202D05A6AD10660D597F86520C9
S3156000ABE09AB12A7ED20610D4E26E9289110A41EA9F
S3156000ABF002224F4912B28A4207D026398A4204D0CD
S3156000AC005B6A002B01DBD80649D5BB7923B9D7F837
S3156000AC10E432012283F82A2096F83238013386F826
S3156000AC20323897F91030DBB1E16E8B891A0A42EA45
S3156000AC3003233E4A1BB2934212D10B8A1A0A42EA96
S3156000AC400323A2689BB20C3A934228D8626BF868D9
S3156000AC50003218BF012207F1180350F0D3DFF0B9B4
S3156000AC6097F830358BB1E16E8B891A0A42EA032375
S3156000AC702E4A1BB2934208D1626B7869003218BFC4
S3156000AC8001222B4606F0F3FF48B994F82920636940
S3156000AC90009330462946636F1EF0A6DB40E03368BA
S3156000ACA05A6BAAB161692348CA8AD3F8903002F018
S3156000ACB00702825C2048855C50460C3503EBC5056F
S3156000ACC06B68AE6801336B60FBF3D4F08019A860E3
S3156000ACD0504661690022FEF353F621E0336BD4F8E7
S3156000ACE080101B8930460693A369DB8ADB088DF8E2
S3156000ACF01C3005EB480393F8AC3003F00F030133C7
S3156000AD008DF825301BF078DC059BCDF81D00991F6A
S3156000AD10D4F8800013F05EFD01013FF50BAD2BE525
S3156000AD201BB0BDE8F08F00BFF7E385008E88FFFF9C
S3156000AD30B488FFFFC4D2850098E085002DE9F04F06
S3156000AD40A7B09A4609939B8A0026212B04468B4618
S3156000AD501746259612968DF832600D968DF83B60F3
S3156000AD608DF838608DF870608DF83F600A92249295
S3156000AD701B9601D8036846E0DAF81050104629465B
S3156000AD8013F028FDAB1D02900493EA8893B203F496
S3156000AD904071ADF82C20A1F5407C104603F00C0EF6
S3156000ADA003F0F0024FEA9E0E1209DCF1000141EB5E
S3156000ADB00C01BEF1020F08BFD608F6B2ADF82EE060
S3156000ADC0ADF830208DF839108DF83A60B7F804E0A8
S3156000ADD00EF0030EBEF1020F04D100B2002801DAB4
S3156000ADE0D20800E00022D0B28DF83B00002914BFE3
S3156000ADF02822222206B1023200B104320998808AE2
S3156000AE00904206D22368D3F88C305A6E01325A6665
S3156000AE1077E3AA7A02F001028DF83C2021B14FF067
S3156000AE2000088DF8408013E0D80502D505F10A01C7
S3156000AE3005E099054CBF05F1100105F116012046A4
S3156000AE4037F078D8031C18BF012380468DF8403050
S3156000AE509DF83C3043B904992046043137F08ED8CA
S3156000AE60061C18BF012600E0002694F8C83123B9F5
S3156000AE70236893F82C3033B92DE020463946099A79
S3156000AE8000230DF0EDDD236893F83F200AB98DF8B5
S3156000AE90402046BBBDF82C20D20505D49DF83C2049
S3156000AEA012B19DF8402042BB9DF8392012B19DF841
S3156000AEB03C200ABB93F82C30002B00F022839DF8CF
S3156000AEC04030002B00F01D8398F80630002B40F0D0
S3156000AED01883012611E09DF83C301BB9002E00F066
S3156000AEE0108300E04EB19DF839602EB99DF8403070
S3156000AEF0002B00F0068300E00026236893F8953067
S3156000AF005BB3B8F1000F28D09DF83C30D8F8DC90E0
S3156000AF105BB919F0010F00F0F482049808F1C201E0
S3156000AF2004300622F9F33CF614E004980430FAF390
S3156000AF3033F320B119F0080F00F0E3820DE019F049
S3156000AF40040F0AD119F0020F00F0DB822046049943
S3156000AF500DF0F2DC002840F0D48209990B690633C3
S3156000AF600B618B8A063B8B82049B03F11802059268
S3156000AF709DF839200AB11E33059300238DF83D30C4
S3156000AF809DF83A3083B3059A1378507843EA0020E7
S3156000AF90DB098DF83D3083B1B8F1000F04D098F825
S3156000AFA01935002B40F0AD8294F8CF31002B00F0BC
S3156000AFB0A8824B6A43F040034B62DFF8A8E500F0D5
S3156000AFC007031EF803E0DFF8A0C500F010001CF8C8
S3156000AFD00EE0001102328DF83230CDF834E08DF893
S3156000AFE0380005928DF870309DF83D301BB98B8A1C
S3156000AFF0043B8B8205E05846FAF3B4F3838A043B3C
S3156000B0008382099A0599938A12690793C2EB0108AC
S3156000B010C8EB0303514658460693FAF32BF7049997
S3156000B020C8EB000008908B7DCA7D43EA0223ADF829
S3156000B0308E303EBB079B204600933A4625AB10F008
S3156000B04087D8002840F05D827DE2FA8A049902F48E
S3156000B050FF620A31702A204694BF002201224DF019
S3156000B060F1DA259030B92368D3F88C30DA6E013284
S3156000B070DA6646E20369D3F8CC30C3F3C0138DF8C1
S3156000B0803F3018E0BDF82C3013F4407F13D09DF8A4
S3156000B090393083B9259B73B9FA8A0A3102F4FF62A3
S3156000B0A0702A204694BF002201224DF0CBDA25900B
S3156000B0B0002800F02682259BD3F81080D8F8DC3271
S3156000B0C003931EBB9DF8393003BB9DF83C301BB122
S3156000B0D0BDF82C30D80512D498F80620BDF82C306F
S3156000B0E012B1D9050BD511E098F8122003F440731C
S3156000B0F0002A14BF4FF400720022934206D02368E0
S3156000B100D3F88C309A6D01329A65FAE194F82D374E
S3156000B1102BB99DF83F3013B998F8062042B92046FE
S3156000B12039461BF069DA814618B18AF82D0000E0CD
S3156000B130994698F806300BBB9DF83F30F3B94946FF
S3156000B14040461BF09BDA40461BF0F0D93946204654
S3156000B1500FF0E6DA014640460EF048DA9DF84030D8
S3156000B16063B198F812304BB198F8073033B1039851
S3156000B17043791BB94046012132F03CDF94F82D3704
S3156000B18033B99DF83F301BB9259BD3F8FC3083B1AA
S3156000B190B9F1000F0DD0259BD3F8F810D3F8F42041
S3156000B1A042F82190D3F8F820013202F00702C3F882
S3156000B1B0F8209DF8393023B1B8F86220ADF87820D0
S3156000B1C036E098F806302599002B2ED08B8FADF897
S3156000B1D078304B685A061BD59DF83A20C2B1049A5E
S3156000B1E0D28A100714D191F8DF208AB18A7ED207FD
S3156000B1F00ED4BDF82C20D0040AD59A0308D50D9A32
S3156000B20091F8D1301341DB0702D520462DF08ED957
S3156000B210BDF82C3013F4805F259B5A6814BF42F446
S3156000B220003222F400325A6002E0898FADF878105D
S3156000B23094F82D371BB9259BD3F8FC3083B1B9F14F
S3156000B240000F0DD0259BD3F8F810D3F8F42042F800
S3156000B2502190D3F8F820013202F00702C3F8F820F3
S3156000B260259BD3F87C315BB1D3F80826029803EBB3
S3156000B2708201013202F03F02C1F80C06C3F80826CB
S3156000B28098F806304BB998F8123033B19DF83C30D7
S3156000B2901BB916B9039B9E71DE719DF83C300BB3EA
S3156000B2A098F80630002B40F02C8198F812304BB19C
S3156000B2B0216804984E3110300622F9F371F40028A3
S3156000B2C000F01F8104980430FAF366F150B92368E0
S3156000B2D093F83E3033B9204604990DF02DDB0028F3
S3156000B2E040F00F8102989DF83C30CAF838005BB98F
S3156000B2F02B786A781A43AB78134305D0D4F860018B
S3156000B30002997A8A4AF080DCDAF8382012F000670F
S3156000B3101FD002F4E0604FEA102012F4000F8F4B4A
S3156000B32002F07F01A0F1040008D001284FF014005C
S3156000B33000FB013394BFDB689B680CE001284FF08B
S3156000B340140003D800FB01335B6804E041435B589B
S3156000B35001E002F07F0382490B6095F90330002B10
S3156000B36007DA2368D3F88C30D3F8D8120131C3F8E2
S3156000B370D812EB7803F03003102B07D12368D3F88B
S3156000B3808C30D3F8E0120131C3F8E0129DF83C30FE
S3156000B390002B40F08C802368D3F88C30FFB102F428
S3156000B3A0E06012F4000F4FEA10206C4902F07F0251
S3156000B3B0A0F1040008D001284FF0140000FB02122F
S3156000B3C094BFD26892680CE001284FF0140003D84D
S3156000B3D000FB0212526804E042438A5801E002F020
S3156000B3E07F02162A3AD00CD80B2A25D004D8022A16
S3156000B3F016D0042A5BD119E00C2A23D0122A56D122
S3156000B40026E0302A3CD004D8182A2DD0242A4ED1E2
S3156000B41030E0602A40D06C2A44D0482A47D135E0D3
S3156000B420D3F870220132C3F8702240E0D3F8742258
S3156000B4300132C3F874223AE0D3F878220132C3F8B5
S3156000B440782234E0D3F87C220132C3F87C222EE0E5
S3156000B450D3F880220132C3F8802228E0D3F8842210
S3156000B4600132C3F8842222E0D3F888220132C3F87D
S3156000B47088221CE0D3F88C220132C3F88C2216E0B5
S3156000B480D3F890220132C3F8902210E0D3F89422C8
S3156000B4900132C3F894220AE0D3F898220132C3F845
S3156000B4A0982204E0D3F89C220132C3F89C222599A5
S3156000B4B04B68580309D59DF83C3033B92EB9D4F89A
S3156000B4C0400104AA00F01CFD03E0204604AAFEF732
S3156000B4D043FF049B1A7CD10705D4259AD2F85811EC
S3156000B4E00131C2F858111B7C13F0010F259B04D063
S3156000B4F0D3F85C210132C3F85C21029AC3F8642157
S3156000B50028E023685A6BC2B19DF83C20AAB9099914
S3156000B5101448CA8AD3F8903002F00702825C124857
S3156000B520845C58460C3403EBC4046368A568013335
S3156000B5306360FAF39FF44019A060584609990022A7
S3156000B540FEF31EF206E0BDF82C3013F4407F7FF464
S3156000B550B2AD7AE527B0BDE8F08F00BF84188600EB
S3156000B560D00F0200C4D2850098E085002DE9F0472F
S3156000B570D0F828380E690C46F218D0F804800A61B3
S3156000B580898A0546CB1A9BB2A382318A490707D5B9
S3156000B590012B01D803680FE00232023B2261A382CD
S3156000B5A0A38AD4F81090072B2B6805D993F82F300F
S3156000B5B0B9F8067033B907E0D3F88C305A6E0132A9
S3156000B5C05A664DE0402F4BD0738ADA0724D407F0D1
S3156000B5D00C07BF10022F00D0BFB909F11000F9F3B4
S3156000B5E0EBF718B999F81030DB0706D52B68D3F856
S3156000B5F08C305A6F01325A6732E02B68D3F88C3040
S3156000B600D3F8CC210132C3F8CC21D5F83C0128F01F
S3156000B6100BDA022F14D10BE095F8CF31002B1FD037
S3156000B620D5F83C0131462246BDE8F04728F0469AF7
S3156000B6302846414632462346BDE8F047FFF77EBBC3
S3156000B640012F07D82846414632462346BDE8F047D3
S3156000B650FEF702BA2B68D3F88C301A6F01321A677C
S3156000B660404621460022BDE8F047FEF389B12DE948
S3156000B670F04790F8A03186B00446002B40F0EB808E
S3156000B6800368187E002800F0E780012384F8A03163
S3156000B690206901F019FE2369054693F8EA2052B144
S3156000B6A0DB6E40F20440D3F820311840B0F580607C
S3156000B6B018BF012002E0186E04F0BDFD08B1002637
S3156000B6C06DE0D4F8680104214BF0A2DD20461EF03F
S3156000B6D095D800B90135264604F12007D6F84C8284
S3156000B6E0B8F1000F57D098F80690B9F1000F52D113
S3156000B6F040462FF05BDE98F805302D18002B4AD0B7
S3156000B7002368204693F831304146002B3CD0D8F868
S3156000B710CC30DB0738D507F049F823682D1893F845
S3156000B7209530002B37D0D4F86C122046BC314CF0E3
S3156000B73065DE824678B3204651461EF07DDA9AF879
S3156000B74018309A071AD5022150464CF0A9DA082219
S3156000B750CDF80090019298F81220D4F86C32D2F1AC
S3156000B760010238BF00220292204641460B22BC33BA
S3156000B770CDF80C90CDF8109014F000D8D4F86C3257
S3156000B780012283F8F02006E036F0AAD92D184FF48E
S3156000B7907A60FDF311F60436BE429FD18FE7D4F886
S3156000B7A0B4249219136B13B1506A98472D18343626
S3156000B7B040F2AC439E42F2D194F8F1314BB1A068AD
S3156000B7C0D4F8AC1106F07ADD00B90135002384F8AF
S3156000B7D0F1312046FAF7E8FC236800211976236BDD
S3156000B7E04FF0FF324519186908F07CFF204611F0CA
S3156000B7F07FDCD4F8786207E00023311D606801229F
S3156000B8000093FAF34FF13668002EF5D1236893F86A
S3156000B8102F3083B1264604F12007D6F84C1239B191
S3156000B8208B792BB10B791BB1204606F0BFFF2D1823
S3156000B8300436BE42F1D1D4F87C0210B106F017FB93
S3156000B8402D18206901F0D9FD0023401984F82930AC
S3156000B85084F8A03100E0002006B0BDE8F087000063
S3156000B860044B1A6822B1012280F89D2300221A60D7
S3156000B870704700BF00100200F8B514461D46D2F8A6
S3156000B880F030D278B4F8566003EB4203B3F8BE20CA
S3156000B890F64396193605360DB4F85A300F467119C7
S3156000B8A0994215DD6178994254D8A178002951D121
S3156000B8B0013A1205120D9E42A4F8562002D89D1B2D
S3156000B8C0ADB22DB924480021324606F0D3FF0025DB
S3156000B8D0B4F85A309E1BA378761BEB18A4F85A600E
S3156000B8E0A37035E0E17807F11000FAF35DF1436A81
S3156000B8F0024643F480634362E078D4F8F0105C302B
S3156000B90001EB4000C6884FF0010E33051B0D013672
S3156000B910C68003F03F0604EBD60006F007060EFA73
S3156000B92006F6138590F844E0A4F8563046EA0E060B
S3156000B93080F84460E378D1F82C01DFF820E003F06A
S3156000B9400703866C1EF80330C06CB047013DADB28C
S3156000B950002DC7D1F8BD00BFF4C3010090E085009B
S3156000B9602DE9F04192F8E53006461446D0F840518C
S3156000B970ABB12A460023D2F85012A14204D19433C7
S3156000B980002245F8232003E0013304320A2BF2D16A
S3156000B99070682146F422BDE8F041FDF3D9B782F81C
S3156000B9A0E4308B073FD5B2F85430B2F85C802BE0B8
S3156000B9B003F03F0104EBD10292F84CC001F007009E
S3156000B9C04CFA00F717F0010F1BD04FF0010E0EFA7C
S3156000B9D000FE92F844706FEA0E0E57FA00F05FFAB6
S3156000B9E08EFE0EEA0C0CC00782F84CC009D50EEA32
S3156000B9F0070782F84470611800220A71A278013A3A
S3156000BA00A27001331B051B0D4345D1D1D4F8F0203C
S3156000BA106B682846D158224624F050DE94F8E83008
S3156000BA20013B84F8E830D4F8F0206B683046D15892
S3156000BA30224625F027DCD6F8400121460022BDE8E3
S3156000BA40F04125F0219B000037B5044694F89D53DC
S3156000BA500068012D08D113F095D8022804DD002373
S3156000BA6084F89D33054B1D60217D94F92820009153
S3156000BA70E37C0349034806F0FDFE3EBD001002006C
S3156000BA808FC4010030C401002DE9F0479688054651
S3156000BA9017460468B2F80AA006F007064FF00008D9
S3156000BAA037E00B696068B3F80090D5F878329A6E23
S3156000BAB001329A660122FDF363F7236893F8A13099
S3156000BAC0012B04D009F4C069B9F5C06F17E01821DD
S3156000BAD0714301F520716B18DA885888904202D15B
S3156000BAE0695AD98001E00132DA8008F10108012241
S3156000BAF0204631461FFA88F821F0A6DDD0450AD0E7
S3156000BB002369022103EB8603D868134B9B6B984726
S3156000BB1001460029C5D1236893F8A130012B05D0D1
S3156000BB202046314695F92C2021F08EDDFB889A0758
S3156000BB3009D4BDE8F087013D0120EDB2FDF33CF488
S3156000BB4015B9BDE8F0870B25E368D3F87031DB07DC
S3156000BB50F1D5BDE8F08700BFE0A685002DE9F34783
S3156000BB60D0F80080044601A9D8F800054CF0E2D868
S3156000BB704FF0000A39E06B685A0336D563680026D1
S3156000BB8055F803904F46D7F8F8304BB39A78197941
S3156000BB90002A18BF4FF0010A19B100221A71DA7033
S3156000BBA01EE0EAB1DA780132D2B2DA706B6813F469
S3156000BBB0807F14BF618EA18E4FF06403B1FBF3F3F7
S3156000BBC09A420BD3D4F878324046D3F8C42049461B
S3156000BBD00132C3F8C420324625F0F4D84FF0010A8A
S3156000BBE00136F6B20437082ECDD101A84CF0AAD89A
S3156000BBF005460028BFD1BAF1000F06D1236884F844
S3156000BC00A3A39868A16B06F059DBBDE8FC8743687F
S3156000BC10F7B5CD5806462F460024304629462246BB
S3156000BC2023F09EDBD7F8D8304BB11B78012B06D1B9
S3156000BC302522009230462946224625F0B3DA22466E
S3156000BC400134012330462946E4B223F0F5DA04379D
S3156000BC50082CE2D1326800230093506805F1100188
S3156000BC600122F9F31FF7FEBD10B5036804465B7E3B
S3156000BC707BB90849084806F0FDFD2046FFF7F7FC4A
S3156000BC800449064806F0F6FD2046BDE81040FCF77C
S3156000BC901BBB10BDB2C4010075C4010083C40100A2
S3156000BCA02DE9F04FD0F8008087B0054605A9D8F891
S3156000BCB000054CF03FD800220392E5E0029A5368F3
S3156000BCC05B0340F1E180D8F840314FF0000A5B68D1
S3156000BCD0D658B146D9F8F8300AF18C015FFA8AF77E
S3156000BCE006EB41021BB10023537006F8113016F8BB
S3156000BCF0113083B1002306F8113051780131C9B291
S3156000BD000229517007D9537026220092284631467F
S3156000BD103A4625F047DAD9F8D840002C00F0AC80D6
S3156000BD202378032B00F2A880DFE803F09502607D9C
S3156000BD30284631462246012325F064DA94F8E7B0B6
S3156000BD40BBF1000F1CD0BBF1010F11D1E17806F1F8
S3156000BD501000F9F329F7014650B1D8F800305A4679
S3156000BD60D868FDF30DF6D5F87832DA6B0132DA630E
S3156000BD70002284F8E7202846214625F085D97BE015
S3156000BD8094F8E830312B08D92723009328463146AA
S3156000BD903A46012325F006DA6EE094F8E63023B1E0
S3156000BDA084F8E6B084F8EBB066E0A37823B194F843
S3156000BDB0EB30013384F8EB3094F8EB30022B5BD137
S3156000BDC0D5F8783228465A6E314601325A662723AC
S3156000BDD000933A46012325F0E5D9012328463146EA
S3156000BDE03A4623F029DA0123039345E094F8E930D3
S3156000BDF05A1C032B84F8E92004D93046214623F0E7
S3156000BE00E9D939E0AA7CEB7C009295F82E20286867
S3156000BE10019202993A4625F0FDDCD5F878321A6D22
S3156000BE2001321A6528E094F8EA305A1C012B84F82E
S3156000BE30EA2009D9D5F8783228465A6E3146013259
S3156000BE405A663A46012303E0284631463A460023BD
S3156000BE5023F0F2D910E094F8EC305A1C3B2B84F8AE
S3156000BE60EC2009D9284631463A46002324F082DC84
S3156000BE7010B1042380F8E9300AF1010ABAF1080F1B
S3156000BE8009F104097FF426AF05A84BF05BDF029049
S3156000BE9000287FF413AF039A094B12B11A68013276
S3156000BEA000E0039A1A601B68012B05DD4046FFF728
S3156000BEB0DBFE034B00221A60002007B0BDE8F08F5E
S3156000BEC004100200F8B505461746C1B14B685B031E
S3156000BED015D543680024CE583319D3F8D81059B114
S3156000BEE037B191F8E430012B02D1002381F8E430B8
S3156000BEF02846002225F0C8D80434202CECD1F8BDA1
S3156000BF002DE9F043138C85B0082B04468946154607
S3156000BF1092F82280066801D0304620E04368CF5808
S3156000BF2008F13E03116857F82320DAB9AB699B889C
S3156000BF3003F00303022B0FD111F8033C1B070BD54B
S3156000BF40012308F18C0807F81830D0F87832D3F856
S3156000BF50B4200132C3F8B420304649462A46FEF77B
S3156000BF60FBF912E1D9F80430D80315D4AB699B8884
S3156000BF7003F00303022B0FD111F8033C1B070BD50B
S3156000BF8008F18C03012007F81300D4F87832D3F84F
S3156000BF90B4000130C3F8B400AB699B8803F00303B7
S3156000BFA0022BD4F8783238D111F8030C00071ED56D
S3156000BFB0D3F89C000130C3F89C00D3F8A000013090
S3156000BFC0C3F8A00011F9030C002804DAD3F8AC001A
S3156000BFD00130C3F8AC0011F8031C01F030011029E0
S3156000BFE020D1D3F8B0100131C3F8B0101AE011F8BF
S3156000BFF005CC11F8060C11F8041C4CEA000001434C
S3156000C00005D1D3F8A0100131C3F8A0100AE0D3F827
S3156000C010A4100131C3F8A41004E0D3F8A8100131CC
S3156000C020C3F8A810B5F87E10080740F09A80D38848
S3156000C0300909994223D10123C91809051371090D0C
S3156000C040D180D9F8284009F11A01062202A8F8F32E
S3156000C050C3F5304649462A46FEF77EF9304602A9C0
S3156000C06022464CF0D5D9002800F08F80484540F034
S3156000C0708C8030463946424624F040DF85E001F048
S3156000C0800F09C91A09055378090D994205D209F1B4
S3156000C090020352F8231019B944E0B1F5006F0CD9C8
S3156000C0A0002270686969FDF36BF4D4F87832D3F8CE
S3156000C0B0C0200132C3F8C02067E0C3F10103CB188A
S3156000C0C09BB230463946424624F0ACDE08F13E0368
S3156000C0D057F823306BB1696909F1020243F82210FF
S3156000C0E0D5F8802009F1120943F829209A7801329F
S3156000C0F09A7042463046394624F000DFD4F87832EA
S3156000C100D3F8C8200132C3F8C82094F8A333002BB3
S3156000C1103BD1012384F8A333B068A16B642206F097
S3156000C12085D832E0696909F1120942F82310D5F819
S3156000C130803042F8293093780133937094F8A333B2
S3156000C1403BB9012384F8A333B068A16B642206F07F
S3156000C1506DD8D4F87832D3F8BC200132C3F8BC204D
S3156000C16013E0706869690022FDF30AF4D4F8783246
S3156000C1702046D3F8DC2039460132C3F8DC2001239F
S3156000C18000934246002325F00DD805B0BDE8F08344
S3156000C19003681B6819B1012283F8AA20704783F8E7
S3156000C1A0AA10704770B5D0F8AC5302292B6808BF47
S3156000C1B000F57574D3F88C2018BF0024136C0646FE
S3156000C1C050682269C3189A1A2361A3699A42237830
S3156000C1D00ED24BB9E26863699A4205D30123237094
S3156000C1E063680133636070BDE3680133E36070BD0B
S3156000C1F00022E26013B3012904D12846032120F00E
S3156000C2003DDD19E0022917D1A868D6F8D01306F0EB
S3156000C21055D8D6F8CC337BB12B6893F87430012BA4
S3156000C22007D02869012133F07BDF2B68012283F870
S3156000C23074200023C6F8CC330023237070BDD0F879
S3156000C240AC0370472DE9F04FD0F8AC83D0F8B0035B
S3156000C250CFB00790D8F868011D4683790F4692469D
S3156000C26013B104214AF0D4DFBB791BB13B79002BB3
S3156000C27000F07E81BAF80040B5F8009014F480446E
S3156000C280B5F802B040F06181BBF1010F40F0318139
S3156000C29076E0D4F8D830002B00F06A8195F80390E8
S3156000C2A09DF868314FEA991903B309F1A00358F86C
S3156000C2B02360DEB13369CBB1337ABBB12946032241
S3156000C2C04AA8F8F389F44AA806F1140132690330E2
S3156000C2D0F8F382F431694AA8033109AAFEF36AF7D2
S3156000C2E0589B281D191F09AAFEF394F707EB8903CB
S3156000C2F05B6F002B33D01A6958982946143303F0C4
S3156000C30035DC60B3B5F80490B5F806B0B9F1010F45
S3156000C3101DD1BBF1030F1AD1AB7A102B17D1D4F80C
S3156000C320D80005F10C01EA7A0230F8F339F40546D3
S3156000C33068B92046494697F948204BF029DF84F8CA
S3156000C340DE90204649462A464BF022DF0CE0204626
S3156000C350012197F948204BF0ADDC0F2504E00F254D
S3156000C3604FF0030B4FF00109D4F8D810079B4A78B9
S3156000C370D8680232FDF3ECF20023C4F8D830B9E095
S3156000C3803E6DFB6C7D6DB6B10AE029460AF10A0086
S3156000C39006220693F8F304F40635069B10B10134C1
S3156000C3A09C42F2DB012E02D19C4228DB03E0022E86
S3156000C3B001D19C4223DAB8F8823144F21D329342AD
S3156000C3C02DD00AD844F21632934228D044F21A325B
S3156000C3D0934224D044F213320DE044F22A3293425F
S3156000C3E01DD002D844F2213205E044F22D32934248
S3156000C3F015D044F25232934211D0002210E000264A
S3156000C40003238DE84800404617210AF10A023346A5
S3156000C4100296039601251AF07BD9344680E0012204
S3156000C4200AF10A04214640464BF0F2DF014610B19C
S3156000C43040464BF0F5DF214640464CF0F9D80446BD
S3156000C440002800F08C8039464BF0D4DD6368DA044E
S3156000C45008D5079991F83020002A40F0828023F4AD
S3156000C46080536360404621461DF0E6DBB9F1000F5C
S3156000C47003D0B9F1010F76D112E0B7F95C3097F9C4
S3156000C48048202046012113B94BF082DE01E04BF0D3
S3156000C49011DC267E16F0010666D0002635462EE0B3
S3156000C4A0D4F8D81041B1079B4A78D8680232FDF3B8
S3156000C4B04FF20023C4F8D830B7F86250002D52D13D
S3156000C4C00799C8688221FDF333F2064600284DD0ED
S3156000C4D01023037080234370D8F80C30B3F85A26C3
S3156000C4E073190135802D9A70F6D1C4F8D86000258D
S3156000C4F005E00E25BBF1030F3AD8002685B97CB15D
S3156000C500237EDB070CD54046394604220AF10A032E
S3156000C51000950195CDF808900395049513F02ED9F2
S3156000C5200BF101030193002303939DF864313846B0
S3156000C53005930AF10A0107F1BC022346CDF8009083
S3156000C540029504961EF018DA12E040460AF10A01D6
S3156000C5504BF054DF044600287FF49BAE08E00646A5
S3156000C56004E0002602E000260D25D9E70125D7E77D
S3156000C5704FB0BDE8F08F30B59DF810509DF814406F
S3156000C58004950594BDE83040FFF75CBED0F8C00363
S3156000C5907047C0F8C0137047D0F8AC331B68DB69CE
S3156000C5A018690428A8BF0420704770B5036B00257E
S3156000C5B080F8D058D0F85C610446186908F020F914
S3156000C5C0014630463CF0E2DA30B1204601212A4687
S3156000C5D0BDE870401AF0109B70BDF0B504688BB072
S3156000C5E005460021E6681FF0B5DB284612F0FADF43
S3156000C5F0D4F8E4366BB1A068D4F8741505F05EDE45
S3156000C6000023C4F8E43694F8583523F0020384F81E
S3156000C6105835D4F85C013CF099DA236993F8EA203E
S3156000C62062B1DB6E40F20440D3F820311840A0F5C9
S3156000C630806CDCF1000040EB0C0006E0186E03F045
S3156000C640FAFDD0F1010038BF002000283ED0204618
S3156000C65006F0BAF8236BD4F85C71186908F0D0F864
S3156000C660014638463CF092DA30B194F8D0281AB9CF
S3156000C670204601211AF0C0DA284613F04DDD4FF04E
S3156000C6800043C6F888310F21206933F0EFDE206958
S3156000C69040F2FF3133F0D8DE236B1B68022B04D1E6
S3156000C6A0206994F8431633F03DDF204618F00CDD20
S3156000C6B0204618F0D5DA0AA9002341F8283D20461D
S3156000C6C069461CF05FD920461FF0B4DC0BB0F0BDA4
S3156000C6D02DE9F0410768044686B038460E46154691
S3156000C6E098461DF0B3D910B138461DF0A7D90C9BFA
S3156000C6F03846029300230393049321460B222B466C
S3156000C7008DE8400113F03AD806B0BDE8F08100002C
S3156000C7102DE9F04F0468D0F8D8B2D0F8D01297B0AF
S3156000C7200546D0F8E8A2204607911FF00BDDDBF83E
S3156000C7300010A06805F0C2DD284602212EF0ECDE6E
S3156000C740DBE1D4F8D826013352F82360B6F832809C
S3156000C75008F47043A3F580514B4243EB01030E335B
S3156000C76054F8237008F44063B3F5406F24D123680E
S3156000C77093F846309A0711D0D4F85C0179683BF09B
S3156000C780EDDD03070AD497F8EC303BB13B68022B2A
S3156000C79012D1D4F8FC349B7898070DD54046F9F34E
S3156000C7A071F340F430639BB20E288CBF4FF480580F
S3156000C7B04FF4005848EA0308D4F85C0141463CF05F
S3156000C7C01DDC002800F09481708EF9F35BF340F471
S3156000C7D030601FFA80F8708EF9F354F30E288CBF20
S3156000C7E04FF480514FF4005148EA010128462DF07C
S3156000C7F047DF002800F07C81D5F8E832002B74D042
S3156000C800D3F8DC30002B70D00023A5F85C3096F8A6
S3156000C810AA004FF00C0808FB00A0F2881C3002F05A
S3156000C8208002D2F1010238BF002214A9F9F390F414
S3156000C830BDF85010A5F8621096F8AA0013A908FB77
S3156000C84000A02030F9F3E2F4139B2BBB96F8AA30D4
S3156000C850042208FB03A815A808F12401F8F3BCF12B
S3156000C86015A892490422F8F39BF148B996F8A930C5
S3156000C870A3F10802D2B2022A40F23A818DF857300B
S3156000C88015A813A9F9F3C2F430B90C2300900193EB
S3156000C89096F83230029306E1139B2046590744BF4F
S3156000C8A043F002031393139B81499A0744BF43F0F5
S3156000C8B00103139313AB00930423019301230293A3
S3156000C8C0AB68002203931346F9F7F6FE072300933D
S3156000C8D00023019396F8AA202046029203930493BC
S3156000C8E029461822334612F049DFB6F86230D80678
S3156000C8F00AD5AA6D40F2371313402BB96D4B1B78DE
S3156000C90013B90093012234E03046F8F345F618B1C6
S3156000C9100023009302222CE02B6D002B2ED023687F
S3156000C92093F8303063B129E0696D30464944062298
S3156000C930F8F336F109F1060938B108F1010801E0AA
S3156000C94099469846EB6C9845EED32B6D012B03D137
S3156000C950EB6C984506D311E0022B0FD1EB6C984532
S3156000C96004D20BE000230093032202E0002300932D
S3156000C9700422019296F832200292B1E0236893F87D
S3156000C980953083B1D4F84C35012B09D1304604F586
S3156000C990AA610622F8F304F1002840F0A98002E0BB
S3156000C9A0022B00F0A58096F93480B8F1000F11D102
S3156000C9B0D4F85C01718E3CF0B5D958B10523CDF839
S3156000C9C00080019396F83230CDF80C800293CDF852
S3156000C9D0108087E0B5F862305BB1AA6D40F237131C
S3156000C9E0134033B12046294632462EF06BD80028D4
S3156000C9F07ED13B6806F13800022B07D17A7D2AB9D1
S3156000CA00FF230093019209A9012313E0236893F899
S3156000CA10463013F0030307D0D5F8CC3003F48053C7
S3156000CA20D3F1010338BF0023FF228DE80C000022FA
S3156000CA3009A9134647F090D9236B503793F8EC1049
S3156000CA4039B1718E01F44061B1F5406F14BF1421A4
S3156000CA502821384647F028D9D4F8603609A83946DF
S3156000CA6000229B7847F0BAD810B90090092318E0E5
S3156000CA709DF8382094F838379A4239D196F934308F
S3156000CA80D3B9728E204602F4704206F13801B2F5CF
S3156000CA90805F14BF022201222DF0B8DD60B90090DC
S3156000CAA00A2301930290039004901BE02CBE0100C0
S3156000CAB017738600C00F0200236893F830300BB3FB
S3156000CAC0204631464BF09ADCE0B1037E990719D5D2
S3156000CAD0436813F4805315D10D220093019202939B
S3156000CAE003930493204629461722334612F046DE06
S3156000CAF0D4F8DC36013BC4F8DC36D4F8DC36002BDF
S3156000CB007FF41FAED4F8DC66F6B100228BF81E20E7
S3156000CB10D4F8DC36D4F8D816581E013351F82330D1
S3156000CB20DBF80410C4F8DC06012909D000920192F2
S3156000CB3002920392049220462946202212F01EDEBB
S3156000CB40284630F0EDDA29E00799EA7991F9343030
S3156000CB504AB10121D3F101032846324638BF00238A
S3156000CB602EF0C2D909E00121D3F10103284638BF6E
S3156000CB700023009201922EF0F1DA95F91030022B23
S3156000CB8003D1E86800214FF01DDB94F87532284622
S3156000CB9023F0040384F875322EF08EDA17B0BDE800
S3156000CBA0F08F00BF2DE9F04F056889B09A4600F511
S3156000CBB0347393E8080303932B68044693F83F3075
S3156000CBC08B461646002B00F06881C379002B00F077
S3156000CBD06481837C05A813B104F1D60100E0414667
S3156000CBE00622F7F3F9F7002385F84A352B6893F8A0
S3156000CBF044301BB1D5F8640138F052D82B6993F8EC
S3156000CC00EA2042B1DB6E40F20447D3F820311F4080
S3156000CC10B7F5806703E0186E03F00DFB071C18BFBD
S3156000CC200127C7B10021204631F008DB2046FFF717
S3156000CC30D4FCA37C2046D3F1010338BF00230093C4
S3156000CC40002105AA0823FFF743FD002120460A4676
S3156000CC5034F0C2DD24E1A37C002B00F08C80D4F894
S3156000CC60DC32D3F8901041B193F894206868FCF3F5
S3156000CC706FF6D4F8DC32C3F89070D9F8083023B177
S3156000CC800D2B02D020462EF091DBD5F868010421E9
S3156000CC904AF0BEDA05A928464BF0B0DB00273946D4
S3156000CCA0814684F8947020461EF066DD394620463B
S3156000CCB01BF024DD2046394611F016DFBBF1000F6C
S3156000CCC041D004F1BC00F8F377F400283BD12B6B1C
S3156000CCD0B8F83270186907F093FD874233D1D5F8FA
S3156000CCE05C01B8F832103BF0A1DF30B9D5F85C01D1
S3156000CCF0B8F832103CF016D868B166B9D5F85C0160
S3156000CD00B8F832103BF042DF28B9012385F8D038F5
S3156000CD10B246654F00E03746082305A901932846C9
S3156000CD2004F1C2030A46CDF800901DF08BDF03467E
S3156000CD3050B14FB13946284652461AF04FD90028AD
S3156000CD4008BF002700E03746B9F1000F30D04846EB
S3156000CD500E214AF0A5DF2B6893F8443023B1D5F84D
S3156000CD606401494637F0B0DF494628461CF064DF67
S3156000CD704FF000091CE02B6893F8953083B1D5F825
S3156000CD80000507A94AF0D6DF05E043689F0044BF67
S3156000CD9023F00053436007A84AF0D4DF0028F4D19B
S3156000CDA04FF0010984F81290204618F0ADDF37463F
S3156000CDB02046002131F042DA05F500712846063139
S3156000CDC021F0DCDD2B6893F83F3093B995F947265F
S3156000CDD085F84236013208BF85F8433628461BF08F
S3156000CDE0ADDB2B6893F84630980702D028461BF0D7
S3156000CDF0C1DB04F1BC0B5846F8F3DEF3014630B9EB
S3156000CE00204605AA0823CDF80090FFF761FC95F847
S3156000CE107232204633B9D5F86C329C4202D1FFF7A4
S3156000CE20DCFB04E013F078D9204612F0DBDBD8F89F
S3156000CE30641049B16868B8F86820FCF389F5002386
S3156000CE40C8F86430A8F86830022305AA009328461B
S3156000CE502346002119F02CDA2046002119F0FADB6E
S3156000CE60204619F063DB284606F08AF81FB128468B
S3156000CE7000215246B8479EB920463146324634F0C4
S3156000CE80ABDC314606220398F7F30AF7584631467B
S3156000CE900622F7F305F7304603E04FF0FF3000E077
S3156000CEA0002009B0BDE8F08F4B9900002DE9F04FE6
S3156000CEB0062989B007460D4690469B469DF848A0D0
S3156000CEC0D0F80090D0F8D86249D000292CD1BAF1B8
S3156000CED0000F03D14846394635F098DC99F872421E
S3156000CEE0002C3DD0D9F8000507A94AF023DF02E0FF
S3156000CEF0237E9A0733D407A84AF024DF0446002825
S3156000CF00F6D150E0D9F83030186907F079FCD7F8D7
S3156000CF10D4325B8E834223D048462AF00DD9D9F8A5
S3156000CF2034072AF027DD1BE0B368093B012B16D8CE
S3156000CF30484611464BF062DA10B10C214AF0B0DE79
S3156000CF40022D0AD0D9F80800316805F0B7D9052D49
S3156000CF5005D84FF0C843AB4001D5012400E000245A
S3156000CF608DE82008139B48460293336C3946039339
S3156000CF70736CBAF1000F0CBF072209220493434673
S3156000CF8012F0FCDB9CB1052D01D0022D07D1B27FDA
S3156000CF90337F9A4203D2384630F0C2D807E038462B
S3156000CFA0FFF7B6FB03E07368032BABD1D8E709B094
S3156000CFB0BDE8F08F70B5114686B0054616464BF053
S3156000CFC01DDA0446002824D090F8DF3023B12846C5
S3156000CFD02146012206F0D3FC20464AF095DFE3683D
S3156000CFE01BB1284621463DF079DD002303220093DC
S3156000CFF001920293039304932846216905223346DE
S3156000D00012F0BCDB2846214606B0BDE870404BF006
S3156000D010079A06B070BD00000048704754D1010001
S3156000D0200048704774D2010010B506490446406E48
S3156000D030F8F3FEF228B9606E0349BDE81040F8F3D4
S3156000D040F7B210BD0DAA86000AAA860070B50C4616
S3156000D0500569164608460A220021F7F321F6638819
S3156000D0601E43EB6C6680980603D5238843F4806381
S3156000D0702380AB6F42F25002198C914205D15B8CD2
S3156000D080052B9CBF46F00406668070BDD0F8EC1098
S3156000D09010B5044631B100680C22FCF359F4002344
S3156000D0A0C4F8EC3010BD0121836F10B580F8901084
S3156000D0B00446586A07F07CF92046022131F03CDCD0
S3156000D0C0A368986805F040D9002010BD00EB810385
S3156000D0D0DB6F0A468367836801F10E0153F82110FE
S3156000D0E0196390F8EB305BB190F8E83043B94FF4D0
S3156000D0F00051006E002A0CBF0A46002200F0C29C56
S3156000D100704700002DE9F3470646884622B18368DA
S3156000D1101B68DB695F6B01E04FF0FF370025AA46AD
S3156000D1202C460AE0BAF1000F02D0CAF8040000E00B
S3156000D13004460135BD420AD28246DFF85C9006EBB2
S3156000D1408802D9F86830D06898470028EAD1304616
S3156000D1506A4601A933F09ED806EB8802D9F86C308E
S3156000D160D06898470FE00023D4F804802169636093
S3156000D170019B8B61B36F586A08F01AFE2146B0684E
S3156000D180FEF7F4F94446002CEDD1BD4234BF0020D1
S3156000D1900120BDE8FC8700BFE0A68500F8B50E4615
S3156000D1A00131044603D1836F5E6A06B19E6994F8C5
S3156000D1B0E9501DB92046294631F0BEDB206E00F0ED
S3156000D1C0C1DD78B10027E319D86810B1254B9B689B
S3156000D1D098470437182FF6D1E3681BB12046002123
S3156000D1E031F0F6DB94F8E82042B1A36800222046CD
S3156000D1F00321DA61BDE8F84032F02A9D46F0040169
S3156000D20084F8EA20206E00F04DDCA36F012184F8DB
S3156000D210EA101BB1586A08B107F0C5F8204631F02C
S3156000D220AFDCE36E206ED3F8E021012122F020020C
S3156000D230C3F8E021FBF3E0F40021204631F07CDB0B
S3156000D240204632F0F7DD2046012132F0CBD9A368C3
S3156000D2500022DA612DB920460221BDE8F84031F09E
S3156000D2606B9BF8BDE0A68500836810B51A681B69DC
S3156000D270D2F88C200446D2F8B4100131C2F8B4104A
S3156000D28093F8EA205AB1DB6E40F20440D3F82031BD
S3156000D2901840A0F58061484240EB010006E0186E38
S3156000D2A002F0C9FFD0F1010038BF002020B120464E
S3156000D2B04FF0FF31FFF772FFA06831F0D7DBA0684F
S3156000D2C0BDE810401CF0309A38B5044690F89000DE
S3156000D2D000282BD0A3681B6993F8EA2052B1DB6E55
S3156000D2E040F20445D3F820311D40B5F5806518BF7E
S3156000D2F0012503E0186E02F09EFF0546A36815B18E
S3156000D30000221A620CE0986805F014D82046294677
S3156000D31031F012DB94F8E83013B9204631F02ADE9A
S3156000D320A36F586ABDE8384007F0AEB838BD10B58F
S3156000D33004694FF440412046002232F089DCD4F87B
S3156000D340F83020461B6913B131F058D801E031F04E
S3156000D35011DEE16C206E11F0020118BF4FF400710E
S3156000D3600A460023BDE8104000F03C9C38B583684F
S3156000D37004461B6893F82050FDB9012133F0DEDACC
S3156000D380206E02F03CFE2046294631F0D5DA204672
S3156000D39031F0F0DDA068D0F848381B780BB131F079
S3156000D3A01BDCA36F586A06F0F3FF002384F85E3037
S3156000D3B0A36801221B6883F8202038BD38B5012197
S3156000D3C0044633F0BBDA206E02F019FE20460021D7
S3156000D3D031F0B2DA204632F00DDF054630B1204634
S3156000D3E0002133F0ABDA6FF0080038BD20464FF00D
S3156000D3F0FF31FFF7D3FE284638BD38B5044690F8AE
S3156000D4009000002844D0A36F002184F89010586AD9
S3156000D41006F0CEFFA3681B6993F8EA2052B1DB6E73
S3156000D42040F20445D3F820311D40B5F5806518BF3C
S3156000D430012503E0186E02F0FEFE05466DB100257B
S3156000D440A36F84F8EB5084F8EA50586A294606F0D0
S3156000D450AAFFA06831F00ADB19E0206E00F072DCEA
S3156000D46078B1E36ED3F82031D80702D5204633F081
S3156000D47095D8A3689868F8F711FC0546204633F0FE
S3156000D4807BDA94F8E81011B9204633F057DA28466B
S3156000D49038BD000070B5082986B004460E4600F314
S3156000D4A0F48083687D491B685869F8F395F0082E07
S3156000D4B01CD1236E9A69920002D5DA69D60708D51F
S3156000D4C0E26CD10708D5226D120605D4DB69DB074D
S3156000D4D002D5636D9E0003D4266D16F080060FD0CC
S3156000D4E046B2022ECCBF0526012600E046B1D4F82E
S3156000D4F0F8305B68022B03DDA36D990040F1C880AC
S3156000D5000A2203A80021F7F3CBF3D4F8F8300022FF
S3156000D5101A8194F8905065B1E26ED2F8205105F008
S3156000D520010546B91B68002B64D0204631F022DD28
S3156000D53060E0002E5DD0BDF80C20596842F0100204
S3156000D5400229ADF80C20626D03D122F000526265AB
S3156000D55026E042F000526265720701D414221A81F5
S3156000D560226E9069800002D5D069C00708D5E06C4C
S3156000D570C0070AD5206D000607D4D269D00704D546
S3156000D5801A8942F040021A810AE0042905D1BDF8E1
S3156000D590102042F40052ADF8102000221A61DA60C1
S3156000D5A05A68022A12D1E26C12F4804FBDF80E203E
S3156000D5B008D042F48072ADF80E203022DA60202264
S3156000D5C01A6103E022F48072ADF80E201A8916F013
S3156000D5D0020F14BF42F0010222F001021A811A8979
S3156000D5E016F0040F14BF42F0080222F008021A81F6
S3156000D5F00AE03546BDF80C3023F01003ADF80C3068
S3156000D600636D23F000536365D4F8F830616D1E6076
S3156000D610A36F586A07F09FFB94F890301BB115B161
S3156000D620204632F0BBDF0226BDF80C3020460021D2
S3156000D6301022009632F01EDBBDF80E302046012126
S3156000D6404FF48072009632F015DBBDF8103020463C
S3156000D65031464FF40052009632F00CDB204631F032
S3156000D66029D994F89000B8B1A36F1B68B34206D16C
S3156000D670D4F8F8301B6813B1204630F0BFDE55B1E0
S3156000D680204631F0E5DF002006E06FF0010003E0A0
S3156000D6906FF0020000E0284606B070BDC65C8600EA
S3156000D6A0F7B58568C66E2B680446DB6906271B6A74
S3156000D6B06946C5F8AC38304B3A46186800909B8886
S3156000D6C0606CADF804302D4B07FB00301838F7F36B
S3156000D6D083F20423C5F8AC38032385F8A938A0681B
S3156000D6E020F0E4D920B1D5F8AC78BF000137BFB2DD
S3156000D6F0D4F8B8300022995C380A791889B20139B1
S3156000D700FDB245EA012500F0010001F4807108438D
S3156000D7106FEA42616FEA5141A6F84015A6F82055B6
S3156000D720A6F82C05A6F84015995C01327F18062AE2
S3156000D730BFB2E0D1204698215A7833F0BBD8D4F8EE
S3156000D740B83020469A219A7833F0B4D8D4F8B830F5
S3156000D7502046DA781B789C2143EA022233F0AAD865
S3156000D760D4F8B83020465A791B799E2143EA0222C2
S3156000D77033F0A0D8FEBD00BF58BE010018060200F7
S3156000D780F0B50469064685B02046922132F078DD10
S3156000D790400080B2A6F8420050B300250F216846CB
S3156000D7A0144A2B46F7F3C0F2606E6946F7F340F70A
S3156000D7B060B16946606EB6F84270F7F30DF707EB35
S3156000D7C0450782B23946204633F074D80135772D45
S3156000D7D0E4D1606E0849F7F32BF748B1606E0649ED
S3156000D7E0D4F8F850F7F3F8F62881204631F062D87D
S3156000D7F005B0F0BDAEAC8600177C8600816F10B5B3
S3156000D8000831044631F062DBFFF706FC014620462C
S3156000D810BDE8104031F03A9B10B5836F064A1C6A2A
S3156000D82040F2EE239421944214BF1A464FF41662D6
S3156000D830BDE8104033F03E985020080073B5046987
S3156000D840054620460E46FFF7D9FFA36F3146586A54
S3156000D85007F006FC2B68012283F87420204631F01D
S3156000D8606DDAA36F2046998A32F000DEA36F2046F8
S3156000D870D98A32F0E9DD204694F8861030F0EEDF82
S3156000D880A36F204652219A8B33F014D8A36F502190
S3156000D890DA8B204633F00ED8204631F071DA204616
S3156000D8A0FFF7BAFF032300932046042108220023D2
S3156000D8B032F0E0D9204602B0BDE8704030F09E9D5F
S3156000D8C02DE9F041174604460D46BDF818209DF82F
S3156000D8D01C6098463BB183680C31DB6A03EB4103FD
S3156000D8E09988711899804FF6FF739A4203D0204643
S3156000D8F0A82132F0DFDF04EB8503D868094B39468F
S3156000D90042465B6A984700280ADAB8F1000F07D0EA
S3156000D910A3680C35DB6A03EB4505AB889E1BAE80BE
S3156000D920BDE8F081E0A685002DE9F041046986B086
S3156000D9304FF0FF314A4A06462046E56E32F088D9F6
S3156000D940D4F8F83020461968FFF7A4FDA36D2BB113
S3156000D9500323A5F8B436FF23A5F8B836E36CDB07D6
S3156000D96024D5404B1A680ABB01211960236D206ECD
S3156000D9701F0603D5032102F0ACFB17E002F0A9FBFA
S3156000D980236D9A0012D42046922132F079DC47004A
S3156000D990BFB25FB1CE373946204632F071DC40F017
S3156000D9A040023946204692B232F084DF4FF0FF31B2
S3156000D9B0C5F8281120462C4A32F04AD92B4F02E08E
S3156000D9C00A20FBF3F9F4D5F82831DB0701D4013FCF
S3156000D9D0F6D13046D5F82831FFF7A9FCD4F8F430F3
S3156000D9E02BB9236E9A6A40F294539A4213D1206EF1
S3156000D9F01F4A836B9A18012A07D94AF6E6029342B0
S3156000DA0003D04AF6E502934205D108230021282275
S3156000DA10009300F06BD800210A46206E00F04AD8C9
S3156000DA20FFF7FEFA0146204631F030DA2046FFF76E
S3156000DA3037FE4FF48033009320460623982103AACD
S3156000DA4031F064DD336893F8383023B3304620F024
S3156000DA502DD801281FD100270597B84616E000BFCC
S3156000DA60040400040810020002040204A1860100F6
S3156000DA701D57FFFF4FF4C02300933946204605AA81
S3156000DA80042331F069DD08F1010824373368DB6966
S3156000DA901B6A9845EED320468021082232F00ADFC1
S3156000DAA020465C210A2232F005DF4FF080735E4A21
S3156000DAB0C5F8003120465D4932F0CAD84FF00043C0
S3156000DAC0C5F888314FF00073C5F88C314FF4804348
S3156000DAD0C5F828314FF480336B620121204632F05D
S3156000DAE0A5D8206E02F08CFA16213083B4F8442053
S3156000DAF0A5F8A806204632F0DDDE2046C021B4F83F
S3156000DB00542032F0D7DE2046C221B4F8562032F0D7
S3156000DB10D1DE474B2046C5F86031D5F86031B4F8A0
S3156000DB2088304421C5F86431424BB4F88C20C5F87E
S3156000DB306031D5F86031B4F88A300027C5F86431B1
S3156000DB4032F0B8DE20464621B4F88E2032F0B2DEDE
S3156000DB50B5F888361B051B0DA5F888360123A5F890
S3156000DB609C36B764E319D86810B1334B5B68984745
S3156000DB700437182FF6D1304FE0683B6D9847FB6E3F
S3156000DB80E06898473046FFF7FBFD236E9A6B4AF6CE
S3156000DB9062139A421AD1E36CD80717D5236D19061A
S3156000DBA014D49A0012D42046922132F069DB4600E2
S3156000DBB0B6B25EB1CE363146204632F061DB40F019
S3156000DBC040023146204692B232F074DE236E9A6B82
S3156000DBD04AF662139A4223D1606E1849F7F3FCF451
S3156000DBE086B2EEB1314600220223206E00F046D89E
S3156000DBF0314632460223206EFFF3F4F7B5F89E34C1
S3156000DC0092219BB23343A5F89E34204632F038DB2E
S3156000DC10410089B221B120467431324632F04ADE83
S3156000DC2006B0BDE8F08100BF00000240000006407B
S3156000DC300600020007000200E0A685003BC6010060
S3156000DC402DE9F84390F8E96004460F4691468568E9
S3156000DC5016B9314630F070DEA86804F06BDB07F465
S3156000DC607041A1F58052514241EB02018046204647
S3156000DC70FFF72CFAA36F3946586A06F0BEFDA36F0C
S3156000DC80586A06F09AFB2846FFF74EFEB9F1000F78
S3156000DC9004D0012120460A4632F048D82846394643
S3156000DCA0FFF7CCFDA868414604F058DBD4F8D430C1
S3156000DCB043F00403C4F8D4300123C4F8D0302EB93D
S3156000DCC020460221BDE8F84330F0369EBDE8F88371
S3156000DCD0D1F8CC3073B543F40053C1F8CC30054667
S3156000DCE00C4634F07FDA0646002840F08480B5F8AA
S3156000DCF0823144F2213293421FD044F2133293426E
S3156000DD001BD044F21A32934217D044F22A3293421D
S3156000DD1013D044F2163293420FD044F21D3293422E
S3156000DD200BD044F22D32934207D044F252329342E2
S3156000DD3003D0AB6B5B7D002B58D02B6B93F8EC302C
S3156000DD4043B1B5F8263603F44063B3F5406F14BFAC
S3156000DD50142328232A6892F8462012F0030207D07B
S3156000DD60D4F8CC2002F48052D2F1010238BF0022EE
S3156000DD70009228462146022233F0C6DB064600287A
S3156000DD8039D1D4F8F01229B1D5F84C0144F0B4D9A0
S3156000DD90C4F8F062D5F84C01214644F07FD9C4F846
S3156000DDA0F002002825D0A379BBB194F8F532312B67
S3156000DDB00ED82B681B7E2BB1284694F8F4120F4AB6
S3156000DDC01EF064D9D5F84C0194F8F41244F0AAD840
S3156000DDD094F8F53284F8F4320DE0D5F84C0104F588
S3156000DDE03D7102B0BDE8704044F060986FF00B067C
S3156000DDF001E06FF01A06304602B070BD329E8500B3
S3156000DE002DE9F041054634F0EBDA2E46804605F101
S3156000DE102007D6F84C426CB1A3795BB1444509D072
S3156000DE2063791BB12846214633F05ADE28462146DF
S3156000DE3034F032D90436BE42EBD1BDE8F0812DE92B
S3156000DE40F3470A9E80460F4691461D46DDF82CA094
S3156000DE50D0F8B84023E063681AEA030F1ED0DB05EA
S3156000DE6007D504F10A01227A637A28460091314681
S3156000DE700DE02FB14046494604F10802B84748B163
S3156000DE8004F10A02637A284600923146DD2220F0C8
S3156000DE90ADDF00E028462D1A761905462468002C69
S3156000DEA0D9D12846BDE8FC872DE9F04FD1F8D432A8
S3156000DEB087B0B3F832B08B7905460E46D0F80C8041
S3156000DEC0D0F84C91002B00F09F804FF0000A54462A
S3156000DED005EB0A03D3F84C727FB1BB796BB9FB795A
S3156000DEE05BB1D7F8D432588EF7F3CCF70446584670
S3156000DEF0F7F3C8F784423C4606D10AF1040ABAF140
S3156000DF00200FE5D1002C7FD0D4F8D432588EF7F3A9
S3156000DF10B9F707465846F7F3B5F7874205D0D4F800
S3156000DF20D422D6F8D432D28DDA85284604A905AA39
S3156000DF301AF050DF2146D5F84C0143F0A7DF1827C9
S3156000DF404743D5F84C0107F13A0144F089DC38B90A
S3156000DF50059A049B484621468DE80C0003F0E9FFCC
S3156000DF60D5F84C0107F1400144F07ADCD4F8D4329C
S3156000DF700499DD8D4001AD02CD42029003D3A842E3
S3156000DF800AD300E0104621F07F4323F460039842F1
S3156000DF9000EB0502F6D3029003AA02AB059805F0E2
S3156000DFA08EFC20461AF0ACD902A90346002203A8CB
S3156000DFB01FF0B4DDD6F8D4326D08DC8D03A82B468D
S3156000DFC0A40202A900221FF0C3DD0126234601E058
S3156000DFD001361B19AB42FBD303A802A900221FF02E
S3156000DFE0B7DD029B05A804A9039A1FF0B1DD049B67
S3156000DFF00136C8F88031059BC8F88431A3017443A3
S3156000E000C8F88831C8F88C4107B0BDE8F08F0020A9
S3156000E0101060704705F09ABE08B505F07DFEC0B287
S3156000E02008BD0846114605F0E1BE00002DE9F84F2F
S3156000E03005460F464668002110461446C922F6F387
S3156000E0402FF6284639463AF0D9DF70B996F8503738
S3156000E050002B01F0578006F5AA6130460E313AF082
S3156000E06027DA804618B9BDE8F88FD5F81080FDB27A
S3156000E07007F47047A7F5805EDEF1000798F80000A8
S3156000E08047EB0E0705F0A2FD0E3756F827700646D9
S3156000E09098F8020005F0B2FD96F811C003461CF030
S3156000E0A0010C97F8041102D04FFA81FC04E049B2E2
S3156000E0B01829C8BFA1F1180C964A964206D0964A0E
S3156000E0C0964206D0954A964205D102E052205822E1
S3156000E0D003E0582000E07F2002463968022975D1A6
S3156000E0E0012D04D90A2D8CBF0221012100E00021F7
S3156000E0F0DFF83C827118464591F9061002D10B2D66
S3156000E10012D151E0DFF82C82464503D10E2D08BFAF
S3156000E110362150E0DFF82082464503D0DFF81C82C6
S3156000E120464505D10B2D41D00E2D08BF402142E05A
S3156000E130DFF80C82464503D10E2D08BF2A213AE04E
S3156000E140DFF80082464505D1022D31D00A2D08BF81
S3156000E150542130E0DFF8F081464503D10A2D08BF2F
S3156000E160502128E0DFF8E481464505D1022D21D013
S3156000E1700A2D08BF48211EE0DFF8D481464503D149
S3156000E1800E2D08BF282116E0DFF8C881464503D169
S3156000E1900B2D08BF3E210EE0DFF8BC8146450AD153
S3156000E1A00C2D08BF442106E04C2104E0402102E02A
S3156000E1B0582100E04821CCEB010121EAE17191424E
S3156000E1C0A8BF114621706170A170E170544A9642F1
S3156000E1D008D0544A964205D0534A964202D0534AD2
S3156000E1E0964208D197F904C1BCF1180FCCBFACF1C7
S3156000E1F0180C4FF0000C3968022940F05681012D49
S3156000E20004D90A2D8CBF0522042200E00322DFF820
S3156000E2102081B218464592F9062003D10B2D08BF1E
S3156000E220422263E1DFF83481464506D1022D00F0D3
S3156000E23050810A2D08BF4A2258E1DFF8F88046452A
S3156000E24003D10B2D08BF462250E1DFF8EC8046452E
S3156000E25003D0DFF8E880464503D10B2D08BF402286
S3156000E26044E1DFF8FC80464503D0DFF8F880464598
S3156000E27003D10D2D08BF2E2238E1DFF8EC8046452C
S3156000E28006D10B2D00F0D2800D2D08BF40222DE166
S3156000E290DFF89480464500F0A180DFF8A48046450B
S3156000E2A003D10B2D08BF3E2220E1DFF8988046455A
S3156000E2B01DD0DFF89480464506D1022D00F00B8113
S3156000E2C00A2D08BF4C2211E1DFF8A080464506D131
S3156000E2D0022D00F002810A2D08BF482206E1DFF810
S3156000E2E09080464503D0DFF88C80464506D1022DE6
S3156000E2F000F0F5800A2D08BF5022F7E0DFF84C8069
S3156000E300464539D1022D00F0EC800A2D08BF442223
S3156000E310ECE000BFBC108600F01086002411860079
S3156000E320340D86005C0D860080118600FC0D86002B
S3156000E3304009860064C60100BC0C8600D00C8600CD
S3156000E340700D86007C0986009009860008CF010062
S3156000E350840D860020C7010014C9010000C90100B0
S3156000E360E40C86000C0D8600C4CE0100CC09860044
S3156000E370A4098600B8098600DFF8008546450CD1F9
S3156000E380022D00F0B2800A2D00F0AF80032D00F060
S3156000E390AA80092D08BF4622A8E0DFF8E484464536
S3156000E3A003D10A2D08BF4222A0E0DFF8D884464593
S3156000E3B005D1A5F10C06012E98BF3C2296E0DFF848
S3156000E3C0C884464503D10B2D88BF40228EE0DFF816
S3156000E3D0BC84464506D10C2D00F087800D2D08BF04
S3156000E3E0382283E0DFF8A884464505D1022D7CD02B
S3156000E3F00A2D08BF3C2279E0DFF89884464503D1B0
S3156000E4000B2D08BF382271E0DFF88C84464503D1B6
S3156000E4100B2D08BF322269E0DFF88084464507D1BC
S3156000E4200B2D03D00C2D08BF4A225FE038225DE039
S3156000E430DFF86C84464505D10C2D54D00D2D08BFF0
S3156000E4403A2253E0DFF85C84464505D1A5F10B0618
S3156000E450012E98BF4A2249E0DFF84C84464503D135
S3156000E4600B2D08BF3C2241E0DFF84084464505D1CC
S3156000E4700C2D30D00D2D08BF442237E0DFF83084F4
S3156000E48046450AD16E1E0D2E30D8DFF8288418F85E
S3156000E4900660002E18BF324628E0DFF81C84464529
S3156000E4A024D10E2D08BF002220E0332D08D93D2D42
S3156000E4B008D9632D08D9942D8CBF0422032204E069
S3156000E4C0002202E0012200E00222B61896F9062038
S3156000E4D00CE04A220AE04C2208E0482206E050227C
S3156000E4E004E0442202E0462200E04022CCEB020235
S3156000E4F022EAE2728242A8BF0246022903D121784B
S3156000E5008A42A8BF0A4622716271A271E2712272C2
S3156000E5106272A272E272A446214600200026013091
S3156000E52081F834600A7381F83C6001310828F5D1BE
S3156000E530187F97F8042110F0010001D050B204E072
S3156000E54052B2182AC8BFA2F118003A68022A01D14D
S3156000E5506E1E0FE0332D08D93D2D08D9632D08D9DD
S3156000E560942D8CBF0426032604E0002602E00126D3
S3156000E57000E002269A579E1996F90E10964EB342FF
S3156000E58005D1A5F16406022E98BF3E2106E0934EA2
S3156000E590B34203D1642D08BF382208E0904EB342DF
S3156000E5A005D1A5F16406022E98BF3E2102E08D4E8C
S3156000E5B0B3420ED08C4EB3420BD08C4EB34208D0D1
S3156000E5C08B4EB34205D08B4EB34202D08A4EB342D5
S3156000E5D017D1A5F16806242E13D8844A93420ED02B
S3156000E5E0834A93420BD0844A934208D07E4A934230
S3156000E5F011D0804A93420ED04A21442201E04A213A
S3156000E60042227E4EB3420BD1A5F16806202E05D973
S3156000E6108C2D20D10FE044210A4601E0402144229E
S3156000E620774EB3420CD1642D08D0A5F168060C2E46
S3156000E63040F25E852EE036210A4601E03421402212
S3156000E640704EB34207D1A5F16406102E98BF4221E1
S3156000E65098BF52221EE06C4EB3421BD1A5F16406F0
S3156000E660082E98BF3021A5F16E0698BF3422162E6B
S3156000E67098BF4621A5F18606022E05D98C2D08BFC6
S3156000E680482108BF362200E03E21A5F195060F2EEF
S3156000E69098BF44225D4EB342B34612D1A5F16E06D1
S3156000E6A0162EA5F1860698BF442198BF3A22022EFF
S3156000E6B005D98C2D08BF482108BF362201E03E21CE
S3156000E6C03A22534EB34202D0524EB34204D1A5F120
S3156000E6D08406082E98BF2C224F4EB34202D1262DB7
S3156000E6E008BF2C21121A081A22EAE27220EAE070A8
S3156000E6F0214600270E7901370131CE740026082F96
S3156000E70081F84360F6D1214601360A7781F84C00DC
S3156000E7100131082EF8D1414FBB4200F0FA804049E2
S3156000E7208B4200F0F6803F498B4200F0F2803E4912
S3156000E7308B4200F0EE803D498B4200F0EA803C4916
S3156000E7408B4200F0BB803B498B4200F0E2803A4945
S3156000E7508B4200F0DE8039498B4200F0DA8038491E
S3156000E7608B4200F0D68037498B4200F0D280364922
S3156000E7708B4200F0CE8035498B4200F0CA80344926
S3156000E7808B4200F0C68033498B4200F0C28032492A
S3156000E7908B4200F0BE8031498B4200F0BA8030492E
S3156000E7A08B4200F0B6802F498B4200F0B2802E4932
S3156000E7B08B4200F0AE802D498B4200F0AA802C4936
S3156000E7C08B4200F0A6802B498B4200F0A2802A493A
S3156000E7D08B4240F0D7809CE0B50886000FCE0100E2
S3156000E7E0D2088600DC0586002E0586004B0586006D
S3156000E7F0680586008505860033068600F90586006D
S3156000E8006D0686008A068600A2058600BF0586001C
S3156000E8102C078600F4048600BCCC01007E0A8600C4
S3156000E8209B0A8600B80A8600F20A8600BD0B86003F
S3156000E830980E860078C6010008CB0100CFC601009D
S3156000E840E1C8010081C9010064C90100630F860047
S3156000E85014108600B50E860085C70100A2C70100A8
S3156000E86050C801006DC8010016C8010033C8010018
S3156000E8708AC80100A7C80100880C8600F4098600D2
S3156000E88018098600840D8600980D8600381186006A
S3156000E8906809860020C701000CC7010054C7010043
S3156000E8A014C9010098CB010028C901003CC90100C8
S3156000E8B0D8CE0100241402007CCE0100032D0DD0B9
S3156000E8C02A1F042A0CD9092D00F01684A5F10C0222
S3156000E8D0012A94BF2C22402200201DE03C2000E04B
S3156000E8E04020974A934240F00884032D0DD02A1F9A
S3156000E8F0042A0CD9092D00F00284A5F10C02012A24
S3156000E90094BF2C224022002011E03620F5E34020FF
S3156000E91002468C498B4202D08B498B4207D1EA1E54
S3156000E920082A02D90020402201E040200246874999
S3156000E9308B421ED1A5F124010C290FD9A5F1340112
S3156000E94008290ED9A5F1640102290DD9A5F168013E
S3156000E95020290CD98C2D08BF32220AE030203822BB
S3156000E96007E04420024604E03E20342201E04A20CB
S3156000E97044222146002601360A7581F84400013199
S3156000E980082EF8D121464FF00008002608F101084C
S3156000E99081F8246081F854600131B8F1080FF4D130
S3156000E9A02146013681F82C2081F85C000131082E61
S3156000E9B0F7D1BB4284F8640007D065498B4217D013
S3156000E9C064498B4240F0AA8025E0012D50D0022D8B
S3156000E9D049D0032D55D0291F04293CD9092D3ED095
S3156000E9E00A2D40D000210B2D0E460F4673D142E012
S3156000E9F0012D3DD0022D4ED0032D3ED0291F042976
S3156000EA003FD9092D42D00A2D45D000210B2D0E4647
S3156000EA100F4660D144E0012D44D0022D55D0E91E49
S3156000EA2005290ED8032D42D0042D44D0082D0CBFE5
S3156000EA3038213A210CBF362638260CBF32273427B8
S3156000EA403CE0092D3CD00A2D3FD000210B2D0E460F
S3156000EA500F4640D13EE03E213C26382714E0362161
S3156000EA603426302710E000210E460F46402232E061
S3156000EA7000210E460F4638222DE0382136263227F1
S3156000EA8002E03A21382634274C2224E03621342607
S3156000EA9030274A221FE000210E460F463E221AE02A
S3156000EAA0362218E000210E460F462C2213E02E2156
S3156000EAB02C26282702E038213626322744220AE00F
S3156000EAC030212E262A27422205E000210E460F46D7
S3156000EAD03C2200E02A22A1464FF00008B8F1040F5C
S3156000EAE08CBFB246BA4608F10108B8F1080F89F83A
S3156000EAF01C2089F84CA009F10109EFD19246A04685
S3156000EB000027032F8CBF8946B1460137082F88F846
S3156000EB102CA088F85C9008F10108F2D10E498B426E
S3156000EB2006D00E498B421DD00D498B427AD125E025
S3156000EB30032D32D0092D30D0291F042931D928E080
S3156000EB40EF0E8600630F860014108600DC058600D3
S3156000EB509B0A8600F20A8600D50A8600A00B86000C
S3156000EB60DA0B8600032D1ED0042D24D0691F0229DE
S3156000EB701DD9082D1FD0092D0BD120E0032D22D0E1
S3156000EB80042D23D0691F022924D9082D26D0092DEA
S3156000EB9027D000210E460F4626E02E212C26282758
S3156000EBA022E036211BE04821462642271CE05221FE
S3156000EBB050264C2718E04C214A26462714E044216B
S3156000EBC042263E2710E0322130260CE034213226E0
S3156000EBD0302709E03A213626322705E038213426E7
S3156000EBE0F6E7362132262E27A1464FF00008B8F107
S3156000EBF0040F8CBFB246BA4608F10108B8F1080F97
S3156000EC0089F84CA009F10109F1D1A0460027032F2C
S3156000EC108CBF8946B1460137082F88F85C9008F1A9
S3156000EC200108F4D191498B422ED1032D0DD0291FB5
S3156000EC30042905D9092D08D000210E46884608E02A
S3156000EC403E213C264FF0380803E03A2138264FF043
S3156000EC503408A1460027042F8CBFB246C24601374E
S3156000EC60082F89F84CA009F10109F4D1A0460027C4
S3156000EC70032F8CBF8946B1460137082F88F85C9010
S3156000EC8008F10108F4D12DE079498B4227D1A5F12D
S3156000EC9024020C2A0ED9A5F134020C2A0DD9A5F14D
S3156000ECA06402282A0CD9A5F19502102A0BD90020F6
S3156000ECB002460AE03420382207E034203A2204E093
S3156000ECC040203C2201E048204622214600260136AB
S3156000ECD00A7581F844000131082EF8D105E06549CE
S3156000ECE08B4252D064498B4275D064498B4272D054
S3156000ECF063498B426FD063498B426CD062498B42C9
S3156000ED0069D062498B4266D061498B4263D0614962
S3156000ED108B4260D060498B425DD060498B425AD04D
S3156000ED205F498B4257D05F498B4254D05E498B42D4
S3156000ED3051D05E498B424ED05D498B424BD05D4986
S3156000ED408B4248D05C498B4245D05C498B4242D06D
S3156000ED505B498B423FD05B498B423CD05A498B42E0
S3156000ED6039D05A498B4236D059498B4233D05949AA
S3156000ED708B4230D058498B422DD058498B422AD08D
S3156000ED8057498B4240F0B8801DE0A5F12402082A5D
S3156000ED9059D9A5F12E02022A63D9A5F13402082AAF
S3156000EDA054D9A5F13E02022A53D9A5F16402082A74
S3156000EDB052D9A5F16E021E2A50D9A5F19502102AE4
S3156000EDC04FD9002040E0A5F124010C2998BF3420DA
S3156000EDD098BF382287E03B498B4203D1642D08BF38
S3156000EDE0382280E039498B4203D1242D08BF38226E
S3156000EDF079E037498B4203D18C2D08BF3A2272E005
S3156000EE0035498B4205D1642D2ED08C2D08BF482202
S3156000EE1069E022498B4205D1A5F19501102998BF79
S3156000EE203C2260E01F498B425DD1A5F124010C298B
S3156000EE3058D9A5F134010C2954D9A5F164012829C2
S3156000EE4098BF3C224FE0382002464CE040203822F2
S3156000EE5049E03820342246E0382003E04020322260
S3156000EE6041E0402044223EE048223CE04E0C8600D1
S3156000EE7011058600F9058600F0CC01000DCD010074
S3156000EE805DCE0100D5CD0100EBCA010077CA010055
S3156000EE90F9C7010078CB010034C701005ACA0100E6
S3156000EEA095C6010040CE0100CECA01002ACD010000
S3156000EEB0B1CA010044C6010020CA01000FCE01009C
S3156000EEC0B2C60100A4CE0100BFC70100DCC70100C5
S3156000EED0F2CD01003DCA01009EC90100BBC9010017
S3156000EEE0160686003C222146002601360A7581F800
S3156000EEF044000131082EF8D1834A93420BD0834AED
S3156000EF00934208D0824A934205D0824A934202D005
S3156000EF10814A934271D1A5F12402082A0AD87E4A11
S3156000EF20934203D034225B4501D150E03A224FF040
S3156000EF30380B58E0A5F12E02022A09D85B4514BFAA
S3156000EF404222402214BF4FF0380B4FF0340B4AE098
S3156000EF50A5F13402082A3CD9A5F13E02022A06D858
S3156000EF605B4514BF34222C224FF03A0B3BE0A5F1EF
S3156000EF706402082A07D83E225B4514BF4FF0440B53
S3156000EF804FF03A0B2FE0A5F16E021E2A1AD8A5F1B2
S3156000EF908602022A08D8604A934200F0A5805B4543
S3156000EFA00CBF3C224822A0E08C2D14D15A4A9342D1
S3156000EFB04FF0480211D05B450CBF4FF03C0B4FF051
S3156000EFC0440B10E0A5F19502102A09D90022934658
S3156000EFD009E0442205E0482287E04FF03C0B02E05E
S3156000EFE04A224FF0460B21460020013081F814B0CA
S3156000EFF081F8442001310828F7D1484A934205D068
S3156000F000474A934202D0224600231EE0A5F124031C
S3156000F0100C2B0DD9A5F134030C2B0BD9A5F1640388
S3156000F020282B07D9953D102D94BF4025002502E079
S3156000F030382500E040252346002201321D7583F8FD
S3156000F04044500133082AF8D1DDE7E11891F83C0015
S3156000F05018B992F84C0081F83C003BB994F83D3001
S3156000F0601BB992F84C3084F83D30012301330132EC
S3156000F070072BEAD92346002293F8441019B993F86E
S3156000F0804C1083F8441001320133082AF4D1224629
S3156000F0900023E11891F8340018B992F8440081F819
S3156000F0A034003BB994F835301BB992F8443084F893
S3156000F0B03530012301330132072BEAD900239CF84E
S3156000F0C024201AB99CF81C208CF824209CF8542023
S3156000F0D01AB99CF84C208CF854200133082B0CF19B
S3156000F0E0010CECD1BDE8F88F44224FF0440B7AE76F
S3156000F0F03C214022FFF7AFBA3820402209E4342091
S3156000F100402209E4BDE8F88F4B0586006805860055
S3156000F1108505860033068600A2058600A70686005A
S3156000F1205006860000230B614B810B720B730846F9
S3156000F13006221946F5F3B4B52DE9F7439DF82890F4
S3156000F14006460C4615469846B9F1000F3AD1CF6887
S3156000F150002F37D03B69002B34D03B7A0B2B23D161
S3156000F160FB794345D1F8703109D1EBB109699A79D8
S3156000F1703AF014DDC4F87091C4F8749114E0002B71
S3156000F1802FD0DA7942452ED10268916AD4F874217B
S3156000F190914207D921699A793AF000DDC4F87091F5
S3156000F1A0C4F87491D4F87071FB7943451ED095F913
S3156000F1B048208DE8080131680E4B49680E4803F017
S3156000F1C059FB12E0D6F86C329D4203D0AB790BB98D
S3156000F1D04FEA5808B8F1030F07D805EB88056F6F3B
S3156000F1E004E01F4602E04F4600E000273846BDE8CF
S3156000F1F0FE8300BF1CCF01002BCF01002DE9F0413B
S3156000F2004C6916692368958A002B184601DAE81856
S3156000F21030D462688318AB422CD88B6802F1080739
S3156000F220E71930186BB909E0E51895F808C0C55CB0
S3156000F230FE5C0CEA0505AE421CD101339342F3DB5A
S3156000F24011E0012B16D1AD1A76190FE0E51895F885
S3156000F2500880C55C17F803C008EA0505AC4504D10B
S3156000F26001339342F2DB012005E00130B04201D860
S3156000F2700023F6E700200B7B0BB180F00100BDE8B0
S3156000F280F081036870B504465868A36A0D46164651
S3156000F29023B99021FAF34CF3A06280B1A06A0123EE
S3156000F2A00360AB8A80222969C260836046609342AC
S3156000F2B038BF1A461030BDE87040F5F38DB470BDA6
S3156000F2C068468369416920300BB5203803695A4620
S3156000F2D051460EB44A46414606B4C36882684168E0
S3156000F2E0FEB40368C269EFF303810EB48269EFF37B
S3156000F2F0058106B4034801680029FED06846884740
S3156000F30014B000BD48C700000A49084202D062B680
S3156000F310C94308400849084202D061B6C94308405B
S3156000F32006490840002803D005490A6802430A6076
S3156000F330704700000000008000000040FFFF0000F2
S3156000F34000E100E00A49084202D072B6C9430840AB
S3156000F3500849084202D071B6C943084006490840C8
S3156000F360002804D005490A68C04302400A60704715
S3156000F3700000008000000040FFFF000080E100E028
S3156000F38002490968902288587047000054C70000F7
S3156000F390024909689C2288507047000054C70000E3
S3156000F3A0DDBAADBB000000000000000000000000F8
S3156000F3B000000000000000000000000000000000E7
S3156000F3C000000000024A11681060081C70470000C7
S3156000F3D048C70000024A11681060081C70470000A8
S3156000F3E04CC7000003490860034801680029FED045
S3156000F3F08847FEE740C700004CC700006348644981
S3156000F40000220A500168634A0A40634F0F403F4238
S3156000F41032D1002398469A46604A0A401821CA406B
S3156000F4205F4943585F4C1C405F4DAC4204D18046F7
S3156000F4305E4D4519A9460EE05D4DAC420BD1824644
S3156000F4405A4D4519AB460F241D1C2340594C254087
S3156000F4502D0A2B439C460023984501D09A4504D13A
S3156000F460554BC018013ADCD105E05046004202D047
S3156000F4704046004229D1FEE7FC2141580A680F2325
S3156000F48013400F2BF1D0012B01D00431F6E7083180
S3156000F4904A4B13404A4CA34206D100F0BBF8804663
S3156000F4A000F0C4F88146E9E7464CA342E6D10B1F5B
S3156000F4B01B68454C23401824E3409C4600F0AAF89C
S3156000F4C0824600F0B3F88346D8E74049212242508D
S3156000F4D02E4A3F498958FF23194219D051683D4B3E
S3156000F4E0194215D011683C4B1940D36A10E0A3420B
S3156000F4F00ED0C0460CE039498958194208D03849BF
S3156000F500895819409942FAD12B4B11691942FCD09E
S3156000F51049463F4204D19823CB581024E34001E08A
S3156000F520304BCB581C242340002B01D000F08CF8C4
S3156000F53040462D49086048462C49086050462C498B
S3156000F540086060462B4908602B490F602B4D2C499B
S3156000F5500D60043DAD46009DEC431023DD41AC4299
S3156000F56001D081B009E0240CA400264D2C606B46C6
S3156000F5701B1B254D2B60043B9D46244824490022D5
S3156000F58004C08142FCD80FF03BFAFEE70000001889
S3156000F59014060000F8FF0000000000F00000000FF5
S3156000F5A0FC0F0000F08F0000A0820000000F00003A
S3156000F5B0E0800000007000000010000000FF0F00F7
S3156000F5C0002A0800000E0800000000FFE0010000AD
S3156000F5D00406000000003800FFFF00001806000067
S3156000F5E00C0600000804000054C7000058C700005D
S3156000F5F05CC7000060C7000050C7000000C0030081
S3156000F600C8060200D0060200CC060200BC0F02004B
S3156000F6103214020008680F2204310240052AF9D12B
S3156000F620014A1040F746000000F0FFFF08680F220D
S3156000F63004310240052AF9D180221042F6D0014AEF
S3156000F6401040F74600F0FFFFFEE7000010B500210E
S3156000F65028220446F5F324F30A4B23600A4B6360C1
S3156000F6600A4BA3600A4BE3600A4B23610A4B636152
S3156000F6700A4BA3610A4BE3610A4B23620A4B63623E
S3156000F68010BD00BF0000000097050200980502004B
S3156000F690BC0F0200BC0F02003214020034140200D8
S3156000F6A0E0B60200E0B60200103E03002DE9F0412C
S3156000F6B096B00AA8FFF7CAFF0A9B0B9F0D9CFF1A1C
S3156000F6C00C9B0F9AE41A5F4D0E9B3E19C3EB020822
S3156000F6D02B685D48F61803F0CDF804F57E730733A2
S3156000F6E09B0A46448DE8080108F57E7808F107080C
S3156000F6F007F57E724FEA982307320293052339464F
S3156000F700920A03935148234603F0B4F8504C514B88
S3156000F710276819682868CB1B03F57E750735AD0A1F
S3156000F7208DE8A00007F57E750735039000F57E70BD
S3156000F73001F57E72AD0A0730800A07320295464DA2
S3156000F740920A0490454803F095F82368296844486E
S3156000F750C91806F5BE5301F57E723F339B0A073220
S3156000F760920A009306F5A05303F084F83D4B3E4899
S3156000F770196803F07FF83D4B264619683C4B0A68CA
S3156000F7802F469A4203D03B4803F074F824E0149164
S3156000F7900B4604E014683648131D844203D11A46AA
S3156000F7A015AB9A42F6D3344814AB0068C1EB030C30
S3156000F7B0C51A841AC1EB020E8DE801102F48149207
S3156000F7C0CDF808C0CDF80CE0CDF810E005950695AB
S3156000F7D00794089403F04EF8294C206870B3B0F88B
S3156000F7E00680F5F3EDF7236808F1FF385C89024679
S3156000F7F008FB04F5443408FB04F405F57E7307330F
S3156000F8009B128DE8180004F57E7307339B120293F2
S3156000F81041462B461B4803F02DF833683A68591B5E
S3156000F8209B181B1B03F57E7001F57E720730800AFC
S3156000F83007320090920A144803F01CF816B0BDE82F
S3156000F840F08100BFCC260000E11F8600F01F860015
S3156000F85088260000C8260000A42600002E20860008
S3156000F8607220860090260000AC20860010100200F0
S3156000F8704B415453C620860014100200E9208600CE
S3156000F880BC260000662186009221860008B5714676
S3156000F890044802F0EFFF40F63900BDE80840FFF784
S3156000F8A0A1BD00BF8E1F86002DE9F04703688EB0AC
S3156000F8B0022B044618D1564A002112685161554AF6
S3156000F8C01068C10424D5544920F480500B60D16976
S3156000F8D0524B40F4005019609C6804249C60106090
S3156000F8E04F4802F0C7FF90E00C2B11D1494D2A68B2
S3156000F8F091040DD522F4005242F4006268602A60D9
S3156000F9004848E16C02F0B6FF2B681A057DD57BE0AE
S3156000F910103B0F2B02D8F9F38DF376E03D4E42484B
S3156000F920F16902F0A7FFA36C22460093636C3F481F
S3156000F9300193A36800270293E368B946039321689D
S3156000F940E36C02F097FF3A4B656C1B6804F110019B
S3156000F950C5EB030AE36937480093236A4FEA9A0ABC
S3156000F9600193636AB8460293A36A03930EC902F0D1
S3156000F97081FFA36B04F12C010093E36B2E48019386
S3156000F980236C02930EC902F075FFEB682B48009357
S3156000F99095E80E0002F06EFFEB6905F11001009329
S3156000F9A00EC9274802F066FF04A8FFF74FFE2548F8
S3156000F9B002F060FF1CE07A59D30713D5FF2A11D9EC
S3156000F9C0059B934208D2204B1B0D1B059A4209D317
S3156000F9D003F580139A4205D81C48394602F04AFF5F
S3156000F9E009F101090437B9F10F0F08F1010801D8CF
S3156000F9F0D045E0D1336840F2033043F4806386E853
S3156000FA001800FFF7EFFC00E0FEE70EB0BDE8F087F8
S3156000FA108C10020018100200241000E0201000E094
S3156000FA201CD0010020D001002CD0010039D001008B
S3156000FA30C80602006DD00100A0D00100CFD0010041
S3156000FA40EDD00100FC1C86009D6680000AD1010095
S3156000FA5070B51A4C8AB06846FFF7F8FD2178C9B9C7
S3156000FA600698079D2D1A06D02A46F5F319F10698D1
S3156000FA702946F9F305F2124B00221A70012323700E
S3156000FA80104B1968C1B10B78B3B10F4B1868F5F319
S3156000FA90FBF611E00D4E317871B90898099D2D1A63
S3156000FAA006D02A46F5F3FCF008982946F9F3E8F102
S3156000FAB000232370012333700AB070BD5410020016
S3156000FAC056100200BC2600003C10020055100200D1
S3156000FAD00C4B1B68D3F81406D3F8142690420A4AD6
S3156000FAE018BFD3F81406094B11681B68401A984270
S3156000FAF005D3B0FBF3F003FB0013136070470020DF
S3156000FB00704700BF9C260000E4260000C825000060
S3156000FB1070B50446FEF31EF12046FEF35BF0054623
S3156000FB202046FDF3DBF70022064640F62A01204612
S3156000FB30FEF394F10122AA4083691A4201D101358C
S3156000FB4000E0002520463146FEF39AF1284670BD56
S3156000FB502DE9F04104460E46FEF3FCF02046FDF327
S3156000FB60BDF70022054640F62A012046FEF376F1EF
S3156000FB7082690746436946B14FF4004042F0004847
S3156000FB8043F00046FFF7C0FB07E04FF4004022F069
S3156000FB90004823F00046FFF7D5FB20462946C7F804
S3156000FBA018807E61BDE8F041FEF36AB1FFF7B0BF31
S3156000FBB010B50446FEF3CEF001462046BDE810407F
S3156000FBC000F048B92DE9F0410E465021044615462D
S3156000FBD09846F9F3ADF6074610B300215022F5F3C7
S3156000FBE05FF040F23C737B634FF47A73FB631C23D4
S3156000FBF03B640C237B6404230020C7F80C803E60C2
S3156000FC007D60BC60BB640849F5F3E6F4C0B287F872
S3156000FC104C000138C0B2012802D9022387F84C3063
S3156000FC203846BDE8F08100BF3E298600004870472F
S3156000FC300CE301000048704790E3010000487047FC
S3156000FC4000A60E0038B5D2F80056044605F07C05CD
S3156000FC50AD08FFF7EBFF03E08378AB4207D00C30CB
S3156000FC6010B10388002BF7D12046FFF7E3FF038826
S3156000FC704FF47A70584338BD10B51446FFF7DEFF6F
S3156000FC800123C4F86036D4F86436DBB2B0FBF3F314
S3156000FC904FF47A70584310BD2DE9FF471446002291
S3156000FCA002920392026AC4F820360C2A06468946F6
S3156000FCB0D4F8282606DD4FEA12484FEA88584FEAFC
S3156000FCC0985803E04FEA12285FFA88F8012515FA7A
S3156000FCD003F300273046494622460097F8F32EF68E
S3156000FCE00546012212FA07F32B4207D000923046EE
S3156000FCF049462246F8F322F625EA000501371F2F0A
S3156000FD00EFD1304602A903AAF8F342F6029B002718
S3156000FD1025EA030A3D460123AB4013EA0A0F08D0E1
S3156000FD20304649462246EBB2FFF7B6FF874238BFF8
S3156000FD30074601351F2DEED108F10200C01904B047
S3156000FD40BDE8F08773B5054614461E4600914FF42C
S3156000FD50CB6200214FF0FF33FDF3C8F62846002141
S3156000FD6040F25C6223460096FDF3C0F67CBD00223D
S3156000FD7038B50C46134604210546FFF7E3FF012C10
S3156000FD8020F0F07308BF43F0F073284604214FF06B
S3156000FD90FF32FFF7D7FF012C05D149F64040BDE899
S3156000FDA03840F9F309B338BD2DE9F0410446884679
S3156000FDB0FDF394F6002106462046FEF361F0074601
S3156000FDC0204600F012F9414605463A461823204679
S3156000FDD0FFF762FF0B2302305843074B3146EB189F
S3156000FDE0B3FBF5F545432046FEF34AF00A23B5FB1F
S3156000FDF0F3F5A8B2BDE8F0813F420F0070B5044646
S3156000FE000E46FDF36BF6002105462046FEF338F0FC
S3156000FE10314602462046FFF715FF2946064620462C
S3156000FE20FEF32EF0304670BD70B504460E46FDF307
S3156000FE3055F6002105462046FEF322F0314602467D
S3156000FE402046FFF719FF294606462046FEF318F0BE
S3156000FE50304670BDFFF7E8BF2DE9F041164C054608
S3156000FE6027682FBBFDF33AF6394606462846FEF369
S3156000FE7007F0D0F81486D0F814360746984518BFB0
S3156000FE80D0F8148642F21070F9F396F2D7F8143669
S3156000FE90D7F814262846934218BFD7F81436314649
S3156000FEA0C8EB0308642303FB08F32360FDF3E8F75C
S3156000FEB02068BDE8F08100BF9C100200F8B51F46BF
S3156000FEC004461546FDF30AF6002106462046FDF374
S3156000FED0D7F70223C0F8583657B1D0F85C3605F02C
S3156000FEE03F0223F4FC4343EA4223C0F85C3604E055
S3156000FEF0D0F85C566D0A05F03F0520463146FDF3A5
S3156000FF00BFF72846F8BD0121FFF731BF0021FFF793
S3156000FF102EBF08B1F9F310B070470000F8B5084C71
S3156000FF200546276808E028463E68FDF313F739461C
S3156000FF307A68F9F30DF53746002FF4D12760F8BDDE
S3156000FF406C270000002343667047F7B50022012145
S3156000FF5013460546F8F3A4F50024074621462822F1
S3156000FF60234628460094FDF3C1F5012106463B462B
S3156000FF7028464FF0FF32F8F393F5284621462822AB
S3156000FF804FF0FF330096FDF3B1F5FEBD70B5456EDB
S3156000FF90044665B1D0F8C830343350F82320C36DB9
S3156000FFA09A4203D1006EA847054600E00025204628
S3156000FFB0616DFFF739FFA36E064653B1D4F8C820CA
S3156000FFC0343254F82210E26D914202D1206E2946F5
S3156000FFD09847304670BD10B50446FDF3BBF6014642
S3156000FFE02046BDE81040FFF709BF10B50446FDF393
S3156000FFF0B1F601462046BDE81040FFF72DBF7047B9
S3156001000070B5456E044665B1D0F8C830343350F8E2
S315600100102320C36D9A4203D1006EA847054600E0CE
S3156001002000252046616DFFF7BFFEA36E064653B1FC
S31560010030D4F8C820343254F82210E26D914202D1CC
S31560010040206E29469847304670BD70B50446FDF36B
S31560010050FDF600283CD0A368B3F5026F09D040F6DF
S315600100600402934207D1E5680C2D94BF0025012552
S3156001007002E0012500E00025EDB24DB920464FF4BE
S3156001008000612A46D4F8C860FDF3E8F630B970BD60
S31560010090D4F8840010F540501AD00026D0F83031DB
S315600100A023F00403C0F8303143F00103C0F8303166
S315600100B01B0903F00703032B03D020460021FDF340
S315600100C05FF72DB920463146BDE87040FDF3D8B6DD
S315600100D070BD43692DE9F743222B05460E4640F371
S315600100E0A680FDF3B3F6002800F09F80072E00F28C
S315600100F09E80AB68B3F5026F0BD040F60402934263
S315600101000AD1EB680C2B94BF4FF000084FF0010841
S3156001011004E04FF0010801E04FF000085FFA88F84B
S31560010120B8F1000F0AD128464FF400614246D5F86E
S31560010130C890FDF393F6044638B979E0D5F8844062
S3156001014014F5405474D04FF00009032E03D02846AD
S315600101500121FDF315F7D4F8303123F00403C4F817
S31560010160303101239E42C4F8303104D9042E0CBFCC
S315600101700D23092300E00D23C4F83031D4F8303162
S31560010180012E23F00103C4F8303101D9042E36D192
S31560010190FF2700214FF4E2723B4628460097FDF3A4
S315600101A0A5F42223009300214FF4EE723B462846C4
S315600101B0FDF39CF42823009300214FF4E6723B463D
S315600101C02846FDF393F48123009300214FF4E872EE
S315600101D03B462846FDF38AF40123009300214FF440
S315600101E0A4724FF0FF332846FDF380F428460021C0
S315600101F04FF4A6724FF6FF730097FDF377F4D4F8C8
S31560010200303123F0700343EA0616C4F83061D4F83E
S31560010210303123F00803C4F83031B8F1000F07D14B
S3156001022028464946FDF32CF602E0044600E0002428
S315600102302046BDE8FE8300207047FFF767BEFFF7E3
S3156001024062BE2DE9F04104460D461646FDF34AF5B8
S31560010250074618B920460121FDF382F5204613F0C1
S3156001026019FF804690B1CEB100232B80002606F19E
S3156001027082014046F4F38EF3C3B2B3402A88013655
S315600102801343052E2B80F2D1002501E06FF01D0589
S3156001029037B920463946FDF363F501E06FF019057C
S315600102A02846BDE8F08107B5002302A921F8023D81
S315600102B00122FFF7C6FFBDF806000EBDD0F86C320D
S315600102C0994205D18879D0F1010038BF0020704785
S315600102D00020704703682DE9F0411F680446BE6837
S315600102E00D4690463046216901F0E8DFB8F1000F0E
S315600102F00AD03B681B7E3BB1216930462A46012301
S31560010300BDE8F04101F0929FBDE8F0812DE9F3412E
S315600103101F460368044601910092089DD3F8008048
S3156001032009B10D293EDD616820460022FFF7D2FF43
S31560010330E1680026666031B1236822891B685868C6
S31560010340F9F306F3E660009B13B1B3F5967F26DBFE
S3156001035040462946FFF7B2FF20B3019951B12368A0
S315600103601B685868F9F3E4F2E060F0B13946019A26
S31560010370F4F332F401A90422656104F10800F4F38F
S315600103802BF4201D69460422F4F326F4009870B11B
S31560010390204661680122FFF79DFF002007E06FF0AC
S315600103A01C0004E06FF0010001E06FF01A00BDE887
S315600103B0FC812DE9F04786B00368109CDDF844A006
S315600103C0164602F001020092054622461868534617
S315600103D0139F15F0A9DD8046002840F09D80022E0E
S315600103E04CD0032E1AD0012E40F08B802146042278
S315600103F004A8F4F3F1F30222211D05A8F4F3ECF34A
S3156001040055F8100B3946BDF81480049E31F022DE92
S315600104104146009032462846A31D2BE00222214622
S315600104200DF11600F4F3D8F3211D042204A8F4F3A8
S31560010430D3F3022205A804F10801F4F3CDF3BDF864
S315600104401630012B60D1A37A6A6893425FDA394626
S315600104504FF01809286809FB0359BDF81480049EFA
S3156001046031F0F8DD09F110090090414648463246FF
S3156001047004F10B03FFF74AFF80464DE00E9B6A6865
S315600104801B689342039342DA002B40DB012306A9E2
S31560010490ADF816300B2321F8043DA01C3246F4F367
S315600104A09BF30DF118090DF1160132462046F4F35E
S315600104B093F359F80C1D1827013107FB0151324698
S315600104C004F10800F4F388F30122494604F10A00B5
S315600104D0F4F382F30399042207FB0151201D1431C1
S315600104E0F4F37AF3039B01335F43EA5BEB1902F1A1
S315600104F00B018A450ED304F10B005968F4F36CF3D2
S315600105000AE06FF0160807E06FF0240804E06FF068
S31560010510010801E06FF00D08404606B0BDE8F087BE
S31560010520F7B5036807461D6895F87022002A2DD035
S31560010530028946693AB9284606F1BC01134600921A
S315600105401AF0BEDB22E0998968685118F9F348F21E
S315600105503B68044618B99A6801329A6016E09B892D
S31560010560A28A0069F968C018D31AA3823A89206100
S31560010570F4F332F3E38DB26843F040032846214633
S31560010580E38503B0BDE8F0401AF03C9C03B0F0BDD2
S3156001059038B5054600240BE0182000FB04501030E6
S315600105A0416821B1036913B10122FFF793FE01345A
S315600105B06B689C42F0DB002038BDF8B50024074625
S315600105C00646254608E03B68316A986801F076DEA2
S315600105D000B90135013418367B689C42F3DB284645
S315600105E0F8BD000010B58A6B002309E0C81890F8C1
S315600105F03C00064C00F07F002056002804DB0133E6
S315600106009342F3D1002010BD012010BD401B86002E
S3156001061002292DE9F84F05460C4616469B4614BF3E
S315600106204FF0FF394FF0000914BF002701274FF043
S31560010630000828E0022C14BF4FF0FF3300239945D0
S3156001064011D0022CC9EB070208D1042E08D0062E60
S3156001065006D0082E14BF0423002302E0042300E021
S3156001066000239A420EDD47F42C5A1FFA8AFAD5F80E
S315600106705C01514638F0C2DC20B12BF818A0B946AE
S3156001068008F101080137022C0CBF0E2300239F429B
S3156001069002DCB8F11F0FCDD90A9BC3F80080BDE813
S315600106A0F88F2DE9F74F1D460C9B0192D0F800801B
S315600106B0467B0C4600930027EFE007220021204687
S315600106C0F4F3EEF2009B022E33F8022B5FFA82F905
S315600106D0009384F8009008D1042D08D0062D06D029
S315600106E0082D14BF0223002302E0022300E0002349
S315600106F0A6F1020ADAF10002C3EB090342EB0A0230
S31560010700934210DB022E08D1042D08D0062D06D0A7
S31560010710082D14BF0223002302E0022300E0002318
S31560010720C3EB090911E0A6F1020CDCF1000949EB02
S315600107300C0907E0D8F85C01494638F01DDC20B9A0
S3156001074009F1010923789945F4D9022E94F800A09C
S3156001075008D1042D08D0062D06D0082D14BF02231A
S31560010760002302E0022300E000235344022E0CBF63
S315600107700E22002293420FDC022E08D1042D08D0EE
S31560010780062D06D0082D14BF0223002302E00223A2
S3156001079000E000239A4411E0022E0CBF4FF00E0ACE
S315600107A04FF0000A07E0D8F85C01514638F0E4DB07
S315600107B020B90AF1FF3A23789A45F4D24FF0000B3B
S315600107C064E00BF1020253F82210B1F806C0488EBC
S315600107D01CF0200CC3B20DD000F44072B2F5807FDC
S315600107E002D19A1C023B06E0B2F5007F02D19A1E45
S315600107F0023300E01A464B4501D3534503D94A45B6
S3156001080042D3524540D8BCF1000F16D04B4514D3A4
S31560010810534512D800F44070B0F5807F05D1207938
S31560010820FF280AD00130207107E0B0F5007F04D1BE
S315600108306079FF2801D001306071C88880060BD5C8
S315600108404A4509D3524507D89A4205D0A379FF2B69
S315600108501AD00133A37117E023780E2B0FD84046C7
S31560010860FFF7C0FE28B1E378FF2B0DD00133E370AB
S315600108700AE0A378FF2B07D00133A37004E0637805
S31560010880FF2B01D0013363700BF1010BD8F81835DA
S315600108901A68934595D3013707340D9B9F4204DA55
S315600108A0019A13689F42FFF608AF019B1F60BDE87E
S315600108B0FE8F00002DE9F043D0F80080CDB0D8F866
S315600108C030100646457B09894A93002400E00421DD
S315600108D000274A9B384608E0073702EB070C1CF8ED
S315600108E007CCBCF1050F03D801309842F4DB00E078
S315600108F00446082900F2858001A050F821F000BF66
S31560010900CFDC0000A3DD0000C5DC0000A3DD000034
S3156001091069DD0000A3DD0000A3DD0000A3DD0000AA
S315600109206FDC000000254FF6FF70294614E04FF694
S31560010930FF7000210D4633E00E1996FBF3F703FBBA
S31560010940176602EBC607BE1BB77827B9F7788742E9
S315600109503CBF3578384601319942EDDB002DE8D050
S3156001096045F430600E2D8CBF4FF480554FF4005521
S31560010970284347E02E1996FBF3F703FB1767FE0042
S31560010980F71BD61996F8019096F8028096F803C07F
S3156001099009EB080666448642BCBFB0B2D15D01353B
S315600109A09D42E7DB31B994FBF3F103FB1144E300AC
S315600109B01C1B115D0E298CBF4FF480504FF4005003
S315600109C0014341F430601DE0022D1AD13AAF4BABC1
S315600109D04FF020090093404629462A463B46CDF80A
S315600109E02C91FFF715FE4B9B02A901934AAA30464B
S315600109F02B46CDF828910097FFF753FE02AA2946A8
S31560010A0066E700204DB0BDE8F08300BF2DE9F047F1
S31560010A1003F4407804461D46D8B2A8F50073D3F1B5
S31560010A20000848EB0308A0F1020C861CB8F1000F20
S31560010A3001D0334601E06346B446002737E00E78BD
S31560010A40A0F105094E4530DB00F105094E452CDC68
S31560010A5091F80290B9F1000F13D191F803A0BAF1A0
S31560010A60000F0ED191F804A0BAF1000F09D191F8E7
S31560010A7005A0BAF1000F04D191F806A0BAF1000FF2
S31560010A8013D09E4206D18E793EBBB8F1000F0AD0D3
S31560010A900E7909E0664520D1B9F1000F1DD1CE78F6
S31560010AA0DEB90E79CEB94E79BEB9013707319742B3
S31560010AB0C5DBD4F8FC341B7863B107E0204600211E
S31560010AC026F0CADD204626F0BDDD03E02046012181
S31560010AD026F0C2DD2846BDE8F08743F43065ADB245
S31560010AE00E2BCCBF4FF480534FF400531D43D4F803
S31560010AF0FC341B78002BEDD0E0E770B50546BCB041
S31560010B0004680E4609B108292CD12023D4F8182788
S31560010B103B93236B28461B890092D4F8202703A9AF
S31560010B2001923BAAFFF7BDFD6B7B022B12D1D4F874
S31560010B30FC341B7873B1D4F83437B3F8A43303F4B7
S31560010B404062B2F5406F05D1204603A93B9AFFF793
S31560010B505DFF05E02846002103AA3B9BFFF7AAFE3D
S31560010B60A4F816076B6813B1A86831469847D4F89C
S31560010B701817D4F81C276068F8F3EAF60023C4F85E
S31560010B801837606829461022F8F3E2F63CB070BD6A
S31560010B902DE9F0470D464FF0000840219AB0044612
S31560010BA0C0F82087C0F81C1740681F46229EF8F3DC
S31560010BB0BFF60346C4F8180700287DD02A6862B9D3
S31560010BC02022C4F82027226B04F5E46112892046AD
S31560010BD000913146FFF71CFD25E0202A6FD8A94612
S31560010BE01EE059F8043FD4F85C011FFA83FA5146B6
S31560010BF038F004DA002862D0B8F1000F05D019F890
S31560010C00043C5FFA8AF29A4259D9D4F82037D4F86B
S31560010C10182708F1010822F813A00133C4F8203718
S31560010C202B689845DDD3D4F82037002B47D0606810
S31560010C301021F8F37DF60546002843D0259B4FF039
S31560010C40000883609DF88C30467311AE837324224D
S31560010C50C0F80480046080F80C8041463046F4F3A5
S31560010C601FF04FF0FF330293039304930593D4F877
S31560010C701837C8EB07020693D4F820375742079313
S31560010C80194B47EB02070A9303230C932046022173
S31560010C90164A012300960197CDF82080CDF824806D
S31560010CA00B95CDF83480CDF8388018F055DF0646BF
S31560010CB0A8B9249B6B6012E06FF0150604E06FF033
S31560010CC0010601E06FF01A06D4F8181739B16068A9
S31560010CD0D4F81C27F8F33CF60023C4F818373046DD
S31560010CE01AB0BDE8F08700BF9BDE00002C9E850030
S31560010CF010B590F8143788B00446002B3ED0D0F872
S31560010D0068319B79002B64D180F8143703681B7EA8
S31560010D10002B5ED0B0F81637002B5AD0036B1869DA
S31560010D2003F06EFDB4F81617884252D020461AF0C9
S31560010D3067DE204601F048FD2046B4F816171AF022
S31560010D40A5DC236893F82F306BB1D4F86C3220465A
S31560010D50D3F8D412383115F051DB0146C4F8AC062C
S31560010D6020460EF0E9DB20461CF000DF204600211C
S31560010D701DF006D9204613F073DF2AE003681B7E57
S31560010D803BB3D0F868319B791BBBD0F8000507A946
S31560010D9046F0D0DF02E01B7E99071AD407A846F019
S31560010DA0D1DF03460028F6D103E0012384F8143726
S31560010DB00FE0226B08A9126841F80C0D009203221C
S31560010DC001920290039001222046FFF7E1FE00287E
S31560010DD0EBD008B010BD002070470020704700209E
S31560010DE07047012380F87A30704770B590E8180033
S31560010DF00D4658680C21F8F39BF5064630B1002183
S31560010E000C22F3F34DF72E51002070BD6FF01A00DE
S31560010E1070BD0000F8B5836806465C6803680F59C3
S31560010E200D4658684FF48471F8F382F578600028AE
S31560010E302DD02B59002158684FF48472F3F330F7A3
S31560010E403368C42158682F59F8F372F5B860F0B168
S31560010E502B5900219868C422F3F322F72B592849AC
S31560010E609F68336832463B609868002301F054DA24
S31560010E70B86660B12B5923499F68336832469868D2
S31560010E80002301F049DAC7F8C000002833D12B5995
S31560010E909B680BB3996E39B13368986801F020DAB3
S31560010EA02B5900229B689A662B599B68D3F8C01010
S31560010EB041B13368986801F013DA2B5900229B68B7
S31560010EC0C3F8C02032682B5950689968C422F8F378
S31560010ED03FF52B5900229A602B59596869B13368DD
S31560010EE04FF484725868F8F333F52B5900225A602F
S31560010EF06FF01A00F8BD0020F8BD6FF01A00F8BD5A
S31560010F001DF10000C9EA0000014638B551F8DE5B03
S31560010F1004461022284614F02DDA284604F1EE0123
S31560010F201022BDE8384014F0259A0000F0B51F4B39
S31560010F30A5B00468054620AA03F108071868596830
S31560010F40164603C60833BB423246F7D118681B7989
S31560010F5030603371204618A9102214F00BDA1CA9EF
S31560010F601022204614F006DA20A8F3F329F76A68FE
S31560010F702024C232009206220346019204AE214623
S31560010F8020AA05F17E0718A802960394F9F30CF6D8
S31560010F90314622463846F3F31FF605F19E0039467F
S31560010FA02246F3F319F625B0F0BD00BF14E4010043
S31560010FB038B500F17E05044620212846F5F380F315
S31560010FC0284604F19E012022F3F3EAF520B9204672
S31560010FD0BDE83840FFF798BF38BD0000F0B52E4B2D
S31560010FE0DFB004460E4659AA03F11007186859681E
S31560010FF0154603C50833BB422A46F7D118682860EF
S31560011000B36DD90746D49A0706D403F00403022BBD
S3156001101002D0002B3ED001E0202300E0102305AD75
S31560011020A4F87C3006F1C2012846062204F1BE0608
S31560011030F3F3D2F504F17E0120223046F3F3CCF5C9
S315600110402046FFF7B5FF31462022A81DF3F3C4F50C
S3156001105059A8F3F3B5F626220192B4F87C2003462B
S315600110600095039245AD202159AA04F1DE0002954F
S31560011070F9F39AF52946B4F87C2004F15A00F3F3A2
S31560011080ABF504F1FE0000210822F3F309F62046D0
S31560011090FFF7A7FE5FB0F0BD21E401007FB54368AD
S315600110A004AC9B6844F8082D00930D460068B7218F
S315600110B022460823F8F7B6FC064630B9284621468B
S315600110C00822F3F389F5304601E04FF0FF3004B0B2
S315600110D070BD00002DE9F04700F1FE050E4692460F
S315600110E0B2F80080294690F87B200446FFF7D6FFC8
S315600110F020B1284600210822F3F3D2F506F1120742
S3156001110008F158003818DD23C37194F87C3000F17A
S3156001111007090633037203220930154908F10608E7
S31560011120F3F35AF51FFA88F8012389F8053008F1B7
S315600111305803FF1894F87A3004F15A0103F0030357
S31560011140FB71B4F87C2007F10900F3F345F5B4F8B7
S315600111507C3006F14F000233984429460822F3F3A6
S315600111603BF5AAF80080B4F87C000830BDE8F0874A
S31560011170B7BE01002DE9F74F99460368B0F87C4088
S3156001118005468B46586820219246F8F3D1F3074607
S31560011190002874D02B684FF480715868F8F3C8F34F
S315600111A08046002861D02B684FF481715868F8F346
S315600111B0BFF30646002870D0BAF1010F03D0BAF129
S315600111C0020F66D123E005F18E0110223846F3F352
S315600111D003F50BF19C01102207F11000F3F3FCF407
S315600111E005F15A0122464846F3F3F6F438462021C2
S315600111F03246F9F3DFF7404632464FF48071FAF32F
S3156001120009F0484621463246FAF304F029E0B5F87A
S315600112107C300F2B08D82819C4F110025A300021EE
S31560011220F3F33EF510240FE014F007020CD02819F1
S315600112305A300021C2F10802F3F332F54FF6F87322
S31560011240234003F10804A4B210200BF19C0122464D
S3156001125005F15A03CDF80090F1F3A2F5C8B9083447
S31560011260A4B20C9B1C80012418E0044606462B6838
S31560011270394658682022F8F36BF316B90AE004463A
S3156001128008E02B68314658684FF48172F8F360F3D1
S3156001129000E000242046BDE8FE8F04462B684146E7
S315600112A058684FF48072F8F353F3E0E72DE9F04F95
S315600112B09FB005460E460692D0F800A01F46002B49
S315600112C000F0C5818368022A5B68FB58D3F8048005
S315600112D09B68079338D0042A00F00081002A40F009
S315600112E0B38107F11A0250466968712348F012DE2C
S315600112F00746002800F0AB8104694FF4BE4304F150
S31560011300120B238206995F225846F3F3C9F446F01D
S3156001131088031A0AE2742375B8F8183008F11C09B3
S315600113201A0AA375494662755046202214F022D8DE
S31560011330494604F11F002022F3F34EF40B23C8F84B
S315600113400030DDF8189087E1B8F80231B3F5007F17
S3156001135002D141F472760AE0802B04D141F49E56A3
S3156001136046F0080603E0042B08BF41F4E4766A6898
S31560011370B8F804B0926DADF876B002F00209B9F131
S31560011380000F0CBF4FF004094FF002090BF1710B0E
S31560011390802B1FFA8BFB30D116F480532ED02C8A0A
S315600113A014F001041BD12846FFF7AEFD2846696893
S315600113B0FFF714FE95F87A20B5F87C308DE80402C3
S315600113C0012203925046696805F15A0202944AF075
S315600113D03BDE2B8A85F87B0043F001032B82BDF847
S315600113E07630B5F87C2013F0070302D102F11003C1
S315600113F001E01832D31A9BB200E000239B4407F147
S315600114001A02504669681FFA8BF348F083DD074676
S31560011410002800F01C8104695F2304F1120B00218E
S315600114205F2223825846F3F33BF4330AE37426754D
S31560011430B8F8183008F11C011A0AA375627504F12F
S315600114401F002022F3F3C8F3B8F8042004F17100F9
S31560011450D8F80810F3F3C0F3BDF876301A0A42EAF9
S315600114600323A4F86F30B8F80231802B27D1F30437
S3156001147025D50DF1760228462146FFF72BFEBDF8EC
S31560011480763004F13F001A0A42EA0323A4F86F306A
S31560011490A37B022B04D100211022F3F301F404E0B3
S315600114A005F18E011022F3F397F35846314608F1A0
S315600114B09C020023F5F35CF0002800F0CC8094F8E0
S315600114C06F2094F8703043EA0223228A9B189BB2FC
S315600114D01A0A42EA032323820C2376E090F87A30D3
S315600114E0B0F87C901B0103F0300341EA030646F431
S315600114F06076B6B20023B00754BF09F1710909F1EC
S3156001150079091FFA89F9ADF8763007F11A02504662
S3156001151069684B4648F0FEDC0746002800F0978074
S3156001152004695F2304F1120B0021A9F112022382DF
S315600115305846F3F3B5F3330AE3742675B5F87C3090
S3156001154005F1BE011A0AA375627504F11F00202216
S31560011550F3F342F304F13F0905F18E0C6146102263
S315600115604846CDF814C0F3F337F3082205F1FE01BE
S3156001157004F14F00F3F330F30DF17603009328463F
S3156001158004F17103414606F00302FFF7F3FDA37B05
S315600115904846022BDDF814C004D100211022F3F372
S315600115A07FF303E061461022F3F316F3BDF876305C
S315600115B01A0A42EA0322A4F86F20228A9B189BB278
S315600115C01A0A42EA032323820F23C8F800304FF038
S315600115D0010941E0204606F0030108F18C0209ABDE
S315600115E0F5F384F0002831D00BF14D0009A91022E2
S315600115F0F3F3F2F2B8F80231B3F5007F03D17B6AF7
S3156001160043F080737B62DAF8003093F895304BB122
S31560011610069B0BB1022B05D17B6A23F4403343F45D
S3156001162080337B626B6839469A68504619F0EADB0B
S31560011630079BDAF80800D3F8C0104FF47A720023DA
S3156001164000F0F4DD012702E0002700E00746384696
S315600116501FB0BDE8F08F81460323E373B8F802310A
S315600116605846802B14BFFE23022300F8053B08F180
S315600116705C010822F3F3B0F2B9F1000FBAD0A9E721
S31560011680D0F8483170B55C680646E1420D4640D0F7
S315600116900B59002B3DD0596859B14AF007DE2B59D9
S315600116A04FF4847259687068F8F352F12B5900222D
S315600116B05A602B599B68002B2BD0996E61B1B0682B
S315600116C000F0FCDD2B59B0689B68996E00F008DE6E
S315600116D02B5900229B689A662B599B68D3F8C010D8
S315600116E071B1B06800F0EADD2B59B0689B68D3F838
S315600116F0C01000F0F5DD2B5900229B68C3F8C020AD
S315600117002B59C42299687068F8F322F12B5900228B
S315600117109A6070BDC16810B5044621B10068FFF7D3
S31560011720AFFF0023E36010BD70B5C5680446002DA8
S3156001173052D083685B68EB585B68002B4CD01E8A7D
S315600117401A68042E14BF012602260C2A1CD00F2A01
S315600117502AD00B2A40D193F80421511C022A83F81E
S31560011760041108D9C16821B140681A310F224AF0C3
S3156001177041DD20461FE003F15C000821F4F3A0F788
S3156001178020463146002222E093F80421511C022AA8
S3156001179083F804110FD803F15C000821F4F390F784
S315600117A020463146022212E093F80421511C022A96
S315600117B083F8041103D9BDE87040FFF7ABBF03F1AD
S315600117C05C000821F4F37CF72046314604222B465F
S315600117D0BDE87040FFF76ABD70BD70B5064600682A
S315600117E00C46FFF74DFF31680023CA18D2F84C2228
S315600117F032B1526922B1D068A04201D10020D060D5
S315600118000433202BF1D17568631943B1615931B144
S3156001181033680C225868F8F39BF00023635170BD5E
S3156001182037B50C461546014670B16BB18268526890
S315600118309B580A8B986852B1C38853B91A312346AB
S3156001184000954AF099DB05E04FF0FF3002E0104663
S3156001185000E000203EBD2DE9F04F026889B00546E3
S31560011860884606929946002B00F0328183685B6850
S3156001187059F803305C68D3F808A0002C00F02A817F
S31560011880BAF1000F00F02881238A042B14BF0123CB
S3156001189002230793B4F80231802B05D0B3F5007F9C
S315600118A002D0042B40F01A8104F15C0B012008235D
S315600118B008F117015A4698F8137098F81460F4F312
S315600118C0F1F4834500F00C81236846EA07260C2B68
S315600118D063D00F2B00F0E3800B2B40F0018106F4FF
S315600118E0DC73B3F5847F40F0FB8004F13C07202272
S315600118F008F11F013846F3F36FF109F11A030693F4
S315600119000AF148030093BAF8063004F18C0CCDF85D
S3156001191008C00193A38A69680393C231069804F1EA
S315600119201C023B46CDF814C0F4F322F516F4807F11
S31560011930DDF814C008D0404606F003016246F4F3B0
S3156001194077F5002800F0CC8098F86F2098F8703011
S3156001195053EA022308D0E2889A4205D108F1710060
S31560011960E168F3F31DF128B16868069911224AF01E
S3156001197041DCB5E084F804012B68DAF8C010986898
S3156001198000F09CDC58460821F4F39AF6284607993C
S3156001199002224B46FFF78AFCA2E006F4D873B3F540
S315600119A0807F40F09D80F10509D5404606F0030130
S315600119B004F18C02F4F33CF5002800F091800023D9
S315600119C084F804312B68DAF8C010986800F076DC88
S315600119D0228A09F11A06238B06988DE84400696804
S315600119E004F1AC024AF0A0DBB4F80231802B02D1DB
S315600119F01023236034E0042B32D12F8A0D2317F094
S31560011A000107236022D12846FFF77EFA28466968D6
S31560011A10FFF7E4FA95F87A20B5F87C30012A14BF0D
S31560011A200122022285F87A200092228A0698019282
S31560011A3001220392696805F15A0202974AF004DBB2
S31560011A402B8A85F87B0043F001032B8258460821D7
S31560011A50F4F336F62846079904224B46FFF726FC2F
S31560011A60B4F80231B3F5007F05D1069A3146D2F852
S31560011A70440101F03DFFB4F80231802B01D0042B03
S31560011A8008D16B6806989B687921009332460623D4
S31560011A90F7F7C8FFB4F80231802B21D114E0F205C3
S31560011AA007D5404606F0030104F18C02F4F3C0F455
S31560011AB0B0B1002384F804312B68DAF8C010986855
S31560011AC000F0FCDB102323602846FFF723FE07E0C6
S31560011AD0184606E0204604E0504602E0002000E099
S31560011AE0012009B0BDE8F08F2DE9F3470B9E05464D
S31560011AF090469A468946002941D0002E41D0836896
S31560011B0000685B68F3585C689F6821464AF0CEDBE3
S31560011B100923236099F800302868302B6B682146C9
S31560011B20B3F862304A460CBF03F0800303F0040346
S31560011B30A4F802310A9BCDF800A0019343464AF00E
S31560011B40D5DBF8B16B69012B01D1F888D0B14FF0C3
S31560011B50000884F804812B68D7F8C010986800F0F3
S31560011B60ADDB218A0A2323602846042914BF01219B
S31560011B70022142463346FFF799FB012002E00846FF
S31560011B8000E03046BDE8FC8770B505460E46406804
S31560011B904FF48471F7F3CCF6044648B100214FF453
S31560011BA08472F3F37DF0D5F8483184E86000A36070
S31560011BB0204670BD014628B103684FF484725868A7
S31560011BC0F7F3C6B6704770B50D46B4B00446002843
S31560011BD036D0002934D0038A4A8823F002031B04D5
S31560011BE01B0C12F0010F03820A881AD0A2F10803B6
S31560011BF09BB2382B24D8402A18D1002303A804317C
S31560011C0000934AF0B9D9064680B904F11A0015A9BC
S31560011C102022F2F3E1F7238A304643F0020323825E
S31560011C2010E0202A0CD143F002030382291D2A8881
S31560011C3004F11A00F2F3D0F72D880020258301E024
S31560011C406FF0010034B070BDF0B5069F1446079E73
S31560011C501A46059B50B1012907D141612146059775
S31560011C600696BDE8F040FFF73FBF0020F0BD10B516
S31560011C7088B1CC7B032C0BD14469012C08D18C7CB7
S31560011C80022C01D0FE2C05D1FFF7E5FD012010BD28
S31560011C90002010BD002010BD2DE9F04146681746B1
S31560011CA0D6F8D432D0F800805A8EADF5067D02F4AE
S31560011CB07042A2F580556A4242EB050204464046EF
S31560011CC046F0A6DB4FF4007385930546002851D094
S31560011CD047B1E368002B4DD120462946FFF79AF8B4
S31560011CE0002847D1A36820465B68EB589F68FFF7D9
S31560011CF01DF9B6F86230AB8703B1E560238A9807B0
S31560011D0008D5202207F1480004F11A01F2F364F7BD
S31560011D102022FA80FB88202B1BD185AB009340469D
S31560011D2050212A6905AB01F039F808AB0093859B10
S31560011D3020460C3B0193E36801210293D5F8E82024
S31560011D40D5F8EC30FFF780FFA0B92046FFF7E2FC3B
S31560011D5010E063687069B3F86230B3F5007F03D150
S31560011D6006F1BC01062202E0727E06F11A012B46DB
S31560011D70FFF756FD0DF5067DBDE8F0812DE9F047CB
S31560011D80C66805460768002E33D083685B68F358DA
S31560011D909C68002C2DD004F16C0948464FF4807183
S31560011DA0F8F322F6804600281BD104F1480120226F
S31560011DB04846F8F359F62023E3806B6806F11A0169
S31560011DC0B3F86230B3F5007F05D1D7F84401BDE8B9
S31560011DD0F04701F08CBD28464246BDE8F047FFF763
S31560011DE05BBF0022B868A16E1346BDE8F04700F0FC
S31560011DF01D9ABDE8F0877FB591F8943005460C468B
S31560011E0043B3D0F8000503A945F094DF10E0337EB3
S31560011E109B070DD53369A3420AD101234FF0020E08
S31560011E208DE80840284621463246002346F09AD876
S31560011E3003A845F087DF06460028E8D13C23C4F8AD
S31560011E408C30F7F30FF20123C4F8900084F89460A4
S31560011E5084F884307FBD704710B5C3F8A0100820A0
S31560011E6019461C4633F02CDB84F8A40010BD38B546
S31560011E70057D0446A5B1437D8BB9C068A16900F0B3
S31560011E801DDAD0F1010538BF002501236375E369C9
S31560011E900BB1A068984700236375237500E00025A0
S31560011EA0284638BD0068F9F7E2BB10B50468B4B0DE
S31560011EB051B10171C922002101A8F2F3F1F6236B38
S31560011EC001A9186902F0C2FE34B010BD70B503688D
S31560011ED004461B680D461B7E002B23D02AB18E79E2
S31560011EE0002E0CBF2026102600E016462946204605
S31560011EF03FF0CCDF18214143324620463E3141F066
S31560011F00CDD9BC21204640F0ABDC95F948300122A1
S31560011F109A4020EA0202BC21204692B2BDE8704096
S31560011F2041F0BC9970BD4FF0FF3070474FF0FF3004
S31560011F3070472DE9F7430A9F0B9E0C46054690466E
S31560011F409946009701963FF0C7DB4B4628462146E6
S31560011F504246009701963FF0ADDC214601222846B4
S31560011F603FF090DCB4F83435D90606D528462146CB
S31560011F7003B0BDE8F0433DF0BF9A03B0BDE8F0831E
S31560011F80406B7047F8B504460E46174690F85651B1
S31560011F90FEF308F460B10FE0736ADB0606D494F8C9
S31560011FA0573143F0020384F8573103E0383F38363E
S31560011FB0372FF1D884F85651F8BDF8B504460E4668
S31560011FC0174690F85651FEF351F460B10FE0F3886D
S31560011FD0DA0606D494F8573143F0010384F8573191
S31560011FE003E0083F0836072FF1D884F85651F8BD4B
S31560011FF02DE9F041A2B00446884690F8556190F803
S31560012000567190F8545188226846F2F3E5F52046F8
S315600120104146FEF32FF6002832D1009B84F85671B3
S315600120209D4284F8545129D01BB994F8572172B155
S3156001203011E0022B04D194F8572112F0010F05E04B
S31560012040012B06D194F8572112F0020F01D1FE221D
S3156001205012E085B90BE0012D02D112F0010F03E008
S31560012060022D03D112F0020F05D107E035B994F8BC
S315600120705521B24202D2002284F8562184F85431A5
S3156001208022B0BDE8F08110B50446FEF389F600235F
S3156001209084F85731A4F85831C4F85C3184F8563164
S315600120A010BD000038B504460D46FEF3E7F600BBE9
S315600120B0A36DDDB1EBB9D4F854210E4B13407BB15E
S315600120C094F85431022B04D194F8573113F0010F6F
S315600120D005E0012B06D194F8573113F0020F01D1B7
S315600120E0FE2300E0002384F8563138BD0BB184F835
S315600120F0560138BDFF0000FFF0B591B0ADF10406A1
S3156001210004460546B646002309E00769013397F898
S3156001211007C04EF804CFD7F834C087F807C0B4F9C2
S3156001212010700430BB42F0DB2046FEF3A9F70023B2
S3156001213004E02A6956F8041F0133D171B4F91020FD
S3156001214004359342F5DB11B0F0BD38B5154604464A
S31560012150FFF32CF02B680BB10223A36538BD0E2962
S3156001216073B505460BD00F2910D1114601A804227B
S31560012170F2F332F528460199F3F727FD08E0B0F846
S315600121805831002003F00103136001E0FFF352F0C0
S315600121907CBDF8B504460F46866EFFF3F3F405463B
S315600121A080B9042207F1140104F5AE70F2F314F557
S315600121B0D4F85C314FF47A725343711CC4F85C31C4
S315600121C008BFA6662846F8BD836E013301D0FEF3CB
S315600121D0ABB37047F8B50C2904460D46174690F81F
S315600121E053610DD100210122FEF34AF720460021F9
S315600121F00122FEF301F7002384F8CE3084F8CD3056
S31560012200A36E2946581C08BF84F8563120463A46C3
S31560012210FFF356F0B4F86C3003F0C003C02B16D14F
S31560012220D4F85C319BB194F85331B3420FD9E3686A
S31560012230A168986800F042D8E368A1689868D4F804
S315600122405C210123FFF3F2F74FF0FF33A366F8BD7C
S315600122502DE9F84304468946FFF31EF5F7F302F0CC
S3156001226094F854318046012B1DD82646002516E088
S315600122707769BB79022B10D1B4F86C30DB050CD5CC
S31560012280204649464246F3F70BFC30B90423BB713D
S3156001229094F8CD30013B84F8CD3001350436B4F97C
S315600122A010309D42E4DBBDE8F8837047002070473B
S315600122B070470020704770470020704770470020C4
S315600122C070477047704770477047704770477047EF
S315600122D070474FF0FF30704770470020704700200D
S315600122E070477047704770470020704770472DE907
S315600122F0FF410B9E0C46B6F862500A9F15F00F0F10
S31560012300DDF8308014D040F237153D4085B1009735
S315600123100196CDF808800BF091DD98F9343033B130
S315600123206378022B03D9023B6370841E00E0044686
S31560012330204604B0BDE8F081F0B5069D0F46B5F8BC
S315600123406240059E14F4747F07D040F2371434401E
S315600123501CB1BDE8F0400BF0A59B3846F0BD00000E
S315600123602DE9F04F8FB00B4693461D990022054625
S315600123701A9EDDF86CA009920A920593DDF86090C9
S31560012380199F2FF067DE059B0BF00102D0F8D8820A
S3156001239004460092194628683246534613F0C4DD56
S315600123A0002840F0CD81032F0CD9042209A84946A3
S315600123B0F2F312F4072F05D90AA809F104010422E0
S315600123C0F2F30AF4BBF1140F00F29D81DFE81BF012
S315600123D0150019009B019B014600230087009200AE
S315600123E0A300A900B7009B019B01BA007D01800192
S315600123F09B019B01F8000D01850128460AF0CEDAA2
S315600124008DE0284609990AF0F3DA00280CBF6FF0CF
S315600124101C07002793E1A479002C40F07781D8F856
S315600124202C1041B16868D8F83020F7F391F2C8F8FA
S315600124302C40C8F83040002F00F081816868394629
S31560012440F7F376F2C8F82C00002800F06281C8F82C
S31560012450307049463A46F2F3BFF33CE1A379002B6B
S3156001246000F05A81484604F1BC010622F2F398F362
S315600124700746C0B9A26DB4F862308DE81400D4F88D
S31560012480D4223146029228465246FFF730FF321A6D
S315600124900146A06DB4F8623052448DE811002846B9
S315600124A0FFF74AFF4BE12846494645F0A7DF00287A
S315600124B000F03581D0F8E840002C00F03081D0F88A
S315600124C0EC309A45C0F23681627830462146023256
S315600124D0F2F382F363780027F618F7702FE1B4F907
S315600124E05E302BB9B4F95C30003318BF012374E058
S315600124F0022372E0099B022B04D10023A4F85C300D
S31560012500012305E0003318BF0123A4F85C300023E2
S31560012510A4F85E30DFE0D5F83407FAF737F83060B3
S31560012520D9E0D5F83407099CFAF736F8844200F306
S31560012530F980D5F834070999FAF72BF8CBE0B5F8A5
S31560012540BE384AE02B6893F8A030002B38D07E491C
S31560012550062207A8F2F340F3314604220CA8F2F3EF
S315600125603BF3311D04220DA8F2F336F307A806F1F9
S3156001257008010622F2F330F30D9B53B9D5F86821B1
S31560012580917981B95269012A0DD02A6892F83F2062
S315600125904AB907AA00921036284621460C9A019636
S315600125A017F0C8DC72E02B681B7E002B00F0BD8043
S315600125B02846214607AA06F1100317F0A7DC65E055
S315600125C0032F40F2B7800999002904DB28460BAA3C
S315600125D02FF084DC044614B1237933607BE00B9BD6
S315600125E01E3340F0A5803460A2E0BAF1070F40F3D4
S315600125F0A1800A9E032E05D0A6F102014E4246EB4A
S31560012600010600E000260999002921DB28460BAA6C
S315600126102FF064DC0446D8B90B9B1E331AD10A9B92
S31560012620002B17DD2246234686F0010628460999C6
S3156001263000962FF0EDD8044670B1284621462FF05A
S31560012640D1DD074650B1284621462FF025DD05E04C
S31560012650002703E0074601E06FF01A070A9B032B88
S315600126606DD0002F6BD1002B27DD022B02D0227992
S31560012670002A64D12A68126F92075ED1A27992B15B
S31560012680022B05D0284621462FF0DEDB074656E0B1
S3156001269063791BB1284621462FF022DA2846214666
S315600126A02FF0FADC4BE0637E2846009201922146C8
S315600126B004F11A0229F08CDF41E06379002B3ED0E8
S315600126C0284621462FF00CDA39E095F8C33484E7C1
S315600126D0099B85F8C334002731E02B68D3F88C4019
S315600126E095F8293013B1284619F058DF20460021A4
S315600126F04FF43972F2F3D4F20623238000270423C0
S31560012700638037601BE06FF0160718E06FF006070D
S3156001271015E06FF01A0712E06FF005070FE06FF032
S315600127201D070CE06FF01C0709E06FF0030706E078
S31560012730274604E06FF00D0701E06FF008073846A1
S315600127400FB0BDE8F08F00BF2C9E850070B50546C1
S315600127500E461CF0D1DB0446C0B13146284640F234
S315600127606C521CF0DBDC064620B9284621461CF07B
S3156001277037DC0AE0214640F26552F2F32DF2284633
S31560012780214640F26552F7F3E3F03446204670BDC8
S3156001279030B5054C8568A54203D0BDE83040F2F3FB
S315600127A081B5002030BD00BF080000208B7910B5CF
S315600127B0044C0BB1012323702FF012DA002323702E
S315600127C010BD00BF10140200054B0269197829B1CA
S315600127D0D2F8D02012B100221A7070471AF0909B7D
S315600127E01014020038B50546F3F77BF80128014657
S315600127F007DD044C012328462370FAF30BF400230A
S31560012800237038BD0814020010B5074C2378012BDC
S3156001281009D0064B1B78012B05D001232370FAF3EF
S315600128206BF50023237010BD1C140200081402000E
S3156001283010B50446F9F392F5002384F8173284F84B
S31560012840183210BD10B590F8163204465BB1084BCC
S315600128501B6843B1D0F88011D0F884210223C06887
S315600128604A40FBF3EBF12046BDE81040F9F326B48C
S31560012870BC0F02000FB430B5114AADF5037D964524
S3156001288015D0104A964512D087AB684640F20121B1
S31560012890869A8193F2F33AF30025044604E01DF823
S315600128A00500F6F37DF70135A542F8DB00E000246B
S315600128B020460DF5037DBDE8304004B0704700BF8A
S315600128C0DB628200FB5482002DE9F0478CB0149FD5
S315600128D00E469846394600230446154608932FF05E
S315600128E0B9DB8146D0F8DCA265B1B8F1030F09D92D
S315600128F02946042208A8F2F36FF108A829460422A2
S31560012900F2F36AF15F2E20DC5E2E80F2BF81352EF6
S3156001291072D00EDC162E00F0768103DC152E40F0A7
S31560012920128264E11C2E00F084812F2E40F00B820E
S315600129302CE1372E00F0C680C0F2A580382E00F05B
S31560012940E880392E40F0FF8102E1C52E39D008DCDE
S31560012950A52E00F04081C42E15D09F2E40F0F38144
S315600129606DE1D82E00F0B58103DCD72E40F0EB8106
S31560012970A7E140F23F139E4200F0BD81B6F5A07F0C
S3156001298040F0E181C2E1A448FFF774FF0123B8F189
S31560012990070FC8BF69682046D8BF00218DF82F3060
S315600129A0099113F0ADDA0746002840F0E3810899F2
S315600129B0CA0700F1CB81204689B216F001DA286098
S315600129C0D8E10123B8F1070FC8BF69682046D8BFAF
S315600129D000218DF82F30099113F092DA074600280D
