S0180000696D675F7274313035305F64656275672E737265635E
S31560000000464346420001015600000000000303001B
S31560000010000000000000000000000000000000007A
S31560000020000000000000000000000000000000006A
S31560000030000000000000000000000000000000005A
S31560000040210000000104050100000000000000001E
S315600000500000000400000000000000000000000036
S31560000060000000000000000000000000000000002A
S315600000700000000000000000030000000000010016
S315600000806B04180808320426000000000000000017
S3156000009005040424000000000000000000000000C9
S315600000A000000000000000000000000000000000EA
S315600000B006040000000000000000000000000000D0
S315600000C000000000000000000000000000000000CA
S315600000D02004180800000000000000000000000076
S315600000E000000000000000000000000000000000AA
S315600000F0000000000000000000000000000000009A
S315600001000000000000000000000000000000000089
S3156000011038041808042200000000000000000000F7
S315600001200000000000000000000000000000000069
S315600001300000000000000000000000000000000059
S315600001400000000000000000000000000000000049
S315600001500000000000000000000000000000000039
S315600001600000000000000000000000000000000029
S315600001700000000000000000000000000000000019
S3156000018000000000020100000203000004050000F8
S3156000019002090000040B00000000000000000000DF
S315600001A000000000000000000000000000000000E9
S315600001B000000000000000000000000000000000D9
S315600001C000010000001000000000000000000000B8
S315600001D000000000000000000000000000000000B9
S315600001E000000000000000000000000000000000A9
S315600001F00000000000000000000000000000000099
S31560001000D100204101FE0760000000003010006042
S31560001010201000600010006000000000000000006A
S315600010200000006018E2130000000000FFFFFFFFF1
S31560001030D2001041C0000400C0000400C0000400DB
S315600020000020002001FE07607D0E0B6029030B6037
S3156000201029030B6029030B6029030B600000000095
S3156000202000000000000000000000000035030B60A7
S3156000203061FF07600000000061030B60F10F0B6039
S3156000204071A00A6071A00A6071A00A6071A00A603E
S3156000205071A00A6071A00A6071A00A6071A00A602E
S3156000206071A00A6071A00A6071A00A6071A00A601E
S3156000207071A00A6071A00A6071A00A6071A00A600E
S315600022C071A00A6001B441EA000313F003036FD101
S315600022D0403A41D351F8043B40F8043B51F8043B83
S315600022E040F8043B51F8043B40F8043B51F8043B8A
S315600022F040F8043B51F8043B40F8043B51F8043B7A
S3156000230040F8043B51F8043B40F8043B51F8043B69
S3156000231040F8043B51F8043B40F8043B51F8043B59
S3156000232040F8043B51F8043B40F8043B51F8043B49
S3156000233040F8043B51F8043B40F8043B51F8043B39
S3156000234040F8043B51F8043B40F8043B51F8043B29
S3156000235040F8043B403ABDD2303211D351F8043BC9
S3156000236040F8043B51F8043B40F8043B51F8043B09
S3156000237040F8043B51F8043B40F8043B103AEDD278
S315600023800C3205D351F8043B40F8043B043AF9D2C9
S3156000239004320AD0D2071CBF11F8013B00F8013B9A
S315600023A003D30B7803704B78437001BC704700BF52
S315600023B00C2A4AD310F0030311D0C3F10403D21AD6
S315600023C0DB071CBF11F8013B00F8013B07D311F88E
S315600023D0013B00F8013B11F8013B00F8013B11F0AD
S315600023E003033FF475AF30B4043AC91AC3F1040C61
S315600023F051F8044B022B19D0032B0BD0240A51F849
S31560002400043B1D0644EA050440F8044B1C46043AA6
S31560002410F4D216E0240E51F8043B1D0244EA05048A
S3156000242040F8044B1C46043AF4D20AE0240C51F8F6
S31560002430043B1D0444EA050440F8044B1C46043A78
S31560002440F4D20432B1EB0C0130BC043AA0D3013AA9
S3156000245011F8013B00F8013BF9D20B7803704B7819
S3156000246043708B78837001BC704700BF000000002A
S31560002470CC07008000000000AC492DE9F047064615
S3156000248082B00846A94BD1F8E020D407FAD5D0F837
S31560002490E0209207F6D53279203253F8221041F0C7
S315600024A000413279203243F822105A6942F0100214
S315600024B05A615A6942F008025A615A6942F0040246
S315600024C05A615A6942F002025A613268C3F8A02022
S315600024D0D3F8BC2042F00102C3F8BC20D3F8B82080
S315600024E042F00102C3F8B8207379013B022B40D851
S315600024F0B189F279B379013A1B04120603F47023A9
S3156000250002F0E06213430B43884CC4F8A430012305
S31560002510C4F8B030737903F0FD02012A2BD0022B88
S3156000252000F08F80002081490C46804AD1F8E03067
S31560002530DD07FAD5D4F8E0309B07F6D57379ABB9E9
S31560002540536940F60A00184080B1536918435061D8
S31560002550D2F8BC3043F00103C2F8BC30D2F8B830D0
S3156000256043F00103C2F8B8304FF0FF3002B0BDE867
S31560002570F0870021BDE70023B568F2680193D4F8BF
S31560002580BC30C3F383030133002ACBD04FEAC30ABE
S31560002590A0464FF0010E02E06369DB0719D4634879
S315600025A061694F06F8D540F60A030B40A3B142694C
S315600025B013434361D0F8BC3043F00103C0F8BC302C
S315600025C0D0F8B83043F00103C0F8B8304FF0FF30B0
S315600025D0A9E7C8F814E0E2E7924518D95FEA9209DC
S315600025E00BD0294651F8047B03F1600044F8207053
S315600025F001334B45F6D105EB890512F0030215D17F
S31560002600636943F040036361002AC2D18AE705EB40
S315600026100A0E55F8040B03F1600144F82100754574
S3156000262003F10103F5D1CAEB0202E9E7294601A8E5
S3156000263000F06AFA09F16109019B44F82930002229
S31560002640DEE70023B568F1680193D4F8B870C7F384
S315600026508307013700293FF465AFFF00B9421CD3F9
S31560002660324A606940F60A0310F0200F03EA00035D
S3156000267021D1002BF4D051690B435361D2F8BC30A1
S3156000268043F00103C2F8BC30D2F8B83043F001031E
S31560002690C2F8B8304FF0FF3045E7244AD4F8F0303E
S315600026A0DBB2B1EBC30F06D9606940F60A0303409B
S315600026B0002BE0D1F1E71D4A606940F60A0303404A
S315600026C0002BD8D1B94213D25FEA910E0BD02A46BD
S315600026D003F1400054F82000013342F8040B7345BF
S315600026E0F6D105EB8E0511F0030214D111460BE00D
S315600026F0E81903F1400254F8222045F8042BA84259
S3156000270003F10103F5D1C91B636943F020036361DB
S315600027100029A3D106E70EF1400E54F82E3001A928
S315600027202846019300F0F0F90021EDE700802A4089
S315600027302DE9F04701248AB00F46924699468DF8F6
S315600027400740032600F0D6F90023804606A80697C0
S315600027508DF81F408DF81C308DF81D308DF81E6089
S31560002760FFF78AFE054630B1404600F0C7F92846B5
S315600027700AB0BDE8F087092302A88DF80C500297CD
S315600027808DF80D608DF80F40CDF810A0CDF814903F
S315600027908DF80E30FFF770FE05460028E4D19DF8EF
S315600027A00730DA07E0D506460DF10709022706A8C5
S315600027B006968DF81C608DF81D708DF81E408DF89C
S315600027C01F40CDF820900994FFF756FE9DF807301C
S315600027D00546DB07EBD4404600F090F928460AB080
S315600027E0BDE8F0872DE9F0434FF001088BB0002477
S315600027F00D468DF8078000F07DF90323814606A813
S315600028008DF81F8006948DF81C408DF81D408DF85C
S315600028101E30FFF731FE074630B1484600F06EF9CC
S3156000282038460BB0BDE8F0831C4B1D489861022604
S31560002830DE611C4A29040A43C3F880229861C3F802
S315600028401C800E2302A8029745468DF80C708DF801
S315600028500D708DF80F800DF10708049705978DF8B8
S315600028600E30FFF709FE074606A806948DF81C4051
S315600028708DF81D608DF81E508DF81F50CDF82080A4
S315600028800995FFF7F9FD9DF80730DB07ECD448465C
S3156000289000F034F938460BB0BDE8F08300802A407A
S315600028A0F05AF05A420400042DE9F0438BB000243C
S315600028B00D464FF0010800F01DF90323814606A876
S315600028C006948DF81C408DF81D408DF81E308DF8ED
S315600028D01F80FFF7D1FD074630B1484600F00EF97C
S315600028E038460BB0BDE8F0831D4B1E489861022642
S315600028F0DE611D4A29040A43C3F880229861C3F841
S315600029001C80082302978DF80C7045460DEB03007A
S315600029108DF80D708DF80F800DF1070804970597F7
S315600029208DF80E30FFF7A8FD074606A806948DF8C9
S315600029301C408DF81D608DF81E508DF81F50CDF827
S3156000294020800995FFF798FD9DF80730DB07ECD4EA
S31560002950484600F0D3F838460BB0BDE8F08300BFB8
S3156000296000802A40F05AF05A010400042DE9F04331
S3156000297001248BB00E468DF8074000F0BBF80023AB
S315600029800322804606A806968DF81F408DF81C30F7
S315600029908DF81D308DF81E20FFF76EFD054630B1AF
S315600029A0404600F0ABF828460BB0BDE8F08305233F
S315600029B002A88DF80C508DF80D5002968DF80F40D8
S315600029C08DF80E30FFF758FD05460028E8D19DF8D2
S315600029D00730DA07E4D506460DF10709022706A88F
S315600029E006968DF81C608DF81D708DF81E408DF86A
S315600029F01F40CDF820900994FFF73EFD9DF8073003
S31560002A000546DB07EBD4404600F078F828460BB065
S31560002A10BDE8F08310B584B0002301220324684624
S31560002A2000918DF804308DF805308DF806408DF8EC
S31560002A300720FFF721FD04B010BD00BF30B50023AD
S31560002A4085B002250D2401200291039200938DF832
S31560002A5004308DF805508DF806408DF8070000F0BB
S31560002A6049F805466846FFF707FD0446284600F024
S31560002A7045F8204605B030BD30B585B00123002449
S31560002A80022568460291039200948DF804408DF801
S31560002A9005508DF806308DF80730FFF7EDFC05B070
S31560002AA030BD00BF2DE9F04784B08A46914698460E
S31560002AB000240227012600F01DF8054668468DF8B9
S31560002AC004408DF80640CDF800A0CDF80890CDF80A
S31560002AD00C808DF805708DF80760FFF7CDFC044615
S31560002AE0284600F00BF8204604B0BDE8F08700BF2A
S31560002AF000207047EFF3108072B6704780F310883D
S31560002B007047FFF7F5FFFEE7844641EA000313F0DE
S31560002B1003036DD1403A41D351F8043B40F8043B7E
S31560002B2051F8043B40F8043B51F8043B40F8043B41
S31560002B3051F8043B40F8043B51F8043B40F8043B31
S31560002B4051F8043B40F8043B51F8043B40F8043B21
S31560002B5051F8043B40F8043B51F8043B40F8043B11
S31560002B6051F8043B40F8043B51F8043B40F8043B01
S31560002B7051F8043B40F8043B51F8043B40F8043BF1
S31560002B8051F8043B40F8043B51F8043B40F8043BE1
S31560002B9051F8043B40F8043B403ABDD2303211D381
S31560002BA051F8043B40F8043B51F8043B40F8043BC1
S31560002BB051F8043B40F8043B51F8043B40F8043BB1
S31560002BC0103AEDD20C3205D351F8043B40F8043B81
S31560002BD0043AF9D2043208D0D2071CBF11F8013B7F
S31560002BE000F8013B01D30B8803806046704700BF45
S31560002BF0082A13D38B078DD010F003038AD0C3F154
S31560002C000403D21ADB071CBF11F8013B00F8013B35
S31560002C1080D331F8023B20F8023B7BE7043AD9D3F4
S31560002C20013A11F8013B00F8013BF9D20B780370C9
S31560002C304B7843708B7883706046704735060080AA
S31560002C400906008039040080A5050080FD04008027
S31560002C50C1020080CD050080750300800000000081
S31560002C60000000009DC7000061C6000061C600004C
S31560002C7061C6000061C6000061C6000061C6000052
S31560002C8061C6000061C6000061C6000061C6000042
S31560002C9061C6000061C6000061C6000061C6000032
S31560002CA061C6000061C6000061C6000061C6000022
S31560002CB061C6000061C6000061C6000061C6000012
S31560002CC061C6000061C6000061C6000061C6000002
S31560002CD061C6000061C6000061C6000061C60000F2
S31560002CE0004800479DC7000000000000000000008B
S31560002CF0000000000000000000000000000000006E
S31560002D00000000000000000000000000000000005D
S31560002D10000000000000000000000000000000004D
S31560002D20000000000000000000000000000000003D
S31560002D30000000000000000000000000000000002D
S31560002D40000000000000000000000000000000001D
S31560002D50000000000000000000000000000000000D
S31560002D60D11E8000B5228000BD248000491F8000EE
S31560002D70F921800015FC0000F1208000D120800040
S31560002D80594880006948800015648000E1628000CF
S31560002D90296280003D6580008D628000C56280008A
S31560002DA0596380005D6580007D6380009D6380005F
S31560002DB00D668000A9618000616180007560800099
S31560002DC095608000DD6380009D65800029668000D7
S31560002DD0FD618000B96580001D618000F16580003D
S31560002DE09D6680006D658000916C8000CD6B800073
S31560002DF0316C80008D6B8000556C8000AD6A800000
S31560002E00C16A8000D56A8000496B80001D6A8000B7
S31560002E10FD6A8000AD688000C1698000D16880006D
S31560002E20356B8000B169800071CE0000D16680008C
S31560002E30E16780008D678000CD6780009D688000B7
S31560002E40ED678000BD678000A1678000ED66800049
S31560002E5009678000616780004D4880001D488000DA
S31560002E6085988000DD96800051948000B19B80003B
S31560002E703994800005988000199880002D9880000C
S31560002E80C59B8000D19A8000899D8000D193800087
S31560002E90D9918000ED9A800001290000A9FB00000D
S31560002EA05129000085FB0000519B800079290000B4
S31560002EB049A9800099988000B129000031A8800056
S31560002EC005A7800021A28000BD938000DD9380006D
S31560002ED0199E80007D93800045988000E59B800068
S31560002EE06DA68000C19C8000C59F8000A19D80006A
S31560002EF0AD2A0000D1FB0000E5FB000029AA800096
S31560002F00B9A9800075AA8000E1A9800039AA80006D
S31560002F108DAA80005DAA80000DAA8000C5A98000E8
S31560002F209DA98000A90C8000850D8000C1068000E7
S31560002F3029088000694680004D468000D94480009B
S31560002F404146800021448000F5438000154480009E
S31560002F50E1438000E1428000854680007544800040
S31560002F602D448000A9428000F9428000CD43800054
S31560002F70B9458000F544800039458000090080002D
S31560002F803D00800049018000D10480000D0480006E
S31560002F90910380004D038000E503800035038000C7
S31560002FA06503800029028000CD0280005102800006
S31560002FB085028000F5028000950680003906800053
S31560002FC08105800005068000FD048000690F800091
S31560002FD025168000151680004513800015138000A5
S31560002FE02513800009138000351380000D1E8000B4
S31560002FF0F91D8000291D80001D1C8000391C800081
S315600030003116800059138000650E8000951380008C
S31560003010B91C80007328000099140200751D800099
S31560003020C50901003D1D80000D1B8000E910800070
S31560003030790F8000A9168000311480002D11800060
S31560003040A51E8000B11E8000BD1E8000692B800019
S31560003050AD28800011298000892B8000FD2B80001F
S31560003060E128800065288000B52C8000912C8000C6
S315600030701D2B8000752D8000252C80004D30800032
S31560003080DD2D8000592780003131800031FB000042
S315600030908D268000C5268000E5248000FD26800000
S315600030A021258000B12A80006525800025288000C2
S315600030B06129800041298000D92980009D298000EE
S315600030C081298000893080004D2E8000B12B8000E0
S315600030D0312C8000E12C8000613280002D3280002E
S315600030E0C93380004D368000693A8000B53580006E
S315600030F0F9348000A93480003D3380009D33800020
S31560003100013480003536800031388000353A8000E1
S31560003110213A8000AD3280000D338000DD328000C0
S31560003120953A8000D937800099368000193780003B
S31560003130593880004938800019398000313D800057
S31560003140D53A8000C93C8000E13B8000513D80005B
S31560003150D93D8000AD3E8000593F80009941800096
S3156000316041478000CD5B8000895380002D4D8000F3
S31560003170A94C8000E14D8000E94F8000B14F80008E
S31560003180C94E80008D4E8000F15180005D528000F6
S31560003190D15180002D52800001528000C94F8000BD
S315600031A0594C80006D4C8000455B8000395680002C
S315600031B0155A8000C9588000315A800081578000B6
S315600031C0F95980001D568000AD55800091558000EC
S315600031D04D5A80002D558000714B800071548000DF
S315600031E009548000F54D80001D4C8000F94B80002D
S315600031F0094C8000114E80001558800015080100AA
S315600032002D508000E5588000555680007D5A80001C
S31560003210054F8000354E8000D9558000515880009A
S315600032209D57800059518000614D8000B1488000F3
S315600032305D5B800081528000494C8000E1020100A4
S31560003240F15B8000E55C8000E15F8000A55E800048
S315600032507D5E80008D5C8000015C8000A15F8000E7
S31560003260895D800005608000395D8000D15E8000E8
S31560003270495E8000ED6C8000656D8000DD6D8000CC
S315600032800D6D8000296D8000896D8000F96C80006D
S31560003290D96C80003D6E8000616F8000756E800025
S315600032A0056E8000A974800055758000D574800015
S315600032B005748000D17C8000457D8000757C80002F
S315600032C0117E8000897E8000E97E8000917D80008D
S315600032D03D7E8000517F8000A581800065848000EE
S315600032E0418480008D838000658380003585800001
S315600032F0E58480009D84800021858000758480003F
S31560003300BD8380005D858000BD858000158F80004F
S31560003310918D8000D58980001986800019AB800068
S315600033205DAC8000A1AA8000B5AB80005DAB80007B
S31560003330FDB080007DB1800065B080006DAE80001C
S3156000334085AE8000EDAD800041AF80001DAE80008F
S3156000335031B180003DB18000B9AE8000F5B180002A
S3156000336079B08000FDAD800009B180008DB080002D
S3156000337049B1800069B180004DAE80003DAE8000ED
S3156000338095AE800029B38000C9AE8000CDAF8000C5
S31560003390E5AF800025B080008DAF8000B5B28000BB
S315600033A0FDB2800019B38000EDB080005DAE800094
S315600033B02DAE800029B28000A9B08000A1B1800046
S315600033C005B2800039B28000A9AE80007DAF800072
S315600033D0ADB38000A9BD80009DC1800025C7800077
S315600033E0DDC8800065CA8000E1CB8000DDCE80004C
S315600033F019CE800099CE800015CF8000C12D0000C7
S315600034000DD88000DDD7800091D780003509010096
S31560003410B12C000069D880007DCF800045D980003E
S31560003420FD08010099D1800051080100F9E0800093
S3156000343071F58000AB2F0000D1DE800033F500000F
S3156000344009EA8000A1E48000F1F50000E1EC80006B
S3156000345011E3800039EA800039E3800099E3800057
S3156000346029DF8000EBF4000099F4000027F40000E7
S315600034705BF3000025F30000BDEB8000B92E000071
S31560003480312F000045F4000091F30000FFF40000C6
S31560003490E1E18000A9E9800069F5000075F50000AA
S315600034A0EDF58000D90081009DF68000C5F78000AB
S315600034B085FF800045018100D50281004D038100B2
S315600034C0E50081007DF6800081F78000D5F58000FB
S315600034D051F9800031FB8000F1F68000F9F580003B
S315600034E041FF8000D9F98000DDFC8000A9F78000EB
S315600034F0C92F000059FB80008DF78000A5F9800078
S31560003500A509010029F68000A1F880005DF780001A
S3156000351065F6800095FD800009310000F5028100A6
S315600035202D028100890181000501810021320000A0
S3156000353099FF800019F7800089F68000C1F6800047
S315600035408109010085F5800005F78000DDF68000C1
S31560003550B1F68000AD6A8100BD6A8100DD2F810011
S31560003560E1578100F56D8200A98D820009258200F0
S31560003570196E820001AA81005D608200A537820013
S31560003580ED69810079598200E55882001D598200F3
S31560003590FD6D8100493A810041BC8200E95A820092
S315600035A0CD608100D59681001D6181002961810011
S315600035B089BF81001DAB8100A93282006736000099
S315600035C02569810005A6810021AD82002958810008
S315600035D0BD3E8100A540810035958100599B8100E3
S315600035E03D3682001D4582000928810099A0810030
S315600035F0D1288100E93B81008D288100416E8200DF
S31560003600859B8100295D81006D398200FD398200CC
S31560003610253A820095698100C97A810091578100B7
S315600036205D57810075308200852F82003557810095
S31560003630D12F82002157810049578100F5288100EA
S3156000364095A882002DA2820089D38100D56B810066
S315600036505959810075598100F55A820005AD81007E
S31560003660F1D2810039378100ED718100C596810004
S315600036708957820091618200CD618200A9588100DC
S315600036801D2782004543820001448200156A81003D
S31560003690614A8100ED4E810071228200055A8100E7
S315600036A04D8A81007549810071248200B14981008B
S315600036B0B144810075AC8200292B82005952810089
S315600036C0E12A8200B529820071A7810035A78100B1
S315600036D001D48100F5BE810055B48100D16A8200B3
S315600036E0D19C81009D9C8100959B8100B59D810048
S315600036F0459D8100C59D810061708200093581000C
S31560003700A1AB82008DAB820075AB8200F193810024
S315600037109968810015D7810071C182007D2B810077
S31560003720E92F81000DB6810025BD82008D4F810095
S315600037300D5081008543820031D78100B1BD820082
S3156000374095C182005DB38200670D01008DD1810055
S31560003750A9368100E9BC820029378100E9368100FB
S31560003760A1D68100A53B81006DAB810041B081008F
S31560003770D9F600008FF6000041BD820095BE82003A
S31560003780CD2E82009D6B8100CD458200453981003A
S31560003790353B8100BD3A8100F1D58100419F8100B2
S315600037A0119F810071A48200ADD58100C130810076
S315600037B0A13982004D618100995B8100A57281000B
S315600037C089DA810061BF81006157820081218200B0
S315600037D0A9218200D1AD820009BC8200B5A1810019
S315600037E09DCA8100B92F8200D9BB82001130820048
S315600037F07DAD8200CDA4810099A48100CDAB82000D
S3156000380015AB8200C1AA8200B998810081A58100AA
S31560003810D9D08100A9CF8100E93B8200EDCF81003C
S3156000382065D1810079D1810051D0810065D0810058
S31560003830E5218200112282000354000061540000D9
S31560003840FD9C81009145820055AE820041B48100A5
S3156000385095BD8100F18A8200098B820079D9810049
S315600038607D618200CDA4820041918100A13F8200EA
S315600038703594820049948200898982005DC1820004
S31560003880F1C18200D13B8200D5958200E56081005E
S315600038900920820069FB0000BD3B820075A18200A1
S315600038A025A58200253B8200E93A8200753A8200AE
S315600038B0F1308200B130820071D781004599820073
S315600038C091D7810089948200DDC18200A96A820055
S315600038D0256B8200C944810029458100596B8100AE
S315600038E059498100EDAA810069618200AD24820098
S315600038F005368100D535810079D08100A5D081005B
S31560003900715C8100E1AD8100EDD0810049C9810023
S315600039104DD88100893D82004920820065968200EB
S31560003920F925820089CF8100856A8200159382001D
S315600039302D5D8200E9CA81006D408200613082009F
S3156000394015488200313C810061D68100114E8100AC
S315600039509133000041A1810015A68100099982007A
S31560003960E5C98100B1D7810035C08200294A81004E
S3156000397041AD8100EDBE82002DBE820005BE820093
S3156000398079BE820055328100A5958100B1598100CA
S31560003990E54781009152810015638100956481003D
S315600039A08D668100592C8100392C8100212E810081
S315600039B065358200D5578200352B8200996082007A
S315600039C0016182001D4082001D2082001DD8810099
S315600039D0A9AC8200F1AB8200F52B820041AE820079
S315600039E001080100356A810009AE8200696D8200B6
S315600039F0098C8100D58B8100116F810081908100D7
S31560003A00296C8200DDA18100E92B8100552F82009F
S31560003A10398C8100A55A8200355C820045BB8200E4
S31560003A2091BE81002D6E8100115C8200258A810025
S31560003A304D93810089388200D5378200555A8100BE
S31560003A40013882008D038100E9208200E13E820018
S31560003A50914581002D6D81000D58820021478200BD
S31560003A60FDCE810011CA810059368200E74C000004
S31560003A7025CB8100912E81002D2F8100B93A8200DD
S31560003A808DF60000DDA9810031D48100D1B38200BA
S31560003A90ADA98100D53882008DD88100555E82003F
S31560003AA0719A81001541820035DA810019258200FC
S31560003AB06926820035358100490D01003D7181001E
S31560003AC0012D810009A282000D238200FD71810013
S31560003AD0D96082005172810041618200452881006F
S31560003AE0C12382008D6C81006D2382009547810021
S31560003AF0B9D98100B534810075C98100F13481007E
S31560003B002DBF810059AF8200D93C8100494F8100A9
S31560003B10E5AB81003D0101007931810005958200A8
S31560003B20A94D0000DD938200A56682000DC8810064
S31560003B30095E81006D550000156281009159810012
S31560003B409950000011498100C1488100B9BF8100C8
S31560003B50A5458200F5598200F1A9820041A682003E
S31560003B6039588200BD428200BDA782004D22820084
S31560003B7071A78200A5A78200E15C8100ED41820009
S31560003B80D1A78200D1688100B5CC810015AF8200D3
S31560003B9095418100E1C8810089AA8100E99681008A
S31560003BA07D2F8100393900004942820059448200E4
S31560003BB0050D010031318200614982004D49820064
S31560003BC00DA58100095E8200253E8200CDCD810073
S31560003BD029B382002151810045B18200A91D82006E
S31560003BE079BC8200D1568100599D8100999D8100E2
S31560003BF0191C8200513F82001D308100C9BD8100C1
S31560003C0015388100794A8100DD9B8100199E81000B
S31560003C1069618100896E8100B5708100D132820050
S31560003C20F1578100593A00009D5A81003D35820066
S31560003C3089338200D96E810045708100FD61810003
S31560003C40594B81000D9C8100558B8200F18E82005C
S31560003C50E59A8100BD35820049368100291F8200C0
S31560003C60655C820021030100516F8100299B810000
S31560003C70A56D8100B5A28200E1AF8200A9568200DF
S31560003C80894481003D578200E16F8200016F8200A6
S31560003C90DD728200E53E810095518100FDD4810090
S31560003CA0F5BC810081B48100F199810019318100F0
S31560003CB0358A8200DDDA810091540000CF5500001C
S31560003CC0E9898200C1D48100FD8D820099B68100A8
S31560003CD0BDA781003D9F82005D0381006D928200D9
S31560003CE0218B8200599A8100ED278100ED94820034
S31560003CF0FD8A81009D8A8100416B8100E16F8100B0
S31560003D005D468200A19482009D898200C9928200EC
S31560003D1079998100B1908200219182001D348100E1
S31560003D2099B28200DD6A82008DC9810059278200BE
S31560003D30EB070100D9908100A56B82006D3C820083
S31560003D40E56D820005C28200C96A8100ED45820088
S31560003D50816B8100353F8200FD90820071BC8100DD
S31560003D60F16B81003D4E8200514A82003DA2810086
S31560003D708D0B0100F9570000B97E820069888200C8
S31560003D80695A8200DD2E810015138200117381004D
S31560003D90698082009D9181005D8B8100816C8200CB
S31560003DA08D8F81004D8F810009888100BD6D8200F5
S31560003DB0018E81001D5E820091718100C1278100A4
S31560003DC0797582002DBE81002D5B8200E9A5820097
S31560003DD0B572820029640000217D82004D808200D8
S31560003DE08D7F820001A08100ED7F82002D418100E0
S31560003DF0F98481006185820045728200F9548100F0
S31560003E00692B820069518100C55581003156810058
S31560003E10A1A6810071508100392A82006153810018
S31560003E20C5738100F96D0000F1978100A99B81003F
S31560003E30FD3B820025A08200DD398100715D810035
S31560003E404F0301004995810009CC810021A38200BE
S31560003E5045AA8100AD818200916782000D890000CC
S31560003E607D708200E12F8200E903810081DB8100A1
S31560003E70952482006989820089C38200C5C4820054
S31560003E80EDFA0000B1EB820009CB82000DCC820016
S31560003E9059EB820061E9820015F18200E9CD82006A
S31560003EA045DF820009F182008DF782008DCA8200AB
S31560003EB089F38200D5CA8200A1098300C9F782000E
S31560003EC0FDEF820099F8820025F9820039FA8200B6
S31560003ED089ED8200198C0000ADE5820065DA82000A
S31560003EE07DC582002DE68200018D000031E48200EE
S31560003EF0E5F182009DC8820055F38200C902010087
S31560003F0061C78200CDE182006DE18200A5E2820098
S31560003F1059DF820029F4820009C7820055EF8200CA
S31560003F20E9EC8200E10C0100BDDD8200E1C58200A2
S31560003F304DE5820005E08200A5F982000DC582008C
S31560003F40A1920000298E0000FD8E000091E682009D
S31560003F50BDCC8200FDE982008DD182002DF1820008
S31560003F602DF7820095FB820069CE8200A1F0820067
S31560003F70D5F08200F5CC8200AF8F000081D9820037
S31560003F8045C58200FDCB820025CB8200BDEB820059
S31560003F901DDB820015CD820041900000CDE68200D7
S31560003FA04DCF82009DCB8200450C8300E50D8300DA
S31560003FB0590E8300410E8300010B83004D0A830076
S31560003FC0D10D8300310C8300590C8300710A830084
S31560003FD0650E8300F10D8300410B8300A11E8300F3
S31560003FE0B11E8300012B8300F54E8300112B8300E5
S31560003FF0B127830099238300014A8300ED4983003A
S31560004000FD478300CD4C8300BD4C8300714C83001B
S31560004010D52783004D25830095258300E14C8300D9
S31560004020414C83000D08010065118300E144830063
S3156000403021288300BD2883007929830065288300B1
S31560004040652B830041458300D5298300491D830084
S31560004050A12A83005D30830051488300E5488300D0
S3156000406029488300F5238300114A8300793483004D
S3156000407091188300A5338300ED3483001D118300FE
S315600040809D4E8300954D8300B51A8300614783007A
S315600040901D4D8300ED1083000D458300C11E830016
S315600040A001208300E9218300F1258300F91D830047
S315600040B0150501001799000049108300C10F8300A0
S315600040C021248300A5248300B94A8300B52F830089
S315600040D0C1458300FD1C8300711D8300F5188300B4
S315600040E059198300F1198300F30A0100492A8300F4
S315600040F0A5118300B957830029578300654F830054
S3156000410001608300E559830039518300F54F8300D0
S31560004110555483001D5E83002152830065598300D8
S3156000412079508300714F8300095983003D63830092
S31560004130C5578300815C8300B15B8300DD538300D8
S31560004140115383009D4F830029508300254F8300C0
S31560004150D5588300CD62830039608300F95C8300A3
S315600041604D6183005D5F83002D548300DD508300C5
S3156000417039578300A555830091638300A16283004C
S31560004180C15D83002D5E8300455F8300A15183007E
S315600041901F0D0100195B83006D5A8300A9568300C9
S315600041A0A5508300095783000D748300DD63830087
S315600041B0297A830001668300B9B28300D5A783009C
S315600041C07D848300819383005DB38300A193830024
S315600041D0E99383004D0B0100719A000055A300001E
S315600041E0717A83005D67830051668300CD708300BA
S315600041F055718300DD7483008DAA830051A8830006
S31560004200A9B183009D918300D18483007B990000CE
S3156000421061848300AD77830081818300158283008A
S31560004220B1808300E5B583006D7E8300B579830038
S31560004230B19A0000916E8300758F83005587830065
S3156000424061060100459F000025678300C1888300E1
S31560004250D98F8300F5AC8300E97783009D6D830079
S31560004260A1A78300810D0100C9A483004DA20000AF
S315600042703F020100E58A8300CD6A8300F5868300EC
S31560004280596A8300B9AA83001566830051B2830018
S315600042909DB38300D9B6830059B1830091828300B0
S315600042A0D5B0830081868300C97A83000585830043
S315600042B0797C83008965830055A58300C9AF830037
S315600042C0DD0101007999830091898300C5B583007A
S315600042D00DB8830099D483002DC083009DC28300EE
S315600042E0ADC38300A1C68300B1C68300C5C2830087
S315600042F0A9D0830055BF8300F9CF830029BF83000F
S31560004300C5E18300C1C0830095C083004DD883009A
S315600043100DD7830015D88300F1D7830079BD83005C
S31560004320A1E1830035C28300C5E08300DDE0830040
S31560004330C5DC830099DA830001DA83004DB8830017
S3156000434075C0830019C28300F9C983003DD6830016
S3156000435015BE8300C9D683005DBA830029D6830063
S3156000436031B9830035BC83009DD883005DDC830052
S3156000437029C18300A9C28300E5C0830025DB8300D1
S3156000438075C283001DD083005DBC830061C6830057
S31560004390D5C2830005BC830001C98300B5C883000C
S315600043A0EDC8830055D6830015D98300A5D1830057
S315600043B0F1D5830001D9830081B8830089E0830049
S315600043C0E1BC8300A5DB8300EDE1830071C183005E
S315600043D0E9B783006DC783008DC183001DC8830064
S315600043E0B5D1830071DC8300E1C18300A9C183007C
S315600043F019DC830039D883004DCB8300A5B78300D1
S3156000440069CB83008DC98300C9D4830061AC000089
S3156000441099D68300E5DC83004DD483001DC38300F9
S3156000442021DD830045D983007DD383003DD283009F
S3156000443041DA8300CDD88300D9BF830095BD830060
S31560004440EDBD830051C083002DB8830049BB830056
S3156000445031BB8300CDDA8300D5D0830049CA83009F
S315600044609DD5830081BF8300D5CF83003DC983007E
S31560004470DDD18300B9D7830025C7830035A8000046
S315600044805DBE830021E18300F9E0830071B983009A
S315600044908DE1830025D9830049D78300DDDB830066
S315600044A0A9B98300A5A40000990C010059EB83000B
S315600044B0C5E7830041E2830025E283006DF5830052
S315600044C065EB830085F2830089F78300B1F2830090
S315600044D0A9F58300AD008400E100840019FD830026
S315600044E035EE8300FDF3830049B2000089FB83004B
S315600044F0B9FA830021F98300F1FA8300D9F88300C1
S31560004500D9F9830031008400C5FE830049E7830042
S31560004510050084004DFF83006DF3830059FE830020
S3156000452001FE830025EB83000DEB8300DFB1000005
S3156000453035FD830081EB830059FD830011F883000C
S31560004540FDF78300C5ED8300ADED8300A101840016
S31560004550E9E78300B1F38300DDF2830025F383008E
S31560004560F9E68300E5E2830059070100A5E98300C7
S315600045708DF5830051EE830079F8830071E2830044
S31560004580F1E8830045E6830099F783006DEE8300CA
S3156000459041F48300B9EB830075E78300B1E88300DB
S315600045A071B0000061F183004DFB000089EE83006D
S315600045B0A1B10000FDE58300A9FD83003D07010070
S315600045C0B5FB8300F1F183002D108400E1158400B2
S315600045D0B1198400C5158400D90F8400CD218400EB
S315600045E0491E84004D1F8400E1128400ED0884009A
S315600045F0F10184002D0F8400ED238400F51E8400F4
S31560004600E520840049208400AD128400F11A8400FC
S31560004610711F8400C9198400AD188400450B84009D
S31560004620910B84000D2484008D2384000D18840072
S31560004630210684008D168400310384006909840094
S31560004640FD158400E902840001028400A909840042
S315600046508D148400811E8400E10B8400751C840027
S31560004660AD0A840049108400712084000121840011
S31560004670850A8400291D840045078400390C84005E
S3156000468029198400551E840089038400E51D840071
S315600046902125840049138400291A84006D070100CE
S315600046A0ED12840045068400010D84008943840070
S315600046B06D2A8400014D84001528840069288400D1
S315600046C0F9F1000009408400112C8400F927840068
S315600046D0912D8400794C84008934840019338400D8
S315600046E06D2F8400C92D8400F12E84007D2E8400F8
S315600046F065258400DD348400FD2584001929840045
S31560004700B5408400D944840079298400B92B84009B
S315600047103D45840095328400B9288400D1388400F0
S3156000472031488400A93084006D2C8400994384004C
S31560004730D13284006D338400FD2F84005D45840092
S3156000474011348400B54A840075488400C5488400E5
S31560004750B1278400314A8400D949840059328400E3
S31560004760014C840039388400314D840055448400FE
S31560004770D93D840055438400513C840091398400BE
S315600047809536840091378400F5368400E1478400CD
S3156000479015478400CD4C8400F52B840025468400A3
S315600047A0E53A8400C937840049428400292A840096
S315600047B0A53F840059268400952A8400452B8400F1
S315600047C0C95D8400990F0100A15684009556840046
S315600047D019578400E956840005578400355F8400C4
S315600047E01D628400B557840065638400ED628400B1
S315600047F021638400BD628400194E8400B95384002D
S31560004800B15D8400B5518400D55F8400F95584009C
S315600048106560840059538400E5538400E94D840043
S31560004820C90F0100E15F84009D0F01006D0F01005B
S31560004830B55B840031568400A5638400CD60840036
S3156000484091638400ED5084002D5E840031518400B4
S31560004850155C840061548400F55E8400F15D84001B
S31560004860A51001007152840059588400815C84004F
S31560004870715784002557840071588400AD568400B2
S31560004880415984006D4F840029508400E1548400AE
S31560004890BD6184006D61840005598400A56684004D
S315600048A0D9678400456684000D658400916784003D
S315600048B0B96384005D67840079678400F966840063
S315600048C02165840021678400C56684008D66840046
S315600048D06566840011688400516C8400AD6E840046
S315600048E0016E8400F97084004D7F84007D6C8400C5
S315600048F02D748400456A84000D7B840011080100D4
S31560004900156E8400457A8400E56C8400456F8400EA
S31560004910D9C40000297E8400756D8400956B84007F
S31560004920B56D84007D7D84005D6B8400D56A8400EE
S31560004930816A8400B10D0100B1808400857E8400A7
S31560004940CD7F84004981840069818400ED8984007B
S315600049506D8A8400FD8984008D8984009D89840028
S31560004960E9858400F982840025858400518A840063
S3156000497075858400958484008181840071838400B8
S31560004980C18984005D898400D58984006D8984002D
S315600049907D8984000D8A840009868400798C840070
S315600049A07D8A84000D8B8400499484008D928400F6
S315600049B0E98D84009D8B8400FD8C84007990840051
S315600049C00D8C8400458C8400E9A68400A5AD840026
S315600049D029968400C598840015C1840009A98400BD
S315600049E099C2840045B7840031C18400D1B884007F
S315600049F08D998400B99A840025AC8400D9BF84005F
S31560004A00C9BE8400A196840025B18400519B8400B0
S31560004A10919884004D9784001D9784007DA684003C
S31560004A20D1B784002DAB84008595840019B08400CD
S31560004A30F5AD840029A98400C1A98400219F840062
S31560004A4025A28400B1AE8400C1AF8400D5A38400E2
S31560004A5075B7840041A28400E1BC84006DA884001F
S31560004A60BD9D840095B884005D95840075BE840004
S31560004A7051B98400A9958400C5C18400599A8400FF
S31560004A80419684003DB884009DA88400E5A8840012
S31560004A90A59B8400F5A684003DAF8400159A84002A
S31560004AA0F9988400EDA984006DB18400FDF084005E
S31560004AB025DF840025ED8400E5D08400CDF18400F7
S31560004AC009F2840035F2840055F28400CDF2840048
S31560004AD0B1D38400F5D384002DD48400C1D484007E
S31560004AE0A5048500F90585006D0585009904850096
S31560004AF08D04850079D4840045E88400B1C58400BE
S31560004B0095DF840031DF840075E484001DE0840055
S31560004B10BDC9840005ED8400A500850091FB840075
S31560004B20F9ED840091EF84009DFB840081EA8400A6
S31560004B3079E2840059C6840061EB8400A1EB8400AD
S31560004B40D1E484009D028500A1F3840015CC840025
S31560004B505DFB840081C5840015D5840099D68400E8
S31560004B6035E78400B9DF840045F48400B9C7840062
S31560004B7001DF84002D018500E1C7840025D1840012
S31560004B80CDF20000BDDD84004DF38400E1C98400F0
S31560004B9041E084002DCA84009DD4840005EB840026
S31560004BA0D900850079CB840021FC8400B9E88400B3
S31560004BB0B5D8840031FD8400BDFB84001D048500EA
S31560004BC05D04850031ED8400450685005DEC84005A
S31560004BD025C384001DF38400D9C684002DEC8400AF
S31560004BE06DF2000059E9840019C88400B1EF8400B1
S31560004BF0B100850049D3840001C98400E1D28400F4
S31560004C008DCB8400DDEB840011F4840009FC840004
S31560004C10D9F3840069C38400A1C884002DEE8400A2
S31560004C2071D6840079018500BDEE840025D88400A4
S31560004C30DDF9840009F0840035F78400C7F20000CE
S31560004C40D9FC840015D78400DDD584001DDE840080
S31560004C50D9F5840019F1840099F1840049F1840042
S31560004C60F1F48400A1F48400F1D084003DCC84008A
S31560004C7069D2840089E9840071CD8400C9D3840037
S31560004C808506850089078500E90685004D0785004C
S31560004C901107850025078500710685009506850044
S31560004CA0BD06850075078500B10785009D078500EF
S31560004CB0A9068500D1068500FD06850039078500B1
S31560004CC0610785005D0685001509850079098500FF
S31560004CD0350A8500BD0985000D0A85009DC5000061
S31560004CE0830701004D0A8500A9098500250985000D
S31560004CF0DD0A85006D0A850081088500C507850087
S31560004D000D0B8500590F8500ED118500C9128500D0
S31560004D1021108500F90D8500D5118500511085009B
S31560004D20AD118500011185006D10850075BB010010
S31560004D30850F850085108500990D85001112850007
S31560004D400D22850041178500D917850075208500DD
S31560004D507D2C8500352F8500B92285002D2585009F
S31560004D609D238500612F8500A5278500C92A8500BA
S31560004D706D2985009D22850031228500A524850048
S31560004D80E1238500B12F8500BD2C8500591485006F
S31560004D90C9138500A11C8500452C8500A9178500CF
S31560004DA0B1208500311A8500FD178500291D850013
S31560004DB021148500AD218500B5308500453185001B
S31560004DC035278500D1318500C5148500BD2D850048
S31560004DD02D23850059238500891485004D4685005D
S31560004DE06547850025368500514785003D46850027
S31560004DF08D3C8500514A8500994A85007547850036
S31560004E001D478500553685005D468500D53B850086
S31560004E1049498500D53A8500E139850041398500E3
S31560004E20E53885000937850045358500C93C85002C
S31560004E30754B8500B9458500ED488500214685009E
S31560004E40213A8500A940850001328500F53285004A
S31560004E50FD378500894E8500DD508500ED50850063
S31560004E605D57850009558500495085005D50850070
S31560004E70D1528500F5528500E54E8500C9558500FD
S31560004E8065568500C9508500094F85002BBC010019
S31560004E909D5585000D538500A94C8500B957850041
S31560004EA0A55785000D518500FD5A8500D5518500B1
S31560004EB0A9518500B15285009D53850039558500FD
S31560004EC09D4E8500C95785006D578500954C8500B8
S31560004ED0095785008D4F850063BC0100FD5985002B
S31560004EE0014D8500ED598500D9598500194C85001D
S31560004EF0756C8500816E8500516C8500295C850026
S31560004F00416E8500795E8500A30A0100AD6E85005D
S31560004F10B56C85006D6585001D5F8500196B850024
S31560004F208579850071738500B58E8500E19585006C
S31560004F3001828500519085002D828500D190850083
S31560004F40FD908500BD9285006D8F8500CD928500B0
S31560004F5055968500C58E8500857285005D8D8500B8
S31560004F6001838500C1918500257085000D918500BE
S31560004F70C17685006971850041718500F97F85007C
S31560004F8079708500F19385009D958500F57485009F
S31560004F90497485006D788500BD728500ED8A85004F
S31560004FA0C98C850099918500597D8500BD71850004
S31560004FB0758185000D818500A97985002177850039
S31560004FC02193850089928500D19485009596850008
S31560004FD065838500D973850065828500D5BC01002F
S31560004FE05975850021768500556F85006D9585001C
S31560004FF0E583850029848500AD8F8500F16E850087
S31560005000CF260100F91601005B230100672301002A
S315600050106D210100951B01005D1C0100051C01004E
S31560005020CD1B0100A11B01009B1B0100452901004E
S31560005030BD250100BD1A01001517010005290100F3
S315600050400D290100711A01004717010001240100B2
S31560005050451701008B2B0100FD2D0100F720010093
S31560005060851A010097250100932501007D25010021
S31560005070672101003F17010039170100ED28010083
S3156000508051310100B7250100E5280100FD1A010034
S315600050901D290100C1260100931D0100A91C010004
S315600050A07D220100951D01005D2201006322010041
S315600050B023290100052101008B1F0100351D010018
S315600050C0F1200100BF250100A9C60000E5C6000069
S315600050D021C700004DCA000065CF000035140200EC
S315600050E0CDCF0000D5CF0000D7D5000077D3000024
S315600050F073D40000EBD3000089320000D130000089
S31560005100A1300000C33000005D300000493000006F
S31560005110550C0100590C0100EB3200003B330000D6
S31560005120754C00006DF60000A13B00006BF60000B8
S3156000513065590000F9760000DD800000C56D00004D
S3156000514029EF000055EF000067EF000039F000001E
S31560005150470D01003DA500005DF6000059F6000010
S315600051604DF6000053F60000F7F1000065F600000A
S3156000517063F6000067F6000069F600004BF6000073
S3156000518051F6000057F600005FF60000C3B300005A
S31560005190AFB30000B5B30000B9B30000CDB30000F3
S315600051A0750C01007B0C01008D0C0100870C010061
S315600051B08B0C0100790C0100910C0100930C01002D
S315600051C08F0C0100810C01007F0C0100830C010033
S315600051D045F200005B0C01005F0C0100610C0100F0
S315600051E0650C0100670C0100690C01006B0C010085
S315600051F06D0C0100710C010087F6000083F600005B
S315600052007BF6000089F6000079F6000071F6000072
S315600052107FF600006FF6000073F6000085F600006A
S315600052204BF2000001000000200000001F0000009B
S3156000523050000000020000000100000001000000B4
S3156000524001000000000000005EBE01000A070800C1
S31560005250D11A020051FB8000C3300000C92F000044
S3156000526000000000D1F980000000000029FB8000EA
S3156000527000000000000000009C1800409600FFFF40
S31560005280FFFFFFFFFFFFFFFFFFFFFFFFFFFFFFFFC8
S31560005290FFFFAAAA0300409600000000000000007D
S315600052A00000000000000000000000000000000098
S315600052B00000000000000000000000000000000088
S315600052C00000000000000000000000000000000078
S315600052D00000000000000000000000000000000068
S315600052E00000000000000000000000000000000058
S315600052F00000000000000000000000000000000048
S315600053000000000000000000000000000000000037
S315600053100000000000000000000000000000000027
S315600053200000000000000000000000000000000017
S315600053300000000000000000000000000000000007
S3156000534000000000000000000000000000000000F7
S3156000535000000000000000000000000000000000E7
S3156000536000000000000000000000000000000000D7
S3156000537000000000000000000000000000000000C7
S3156000538000000000000000000000000000000000B7
S3156000539000000000000000000000000000000000A7
S315600053A00000000000000000000000000000000097
S315600053B00000000000000000000000000000000087
S315600053C00000000000000000000000000000000077
S315600053D00000000000000000000000000000000067
S315600053E00000000000000000000000000000000057
S315600053F00000000000000000000000000000000047
S315600054000000000000000000000000000000000036
S315600054100000000000000000000000000000000026
S31560005420000000002DE9F74FB1F1000B0446154668
S315600054309A464ADB438A818A5A444B439A4244DA03
S31560005440806808F04BDB00210190A06808F018DD49
S315600054504369064643F00043436100271DE01AF89E
S31560005460019B4FF0080801E0AF4218D019F0010F18
S315600054700DD02046314607EB0B02FEF305F730B13F
S3156000548073694FF0FF3023F0004373611FE001370B
S31560005490B8F101084FEA5909E6D1AF42DFDB73691B
S315600054A0A06823F000437361002108F059DCA0680E
S315600054B0012108F055DC20463146FEF3FFF2A06874
S315600054C0019908F0DDDC002001E06FF01C00BDE80A
S315600054D0FE8F2DE9F0411E460546884617461EF0AA
S315600054E0D9FD436841469C6928463A463346A047FB
S315600054F0BDE8F081407C704713B500F099D878B16B
S31560005500002409E0002201A9FFF352F7019803780D
S315600055102C2B08BF013001340378002BF2D100E058
S31560005520044620461CBD38B5B0F842300546B3B1D6
S3156000553040F2E93402E00A2003F03EDF2B6B1A6981
S3156000554002F07042B2F1005F05D0B2F1405F02D066
S315600055500AB1013CEFD11A6822F010021A6038BD18
S3156000556070B590F878310446FF2B1CD00E4D406A1A
S31560005570EB6E9847D5F89C50606AA84701280BD80F
S3156000558094F8141241B90B462046084A03F040DEEF
S31560005590012384F8143270BD606A94F80561A847E7
S315600055A0301884F8060170BDE0A685003D9880003D
S315600055B071B191F80832012B0AD091F875313BB17F
S315600055C04B691A6A034B134013B108460DF01CB9B8
S315600055D0704700BF00FC0101D0F8801110B5044689
S315600055E099B10223C068D4F8842108F027DB074B01
S315600055F01B6853B9D4F88011D4F88421E0684A4016
S315600056000223BDE8104008F0199B10BDBC0F0200D4
S31560005610F8B590F817320446012B74D0012380F850
S315600056201732002742E0A068314600F0A5DBD4F8C7
S31560005630F0301B68984205D928460021324600F0B2
S3156000564031DB41E02046FFF78BFF35690023AB7104
S3156000565094F8783131462B7294F8063184F8073124
S315600056606B72D4F8FC31606A0133C4F8FC316A7934
S31560005670254B82F08002D2095B6A9847B0B9D4F8AC
S31560005680F8206B797AB118070DD069782B78126992
S3156000569043EA01230F331B09190A18BF00239371CC
S315600056A094F878311372C4F8F8600127D4F8F030B2
S315600056B01B68012B08D904F128052846002100F053
S315600056C073DA06460028AED1002384F81732C4F890
S315600056D0F8302FB1636904225A64204607F060DF10
S315600056E0E38DD4F8C821934204D92069BDE8F84017
S315600056F001F0E69DD4F8CC21934204D22069BDE83E
S31560005700F84001F0CF9DF8BDE0A6850011F47C4F0E
S315600057102DE9F04104460D46564E66D011F4806878
S315600057200ED0F36D406A9847336B071C606A18BFEA
S315600057300127984710F1000818BF4FF0010800E0F4
S3156000574047462A050CD5F36D606A9847336B002887
S3156000575018BF0127606A9847002818BF4FF00108F4
S31560005760EB040CD5F36D606A9847336B002818BF5D
S315600057700127606A9847002818BF4FF00108A804FF
S3156000578004D5D4F838310133C4F83831690409D501
S31560005790D4F83C3101270133C4F83C31D4F83C31AC
S315600057A0D4F838312A0410D5D4F84031D4F8F4103E
S315600057B00133C4F8403131B1A068012204F0E0D869
S315600057C00023C4F8F4304FF001081FB9B8F1000F98
S315600057D003D10AE0B8F1000F04D02046002107F09B
S315600057E0BDDD17B1204607F007D9EB0102D520468B
S315600057F00DF00AF815F4903F12D1B36F606A9847BE
S3156000580070B905462DE0204607F008DAD4F8D8319D
S3156000581001359D4205D3236A43F48033236206E053
S315600058200025B36E606A984701460028EBD1D4F82C
S315600058300C0220B1037813B1002100F01FD8204676
S31560005840FFF78EFE94F8073194F806219A4208D045
S3156000585094F805219B1ADBB2022B02D8204607F08A
S3156000586007D9D4F8D801854234BF00200120BDE8AD
S31560005870F08100BFE0A685002DE9F04104460D46A3
S315600058801646984640F2E93702E00A2003F094DDB6
S3156000589063691A6D002A04DA013FF6D13846BDE81D
S315600058A0F081069A46443602B2F1807F46F00046A1
S315600058B003D12A7842F08072B6181E6540F2E93646
S315600058C002E00A2003F078DD63691B6D002B03DBC1
S315600058D02B700120BDE8F081013EF2D13046BDE873
S315600058E0F081D0F8943110B59942044603D80CF093
S315600058F08BFFE08D10BD002010BD0023C26B0AB186
S31560005900013AC2630133DBB21030102BF6D1704717
S3156000591003682DE9F74F012A14BF4FF02A084FF0AC
S31560005920320805460E4658684146914604F058D8F6
S31560005930074648B92B684FF0FF301B68D3F88C30A8
S315600059401A6D01321A6564E006F10E0B5946046958
S31560005950042201A8FFF340F1019A4AF6FE1312BA37
S31560005960B3EB124F0CBF2C4906F108012046062204
S3156000597005F1280AFFF330F1A01D51460622FFF318
S315600059802BF1B9F1000F0ED00023237384F80D803C
S3156000599004F10E0021490622FFF31EF10823237548
S315600059A00623637503E00823237306236373A8F154
S315600059B01C084444314606222046FFF30DF10023BD
S315600059C0A3710223E3715146062204F10800FFF336
S315600059D003F106F11801042204F10E00FFF3FCF056
S315600059E006F10801062204F11200FFF3F5F05946AC
S315600059F0042204F11800FFF3EFF0D5F85C31286853
S31560005A000133C5F85C313946D5F8682125F0FAD9F5
S31560005A100120BDE8FE8F00BF2C9E850014D2850054
S31560005A2010B50368D3F800481B6893F8AB306BB1C8
S31560005A30FFF763FF08E0A16829B1012000F080FA52
S31560005A4008B1FFF75AFF2468002CF4D1002010BD7E
S31560005A50F8B5066805460F4670684FF4BC7103F0EA
S31560005A6067DF044688B100214FF4BC72FFF318F17A
S31560005A70D5F860312660C4F8603195F86431C4F8B1
S31560005A80687184F864316B6863602046F8BD0146CE
S31560005A9028B103684FF4BC72586803F0599F704789
S31560005AA0F8B5C36805460E4658683821174603F0B0
S31560005AB03FDF044600282BD000213822FFF3F0F0A8
S31560005AC00123314623606360A360062204F10C0063
S31560005AD0FFF382F0738E06F10901A374337A04F141
S31560005AE01400E374327AFFF377F0768D2846A68643
S31560005AF0E7862146382221230BF082DD50B1EB6820
S31560005B0021465868382203F023DF4FF0FF30F8BD96
S31560005B106FF01A00F8BD000070B50D460380194697
S31560005B2090F8CF3090B01446174E4FF0FF32009584
S31560005B307BB902920392049205920C22019306931A
S31560005B400793089309930A960B900C920D930E9304
S31560005B5012E05BB2002502920392049205920793CB
S31560005B6000F1D0020C2301950692089509950A96D4
S31560005B700B900C930D950E95044A2346C06823F04E
S31560005B80EBDF10B070BD00BF75F500002C9E850080
S31560005B901FB5836D0446012B16D1B0F85831DB076B
S31560005BA012D4C36893F8703273B902AA03A901AB21
S31560005BB00CF0CBFA029A3AB120460399019BFFF7A3
S31560005BC0ABFF08B90223A3651FBD08B5B0F858211D
S31560005BD069B142F00102A0F85821826D022A12D101
S31560005BE0C3680C21D3F8680151F012DB0BE0D107D2
S31560005BF009D522F00102A0F85821826D1AB101225E
S31560005C008265FFF7C5FF002008BD704710B50C46DA
S31560005C1041B18B6823B9C06F0968FFF719FFA060AF
S31560005C20A06810BDC06F10BDF8B58C690B462169C0
S31560005C308B4203D0DD6A15B12F6801E000252F463F
S31560005C4063681146D86803F0B9DEA36806461B6828
S31560005C5093F895301BB1C38A43F08003C3826368AF
S31560005C6093F8AB308BB120462946FFF7CFFF60B182
S31560005C7031460AF0BDD8022807D163683146D86834
S31560005C80012203F07DDE0120F8BDA06831463A4668
S31560005C9025F0B8D8003018BF0120F8BD08B5806877
S31560005CA000F062FC002008BD10B50446FFF7F6FF61
S31560005CB0A068BDE8104003F053BD000038B5054646
S31560005CC06B6880681B7EB3B902F0FEFA044620B9A1
S31560005CD0D5F880000AF05CFC044609F0B9FE6B68F2
S31560005CE0D3F89C1041B10B7833B1044B002218688D
S31560005CF0FFF3CAF500E00024204638BD3C100200E0
S31560005D0010B5436804461B7E53B1D0F880000AF094
S31560005D1054FCA06805F0ABFC6368002283F8202081
S31560005D2010BD08B58069FFF7EBFF002008BD0000D5
S31560005D301FB5084A03460092074A08460192074A79
S31560005D400749D26902921A68064BFFF315F205B04D
S31560005D5000BD00BFEFC10100B4C101001810020010
S31560005D60C0C10100E3C101002DE9F84304460846BD
S31560005D7015460DF005FC014610B9D4F8109001E007
S31560005D80D0F80490A268D9F8247012682B6992F84A
S31560005D9095201AB1EE8AC6F3C02609E01E7B5B7BAE
S31560005DA043EA062648F66C03F31A5E4246EB0306A0
S31560005DB0D6B9636893F8AB30CBB12046FFF726FFC0
S31560005DC0A8B1294609F006DF042801D0012804D1CC
S31560005DD063682946D86800224CE0A0F1050CDCF126
S31560005DE0000848EB0C0803E04FF0000800E0B046FE
S31560005DF0636893F895301BB116B9AB8A2D33AB82C5
S31560005E00002F33D006BBFB69D8070BD5637D4BB13A
S31560005E10204629460CF0F2DB20B963682946D8682B
S31560005E20324627E0B8F1000F0ED1636893F89630DA
S31560005E3053B1D4F8840029460DF0D3FA20B96368CB
S31560005E402946D868424615E063682946D86803F053
S31560005E50F1DD3B690446DB68484639462246984789
S31560005E6060B12046BDE8F84303F0209D636829468B
S31560005E70D8683A46BDE8F84303F0829DBDE8F883EA
S31560005E804A6A08B542F4801291F843304A62D0F803
S31560005E90882003F00703D31893F88020013283F833
S31560005EA08020D0F88830012283F88620D0F88830A8
S31560005EB093F8811093F87B20914211D293F8801069
S31560005EC093F87A2091420BD293F8821093F87C2053
S31560005ED0914205D293F8832093F87D309A4201D39C
S31560005EE00DF034D8002008BD73B51446054611463A
S31560005EF0406FFFF78AFE6368112B08D0122B01D022
S31560005F00102B1CD1A37803F001032B7517E002AAAE
S31560005F10002342F8043DA86894F82F103BF0DEDFBA
S31560005F20064660B1837923B96188C1F3800126F0A2
S31560005F3097DFB3791BB1A86831460BF05CFF7CBD77
S31560005F4001280CBF886800207047642911DC63292A
S31560005F501EDA4A291CD006DC07291CDB082917DD56
S31560005F603C2918D114E0502912D014DB5C3903297E
S31560005F700DE0C32904DCC2290ADAA839022906E041
S31560005F80B1F5847F04D006DBA1F58971012902D8B9
S31560005F906FF01600704700207047C88810F0080040
S31560005FA018BF6FF0160070474FF0FF3310B5A0F8BA
S31560005FB03C32044600F50E70063000210C22FEF3DA
S31560005FC06FF623685B6B23B94FF0FF33A4F840325A
S31560005FD00BE00F23A4F83E32F023A4F840324FF4CE
S31560005FE07063A4F842324FF20003A4F8443210BD45
S31560005FF02DE9F04F87B017460393D2F81080694BAE
S315600060005268DDF840A0134083460D460E69002BAA
S3156000601014BF4FF00C094FF00A09BAF1000F04D013
S315600060209AF90E3099441FFA89F9AB8AC9EB0604CE
S315600060304B44AB824A462C6120460021FEF330F683
S31560006040129B09F10E09A3F8009098F80630FBB18F
S3156000605031460622201DFEF3BFF504F10A0008F161
S31560006060BC010622FEF3B8F5BAF1000F04D17A68D6
S315600060704C4B1340002B3FD0B11D062204A8FEF303
S31560006080ABF504F1100004A90622FEF3A5F533E092
S3156000609098F81230201DE3B1D8F8CC301B0618D41E
S315600060A008F1BC010622FEF397F53146062204A8E4
S315600060B0FEF392F5B11D062204F10A00FEF38CF59B
S315600060C004F1100004A90622FEF386F54FF48076EB
S315600060D014E031460622FEF37FF5B11D062204F177
S315600060E00A00FEF379F504F1100008F1BC010622FE
S315600060F0FEF372F5002601E04FF400767A68294BCC
S31560006100134053B39DF84430696A03F007034805AA
S31560006110ADF816300FD49BF8F821012A05D141F469
S315600061208021696243F0200303E0520102F06002BD
S315600061301343ADF816306B6A590605D5BDF81630AF
S3156000614043F08003ADF8163004F118000DF1160126
S315600061500222FEF341F546F08006BAF1000F0FD039
S315600061607A68104B134013B904F1180301E004F187
S315600061701A030122009258464146524644F0F2DA2A
S31560006180039B46F0080613B146F48066B6B2BAF1D0
S31560006190000F01D046F480462680204607B0BDE851
S315600061A0F08F00BF4000018038B50446D4F87415FE
S315600061B080680CF083D8D4F8F816D0F10105A06891
S315600061C038BF00250CF07AD800B90135A068D4F83C
S315600061D0FC160CF073D800B90135D4F8E036A06827
S315600061E0196A0CF06BD800B90135D4F8E036002294
S315600061F0DA60A068D4F83C150CF060D800B90135B7
S31560006200A068D4F894170CF059D800B9013528461F
S3156000621038BDD0F8403570B55C8E054604F44063F1
S31560006220B3F5406F21D1036893F846309A070BD0D7
S3156000623004F47041A1F58053594241EB0301D0F853
S315600062405C0142F067DE80B92046FFF31BF640F43E
S31560006250306086B22046FFF315F60E288CBF4FF4E9
S3156000626080504FF4005046EA000404F470422B6BF1
S31560006270A2F5805CDCF100025B6842EB0C029A429C
S3156000628005D0D5F85C01012142F068D90446D5F8FD
S315600062905C01214642F0B2DE98B904F47044A4F57C
S315600062A0805EDEF1000444EB0E040E3455F82430B3
S315600062B02E6BD5F85C012B63012142F04FD92E631A
S315600062C00446204670BD072A01DD4A680AB9026B9A
S315600062D01268032A06D0511E01290DD8016B096880
S315600062E08A4209D19DF8001011B190F8291031B198
S315600062F043B11A60002070476FF00C0070476FF072
S315600063000A007047184670472DE9F04F89B00023A0
S315600063100F46179905460592149C159E069307939A
S31560006320DDF848B0DDF84CA03BF094DE05990490AA
S3156000633001F001082868394622463346CDF80080C8
S315600063401FF0F2DD8146002840F0DC80B7F90630A8
S31560006350002B1BDAB9883A89B8F1000F09D0169B71
S3156000636049000393009601940296286901312346F9
S3156000637008E0169B28690393CDF800A00194029665
S3156000638049005B4639F01CDA8146BBE0BAF1030F7F
S315600063900DD9042206A85946FEF31EF4BAF1070F7A
S315600063A005D907A80BF104010422FEF315F405993B
S315600063B0069B8A1E1F2A00F29D80DFE812F02000ED
S315600063C02200240028002C002E00360038004A00E7
S315600063D04C00510053005500570059005B005D00AA
S315600063E09B009B009B0063006500760078007C0044
S315600063F07E00830085008A009B0095008C00434BDD
S3156000640002E0424A63E0424B1B6823607AE0002B5D
S3156000641073DC3F4A04E03F4BF6E7002B6DDB3D4AF9
S3156000642013603D4B00221A606CE03C4BECE71BB1FD
S315600064303B4A1268002A60D0384A1360394A002302
S315600064401360394A1360394A13604FF0FF32384B94
S31560006450E9E7334BD8E7324A1168002937DC4CE06C
S31560006460344BD1E7334A32E0334BCDE7324A2EE044
S315600064702C4BC9E72B4A2AE0D5F86C32D3F8D832D0
S315600064809B68C2E72D4BBFE72C4A1360002B39D0BF
S315600064902B4A00232B4913604FF0FF320A602A49CA
S315600064A00A602A4A13602A4A11E02A4BACE7002B9D
S315600064B023DD284A0BE0284BA6E75A1E092A1CD87A
S315600064C0254A04E0254B9FE7002B16DD234A13601F
S315600064D018E0234B98E704998A798AB90033214AF0
S315600064E018BF012313700DE0049A937943B91D4BCD
S315600064F01B788AE76FF0160904E06FF01C0901E06B
S315600065006FF00609484609B0BDE8F08FFC0F02003F
S31560006510EC0F0200F00F0200C80F0200D40F020059
S3156000652010060200E80F0200E40F0200E00F02000E
S31560006530C40F0200FC05020014060200CC0F020024
S31560006540F40F0200F805020004060200DC0F0200E8
S31560006550D80F0200000602000C060200F4050200D5
S31560006560D00F0200C00F020038B50025044680F83F
S31560006570E85126F013D8E36A2946986A8022FEF32A
S315600065808FF3206906F070FED4F840012BF0FADE36
S31560006590C4F8885638BD00002DE9F8439846536A1A
S315600065A00E469905044615469DF92090176909D54A
S315600065B0136BA7F842301B0CA7F844303B8843F4B2
S315600065C000533B8022686B6B92F844209AB1E26A72
S315600065D002EB4602B2F91C206AB963B11A69D2F8B5
S315600065E0D42292F89D20032A05D9D4F86401314655
S315600065F02A463EF0F7DC042E1DD12368B7F84C70AE
S3156000660093F838303A46C3B1284613F07BD804EB8A
S315600066108000D0F84C32D3F85825A3F8C870013200
S31560006620C3F85825D3F86035D9698A4288BFDA61DC
S315600066301A6A01321A624FF6FF72B8F1000F07D07C
S31560006640E36A06F10C0103EB41039988494499809A
S315600066504FF6FF739A4203D02069A8213AF02AD9EF
S315600066602369294603EB8603D8680D4B42465B6A6D
S315600066709847002812DA0B480CF0FCF80A4B1A68A7
S3156000668001321A60B8F1000F08D0E36A0C3603EBEA
S315600066904606B388C9EB0309A6F80490BDE8F883FB
S315600066A0E0A68500BC568600F80F020019B1406866
S315600066B0302203F04D9970472DE9F04F8BB00027DB
S315600066C0DDF854A0DDF85CB00446884615461E46E3
S315600066D00897D4F8B434DB19186A18B1414611F03A
S315600066E0B3DE28B9343740F2AC439F42F1D181E042
S315600066F006900DB9149D5646069A13891BB1082B50
S315600067000CBF534604230793069BB3F804909DF889
S3156000671058304FEA49090BB109F10109374841463A
S315600067200722FEF355F3002841D1032E02DC6FF0F9
S315600067300D0361E02946042209A8FEF34DF22046C6
S31560006740099908AA3BF0CADB8346E8B9089B1E3361
S315600067501AD119F0010F17D0012300935A465B46F0
S31560006760204609993BF054D8834618B96FF01A034E
S31560006770089309E0204659463BF034DD089018B18D
S31560006780204659463BF088DC089B002B2ED11B48DF
S31560006790FEF316F30435043E19F0010F804404D06D
S315600067A0149AAAF1040A04321492DBF808B0D4F8F9
S315600067B0B4348DE86000DF19079A149B0492029343
S315600067C0CDF80CA0CDF814B0FD6A786A06994A46F1
S315600067D04346A84719F0010F089007D0204626F0D7
S315600067E085DED4F8E4310133C4F8E43108980BB09F
S315600067F0BDE8F08F6FF016030893F7E76F598600D0
S315600068002DE9F04F0E4604461169D2F87C019FB01F
S31560006810D6F810B0139307900C919146BBF8002000
S31560006820606802F00C039B08022B0F930CBFC2F347
S31560006830C0130023DBB231462C9FDDF8B4800E9284
S315600068401493FFF317F304300A9087B13B7A0B2B4E
S3156000685008D194F8F03753B194F8F1373BB1BB796E
S31560006860072B04D80A9897F90F30C0180A90D4F805
S315600068708831002B19DADFB13B7A022B1AD194F8F2
S31560006880A024D2B90C998B6D13F0080316D1BA798E
S31560006890292A15D8032A13D90B2A11D8299A012A2D
S315600068A00ED10A9B08330A9308E00020089008E09E
S315600068B0089706E00021089103E00022089200E0B4
S315600068C0089335690021AB1F1593B38AA5F176004D
S315600068D07633B382702230611290FEF3E1F1736A0F
S315600068E05B0501D5338D22E0D9F80420944B134023
S315600068F0BBB10E9901F0FC03882B12D19BF80430D2
S31560006900D8070ED42998F28A411E02F00702289809
S315600069105C3209EB42028842D38808D1591CD18087
S3156000692005E00F99012908D14FF0000A10E00F9A8F
S315600069304FF0000A012A03D10AE04FF0100A002343
S3156000694028981B019BB200F00F021343ABF8163078
S315600069502A99042907D120460C99129A0EF080DDF7
S31560006960ADF8720019E02898B4F8463500F00F02C9
S31560006970299842EA0312411E289892B2884202D1AF
S315600069800133A4F846352A99520147F6E07313405D
S3156000699001F007021343ADF8723099F8DF3023B97E
S315600069A00E9A02F0FC03802B01D14AF0200A654B57
S315600069B008EA030323B1CDF86C80CDF868800EE059
S315600069C00F9B012B05D9736A002B02DB13F01003B2
S315600069D007D099F8483003F07F031B931A9300237E
S315600069E038E0206B5749826C114019B19BF804104E
S315600069F0C90708D49BF8043013F00103E9D1426C4F
S31560006A005049114011B11B921A9223E01BAB0093BF
S31560006A100DF1760301930DF1770302931DAB03939A
S31560006A2049460DF172021AABD4F860014EF072DF7E
S31560006A30736A43F000627262BDF87420D10704D5B0
S31560006A4043F0006343F4005373622898D0F1010366
S31560006A5038BF00232268D4F8600692F8462090F882
S31560006A600AC012F003021A9900F0328111F0006F29
S31560006A7001F07F0204D0072A08D9202A2BD105E02D
S31560006A80DFF8C4E01EF90220002A24DA4A0001D4A5
S31560006A90002920DB21F4401222F4605209011A9287
S31560006AA016D58178012913D9216B91F94D100129E9
S31560006AB009D0D9F804E01EF0804F09D0013107D122
S31560006AC0017B490704D542F4801242F4805201E00A
S31560006AD042EACC221A921B9911F0006F01F07F02F4
S31560006AE004D0072A06D9202A33D103E016488256F5
S31560006AF0002A2EDA1A9A500001D4002A29DB21F4E2
S31560006B00401222F4605209011B921FD5D4F8601618
S31560006B10887801281AD9206B90F94D00012809D090
S31560006B20D9F804E01EF0804F10D001300ED1097BF9
S31560006B3048070BD542F4801242F4805208E000BF49
S31560006B40400001807F000008401B860042EACC229C
S31560006B501B92B4F8282602F44062B2F5406F2DD13C
S31560006B60226B106905930DF04BFE1A9A00F4407083
S31560006B70B0F5007F14BF0220032012F0006F059B62
S31560006B8002F07F020DD0202A29D094F9CA24511C24
S31560006B9001D0069010E0D9F804200690120321D4A3
S31560006BA024E09E4906908A56002AB4BF94F9C92407
S31560006BB094F9C824511C19D090B217E01A9A02F0C1
S31560006BC07F02202A04BF4FF000621A921B9A02F0DD
S31560006BD07F02202A08D14FF000621B9204E00690E3
S31560006BE0052003E0042001E002200690DDF86CE059
S31560006BF01A9A000222F4E0621EF0006F40EA020276
S31560006C0008BF06982EF4E06114BF014341EA0021F3
S31560006C1012F0006F1B911A9294F8DC1104D00129CE
S31560006C2002D142F4000202E011B922F400021A9283
S31560006C301B9A94F8DC1112F0006F04D0012902D17E
S31560006C4042F4000202E011B922F400021B924946A6
S31560006C502046059311F094DE1A9A059B12F00061A6
S31560006C6021D0D4F8581691F9051002290DD102F4F5
S31560006C70E0684FEA1828A8F10408B8F1010F8CBF44
S31560006C804FF000084FF0010801E04FF000081102D4
S31560006C900CD502F07F02072A0AD9202A14BF0246C1
S31560006CA00422099206E00991884603E0099001E012
S31560006CB0042109911B9A12F000611DD0110218D5AA
S31560006CC002F07F02072A16D9202A08BF042010E0A6
S31560006CD01B9821F4E06120F4E06040F4007041F418
S31560006CE000711B9002201A9106900D9209929046AF
S31560006CF003E00D9001E004210D918BB10C9A1A9975
S31560006D00D2F81033299802EBC302C2F81413C1B249
S31560006D10C2F8181301330C9903F03F03C1F810331E
S31560006D20079A002A3FD0D4F80CE0D2F804340799C9
S31560006D30DEF8802103F1400001EBC000DEF884C17B
S31560006D40426001EBC302C2F808C2F28A344902F01B
S31560006D5007028A5C022A14D1079A4168D2F800E0D9
S31560006D60299802EBCE02C2F804111A990EF1010EAF
S31560006D705160C1B291600799C2F808C10EF01F0256
S31560006D800A601A99079803F1810240F8321000EB05
S31560006D90C30229980133C1B2C2F80C14079903F0F3
S31560006DA03F03C1F804341A9B13F0006E1FD003F43E
S31560006DB0E0604FEA102013F4000F1A4A03F07F01D7
S31560006DC0A0F1040008D001284FF0140000FB012256
S31560006DD094BFD26892680CE001284FF0140003D883
S31560006DE000FB0122526804E04143525801E003F07F
S31560006DF07F020F981192022800D0A8B9B4F83826FD
S31560006E000A99914203DC726A12F080620DD09BF897
S31560006E10042002F0010282F0010206E0401B8600B7
S31560006E20C4D285008418860000221092226B527D9F
S31560006E3062B1D4F85816097841B1BEF1000F05D198
S31560006E40944803F07F01415600290CDB216891F8D4
S31560006E50461089072ED0BEF1000F2BD0D4F85816F5
S31560006E6091F9051031B32998012812D9D4F858360A
S31560006E701B780BB1162300E030231B93736A0699C7
S31560006E8023F0006373621B9B43EA01231B931A93EF
S31560006E9010E07AB1D4F8582612785AB1BEF1000FD4
S31560006EA008D17C4A03F07F03D35638EA230828BF0B
S31560006EB04FF001081A9911F0006315D101F07F02B5
S31560006EC0162A11D8744890400ED5139840B1022AFC
S31560006ED009D094F95C2612F1FF3218BF012200E056
S31560006EE0139A099200E009931B9A12F0006E16D16C
S31560006EF002F07F02162A12D8674890400FD5139881
S31560006F0040B1022A09D094F95C2612F1FF3218BF0B
S31560006F10012200E0139A0D9201E0CDF834E00F985B
S31560006F20D9F80420022808BFC9F8601112F480322B
S31560006F3031D094F8CE2172B394F8D1215AB3D4F8F3
S31560006F40582692F90520032A27D04BB901F07F0213
S31560006F50022A27D0042A25D00B2A23D0162A21D02C
S31560006F609BF8043013F0010319D10E9800F0FC026F
S31560006F70882A17D1736A4AF4A04A43F4805373622D
S31560006F80BBF81830012223F060031B041B0C43F08E
S31560006F902003ABF81830079205E0002302E00020DA
S31560006FA0079000E0079320460A9A159B19F084D94A
S31560006FB016AB20461B990A9A19F07ED90622A5F1CE
S31560006FC0400016A9FDF308F61B9B18010CD403F0CC
S31560006FD07F03162B08D8304A9A4005D50A990B0AC2
S31560006FE005F83C1C05F83B3C736A590510D51A9A9E
S31560006FF012010DD517B13A7A042A09D143F4006318
S315600070007362109A94F8C334002B18BF0122109251
S315600070101A990B010AD41F4A01F07F03D356002B3D
S3156000702004DA15F8063C03F00F0301E015F8063C98
S315600070300E980B93A4280DD09BF80430D80709D47A
S31560007040079A4AB9099A2B9B20460FF0D7DBABF813
S31560007050020013E0079B4BB1099A204640F62A13BB
S3156000706018F0C0DE80B20230ABF802000E98A42899
S3156000707004D1BBF8023025F83A3C17E09BF804309F
S31560007080D90701D4079949B1002305F83A3C05F8B8
S31560007090393C0BE0401B8600000210281B990D9AB4
S315600070A02B9B20460FF0AADB25F83A0C736A9A05EB
S315600070B007D5326B4AF4005A25F8342C120C25F8A1
S315600070C0322C289A0AB94AF0080A9BF80420D0079D
S315600070D00FD4D9040DD494F8D0210AB15A0608D435
S315600070E0580504D4149810B194F8F8210AB94AF0F6
S315600070F0010A0F99022911D194F8CE2172B1119A21
S31560007100042A0BD9A44A2A98125C04EB4202B2F80C
S31560007110FE210AB1590501D54AF4805A236B1869D4
S315600071200DF06EFB089900F44060B0F5406F08BF43
S315600071304AF4807A09B14AF4004A25F876ACEFB190
S3156000714094F8A03403BB0C98826D12F0080217D134
S315600071503B7A0B2B08D194F8F0378BB194F8F13762
S3156000716073B1BB79072B0DD8BB79292B0CD897F84F
S315600071700CA00AF0070A4AEA031A07E0BA4605E0D5
S315600071809A4603E0924601E04FF0000A736A0D9951
S315600071909A0044BF4AF0080A1FFA8AFA4B1EDBB20D
S315600071A0012B9CBF4AF4005A1FFA8AFAA5F17200B5
S315600071B059460222FDF310F5002305F8703C05F8E8
S315600071C06F3C05F84A3C05F8493C002F43D094F8DB
S315600071D0A034002B3FD10C9A936D1B073BD43B7AAE
S315600071E00B2B0AD194F8F027002A34D094F8F127B3
S315600071F0002A30D0BA79072A2DD8BA79292A2AD80E
S315600072000E9800F44072B2F5407F149A14BF0BF1E9
S3156000721018010BF11E0102B10231022B10D1129B33
S3156000722000203A18B2F8BC2002309A75C2F30722E1
S31560007230DA7502330A28F4D1A5F15600032208E074
S315600072400B2BA5F1600002D10231102201E097F903
S315600072500E20FDF3C1F40BF104031946A5F15000AD
S3156000726006220F93FDF3B8F4BDF8723025F82A3C78
S31560007270002305F8283C05F8273C05F8263C05F868
S31560007280253C05F8243C05F8233C05F8223C05F826
S31560007290213C05F8203C05F81F3C109818B9B8F158
S315600072A0000F01D10BE198460022069B1A992046F1
S315600072B022F0F2DB1B9908900022069B204622F002
S315600072C0EBDB0899069011F00061119107D1089ADD
S315600072D002F07F03314AD256002A21DA2DE008985F
S315600072E0089B00F4E06113F4000F4FEA11212C4B68
S315600072F000F07F02A1F1040108D001294FF01401CA
S3156000730001FB023394BFDB689B6809E001294FF0FB
S31560007310140103D801FB02335B6801E04A439B58C2
S31560007320023B18BF012353B194F95C36012B08D098
S315600073304AF4804A1FFA8AFA01210C9103E00C9301
S3156000734001E000220C92069B13F0006206D11349FD
S3156000735003F07F03C956002926DA39E00698104BF8
S3156000736000F4E0614FEA112110F4000F00F07F0293
S31560007370A1F1040108D001294FF0140101FB023389
S3156000738094BFDB689B680FE001294FF0140109D8B0
S3156000739001FB02335B6807E098E08500401B8600CE
S315600073A0841886004A439B58023B18BF012363B189
S315600073B094F95C36012B0AD06FEA4A4A6FEA5A4A58
S315600073C001211FFA8AFA0E9103E00E9301E0002272
S315600073D00E9235F8763CB8F1000F02D043F40063A4
S315600073E001E043F0060325F8763CB8F1000F0CBFC8
S315600073F014270E273A4620460899A5F11E0318F071
S315600074005BDF3A4618AB2046069918F055DF18A997
S315600074100622A5F14800FDF3DFF30C9B09980A9953
S315600074200022009301901A9B029103924146089AAA
S31560007430204618F061DF25F8160C0E9B0D980A9908
S31560007440002200930190029103921B9B069A2046AC
S31560007450414618F051DFA5F1180725F8420CA5F151
S315600074601400B8F1000F0AD06FF03B0305F8183C22
S31560007470002305F8173C0BF10A01062207E06FF0BE
S315600074804B0305F8183C05F8178C0F990C22FDF391
S31560007490A3F30B98119A81B25AB90898A04A00F0E2
S315600074A07F03D356002B04DA15F81E3C03F00F0356
S315600074B001E015F81E3C1B0219430B911EE0414684
S315600074C00622A5F11E00FDF3EBF341461022A5F15D
S315600074D01800FDF3E5F3A5F1480041460622FDF3E9
S315600074E0DFF3474605F8428C05F8418CCDF81880E5
S315600074F0CDF82080CDF83880CDF83080736A580595
