S0130000666C6173686C6F616465722E737265638C
S31520002000406021207D2400207B240020E12901201E
S315200020107B2400207B2400207B240020000000005D
S315200020200000000000000000000000007B240020CB
S315200020307B240020000000007B2400207B2400203D
S315200020403F5F01203F5F01203F5F01203F5F01206E
S315200020503F5F01203F5F01203F5F01203F5F01205E
S315200020603F5F01203F5F01203F5F01203F5F01204E
S315200020703F5F01203F5F01203F5F01203F5F01203E
S315200020803F5F01203F5F01203F5F01203F5F01202E
S31520002090094B012011510120195101202151012004
S315200020A0295101203151012039510120415101206E
S315200020B049510120515101205951012061510120DE
S315200020C0695101207151012079510120815101204E
S315200020D089510120915101203F5F01203F5F01205E
S315200020E03F5F01203F5F01203F5F01203F5F0120CE
S315200020F03F5F01203F5F01203F5F01203F5F0120BE
S315200021003F5F01203F5F01203F5F01203F5F0120AD
S315200021103F5F01203F5F01203F5F01203F5F01209D
S315200021203F5F01203F5F01203F5F01203F5F01208D
S31520002130995101203F5F01203F5F01203F5F012031
S315200021403F5F01203F5F01203F5F01203F5F01206D
S315200021503F5F01203F5F01203F5F01203F5F01205D
S315200021603F5F01203F5F01203F5F01203F5F01204D
S315200021703F5F01203F5F01203F5F01203F5F01203D
S31520002180232A00203F5F01203F5F01203F5F01207F
S315200021903F5F01203F5F01203F5F01203F5F01201D
S315200021A03F5F01203F5F0120A1510120A95101205D
S315200021B03F5F01203F5F01203F5F01203F5F0120FD
S315200021C03F5F01203F5F01203F5F01203F5F0120ED
S315200021D03F5F01203F5F01203F5F01203F5F0120DD
S315200021E03F5F01203F5F01203F5F01203F5F0120CD
S315200021F0B15101203F5F0120B9510120C151012079
S315200022003F5F012075560120C9510120D15101207F
S315200022103F5F01203F5F01203F5F01203F5F01209C
S315200022203F5F01203F5F01203F5F01203F5F01208C
S315200022303F5F01203F5F01203F5F01203F5F01207C
S315200022403F5F01203F5F01203F5F01203F5F01206C
S315200022503F5F01203F5F01203F5F01203F5F01205C
S315200022603F5F01203F5F01203F5F01203F5F01204C
S315200022703F5F01203F5F01203F5F01203F5F01203C
S315200022803F5F01203F5F01203F5F01203F5F01202C
S315200022903F5F01203F5F01203F5F01203F5F01201C
S315200022A03F5F01203F5F01203F5F01203F5F01200C
S315200022B03F5F01203F5F01203F5F01203F5F0120FC
S315200022C03F5F01203F5F01203F5F01203F5F0120EC
S315200022D03F5F01203F5F01203F5F01203F5F0120DC
S315200022E03F5F01203F5F01203F5F01203F5F0120CC
S315200022F03F5F01203F5F01203F5F01203F5F0120BC
S315200023003F5F01203F5F01203F5F01203F5F0120AB
S315200023103F5F01203F5F01203F5F01203F5F01209B
S315200023203F5F01203F5F01203F5F01203F5F01208B
S315200023303F5F01203F5F01203F5F01203F5F01207B
S315200023403F5F01203F5F01203F5F01203F5F01206B
S315200023503F5F01203F5F01203F5F01203F5F01205B
S315200023603F5F01203F5F01203F5F01203F5F01204B
S315200023703F5F01203F5F01203F5F01203F5F01203B
S315200023803F5F01203F5F01203F5F01203F5F01202B
S315200023903F5F01203F5F01203F5F01203F5F01201B
S315200023A03F5F01203F5F01203F5F01203F5F01200B
S315200023B03F5F01203F5F01203F5F01203F5F0120FB
S315200023C03F5F01203F5F01203F5F01203F5F0120EB
S315200023D03F5F01203F5F01203F5F01203F5F0120DB
S315200023E03F5F01203F5F01203F5F01203F5F0120CB
S315200023F03F5F01203F5F01203F5F0120FFFFFFFF7E
S31520002400002A01D101207047F0B41F460346032459
S315200024102340002B09D00424E31A0170013008243C
S31520002420E141521E26D05B1EF7D1042A1ADB13D0B7
S31520002430002F11D00C460D460E46102A02DB72C024
S31520002440103AFAE70C2A02DB32C00C3AFAE7082ADD
S3152000245002DB12C0083AFAE7042A03DB01600430E3
S31520002460121FF9E7002A05D0017001300824E14146
S31520002470521EF7D1F0BC00207047FEE772B60E4818
S315200024800E4988600022002300240025002600270C
S31520002490B846B946BA46BB46BC46094885460948A9
S315200024A08047094880470948804762B600200021B6
S315200024B0074A9047FEE700000020002000ED00E0DC
S315200024C040602120FB51012081760020C776002024
S315200024D0B17300207931002000000000CB310020AC
S315200024E00000000019330020A3340020A33200206E
S315200024F0B9330020793500200000000000000000DC
S31520002500000000000932002000000000E131002018
S31520002510B93300209335002000000000F13500205B
S31520002520000000002F310020000000003B32002078
S31520002530000000000000000000000000113600200E
S31520002540000000003736002000000000653600201D
S31520002550A3340020513200200000000000000000BB
S3152000256000000000B9320020A33300200000000044
S31520002570195F0120235F01202D5F0120000000004C
S3152000258000000000090000003F3D0020010100007E
S3152000259017450020080000005B4D002000010000C8
S315200025A0B1530020100100007D5B002020010000B7
S315200025B09F680020210100000B630020000000001E
S315200025C000000000D7380020393A00204D3A00207C
S315200025D0CF3A00207F3B0020853C0020294A01205D
S315200025E0A74A0120C14A0120000000000000000087
S315200025F0F54A0120037100205D6E0020B96E00208F
S31520002600A16F0020DD6F0020F36F0020376F0020C0
S31520002610355F002019610020B3610020836200200D
S31520002620AD5F0020656200207762002065A900204A
S3152000263069A9002075A9002085A9002000000000B6
S31520002640000000000100000001000000BB2900205E
S31520002650DC250020EC250020F026002010000000BC
S3152000266001000000000000004427002000000000B8
S315200026705427002000000000000000000000000099
S31520002680000000000000000000000000554B012063
S315200026906F4B0120234C0120E34C012054B4202011
S315200026A091650020CD660020536700202968002010
S315200026B0D96500200B6800201D680020E94D002008
S315200026C08D500020875100208F5200206F4E002011
S315200026D07B5300208D530020A94A0020234C002044
S315200026E0354C0020694C002000000000D54C00200D
S315200026F0CD4D0120D34D0120414E0120D94E012040
S31520002700D14D0120E54E0120AD4D01200359002079
S315200027100D59002025590020F55900209B5A0020EC
S31520002720A159002000000000F93D00203941002079
S31520002730634200202D44002031400020F343002036
S3152000274005440020F5520120F9530120A754012009
S31520002750075501201555012039550120C355012063
S315200027605B5601206B5601206F56012000000000A9
S3152000277038B504463D4D00202862C5E90000C5E96C
S315200027800200C5E904006862394800F0ABF8C5E9E3
S31520002790060120460FF25901BDE8344000F050B939
S315200027A000F064B970B50C46304D296A072904BF7C
S315200027B0696A88421AD100F01CFBC0EB0016D5E9E5
S315200027C00001D5E9022310180A21B6FBF0F0484390
S315200027D04FF49661B0FBF1F0401D0A21B0FBF1F0F9
S315200027E04FF4966148432060002070BD012070BDE3
S315200027F02DE9F84306461D4F00F06AF80446386A6C
S31520002800D7E904598846421C651BD7E9060168EBBF
S315200028100909494502D82CBFA8420122012A3A6259
S3152000282006D0042A08D0052A0ED0072A0FD018E091
S31520002830C7E900487E6214E0D7E90001201A68EB58
S315200028400101C7E900010CE0C7E9024809E0D7E920
S315200028500201201A68EB0101C7E90201304600F0A7
S3152000286005F9C7E90448BDE8F18300000098202057
S315200028708038010080B52B480022016841F4405180
S31520002880016000202849086028484FF0FF31016187
S3152000289082610122C261826942F0040282618269F8
S315200028A042F00102826101600121C160816000F075
S315200028B0A0FAC0001E49B0FBF1F000B901201D4965
S315200028C0086001BD1848016841F0020101607047A7
S315200028D081B01948016840680090009801B0C9434A
S315200028E0C043704713490968A1FB0001C00840EAAC
S315200028F04170C908704738B50446FFF7E9FF0D4A0D
S315200029001268A2FB0423D20842EA4372141841EB50
S31520002910D305FFF7DDFFA942FBD301D8A042F8D3A8
S3152000292031BD00006CC00F40004008400041084007
S3152000293040420F0098AC2020E040084009010028C2
S3152000294002D4554A11547047544A00F00F001044DF
S3152000295000F8041C704710B5039C01F00701240100
S3152000296004F010042143016002B1136010BD002160
S31520002970016002B11160009808B1019901607047A9
S3152000298030B583B000F014F82068012220F480507E
S31520002990206007984168089B9A409143416037BD63
S315200029A030B583B000F004F841F2B000206037BDA6
S315200029B00025069C01950094CDE770B584B0384C6F
S315200029C0384D3948394A19B1022919D00DD37FBD5E
S315200029D041F2B00600950196002300F01EF80196FC
S315200029E00023009500F019F87FBD0D210092029179
S315200029F02F490191002300220521FFF7C1FF7FBD4A
S31520002A00009200230022FFF7CBFF0095002300222F
S31520002A1002212046FFF7C4FF7FBD00220221204667
S31520002A20A5E710B5234C2068800408D522484168C4
S31520002A30080004D0012088474FF40050206010BDC4
S31520002A4010B51D481A4C416004220D21204600F085
S31520002A5097FA6069012140F4005060615020FFF729
S31520002A606DFF4FF480301549086010BD80B54FF4D6
S31520002A70803013490860BFF34F8FBFF36F8F00215B
S31520002A805020FFF75BFF00220D21094800F078FA5D
S31520002A9000200949486001BD00E400E018ED00E08F
S31520002AA0EC801F40DC821F40F0801F40E0821F40E8
S31520002AB000801B4018801B404CB4202008E100E019
S31520002AC088E100E0002808BF00F023B87047DFF84F
S31520002AD04003016841F0030101604020DFF8341310
S31520002AE00860DFF834034FF0004181634FF08041E6
S31520002AF0816300210160DFF82403016841F4C011DD
S31520002B000160DFF81C0301684908490001600120C3
S31520002B107047F0B5DFF80C03DFF80C130860DFF818
S31520002B200C13086909680122DFF80443DFF804530F
S31520002B30C1F38003DFF800130E68400D00F0030098
S31520002B4002FA00F0BD4AF6037AD5002B14BFBC4E1C
S31520002B50BC4E0E600E68002EFCD50E6B26F48056F9
S31520002B600E630E6B002EFCD5B74EDFF8E0C2376938
S31520002B7027F03F374CEA070737614FF440570F617C
S31520002B800F69002FFCD50F69DFF8C4C227F4803700
S31520002B900F61376827F03F374CEA07073760AD4E9D
S31520002BA00127376003B92C46B4FBF0F313600122EA
S31520002BB0A94D00E0521CB3FBF2F4AC42FAD2736882
S31520002BC0A64C521E401E800200F4E05023401404FE
S31520002BD004F4E02423431202184302F44072104303
S31520002BE0706070699E4AC009C00140F003007061A0
S31520002BF0B06840F44020B060B068104040F0A0506B
S31520002C00B060F068974A104040F0C74040F001009D
S31520002C10F060F06840F44030F060706920F4E720FE
S31520002C2040F484307061086820F480300860086BB6
S31520002C3020F480300863086920F480300861F0BDF4
S31520002C4003B92C46B4FBF0F01060F0BD1AE170B564
S31520002C508AB00C46154605A80FF26C21142200F006
S31520002C60E1F968460FF27421142200F0DBF9002DF9
S31520002C7018BF012D36D1744801688A097A49002D7A
S31520002C800B680CBF05AD6D46260023F0607329D076
S31520002C900A2CA8BF012415F8146005EB44046478B7
S31520002CA0641EE40504F060742343704C06F03F066E
S31520002CB0256846EA821245F0020525604D6E25F408
S31520002CC040654D660568AA4218BF026008688342BF
S31520002CD018BF0B60486E40F440604866206820F0BC
S31520002CE0020020600AB070BD4948016841F4406185
S31520002CF0016070474648016821F4406101607047D1
S31520002D0030B54E4C002300202468594D19B10229B4
S31520002D100AD002D319E0234618E02968C1F301211D
S31520002D20491CB4FBF1F311E0A968524C46490968E5
S31520002D30AB6801F03F01B4FBF1F11224C3F3C25397
S31520002D4061435B1CB1FBF3F300E00420136030BD4C
S31520002D50042218B911B1484800220860104670476D
S31520002D6030B5434906280A6842F040020A600A68DC
S31520002D7022F080020A60414A13680C6823F47C130F
S31520002D8024F4E02414D8DFE800F0040608130B0D21
S31520002D90100023200DE0222000E01B20072509E05B
S31520002DA01D2003E01220042504E01320032501E062
S31520002DB01220082543EA00406B1E1B0403F4E0237F
S31520002DC023431468A04218BF10600868834203D0CA
S31520002DD00B60486BC007FCD430BD2948016841F020
S31520002DE03001016070472648016821F030010160FA
S31520002DF070471F48114A016880681268C1F3012193
S31520002E00491C00F03F00401CB2FBF1F147E00000F6
S31520002E1080C00F4014800D4000900D40B0810D40C1
S31520002E2040012E4000366E0114AB202060441F4026
S31520002E3000A4781F007B9A1700800D400086202072
S31520002E405820010042200100F0800D401818131868
S31520002E5023231A0F10C00F4001449508FFE0F8FF06
S31520002E60CFFFFFE380FF7F9C1CC00F4000802A40DD
S31520002E7014C00F4000389C1C80F5E40900810D40E9
S31520002E8074C00F400148024904E000BF14C00F403F
S31520002E900086202000680968C0F30120401CB1FB91
S31520002EA0F0F0704738B504460D4602E00120FFF7E2
S31520002EB022FD20462946441E61F10005002291424A
S31520002EC008BF9042F2D131BD00002208160818062C
S31520002ED01E0412060E0611040C0616020000180621
S31520002EE016040C061E021203160221011A011601EF
S31520002EF0F8B504460D46164600200FF2E40151F8B7
S31520002F002020A24202D0401C0628F8D30FF2E80166
S31520002F10144A31F9100000F01F01000A02EB80006C
S31520002F20032202FA01F102688A431143016001205B
S31520002F30616900FA05F7F84301406161317811B9FA
S31520002F406168084006E072782946204600F00CF8B1
S31520002F50606838436060B27829462046BDE8F8406C
S31520002F600EE0000068C00F400123002A026803FA21
S31520002F7001F10CBF22EA01011143016070470000F4
S31520002F80F0B5C469012303FA01F5AC431029C461E5
S31520002F9032BF00F10C0400F1100410394900032659
S31520002FA08E40F743521E042A19D8DFE802F00306A2
S31520002FB00A111500206838400CE0206803FA01F158
S31520002FC003E02068022202FA01F13840084301E0BA
S31520002FD0206830432060F0BDC1692943C161F0BD3E
S31520002FE00000000000801B4000C01B4000001C4069
S31520002FF000401C4000000C40FFFF1A011E001A0270
S315200030000C031E0162B38B0708D0521E11F8013B38
S3152000301000F8013B00F024808B07F6D1830740F0AF
S31520003020208000BF103A07D330B4B1E83810103AE8
S31520003030A0E83810F9D230BC530724BFB1E80810F5
S31520003040A0E8081044BF51F8043B40F8043BD207DF
S3152000305024BF31F8022B20F8022B44BF0B780370D3
S315200030607047083A07D3B1E80810083A40F8043BFD
S3152000307040F804CBF7D25307E4E70000DFF8E81660
S3152000308000200969C9680860704770B5DFF8D8461E
S3152000309082B0206A00258DF800504669002E44D063
S315200030A02169C9680A68012A2FD0756801F10802CA
S315200030B00023091DA84705001FBF42F21270854252
S315200030C042F21370854230D12369DE68B16861B35C
S315200030D072681078050006D0142804DA9B6803EB82
S315200030E0C003083B00E0002373623BB11B681D0050
S315200030F004D0104600259847012013E042F21075AF
S315200031000146284600F0C5FA0FE0486A40B14168FA
S31520003110080002D06846884705460DB1002001E028
S315200031209DF800002169C9680860284676BD80B5EB
S315200031300178002000F0ADFADFF82C06006A41691C
S3152000314009698847022000F029FBBFF34F8FDFF87B
S315200031501C06DFF81C26016801F4E06111430160BA
S31520003160BFF34F8F00BFFDE7DFF8FC05182100698C
S31520003170C0680C3000F03EBB10B5044660680838C5
S3152000318012D0401E0AD0F73811D0401E09D00F3871
S3152000319010D0103814D0401E0FD014E000F0A1FD3E
S315200031A012E001F093F90FE001F0CAFD0CE002F005
S315200031B0B9F809E002F036FC06E003F089F803E0EE
S315200031C003F050FB00E0042006E0DFF89C3510B544
S315200031D000F0D9F99B6998472178BDE8104058E25C
S315200031E010B500F097F8DFF8800561680069C068BF
S315200031F00161082180F820102178002000F049FA8A
S31520003200BDE8104003F092BD30B583B00021DFF851
S31520003210584501910091E568816840686B4601AA8E
S31520003220AD68C0B2A84722690021D2681161009911
S315200032308A08019900F041FA37BDDFF82C2510B530
S31520003240D26804466068A168D268C0B29047C3E7D6
S3152000325010B582B0044662680420092A03D1A0680A
S3152000326000F03BFB19E0082A03D1A06801F034FCEA
S3152000327013E0C2F3032101290FD16946104603F05A
S315200032800BFF50B9009ADFF8E01414238968A06870
S315200032905A431144096909698847217800F0F9F9E8
S315200032A013BD10B500F036F800F043F8042180F87D
S315200032B020102178002090E770B5DFF8AC5400F09C
S315200032C029F829691320DFF8AC64C96881F8200041
S315200032D02969E068C96881F82100E06848B9286949
S315200032E01021C0680161466121780020BDE8704048
S315200032F0CFE106F11001304603F02EFF2869482160
S31520003300C068016106F11001416148210020BDE835
S315200033107040E7E1044627E710B5FFF7FBFF00F012
S3152000332008F8032180F82010A1680020BDE810408D
S31520003330DCE1DFF83404E1680069C0688161A168D6
S31520003340016161684161704738B50446DFF8185459
S3152000335028690021C0684161016190F82000042895
S3152000336004D128680069804704B904462868406962
S31520003370804704B904462869C06890F82010204682
S3152000338000F087F942F21270844201BF2869C068B2
S3152000339090F82000082803D1BDE8314003F005BD90
S315200033A031BDDFF8C4130969C96891F821100029D5
S315200033B008BF00F001B874E02DE9F0430446DFF8B9
S315200033C0A863306983B0C068016921B900202070E4
S315200033D0FFF7BAFF62E0012101232170D0F818809F
S315200033E00769D0F8149000206A460090306A01A937
S315200033F045696D68A847050005D0306A4169C968E6
S315200034008847284603E0009830B942F21270FFF749
S315200034109BFF0020207042E0B84288BF38460090CB
S315200034203069C06890F82010082912D10199C1602E
S315200034300099C1610099019803F082FC054642F289
S315200034407D7085421CBF42F27470854213D10025DF
S3152000345011E0132905D1009A01994846FFF7D2FDBC
S3152000346007E03568019A009943464846AD68A84763
S3152000347005460098814400983F1A04D04DB1306A21
S315200034804169C96888472846FFF75EFF00202070FB
S3152000349004E03069C0680761C0F814900020BDE8D8
S315200034A0FE832DE9F84F0546AF4E3069C0680169A5
S315200034B021B900202870FFF747FF5AE00121DFF8E5
S315200034C0B8B22970816900910769D0F81480D0F8C4
S315200034D00C9090F820A0306A416949698847B84223
S315200034E088BF3846B9F1000F044613D02246494614
S315200034F05846FFF787FD306A3F1B2246012359466F
S315200035004469A468A04707B170B3FFF71DFF0020E8
S3152000351028702EE0BAF1030F04EB080919D1D6F86A
S3152000352000C0009B5A4621464046C846DCF804C0E7
S31520003530E0475FEA000ADED0306A012300225946BE
S315200035404469A468A0475046FFF7FEFE0020287075
S3152000355010E0BAF1130F01D0C846CCE72246414607
S315200035605846FFF74FFDF7E73069C0680761C0F896
S3152000357014800020BDE8F28F7B4B10B500F003F8D5
S31520003580DB68984728E61B680446E268A1686068FD
S3152000359070472DE9F0410446784F6568D4F80880D5
S315200035A0E0680026386018B103F06EFE00B90426E4
S315200035B0284603F051FE00B904262178304600F053
S315200035C068F89EB97D60002000F0E8F83868C7F8F2
S315200035D0088018B180F3088880F309887968404606
S315200035E088470020BDE8F04100F0D8B8BDE8F0815A
S315200035F038B50446606803F02FFE08B9042005E0BC
S315200036006568012000F0CAF8A068A84721780FE075
S3152000361038B5044603F024FFA368616804F10C0260
S31520003620574803F060FF054603F020FF217828461F
S31520003630BDE834402DE030B583B000210446CDE905
S31520003640001103F00DFFA36861686A464C4803F039
S315200036509FFF054603F00AFFA2686946284600F048
S315200036605EF837BD10B5FFF755FE3F48A2680169E1
S31520003670C9680A6162684A61102281F820200069BF
S31520003680E168C06880F82110A1680020BDE81040DC
S3152000369080E010B584B0A02201903348006A8DF8EE
S315200036A00020002202918DF8012000238DF80220AF
S315200036B002228DF8032044692CE010B588B0A72398
S315200036C000F060F8531C019000208DF8033006E0CE
S315200036D06C4651F8203004EB8004401CA3609042D5
S315200036E0F6D333E010B584B0142202E010B584B0CE
S315200036F0A32201901C48006A8DF800200122029125
S315200037008DF8012000228DF8022002228DF8032058
S31520003710446900230C226946A468A0471FBD10B542
S3152000372088B0AF2300F02EF802238DF803300190E5
S3152000373050B99DF80300029200EB92008DF8030029
S3152000374003A8FFF76FFC01E00020029006489DF8D1
S315200037500310006A0023446989000A1D6946A4688B
S31520003760A04708B010BD0000108020200CED00E01E
S315200037700400FA05509C202050982020A89C202048
S3152000378000401F408DF8003000238DF801308DF861
S315200037900230704710B584B0B022AAE770B504464F
S315200037A0012C0ED00026114D06E02844C1688968F8
S315200037B00A0018BF8847761C18207043295800290C
S315200037C0F3D174B903F04CFEFFF77CF803F07BFFCE
S315200037D00020074908600120FFF774F904F0B9F9C1
S315200037E062B6BFF36F8FBFF34F8F70BD44260020A4
S315200037F008ED00E0002204F0F3B90000BFF34F8F7C
S31520003800DFF8D82502E01060203020390129FADAC5
S31520003810BFF34F8FBFF36F8F704730B50546042037
S31520003820002D85B01EBFDFF8B8150A78002A50D0C3
S315200038302A68130F0B2B4CD1C2F303634FF4826417
S31520003840012B0C440CD0002B43D1284604F0E2F97E
S31520003850002811BF0021A96861600121217038E08C
S315200038602178002935D012F00F0F32D1002004A97B
S3152000387004900390012000F062FA50BB03A91020A7
S3152000388000F05DFA28BB01A9032000F058FA00BB1E
S31520003890646804986946251802A804F0F2F9C0B9AC
S315200038A0009A0399A218914213D30199491E0D42F9
S315200038B00FD10199284600F02BF910B942F2DB709E
S315200038C007E0029A0099284600F0C0F808B900F0EF
S315200038D056F905B030BD01207047FEB506460424D2
S315200038E003F0BAFC002872D006F2FF1003F0B4FCF5
S315200038F000286CD03068DFF8E8544FF483616F18E5
S31520003900010F0C2918D132463946002005F02CFE2D
S3152000391004005CD100203946287004F0D1F9040057
S3152000392055D1002006F0C0FC02A9102000F007FAAD
S31520003930002859D004464AE0DFF8A81488420FD15F
S31520003940287828B100F073F803F0FAFB002857D145
S31520003950687800BB06F010FE002838D0012041E030
S31520003960DFF88414884206D14FF400723146384677
S31520003970FFF748FBCEE7000F0E282AD1287830B370
S31520003980304606F001FE10B3304606F029FE04004C
S315200039901DD10120687000256A4601A9284606F037
S315200039A0FBFE88B9A80200F1C04606F580664FF4F2
S315200039B00071304600F0ACF830B1019A00993046DB
S315200039C000F044F800F0DBF86D1C022DE4D320460D
S315200039D0FEBD0B2805D13046FFF71FFF0400F6D1A8
S315200039E0B6E700206870F2E7DFF800040121816362
S315200039F0016B029A5118491E416301202870A7E7DE
S31520003A003A4600F014F800F021F8040004D000F043
S31520003A100EF800F0D0F9DAE700F0B1F8040097D0FC
S31520003A20D5F8DC154FF0C04000F02CF9CFE74FF465
S31520003A3000714FF0C0407047DFF8A4331B78002B8D
S31520003A4018BF06F091BF42F2DD7070472DE9F843AA
S31520003A500446DFF88C7338780D46914610B942F249
S31520003A60DD7032E085B3B87868B9D7F8D805401E3E
S31520003A70044202D044F6896027E001207C60B870B9
S31520003A800020B86004E0B86879680818A04216D10A
S31520003A90B868D7F8D88529184145494634BF2E46F7
S31520003AA0A8EB00063844324610303419FFF7AAFA3C
S31520003AB0B868AD1BB14430184045B860D2D100F08B
S31520003AC05EF80028CED000E00020BDE8F28376B56F
S31520003AD00446C348007810B942F2DD7076BD8D08E1
S31520003AE0AD0001F0030607E001AA04212046FFF7F6
S31520003AF0ADFF60B9241D2D1F002DF5D12EB101AAD1
S31520003B0031462046FFF7A2FF08B900F038F876BD07
S31520003B10F0B50646B2484078ADF5806D81B00D46C9
S31520003B20012418B1304606F014FE58B9294630460D
S31520003B3003F006FB044620460DF5806D01B0F0BD6E
S31520003B40ED1BBE19002DF6D0A8484FF48067B5F5B9
S31520003B50806F006B98BF2F463A46311A684600F0B0
S31520003B6032F96846002100E0491CB1EB970FE7D2F5
S31520003B7050F8042B12F1010FF6D00020DCE72DE9D6
S31520003B80F047974CADF5806D651C4FF000086878BE
S31520003B90002872D0261DD4F8D875706885F8018063
S31520003BA0B84205D0391A2044FF22103006F0F4FE20
S31520003BB030683946FFF7ACFF10B942F2DB705DE0A2
S31520003BC0D4F8D815306806F0C4FD48B1D4F8D81515
S31520003BD0306804F1100206F028FE5FEA00084CD196
S31520003BE0824F3068396B04F11003421A4FF4836018
S31520003BF02118002004F06AF980460020B8F1000F51
S31520003C006870706039D100F068F804D5D4F8D815FA
S31520003C103068FFF7F3FD2878D4F8D89504F1100A18
S31520003C20366800B34946304606F093FDD8B1B9F15F
S31520003C30000F22D04FF48064B9F5806F386B98BF9F
S31520003C404C462246311A684600F0BDF822465146B7
S31520003C50684606F0D5FE002802BFA9EB0409A6197E
S31520003C60A244E4D006E04A4604F11001304606F0AC
S31520003C70C7FE10B144F68A6000E040460DF5806D1F
S31520003C80BDE8F08770B5564A137813B942F2DD7055
S31520003C9070BDD2F8DC45624202EA000508184042AF
S31520003CA010404042461B3146284600F084F898B919
S31520003CB02146284606F015FE00F00FF803D52146CA
S31520003CC02846FFF79BFD31462846FFF721FF10B90E
S31520003CD044F68A6070BD002070BD45480068C00368
S31520003CE070473F4800B5017883B011B942F2DD70C4
S31520003CF00EBD4FF483610144002004F03EF9E8B97B
S31520003D0001A9012000F01BF8C0B96946102000F077
S31520003D1016F898B90099019806F0E3FDFFF7DDFF44
S31520003D2003D500990198FFF769FD0099019803F0E2
S31520003D3007FA10B944F68A600EBD00200EBD002990
S31520003D4010B52ED0264B4FF4BB629C184FF48D62D3
S31520003D501A4460B1012813D0022814D0032816D0A3
S31520003D60042816D0052816D0102817D019E0187860
S31520003D70002814BF002042F2DD700860002010BD2C
S31520003D804FF0C040F9E700F00EF8800AF5E720680A
S31520003D90F3E76068F1E7206918B1EEE700F003F871
S31520003DA0EBE7042010BD1068536818189368D26892
S31520003DB01818101870470B460C49096B421A0D4902
S31520003DC0002005F031BC80B500920B460246094919
S31520003DD0002005F066FC02BD000000005CEF00E05C
S31520003DE0FCA420200F0000F04643464250802020AD
S31520003DF014ED00E014A920203EB503F077FE02283A
S31520003E0001D001203EBDDFF8CC4B42F22C10251804
S31520003E10284606F03BFE20BB284600F07BFD00BB73
S31520003E2001A902A806F01EFE0199029800F042FCA4
S31520003E30B8B9284600F06EFD98B942F22C0020440D
S31520003E4000F0B8FC68B901206946207040F20110E4
S31520003E5003F022F928B900F066F9214400F05CF954
S31520003E6000203EBDF0B505460420002D83B01EBFC0
S31520003E70DFF8601B0A78002A4CD02A68130F0B2B18
S31520003E8048D1C2F3036342F22404012B0C440CD024
S31520003E90002B3FD1284603F0BDFE002811BF00218C
S31520003EA0A968616001212170FEBD237893B302F0D9
S31520003EB00F0008281AD201EBC00042F26C02676894
S31520003EC0104442F2EC2245688E580068694606FB8B
S31520003ED0007401A803F0D5FEE0B900983818B0FBAD
S31520003EE0F6F0854202D3701E044201D00420FEBDA6
S31520003EF0B4FBF6F40121204600F0BBFB10B942F2D8
S31520003F00DB70FEBD019A0099204600F0D2FC08B96C
S31520003F1000F06FFAFEBD00002DE9F04104460426AC
S31520003F200D46002C18BF002D0ED0287800F00F006B
S31520003F30C01E082827D24FF480612046FFF75AFC7E
S31520003F40686803F089F900286FD06868083003F0A4
S31520003F5083F9002869D06A684FF480702118002000
S31520003F6007F094F8060060D12868DFF8681AC0F3D5
S31520003F70032000281CBF0128002048602A6802F080
S31520003F800F00801E092850D2C2F303510329C2F321
S31520003F9003620CD8DFE801F002040609402108E09C
S31520003FA0802106E04FF4807103E0202101E02029E2
S31520003FB03BD3002A39D0052A37D2DFF81C3A218292
S31520003FC063600123A36011FB02F3E3600023628296
S31520003FD060610DE03F89D4F8C8C204EBC3085B1CBE
S31520003FE00CFB0EFE0CFB07F7C8F84470C8F840E03F
S31520003FF0834214D205EB830743B9D4F8C8C2B1FB78
S31520004000FCFC02FB0CFC4FEA4C0C04E0B7F806C0A3
S31520004010B7F804E0F444B7F80AE0E645DAD24FF4FC
S315200040207F71201D00F095FC20603046BDE8F081B0
S31520004030F8B50746042403F00FF900284ED007F2FE
S31520004040FF3003F009F9002848D03868DFF8845992
S3152000405042F22C016E18000F0C2841D13946304609
S31520004060FFF75AFF040039D10020287042F22C10A5
S31520004070284400F04FFC040030D1304600F09AFB73
S31520004080C8B1DFF85849FF224FF48461204603F077
S31520004090A3FDDFF84C0940F21C4160600120A060BE
S315200040A000202061201D00F054FC2060304600F0E6
S315200040B0AEFB040012D1304600F031FB04000DD1D6
S315200040C001206946287040F2011002F0E5FF040045
S315200040D004D100F028F8294400F01EF82046F2BD4D
S315200040E07968DFF8F42891420FD14FF48061384681
S315200040F000F022FC0028F1D000204FF480622870C6
S3152000410039463046FEF77EFFB0E70B28E6D1384623
S31520004110FFF7A8FE0446E1E70A68C260CA69896813
S3152000412051438160704700991422DFF8B808514343
S31520004130084442F2EC2170472DE9F04F91460424C1
S31520004140B9F1000F83B0884648D0DFF888783978EF
S3152000415011B942F2DD7441E07A6842F2EC217D1811
S315200041602968012A019112D13A7B52B9E96988421C
S3152000417034D20121B8603973A968002648430090DB
S315200041800BE0BA68AB68534301FB0300801A019A1F
S31520004190B0FBF1F1009102FB1106684642F2200ABB
S315200041A000F009FC41F20D0B12E0B81900F10D01E7
S315200041B022464846FEF726FF0198A619A8EB0408D2
S315200041C0A144864203D3361A0098401C009000244E
S315200041D0B8F1000F0DD10CB1002038732046BDE890
S315200041E0FE8F57F80A00401C47F80A00009820184E
S315200041F0009041F2100017F80B103A5800988242AE
S3152000420001D1080025D1AC680098B0FBF4F019B1B3
S31520004210B2FBF4F1884209D0E969884202D342F21E
S31520004220D874D9E700F0A6FB0028DAD10020009C3C
S3152000423007F80B00296807F10D02204600F023FB42
S3152000424028B9012107F80B1041F210017C50040017
S31520004250C1D1019808EB060188422CBF4446841B35
S31520004260A3E72DE9F04F91460427B9F1000F83B05B
S315200042708346884679D0DFF85C67307810B942F2F9
S31520004280DD7772E042F2140142F2EC2074183044D9
S31520004290716801900068012982463CD1317B91B931
S315200042A00198C069834560D2002000252070012036
S315200042B030730198C6F808B0806800FB0BF00090B8
S315200042C00AFB008023E0019AB16892684A4300FB0A
S315200042D002B0401AB0FBFAF10AFB11050091DFF893
S315200042E008170968884211D0207818B100F04CF9D7
S315200042F0070038D10199C6F808B00120002530738F
S3152000430058468968484300900AFB00F04044DFF88D
S31520004310D816086004E0BBFBFAF00AFB10B5009043
S315200043200098A16D884220D3684600F044FB16E031
S31520004330701941F214033A46494618447D19FEF78E
S3152000434061FE6068A8EB0708B944381855456060D7
S3152000435004D30098A5EB0A05401C00900027B8F16D
S31520004360000F0BD10FB1002030733846BDE8FE8F09
S31520004370E068401CE060009858440090A1680098CE
S315200043802778814200D167BB0198D0F808B0009801
S31520004390B0FBFBF01FB1B1FBFBF188420BD00199BA
S315200043A0C969884202D342F2D877DCE700F0E2FA04
S315200043B00028DDD11FB100F0E7F80700D2D115B1F2
S315200043C044F62A67CFE7002060600098A0600120AD
S315200043D0207008EB050082452CBF4746AAEB05074F
S315200043E0A6E76068A842F4D000F0CEF80700C5D052
S315200043F0B8E7DFF8F81500200978002918BF00F083
S31520004400C3B8704738B5DFF8CC5500206C1C21782E
S3152000441009B100F057F842F214012944002241F272
S315200044200D030A70EA54CA60E27232BD2DE9F843E0
S315200044300F46DFF8A0552978042411B942F2DD741D
S315200044402FE00FB900242CE06B6842F2EC216A18A9
S31520004450D6699168012B08BF80460DD01268B0FB43
S31520004460F2F33818401EB0FBF2F0B3FBF1F8B0FBC4
S31520004470F1F0A0EB0800471C42F26C002858B0FB74
S31520004480F1F0804507D20CE0404600F050FA0400D7
S315200044900AD17F1EC8465FB9687810B100F012F8BD
S315200044A004462046BDE8F283404600F073FAC8462B
S315200044B0B045F1D2404608F1010900F05BFA002828
S315200044C0E2D0F4E742F22C002844A0E170B5DFF8F0
S315200044D00445207810B942F2DD7070BD42F20830F2
S315200044E00025265800E06D1CB5420AD2284600F069
S315200044F041FA0028F7D1284600F019FA0028F2D010
S3152000450070BD607828B142F22C00204400F07FF97B
S3152000451000B9002070BD002910B52BD0DFF8B434C7
S3152000452042F2EC229C1842F27C121A4450B1012825
S3152000453011D0022811D0032813D0052813D0102813
S3152000454015D017E01878002814BF002042F2DD703D
S315200045500860002010BD0020FAE700F00DF8C00A20
S31520004560F6E72068F4E72068A2685043F0E700F0F9
S3152000457003F8EDE7042010BD1068536818189368F7
S31520004580D26818181018704742F214002DE9F04F1F
S31520004590DFF8404483B0251842F2EC2026186868DC
S315200045A0316842F2DB7888421CBF00202073D5F8A0
S315200045B00890002028700121484600F05AF8A0B340
S315200045C041F214002044696800900246484600F0F3
S315200045D070F900284BD0B068B9FBF0F738467F1C3D
S315200045E000F0D8F9E868401CE860F069019006E020
S315200045F0384600F0CFF9E8687F1C401CE860019837
S31520004600874232D2384600F0B5F90028F3D1B06897
S31520004610B9FBF0F100FB01FA00FB07FBA9EB0A004E
S31520004620411C584600F025F828B940461FE00AF1FB
S31520004630010A0BF1010BCA4531680ED204F10D02B5
S31520004640504600F020F960B9316804F10D02584651
S3152000465000F02FF90028EAD003E0009A584600F02F
S3152000466028F920B14045C3D101E042F2D870BDE817
S31520004670FE8FF8B50446D74E42F2EC200D46375849
S3152000468000E06D1EA5B106F10D0239462046641CD8
S3152000469000F0F9F850B906F10D0100E0001DB8420E
S315200046A0EFD251F8042B12F1010FF7D00020F2BD02
S315200046B00120F2BD2DE9F041002705460E46B846F9
S315200046C0C44C01E07F1CB044BFB2AF4224D204F1F7
S315200046D00D024FF48061404600F0D5F8002802BF55
S315200046E0D4F81100BC49884204BFD4F8150001282B
S315200046F0E8D14FF4806104F10D0000F01DF9002887
S31520004700E0D042F22C004FF4806204F10D012044E7
S31520004710FEF778FC002000E00120BDE8F0812DE9BD
S31520004720F84F814609F1100046880788D9F8C81243
S31520004730002444F62965A246DFF898B206FB07F066
S31520004740B0FBF1F801E0641CBA44B4422ED20BF15E
S315200047500D024FF48061504600F095F838B90122D9
S3152000476049460BF10D0006F04BF90028EBD000244A
S3152000477003E02046641C00F0DAF84445F9D300240F
S31520004780A24602E00025641CBA44B4420FD24A462F
S315200047904FF48061504600F08CF80028F2D0D9F80A
S315200047A0C802BAFBF0F000F0C2F8ECE70025284674
S315200047B0BDE8F28F2DE9F041884C00216160458AE1
S315200047C0068A0027D0F80C8001E07F1CB044BFB2D7
S315200047D0AF4219D2082F17DA22464FF48461404699
S315200047E000F051F8002802BF60687D49884204BF66
S315200047F0A0680128E9D14FF48461204600F09CF896
S315200048000028E2D0002000E00120BDE8F0812DE95B
S31520004810F84F814609F10C06B6F806B0B6F80480C2
S31520004820D9F8C80244F6296A00270BFB08F1B1FB28
S31520004830F0F43168B1FBF0F503E078197F1C00F045
S3152000484076F8BFB2A742F8D300243668614D634F8D
S3152000485004E068704FF0000A641C4644A4B25C452C
S315200048600ED23A464FF48461304600F022F80028F2
S31520004870EFD0D9F8C802B6FBF0F000F058F8EBE715
S315200048805046BDE8F28FF8B504460D46164602E0BE
S315200048903E44ED1B641C5DB15548324607682046F0
S315200048A0AF4228BF2F46394600F038F80028EFD00F
S315200048B0F2BD2DE9F84304460D469046454E02E0EA
S315200048C0B844ED1B641C15B342F2EC20434637581E
S315200048D042F22C102246AF4228BF2F4631180097AD
S315200048E0002006F034FB98B906F10D023946204621
S315200048F000F014F85FEA000909D13A4606F10D01E5
S31520004900404606F07DF80028DAD0012000E048462F
S31520004910BDE8F2830146002006F005BA80B51346AD
S31520004920009102463349002006F00FFA02BD0246E6
S315200049303049002006F0B8BA10B50446091F201DDC
S3152000494000F007F82168884201D1012010BD00201F
S3152000495010BD3EB504460D4601A806F0FBFC2A46CE
S31520004960214601A806F0FCFC694601A806F00EFDCA
S3152000497000983EBD0021194A00E0491C136999425E
S3152000498006D202EB81031B6A8342F6D101207047CF
S315200049900020704711490A69FF2A0AD801EB8202D2
S315200049A010620869401C086101200A4948700020ED
S315200049B0704701207047074942F2200310B5CB58B3
S315200049C042F2F4240268095901FB03210160002008
S315200049D010BD0000A81021204243464ED434212089
S315200049E054424244D0802020F4382120BC3021205B
S315200049F094332120D431212030B505460420002DC2
S31520004A0085B01EBFDFF8D4130A78002A4AD02A6858
S31520004A10130F0B2B46D1C2F303634FF48274012B81
S31520004A200C440CD0002B3DD1284603F0F3F8002887
S31520004A3011BF0021A96861600121217032E021782F
S31520004A4081B312F00F0F2DD1002004A904900390FA
S31520004A5000F03EF930BB03A900F070F910BB01A9A4
S31520004A60032000F07AF9E8B96468049869462518A5
S31520004A7002A803F006F9A8B9009A0399A218914250
S31520004A8010D30199491E0D420CD10199284607F0F1
S31520004A90B9F810B142F2DB7004E0029A0099284678
S31520004AA000F0C8F805B030BD38B503F01FF810285F
S31520004AB001D0012032BDC94C201D07F061FA050046
S31520004AC008D1201D07F0B9F8050003D100F070F9D0
S31520004AD001202070284632BDF0B583B0044602F08E
S31520004AE0BBFB20B104F1FF0002F0B6FB08B904209D
S31520004AF0FEBD2068BA49B94D88420DD14FF4807267
S31520004B002146281DFEF77EFA00202870281D07F072
S31520004B1094F800286BD0FEBD010F0D295ED1C0F39D
S31520004B20012101B9012120F4407040EA01202060D2
S31520004B30281D07F025FA00286ED1052005F1250647
S31520004B40287418203070207805F1450700F00300FE
S31520004B5078742068000AC00000F018007070206881
S31520004B60800A00F0010070722068000B00F0070038
S31520004B70F0712068C0F3810002283874C4D1A2885D
S31520004B8000F04BF8F075E28800F047F8307622897D
S31520004B9000F043F87076628900F03FF8B076A2897B
S31520004BA000F03BF8F076E28A00F037F8B077228BF7
S31520004BB00121281D06F000FEF077E28900F02DF88D
S31520004BC03870228A00F029F83077628A00F025F8BA
S31520004BD07077A28A00F021F8787095E70B2903D127
S31520004BE02046FFF709FFFEBD45F27C20FEBD00F002
S31520004BF0DFF801A9012000F0B0F86946102000F086
S31520004C00ACF8009A7748019901645118491E41640D
S31520004C100121816400202970FEBD0021281D06F097
S31520004C20CBBD6E4B1B78002B18BF05F09DBE42F204
S31520004C30DD707047F8B50446684F38780D4616463D
S31520004C4010B942F2DD70F2BD204606F0DBFF10B14E
S31520004C5042F2DB70F2BD2B4632462146381D01B0AA
S31520004C60BDE8F04007F03BB82DE9F44104465B4827
S31520004C7000788F0883B00E19BF0001F0030510B924
S31520004C8042F2DD7022E000F022F801A900F056F889
S31520004C900098844222BF01990818B0420CD245F2EE
S31520004CA06D2013E003AA04212046FFF7C3FF5FEA25
S31520004CB000080AD1241D3F1F002FF3D12DB103AACE
S31520004CC029462046FFF7B6FF8046404633E0694630
S31520004CD0012042E02DE9F04184B0404E04460D46C5
S31520004CE030782F1910B942F2DD7024E0FFF7EFFF7C
S31520004CF001A9052000F031F802A900F01FF800985C
S31520004D00844223BF02990818B84245F26D2012D377
S31520004D101DB900200FE001980419BC420AD2009860
S31520004D200199201AB0FBF1F1301D07F013F85FEA64
S31520004D300008F0D0404604B0BDE8F08110200CE019
S31520004D4000B583B001A9FFF7C3FF6946FFF7F6FF59
S31520004D5000990198FFF7BEFF0EBD39B31F4A02F135
S31520004D60A40350B1012811D0022811D0032814D051
S31520004D70052814D0102815D018E01078002814BF64
S31520004D80002042F2DD700860002070475069FAE783
S31520004D9058689A685043800AF5E71868F3E7586818
S31520004DA020B1F0E758689A685043ECE70420704732
S31520004DB000B583B001A90520FFF7CFFF6946102073
S31520004DC0FFF7CBFF0548009A8169914204D2019AE8
S31520004DD0B1FBF2F1C0F8AC1007BD00002807212076
S31520004DE053454D435080202030B583B002F07EFEDF
S31520004DF0202801D001203EBD00F0C6FCDFF8244A61
S31520004E0044F218102518284607F0BBF970BB28462F
S31520004E1007F068FF50BB694601A807F0EBF8009B36
S31520004E20019A0021002000F0D4FBF8B944F21800C2
S31520004E304FF48062A11C2044FEF7E4F8284607F0D0
S31520004E4051FF98B9009B019A44F224002158012071
S31520004E5000F0BFFB50B94FF48462A11CDFF8C809EB
S31520004E60FEF7D0F80120207000F0A7FC3EBD2DE90A
S31520004E70F047054602F0F0F920B105F2FF3002F0C6
S31520004E80EBF908B90420FFE0DFF8986944F2240022
S31520004E90371844F2181006EB00082946002000F0C7
S31520004EA07DFB90B300204FF48062307044F21800EE
S31520004EB029463044FEF7B6F8404607F013FF00288F
S31520004EC0E1D1BB88FA8839680120DFF85C494FF4C4
S31520004ED0846500F07EFB002800F0C880FF2229466A
S31520004EE0204602F079FEDFF8440940F21C4160605A
S31520004EF00120A06000202061201D00F034FC2060ED
S31520004F0000F039FA0028BED1B5E02868010F0D2936
S31520004F1040F0A980696811F00F0F14BF01F00F0946
S31520004F204FF00109C1F3034404B90124C0F3012160
S31520004F3001B9012120F4407040EA01202860686808
S31520004F40C0F3072101B9012120F47F4040EA012066
S31520004F506860287800F007000128B8BF45F2E420F1
S31520004F6091DB092C28BF45F2E5208CD20020307039
S31520004F7000F00AFC404607F004F9002835D144F237
S31520004F806A10304400210522817244F221113144F5
S31520004F90CA700022C27201220A702A7802F0070221
S31520004FA002702A68C2F3C002CA752A68C2F30212C6
S31520004FB0521C42702A68120AD20002F018020A769F
S31520004FC0296844F24812090B01F00701B1542968F7
S31520004FD0090C01F00101C1702968490C01F0010199
S31520004FE00171404607F07EFE00284DD16A6844F2E2
S31520004FF0C0103358C2F30721C2F3072219FB02F26D
S3152000500059435200002315E006EBC30E44F258081C
S3152000501056F800A05B1CC644BCF808800AFB08F8BA
S31520005020CEF80480BCF80AC056F8008008FB0CFCB9
S31520005030CEF800C0A3420ED205EB830C23B1BCF8F8
S315200050400620BCF804E07244BCF80AE09645DBD2A0
S3152000505045F2E62018E001FB09F0B980A7F8069092
S315200050603860BC602DE745F2E0200DE02A46B11CF1
S315200050702046FDF7C7FF002000F0D8FA20B901200E
S315200050803070BDE8F04798E3BDE8F0872DE9F84F8A
S315200050908846DFF8907744F2B81107EB0105D5F87A
S315200050A000905FEA020BB0FBF9F109FB110A0091AF
S315200050B008BF042021D0387810B942F2DD701CE0F8
S315200050C0684642F2020600F0A0FB12E007EB0A0057
S315200050D0811C22465846FDF795FFA244CA45A8EBF7
S315200050E00408A34404D30098AAEB090A401C0090A4
S315200050F00024B8F1000F0CD12046BDE8F28F44F20F
S31520005100140044F214013858401C78500098201896
S31520005110009042F20401B85D7A5800998A4201D182
S31520005120010028D1AC680099B1FBF4F118B1B2FBAB
S31520005130F4F081420CD0E8682A695043814202D3B8
S3152000514042F2D870D9E7009800F0F8FA0028D6D1B4
S31520005150009C0020B8552B6844F21810BA1C214632
S31520005160384407F04FFE20B90121B95542F2040117
S315200051707C500400C0D108EB0A0081452CBF444670
S31520005180A9EB0A04A2E72DE9F84FDFF8A4660C463E
S31520005190D6F800A05FEA0209B0FBFAF10AFB110873
S315200051A0009108BF04202DD0DFF87806007810B9CA
S315200051B042F2DD7026E0DFF87C560846296D8842EB
S315200051C038BF45F2E3201DD3684600F01EFB17E0EA
S315200051D0DFF8500642F20803404449463A4618444E
S315200051E0FDF710FF6868E41BB844B9443818D04569
S315200051F0686004D30098A8EB0A08401C009000279A
S3152000520044B93846BDE8F28FE868401CE86000984B
S3152000521058440090A96800982F78814200D177BB26
S31520005220D6F808B0B0FBFBF01FB1B1FBFBF188420A
S315200052300DD0F16832695143884202D342F2D870C8
S31520005240E0E7009800F07AFA0028DDD11FB100F0DF
S31520005250F4F80700D5D1B8F1000F02D045F2D120DD
S31520005260D0E7002068600098A8600120287004EB31
S31520005270080082452CBF2746AAEB0807A8E76868DE
S315200052804045F4D000F0D9F80700C3D0B9E72DE99E
S31520005290F047DFF8905544F2B812AE183269F36839
S315200052A003FB02F92A7812B942F2DD7029E009B926
S315200052B0002026E03368B268B0FBF3FC0818401ED5
S315200052C0B0FBF3F0BCFBF2F4B0FBF2F0001B471C82
S315200052D044F258002858B0FBF2F084420AD245F234
S315200052E0E3200EE0204600F04FF95FEA00080AD1DD
S315200052F07F1E54465FB9687810B100F03CF88046AE
S315200053004046BDE8F087204600F06EFA54464C45EC
S31520005310F1D2B06804F1010A604300F00FFA0028C8
S31520005320E0D0F3E744F2C0102DE9F041DFF8F46451
S3152000533000253718B868796801FB00F8307880B9FD
S3152000534042F2DD7015E03868684300F0F7F938B9A5
S31520005350284600F019F904001CBF284600F044FA3C
S315200053606D1C4545EFD3707810B100F004F8044663
S315200053702046BDE8F081012058E1DFF8B81400206E
S315200053800978002918BF00F058B8704710B5DFF823
S3152000539094440020617809B1FFF7EDFF44F208013B
S315200053A02144002242F202030A70E254CA6010BD70
S315200053B089B3DFF8703444F2B8121A4450B1012888
S315200053C011D0022811D0032818D0052818D010286B
S315200053D01AD020E01878002814BF002042F2DD7091
S315200053E00860002070470020FAE71069D368584308
S315200053F09368126858435043800AF1E71068EFE734
S31520005400906812685043EBE71069D3685843936855
S3152000541012685843F6E704207047DFF8080444F280
S31520005420F81101440A783AB942F20203C25442F210
S315200054300403C250801C486070472DE9FE4FDFF8F8
S31520005440E44344F20800251844F2B8102718D5F88A
S3152000545008A0B868F96842F20806BAFBF0F938697C
S31520005460484339680290002028706868884205D031
S31520005470091A2044FF22801905F08EFA44F21810EA
S31520005480204400900122514642F2DB7807F026FEA6
S3152000549070BB3968A0190190024601FB0AF000F0A2
S315200054A04CF8002847D0484609F1010900F09CF93C
S315200054B0E86805E0484600F097F9E86809F101092F
S315200054C0401CE8600298814533D2BE6806FB09FB82
S315200054D0584600F033F90028EFD1BAFBF6F04643E0
S315200054E05946AAEB0600421C009807F0F7FD20B1AA
S315200054F0404620E0761C0BF1010B56453B680ED248
S315200055000098A21C314607F07DFC70B93968A21CB0
S3152000551001FB0BF000F011F80028EBD005E0019A12
S3152000552003FB0AF0194600F008F820B14045C1D126
S3152000553001E042F2D870BDE8FE8F2DE9F84F0C4607
S3152000554044F2B815B74E934671590BEB0409B0FBDC
S31520005550F1FAFFF762FF03E0BB44E41B0AF1010AFC
S31520005560CB450ED2775944F218105A46514630444C
S31520005570BC4238BF27463B4607F0B6FC5FEA000828
S31520005580EAD04046BDE8F28F10B50446FFF745FF46
S315200055902146A948BDE8104007F048BD10B50C4685
S315200055A020B9A64A201D4FF47F7103E09F4A201D93
S315200055B040F21C416368934204BFA268012A06D1C7
S315200055C000F0D1F82168884201D1012010BD0020C9
S315200055D010BD2DE9F04704460D46924F90469A4657
S315200055E04FF40051B81C07F0E9FD20000CBF4FF422
S315200055F080694FF48469002601E05544761C4645AF
S3152000560011D244F2B810BA1C385849466843FFF7FD
S315200056103DFD0028F1D1B91C2046FFF7BFFF002829
S31520005620EBD0002000E00120BDE8F0872DE9F14F06
S315200056307C4D44F218002E1884B0708A0190308A6E
S31520005640029044F2B810284400900198022807D30B
S3152000565002980199484300998968B0FBF1F801E066
S315200056604FF001089DF8100080BB4FF0000A00247F
S31520005670002702E00298641CC7190198844212D2BE
S315200056800098AA1C4FF4806100687843FFF7FEFC5F
S3152000569038B94FF480623146A81C05F0B1F90028CC
S315200056A0E8D04FF0010A00270024BAF1000F45F296
S315200056B0E12903964FF4806B3BD044F21C004FF453
S315200056C07F71284400F04FF830600AE00098F468B3
S315200056D045F2E2294FF4846B8068B4FBF0F7524818
S315200056E00390002603E0F019761CFFF74DFF464590
S315200056F0F9D300260AE09DF810004FF00009012892
S3152000570004BF002068700298761C0419019886420E
S3152000571010D20098039A594600686043FFF70DFFA0
S315200057200028E8D000988068B4FBF0F0FFF72CFF43
S31520005730E9E7A146484605B0BDE8F08F10B5404BD5
S3152000574000221B680021B0FBF3F0374B00E0521C0F
S315200057501C69A24205D203EB8204246AA042F6D138
S315200057600121084610BD3EB504460D4601A805F0A8
S31520005770F1FD2A46214601A805F0F2FD694601A859
S3152000578005F004FE00983EBD38B5264C44F21800BC
S315200057902518FF224FF48061284602F01DFA27487B
S315200057A04FF47F7168600120A86044F21C002044F9
S315200057B0FFF7D9FF2860002032BD80B569464FF437
S315200057C0807001F069FC70B9009914221D4851437C
S315200057D0084417490A68C2600A69CB6889685A432F
S315200057E051438160002002BD0F490A69FF2A0AD869
S315200057F001EB820210620869401C086101200949F8
S3152000580048700020704701207047064944F214036F
S3152000581010B5CB5844F2C0140268095901FB032184
S31520005820016010BD34BE20204C0221205442424447
S31520005830ECFF20203CFE20204CFF20204243464EF9
S31520005840F4FF2020D080202030B505460420002DEE
S3152000585085B01EBFDFF890150A78002A4FD02A6837
S31520005860130F0B2B4BD1C2F30363012B01F23C44E4
S315200058700CD0002B43D1284602F0CCF9002811BFCA
S315200058800021A96861600121217038E02178002972
S3152000589035D012F00F0F32D1002004A904900390C6
S315200058A0012000F06BF950BB03A9102000F066F927
S315200058B028BB01A9032000F061F900BB64680498A5
S315200058C06946251802A802F0DCF9C0B9009A0399A6
S315200058D0A218914213D30199491E0D420FD1019965
S315200058E0284600F0B4F810B942F2DB7007E0029ABD
S315200058F00099284600F016F808B900F051F805B0CE
S3152000590030BD0020DFF8E014886070471346DFF8CA
S31520005910D824127812B942F2DD7070470A46194629
S3152000592007F07EBC2DE9F8430446DFF8BC743878CE
S315200059300D469146D7F8288410B942F2DD702DE045
S31520005940B8F5806F88BF4FF4806835B3B96878683A
S31520005950002904BF00287C6002D00818A04217D175
S31520005960681880452CBF2E46A8EB0106781800F152
S315200059700C01894504D0324649460C30FDF742FBDE
S31520005980B8683419AD1BB14430184045B860DCD135
S3152000599000F006F80028D8D000E00020BDE8F28309
S315200059A0F0B5DFF84454ADF5806DAE6881B00024C3
S315200059B0DEB16F686C60AC60324605F10C0138468A
S315200059C007F0B0FC040010D132466946384607F08D
S315200059D027FC040009D13246694605F10C0005F082
S315200059E00FF810B142F2DF7000E020460DF5806D11
S315200059F001B0F0BD38B50446DFF8EC0300780D465B
S31520005A0010B942F2DD7032BD204607F023FC40B9C2
S31520005A102946204600F01BF810B942F2DF7032BD4D
S31520005A20002032BD10B5DFF8C043207810B942F20D
S31520005A30DD7010BD07F04FFC40B9D4F8241400F0F7
S31520005A4006F810B942F2DF7010BD002010BD70B507
S31520005A50ADF5806D04460D4601E0AD1B3419C5B188
S31520005A604FF48066B5F5806F6946204698BF2E466E
S31520005A70324607F0D5FB6846002100E0491CB1EB11
S31520005A80960FEAD250F8042B12F1010FF6D000201F
S31520005A9000E001200DF5806D70BD2DE9F845074623
S31520005AA04FF0040801F0D8FB20B107F12B0001F0DC
S31520005AB0D3FB08B904205FE0CB4C4FF48260261854
S31520005AC0386804F20C45DFF824A3000F0C281CD1FB
S31520005AD02C213046FDF78EFE4FF480300121A86040
S31520005AE04FF486602044C5F804A00170022141705D
S31520005AF00321817005210171062180F803804171FF
S31520005B003946304600F0D4F813E03868010F0B29E7
S31520005B1004D13846FFF798FE80462CE050452AD11E
S31520005B202C213046FDF766FE2C2239463046FDF7FD
S31520005B3069FA00202E7B20704FF483602F69204461
S31520005B4001F062FF3046DFF8A88201F015FF4146DA
S31520005B50304601F04BFF3A464146304600F02FF8DA
S31520005B6029684FF48460204407F02CFB5FEA000884
S31520005B7004BF012020704046BDE8F285E9B19A4A6B
S31520005B8002F2244340B101280FD003280FD0042865
S31520005B900FD010280FD010E01078002814BF002056
S31520005BA042F2DD700860002070470020FAE758684E
S31520005BB0F8E79868F6E71868F4E70420704770B5A8
S31520005BC08CB004460D46164607A80FF2482114222B
S31520005BD0FDF728FA1C216846FDF70CFE08200096E2
S31520005BE0019000200099ADF808008DF80A00814840
S31520005BF02A46B0FBF1F0009903907E48B0FBF1F005
S31520005C00009904907B48B0FBF1F0059002208DF8B6
S31520005C10180000208DF819006946ADF81A0007A86B
S31520005C2050F8240007F0E6FC0CB070BD2DE9F041D9
S31520005C30074671488AB00C461646057890F80180CA
S31520005C4004A80FF2E4111422FDF7ECF900216846AE
S31520005C50002200238C46A0E80E104FF480100390FB
S31520005C600EB9012201E0032E05D14146284601F056
S31520005C709DFE002018E0012E08BF019702D0022EBB
S31520005C8008BF0097029404A8694650F8250007F03B
S31520005C9015FEB0F5C87FF6D030B100224146284621
S31520005CA001F084FE42F6CD100AB0BDE8F081000076
S31520005CB010B50C78514B00F1080204F00F0403EBE9
S31520005CC08404E46D14610C68C4F3031403EB8404A8
S31520005CD0246C54610C68C4F3032453F82430D36035
S31520005CE00C68474B240B04F00F04012C02D0022C25
S31520005CF00ED010E001201072D068B0F1011F38BF1D
S31520005D00102003D3984234BF18202020507231E04F
S31520005D10022010722EE000241472602480F828409D
S31520005D20D068984213D2182050724220907750693A
S31520005D30B0F5803F28BFD8201BD2B0F5805F08BFC2
S31520005D40202016D0B0F5004F14D1522011E020208B
S31520005D50507212205076132090760020907750694A
S31520005D60B0F5803F28BFDC2003D2B0F5805F01D19B
S31520005D702120D0770868000D00F00F00401E032870
S31520005D800BD8DFE800F002040608012006E0022016
S31520005D9004E0032002E0042000E0002010700868E0
S31520005DA0000C00F00F00012806D004D3032803D0EE
S31520005DB038BF022000D3002050700868C0F303606B
S31520005DC078B1087900F00F00012804D009D3032800
S31520005DD005D002D305E00B4804E00B4802E00B484F
S31520005DE000E00B48506010BDBC8120206B736563BA
S31520005DF0005A620200CA9A3BD4852020488120207E
S31520005E000100000180969800404B4C0080841E00C3
S31520005E10002D31010000000000403940008039404B
S31520005E2000C0394000003A400000000000403940E0
S31520005E300080394000C0394000003A4000F0FF01A0
S31520005E4001F1804101F57C21020A096802F01F0256
S31520005E50C0F34C3090400840D0407047F0B506461D
S31520005E600420002E85B063D0DFF8E0454FF465713D
S31520005E706518297800295BD031680A0F0B2A57D17B
S31520005E80C1F30362012A0CD0002A51D1304601F019
S31520005E90C1FE002811BF0021B168A9610121297521
S31520005EA046E02A7D002A43D011F00F0F40D1002072
S31520005EB004A904900090012000F027FA002837D189
S31520005EC06946022000F021FA90BB00984FF0FF3679
S31520005ED002A9B0F5800F88BF0096052000F015FABC
S31520005EE030BBAF69049801A93D1803A801F0C9FE8B
S31520005EF0F0B9019A0099BA18914219D30299491E0C
S31520005F000D4215D194F8000302990128284618BF9E
S31520005F100026324600F073FA10B942F2DB7007E031
S31520005F20039A0199284600F044F908B900F09AF935
S31520005F3005B0F0BDDFF8180530B5DFF8104583B0A1
S31520005F4020600E2007F074FE0546DFF80805FFF7EF
S31520005F5075FF401CB5FBF0F060604FF45B702518B0
S31520005F6040F2FF10A88402206884204607F0E0FF54
S31520005F70C0B9204608F09AFF88B901A940F221103D
S31520005F8001F08AF870B900F00EF858B9019A00F0BD
S31520005F90BDF82A68CA60009A8A60012100E00021C3
S31520005FA084F894133EBD6946204659E27FB50546DE
S31520005FB001F052F968B1E81D01F04EF948B12868A0
S31520005FC0000F0B2803D12846FFF748FF02E00C28D4
S31520005FD002D0042004B070BDDFF870444FF46C7119
S31520005FE02046FDF707FCDFF8680420600E2007F046
S31520005FF01FFE0646DFF85C04FFF720FF401C40F634
S31520006000C413B6FBF0F060604FF45B70261840F2C4
S31520006010FF10B08402207084296804F128000A0B3E
S31520006020090A02F00F0201F00F010270417069683F
S31520006030CA0C02F001020273CA0D090E01F0030117
S3152000604002F001020129427341F2883206D002D3BE
S31520006050032908D005D344F6206105E042F21071E9
S3152000606002E0114600E0194641606968C1F300511B
S3152000607001B11A4682606968890C01F001018173B9
S31520006080204608F013FF0028A4D12868000E00F04F
S315200060900701204609F0C8F800289BD103A9FFF77D
S315200060A083FF002896D102A940F2211000F0F4FFC8
S315200060B000288FD1029A00F029F83268CA60039A24
S315200060C08A602968CA071DD5080C00F003008DF8E0
S315200060D00300C1F301108DF80400080D00F007003D
S315200060E08DF80100880800F001008DF80000C8082E
S315200060F000F0010069468DF80200204609F0C5F936
S31520006100002802D1012184F8941363E71423DFF8D1
S3152000611048135A43114470472DE9F84F044600F0BE
S315200061209BF88A46904610B942F2DD703FE0600A3D
S31520006130670AA4EB402912E005EB09004FF46C71C5
S31520006140014440465A46D944FCF75CFFB9F5007F26
S31520006150AAEB0B0AD84424BFA9F500797F1CBAF113
S31520006160000F23D0707880B1706887420DD3411C10
S315200061708F420AD2A4EB40290AEB0900B0F5007F32
S3152000618094BFD346C9F5007BD6E700200123707063
S315200061904FF46C7029183A46284609F066F800280C
S315200061A002BF012070707760E6D000E00020BDE8D5
S315200061B0F28F2DE9F84F814600F04EF80F469046B3
S315200061C010B942F2DD7045E04FEA59204FEA592ACC
S315200061D0A9EB402415E028194FF4B6635A464146E8
S315200061E018445C44FCF70EFFF068B4F5007FA7EB7B
S315200061F00B07D8445844F06024BFA4F500740AF174
S31520006200010A37B3307A90B1306982450CD3411CEC
S315200062108A4509D2A9EB4024F068A04211D000F0AB
S31520006220A0F80028EED015E000F09BF890B914B144
S3152000623042F2DE700EE00020C6F810A0F0600120C9
S3152000624030723819B0F5007F94BFBB46C4F5007B89
S31520006250C1E70020BDE8F28F7C4D4FF465702E1803
S31520006260307870477949002091F89C13002918BF8F
S3152000627000F077B8704779480021C171017000207D
S31520006280704770B50446714D95F894030E4610B9C3
S3152000629042F2DD7070BD284608F0BEFF10B142F212
S315200062A0E07070BD9EB14FF45B702844C1690068F0
S315200062B03219521EB2FBF0F2B2FBF1F2B4FBF0F04F
S315200062C0B0FBF1F12846BDE8704009F013B870BD67
S315200062D038B55E4C4FF462702518287B10B942F20F
S315200062E0DD7032BD204608F097FF10B142F2E07013
S315200062F032BDFFF758FE38B900982968B0FBF1F295
S315200063000021204608F0F6FF32BD38B50C0026D015
S315200063104E4D30B101280ED002280ED005281BD0B4
S315200063201DE095F89403002814BF002042F2DD708A
S315200063302060002032BD0020FAE76946284600F09A
S315200063408FF80028F6D10098D5F86C13A1FB000130
S31520006350800A40EA8150EBE7D5F86C03E8E7042091
S3152000636032BDF8B5394C204608F056FF10B142F23E
S31520006370E070F2BD4FF46770251868684FF0FF365D
S31520006380B0F5007F0DD094F800134FF4B6630129C1
S31520006390C0F50071204418440CBF3246002204F098
S315200063A0FBFA0020287094F800030128A86818BF7B
S315200063B000263246012100F022F810B942F2DB70A5
S315200063C0F2BD4FF4B660AA6826180123314620464E
S315200063D008F062FF90B94FF46C70AA682718012361
S315200063E03946204608F041FF40B94FF4007239463D
S315200063F0304604F005FB08B142F2DF70F2BD2DE90C
S31520006400F8438046114F4FF46C700D4691463C1868
S3152000641000E0AD1BB5B1022D4246214638462CBFC1
S3152000642001262E46334608F020FF48B9214600E0D3
S31520006430001DB0EB462FECD251F8042B4A45F7D07D
S31520006440002000E00120BDE8F28300009CAC202063
S3152000645000402C4024F00080D080202031B0202025
S315200064604FF45C721044027F072A13D8DFE802F04B
S31520006470040808120A0C0E100068086000207047F5
S315200064804068FAE78068F8E7C068F6E70069F4E74D
S315200064904069F2E70420704700F0FF0101F18041D6
S315200064A001F57C21020A096802F01F02C0F34C3074
S315200064B090400840D0407047F0B506460420002E94
S315200064C085B01FBFDFF8001501F1AA04A27D002ABE
S315200064D05CD03268130F0B2B58D1C2F30363012B08
S315200064E001F1D4050CD0002B50D1304601F092FB9F
S315200064F0002811BF0021B16869600121297045E09B
S315200065002978002942D012F00F0F3FD1002004A98C
S3152000651004900090012000F0C2F9002836D1694687
S31520006520022000F0BCF988BB00984FF0FF3602A984
S31520006530B0F5800F88BF0096052000F0B0F928BB83
S315200065406F68049801A93D1803A801F09AFBE8B9E1
S31520006550019A0099BA18914218D30299491E0D4200
S3152000656014D120780299C007284658BF0026324603
S3152000657000F003FA10B942F2DB7007E0039A0199A2
S31520006580284600F0E6F808B900F03FF905B0F0BD5E
S3152000659038B5DFF83444DFF8340420600E2007F0E5
S315200065A047FB0546DFF82804FFF776FF401CB5FBBE
S315200065B0F0F06060204607F0F3FC60B92046B43462
S315200065C009F06AFD28B900F07CF820B900F06EF8D1
S315200065D000E00021217332BD70B582B0044600F080
S315200065E03BFE68B1E01C00F037FE48B12068000F82
S315200065F00B2803D12046FFF75FFF76BD0D2801D07B
S31520006600042076BDDFF8C053DC212846FDF7F2F8DA
S31520006610DFF8B80328600E2007F00AFB0646DFF8ED
S31520006620B003FFF739FF401C40F6C413B6FBF0F069
S315200066306860216805F128000A0B02F00702027043
S315200066400A0A02F001024270CA0C02F00102027329
S31520006650CA0D090E01F0030102F00102012942735D
S3152000666041F2883206D002D3032908D005D344F656
S31520006670206105E042F2107102E0114600E0194661
S3152000668041602168C1F3005101B11A468260284653
S3152000669009F002FD05F1B40428B900F012F820B97A
S315200066A000F004F800E00021217376BD009A14233F
S315200066B0C8495A4311446268CA6022688A60012127
S315200066C0704769464FF4907000F0E6BC2DE9F84F0C
S315200066D000F092F810B942F2DD7038E0600A650ADF
S315200066E0A4EB40290EE00AEB090000F1DC015A4632
S315200066F04046FCF787FCD94400F078F824BFA9F57A
S3152000670000796D1C17B3707880B1706885420DD3FF
S31520006710411C8D420AD2A4EB402907EB0900B0F5B3
S31520006720007F94BFBB46C9F5007BDCE70020012330
S3152000673070702A460AF1DC01504609F0F1FE002865
S3152000674002BF012070707560E7D000E00020BDE830
S31520006750F28F2DE9F84F00F04FF810B942F2DD70B4
S3152000676042E0600A650AA4EB402912E00AEB090020
S315200067704FF437735A4641461844D944FCF742FC35
S31520006780F06800F033F85844F06024BFA9F500798A
S315200067906D1C47B3307A90B13069A8420CD1411CA8
S315200067A08D4209D2A4EB4029F068484512D000F06A
S315200067B098F80028EED017E000F093F8A0B9B9F1C8
S315200067C0000F18BF42F2DE700ED10020F0600120CB
S315200067D03561307207EB0900B0F5007F94BFBB46E8
S315200067E0C9F5007BC2E70020BDE8F28FB9F5007F2E
S315200067F0A7EB0B07D8447047DFF8CCA104460AF173
S31520006800C0060F463078904670476F49002091F8B1
S31520006810C810002918BF00F064B870476E480021E0
S31520006820C17101700020704770B50446664E96F817
S31520006830C0000D4610B942F2DD7070BD304609F039
S3152000684067FE10B142F2E07070BD55B12819610A99
S31520006850401EC1EB5020421C3046BDE8704009F076
S31520006860ACBE70BD38B5584C04F1B405287B10B9C0
S3152000687042F2DD7032BD204609F04AFE10B142F2E6
S31520006880E07032BD28686968A1FB002320460021FC
S31520006890520A42EAC352BDE8384009F08EBEF1B131
S315200068A04E4A30B101280DD002280DD0052814D02B
S315200068B015E0107B002814BF002042F2DD7008602E
S315200068C0002070470020FAE710685268A2FB0023D8
S315200068D0920A42EA83520A60F2E75068EFE7042000
S315200068E07047F8B5384C204609F012FE10B142F236
S315200068F0E070F2BD04F1CC0504F1AA0628684FF039
S31520006900FF37B0F5007F0CD031784FF43773C907C5
S31520006910C0F50071204418444CBF3A46002204F0CA
S315200069203BF80020B0773078C007686858BF00274A
S315200069303A46012100F021F810B942F2DB70F2BD8F
S315200069404FF437706A68261801233146204609F02D
S315200069500BFE88B96A6804F1DC0701233946204614
S3152000696009F0DEFD40B94FF400723946304604F096
S3152000697047F808B142F2DF70F2BD2DE9F843DFF89F
S31520006980488004460E46154608F1DC0900E0F61B51
S31520006990B6B1022E2246494640462CBF012737462D
S315200069A03B4609F0BDFD48B9494600E0001DB0EB65
S315200069B0472FECD251F8042BAA42F7D0002000E052
S315200069C00120BDE8F2830000BCB5202000002C4049
S315200069D024EB0080D08020207DB6202070B6202099
S315200069E0416882688A4209D2891A826641600FF21A
S315200069F0AD210160012181600020704742F278704C
S31520006A0070470FF2050113E0416ADFF828344A89FE
S31520006A108282CA68921E42604A689A4202D1097AE4
S31520006A20022902DB42F2757070470FF20D0100BF9A
S31520006A300160002070470000416A43684A6882610D
S31520006A400A68D21E9A42826002D342F2767070475A
S31520006A500989002908BFFFF7C3BF42F27770704744
S31520006A60F8B50446DFF8D063B4F85A00376804F165
S31520006A705C0500F053F869682868B847A0B9306803
S31520006A800069804780B9616A102204F11C0004F075
S31520006A9067FC00F03EF80098A968884200D045E0DF
S31520006AA00FF2F91020600020F2BDF8B5044610223E
S31520006AB0616A04F11C00DFF8806304F15C0504F0D0
S31520006AC04FFCB4F85A00376800F028F828681021DF
S31520006AD0B847E8B928681030286068681038112847
S31520006AE0686028BFDFF8540310D210B1DFF85003D6
S31520006AF00CE030680069804750B900F00AF8009829
S31520006B00A968884200D011E00FF291102060002081
S31520006B10F2BD694604F11C0004F038BC626A010625
S31520006B20090F000ABF6840EA0123704742F27A70D3
S31520006B30F2BD10B5044604F11C0004F00BFC206ED7
S31520006B4011282CBFBD48BE48F7E0BB4B426E1B68E0
S31520006B50016EC06DDB681847B0F85A2011060B0F7E
S31520006B60110AD20741EA03214CBF08230423042932
S31520006B7001D00420704700F16002C16DB14800F0D9
S31520006B80B2BC70B5044642F27F76E56D284600F029
S31520006B9063FB80B1606E04F11801A8470646012EFA
S31520006BA003D12046BDE870401AE7022E03D100F03B
S31520006BB0BDF8002070BD304670BD10B500F15C01F7
S31520006BC0031D1C684A685A60944202D242F27670CB
S31520006BD010BD0C7AE40707D509685C69A14203D188
S31520006BE012B19A60002010BD90F85A10C90702D53C
S31520006BF042F27C7010BDBDE81040F1E6B0F85A2094
S31520006C00910717D411060B0F110AD20714D541EAA2
S31520006C10032008380AD0401E04D0F73808D0401E7A
S31520006C2002D007E0FDF75DB8FDF750BCFEF788B847
S31520006C30FEF778BB042070475C3041EA03227E4B86
S31520006C4041681B6800689B69184710B582B00446E6
S31520006C50B4F85A000106090F000A40EA0120092863
S31520006C6003D1E06DFCF739FE16BD082803D1E06D8F
S31520006C70FDF732FF16BD01290ED1694600F00CFA48
S31520006C8058B9009A6C4914238968E06D5A43114417
S31520006C9009690969884716BD042016BD70B50446E2
S31520006CA004F15806616A304610225A25FCF7BAF9D3
S31520006CB001202118401C91F858106D181028F8D37F
S31520006CC0307805F0FF01884202D042F2797070BD1B
S31520006CD0717842F212700A2925D8DFE801F01A06E7
S31520006CE00A0E26121A16261C20002046BDE87040E1
S31520006CF063E72046BDE870401BE72046BDE87040AC
S31520006D0023E72046BDE870403BE72046BDE87040BB
S31520006D1074E7002070BD2046BDE8704095E7204608
S31520006D20BDE8704018E742F27B7070BD10B5464C46
S31520006D3070212046FCF75EFD44482060002010BDEF
S31520006D40F8B504460D4600200026414FAE4217D026
S31520006D503869A91BC0F1100009E079B13B69A25D31
S31520006D60761C401E491EFA543A69521C3A61002884
S31520006D70F3D1386100F005F810B9E7E742F27D70EB
S31520006D80F2BD3149324A4A62CA6800202AB10B69EB
S31520006D90934209D0581C086101E08A6E12B9084650
S31520006DA009680847521E8A667047F8B5224C206843
S31520006DB00069804700283CD1234F97F859000428C2
S31520006DC023D107F15C052E68304600F045FAC8B19C
S31520006DD00020FCF7E3FC97F85A00800710D5686876
S31520006DE06861616860B10A68904222BF4968491C9F
S31520006DF0814201D20420F2BD80F3088880F30988FD
S31520006E00A868B04742F27E70F2BD08280FD1022052
S31520006E10FCF7C4FCBFF34F8F0E480F4A016801F4FC
S31520006E20E06111430160BFF34F8F00BFFDE742F2DF
S31520006E307B70F2BD53544D5010802020AB6A002049
S31520006E40616A002000401F4034B52020036A0020DC
S31520006E50A8B520200CED00E00400FA0570B50D0061
S31520006E60164682B004461A4601D1002076BD100A85
S31520006E7010F00F0002D0012808D017E000F019F812
S31520006E80B0B900F0A5F85B68984776BD6B462046FA
S31520006E9000F0DBF860B90098A74932460369986983
S31520006EA048605B6829462046984776BD42F2D870EE
S31520006EB076BD6A462046A7E0F8B50E001746054679
S31520006EC01A4601D10020F2BD100A10F00F009A4C8C
S31520006ED002D0012816D02BE0284600F0F4F838BB63
S31520006EE06A463146284600F08FF818BB009B3A4682
S31520006EF031462846DB689B689847B0B90099C9682F
S31520006F00096913E06B46284600F09FF890B900986F
S31520006F103A4631460369986960609B6828469847D7
S31520006F2018B900990969496900E000212160F2BD7C
S31520006F3042F2D870F2BD70B50446100A10F00F0068
S31520006F4082B00D4642F2D87602D0012813D025E031
S31520006F50FFF7AFFFF8B90098C0684069A8B1294685
S31520006F60204600F0B0F8C8B9009A29462046D268D3
S31520006F705269904776BD6B46204600F066F850B9B8
S31520006F8000980069C268100001D1662076BD2946A6
S31520006F902046904776BD15B9002076BD304676BD91
S31520006FA070B50D0082B00446164601D1002076BD8C
S31520006FB000F089F810B142F2D87076BD6A462946AB
S31520006FC0FFF778FF18B900F003F8DB68984776BD1D
S31520006FD0009B324629462046DB68704710B5564C42
S31520006FE02068010003D080470021216010BD0020C9
S31520006FF010BD10B5504C6068010003D080470021B9
S31520007000616010BD002010BD70B542F2D873D2B1B8
S315200070104A4C6468146011B915E010341460146881
S315200070208CB12568002D04BF6668002E01D1E66864
S315200070304EB1A84224BF65688542EED30818401E8B
S31520007040854228BF0023184670BDF0B51C0042F2C9
S31520007050D8731FD0394DAD68256011B91AE01435A3
S3152000706025602568B5B12E68002E04BF6F68002FF5
S3152000707007D1AF68002F04BFEF68002F01D12F6919
S3152000708047B1B242EBD1AA68EC6808186243824243
S3152000709028BF00231846F0BD70B50422002309B985
S315200070A0042070BD254CA46801E05B1C143444B157
S315200070B0256835B12669002E03D0A842F5D10B608C
S315200070C00022104670BD0918491E70B500221B4BC0
S315200070D0DC685D6816012469AD5904EBC2047C3472
S315200070E066682468AC4208BFAE4205D0864228BFF7
S315200070F0A14201D3012070BD521C022AE8D30020F0
S3152000710070BD70B50D4D00246E6804E00068010066
S3152000711018BF80471036F0680028F7D1AD6805E023
S315200071200068010001D080470446143528690028EC
S31520007130F6D1204670BD000090AC20201080202083
S31520007140012200E0491E21B110F8013BFF2BF9D0A6
S315200071500022104670470000F0B5044604260D466E
S31520007160002CA3B018BF002D56D03821284606F093
S3152000717025F83820A8704320E870812028706620E2
S315200071802871552068711020A8710020E8710EA87A
S3152000719009F062FA06003FD10020214F8DF83B000E
S315200071A00EA9384609F010FC060035D1102205F14B
S315200071B00801384609F038FC06002DD10D210AA811
S315200071C0FCF718FB06A809F081FC05F108018022CE
S315200071D006A809F08FFC10200294059005F12800DE
S315200071E0049005F118000390002001900D230090D3
S315200071F00AAA102106A809F04CFF0A49802206A8EF
S3152000720009F078FC102005F10803009005F108022A
S31520007210012106A809F0B7FD304623B0F0BD00BF16
S3152000722000C00C40AB89DCFE38B504460D46002074
S31520007230FCF7B4FA774800210560774A446011606C
S31520007240016881F3088881F3098840688047002017
S31520007250BDE83240FCF7A2BA002810B582B01EBFA6
S3152000726010F1010F6D49884201D1002016BD6A46F2
S3152000727002210024FFF7C8FE20B90098007AC00733
S3152000728048BF0124204616BD654A0021526800E009
S315200072901032D36863B1137A03F01103112BF7D19F
S315200072A013688342F4D253685B1C8342F0D30121D6
S315200072B0084670472DE9FC47DFF86481594DD8F818
S315200072C00C002E46006900F18C0709E0397C01424A
S315200072D005D0F26870695268816930469047183641
S315200072E030680028F2D10024A146CDE900494FF4A8
S315200072F07A70FBF7F7FA06468A4600F0F4FBA8BB3D
S31520007300FFF7AAFF90B3D8F80C00006990F8AA00FE
S31520007310C00703D400210020FFF786FF788A4FF6A6
S31520007320FF71884208BF41F28830A6FB00230AFB82
S315200073300033CDE90023FBF7CBFA04468946DDE985
S3152000734000010022914208BF90420FD0FBF7C0FAFD
S31520007350001B61EB0901DDE90023994206D301D820
S31520007360904203D300210020FFF75EFF2E4600E067
S31520007370183630680028E2D0397C0142F8D0F1680E
S315200073803046096888470028F2D0002ED7D009E079
S31520007390397C014218BFAE4203D0E9682846896885
S315200073A08847183528680028F2D13046BDE8F68788
S315200073B038B500F04FF800F0CAFB194CE0680068B9
S315200073C080470020FBF77EFBFBF754FA2068006815
S315200073D08047E06840688047FFF76CFF20620169BC
S315200073E019B109680A0018BF8847206A416919B18E
S315200073F009680A0018BF8847206900688047256AFF
S31520007400206940688047E868C1680800F8D02846A7
S315200074108847F5E7E09E202008ED00E07D24002047
S31520007420108020204426002070470000016070470D
S3152000743072B60168491C016062B601680029FCD158
S315200074400120704772B60168491E00E000210160E4
S3152000745062B6704772B600200949086062B6704766
S3152000746072B607480168491C0160704704480168E4
S31520007470022900D2EAE70168491E01607047000030
S315200074806CAB20202DE9F041FBF7E0FB0446DFF84A
S31520007490DC811122404600210023E2FB0401424602
S315200074A0734D002709F026FE401E4600686042F212
S315200074B0107270480021E2FB04014246002309F0C5
S315200074C019FE3018401CA8602520E0FB0487674A77
S315200074D000234046394609F00DFE3018401CE8606E
S315200074E00020BDE8F081002B2DE9F04104460D4631
S315200074F090464AD0042B02D1A809800101D004204D
S3152000750044E05B4F387830B92046FFF7BBFF0028B0
S315200075103CD10120387000F06EF8002836D14FF4A7
S315200075200076A6602069000C000420612069796835
S31520007530BA68090301F47041C2F30B0211430843F0
S315200075404D4920614D48A06005F03F000843642165
S315200075506060D8F80000206200F04EF8B0B92068CC
S31520007560800548BF44F6E96010D46421204600F027
S3152000757045F850B9A660204600F065F84FF48060C3
S3152000758064216060204600F039F80020BDE8F081D3
S31520007590F8B504460D4616465BB3042B02D1A8095E
S315200075A0800101D00420F2BD314F387828B9204619
S315200075B0FFF768FFF0B90120387000F01CF8C8B951
S315200075C04FF40070A060204600F03DF83F20642173
S315200075D0A06005F03F0060600120206300F00CF8F9
S315200075E040B92068800502D544F6E860F2BD206CDB
S315200075F030600020F2BD64212046FFE72DE9F047E8
S3152000760082460E464FF47A700027FBF76BF9A0FBF3
S31520007610068901FB0699FBF75BF904460D46DAF865
S315200076200000C0050CD5002EF9D0FBF751F9001B40
S31520007630A9414945F3D301D84045F0D344F6EB6739
S315200076403846BDE8F08701696FF3153101610849B5
S3152000765002694B68C9681B0303F47043090401F4EB
S315200076607C111943114301617047000000CA9A3BFF
S315200076705CAB20200065CD1D0000773E3F00FFFF5C
S3152000768080B51B481B4908601B491C48421A1C48E8
S3152000769088421CBF002AFBF7B5FC1A481A49091A6A
S315200076A018BF05F08BFD19481949091A18BF05F0AE
S315200076B085FD18491848421A04D01848BDE80840E4
S315200076C0FBF7A0BC01BD16484FF0FF3101604160B9
S315200076D08160C160016141618161C16111480160C0
S315200076E041608160C160016141618161C161704712
S315200076F00020002008ED00E0F8560120D05E012091
S315200077000080202000882020643E2120643E212005
S3152000771040402120B05F0120B05F01204040212061
S3152000772080E100E080E200E000F01F02DFF84C3448
S31520007730000A914003EB800010B5032494400368AF
S31520007740A3431943016010BD2DE9F84F8A4641F243
S31520007750F10B5046D946DFF828845D460AF15007DA
S3152000776002F033F930B1D7F81090D7F81C80D7F84B
S3152000777014B0BD6939687868DFF80844DFF8086412
S31520007780002908BF002830D018B106203060C4F880
S315200077900090386818B101203063C4F83090112069
S315200077A070630120C4F834B0B063A563F063E56369
S315200077B030642564706465649AF84500082802D10F
S315200077C0012000F036F89AF80C00032818BF01288B
S315200077D003D11120F062C4F82C80504602F0FCF848
S315200077E018B10120B062C4F828B0B968F868002939
S315200077F008BF00281BD018B106207060C4F804907A
S31520007800B86818B10420B062C4F810901120B06294
S315200078100120C4F828B000F00CF89AF80C000328D0
S3152000782018BF012803D114207061C4F81480BDE864
S31520007830F18F7062656230622562F061E561B06148
S31520007840A5617047F0B5DFF8442300231360DFF805
S31520007850403341F2F10400251C6000F10807556011
S31520007860DFF830635C6095609C60D560DC601561F4
S315200078701C6155615C6195619C61D561C64DDC6179
S3152000788097F800C0BCF1000F07D0BCF1010F04BF70
S3152000789097F819C0BCF1100F19D14FF0000CC2F89F
S315200078A078C09C67C2F87CC0DC67C6F800C02C6034
S315200078B0C6F804C06C60C6F808C0AC60C6F80CC038
S315200078C0EC60C6F810C02C61C6F814C06C614FF08D
S315200078D0000C2830C2F84CC0DC64C2F850C01C65CD
S315200078E0C2F858C09C653F78E7B9C2F854C05C65B9
S315200078F0C2F824C05C62C2F828C09C62C2F82CC0C0
S31520007900DC62C2F830C01C63C2F834C05C63C2F8C3
S3152000791038C09C63C2F83CC0DC63C2F840C01C641B
S3152000792001780AE0012F08D1C6F820C04FF2F101F4
S315200079302962C2F848C09C64017AC9B2491E03294B
S315200079409648974F13D8DFE801F002060A0E062163
S3152000795039600460F0BD062179604460F0BD0621DF
S31520007960B9608460F0BD002050645C64F0BD0020E6
S3152000797070626C62F0BD0000401E0328894913D84E
S31520007980DFE800F002060A0E086840F003000AE06D
S31520007990086840F00C0006E0086840F0300002E07D
S315200079A0086840F0C000086070470000401E0328A9
S315200079B07D491AD8DFE800F0020D0F120D200123B1
S315200079C0002A0A6803FA00F014BF22EA00001043D6
S315200079D007E00620F3E703207449F0E70020744906
S315200079E0EDE708600020FAF786BF70477148724BB2
S315200079F00268B3FBF1F1491E890622F0E05201F03C
S31520007A00E05111430160704730B500786B495D4CF9
S31520007A105D4D654B45F20902401E032860D8DFE81C
S31520007A2000F002172D46042028602260E86001201D
S31520007A30E26008600420A8600520A2606860626099
S31520007A40586840F400505860186840F4005013E01D
S31520007A50042068636263E8630020E263086104200F
S31520007A60A8630520A26328632263586840F040007B
S31520007A705860186840F04000186030BD5048072311
S31520007A800360504B1A600724846000249A600C62BD
S31520007A900721416005215A60C1604448DA60416887
S31520007AA041F008014160016841F0080117E03C48B7
S31520007AB00323C360394BDA600324446000245A60F0
S31520007AC00C630321816005219A60016038481A60A1
S31520007AD0416841F001014160016841F00101016006
S31520007AE030BD39487047002070470000FF203749D5
S31520007AF00A680968920902F00302032A13D8DFE80C
S31520007B0002F0020F0F11080910F0030002D001281D
S31520007B1002D003E0012070471020704720207047D4
S31520007B200820704702207047042168B100F10C013B
S31520007B300A78032A07D191F8341049064CBF0F2141
S31520007B401E21A0F8781000210846704770470321AF
S31520007B5000E000214FF4C060E6E51D4908600020E2
S31520007B6070471B4909680160002070471948016861
S31520007B70006A10F0020018BF0120704768C00F404D
S31520007B80F1300100AC831F40BC811F4014801F4090
S31520007B9004821F4094801F4084821F402C831F40F4
S31520007BA03C811F406CC00F4000001C4000801B40E1
S31520007BB000C01B4018C00F40E0C8B60EF4841F401A
S31520007BC0BC801F40AC821F40002D310104800F4035
S31520007BD028800F4040441F4062F30F2262F31F4269
S31520007BE000B500BF130096469446103928BFA0E87A
S31520007BF00C50FAD85FEA417C28BF0CC048BF40F839
S31520007C00042BC90728BF20F8022B48BF00F8012BF8
S31520007C1000BD000070B50446042584B32068010F1A
S31520007C200B292CD1C0F30361012928D039BBC0F31D
S31520007C3003161EB1022E05D002D306E0802606E0EA
S31520007C40C02604E04FF4807601E0802E17D36068CA
S31520007C50F608FFF701FB90B160683018FFF7FCFAD1
S31520007C6068B1164D102068606168324605F10C0037
S31520007C70FBF7C8F94FF400702E60A860002528464F
S31520007C8070BD70B5044604200D46002C18BF002D8B
S31520007C9012D00A4E4FF4007106F12C00FBF7AAFD14
S31520007CA006F12C0106F10C00FFF756FA20B906F171
S31520007CB02C012160B168296070BD0000B49C202091
S31520007CC070B504460D4602F0F5F806000AD10123E8
S31520007CD005F18002002100F007FA687C012804BF24
S31520007CE000202874304670BD10B504468AB00020A6
S31520007CF08DF810208DF800000F20029001200390AF
S31520007D000F2001EB0010019300F021F801206946B5
S31520007D100290204600F03DBFF0B589B004460D46DE
S31520007D2017461E4600F01AF878B98DF800000E2086
S31520007D300290012003900E2005EB00108DF81070A4
S31520007D40019600F004F800F012F909B0F0BD012305
S31520007D50012100F18002204602F073B92DE9F0439B
S31520007D60044685B00D4616461F4604206DB34FF4D3
S31520007D70E67005EB000898F8010018B12046FFF7D9
S31520007D80B3FF10BB98F8000005F1B00902280ED108
S31520007D906846B9E80E10A0E80E1005F1C000A9F15A
S31520007DA01009B0E80E10A9E80E10A9F110093B46FB
S31520007DB032462946204601F09CFF98F800100229F9
S31520007DC003D169463CC9A9E83C0005B0BDE8F0836B
S31520007DD0F0B50C4685B00421ECB194F8CC1104F131
S31520007DE0900502290CD16946B5E8C050A1E8C050DB
S31520007DF004F1A001103DB1E8C050A5E8C050103DE7
S31520007E00214602F05AFA014694F8CC01022802D102
S31520007E1068465CC85CC5084605B0F0BD2DE9F04350
S31520007E200D0083B0814616464ED0022E4CD24FF41A
S31520007E30E4702F183878002846D005F140042068D1
S31520007E40800900F00108484602F025FA39786EB913
S31520007E50080007D042464846FAF7F9FE2946484622
S31520007E6001F0D6FDB87988B101210CE041B1A179A4
S31520007E7042464846FAF7EBFE2946484601F0C8FD39
S31520007E80B87918B10021484602F0ACFA6A460221B8
S31520007E904846FAF735FFB8F1000F02D0009840089F
S31520007EA0009001AA00214846FAF72AFF0198009976
S31520007EB0B0FBF1F0401C0A214843800800E000BFD7
S31520007EC00146481E0029FAD1BDE8F7832DE9F04383
S31520007ED004460D4689B016461F4600F0E6F8804651
S31520007EE000F04AF93346424600F0F4F85FEA00090A
S31520007EF033D1022000F03AF9092002904FF4C870DD
S31520007F0095F84710284400291CBF0178002903D082
S31520007F1041780291017803910196039B8DF8108098
S31520007F2001210597006B0690029805EB001000F0E2
S31520007F30D9F800F01CF85FEA00090ED13346424614
S31520007F4000F0C3F85FEA000907D195F8CF0120B108
S31520007F503346424600F0B4F88146204602F0A4F9A2
S31520007F60012200F00AF9484609B0BDE8F083012055
S31520007F7069460290204602F0A5B82DE9F0478046D2
S31520007F8001208AB0002603900B2089468DF80060D8
S31520007F90029000278DF8106099F8470000281FBF2F
S31520007FA04FF4CA7048440178002900F081F800F0A7
S31520007FB043F809F1500AFFF731FF04245AF8045B0D
S31520007FC085B100F038F8FFF7C9FE07000DD10298F9
S31520007FD0039B09EB0010019600F032F800F071FACD
S31520007FE0070002D1AE19641EE8D1C7B9002609F1EF
S31520007FF0500A04245AF8045B75B100F01CF8FFF708
S31520008000E7FE07000BD199F8CF0128B100F013F84D
S31520008010FFF782FE070002D1AE19641EEAD1404660
S3152000802002F042F9012249464046FFF7F7FE38465C
S315200080300AB0BDE8F08733460022494640467047DD
S31520008040012100F18002404601F0FBBF2DE9F041FD
S3152000805004460D468AB000F027F800F08CF800F0B0
S3152000806037F85FEA00081ED100F080F8052000F0FE
S3152000807075F81FBF4FF4C67028180178002900F044
S3152000808017F800F02AF8FFF772FF5FEA00080AD116
S3152000809000F019F85FEA000805D195F8CF0110B174
S315200080A000F00CF880464FE01646284601F086BCC4
S315200080B003D04178029100780390704733463A46C0
S315200080C02946204628E633463A46294620467FE674
S315200080D033463A462946204640E60298039B05EB5E
S315200080E00010012100F18002204601F0AABF2DE9EF
S315200080F0F04104460D468AB0FFF7D6FF00F03BF864
S31520008100FFF7E6FF5FEA00081ED100F02FF80820EF
S3152000811000F024F81FBF4FF4CE70281801780029EC
S31520008120FFF7C6FFFFF7D9FFFFF721FF5FEA000839
S315200081300AD1FFF7C8FF5FEA000805D195F8CF01FD
S3152000814010B1FFF7BBFF8046204602F0ADF80122B2
S3152000815000F013F840460AB0BDE8F081019602907F
S315200081608DF8107095F84700002870478DF80000AC
S3152000817001200390704707460022294620464DE6F7
S31520008180F0B5044689B00D4617461E46042087B131
S3152000819024216846FBF72EFB032007978DF8000065
S315200081A0012002906946039020460896019501F029
S315200081B089FF09B0F0BD00002DE9F0410D461E46AD
S315200081C08EB00446002101A8002300278C46A0E893
S315200081D08A10106805F1100740281DD30120387039
S315200081E0D06B000D00F00700401E04286FD8DFE892
S315200081F000F003080D0303004FF00208DFF8FC0B24
S3152000820008E04FF00108DFF8F80B03E04FF0030811
S31520008210DFF8F00B019005E03068C0F30328B8F1D1
S31520008220000F3FD0032000918DF814000120069105
S3152000823001238DF8241001AA0D90012107900890A2
S315200082402046CDF830D001F0FCFE05A9FFF792FEBE
S3152000825048BB3068C0F3036000281FBF7068C0F3B6
S315200082600720002800900120B8F1010F387005D0B2
S315200082702DD3B8F1030F22D018D328E0DFF8880BCE
S31520008280C5F8C000009800F0C30040F04000009000
S31520008290387838B101203871042078710098B86098
S315200082A00120787000200EB0BDE8F081DFF85C0B6D
S315200082B0C5F8C0000098000240F40070E7E7DFF838
S315200082C0500BC5F8C000009840F08000DFE7002082
S315200082D03870E7E770B5054600208EB00C46009052
S315200082E00AA800210022002300264EC00320029166
S315200082F08DF8040001200990012303900AAA049016
S31520008300DFF8E40D8DF8141001210A902846CDF8E7
S3152000831020D001F096FE01A9284601F0D3FEE0B94F
S315200083200099012201F0F701009104F110010A7071
S31520008330009A120402F47F0242F0042242F08102E3
S31520008340C4F8602101220A710E224A71009A8A60BD
S3152000835004224A70012184F8CF110EB070BD2DE998
S31520008360F043804695B04FF400700E4601900020F1
S315200083708DF81000154602900120039036B311A8FF
S315200083800FF224111022FAF74DFE0320012300F0EC
S31520008390A0F806F180020121FFF755FE00F091F8C2
S315200083A0A0B9099810F1010F02BF09A8416811F17F
S315200083B0010F07D1816811F1010F04BFC06810F1C8
S315200083C0010F09D000F078F8002832D044F68E69E3
S315200083D0484615B0BDE8F0830023002231464046CA
S315200083E0FFF7BCFC0028F1D10920039B0290022054
S315200083F08DF8000011A8059010200690029806EB33
S315200084000010FFF71DFE00F05CF80028DED10023E7
S3152000841000223146404601F050FF0028D6D100F018
S3152000842056F800F0A1FB0028D0D100F045F800282E
S31520008430CCD156F8400F012202273224B17940F0E0
S31520008440400030604046FAF702FC00E07F1C641EC4
S31520008450BCD000210DA8002200238C46A0E80E10D7
S315200084603069DFF8881C0DAAB0F1807F8CBFDFF859
S31520008470800CDFF8800C0D9007F0FF0008430123E5
S315200084800E90002100F06DFB0020694600F01FF8D9
S3152000849000F06BFB5FEA000998D100F00DF8002888
S315200084A0D4D12F6094E7000000112233445566771B
S315200084B08899AABBCCDDEEFF102209A911A802F0EB
S315200084C09FBA012069460290404601F0FBBD02900A
S315200084D003208DF8000009A8079010200890704707
S315200084E02DE9F0438D6801244FF48076002D47BF97
S315200084F0ED1E04FA05F56D1CED0805650D68402D89
S3152000850008D3CD6AC5F3031504FA05F5B5F5004F72
S3152000851018BF2E464FF4E07505442E606FF07F4C51
S315200085204FF0000E002701EB470999F82090B9F18A
S31520008530000F0BD004FA09F9E1453CBFCC463E4674
S31520008540CE453EBFB9F5801FCE46B8467F1C042FC8
S31520008550E9D3F445C5F804C0C5F810E018BF0024D7
S315200085606C72006D01EB480401EB4605B0F1807F8B
S3152000857021D991F8440040B1881990F84C00106038
S3152000858001EB080090F84C001AE095F8210020280D
S3152000859002D0D82802D003E0212000E0DC201060A1
S315200085A094F82100202802D0D82802D009E02120E2
S315200085B006E0DC2004E095F82100106094F8210004
S315200085C018600020BDE8F0832DE9FB4F84B01868C1
S315200085D0002514464FF00409C0F30350012802BFBA
S315200085E06068C0F3C045002D00F0528101F10C00F7
S315200085F002AB01900199002003AA4FF018080870D9
S3152000860006980599007800F00F0081F846000020B2
S3152000861000908346824605982146FFF761FF05981C
S3152000862000F150073868B0F1807F0698006888BF4F
S315200086304FF02008C0F30330002807D1069B059988
S3152000864004982246FFF7B8FD5FEA000940F0208132
S315200086506068C0F3405139B1E0684FF0020AC0F3B8
S31520008660421B00F01F0008E0C0F3805030B1E068E4
S31520008670410D01F0070BC0F304400090059842F22B
S315200086800401D030B8F1200F1AD194F84420A2B1B9
S3152000869004F14402536842F20422C3F3002CBCF1D5
S315200086A0000F18BFDFF8281C04D1C3F3C01323B171
S315200086B0DFF8201C0164426406E0DFF81C2C01E090
S315200086C0DFF8182C02644164019A0121117040F2EE
S315200086D006413966DFF8081C3964039900F010F961
S315200086E00160029900F00CF901634FF48C61016678
S315200086F006980068C0F3036060B1069949680A06C7
S3152000870008D001F0FF004FF0000B0090FDB14000B3
S3152000871000901CE0DDB1012819DAB8F1200F05D14F
S31520008720DFF8C00B3863DFF8C00B7863059904982F
S31520008730FFF7C6FA5FEA00095DD1059904986A46F3
S31520008740FFF70DFE5FEA000955D14FF0000BB8F197
S31520008750180F17D13DB1ED2600F0DBF846EA0840A8
S3152000876040F00A403AE06068C0F3405111B1E06839
S31520008770060A2CE0C0F3805010B1E068060E26E011
S31520008780032621E04FF0020A0DB1EE26E4E794F825
S31520008790440070B104F144004068C0F3401109B1AF
S315200087A0EC2614E0C0F3001088B16C264FF0000AC6
S315200087B00DE06068C0F340510029F1D1C0F380502C
S315200087C008B16C2603E0132600904FF0000BF6B29A
S315200087D046EA084040EA0A6040F0006040F48060C3
S315200087E038630599002001F2CD1606990968C1F370
S315200087F0031141B101294BD12168402903D3E16BF3
S31520008800C1F340221AB900985844009033E0090C6D
S3152000881011F0050F18BFA5200BD1890709D5069B96
S31520008820059904982246FFF755FD5FEA00092FD1E6
S315200088300120E16B059A4FF4B873890A11F00A0FEB
S315200088401A4409D0B8F1200F6FF0F9211160516058
S315200088500CD140F2FF6108E011F0110F18D04FF053
S31520008860062111605160DFF8841A91600121BBF165
S31520008870000F31701BD1009898B100F0FF005DB158
S31520008880DFF86818084378630120707000F041F81B
S31520008890484607B0BDE8F08FDFF8541A08437863DE
S315200088A0F6E7002D42F204407863EDD1F0E7009917
S315200088B0090401F47F018DB1BBF1010F06BF262308
S315200088C00009272340EA8320084340F0324040F441
S315200088D000707863DFF8800CB863D5E7BBF1010F31
S315200088E006BF06230009072340EA8320084340F0F9
S315200088F0485040F400707863DFF8180DB863C7E776
S3152000890001F0FF0141EA084141F0006141F4806134
S31520008910704701980199406B40F0400048637047CA
S315200089202DE9F04F97B00D469346824608236A46B6
S315200089300021FFF725FC5FEA00085BD10098DFF8ED
S31520008940D81C884218BF44F68B6853D19DF8060080
S3152000895002AA471C0B2F28BF0A2708215FEA0B0013
S31520008960504618BF4FF40061FB00FFF709FC5FEA91
S3152000897000083FD150212846FAF73CFF00244FF645
S31520008980847903E0012085F84400641CBC4231D27E
S3152000899002A800EBC4000178C27901EB0222B2F5ED
S315200089A07F4F18BF4A45F0D100210223C6185B1E0F
S315200089B0367946EA0121F9D5C07886005FEA0B00B0
S315200089C018BF0902B2F57F4F09D133462A1D5046FA
S315200089D0FFF7D6FB5FEA00080CD12E60D5E74A45A3
S315200089E0D3D1334605F148025046FFF7C9FB5FEA6B
S315200089F00008C7D0404617B0BDE8F08F2DE9F04FEC
S31520008A00B1B080460D46164621A80FF21411402219
S31520008A104FF0040BFAF706FB3068C0F3034000283A
S31520008A2079D105F14507DFF8F40B87F800B005F199
S31520008A3050010863DFF8B008486329464046FFF72F
S31520008A403FF95FEA000B66D14FF4B8702C183068F6
S31520008A50C0F3031001280FD16FF0F9200023206006
S31520008A600022606040F2FF60A06029464046FFF782
S31520008A703BF95FEA000B4ED1316821A80123C1F3EF
S31520008A80034100EB011200F06BF800220DA94046CD
S31520008A90FFF746FF5FEA000B3DD103206946FFF74B
S31520008AA065FB002002908DF81000019009A8079020
S31520008AB01020089000F059F85FEA000B2BD1099896
S31520008AC0DFF8709D48451FD14FF4007A0795CDF801
S31520008AD020A000F049F85FEA000B1CD1206D10F1B0
S31520008AE0010F1CBF606D10F1010F14D151462846AD
S31520008AF0FAF780FEC5F80090DFF83C0D686001208B
S31520008B0078704FF08070286533460DAA2946404676
S31520008B10FFF75AFD8346584631B0BDE8F08F000076
S31520008B205A0418080830FF24000000000000000046
S31520008B305A0518090831FF25000000000000000032
S31520008B405A06180A0832FF2600000000000000001E
S31520008B5000000000000000000000000000000000EF
S31520008B600121404601F06DBA6946404601F0AABA95
S31520008B7010B58AB003248DF80040490000240191E5
S31520008B800294002101248DF810100394694607925F
S31520008B90089301F097FA0AB010BD10B549008AB0C3
S31520008BA0022401918DF80040002101248DF8101037
S31520008BB002946946039405920693EAE72DE9F04765
S31520008BC004460D4688B005F10C0003210823C17028
S31520008BD005F145010B7058234363032303701AB133
S31520008BE0426B42F001024263012005F15006887073
S31520008BF00F20B0850120F0854FF4C2702F184FF456
S31520008C000070F8634FF48020386405F2C918C5F85F
S31520008C10D001012088F8000029462046FFF750F8A9
S31520008C20002861D100F0F6F80DF10C0AA0E80E102C
S31520008C30DFF8080C01230390DFF8040CCAF80400BF
S31520008C4003AA0121204601F0FCF900F0E3F8DFF841
S31520008C50F49BA0E80E10DFF8F00BCDF80C90CAF8C4
S31520008C600400012303AA204601F0EBF94FF4184033
S31520008C700223029002AA40F255512046FFF78DFFAB
S31520008C80002831D108236A4610212046FFF770FFBD
S31520008C90002829D10098DFF8B42B0199904289B297
S31520008CA0019108BFB1F5B24F40F0A58008236A466E
S31520008CB027212046FFF75CFF002815D10098C0F336
S31520008CC00720009017380A2880F095800099012007
S31520008CD0022302AA8840002130604FF4704002909F
S31520008CE02046FFF75AFF002840F08280DFF860CB4D
S31520008CF0DFF860EBC6F84CC04AF20474DFF8581B64
S31520008D00DFF858CB71634FF08721B463DFF8502B1F
S31520008D10C6F854C0DFF84C3BB465DFF84C4BDFF89F
S31520008D204CCBC6F8309031647264B364C6F8509068
S31520008D30DFF83C9B31667266B366F266316774670C
S31520008D40C6F878C0F46705F1D006C6F84CE0DFF81F
S31520008D5024EBC6F850E0C6F830E0DFF81CEBC6F886
S31520008D605490DFF8189BC6F834E048F2307E316420
S31520008D707264B36431607260B360C6F80C9031617E
S31520008D807261B361F26131627462C6F828C0F4621E
S31520008D90C6F838E031667266B366C6F86C903167FD
S31520008DA07267B367F2674FF4A876A95135442961F3
S31520008DB0DFF8CC1AE96102216C60C5F808C0EC60C6
S31520008DC06A61AB6139710321797102213970012100
S31520008DD079700221397309217973042139720521A9
S31520008DE07972042139740B217974012188F80310D2
S31520008DF008B0BDE8F08744F68D60F9E73504012414
S31520008E00050401243F040124010401200104022059
S31520008E103E040220002103A8002200238C4670472E
S31520008E202DE9F04F99B0074692460E46DAF8000033
S31520008E300FF6D821C0F3035005280CA80CBF4FF01D
S31520008E4001094FF000093022FAF7ECF8DAF80000B1
S31520008E50C0F30334002C18BF032CC0F3034B08D1F6
S31520008E60BBF1000F06F10C0506D0BBF1030F00D1B4
S31520008E70CCB94FF0040A32E16846FEF772FE82460C
S31520008E8000F039FABAF1000F07D16A463146384662
S31520008E9000F037FC5FEA000AEDD100202870102090
S31520008EA0686303200CE00320287010206863DAF83A
S31520008EB00000C0F30350042804BF50206863062036
S31520008EC00B905BEA0400314608BF4FF00109032CE2
S31520008ED00CBF0820012086F845003846FEF7F0FE34
S31520008EE05FEA000AC7D1BBF1000F08BF002004D0FB
S31520008EF0B9F1000F14BF102020200CA90A18012355
S31520008F000121384601F09DF8002003A904908DF830
S31520008F101C0003208DF80C0001200590069001A866
S31520008F200A90384601F0CEF85FEA000A04BF9DF8A1
S31520008F300400C2289FD101A9BBF1000F4FF4803055
S31520008F4006F1500789F001090CBF89784979303933
S31520008F5000FA01F139604FF4E07106EB01084FF495
S31520008F608051D036C8F804104FF48071C8F810002C
S31520008F70C8F80010032028701020BBF1000F68638A
S31520008F8008BF032C38D101204FF00421287102207C
S31520008F9068710120E880062068720120287200206E
S31520008FA08DF800000720B9F1000F8DF80300DFF8D7
S31520008FB0D408DFF8D42808D082238DF80130022384
S31520008FC0EB6032617161B06113E081238DF801306D
S31520008FD00223EB60DFF8B438326173610123B0619C
S31520008FE02B7407236B7501232B756B6232627162BA
S31520008FF0B0620098FEF7B1FD40F206403866B848E8
S315200090003864BCB9DFF888083863DFF888087863E5
S315200090104AF20470B863B048306442F204007064C7
S31520009020DFF874083060DFF8740830634FF48C6022
S31520009030306654E0B9F1000F05D1012102240C223B
S315200090400923082004E0212122242C222923282058
S315200090504FEA816CA4024CEA8121DFF844C844EA35
S31520009060826244EA80604CEA010CC7F830C0DFF81F
S3152000907034C84CEA02027A639A02DFF82C3842F4AA
S3152000908041720B43BA633B67DFF820380B43FA651E
S315200090903B6541F00323DFF818287B65BB650A434F
S315200090A03264DFF810281043DFF80C287064DFF8EC
S315200090B00C0808430A43306044F4487070603263F9
S315200090C07063DFF8FC070843B9F1000F306603D060
S315200090D0686B40F040006863022088F80C00504618
S315200090E019B0BDE8F08F00008504012400B204A663
S315200090F0EE04208AED04188A2DE9F0439FB00F462E
S315200091000646154617A80FF63401202207F10C044F
S31520009110F9F788FF2868C0F303510729C0F30340F5
S315200091200CBF4FF001094FF0000998B96846FEF7C9
S3152000913018FD00F0DFF8B8F1000F07D16A4639466E
S31520009140304600F0DEFA5FEA000810D100202070D9
S31520009150102002E00320207050206063082087F84A
S31520009160450039463046FEF7ABFD5FEA000874D16C
S315200091702868C0F3034010B9012317AA03E0032887
S315200091806BD101231BAA0121304600F05AFF08208B
S31520009190002287F8450003A93046FFF7C1FB5FEAA6
S315200091A000085AD101AB02AA03A93846FFF798F95D
S315200091B0502040F2064160630320207007F15000E2
S315200091C00166474901644FF4E6712A687E18D03754
S315200091D0DFF8F016C2F30343032B1CBFC2F303329E
S315200091E0032A3ED1DFF8E02641630265DFF8DC265C
S315200091F040F2067102630167DFF8D4063860DFF8B3
S31520009200D40638634FF4EC603866DFF8CC06386451
S315200092104AF2043078642868C0F30340D8B98DF840
S31520009220000006208DF8030082208DF801000098AA
S31520009230FEF793FC0120207102206071E720E06098
S3152000924000F08CF9DFF8940638614FF0042078613D
S3152000925042F20100B8610220307040461FB0BDE8DE
S31520009260F083002AF9D10268029DDFF87446B2F134
S31520009270807F05F0FF0527BF20238E221823C222D8
S3152000928045EA034542EA034225433D60019D42F0FB
S31520009290306242F480623A644FF40E5205F0FF05C4
S315200092A07A6445EA03452C43B9F1000F3C6303D1A8
S315200092B0DFF83026026304E0DFF82C160163DFF8BE
S315200092C02C1641634FF48C6038660120B070C4E7D9
S315200092D03E04200A34042008120420080204180838
S315200092E0050404241304200804240100001E10325F
S315200092F00032042680460020FEF72FBC2DE9F04FD1
S31520009300ABB0814616468B4630680FF250610BF1A2
S315200093100C0444F68D684FF0000AC0F30350092868
S3152000932017A80CBF012500255022F9F77BFE042043
S315200093308BF845003068C0F30347C0F3033610208E
S315200093406063AFB96846FEF70CFCFFF7D3FFB8F1B0
S31520009350000F07D16A465946484600F0D2F95FEA1F
S31520009360000857D101208BF8450084F800A00EE0B4
S31520009370022F02D10320207009E0032F4AD10320B7
S31520009380207008208BF845000DB94FF0010A002EF9
S315200093901CBF022E032E3DD156EA070008BF012529
S315200093A0022E08BF042002D0032E02D108208BF8FB
S315200093B04500606B002D594614BF20F0400040F058
S315200093C0400060634846FEF77BFC5FEA000821D137
S315200093D045B1022F02D0032F02D00CE010200BE063
S315200093E0202009E0022F02D0032F02D003E03020F4
S315200093F002E0402000E0002017A90A1801230121DD
S31520009400484600F01EFE524603A94846FFF788FA52
S315200094105FEA000840F09B8001AB02AA03A95846E8
S31520009420FFF75EF8032040F2064120700BF1800022
S31520009430DFF8BC240163026135B94FF0220A2C22E1
S3152000944029234FF0280E05E04FF0020A0C220923AB
S315200094504FF0080E4FEA062C0CF4407C370607F036
S31520009460407747EA0C09009749EA8A6ADFF884744C
S315200094704CEA822247EA0A070760009F3A43DFF850
S31520009480787442EA836247EA0A07022E42F00412FF
S3152000949042604AF0201242F4806202654FF48072E4
S315200094A05A441760DFF8547447EA0A0717614CEAF2
S315200094B08E271CBF032E002147F0800757614CF4EE
S315200094C08C67176315D149EA8362DFF8343441EAA1
S315200094D00C01016402211A4302628BF8CC1100218F
S315200094E0022E08BF4FF4802103D0032E08BF4FF46D
S315200094F000210DB941F40001E160DFF8081401668E
S3152000950042F2030141660120002E207114BF022081
S315200095100020607100F022F800208DF800003DB197
S31520009520022E08BF41200AD0032E08D1812006E052
S31520009530022E08BF422002D0032E08BF82208DF8BB
S31520009540010008208DF803000098FEF706FB404630
S315200095502BB0BDE8F08F000004A6017C06206072C7
S3152000956001202072E08070472DE9F0410D46042746
S315200095701646002D804618BF002E48D04FF40071A5
S315200095802846FAF737F905F144040120A0704FF078
S315200095908070E060A7482860A74868600320687349
S315200095A0A873012085F8C8013068000D00F00F006F
S315200095B0092822D8DFE800F005050A0C1212171731
S315200095C01C1C00F02DF8FFF719FA15E0012200E027
S315200095D0002229464046FFF7F1FA0DE000F020F878
S315200095E0FFF71EFC08E000F01BF8FFF785FD03E0FF
S315200095F000F016F8FFF782FE074637B92846FEF731
S3152000960093FA307800F00F00A070012020703846C1
S31520009610BDE8F0810426017C534644500304180813
S3152000962032462946404670472DE9F04180460D4690
S3152000963004207DB34FF4E2716E183168494201EA85
S3152000964002079A18524211404C42717909B9F168C1
S3152000965089B9A7421ED200F01FF8002804BF31683E
S31520009660CF19F6D016E03A4629464046FEF73FFD8A
S3152000967080B9F168CF19A7420CD2F068C1430F42D6
S3152000968002D1E11B8142EED200F006F8002808BF85
S315200096903168EFD0BDE8F0813A4629464046FEF7CC
S315200096A0D5BC2DE9F04180460420154600298AB014
S315200096B01E4618BF002D22D0109F07B3084600F083
S315200096C07DF903218DF810008DF8001001210391FA
S315200096D000210291B7F5803F0196079569464046DD
S315200096E02CBF4FF6FF743C46089400F0EBFC30B9D3
S315200096F03F1BA619A108002F05EB8105EAD1FEF72D
S315200097002ABD2DE9F043804616460420002E93B04C
S315200097100D4604D070783178884208BF002000F0CA
S31520009720858005F1450708203870707803244FF0AE
S315200097300109422818BF412802D10420022438708A
S315200097407078822814BF42284FF02109002020215A
S3152000975002908DF814008DF80400012003900AA8C9
S31520009760FAF748F8F27821020AA8062A0DD02ED355
S31520009770082A01D012D32AE040F206420A430A926E
S3152000978040F2FF42114301611FE040F266420A4364
S315200097900A9240F299421143016116E041EA892179
S315200097A0B9F1210F41EA046141EA896141F41902C4
S315200097B041F4CC0142F0660241F099010A9201611E
S315200097C003D1286C40F040002864022000E00120EC
S315200097D004900120787005F150004FF080710160EF
S315200097E0144929601449696003216973A973012109
S315200097F085F8C8110A21416229464046FEF760FADB
S31520009800A0B9049B0AAAFFF7ABF901A9FFF7ADF9A6
S315200098103D494FF47A720968B1FBF2F102E000BFCC
S315200098200099491E009100990029F8D113B0BDE88E
S31520009830F083000046434642000401562087188BD9
S31520009840108F02A3A087188B108F04A700510052F7
S31520009850008770870087A087108F06B3108F0BB7FD
S315200098600087AA8700870587008755870087028794
S31520009870108F80A30087188B108F00870087808722
S3152000988000871087000401207204000400040204EB
S3152000989000042008200B08B321042008DC0420083B
S315200098A0EE031103200306030603F9030503FA0357
S315200098B01203ED0320030403DC0323032103DE0349
S315200098C060039F0306B304A7050704A7FD07208BA3
S315200098D02107208BDC07208B1207208B81040004B4
S315200098E000040008FD04208BFC04200B063304270B
S315200098F0050404240B042000D804200002042000C0
S315200099000504040071040004008620209F0403241B
S315200099100000000000000000000000009F07600714
S31520009920200B042700000000000000009F876087AE
S31520009930208B04A700000000000000005A0418082D
S315200099400830FF2400000000000000005A07208B8A
S31520009950FFA7000000000000000000005A041808BD
S315200099600830FF2400000000000000005A06180AF4
S31520009970FF26000000000000000000005A07180B18
S31520009980FF27000000000000000000005A06188A89
S31520009990FFA6000000000000000000005A07208BF0
S315200099A0FFA700000000000000000000016841F051
S315200099B0010101600168C907FCD4704790F8400096
S315200099C010F0040018BF0120704790F8400010F0F6
S315200099D0200018BF0120704790F8400010F00100C9
S315200099E018BF0120704790F8400010F0080018BFFB
S315200099F00120704790F8400010F0020018BF0120A7
S31520009A00704790F8400010F0400018BF01207047C2
S31520009A102DE9FF4780460C46042600F0D6F80500BF
S31520009A2018BF002C71D0207B04286EDA032802AEE2
S31520009A3003D12046FFF7DEFF10B14FF4807007E018
S31520009A4000F02AF90198DFF86016884203D37920BE
S31520009A500290706038E000274FF47A7904EB4700D3
S31520009A606421B0F87800484319D12046FFF7C9FF92
S31520009A708246524669464046F9F76AF90099DFF868
S31520009A802C06BAF1000FB0FBF1F00CBF400880089D
S31520009A9009FB00F04B21B0FBF1F0411C07E04B2104
S31520009AA04B22B0FBF1F14A43824238BF491C402980
S31520009AB028BF3F21480200F4FC4040F4807046F85D
S31520009AC027007F1C022FC9D32868400800F0010018
S31520009AD090F0010003D0296841F002012960226D2F
S31520009AE005F1C001002A07BF626D002A029A0A60AA
S31520009AF0A26D002A07BFE26D002A72684A6018B17B
S31520009B00286820F0020028600026304604B0BDE810
S31520009B10F08710B50424002818BF002A0FD073B18F
S31520009B20DFF88845B4FBF2F25A43B1FBF2F300E0CA
S31520009B305B1C03FB02F48C42FAD30360002420460C
S31520009B4010BDF0B585B04FF6FF7406460F4601945A
S31520009B50009400F03AF8050014BF002F042029D005
S31520009B6003AA02213046F9F7CBF802AA0121304692
S31520009B70DFF83C65F9F7C4F8039A4FF48063314661
S31520009B8001A8FFF7C6FF029A4FF480633146684664
S31520009B90FFF7BFFF0198B0F5803F28BF01940098DA
S31520009BA0B0F5803F28BF009401980099C1EA004093
S31520009BB06860002005B0F0BDD0F8E010C907FBD5DD
S31520009BC0D0F8E0108907FBD57047002108B9DFF8E7
S31520009BD0E414084670472DE9F04F804683B00020F4
S31520009BE00D46009040460427FFF7EFFF5FEA000985
S31520009BF018BF002D4DD005F15007002405F10D06A4
S31520009C0057F8040B09EB840A800ACAF860003178F9
S31520009C107078490101F4787100F01F000843B1788B
S31520009C20C90201F4F04141EA000B2846FFF7DBFEAA
S31520009C3008B14BF4806B686F50B100F02DF8019A93
S31520009C40696F01236846FFF764FF00984BEA004BD3
S31520009C50CAF870B095F8470000281EBF95F8900105
S31520009C60410111F0E00F0CD04FF4C8712944497816
S31520009C70401E400300F46040090201F4706108436D
S31520009C8001E04FF41060641C042CCAF88000B7D39E
S31520009C9000273846BDE8FE8F01AA02214046F9F783
S31520009CA02FB838B504460420002C18BF00291FD031
S31520009CB091F8440001280BD1E0684008400040F0AC
S31520009CC040050846FFF77AFE08B145F00105E56034
S31520009CD0E068DFF8E43340F02000E060002004EB89
S31520009CE08001401C0A6A1A4003280A62F7D3002022
S31520009CF032BD10B504468AB00420F9B100208DF893
S31520009D0010208DF80000012003900320029001937B
S31520009D1091F8470000281FBF4FF4C4700818027836
S31520009D20002A03D042780292007803900298039B7F
S31520009D3001EB001000F053F800F04CF80AB010BD0B
S31520009D40F0B589B004460D4616460427FFF73DFFB9
S31520009D50002818BF002D3AD0D0F80002C0F3012009
S31520009D6020B1687C022808BF002730D00120019648
S31520009D708DF80000687D334600220290287D0697E4
S31520009D802946039000208DF8100005F11800059053
S31520009D902046FFF7AEFF0298039B05EB001000F06C
S31520009DA01EF800F017F8070011D1688A01000CD1BF
S31520009DB0697C022918BF032907D033460022294689
S31520009DC0204600F07AFA074601E000F06EF83846A1
S31520009DD009B0F0BD012069460290204672E10121BA
S31520009DE000F1800220462CE12DE9F0478AB080461A
S31520009DF00D4691460426FFF7E8FE5FEA000A18BFE3
S31520009E00002D4ED00120CDF804908DF800000020C2
S31520009E108DF810000024069605EB840000F1200141
S31520009E204A7813003AD0DAF800322F19C3F3012307
S31520009E3013B17B7F022B31D00292097830304B460A
S31520009E4003910022059029464046FFF752FF06005F
S31520009E5027D10298039B05EB0010012100F1800217
S31520009E60404600F0EEF8012069460290404600F098
S31520009E7029F9060015D1688A01000DD1797F0229BA
S31520009E8018BF032908D04B4600222946404600F039
S31520009E9014FA060002D004E000F007F8641C032C34
S31520009EA0BAD330460AB0BDE8F08764214843002182
S31520009EB0F8F7F8BF2DE9F84F80460E460424FFF741
S31520009EC084FE070018BF002E00F0AC80307C0028EE
S31520009ED004BF307F00280AD096F84000C00604D47C
S31520009EE03046FFF78EFD050002D0012500E0002553
S31520009EF030687249884263D14046F8F7FBFE314606
S31520009F004046FDF721FC15B10022012106E030462E
S31520009F10FFF777FD024606F1450041784046F8F7FF
S31520009F2096FE4046F8F7E0FE00F085F838684DF6D4
S31520009F300F7140F0020038603868084096F84510E6
S31520009F400829317B08BF40F40050090101F0300197
S31520009F50084340F07F4040F47F0031463860404659
S31520009F60FFF7EFFDB86820F40040B8603046FFF7F1
S31520009F7033FD18B1B86840F40020B8603146384641
S31520009F80FFF78FFE31464046FFF725FE3146404615
S31520009F90FFF73EFD00F04FF8307C90B100F045F819
S31520009FA059F804BBBBF1000F06D022463146404685
S31520009FB0FFF7C6FE18B95C44BAF1010AF0D10400D5
S31520009FC030D1307F90B100F030F859F804BBBBF1A6
S31520009FD0000F06D0224631464046FFF705FF18B946
S31520009FE05C44BAF1010AF0D104001BD1CDB1386826
S31520009FF040F0020038603046FFF703FD024606F1C6
S3152000A000450041784046F8F722FE31464046FFF7A4
S3152000A01098FD31464046FFF7FBFC386820F00200E9
S3152000A020386000242046BDE8F28F0420002406F183
S3152000A030500982467047386820F00200386038465A
S3152000A040B4E42DE9F0410C4690461D460426FFF760
S3152000A050BCFD070018BFB8F1000F21D00021601900
S3152000A060494100291CD811281AD23846FFF7A4FDE9
S3152000A07013480221B8612A19F961A10007EB81036F
S3152000A0804FF40074234404E058F8044B491C43F869
S3152000A090044BB1EB820FF7D3B8610120F86100269B
S3152000A0A03046BDE8F081000000E1F50500CA9A3B84
S3152000A0B00065CD1D00802A4000FFF0FC4643464245
S3152000A0C0F05AF05A2DE9F84307460C460425FFF7C7
S3152000A0D07CFD060018BF002C00F0DA8020780428CA
S3152000A0E080F2D68094F810903046FFF765FD38460A
S3152000A0F006F1A00700F065F970694FF0000840F0FE
S3152000A1001E007061606838602078022808BFA06948
S3152000A11002D0032802D1206A1FFA80F8A068E168DD
S3152000A120000400F4702040EA0800491E090601F0E8
S3152000A130E061084340EAC97078602078032820D17E
S3152000A140E169206A11F0030224D11C22BA61BA699E
S3152000A15042F00102BA61BA69D207FCD43A6942F0E8
S3152000A16001023A6168B140284FF48072324437D3F5
S3152000A170D6F814C010235FEA8C6C26D472691207B5
S3152000A180F0D52078022818BF01285BD16169A06923
S3152000A19011F003027CD11C22FA61FA6942F0010215
S3152000A1A0FA61FA69D207FCD4002201284ADB7569D4
S3152000A1B04FF4C07333446D0641D51025402859D33A
S3152000A1C02CE052F804CB41F804CB5FEA030CA3F150
S3152000A1D00103F6D17269403842F020027261CDE760
S3152000A1E03B6DDB0003F4FF638342C7D3042822BF01
S3152000A1F052F8043B41F8043B001FF7D240B11268E5
S3152000A20000926A4612F8013B401E01F8013BF9D143
S3152000A2107069B6E751F804CB43F804CB5FEA050C26
S3152000A220A5F10105F6D14038130004D13A6942F070
S3152000A23001023A610122736943F040037361736935
S3152000A2401B07B2D5207818B9386940F0010038616B
S3152000A2503046FFF7B1FC7069000718D5786CC0F35B
S3152000A26003600E280CBF41F6583541F659350FE0EC
S3152000A27043F804CB5FEA050CA5F10105D4D00128EB
S3152000A280B2BF4FF0000C001F51F804CBF0E70025B9
S3152000A2902846BDE8F28380B5FFF797FC18B1D0F8C1
S3152000A2A0E0108907FBD501BD80B5FFF78EFC18B1FC
S3152000A2B0BDE80240FFF77ABB01BD00292DE9F04F2A
S3152000A2C08FB0824693464FF0040876D001F1700491
S3152000A2D00120A289E68906938DF824B000FA02F7B8
S3152000A2E003208DF8140001200890079002A80C90F6
S3152000A2F05FEA0B0014BF082004200D9091F8470058
S3152000A30000281FBF4FF4C27008180278002A03D015
S3152000A31042780792007808900798089B01EB001175
S3152000A3204FF0000901F1800201465046FFF789FEF1
S3152000A3302468200018BF01208DF8100005A950467A
S3152000A340FFF7C0FE5FEA000837D15FEA0B0016D0A0
S3152000A35001A8694602AA042312F8015B5B1E00F8D5
S3152000A360015B12F8015B01F8015BF5D1002E019823
S3152000A370009901D0084005E00843384006E0002E49
S3152000A380029802D037EA000000E0384005469DF8E2
S3152000A390101018BF01250D420CD000200021894540
S3152000A3A008BF844206D04FF47A70F8F77BFD641E0E
S3152000A3B069F10009EDB2002DC0D140460FB0BDE8CD
S3152000A3C0F08F80B5FFF701FC58B1002100EB810228
S3152000A3D0491C0429D2F8803043F00043C2F880306B
S3152000A3E0F4D301BD38B50C46FFF7EFFB050009D0C5
S3152000A3F0FFF7E2FB2868002C14BF40F4006020F42D
S3152000A4000060286031BD00002DE9F043DFF82055BB
S3152000A4100220ADF5477D28606860DFF8187538683A
S3152000A4200124C0F3400000281FBFDFF80C65306808
S3152000A430C0F30130002803D03068C0F30130002873
S3152000A44000F09580FDF752FB012840F09080B86916
S3152000A450C0F30160002818BF02280BD10020DFF8C6
S3152000A460DC14002241F8302001EBC003401C0328F5
S3152000A4705A60F7D330684FF4C078C0F301302860B3
S3152000A48030680026C0F38130686002A806F01EFB03
S3152000A49055F82610AF1905EB8600012904D011D3F3
S3152000A4A003290CD008D30DE0DFF89414816081686D
S3152000A4B059B90020387457E0DFF88814F6E7DFF83A
S3152000A4C08814F3E700218160F3E7012180223974A3
S3152000A4D0816802A84FEA862906F00CFB09F1C041E3
S3152000A4E0202201F5806106A8F8F78CFDDFF85C04D0
S3152000A4F04FF4807200EB090126A8F8F783FD20208F
S3152000A50066AB009006AA002102A806F03CFC66A9CC
S3152000A510802202A806F0EEFA4FF4807026AB019056
S3152000A52086A800906AAA002102A806F003FC86A944
S3152000A530DFF81C24496808FB06F0914202BF869981
S3152000A540DFF810249142284406D0002114303974B3
S3152000A550414602F033FE07E001214246397466A9DE
S3152000A56014300024F8F74EFD761C022E90D3204698
S3152000A5700DF5477DBDE8F08310B50024FFF744FFB5
S3152000A58000B90124204610BD002120B10068000F2B
S3152000A5900E2808BF0121084670470021C0F3034258
S3152000A5A0E2B1042A1AD2C0F30353022BBCBFC0F374
S3152000A5B00333042B12DA022A03D3C0F30323042B1A
S3152000A5C00CDA032A03D3C0F30312042A06DAC0F3F3
S3152000A5D00360032826BF001F032801210846704771
S3152000A5E0F0B595B00446FFF7C7FF0646204604257A
S3152000A5F0FFF7CAFF002808D02068000F0E2840F079
S3152000A600A5802068FFF7C9FF002800F09F802068FA
S3152000A6100022C74FC0F30363032B28BF0122B818BB
S3152000A620002E1CBF017C00296CD14FF4C07111FB98
S3152000A63002F607EB82023E44143613F0030303D0DE
S3152000A640022B05D002D305E0BE4B02E0BC4B00E056
S3152000A650BD4B9360012206F1800702743046F9F75C
S3152000A660C9F8BB48BC497860BA4838602068B960E8
S3152000A670C0F30340F860217801F00F01F9612168E9
S3152000A680C1F30351B961002110E004EBC10C06EBC4
S3152000A6904113491CDCF804E043F8D0EFDCF804E071
S3152000A6A0DCF808C09A60F444C3F804C081420DD295
S3152000A6B0012907D02268022914BFC2F30332C2F34C
S3152000A6C00312E2E72268C2F30322DEE70228396D8D
S3152000A6D07A6D0ED3012306EB431454F8D0CF8C4564
S3152000A6E0646838BF6146A24238BF22465B1C83425B
S3152000A6F0F1D39A48814229D3396168467A6105F0B7
S3152000A700ABFF050022D10020954C8DF80300694649
S3152000A710204606F059F9050018D1B869012807D155
S3152000A7200C2206F1A401204606F07EF905000DD183
S3152000A73010223146204606F077F9050006D1102270
S3152000A74006F11001204606F06FF90546284615B099
S3152000A750F0BDF0B500220023754C4FF4C0750026DD
S3152000A7605D432544143500E0761CD5F88C70BE4236
S3152000A7700DD205EB4617D037D7F804C0844522BF43
S3152000A78001EB000C3F68BC45EED3012202E05B1CC6
S3152000A790022BE2D31046F0BD2DE9F04704460D46C4
S3152000A7A004201646002D86B018BF002E3AD0022C63
S3152000A7B038D2DFF87CA10AEB0401097C91B302A808
S3152000A7C04FF4C07806F082F908FB04F04FF4457187
S3152000A7D08022504400F114094718494602A806F081
S3152000A7E089F94FF4807009F18003019007F1800008
S3152000A7F0009009F11002012102A806F09BFA0AEB4B
S3152000A80084008022816802A806F074F920203B4645
S3152000A81000904A46012102A806F0B5FA2F600020D2
S3152000A820C6F8008006B0BDE8F0872DE9F047064659
S3152000A8300C4604201546002C8AB018BF002D4DD09A
S3152000A8404FF000094FF4C077DFF8E48007FB09F0EA
S3152000A8504044143090304168B14222BFA1190068AB
S3152000A860814204D209F10109B9F1020FEED308EBB6
S3152000A8708900D0F808A005A806F028F9802205A8A6
S3152000A880514606F037F907FB09F040441430D0F85A
S3152000A890981001291AD1A03001A9B0E88C10A1E89E
S3152000A8A08C10300901A90190002001AB46423344A7
S3152000A8B00A5CDE7B0E54401C0828DA73F5D300941C
S3152000A8C02B462A4605A806F085FA06E000942B4674
S3152000A8D02A46012105A806F056FA00200AB0BDE84E
S3152000A8E0F0872DE9F04104460D4600264FF4C07846
S3152000A8F008FB06F10E484FF44572014401F114009D
S3152000A9008F18B10201F1C04101F58061A14209D33E
S3152000A9102A19914206D24146F8F76CFF414638463D
S3152000A920F8F768FF761C022EE2D3BDE8F08100001E
S3152000A930E89E202004800F4060441F4048C00A4003
S3152000A940DCEFDCFE89ABDCFE1234DCFE800400602A
S3152000A950454844525441475F0000015600100060AC
S3152000A96000C00C4006F03DBC13460A460146184678
S3152000A97080B503E013460A4680B51946F8F742FB30
S3152000A980002002BD10B514460A4621460123BDE823
S3152000A9901040F7F735BD000062F30F2262F31F4225
S3152000A9A0401810F0030308D0C91A1FD3DB0748BF8D
S3152000A9B000F8012D28BF20F8022D130030B41446CC
S3152000A9C01546103928BF20E93C00FAD8490728BF88
S3152000A9D020E90C0048BF40F8042D890028BF20F844
S3152000A9E0022D48BF00F8012D30BC7047C91818BF8A
S3152000A9F000F8012DCB0728BF00F8012D7047000075
S3152000AA000300002013F0030F09D0521E22BF13F8B3
S3152000AA10010B11F801CBB0EB0C00F3D07047121FDD
S3152000AA2022BF53F8040B51F804CB6045F7D0121D12
S3152000AA300AD200BA9CFA8CFCB0EB0C0038BF6FF03F
S3152000AA40000088BF01207047521E22BF13F8010B59
S3152000AA5011F801CBB0EB0C00F6D0521C08BF104603
S3152000AA607047000010B5624B01221C68240A04F0CE
S3152000AA700104641C02FA04F40460186800F0030060
S3152000AA80801D02FA00F00860002010BD2DE9F0417B
S3152000AA9088B0044668461021F8F7ACFE04A81021B9
S3152000AAA0F8F7A8FE0C25534FFDF720F80228524E42
S3152000AAB018BF042040F099804FF4E0712046F8F743
S3152000AAC099FE4E48022120604D48606004F1440002
S3152000AAD0017047490A68C2F3401202B90222827005
S3152000AAE04FF08052C26003226273A2730122427029
S3152000AAF06422C262434A13681B0E05D013681B0EDC
S3152000AB0043F0416747F480673F4B009701931368F2
S3152000AB10C3F3074323B113683C4EC3F307431E43D5
S3152000AB2004960B68C3F3001303B10D254FF4E073AD
S3152000AB300126E573234406FA05F76D1E06FA05F588
S3152000AB405F601D606D4604F18006B5E88051A6E879
S3152000AB5080514FF498762644B5E88051A6E8805176
S3152000AB601568C5F3C03545B90FF2A40504F1900662
S3152000AB70B5E88051A6E880510AE01D731568C5F333
S3152000AB80C035002D0EBF4B250A2615FB06F55D8226
S3152000AB901568C5F3803555B95D734FF4A8750FF266
S3152000ABA080032C44B3E8E010A4E8E01001E001247F
S3152000ABB05C731368C3F3C0131BB11268C2F3C012CF
S3152000ABC002870968490A01F00301012905D002D349
S3152000ABD0032907D003D3642105E0C82103E04FF4FD
S3152000ABE0C87100E032210163002008B0BDE8F08181
S3152000ABF004800F400304100C1304180846434642F1
S3152000AC0000040156E0461F400830042400041808BA
S3152000AC100F04C00401240000000000000000000012
S3152000AC200F04C00401240000000000000000000002
S3152000AC3070B504460D4604201E46002D8AB018BF66
S3152000AC40002E33D0032002928DF8040001200490B8
S3152000AC500D20039000208DF8140095F8470030B1A0
S3152000AC604FF4CC7028444178039100780490042056
S3152000AC70CDF820D0099000203070039805EB001005
S3152000AC80049B00F040F800F044F878B94FF4E871DE
S3152000AC9029440A78009B002A19BF4A68896830220D
S3152000ACA020211A408A421CBF012131700AB070BD92
S3152000ACB010B504468AB0042019B3002002920090F1
S3152000ACC003208DF804000120049001230390002026
S3152000ACD08DF8140004200990012001EB0010CDF816
S3152000ACE020D000F010F800F014F850B90099490768
S3152000ACF048BF44F6256004D40099090748BF44F6A6
S3152000AD0024600AB010BD012100F180022046FFF721
S3152000AD1098B9012001A903902046FFF7D3B913461D
S3152000AD200022FEF7E6BF70B504460D46042655B14F
S3152000AD30FFF7C0F8060006D1012305F180020021A5
S3152000AD402046FFF77EF9304670BD2DE9F04F5FEAC9
S3152000AD5001091E468BB0804692464FF0040B1EBF5B
S3152000AD60002E149C002C5BD04FF4CA704844006B14
S3152000AD7000FB0AF50B20029503900120049099F818
S3152000AD80470000281CBF99F89401002807D04FF4EB
S3152000AD90CA7048444078039099F8940104900020A2
S3152000ADA0049B8DF8140001218DF80400039809EB0B
S3152000ADB0001000F180024046FFF743F900F05FF9EA
S3152000ADC05FEA000B18BF44F6206B69D199F8CC01D5
S3152000ADD038B14FF4E6704844C0880021F8F762F88D
S3152000ADE008E02B46002249464046FFF766FA5FEA0E
S3152000ADF0000B55D14046FFF757FA4FF4E67048440A
S3152000AE00407870B96B462A4649464046FFF710FF00
S3152000AE105FEA000B44D19DF8000010B944F6226B7E
S3152000AE203EE04FF4E67048448078002778B14FF42E
S3152000AE30CA704844406BBAFBF0F0C00707D501231F
S3152000AE4009F1C002002140460127FFF7FAF8B5F1C3
S3152000AE50FC5F09D20FF2F840224650F8280041192B
S3152000AE603046F8F7CFF813E0029500208DF814004D
S3152000AE7003208DF804000020089601A90994039068
S3152000AE80012004904046FFF71DF95FEA000B07D129
S3152000AE9037B1012309F1800200214046FFF7D1F89E
S3152000AEA058460BB0BDE8F08FF0B504460D46042099
S3152000AEB0002D8BB049D000208DF800004FF4C670CD
S3152000AEC02E18F06BB16B504301FB00F72946204644
S3152000AED03A46FFF724FF002837D18DF804008DF875
S3152000AEE01400052000F0BEF81CBF3078002800F0C2
S3152000AEF0C0F80398049B05EB00100297FFF703FFA9
S3152000AF00FFF707FF10B144F625601EE03B460022FE
S3152000AF1029462046FFF7D1F9B8B93A4629462046B0
S3152000AF20FFF7C6FE002804BF95F8CD1100290CD1E5
S3152000AF306B463A4629462046FFF77AFE002802BF8E
S3152000AF409DF80010002944F622600BB0F0BD2DE9D3
S3152000AF50F04780460D4604201F46002D8AB09146B4
S3152000AF601EBF002F129C002C6FD000208DF80000F1
S3152000AF704FF4C8702E18706B00FB09FA40465246F3
S3152000AF80FFF7CDFE0020CDF808A08DF81400022092
S3152000AF90069707948DF80400092000F063F81CBF7B
S3152000AFA03078002800F065F805F2CD17787888B15A
S3152000AFB0B06BB9FBF0F0C0070CD50A20039095F8CA
S3152000AFC0470000281CBF307D002803D0707D0390E9
S3152000AFD0307D049000F03CF800F051F810B144F6B2
S3152000AFE0236032E08DF804000E20039001200490A7
S3152000AFF095F8470018B1707B0390307B049000F0E1
S3152000B00027F800F03CF810B144F624601DE05346C2
S3152000B010002229464046FFF750F9B0B95246294644
S3152000B0204046FFF745FE002804BF397800290CD199
S3152000B0306B46524629464046FFF7FAFD002802BFD6
S3152000B0409DF80010002944F622600AB0BDE8F0877A
S3152000B0500398049B05EB0010012100F18002404675
S3152000B060FEF7EFBF03900120049095F847000028D3
S3152000B070704703D070780390307804907047012091
S3152000B08001A903904046FFF71DB800002DE9F043C3
S3152000B0900D4604241646002D8FB0814618BF002E7B
S3152000B0A000F031813068000F0C2840F02C814FF4DD
S3152000B0B000712846F8F79EFB954805F13007286071
S3152000B0C09448686002203875032068734FF08058D2
S3152000B0D0A8733220786400207C75294628730120C5
S3152000B0E0B8754846C7F82080FFF71DFE04003CD1FE
S3152000B0F00AA800210022002300241EC0864801231E
S3152000B1000A9042F202400B900AAA01214846FEF715
S3152000B11098FF032000948DF8040002200990012056
S3152000B120039001A90490484602948DF81440CDF866
S3152000B13020D0FEF7C7FFB8B9009800F0FF01FF291D
S3152000B14044F62B6018BF00290ED03268C2F3036282
S3152000B150012AA2BF726802F0FF03012B03DB02F073
S3152000B160FF02914200D10020040040F0C880012057
S3152000B1702873307800F00F00B8753068C0F30310DC
S3152000B180022818BF042840F0BB8081024FF4E070EB
S3152000B19028440160490041603268C2F30322032A31
S3152000B1A00CD8DFE802F002040609402208E08022DB
S3152000B1B006E04FF4807203E0202201E0202A27D304
S3152000B1C082603A6AB2FBF1F18268B1FBF2F1C161A9
S3152000B1D00168B1F5805F0CBF0D210C21E973316840
S3152000B1E0C1F303410A0009D001290AD002290BD054
S3152000B1F0042918BF082900F0828007E04FF08061FB
S3152000B20007E04FF0006104E0414602E0B1F5007F1F
S3152000B21076D3490040F20642396205F1B0010A6050
S3152000B2203E4A42F201434FF4987C3A66AC447B6630
S3152000B230DFF8ECE0CCF800E0DFF8E8E0CCF830E02E
S3152000B240DFF8E4E0C1F820E0CCF82020374ACCF83B
S3152000B25024303A65364A7A65364A0A664FF40952E8
S3152000B2604A66002282733268C2F3033262B1324ADE
S3152000B2700A67324A4A67324A0A61324A4A614FF4B9
S3152000B2801A528A6101228273012202232A7705F14A
S3152000B29021021370012385F820302B4B3B674FF09A
S3152000B2A0000C42F20103C7F800C07B674FF0060C82
S3152000B2B082F804C04FF0010C82F803C0234A0A63C7
S3152000B2C04B631921796080F810C03168C1F303619E
S3152000B2D001290DDB7168C1F30742002A1CBFC1F3A7
S3152000B2E00721002904D042617168C1F3072102E0D9
S3152000B2F030214161202181610220387500E014B996
S3152000B3002846FCF711FC20460FB0BDE8F08300006C
S3152000B31046434642000401569F0400040F04C0041D
S3152000B3201304180810041808D80418086B04100C05
S3152000B330083280263204100C320401180C0C4022EC
S3152000B3406B0401180C0C08321F04A0041F04B0045F
S3152000B350000000604FF0FF3101600021416070471E
S3152000B36030B544680368141944600FF24C0407E0B2
S3152000B37011F8015B85EA136554F8255085EA032305
S3152000B38015466A1E002DF3D1036030BD30B54368E3
S3152000B390026813F0030F0CD003F00303C3F1040378
S3152000B3A00FF21404150E5B1E54F8255085EA02226E
S3152000B3B0F8D102600A6030BD00000000B71DC1044C
S3152000B3C06E3B8209D926430DDC7604136B6BC517B9
S3152000B3D0B24D861A0550471EB8ED08260FF0C92231
S3152000B3E0D6D68A2F61CB4B2B649B0C35D386CD3199
S3152000B3F00AA08E3CBDBD4F3870DB114CC7C6D04865
S3152000B4001EE09345A9FD5241ACAD155F1BB0D45B40
S3152000B410C2969756758B5652C836196A7F2BD86EA8
S3152000B420A60D9B6311105A6714401D79A35DDC7D20
S3152000B4307A7B9F70CD665E74E0B6239857ABE29C0C
S3152000B4408E8DA191399060953CC0278B8BDDE68F40
S3152000B45052FBA582E5E66486585B2BBEEF46EABA28
S3152000B4603660A9B7817D68B3842D2FAD3330EEA920
S3152000B470EA16ADA45D0B6CA0906D32D42770F3D084
S3152000B480FE56B0DD494B71D94C1B36C7FB06F7C3B8
S3152000B4902220B4CE953D75CA28803AF29F9DFBF6B0
S3152000B4A046BBB8FBF1A679FFF4F63EE143EBFFE598
S3152000B4B09ACDBCE82DD07DEC77708634C06D4730B0
S3152000B4C0194B043DAE56C539AB0682271C1B4323B8
S3152000B4D0C53D002E7220C12ACF9D8E1278804F1630
S3152000B4E0A1A60C1B16BBCD1F13EB8A01A4F64B0598
S3152000B4F07DD00808CACDC90C07AB9778B0B6567C64
S3152000B50069901571DE8DD475DBDD936B6CC0526F3F
S3152000B510B5E6116202FBD066BF469F5E085B5E5AA7
S3152000B520D17D1D576660DC5363309B4DD42D5A491F
S3152000B5300D0B1944BA16D84097C6A5AC20DB64A8D3
S3152000B540F9FD27A54EE0E6A14BB0A1BFFCAD60BB3F
S3152000B550258B23B69296E2B22F2BAD8A98366C8E27
S3152000B56041102F83F60DEE87F35DA9994440689D1F
S3152000B5709D662B902A7BEA94E71DB4E0500075E483
S3152000B580892636E93E3BF7ED3B6BB0F38C7671F7B7
S3152000B590555032FAE24DF3FE5FF0BCC6E8ED7DC2AF
S3152000B5A031CB3ECF86D6FFCB8386B8D5349B79D197
S3152000B5B0EDBD3ADC5AA0FBD8EEE00C6959FDCD6D05
S3152000B5C080DB8E6037C64F643296087A858BC97EBB
S3152000B5D05CAD8A73EBB04B77560D044FE110C54B2B
S3152000B5E0383686468F2B47428A7B005C3D66C1589B
S3152000B5F0E4408255535D43519E3B1D252926DC217F
S3152000B600F0009F2C471D5E28424D1936F550D83242
S3152000B6102C769B3F9B6B5A3B26D6150391CBD407A2
S3152000B62048ED970AFFF0560EFAA011104DBDD01422
S3152000B630949B93192386521D0E562FF1B94BEEF586
S3152000B640606DADF8D7706CFCD2202BE2653DEAE642
S3152000B650BC1BA9EB0B0668EFB6BB27D701A6E6D322
S3152000B660D880A5DE6F9D64DA6ACD23C4DDD0E2C022
S3152000B67004F6A1CDB3EB60C97E8D3EBDC990FFB95E
S3152000B68010B6BCB4A7AB7DB0A2FB3AAE15E6FBAABA
S3152000B690CCC0B8A77BDD79A3C660369B717DF79FAA
S3152000B6A0A85BB4921F4675961A163288AD0BF38C9A
S3152000B6B0742DB081C330718599908A5D2E8D4B593A
S3152000B6C0F7AB085440B6C95045E68E4EF2FB4F4ABA
S3152000B6D02BDD0C479CC0CD43217D827B9660437F2A
S3152000B6E04F460072F85BC176FD0B86684A16476C9A
S3152000B6F093300461242DC565E94B9B115E565A157E
S3152000B70087701918306DD81C353D9F0282205E0641
S3152000B7105B061D0BEC1BDC0F51A69337E6BB5233A1
S3152000B7203F9D113E8880D03A8DD097243ACD562021
S3152000B730E3EB152D54F6D4297926A9C5CE3B68C14D
S3152000B740171D2BCCA000EAC8A550ADD6124D6CD241
S3152000B750CB6B2FDF7C76EEDBC1CBA1E376D660E721
S3152000B760AFF023EA18EDE2EE1DBDA5F0AAA064F421
S3152000B770738627F9C49BE6FD09FDB889BEE0798D5D
S3152000B78067C63A80D0DBFB84D58BBC9A62967D9EB9
S3152000B790BBB03E930CADFF97B110B0AF060D71ABA9
S3152000B7A0DF2B32A66836F3A26D66B4BCDA7B75B899
S3152000B7B0035D36B5B440F7B110B5007B4FF47A740B
S3152000B7C0624330B1042807D0052808D0062809D0BE
S3152000B7D00BE047F25F600AE042F22B4007E041F6B9
S3152000B7E05E5004E041F2887001E043F62F300C00F1
S3152000B7F00BD1002300E05B1CDBB210FB03F191426E
S3152000B800F9D3102B12DB0F2310E001290ED11023C0
S3152000B810591EDBB210FB03F4A24204D20B46C9B276
S3152000B8200029F5D102E0180018BF0B46D8B210BD8A
S3152000B8302DE9F043804687B008F13804E946607E5A
S3152000B84002280CD10020214603E00A7802B101200B
S3152000B850491C08F146028A42F7D230B144E0032857
S3152000B86003DA182111FB00F701E0002767760FF2B3
S3152000B870C05518216846EE19F7F7BCFF07E036F8E1
S3152000B880022B00214046FFF797FF29F8020B0DF106
S3152000B89012004845F3D2E8190121828A4046FFF773
S3152000B8A08BFFADF81400BDF800002070BDF8020033
S3152000B8B06070BDF80400A070BDF80600E070BDF809
S3152000B8C008002071BDF81200E071BDF81400207246
S3152000B8D0BDF80A006072BDF80C006071BDF80E005C
S3152000B8E0A071BDF81000A07207B0BDE8F0832DE965
S3152000B8F0FC4D002680460C460196009605F0ACFCD1
S3152000B9000746F6F7E5FF82468B462046F6F7EAFF1E
S3152000B91004460D460021404605F0D9FD80463B46AB
S3152000B92001AA022105F0DFFC00E00190F6F7D0FF26
S3152000B930B0EB0A0061EB0B018D4205D828BF84428B
S3152000B94002D245F26C201DE000F026F800F01CF82B
S3152000B95001D1002016E0009810F0220FE5D03B46DA
S3152000B96001AA0221404605F0BEFC00F015F800F0C1
S3152000B9700BF806D0009880064CBF45F2712645F29A
S3152000B98072263046BDE8F68D0198009900F04000F9
S3152000B99001F04001884270473B466A4602214046F4
S3152000B9A005F0A1BCF8B50546DFF87844802120468D
S3152000B9B0F7F720FFDFF8706405F04EFC7268074643
S3152000B9C0306800F0B2F8F268B06800F0AEF830697E
S3152000B9D03B46902200F0AAF805F03EFC034630686C
S3152000B9E0982200F0A3F80021284605F070FD802259
S3152000B9F0214605F007FD0746284600F05FF8284651
S3152000BA0000F05CF8284600F03EF80FB13846F2BD4B
S3152000BA1004F1200042880178120202F47F42511874
S3152000BA208288120402F47F025118DFF80024914222
S3152000BA3002D045F27020F2BD028C038D01219A18A6
S3152000BA4001FA02F27263428C438D9A1801FA02F2CD
S3152000BA504FF47A735A43B263038F05F1A002012B88
S3152000BA600BD1C38FB4F8604003EB04435360438F7C
S3152000BA70848F03EB04435B1C9360808E01FA00F0F5
S3152000BA8010600020F2BD70B50446DFF89C6305F017
S3152000BA90E3FB00F01DF80446726830682B4600F080
S3152000BAA045F8F268B0682B4600F040F82B46204651
S3152000BAB0F0220321BDE8704005F0F8BB38B50446F6
S3152000BAC005F0CAFB00F004F82B4601B0F02217E07F
S3152000BAD005460021204605F0FABC38B5D24D05F0C2
S3152000BAE0BBFB6A6804462868234600F01FF8EA680C
S3152000BAF0A868234600F01AF82346286901B02022B8
S3152000BB000321BDE8304005F0D1BB38B5044605F029
S3152000BB10A3FBFFF7DDFF04462B46902200F006F834
S3152000BB202B46204601B00022EAE73B46032105F0DA
S3152000BB30BDBB2DE9F04F83B082469AF822008B4692
S3152000BB401646C7085842794208404042B0FBF7F8EB
S3152000BB50B3FBF7F007FB103000B10120019005F090
S3152000BB607BFB8146DAF8A0004446CDF800B04B4670
S3152000BB70B0FBF7F0804588BF0446252203215846AE
S3152000BB8005F094FB00984B46621EFFF7CFFF4F450A
S3152000BB901CBF384605F03BFB00250AE07078000202
S3152000BBA082183B46584603213E4405F07FFBBB44A2
S3152000BBB06D1CA5420BD2022F3278F2D1601E85422F
S3152000BBC0ECD101980028E9D04FF47F40E8E74F45B3
S3152000BBD01CBF484605F01BFB00984B462922FFF761
S3152000BBE0A5FF9148416B5046FFF781FE28B150468C
S3152000BBF0FFF749FF45F2742002E0B8EB0408B1D103
S3152000BC00BDE8FE8F00E0491E31B110F8012BFF2A56
S3152000BC10F9D045F2762070470020704710B500E035
S3152000BC20521E42B110F8013B11F8014BA342F7D046
S3152000BC3045F2752010BD002010BD70B50446FFF7F3
S3152000BC40F7FD204605F057FE002847D194F852000C
S3152000BC5010B145F26E2070BD734D002105F1300004
S3152000BC60002200230EC030212846F7F7C3FD94F8A2
S3152000BC70220040F25551082808D140F6AA20A96092
S3152000BC8028602861A8612962A86209E0102807D1E6
S3152000BC9040F2AA202960A8602961A9612862A962C8
S3152000BCA0002655F83610204605F011FC45F83600DA
S3152000BCB0761C062EF5D3AA2068605520E860AA20B7
S3152000BCC0E861552068622046FFF7DDFE2046FFF733
S3152000BCD069FE18B92046FFF7D6FE002070BD2DE973
S3152000BCE0F041044616460D4604F11000817C4E4A6A
S3152000BCF0156302681F46C908954221BF406880180F
S3152000BD007A19904238BF45F26D2021D3B5FBF1F068
S3152000BD1001FB105010B145F26F2019E02046FFF7C5
S3152000BD20DCFE3B46324629462046FFF702FF804688
S3152000BD302046FFF7EAFE2046FFF7A5FE94F8E0002E
S3152000BD4028B93A4631462846FFF768FF80464046DE
S3152000BD50BDE8F0812DE9F84F0646334DD6F8A4000C
S3152000BD60326900FB012706F1A4002F634068814257
S3152000BD7002D23069874202D245F26D203FE030463A
S3152000BD80FFF7ABFE05F068FA04460021304605F0C1
S3152000BD909EFB23468022FFF7C9FE2346302203213D
S3152000BDA0384605F083FA05F057FA8146F6F790FDF6
S3152000BDB082468B46C820F6F795FD04468846F6F758
S3152000BDC087FDB0EB0A0061EB0B01884519D828BF27
S3152000BDD0844216D245F26C243046FFF754FE304694
S3152000BDE0FFF793FE3046FFF74EFE96F8E00028B99F
S3152000BDF0D6F8A4103846FFF705FF04462046BDE8CE
S3152000BE00F28F286B4B466A46022105F06CFA0098A1
S3152000BE100007D4D5A96B3046FFF769FD0400DBD1B6
S3152000BE200024DCE7A80621206C0621205152590067
S3152000BE30000000000E000A00000000004200210061
S3152000BE400A009C000A000000000000000700050010
S3152000BE500000000028001400050060000700000014
S3152000BE6010B5614A116801F0070103290BD8DFE8F4
S3152000BE7001F002040608002306E0032304E004235D
S3152000BE8002E0052300E0062300F10C010B70136885
S3152000BE90C3F30023002B00F13803544814BF0224B7
S3152000BEA000245C765C7E022C25D10468240A00F0EE
S3152000BEB062F81C700468240C04F00F04DC7004681B
S3152000BEC0240D04F00F041C710468A40B00F053F831
S3152000BED05C720468240E04F00F04DC710468240FDD
S3152000BEE01C720468A40A00F046F85C700468240BEF
S3152000BEF000F041F89C701368C3F34023002B0CBF5D
S3152000BF00102308238B751268C2F3802202B1012206
S3152000BF10CA70026812F0070218BF012A07D0022A47
S3152000BF2018BF032A03D0072A0CBF052204220A774A
S3152000BF300268D20802F00702121F032A0BD8DFE894
S3152000BF4002F002040608192206E01A2204E01B2247
S3152000BF5002E01C2200E018224A750268C2F3801211
S3152000BF6002B101228A770068C0F3C010401E8041CA
S3152000BF70C00F487710BD04F0030404EB8404704717
S3152000BF8070B504464FF48071F7F734FC04F1500580
S3152000BF90002068700520207304F1220610203070DE
S3152000BFA0002030720120F0712046FFF759FF002053
S3152000BFB0A87028700E4820604FF480306060002002
S3152000BFC02072FF206073A0734FF0104020614FF065
S3152000BFD080706061002084F820000C207070402062
S3152000BFE0B070002070BD000004800F40E0461F4066
S3152000BFF053454D4310B5944B01221C6804F00104AF
S3152000C00002FA04F404601868C0F3430000281DBF38
S3152000C0101868C0F3430002FA00F0402008600020B0
S3152000C02010BD000030B5884A1168C1F300214B1EAF
S3152000C0309B41DB0F00F152010B701368C3F34023C1
S3152000C04003B10123CB701268C2F3802303B101230D
S3152000C05000F10F0200F1300413707C4B1D6805F0CF
S3152000C0600705032D0BD8DFE805F002040608002596
S3152000C07006E0012504E0022502E0032500E0042570
S3152000C08025701D68C5F3C005002D14BF1025082591
S3152000C09095741D68C5F3001505B1012555741D68F5
S3152000C0A0C5F340156D1EAD41ED0F65701C68C4F3D8
S3152000C0B08014641EA441E40F8C721C68240A04F0C8
S3152000C0C00704A41E052C0ED8DFE804F00305070795
S3152000C0D0090B022408E0042406E0012404E00324DA
S3152000C0E002E0072400E00024D4741C68E40A04F06B
S3152000C0F00704641E062C13D8DFE804F00406080A99
S3152000C1000C0E100009240CE00A240AE00B2408E097
S3152000C1100D2406E00E2404E00F2402E0102400E0A3
S3152000C1200C2414751A68C2F3803202B10122CA7235
S3152000C1301A68120C02F00702072A15D8DFE802F067
S3152000C1400C0406080A140E1108220FE010220DE036
S3152000C15020220BE0402209E0802207E04FF4007203
S3152000C16004E04FF4806201E04FF48072C0F8A8200A
S3152000C170087828B11868C0F3006000B10120087162
S3152000C18030BD70B504464FF48071F7F733FB04F1E8
S3152000C19050050120A87004F121066871082030702E
S3152000C1A0002084F820003074287305202073002096
S3152000C1B070700C20B070002068734020A8650020A5
S3152000C1C0A8710120E870002060722046FFF72AFF40
S3152000C1D0002001222870687028714FF40070A86032
S3152000C1E04FF47A70E881012028823178286D082959
S3152000C1F008BF96F9020003D0102903D1B078401C5D
S3152000C20002FA00F02865400968654FF48060E86509
S3152000C21000202A6684F8E0000D4820604FF4803024
S3152000C2206060FF206073A0734FF01E4020614FF0C6
S3152000C230007060610020A0614FF00040E061402066
S3152000C2402272F070002070BD04800F40E0461F402F
S3152000C25053454D4330B5047B4FF47A756A4334B168
S3152000C260042C07D0052C08D0062C09D00BE047F269
S3152000C2705F640AE042F22B4407E041F65E5404E094
S3152000C28041F2887401E043F62F34012505FA03F3C1
S3152000C2900D000BD1002000E0401CC0B214FB00F1C1
S3152000C2A09142F9D398420CDB581E0AE0012908D1A5
S3152000C2B01846C1B229B1411EC0B260438242084627
S3152000C2C0F7D3C0B230BD00002DE9F041054605F197
S3152000C2D0400488B0E27C6E46DFF8080C082A19DA9A
S3152000C2E0170019D10027A44606E09CF800300CF16F
S3152000C2F0010C002B18BF012705F14C036345F4D22E
S3152000C30047B10778002F73D1012907D195F88010FE
S3152000C31041706DE00122E2740778CFB909B9012294
S3152000C32016E0012914D1E17C891E04290ED8DFE804
S3152000C33001F00B0907050300052108E0042106E0AA
S3152000C340032104E0022102E0012100E000214170E6
S3152000C3501C210FF2A40011FB02F147181C2168468C
S3152000C360B846F7F747FA06E038F8022B042300F020
S3152000C370B3F826F8020B0DF10E00B042F4D206A84F
S3152000C380864207D238F8022B062300F0A5F826F8B5
S3152000C390020BF4E73A8B0623012100F09EF8ADF854
S3152000C3A01800BDF800002070BDF802006070BDF8CE
S3152000C3B00400A070BDF80600E070BDF808002071EA
S3152000C3C0BDF80A006071BDF80C00A071BDF80E0022
S3152000C3D02073BDF81000E071BDF812002072BDF880
S3152000C3E014006072BDF81600A072BDF81800E07245
S3152000C3F008B0BDE8F0810000000000000000000049
S3152000C4000000000000000000000000000000000006
S3152000C4100000000046001400000032001E0032001A
S3152000C4201E0000007800C800C8002800C8000000D0
S3152000C43023000A00000019000F0019000F00000059
S3152000C44050006400640014006400000019000A0013
S3152000C450000011000F0011000F00000050006400C2
S3152000C46064001400640000001900050000000F009D
S3152000C4700A000F000A0000003C006400640014005B
S3152000C480640000001400050000000C000A000C00E7
S3152000C4900A0000003C00640046001400640000000E
S3152000C4A00F00050000000A0007000A000700000030
S3152000C4B03C006400460014006400000000000000F8
S3152000C4C00000000000000000000000000000000046
S3152000C4D0000000000000000000212846BAE62DE9F1
S3152000C4E0F0438046DFF8D85B83B04FF4807128464E
S3152000C4F008F15006F7F77EF900200422009001216A
S3152000C500EC20DFF8E07904F08FFF01466B4600222D
S3152000C510002004F0ADFF040015D1B968307BB1F5D9
S3152000C5207A7F38BF4FF47A71012806D1012240461E
S3152000C53000F0CCF8040006D102E00846F6F7DBF955
S3152000C54000F0BEF804469CBB2868DFF8789B484577
S3152000C5502AD10020ADF80400684605F05AFAFE22DA
S3152000C5602946684605F059FA01A9684605F04EFAAB
S3152000C570BDF80400B5F8FE10884215D107203070AA
S3152000C580002000210C230FF6C43243431A446B18B3
S3152000C590525C93F820309A4202D1491C0C29F1D3DF
S3152000C5A00C2919D130701AE000F08AF8040002D064
S3152000C5B02046BDE8FE83CDF8009000211DF801201D
S3152000C5C06B5C9A4208BF401C491C0429F6D30228FA
S3152000C5D0BAD245F2D520ECE7401C0728D1D32889CA
S3152000C5E00106890E01F00101C0F3C000397600B1C1
S3152000C5F001207073286D3065002100E0491C400839
S3152000C600FCD108F12200417005F154010A887265B7
S3152000C6108A68B265CA68F2650A7C3266497C112945
S3152000C62010D012290CD0132908D0212904D0222970
S3152000C6300CBF0221002106E0042104E0012102E0D2
S3152000C640032100E007210170F17805F18100072917
S3152000C6501BD10178C1F340120AB1062114E0C1F3BF
S3152000C66000120AB105210FE0C1F3C0020AB104216C
S3152000C6700AE0C1F380020AB1032105E0C1F34001BB
S3152000C680002914BF02210121F170027A417A02EBBE
S3152000C6900121B9608379C279890803EB02223A61C4
S3152000C6A005794379B960910805EB03233961FB606D
S3152000C6B09908F960C17A807A00EB0120786177E7E2
S3152000C6C04FF480722946404604F035BE2DE9F84FD6
S3152000C6D080468B46144608F15C05F6F7F9F80646BF
S3152000C6E00F4668884FF47A714843F6F7FBF881467F
S3152000C6F08A46F6F7EDF8801BB9418A4505D828BF4A
S3152000C700814502D245F2D02023E02878010010D1BD
S3152000C71000208DF800005846F6F7EDF869464046A9
S3152000C72000F06EF8A8B99DF80000800900F001001D
S3152000C73003E00128DDD104F070FE0028D9D0012CB9
S3152000C74004BF2878002803D1404600F004F800B939
S3152000C7500020BDE8F28F10B5044682B000200022EA
S3152000C760009000F0DDF838B90222002104F05CFECA
S3152000C7700146A06900F040F816BD70B5044682B0A7
S3152000C78000200D46009028780422012104F04CFE5A
S3152000C7900146687800F030F806002BD12878EF287B
S3152000C7A012D10422A91C204604F0F0FD060021D156
S3152000C7B094F85C00012802D100F0B1F819E04FF49A
S3152000C7C07A70F6F798F815E0EE2813D194F85C0005
S3152000C7D0012805D1012200F0A3F806000AD103E0C2
S3152000C7E04FF47A70F6F787F80422A91C204604F045
S3152000C7F0A2FD0646304676BD6B46002204F038BEC2
S3152000C80070B582B0044694F85D000D46012810D11B
S3152000C810DFF8D0663078022803D108220021712063
S3152000C8200AE006220521782004F0FEFD0146706804
S3152000C83006E008220021702004F0F6FD0146A069DA
S3152000C840FFF7DAFF10B900982870002076BD70B582
S3152000C8500446002082B00D46009000F060F8F0B942
S3152000C860DFF88066307802280BD100F01FF800F040
S3152000C8704FF8A0B9B4F86010B068884228BF0146C6
S3152000C8800EE000F013F800F043F840B9032200212F
S3152000C890302004F0C9FD00F03BF80028EAD076BD30
S3152000C8A000F001F876BD012220460FE70422002180
S3152000C8B0002004F0B9BD38B50446002000901000D1
S3152000C8C00D460CD100F02BF840B90422002180201F
S3152000C8D004F0AAFD00F01CF800B9002032BD012AA0
S3152000C8E0FBD102220021102004F09EFD00F010F85A
S3152000C8F00028F3D1B4F86010DFF8E805C068884254
S3152000C90028BF01460022FFF7CFFF0028E5D032BD21
S3152000C91001466B460022284604F0AABD0097002255
S3152000C92000212046D2E67CB50D4600F15004A179BF
S3152000C930A94219D02278CAB9DFF8A825127EAAB151
S3152000C940012D0FF67006D6E90023CDE9002308BF96
S3152000C950002102D0290002D108218DF80210694653
S3152000C960FFF70BFF08B9A571002076BD15B945F272
S3152000C970D62076BD012DF7D145F2DB2076BD38B520
S3152000C980044604F1540001780125002904BF4078AB
S3152000C990012815D1002069468DF800002046FFF7B2
S3152000C9A02FFF002803BF9DF8000000F0010080F053
S3152000C9B0010500252046FFF7CEFE08B1012032BD35
S3152000C9C0284632BD012200E0491E21B110F8013B64
S3152000C9D0FF2BF9D00022104670472DE9F041DFF8F1
S3152000C9E0E86600270446307882B0884604F1600560
S3152000C9F002281DD1100014D1FFF790FF07003BD16C
S3152000CA0004220021502004F00FFD00F061FB0700F6
S3152000CA1032D12988B068884228BF0146FFF743FFF4
S3152000CA2004E0012A28D12046FFF711FF074623E01C
S3152000CA300AB9286C8044FFF771FF07001CD1042235
S3152000CA400221052004F0F0FC00F042FB070013D180
S3152000CA5003220021E02004F0E7FC00F039FB070068
S3152000CA600AD1706900281DBF4FF47A71B0FBF1F02E
S3152000CA70401C0120F5F73FFF3846BDE8F6812DE939
S3152000CA80F0430446C1B004F15407002538780E4619
S3152000CA90002804BF7878002849D1D7F84C907868C8
S3152000CAA0FF224FF48071B9FBF0F86846FBF794F843
S3152000CAB0607A012809D120693A6D6946B6FBF0F300
S3152000CAC000FB039004F09EFC13E0A0B9002231463F
S3152000CAD02046FFF782FF050029D13A6D6946204698
S3152000CAE004F029FC050022D1012231462046FFF719
S3152000CAF074FF05001BD14FF480716846FFF762FF73
S3152000CB0000B10120DFF8C0658021707606F11C0097
S3152000CB10F6F770FE002006F11C0206E0694601EBDE
S3152000CB20C001496842F82010401C4045F6D32846EB
S3152000CB3041B0BDE8F0832DE9F04700F15406012508
S3152000CB403278002A01BF7278002AF278002A3ED174
S3152000CB50F26C73680027DFF8708508F19C090C4693
S3152000CB60B2FBF3FA427A012A04D100690C1A01E0D9
S3152000CB7004197F1C57452AD2F06C7168B4FBF0F279
S3152000CB8000FB1240B0FBF1F0B842F2D14846FFF765
S3152000CB9019FF98F81910084212D108EB8700494668
S3152000CBA000F11C02706800B205F001F845F234313C
S3152000CBB088421CBF45F23531884201D0002506E067
S3152000CBC070684FF42771414481448945D0D3284663
S3152000CBD0BDE8F0872DE9F74FE4B000F15405287839
S3152000CBE000249946002804BF6878002876D1E86C8E
S3152000CBF06968B0FBF1F00390802144A8F6F7FAFDAE
S3152000CC00E878002844D1669F0026A0468DF80800C3
S3152000CC10DFF8B4A418E09DF8080040B969680098C8
S3152000CC20FF22FAF7D9FF009F01208DF808006868D7
S3152000CC3001AA394600B204F007FF019844A941F839
S3152000CC4026006868761C80440398864220D2B9F173
S3152000CC50000F0AF19C0001940090DCD0D5F804B0B6
S3152000CC606698D94500EB080728BFA9EB0B09DED249
S3152000CC7000984A463946F6F7C5F90AEB0900FF221D
S3152000CC80ABEB09019C30FDF787FE009FA146CEE75E
S3152000CC90FF224FF4807104A80026FAF79DFF07E0D3
S3152000CCA004A944A801EBC60150F82600761C48606A
S3152000CCB003988642F4D36498407A012807D1659870
S3152000CCC0EB6C2A6D04A9181804F0A1FB05E028B91D
S3152000CCD02A6D649804A904F059FB0446204667B0DF
S3152000CCE0BDE8F08FFEB504467E4D1C212846F6F79A
S3152000CCF081FD04F1470604F11807F07A08B10020F7
S3152000CD0008E0B87A00281CBF0228042801D1012097
S3152000CD1000E002202870707B28B9B07B411E894133
S3152000CD20C90F797301E00020787300212046FFF7B0
S3152000CD30CBFA204604F0DFFD002862D129780029AD
S3152000CD4053D102900222FF2004F06EFB0146386880
S3152000CD5002AB002204F08CFB00220521FFF7A4FD84
S3152000CD6000284ED12046FFF7BAFB002849D10121E1
S3152000CD702046FFF7A9FA607A012809D16A690AB91B
S3152000CD804FF4FA72062301212046FFF763FA30702A
S3152000CD906A78100025D0062A23DA297E0020F9B1E8
S3152000CDA00FF20843D3E90001CDE900018DF80220F6
S3152000CDB069462046FFF7E1FC90B9EE2069468DF8DA
S3152000CDC0000000208DF802002046FFF7D6FC38B977
S3152000CDD09DF802106A78914202D045F2D720FEBD16
S3152000CDE078B9204604F087FD58B9717B49B9B17BE3
S3152000CDF0012908BF002101D019B901212046FFF7DA
S3152000CE0092FDFEBD2DE9F84F04469146D4F8A020A8
S3152000CE1004F110051E4602FB01F0E968884228BF8E
S3152000CE2045F2D1202BD2B24238BF45F2D32026D3A9
S3152000CE300146204604F000FBA34F80467860617AC5
S3152000CE4001290BD10146D5F800802046FFF7FFFCCB
S3152000CE50050013D100F0E8F850B940E041B9014689
S3152000CE602046FFF7F4FC050008D100F0DDF8B0B34A
S3152000CE7041462046FFF703FE050011D02846BDE8AF
S3152000CE80F28F4FF4007BB6F5007F5146484698BF97
S3152000CE90B3465A46D844F6F7B5F8D944A6EB0B065E
S3152000CEA0002EEBD0607A07F19C0A012808D14FF4B6
S3152000CEB000725146404604F0A5FA050009D0DDE788
S3152000CEC038B94FF400725146204604F034FA050072
S3152000CED0D4D141462046FFF72EFE0028D1D145F277
S3152000CEE0D420CCE798BA20202DE9FE4F044682B004
S3152000CEF0002002990090D4F8A00004F1100600FB4F
S3152000CF0001F5F1688D4228BF45F2D12080F0898055
S3152000CF100499884238BF45F2D32076D32946204645
S3152000CF2004F08AFA054668484560607A012802D1ED
S3152000CF303068009001E000B900950022294620467D
S3152000CF40FFF7B9FC5FEA000B6AD14FF0000A049E96
S3152000CF50D14609E038B93A464146204604F016FA49
S3152000CF605FEA000B5CD1BA44D4F8A000824536D2E1
S3152000CF70DFF858B1E6B1B6F5007F05D3770A7F0210
S3152000CF80DDF80C80F61B20E0039832464FF400773C
S3152000CF90D84600EB0A015846F6F734F84A48FF22ED
S3152000CFA03044C6F500719C300026FDF7F5FC0CE0F8
S3152000CFB0B9F1000F09D14FF40077FF2239465846C0
S3152000CFC0FAF70AFED8464FF00109607A0128C1D146
S3152000CFD000983A464146504404F019FAC0E7049BAB
S3152000CFE0039A00992046FFF7F5FD5FEA000B17D15B
S3152000CFF0012229462046FFF75EFC5FEA000B0FD18F
S3152000D00000F012F810B945F2D4200AE094F8E000B6
S3152000D01030B9049B039A0299204600F081F8834692
S3152000D020584605B0BDE8F08F2046A8E42DE9F0412A
S3152000D030044682B004F160060D46B06C316C68433C
S3152000D04001FB00F2E069824228BF45F2D12035D2A9
S3152000D0501146204604F0F0F9804600201A4F009031
S3152000D060C7F80480FFF75BFCB8B9042205216020CD
S3152000D07004F0DAF900F02CF878B903220521D02043
S3152000D08004F0D2F900F024F838B93188386988429A
S3152000D09028BF01460022FFF707FC78B9FFF7C4FF37
S3152000D0A010B945F2D42009E094F8E00028B9B26C12
S3152000D0B0204602FB05F100F011F80020BDE8F681BC
S3152000D0C034BD20204F4E464998BA202034BB20201C
S3152000D0D001466B460022404604F0CAB92DE9F041CC
S3152000D0E0804608F1A0077C6C0D4616461CB945F211
S3152000D0F0DA2013E06D1C3046461E78B13B68224686
S3152000D10029464046FFF77EFE002807D1396820468B
S3152000D110FFF758FC0028EDD145F2D920BDE8F08173
S3152000D12070B5D0F8E46014461D4616B945F2DA20EB
S3152000D13070BD3246FFF766FE38B92A46314620468C
S3152000D140FDF75EFC08B145F2D82070BD4D4943522B
S3152000D1504F4E2020202020205350414E53494F4EE1
S3152000D1602020202053414D53554E4720202020205B
S3152000D17057494E424F4E44202020202048594E49A0
S3152000D1805820202020202020544F53484942412017
S3152000D190202020204D4143524F4E49582020202008
S3152000D1A0000000000000000000000000EF01000069
S3152000D1B000000000EF900000000000000022FDF7B4
S3152000D1C0EFBB000070B504460D46DFF84C63202106
S3152000D1D03046F6F70FFB2078022802DB42F6CE1007
S3152000D1E070BD607821280ADA6168012202FA00F30C
S3152000D1F08B4222BF083802FA00F0814202D242F660
S3152000D200CF1070BD1C2221463046F5F70BFF706803
S3152000D210F561B0F5007F04BF09207070002070BD55
S3152000D220F8B50446BC480D461646877C314620464E
S3152000D23000F068F968B9390002D142F6D010F2BD83
S3152000D2403EB133462A462146384601B0BDE8F04075
S3152000D250A5E0F2BD2DE9F047AF4E8046F7688A4635
S3152000D260F47D0AEB080900F04DF905000DD10CB943
S3152000D270B47DB768BCB9307801000DD0012812D131
S3152000D2805146404600F04AF905462846BDE8F08753
S3152000D290002DFAD1307D10B942F6D010F6E700F015
S3152000D2A01FF90028FBD1C845EFD200F0FAF8050097
S3152000D2B0EBD1002300224146204600F070F80546B7
S3152000D2C0B8FBF7F007FB108100291ABF401C07FBAB
S3152000D2D000F8B844DCE770B58F4C257E61682800DD
S3152000D2E009D12078020014D0012804D1002000F0B2
S3152000D2F015F9064614E000F0D4F8060010D10023F4
S3152000D30000220021284600F04AF8060008D1207D98
S3152000D31010B942F6D01070BD00F0E2F80028FBD11B
S3152000D320304670BD2DE9F84F88467B4F914604461E
S3152000D330BD687E7C494600F0E5F85FEA000A2BD1FD
S3152000D34016B3B9F1000F27D000F0ABF85FEA000A58
S3152000D35022D1B4FBF5F06843CB464246211A1ABFC8
S3152000D360291B401828468145214688BF83465B46AF
S3152000D370304600F014F85FEA000A5C44D844A9EB72
S3152000D3800B0909D1387D10B942F6D01005E000F01E
S3152000D390A7F80028FBD1D4E75046BDE8F28F2DE947
S3152000D3A0FC479A465C4FFB6981460C4690467E7840
S3152000D3B00022002100209847B9F1000F2CD0397C9B
S3152000D3C0894508BF012528D0797C894508BF0225D3
S3152000D3D023D0B97C894508BF03251ED0F97C894511
S3152000D3E008BF042519D0397D894508BF052514D0E5
S3152000D3F0797D894508BF06250FD0B97D894508BFA7
S3152000D40007250AD0F97D894508BF082505D0397E2C
S3152000D410894508BF092500D000257878092803D139
S3152000D420FF2C88BF49F00809092E8DF8009004BF0B
S3152000D430F608F6000121A81E012884BF401F0128F6
S3152000D44014D8701E811000EB51700021C010401CB2
S3152000D45009E0421E521AD20024FA02F30DEB010211
S3152000D460491C5370C9B28142F3D3411C21B1FB69D7
S3152000D47002226846984790B9BAF1000F09D00122D6
S3152000D4806D1E012DFB695146404698BF02229847E2
S3152000D49028B9FB6903220021002098470020BDE817
S3152000D4A0F68738B51C48047D457D200001D028002C
S3152000D4B002D142F6D01032BD00F01FF80028FBD171
S3152000D4C09DF80000800709D4002300220021284669
S3152000D4D0FFF765FF9DF800008007EDD5002032BDDF
S3152000D4E010B50D4882B0047D00F007F80028FBD166
S3152000D4F09DF8000000F0010016BD01236A460021B8
S3152000D50020464CE7044A08185268824202D242F664
S3152000D510CC10704700207047340821207FB5044680
S3152000D5200D46FF2210216846FAF756FB01E0341912
S3152000D530AD1B5DB11026102D6946204638BF2E46FC
S3152000D5403246FFF7EFFE0028F1D000E0002004B0BD
S3152000D55070BD000000F01F02DFF81C35000A914064
S3152000D56003EB800010B5032494400368A3431943BA
S3152000D570016010BD0029016912BF41F0010149086F
S3152000D580490001617047426A01F00101520841EAEF
S3152000D5904201416270475202036942EA012119435E
S3152000D5A001617047120401F00F0102F47022114349
S3152000D5B08165704700210FF2180252F8213083420C
S3152000D5C003D0491CC9B20529F7D308467047000085
S3152000D5D000000000004039400080394000C039403A
S3152000D5E000003A4010B50C46FFF7E4FFDFF8781547
S3152000D5F00C5410BD70B5044682B000200D46009034
S3152000D600164600F019FA00F05FF8204600F062F89E
S3152000D61001212046FFF7B7FF6A7E297E204600F0CB
S3152000D62064F8606ADFF84C156B4632460840E97E9E
S3152000D630890601F080610843A97E00F040F8606207
S3152000D6402968204600F05CF80022002100F00AFA42
S3152000D650697A287A00F02DF8A97AC90501F4000123
S3152000D66008436968491EC1F30B0108430099C9069E
S3152000D67001F060510843297E00F021F8012120663F
S3152000D68000F0F3F9E96833460122204600F093F8CA
S3152000D690296933460222204600F08DF8696933460F
S3152000D6A00322204600F087F800212046FFF79AFF44
S3152000D6B073BD890701F0804141EAC07070470906B1
S3152000D6C001F04071084370470FF2DC42032132F922
S3152000D6D010003FE7016941F002010161016941F44F
S3152000D6E04071016100210161704710B5436A08311C
S3152000D6F001248C4002FA01F1A3431943416210BD73
S3152000D7002DE9F047446AE40702D50469E40701D508
S3152000D710002031E000244FF0FF3507264FF0FF08A8
S3152000D720A4460FF27C4E00271EF80C9007F1020A41
S3152000D7300AFB09F9B2FBF9F9494507D3A1EB090A16
S3152000D740AA4503D255466646B8464C467F1CFF2F4F
S3152000D75002D8002DE8D106E00CF1010CBCF1080F2F
S3152000D76001D2002DDFD1016C08F0FF02090A42EA3E
S3152000D7700121016420461E60BDE8F087012A04D0FD
S3152000D78018D3032A0ED007D37047026C090401F47C
S3152000D7907F0122F47F020BE0026C22F07F4242EAF4
S3152000D7A0016106E0026C090201F47F4122F47F4206
S3152000D7B01143016470472DE9F74582B00FF2E0303E
S3152000D7C0029901244FF0FF35096EC1F3C261405C16
S3152000D7D0FF2100919DF810100329B3FBF0F082463B
S3152000D7E00BD1DFF898135246B1FBF0F6DFF8900321
S3152000D7F000F03EF88046022409E0DFF87C1352460A
S3152000D800B1FBF0F6DFF87C0300F032F88046002109
S3152000D8108F42039801D8864206D39DF8102002989D
S3152000D820FFF7ACFF304620E000263019DFF848131A
S3152000D830A1FB00015246002303F05CFCB942039A87
S3152000D84001D8904205D3821AAA4202D215460096E2
S3152000D8508046761CFF2E01D8002DE6D19DF810209B
S3152000D86000990298FFF78AFF404605B0BDE8F0858B
S3152000D8703B210023002703F03DBC8168E1B101680C
S3152000D880002904BF4168002916D0052A07D28068DE
S3152000D890B0FBF2F102FB110070B90120704712F0C3
S3152000D8A0030F806802D09042F7D005E0B0FBF2F17A
S3152000D8B002FB11000028F0D0002070472DE9F04F20
S3152000D8C085B00446206E0F46C0F30B00451CE81DAC
S3152000D8D0C008019000F0B0F8DFF88C1211F8008033
S3152000D8E0019A29463846FFF7C8FF002851D06069BB
S3152000D8F0C00148BF4FF4C8704CD4D7F800A07D684B
S3152000D900D7F808B048EA0820BE68616840EA0840AF
S3152000D910012240EA08690120090A88400290F86835
S3152000D9204FF0000801090391010D800D00F0010060
S3152000D93001F001078DF8000000F087F8DFF84802B3
S3152000D94060610DB94FF0010800F08EF800F080F804
S3152000D95018BFB0F1007F06D1BAF1000F17D1606A67
S3152000D96040F080606062012100F07FF8206E03990C
S3152000D97020F04E7040EA4750090600F05FF8206616
S3152000D9800198052807D201A80778B84606E0002D99
S3152000D990E9D004203CE04FF004080427BBF1000F37
S3152000D9A020D0C34538BF5FFA8BF800F03EF8BAF1B5
S3152000D9B0000F07D09DF8002041465046C24400F093
S3152000D9C05DF88146002DC4F86490ABEB080BE5D0DA
S3152000D9D000F04DF8E2D000F01EF838BFF7B200F0A4
S3152000D9E020F8F5E700F021F8206E20F4801020665C
S3152000D9F055B166B100F03BF8FBD000F00CF838BF0B
S3152000DA00F7B200F00EF8F5E760694005FCD5002076
S3152000DA1005B0BDE8F08F616FBE429DF80030284604
S3152000DA2070473A463D44F61B60E0E06D029900F0EF
S3152000DA301F008842F9D070472046BBE501F04071AF
S3152000DA4040EAC84008437047012201212046A2E54A
S3152000DA50606A20F008006062606A00F04070B0F1F1
S3152000DA60807F704720469DE50021204682E5E06DB7
S3152000DA70C0F304400028704768C00F400023491EA9
S3152000DA80032930B530D8DFE801F002050E1C10F866
S3152000DA90013B29E041780378002A14BF41EA032399
S3152000DAA043EA012320E04178037884780902002A9A
S3152000DAB019BF41EA034144EA0103194341EA0443F9
S3152000DAC012E0C57884784178037832B943EA012197
S3152000DAD041EA044141EA056306E0090441EA03619B
S3152000DAE041EA042145EA0103184630BD30B50C0C45
S3152000DAF00D0A521E032A21D8DFE802F002050C1572
S3152000DB0000F8011B30BD13B90170457030BD05709A
S3152000DB10417030BD1BB901704570847030BD0470F2
S3152000DB204570817030BD0A0E23B90170457084702E
S3152000DB30C27030BD027044708570C17030BD426ABB
S3152000DB40124BD20744BF5A6910479A6910470F48AB
S3152000DB5041680F48F3E70D4881680E48EFE70B4808
S3152000DB60C1680D48EBE7000034AB20200748016967
S3152000DB700A48E4E7F7FFFFF800CA9A3B0094357796
S3152000DB8000CA64D60000CA9A033F000118AB2020C1
S3152000DB90004039400080394000C0394000003A40FA
S3152000DBA00102040810204080FFFF00010201040149
S3152000DBB00601000010B5DFF8384360688001A068D0
S3152000DBC01AD510F4405003D0B0F5805F04D00EE093
S3152000DBD0022000F0A7F80BE0DFF818030068C00663
S3152000DBE05ABFDFF814030068DFF8100300E00020B6
S3152000DBF06168C1F3C26118E010F4402009D0B0F585
S3152000DC00802F08D0B0F5002F07D0B0F5402F06D0D2
S3152000DC100CE001207BE0022000E000207AE00020DA
S3152000DC2000F080F8216801F0070176E0002010BDA1
S3152000DC30162810B5DFF8C84267D8DFE800F00C0CCC
S3152000DC401227333F424446484A4C50525456585A5B
S3152000DC505C5E60626400FFF7ADFF2168C1F382213C
S3152000DC601FE0206840060BD5206810F0070F03D070
S3152000DC70012000F019F905E0022000F0F7F801E094
S3152000DC80FFF798FF2168C1F302410AE0FFF792FFF0
S3152000DC902168C1F38221491CB0FBF1F02168C1F350
S3152000DCA001213AE0DFF84C020068C00602D5DFF811
S3152000DCB04C0210BDDFF84002006810BD4FF4004052
S3152000DCC010BD002020E002201EE0002004E00120FC
S3152000DCD002E0022000E00320BDE81040E4E0082036
S3152000DCE012E0012010E0002004E0012002E00220E2
S3152000DCF000E003200EE0052006E0062004E00720D1
S3152000DD0002E0032000E0042001E0002010BDBDE871
S3152000DD10104007E0BDE81040A8E0491CB0FBF1F038
S3152000DD2010BD00002DE9FF41804668460FF2F01134
S3152000DD301022F5F777F9B8F1080F6F480068714F90
S3152000DD40734E724D6D4C6B4900F28B80DFE808F004
S3152000DD50050E21274C71757B7D000968C906396837
S3152000DD6048BF204601F07F0148433BE00968C906C9
S3152000DD7058BF0446386D3A6E0023A0FB040103F019
S3152000DD80B9F93A6BD2074CBF162214226243801887
S3152000DD9068E00968C906396948BF20465AE009681B
S3152000DDA0C90658BF0446386F31683269002300F02F
S3152000DDB07F06A1FB040103F09DF9396F06FB0400E1
S3152000DDC011F4C01104D0B1F5002F08BF400800E0BF
S3152000DDD0800829684C4A1140B1F5004F02D0914283
S3152000DDE025D03FE040083DE00968C90658BF0446F3
S3152000DDF0306A316B326C002300F07F07A1FB0401EF
S3152000DE0003F078F9316A07FB040011F4C01104D03D
S3152000DE10B1F5002F08BF400800E08008296801F00E
S3152000DE204041B1F1804FDDD0B1F1404F1AD1800889
S3152000DE3018E0306E00F0030002E0306EC0F381007F
S3152000DE405DF820000EE033480CE00968C906396AFF
S3152000DE5048BF204611F0030F14BF16211421484352
S3152000DE6000E0002004B0BDE8F081000010B50446B3
S3152000DE700120FFF757FF032C274913D8DFE804F0CA
S3152000DE8002060A0E096801F03F010AE00968C1F39B
S3152000DE90052106E00968C1F3054102E00968C1F3DE
S3152000DEA005611FE0002010BD10B504460220FFF7D3
S3152000DEB039FF032C194913D8DFE804F002060A0EAD
S3152000DEC0096801F03F010AE00968C1F3052106E06F
S3152000DED00968C1F3054102E00968C1F3056101E063
S3152000DEE0002010BDB0FBF1F01221484310BD000008
S3152000DEF010C00F4070820D4014AB202000366E01FA
S3152000DF0014C00F4000800D400080800070810D40BD
S3152000DF1080800D4040787D0100810D40F0800D40CD
S3152000DF2040787D0180F0FA0200E1F505405973073B
S3152000DF3010B500F05BF8022A30D10A68C2F340021D
S3152000DF40002A2BD00A68C2F3401200F8282F0A684C
S3152000DF50520A02F00302012A05D002D3032A06D070
S3152000DF6003D3012204E0022202E0052200E0062279
S3152000DF704270096840F6C41300F03DF8D20B00F059
S3152000DF8045F80C68C4F3407404B11A4682600969E6
S3152000DF90490901F001018173002010BD012010BD47
S3152000DFA010B500F023F8012A02BF0A68C2F3400226
S3152000DFB0002A19D10A6840F6C413C2F3011200F8E8
S3152000DFC0282F0A68520A02F001024270096800F0FE
S3152000DFD012F8920900F01AF80968C1F3407101B1EC
S3152000DFE01A468260002010BD012010BD05490A682E
S3152000DFF0C2F381127047C90801F001010173024979
S3152000E0000A69704704800F4060441F4002F00102F5
S3152000E01042730C6841F28832A40F012C06D002D339
S3152000E020032C08D005D344F6206405E042F2107490
S3152000E03002E0144600E01C464460704710B5039C7D
S3152000E04001F00701240104F010042143016002B10C
S3152000E050136010BD009808B1019901607047826A6B
S3152000E060490001F0060122F0060211438162704741
S3152000E0700029D0F8C01014BF41F0020121F002019E
S3152000E080C0F8C01070470029816C0AD021F04001E9
S3152000E09092018164816C02F0400242F00802114331
S3152000E0A001E021F00801816470470B46026C416A49
S3152000E0B0006803F096BE416A006803F0E7BE0A4690
S3152000E0C0416A006803F0EDBE816CCA0405D5402381
S3152000E0D0416A0068152203F05CBF890448BF80238B
S3152000E0E0F6D4002070472DE9F84304460D4616461F
S3152000E0F040F2297941F66A182068626A29469047D3
S3152000E100074641F66910874218BF474513D194F850
S3152000E1109203022818BF03280DD1474505D1206850
S3152000E12064224FF0B05104F0EFF92046FFF7CCFF00
S3152000E13020B14F4608E00FB140F2097726B1761E8E
S3152000E140002F18BF4F45D7D13846BDE8F28310B50A
S3152000E15004460FF24C008CB000F04EF80D200290D1
S3152000E160206C0004039001208DF8110002A80022E3
S3152000E17000F01AF810B140F209700EE00598DFF8A9
S3152000E180681A084202D04FF4E36006E0C105EDD5D7
S3152000E190C0F343200728E9D000200CB010BD0000B2
S3152000E1A00000000000000000019000200090694659
S3152000E1B0204698E710B504460FF234008CB000F0E4
S3152000E1C01BF80C20022202900020039003208DF8D9
S3152000E1D0100002208DF81100DFF8100A099002A81D
S3152000E1E0FFF7E2FF08B140F209700CB010BD000045
S3152000E1F000000000000000002421D0E90023CDE922
S3152000E200002302A8F5F7F6BA2DE9F0438BB00646AF
S3152000E2100F4602A8242140F6B838F5F7EBFA0FF29C
S3152000E2206800039700F034F8F4F752FB04460D46D5
S3152000E230DFF8BC09F4F756FB14EB00094D413068B2
S3152000E240726A6946904710B140F2097019E0002FB2
S3152000E250059803D10024C6F86C0203E0002854BFB9
S3152000E260052400245FEA0800A8F1010818BF002C45
S3152000E27006D0F4F72DFBA942E1D301D84845DED3D9
S3152000E28020460BB0BDE8F08300000000000000002F
S3152000E290D0E900230120029004208DF8110002A865
S3152000E2A0CDE90023019000200090704710B58CB076
S3152000E2B000F00AFD0FF238006946D0E9002303205A
S3152000E2C002904FF4003001F0D1F8CDE9002300F0A0
S3152000E2D018F800281EBF0598DFF81019084203BF5A
S3152000E2E002202064002040F209700CB010BD00000E
S3152000E2F00000000000000000039003208DF81100AC
S3152000E30002A80190002000902068626A104730B56C
S3152000E310CB684FF4217202449B0F1370CB689B0E7F
S3152000E32003F00F035370CB681B0C9370CB681B0A4A
S3152000E330D370CB6813718B681C0D1B0C03F00F0375
S3152000E340D48013728B681C0403D5548944F00104CD
S3152000E35054815C0403D5548944F0020454819C04FE
S3152000E36003D5548944F004045481DC0403D554892C
S3152000E37044F00804548140F6FC754C6805EA830392
S3152000E38003EB94739381E30E03F0070393734B68B7
S3152000E3901B0E03F00703D3734B685B0D03F00703D3
S3152000E3A013744B689B0C03F0070353744B68DB0B09
S3152000E3B003F0070393744B689B0A03F01F03D3747F
S3152000E3C04B685B0903F01F0313750B7903F01F03DA
S3152000E3D053750B68002B03D5548944F010045481DF
S3152000E3E05B0F03F0030393750B689B0E03F0070383
S3152000E3F0D3750B689B0D03F00F0313760B689C02F5
S3152000E40003D5548944F020045481DC0303D5548970
S3152000E41044F0400454811C0403D5548944F08004FC
S3152000E42054815C0403D5548944F4807454819C043B
S3152000E43003D5548944F400745481DC0403D55489EB
S3152000E44044F4806454819B0A03F0030353760968DD
S3152000E450938940F6FF74090A01F0030191764FF47F
S3152000E4605B710144A34209D0927C581C0223521CA2
S3152000E47003FA02F25043400A486003E0826C42F4F9
S3152000E480807282644FF40070086030BD10B5044677
S3152000E4900FF22C0194F8880200F00702C0F3C300A3
S3152000E4A051F822100FF2280252F8200048430A2180
S3152000E4B0B0FBF1F26168206804F046F8E06310BD15
S3152000E4C0A086010040420F008096980000E1F505E5
S3152000E4D0000000000A0000000C0000000D000000F3
S3152000E4E00F000000140000001A0000001E000000AB
S3152000E4F023000000280000002D000000340000004A
S3152000E500370000003C0000004600000050000000DC
S3152000E51080B5816CC90507D500F223314A781300EE
S3152000E5201CBF097800290BD100F297210A78497877
S3152000E530521C491C11FB02F1C0F88813002002BDB1
S3152000E5409102C0F8881301218DF80310AF218DF8B0
S3152000E550021001218DF8011000218DF80010694666
S3152000E56000F005F80028E9D040F21E7002BD30B553
S3152000E5708BB004460D4602A800F073F90FF258003E
S3152000E580D0E90023CDE9002328786978022240EAE1
S3152000E5900120A97840EA0140E97840EA0160062195
S3152000E5A0039002208DF81100DFF83C06099002A89E
S3152000E5B001900020029169460090FFF7F9FD10B105
S3152000E5C040F2097005E02046FFF7C1FD08B14FF47F
S3152000E5D0E3600BB030BD000000000000000000002A
S3152000E5E0F0B501F18F034FF45C725D789C7802449C
S3152000E5F000F0D1F81D78641994601D795C7900F0DB
S3152000E600CAF8DD786419D460DD791C7A00F0C3F885
S3152000E6109D79641914619D7ADC7A00F0BCF85D7AE4
S3152000E620641901F1AF0554614FF43B7406192C7837
S3152000E6303474AC7874742C79F474AC7934752C7A7F
S3152000E6407475AC7AB4752C7BF475AC7B34762C7CE3
S3152000E65074766C7CB476EC7CF4765B7B4FF4F77442
S3152000E6600C443370277800F262331F706F7D377742
S3152000E670D0F848C047EA0C0701F1CF0C8764AF7D7C
S3152000E68077774FF443766F7E06443770AF7E777088
S3152000E690EF7EB7702F7FF7704FF44C779CF81DE014
S3152000E6A0074487F802E09CF81EE087F803E09CF810
S3152000E6B01FE087F804E011F8EFEF87F805E091F8FE
S3152000E6C00EE087F814E095F81EE086F804E0ED7F6A
S3152000E6D075719CF80050B5719CF80150F5719CF845
S3152000E6E0025035729CF8035075729CF81B503D7091
S3152000E6F09CF81C507D709CF807E09CF808504FEA67
S3152000E7000E4E0EEB05659CF806E005EB0E259CF8F3
S3152000E71005E07544F560D0F848E05FEACE5E48BF74
S3152000E72015609CF80A5075749CF80C50F5749CF88A
S3152000E7300D5035759CF80E5075759CF80F50B575B3
S3152000E7409CF81050F5759CF8115035769CF81250AF
S3152000E75075769CF81350B5762D0255609CF81520D9
S3152000E760D507F27603D5826C42F4007204E0520794
S3152000E77003D5826C42F4006282640A7B487B1204D1
S3152000E78042EA0060CA7A897A40EA02200843386160
S3152000E790A07A1872F0BD2D0205EB0444704770B5BF
S3152000E7A090B004460D46164600F05AF80FF2940033
S3152000E7B01421D0E90023CDE9002302A8F5F71AF8A1
S3152000E7C00820694607900020089001208DF8250032
S3152000E7D004904FF40070039004F16C00059007A894
S3152000E7E0019002A8FFF78FFD002802BF0A98DFF8E4
S3152000E7F0FC13084221D1207B18B1022806D00BD366
S3152000E80011E000F023F812BACA66FAD375B1A0193E
S3152000E81090F86C0028700EE0002000F017F852BA2D
S3152000E820CA66FAD3F2E74FF4E16008E004F16C011E
S3152000E8302046FFF7D5FE002001E040F2097010B017
S3152000E84070BD0000000000000000000004EB800105
S3152000E850401C8028CA6E7047D2E90001CDE900012C
S3152000E86007A82421F4F7C6BF2DE9F047FF27012981
S3152000E87090B00446DFF8EC5808D002290BD14AF6AE
S3152000E8805520082628604FF6FF7702E05A200426F6
S3152000E8902860B84604E08020042628604FF0C0088F
S3152000E8A0217B286819B1022906D03ED348E000BA58
S3152000E8B03FBA286098FA88F80FF29C02FFF7CCFF3F
S3152000E8C000F086FA1320039607900020089000F0A7
S3152000E8D04BF80695FFF717FD002802BFDFF80C93CB
S3152000E8E00A9810EA090F2ED1D5F800A0002028603A
S3152000E8F00FF26C02FFF7B0FF00F06AFA0E200396C3
S3152000E900079000F031F80595FFF7FDFC002804BFBD
S3152000E9100A9810EA090F19D128688AEA00003840B7
S3152000E920404514BF0120002012E040BA79BA286081
S3152000E93098FA98F200BA0FBA286092FA82F8BBE7E2
S3152000E9404FF4E16004E04FF4E46001E040F221700E
S3152000E95010B0BDE8F08700000000000000000000B5
S3152000E960000000000000000001208DF82500694607
S3152000E9708DF80A00049007A8019002A8704738B5C0
S3152000E9800D46012D044602D12AB1052503E0022DAC
S3152000E99001D102B1062503208DF801508DF8030020
S3152000E9A0B7208DF8020000208DF80000694600F09F
S3152000E9B059FC00B165E084F8015332BD70B50446B8
S3152000E9C0002594F82960012E15D0022E04D0052E9C
S3152000E9D010D0062E25D1012520680221FFF73FFB06
S3152000E9E000F025F8E0B900F01EF8C8B9A06C40F494
S3152000E9F0005010E0012520680121FFF730FB01219E
S3152000EA0000F016F860B92A46012100F00EF838B950
S3152000EA10A06C40F48050A064002084F8936370BDFD
S3152000EA20ECE0002070BD2A4602212046A7E70221FD
S3152000EA30204619E738B500F202340125E3799540DE
S3152000EA402B4205D12379072B02DB4FF4E16032BD3F
S3152000EA5001F00F0141EA021503218DF80310B921B7
S3152000EA6000F008F88DF80150FFF781FD00B108E0AD
S3152000EA70257032BD8DF8021000218DF800106946F0
S3152000EA80704740F21E7032BD7CB50C46054600220A
S3152000EA900121FFF7CFFF10B140F21B7076BD95F82C
S3152000EAA02900052818BF062807D169682868620842
S3152000EAB0012603F049FDE86300E000262846FFF71B
S3152000EAC07DFF10B140F2127076BD26B12868012272
S3152000EAD00121FFF7D8FA696822462868DFF8DC4862
S3152000EAE003F032FDE863012085F8920395F82900AA
S3152000EAF0012831D0022803D005282DD006284CD154
S3152000EB00DFF8BC0800F076F8DFF8B8280021DFF837
S3152000EB10B808FFF79FFADFF8B40800F06BF8DFF8C3
S3152000EB20B0280021DFF8AC08FFF794FADFF8A80830
S3152000EB3000F060F8DFF8A4280021DFF8A408FFF72A
S3152000EB4089FADFF8A00800F055F8DFF89C280021A4
S3152000EB50DFF89808FFF77EFADFF8940800F04AF805
S3152000EB60DFF890280021DFF89008FFF773FADFF826
S3152000EB708C0800F03FF8DFF888280021DFF88408A9
S3152000EB80FFF768FADFF8800800F034F8DFF87C2811
S3152000EB900021DFF87C08FFF75DFADFF8780800F03F
S3152000EBA029F8DFF874280021DFF87008FFF752FAF9
S3152000EBB0DFF86C0800230190DFF868080090DFF882
S3152000EBC068280021DFF86408FFF744FADFF86008B8
S3152000EBD000F010F8DFF85C280021DFF85C08FFF76A
S3152000EBE039FA002076BD00008800F9FF0800F9FFF9
S3152000EBF040420F00019400900023704740F21270AB
S3152000EC0070BD000020680121FFF732BA70B50446B6
S3152000EC100FF6F0008CB0FFF7EFFA0220694602905B
S3152000EC200020FFF769FB48BB05A804F14C016CC81E
S3152000EC306CC108994FF41C702044090E0170089984
S3152000EC40090A4180089901710799090E41710799AE
S3152000EC50090C81710799090AC171079901720699F0
S3152000EC60090E817206990902C160059A41EA12616C
S3152000EC70C1600599090A0174002001E040F209707B
S3152000EC800CB070BD70B58CB000F01EF80FF67C008D
S3152000EC906946D0E900230920CDE900230290206CA3
S3152000ECA00004FFF729FB58B905A804F15C016CC8DC
S3152000ECB06CC104F15C012046FFF729FB002001E02E
S3152000ECC040F209700CB070BD044602A82421F4F766
S3152000ECD091BD000010B54FF45C742044047F0023DE
S3152000ECE0072C09D8DFE804F0040B0B080D0F1113CD
S3152000ECF000685118884200D20423184610BD406887
S3152000ED00F7E78068F5E7C068F3E70069F1E740694F
S3152000ED10EFE72DE9F04190B00446884615461E4699
S3152000ED2007A8242104F14407F4F764FD00F050F805
S3152000ED300FF2E072D2E90001CDE900017868C00542
S3152000ED4002D5B6F5007F09D1D4F86C03B04224BFB2
S3152000ED50E069B04202D316F0030F02D040F20C70E5
S3152000ED6033E02046FFF7F3F910B14FF4E3602CE0CF
S3152000ED7001200396169E04968DF80800122007900F
S3152000ED800498CDF81480012804BF11200790089517
S3152000ED907868C00503D4039928464843089000F0B4
S3152000EDA07AF8FFF703FA80B9022E0DD39DF80800F2
S3152000EDB0002804BF3878002806D12046FFF7FAF944
S3152000EDC010B140F2177000E0002010B0BDE8F081CD
S3152000EDD002A81421F4F70EBD2DE9F04391B00646A2
S3152000EDE0894690461D4607A8242106F14404F4F7D7
S3152000EDF001FDFFF7EDFF0FF22472D2E90001CDE904
S3152000EE0000016068C00502D5B5F5007F09D1D6F8A6
S3152000EE106C03A84224BFF069A84202D315F0030F61
S3152000EE2002D040F20C7033E03068406AC001FBD556
S3152000EE3001200395189F04978DF808001920079044
S3152000EE400498CDF81890012804BF18200790CDF813
S3152000EE5020806068C00502D440466843089000F0D0
S3152000EE601AF8009069463046FFF73DF980B9022F1F
S3152000EE700DD39DF80800002804BF2078002806D16D
S3152000EE803046FFF797F910B140F2177000E00020E6
S3152000EE9011B0BDE8F083012001228DF82500DFF8AE
S3152000EEA0A8050E9007A8019002A870472DE9F04FFB
S3152000EEB083B00446206803F081FD204603F064FDFC
S3152000EEC0002840F04C8104F128056878012833D0C9
S3152000EED0022803D005282FD0062850D1002000F084
S3152000EEE077F9FFF7ABF8002000F06AF9FFF7A6F8EC
S3152000EEF00020DFF8E8B4DFF8E8840190DFF8D86472
S3152000EF0000F042F90020DFF8E0A4DFF8E094019059
S3152000EF10DFF8D07400F031F9DFF8340500F058F945
S3152000EF20FFF798F8DFF8280500F04AF9FFF792F87E
S3152000EF3000F05FF900F054F9002000F039F9FFF7EE
S3152000EF407DF80020DFF8B8B4DFF8B8840190DFF848
S3152000EF50AC6400F019F90020DFF8B0A4DFF8B09413
S3152000EF600190DFF8A47400F008F9DFF8E40400F05B
S3152000EF701FF9FFF76FF800F03CF900F031F9012096
S3152000EF8000F00EF9FFF75AF80020DFF89CB4DFF8FE
S3152000EF909C840190DFF88C6400F0F6F80020DFF8FE
S3152000EFA094A4DFF894940190DFF8847400F0E5F8D7
S3152000EFB0DFF89C0400F0F4F8FFF74CF8DFF894042F
S3152000EFC000F018F900F00CF9287B40B3002000234C
S3152000EFD00190DFF88404009000220521DFF87C04EC
S3152000EFE0FFF72CF80FF21850DFF8606400686A46C5
S3152000EFF0009006213046F3F77BFF012200F0B4F89B
S3152000F0006A7B00F0B1F86868F3F775FC687B062127
S3152000F01080F0010200F0A9F8A868F3F76CFCA87B41
S3152000F020C0B10020DFF83864DFF83874019000970B
S3152000F0300023002206213046FFF700F8DFF81004EF
S3152000F040002301900022009706213046FFF702F8A0
S3152000F050FFF7D8FD20680021FFF701F800F0D7F868
S3152000F060686100F0CFF82046FFF725F810B140F28E
S3152000F070137074E000212046FFF7C6F828B94FF038
S3152000F08080412046FFF7C0F810B140F2147066E0C8
S3152000F0902046FFF7BBFD10B140F20D705FE0204621
S3152000F0A0FFF704F910B140F21A7058E02046FFF736
S3152000F0B0E9FD10B140F20F7051E02046FFF7E6F966
S3152000F0C001212046FEF7F1FF10B14FF4E26046E041
S3152000F0D000F061F810B140F21C7040E000F048F8F2
S3152000F0E010B140F20A703AE02878401E03D0401E44
S3152000F0F0012822D924E06878052818BF062808D0D8
S3152000F100286A810748BFCE4909D4C00725D5CD49ED
S3152000F11005E095F8200010F00C0F1ED0C7492046B8
S3152000F120FFF7B2FCD8B92046FFF7F2F9002814BF42
S3152000F13040F21F7084F88C0311E04FF4E1600EE07A
S3152000F1406878052818BF062807D02046FFF736FC22
S3152000F1500028E8D040F2127001E040F20C70BDE8C1
S3152000F160FE8F000070AB202006213046F3F7FCBE50
S3152000F1704FF400712046FEF7A2BF002300975246A7
S3152000F18000214846FEF75ABF002300965A46002122
S3152000F1904046FEF753BF002200212046FFF7FFBA64
S3152000F1A0002301909B4800909B4A00219B48704772
S3152000F1B0002301908E4800908E4A00218E48704789
S3152000F1C00023019081480090814A002181487047A0
S3152000F1D0002301907A4800907A4A00217A487047A5
S3152000F1E09B48002301905246009700214846FEF78F
S3152000F1F031BF9748002301905A4600960021404689
S3152000F200FEF728BF206804F1140103F090B9616865
S3152000F2102068954A03F098B9B0F88E0210F4C060C1
S3152000F22018BF0120C0B2704770B582B0044694F86A
S3152000F230FF020D46694600F0F80045EA0006032065
S3152000F2408DF8016000F050F900F00CF810B140F292
S3152000F2501E7076BD84F8FF6284F88C5376BD6946AD
S3152000F2608DF801602046FFF782B92DE9F84F00F0AE
S3152000F27035F810B104200DE0A84456B100F023F86B
S3152000F28032BF761B35460026FFF743FD5FEA000BAB
S3152000F290F2D05846BDE8F28F2DE9F84F00F01EF85F
S3152000F2A010B104200DE0A84456B100F00CF832BF8E
S3152000F2B0761B35460026FFF78FFD5FEA000BF2D05E
S3152000F2C05846BDE8F28F256A09EB482100974FF48E
S3152000F2D0007308EB0A022046B542704789469246DB
S3152000F2E004461F464FF0000B3A4651463E46D84646
S3152000F2F0F0E40000F0B58BB005460E46144602A891
S3152000F300FFF7AFFA0FF21C20D0E900234FF45C7010
S3152000F3102844CDE90023017F07291BD8DFE801F027
S3152000F3200E0C0C1A0A080604416908E0016906E079
S3152000F330C16804E0816802E0416800E001688069F4
S3152000F340B1FBF0F200FB121101B1521CB24228BFF0
S3152000F350A24201D204202EE02968496AC901FBD5C0
S3152000F36000FB04F7A96C7043374C099440F20976E8
S3152000F370C9055CBF40027F0200F078F80190232186
S3152000F380002002910090002269462846FEF7ABFE37
S3152000F39080B924200397029000F06EF850B92620F9
S3152000F3A0099402900020039002208DF8110000F0AD
S3152000F3B063F800B130460BB0F0BD0000B970010013
S3152000F3C0E4831F40F8851F40F4811F40E8831F40D7
S3152000F3D0FC851F40F8811F40EC831F4000861F409C
S3152000F3E0FC811F40F0831F4004861F4000821F407F
S3152000F3F0CC831F40EC851F40DC811F40C8831F4003
S3152000F400F0851F40D8811F40C4831F40F4851F40CC
S3152000F410D4811F40D8831F40E4851F40E8811F40C8
S3152000F420B9400100D4831F40DC851F40E4811F4082
S3152000F430D0831F40E8851F40E0811F4000EA320646
S3152000F4400075190380BA8C010800F9FF00001C40E2
S3152000F4508970010061400100DC831F40EC811F4060
S3152000F460AC801F409C821F40801A0600039001201A
S3152000F4708DF8110002A8704702A801900020009084
S3152000F480002269462846FEF72EBEF8B5044604F249
S3152000F490FD25A8780F46397800F0870040EA8110CC
S3152000F4A0797840EAC106032000F01EF8FFF7D7FE60
S3152000F4B000B122E02878AE70B97800F0E00040EA8A
S3152000F4C08100F9780843397940EAC10603208DF88E
S3152000F4D00300B1208DF80200FFF7C1FE10B140F203
S3152000F4E01D70F2BD2E70F2BD8DF80300B3208DF88D
S3152000F4F0020000208DF80000704740F21E70F2BD19
S3152000F50001000000000000000000000000000000D4
S3152000F51000000000000000000000000000000000C5
S3152000F52000000000000000000000000010B5039C51
S3152000F53001F00701240104F010042143016002B107
S3152000F540136010BD009808B1019901607047826A66
S3152000F550490001F0060122F006021143816270473C
S3152000F5600B46026C416A006802F03BBC0A46416ABF
S3152000F570006802F061BC416A006802F087BC0A4656
S3152000F580416A006802F08DBC416A0068402313225C
S3152000F59002F0FFBC2DE9F84304460D46164640F21C
S3152000F5A0297941F66A182068626A294690470746F3
S3152000F5B041F66910874218BF474505D06868DFF8CD
S3152000F5C0C01AC068084213D094F8BC00032818BF9C
S3152000F5D002280DD1474505D1206864224FF0B0514D
S3152000F5E002F092FF2046FFF7CFFF20B14F4602E000
S3152000F5F00FB140F2097726B1761E002F18BF4F456E
S3152000F600D1D13846BDE8F28310B504460FF240004A
S3152000F6108CB000F02FFB0D200290206C000403908C
S3152000F620012000F039F802A8022201900020009063
S3152000F63000F03DF810B140F2097007E00598C105C9
S3152000F640F1D5C0F343200728EDD000200CB010BD23
S3152000F650000000000000000010B504460FF2300044
S3152000F6608CB000F007FB0C200122029000200390B2
S3152000F67003208DF81000022000F00EF800F014FA96
S3152000F68000F015F808B140F209700CB010BD00006A
S3152000F69000000000000000008DF81100DFF8E009EE
S3152000F6A00990704702A80190002000900022694628
S3152000F6B020466FE710B504460FF22C008CB000F000
S3152000F6C0D9FA03206946029000200390082000F012
S3152000F6D011F820B90598000C2064002001E040F2C2
S3152000F6E009700CB010BD00000000000000000000F2
S3152000F6F0039003208DF8110002A8019000200090AD
S3152000F7002068626A1047F0B5144606460F460FF287
S3152000F710740291B01D4600F03AF800F012FC062063
S3152000F720F9070790A0000F2261F07F4182409143A4
S3152000F73005FA00F00843089001208DF825004020A6
S3152000F7400390012004901698039905903046FFF700
S3152000F75016FF10B140F20A7011E007A86946019021
S3152000F76002A800903068726A9047002802BF0A9863
S3152000F770DFF80C19084214BF40F20970002011B0BE
S3152000F780F0BD000000000000000000001F46D2E986
S3152000F7900001CDE9000107A82421F4F72BB810B504
S3152000F7A00B6800F1A8021B0F13700B681B0E03F0E9
S3152000F7B00F0353700B681C0203D5548844F00104D0
S3152000F7C054801B0D03F0070313710B681B0C03F009
S3152000F7D00F0353710B681C0403D5548844F00204AC
S3152000F7E054809B0A03F01E0393710B78443003F078
S3152000F7F00303D37149689160517819B1022905D064
S3152000F80002D30AE0012107E0022105E0042101607C
S3152000F8109178890701D5082101605179490703D5D7
S3152000F820416841F004014160D179CA0703D5426895
S3152000F83042F080024260890703D5416841F04001C9
S3152000F840416010BD30B504460FF2A80091B02421C6
S3152000F850D0E90023CDE9002307A8DFF83858F3F7CD
S3152000F860C9FF00F06EFB4FF480712846F3F7C2FF04
S3152000F87000F044F810B140F2157031E033200595C0
S3152000F880079001208DF8250000200890082003907D
S3152000F8900120049002A8009007A8019000F009F921
S3152000F8A0002803BF0A98DFF8D817084240F20970EB
S3152000F8B016D1217B286841B1022901D012D316E046
S3152000F8C000BA2860686800BA686004F16C00D5E95F
S3152000F8D00012C0E9001229462046FFF760FF0020EB
S3152000F8E011B030BD40BA2860686840BAECE74FF4E2
S3152000F8F0E160F5E70000000000000000216C2046D2
S3152000F90034E62DE9F04385B080460D46914601A8A0
S3152000F9100021002200230EC0DFF878774FF4807193
S3152000F920384608F10C04F3F765FFA06B00286DD06C
S3152000F930B8F89000400569D500974B462A46002125
S3152000F9404046FFF7E0FE002845D12078D8B10228AE
S3152000F95001D00CD35AE0386800BA3860786800BA0B
S3152000F9607860B86800BAB86000F062F80AE03868D3
S3152000F97040BA3860786840BA7860B86840BAB860EB
S3152000F98000F050F83861386801A9ADF80E007868A3
S3152000F990ADF80A00020CB86848800A81020CF868A3
S3152000F9A08A80020CADF8042031F81510012202FAE3
S3152000F9B009F211422AD0000200F47F403969AE00D4
S3152000F9C000F029F822D100974B462A4601214046CD
S3152000F9D0FFF799FE10B140F2097019E0207830B196
S3152000F9E0022801D00FD311E000F022F83861F86820
S3152000F9F03969000200F47F4000F00DF814BF40F290
S3152000FA001670002004E000F00DF8EFE74FF4E160F7
S3152000FA1005B0BDE8F08340EA1160F04000F00F0029
S3152000FA2048457047F86840BAF860386940BA704768
S3152000FA30F86800BAF860386900BA704730B50446ED
S3152000FA400FF25C008BB00D46D0E90023CDE90023F0
S3152000FA5002A8FFF7A1FEFFF751FF10B140F2157083
S3152000FA601CE00620029001208DF8110015B1012D11
S3152000FA7011D012E00020039000F016F800F019F8DB
S3152000FA80002802BF0598DFF8F815084214BF40F297
S3152000FA900970002002E00220EDE704200BB030BD03
S3152000FAA0000000000000000002A801900020009045
S3152000FAB070472068626A6946104730B5CB6800F106
S3152000FAC08C029B0F1370CB681B0C5370CB681B0AE0
S3152000FAD09370CB68D3708B681C0D1B0C03F00F033F
S3152000FAE0948093718B681C0400F09BF85C0400F0F2
S3152000FAF098F89C0403D5148944F004041481DC048A
S3152000FB0003D5148944F00804148115784FF4007441
S3152000FB1015B1012D33D047E040F6FC70957900EA07
S3152000FB208300D0604B6840EA9370D0604868D36801
S3152000FB30C00E00F00700107448685B1C000E00F031
S3152000FB40070050744868000D00F00E009074486855
S3152000FB50800C00F00700D0744868C00B00F0070046
S3152000FB601075801C03FA00F00123AB40B3F5007F2B
S3152000FB709062D36218D05843D462400A13E0D4620C
S3152000FB808B681B0403F47C13D3604C6843EA14434C
S3152000FB904FF6FF74D360A34203D3846C44F0100461
S3152000FBA08464581C800290624868430403D51389F4
S3152000FBB043F010031381C00900F07F0050750879C7
S3152000FBC000F07F0090750868800E00F00700D07561
S3152000FBD00868800D00F00F0010760868810203D5B2
S3152000FBE0118941F040011181010403D5118941F0A9
S3152000FBF080011181410403D5118941F4807111815D
S3152000FC00810403D5118941F400711181C10403D502
S3152000FC10118941F480611181800A00F00300507639
S3152000FC2030BD03D5148944F001041481704770B5A2
S3152000FC3004460FF238008CB000F01CF80920694603
S3152000FC400290206C0004FFF753FD50B905A804F17B
S3152000FC505C016CC86CC105A92046FFF72EFF002069
S3152000FC6001E040F209700CB070BD000000000000F9
S3152000FC70000000002421D0E90023CDE9002302A8BA
S3152000FC80F3F7B8BD70B504460FF270008CB0FFF7DD
S3152000FC90F1FF0220694602900020FFF729FD48BBAC
S3152000FCA005A804F14C016CC86CC1089904F17800D0
S3152000FCB0090E01700899090A41800899017107996E
S3152000FCC0090E41710799090C81710799090AC171B9
S3152000FCD0079901720699090E417206990902C160B7
S3152000FCE0059A41EA1261C16005990903090D01824D
S3152000FCF0002001E040F209700CB070BD0000000049
S3152000FD00000000002DE9F14F82B000F12804207890
S3152000FD10DFF87C57401E032800F2A380DFE800F0BE
S3152000FD200A080402042208E00322DFF8685704E0E8
S3152000FD30022202E00122DFF8545702980021FFF741
S3152000FD40E0FD00283CD1029920782A46DFF8485762
S3152000FD50DFF84897DFF8487781F8BC000298DFF88B
S3152000FD604487DFF84467DFF844A7DFF844B74168E3
S3152000FD70006802F0E9FB60610298DFF8381790F816
S3152000FD80BC20DFF83407022A1DD162786AB1012A25
S3152000FD903CD1DFF8282700F06DF8DFF8200700F0C7
S3152000FDA05AFBDFF8180700F04DFBDFF8100700F0CC
S3152000FDB041FBDFF80C0700F064F8DFF800071EE0CF
S3152000FDC040F21B704EE0032A28D162786AB1012ADC
S3152000FDD01CD1DFF8F02600F04DF8DFF8E80600F039
S3152000FDE03AFBDFF8E00600F02DFBDFF8D80600F03E
S3152000FDF021FBDFF8D40600F044F8DFF8C8060190AE
S3152000FE00DFF8C8060090002300F02EF80298FFF7CE
S3152000FE10BBFB002825D040F2297023E0042A20D1FC
S3152000FE2062786AB1012A1CD1DFF8A42600F022F8F4
S3152000FE30DFF89C0600F00FFBDFF8940600F002FBCB
S3152000FE40DFF88C0600F0F6FADFF8880600F019F8DD
S3152000FE50DFF87C0600230190DFF87006009000F0A2
S3152000FE6003F80020BDE8FE8F00220021DFF8680697
S3152000FE70FFF768BB00910192002300220021FFF7C3
S3152000FE8061BB00950190002300220021DFF84C067B
S3152000FE90FFF758BB0A46022133E50A46032130E51F
S3152000FEA02DE9F041164680460D460FF2687290B055
S3152000FEB0FFF76CFC00F045F808F11C0494F82C00C0
S3152000FEC0800702D5B7F5007F09D1D8F8B800B84227
S3152000FED024BF2068B84202D317F0030F02D040F2A5
S3152000FEE00C702BE04046FFF78FFB10B14FF4E36018
S3152000FEF024E01698039704901220079004980595FD
S3152000FF00012804BF11200790089694F82C0000F0D1
S3152000FF1066F800F06BF869464046FFF73BFB68B988
S3152000FF200498022809D39DF8080030B94046FFF707
S3152000FF3093FB10B140F2177000E0002010B0BDE82E
S3152000FF40F08102A81421F3F755BCF0B516460446F5
S3152000FF500D460FF2C86291B0FFF718FCFFF7F1FFCC
S3152000FF6094F84800800702D5B7F5007F09D1D4F868
S3152000FF70B800B84224BFE069B84202D317F0030F95
S3152000FF8002D040F20C7028E000F07CF810B14FF45B
S3152000FF90E36022E0169803970490192007900498AE
S3152000FFA00695012804BF18200790089694F8480063
S3152000FFB000F015F800F01AF8FFF779FB68B90498F5
S3152000FFC0022809D39DF8080030B92046FFF744FBE4
S3152000FFD010B140F2177000E0002011B0F0BD80078C
S3152000FFE003D40399304648430890704701200122E4
S3152000FFF08DF8250022480E9007A8019002A80090AF
S315200100007047F0B5044616460FF218608BB00D46C0
S31520010010FFF730FE00F036F810B14FF4E3602CE024
S315200100207019471E94F84800694640F20976800700
S315200100305CBF6D027F0220200395029001208DF87E
S31520010040110002A8019000200D4D00900995012272
S31520010050FFF72EFB80B9212003970290FFF722FBA1
S3152001006050B92620099502900020039002208DF890
S315200100701100FFF717FB00B130460BB0F0BD0000B1
S315200100800800F9FF2068406AC001FBD52046FFF72A
S31520010090BBBA000070AB20202DE9F04F8DB004468D
S315200100A0206802F08BFC204602F06EFC002840F00E
S315200100B0A08104F128056878002820D001283DD1A7
S315200100C00020DFF8F073DFF8F09300F09AF9DFF8FB
S315200100D0DC83FFF72BFA0020DFF8D46300F098F9D0
S315200100E00020DFF8C4B3DFF8BCA300F099F900F0D3
S315200100F0A0F9DFF8EC0300F0A5F900F0ABF9012037
S31520010100DFF89C73DFF8949300F07BF9DFF8CC835A
S31520010110FFF70CFA0020DFF8806300F079F9002060
S31520010120DFF8A8B3DFF8B0A300F07AF900F081F97F
S31520010130DFF8B00300F086F900F08CF92878022860
S315200101401CBF0328042801D1012600E00026287BB4
S31520010150304328D0002000230190DFF88C03009043
S3152001016000220521DFF88403FFF7E0F90FF2904022
S31520010170DFF87C7300686A4600901F213846F2F743
S31520010180B7FE6A7B1F213846F2F7EEFE6868F2F762
S31520010190B2FB687B1F2180F001023846F2F7E4FEAC
S315200101A0A868F2F7A8FBB6B10120DFF8489368707A
S315200101B00020D14F019000970023002206214846B6
S315200101C0FFF7B4F9C64800970190002300220621C3
S315200101D04846FFF7B7F90020002128622068FFF77B
S315200101E0B6F900F04EF968612068642102F000FA40
S315200101F000F042F900F038F900285FD104F1BD0B77
S315200102000120DFF8F8928BF802000EB1DFF8F092A8
S315200102100FF2F8320A27D2E90001CDE9000102A83E
S31520010220FFF7BAFA082040F20C7A02904FF4D57003
S31520010230039009208DF81100FFF736FCFFF739FCF2
S3152001024038B140F209707F1E32D05045F6D1504662
S31520010250CFE00598C0F30800B0F5D57F18BF50460A
S31520010260F1D1286A49F0804940F0080028620FF24E
S3152001027094320127D2E90001CDE9020104A8FFF752
S315200102808BFA2920CDF81490049004208DF81900BA
S3152001029040F6B838F2F71CFBCDE900019948F2F790
S315200102A021FBDDE9002310185941CDE9000109E0C0
S315200102B05045CCD000F0D8F80028D8D040F21370A1
S315200102C097E005275FEA0800A8F1010835D0F2F783
S315200102D0FFFA02460B46DDE900018B422DD828BFE5
S315200102E082422AD20021FFF70AFB0028EAD104A87C
S315200102F002A9039000200290FFF702FAF8B90798A5
S315200103000028DED5400003D5286A40F00200286285
S315200103100798C00103D5286A40F020002862079873
S31520010320E86495F82000800610D5616A206801F0FE
S31520010330EFFD38B140F225705BE0002FF1D040F29D
S31520010340147056E003208BF8020003E05FEAC9101F
S315200103503FF57DAF2046FFF795FC10B140F20D70B9
S3152001036047E02046FFF7A6F910B140F20E7040E0B3
S315200103702046FFF75CFC10B140F20F7039E00121F5
S315200103802046FFF7EDF810B14FF4E26031E0204648
S31520010390FFF758FA10B140F211702AE000F067F821
S315200103A068616878012800D086B195F82000400759
S315200103B07FF54DAF01212046FFF740FB10B140F2FA
S315200103C0127016E020680121FFF7C1F89BF8001092
S315200103D02046FFF75FFD9BF801102046FFF75DFDE4
S315200103E000F00AF8002812BF40F20A702046FFF7F3
S315200103F089FC0DB0BDE8F08F4FF400712046FFF760
S31520010400BEB801900097002300220021484670477C
S31520010410019000230096002200214046FFF786B86E
S315200104200190CDF800B00023002200215046FFF7AD
S315200104307DB82B48009701900023002200214846D1
S31520010440FFF780B800230190002200960021404644
S31520010450FFF778B82248CDF800B00190002300229A
S3152001046000215046FFF76EB82046FFF784B8616831
S315200104702068254A02F068B8206804F1140102F0C8
S3152001048056B861682068214A02F05EB880F0FA0207
S3152001049000E1F50500D4650CB0831F40BC811F40E7
S315200104A0AC831F40D0811F40C0831F40CC811F4099
S315200104B0BC831F40B8831F40C8811F40B97001000B
S315200104C0B9400100F9700100F9400100B4831F40D1
S315200104D09970010099400100C4811F40C0811F40CD
S315200104E08970010049400100A8831F40B8811F403F
S315200104F000C01B40B4811F40A4831F400080FF0021
S315200105000080FF0140420F0040787D01801A0600DD
S31520010510B0F8940010F4C06018BF0120C0B2704733
S315200105202DE9F84300F043F81F46F119884238BFF8
S31520010530042017D3002400E02C1997B1D8F82050B5
S3152001054009EB44214FF400734046BD4232BF7F1B65
S315200105503D4600270095A219FFF7A2FC0028EBD003
S3152001056000E00020BDE8F2832DE9F84300F01FF8F2
S315200105701C4600273119884202D2042015E0EF19C2
S3152001058094B1D8F8205009EB47214FF40073404627
S31520010590A54232BF641B254600240095BA19FFF7F0
S315200105A0D4FC0028EBD000E00020BDE8F283804691
S315200105B08946D8F8B400164670472DE9F0418046A1
S315200105C00D46D8F8B40016460027A919884202D24A
S315200105D0042012E0E7197EB198F8A100441CB44228
S315200105E0404632BF361B3446002622467919FFF78C
S315200105F008FD0028EED000E00020BDE8F0810000D3
S3152001060001000000000000000000000000000000C2
S3152001061000000000000000000000000000000000B3
S3152001062000000000000000000000000000F01F0292
S31520010630D54B000A914003EB800010B5032494406A
S315200106400368A3431943016010BD0021CF4A90429C
S3152001065018BF01210846704700283ED000210170AD
S31520010660417081700121C1704FF44861818040F64B
S31520010670C411C1803F210181012181722221C172D0
S315200106804FF4AD61C16040F25C41016140F29511C8
S315200106904161E3218161DC21C161622101627D2108
S315200106A04162252181624B21C1620B2101632F21E8
S315200106B04163012181632F21C1630121016446F632
S315200106C02011416445F67D7181644FF4C841C164AE
S315200106D04FF4C8610165002070470420704700006F
S315200106E013460022002BF0B522D05C681D68AC426F
S315200106F01ED2491E0829A5EB040EA54E06EA0E4672
S31520010700A44F47D8DFE801F005152B41576D7C8BA7
S315200107109D00BEF5803F38BFB5F5803F3AD2016ACC
S31520010720C5EA01010162016A89B241EA0E4101620B
S315200107309EE0BEF5004F38BFB5F5004F2AD2416A7B
S31520010740C5F30E03C90B43EAC131934B4162416A9A
S3152001075003EA0E436FF31E411943416288E0BEF559
S31520010760804F38BFB5F5804F14D2816AC5F30D038A
S31520010770890B43EA8131894B8162816A03EA0E43FF
S315200107806FF31D411943816272E0BEF5005F38BFE8
S31520010790B5F5005F6BD2C16AC5F30C03490B43EA79
S315200107A041317F4BC162C16A03EA0E436FF31C419B
S315200107B01943C1625CE0BEF5805F38BFB5F5805F45
S315200107C055D2016BC5F30B03090B43EA0131754B76
S315200107D00163016B03EA0E436FF31B411943016366
S315200107E046E0BEF5006F38BFB5F5006F3FD2416BCD
S315200107F000F040F84163416B39403143416337E0B2
S31520010800BEF5006F38BFB5F5006F30D2816B00F0B1
S3152001081031F88163816B39403143816328E0BEF52C
S31520010820803F38BFB5F1807F21D2C16825F07F4353
S3152001083001F07F411943C1608168CEEA01018160DF
S3152001084016E0B4F5800F38BFB5F5800F0FD2C16918
S31520010850C5F31504890D44EA8151C16181695B683B
S31520010860890DC3F3150343EA8151816100E0042216
S315200108701046F0BDC5F30A03C90A43EAC1217047F0
S3152001088038B504460D46A87A01007BD0102879D2C6
S315200108906168000400F4702005F10C0221F4702136
S315200108A008436060012100F083F8002869D105F131
S315200108B01402022100F07CF8002862D105F11C0205
S315200108C0032100F075F800285BD105F124020421EB
S315200108D000F06EF8002854D105F12C02052100F014
S315200108E067F800284DD105F13402062100F060F8A1
S315200108F0002846D105F13C02072100F059F80028CD
S315200109003FD105F14402082100F052F8002838D1E0
S3152001091005F14C02092100F04BF890BB21686A7859
S31520010920D20102F0800221F4845111432160216811
S315200109301D4A1140AA78920002F00C0211431B4A6B
S31520010940216021681140EA7802F0030211432160F7
S315200109502169AA88C1EA024121612169EA88090C33
S3152001096042EA0141216161692A89890AC2F30902A0
S3152001097042EA812161616168EA7A090A42EA012132
S31520010980616032BD042032BD68C00F4000C00C40FA
S315200109900000FF07FFFF00F80000FF7F0000FF3F78
S315200109A00000FF1F0000FF0FF3EFFFFFFCEFFFFF2B
S315200109B0204695E601F00F020F2A00EB8201096C11
S315200109C008BF006C0846704738B504000D4618BFAD
S315200109D0002D27D0FFF739FE0FF2D402032132F979
S315200109E01000FFF723FE2068294620F4883040F4C2
S315200109F080302060206820F4825040F04000206042
S31520010A002046FFF73DFF70B9206820F4883020602A
S31520010A10287828B1D4F8A00040F00200C4F8A0003C
S31520010A20002032BD042032BD2DE9F04104460025C7
S31520010A300027002C82B01646884618BF002932D0DE
S31520010A408EB32068C0F3802020B92068C0F300301F
S31520010A500028F6D02068C0F3003028B1206801258F
S31520010A6040F48050206015E0394620467F1CFFF770
S31520010A70A1FF04210090042E684698BF314600222A
S31520010A8004E010F8013B521C08F8013B8A42F8D3D6
S31520010A90761AD6D107F00F000F2805D00F21204650
S31520010AA0FFF788FF00E004252846BDE8F68100000F
S31520010AB00C060000DFF814060168002944BF4FF038
S31520010AC040418160082141604162704710B508B9F3
S31520010AD0012010BDDFF8F8150A6812F4406F03D122
S31520010AE00A6842F440620A6000F0E9FAFFF7E2FF81
S31520010AF0002010BDF0B5060085B018BF002901D031
S31520010B00802A01D0012450E0DFF8C8750024CB1BD0
S31520010B10022B3160DFF8C005DFF8C0554FF00042E7
S31520010B201CD941F23427DB1B38D042F2DE17DB1BFE
S31520010B3034D045F29957DB1B2AD042F2DE17DB1B54
S31520010B4026D042F26627DB1B1DD042F2ED17DB1BB6
S31520010B5019D04FF47067DB1B27D003E001F00300A7
S31520010B60306022E010226846F2F74CFA3020E86520
S31520010B70DFF86C05306000205DF82010401C042849
S31520010B80E966F9D311E000F013F821F0100103E032
S31520010B9000F00EF841F01001016003E0C16941F057
S31520010BA01001C1612A60FFF785FF204605B0F0BD1F
S31520010BB0C16921F01001C1610168704738B50C4641
S31520010BC0006819461546DFF80C35C21A022A22D9C1
S31520010BD0D21E1CD041F23123D21A22D042F2DE1388
S31520010BE0D21A20D045F29953D21A1AD042F2DE13E4
S31520010BF0D21A18D042F26623D21A12D042F2ED133B
S31520010C00D21A10D04FF47063D21A16D01DE0A06804
S31520010C1040F4407018E0A268000200F440701043CE
S31520010C2012E0606802E0606840F4402040F4806091
S31520010C306060A06840F47F4006E0606840F4806010
S31520010C406060A06840F47E40A06021B11022284651
S31520010C50F2F7D8F900E000250020A561E06131BD59
S31520010C60F0B501464FF070440020BFF34F8FDFF8F7
S31520010C707454DFF874242E6843F6E073F6031BD50B
S31520010C802867BFF34F8FEE6EC6F34E37C6F3C90CF6
S31520010C9003EA471E4EEA8C7EC2F80CE05FEA0C0E90
S31520010CA0ACF1010CF4D15FEA070CA7F10107EDD1F4
S31520010CB0BFF34F8FBFF36F8FBFF36F8FDFF82C64B6
S31520010CC0316001213161DFF828140F683F0703D411
S31520010CD027467C1E002FF8D1376A3F0602D0FF2017
S31520010CE0B062042008268E6014B9042818BF032098
S31520010CF0BFF34F8F2968C90319D500212967BFF38F
S31520010D004F8FE96EC1F34E34C1F3C90503EA441688
S31520010D1046EA857616602E46751E002EF6D12546A4
S31520010D206C1E002DF0D1BFF34F8FBFF36F8FBFF332
S31520010D306F8FF0BD70B590B058B1022909DA002A3B
S31520010D4018BF002B05D0149D1DB1159C14F00F0F53
S31520010D5001D0012015E000260902009601F48071D8
S31520010D6040F2232631430191102103931346029128
S31520010D7008AA049569460594FFF720FF6846FFF700
S31520010D806FFF10B070BD30B591B048B1022907DAB6
S31520010D90002A18BF002B03D0149C14F00F0F01D08A
S31520010DA0012015E000250902009501F4807140F229
S31520010DB0232529430191002102916946039208AA1C
S31520010DC0049300230594FFF7F9FE6846FFF748FFD1
S31520010DD011B030BD2DE9F04304000D4685B0904693
S31520010DE0994618BF002D05D0B8F1000F18BFB9F1EB
S31520010DF0000F01D1012020E00C9E0EE018F8010B16
S31520010E0001AA525C491C504009F8010BB942F5D39D
S31520010E1010212846F61B00F050F86EB11027102E2F
S31520010E2001AB2A4698BF3746102001210090204663
S31520010E30FFF7A9FF0021E9E7002005B0BDE8F0830F
S31520010E40F8B504460D4616460027FCF7B7F904E027
S31520010E50681EC01B2654360A7F1C002EF8D1F1BD10
S31520010E6070B5044615460498C5F10F0600B1402019
S31520010E709A1E520840EAC200721E10432A4620706A
S31520010E80601CF2F7BFF8059AF1B26019401CBDE863
S31520010E907040D5E770B50D46044616461021FCF77D
S31520010EA08DF92078C6F10E01324608432946207075
S31520010EB0601CBDE87040F2F7A5B8491E05D0425C1A
S31520010EC0521C4254D2B2002AF7D070472DE9FA4F6C
S31520010ED083460120BBF1000F8FB014460DD01900B7
S31520010EE01CBFDDF87480B8F1000F06D0DDF87890CC
S31520010EF0B9F1000F1CBF1F99002900F0B980209D70
S31520010F00291F0D2905D2E90700F1B2801A99C91FB7
S31520010F10072980F0AD801C9E019400961A9A10999B
S31520010F202B4602A8FFF79CFF102006AB009002AAD1
S31520010F3001215846FFF727FF002E4CD0002102A899
S31520010F40002200238C46B6F57F4FA0E80E10DDF86F
S31520010F506CA00DD23246022102A80E27FFF770FFA0
S31520010F600E2E51460DF10A0098BF37463A4610E03B
S31520010F70FF2032468DF80800FE208DF80900042155
S31520010F800DF10A000A27FFF75BFF0A2251460DF1F0
S31520010F900E00F2F737F810E01027102E514602A85E
S31520010FA098BF37463A46F2F72DF8102F05D202A8F8
S31520010FB0C7F11001C019FCF701F9102006AB019009
S31520010FC006A8009002AA01215846F61BBA44FFF74B
S31520010FD0B1FE002EE0D100F04EF810210AA8FFF74D
S31520010FE06CFF002C33E01026102C02A898BF264651
S31520010FF000EB060A9DF83C00C6F1100701280CD12A
S315200110003246414602A8F1F7FDFF102E03D239469A
S315200110105046FCF7D3F800F033F800964B4642468B
S315200110200AA95846FFF7D6FE9DF83C0060B932461C
S31520011030494602A8F1F7E6FF102E03D2394650465B
S31520011040FCF7BCF800F01CF8B044B144A41BCAD18B
S3152001105000F011F8102002AB009006AA0AA9584602
S31520011060FFF7B8FE1F982A4602A9F1F7CBFF002009
S3152001107011B0BDE8F08F1A9A10990AA8D2B209E7E1
S31520011080102006AB019006A8009002AA012158461D
S3152001109050E610B588B00F9C009306940E9C0594DB
S315200110A00D9C04940C9C03940B9C029413460A9C5D
S315200110B00A4601940121FFF709FF08B010BD00215E
S315200110C00022002300241EC07047000000C02F40CC
S315200110D068C00F400000DCFE0CC00A4004C02F404F
S315200110E00300DCFE14ED00E060EF00E0C0C12F40FC
S315200110F010C02F401B4213D1094236D12AB1844652
S31520011100B0FBF2F002FB10C2704701F067BCFCD3C2
S315200111100022002370470B000200002100207047A7
S31520011120904271EB030CF6D370B5B1FA81F4B3FAA0
S3152001113083F52C1BA340C4F1200532FA05F633436F
S31520011140A2405FF00046E64002E05B085FEA320219
S31520011150841A71EB030524BF204629467641F4D330
S3152001116002000B003000002170BD012ACFD970B5D5
S31520011170140C20D0B1FA81F4B2FA82F5C4F120041C
S315200111806419B4F12006D6D3B2405FF00044F4408E
S31520011190002502E052085FEA3303C61A71EB020EFC
S315200111A024BF3046714664416D41F3D302000B00E2
S315200111B02000290070BD0C46B1FBF2F102FB11455E
S315200111C02D0445EA1045B5FBF2F402FB145580B215
S315200111D040EA0545B5FBF2F002FB105240EA044015
S315200111E070BD002070470000DFF8C407DFF8C41780
S315200111F00968C90709D401684907F7D5016841F08B
S315200112000401016045F20A2070470020704701461B
S31520011210052901DA020002D145F20C207047DFF8D8
S31520011220982700F0070010605068042920F00E006E
S31520011230506003DA506840F008005060032903DA51
S31520011240506840F004005060022903DA506840F0EB
S315200112500200506000207047DFF85C07006810F03C
S31520011260070001D0052800DB04207047082808BFA5
S31520011270012002D0102801D10220C8E745F20E2014
S315200112807047DFF82C070168C907FCD5016841F0D2
S31520011290010101600168890706D5016841F0020153
S315200112A0016045F20920704700207047F8B50546D0
S315200112B00C4616461F46FFF7CFFFB84203D03846E5
S315200112C0FFF7A5FF70B9DFF8E806016841F00101D3
S315200112D00160DFF8E8164666091945650166BDE82D
S315200112E0F140CEE7F2BD2DE9F04106468846144687
S315200112F01D46FFF7B1FFA84203D02846FFF787FF17
S31520011300B8B9DFF8AC76386840F001003860DFF80C
S31520011310AC067E6540443866FFF7B3FF48B9786F5F
S31520011320002103E004F8010B000A491CA942F9D364
S315200113300020BDE8F0812DE9F04100F108070026E3
S3152001134038780C46154601281DD10A220021002095
S3152001135000F06AF8804609E03869042322464146AE
S31520011360FFF7C1FF06000BD12D1F241D042DF3D23B
S3152001137035B13869EBB222464146FFF7B4FF06463E
S31520011380787EFFF773FF3046BDE8F0812DE9F04105
S3152001139000F10806002730780C461546012828D189
S315200113A00B220021002000F03FF880460EE00022AB
S315200113B0002000F021F80428FBD33069042341469C
S315200113C0FFF774FF070011D12D1F241D042DEED226
S315200113D065B10022002001E000F00EF8A842FBD3FF
S315200113E03069EBB24146FFF761FF0746707EFFF792
S315200113F03DFF3846BDE8F081215CC300401C994081
S315200114000A4370470B46014680B5184600E080B571
S31520011410F1F7F8FDBDE80140E6E6DFF8980500683A
S31520011420400800F0010070470907090E41EA002033
S3152001143002F00F010843704700F1180210684018A6
S31520011440517B012913D1537A0021082B08BFD17A68
S3152001145003D0102B04BFD17A491C20FA01F24B1C70
S315200114609A404FF0FF3303FA01F188431043704746
S3152001147070B51C46DFF838552B6843F001032B6005
S3152001148001F00F03062B0CD101260023686503B159
S315200114906A66DFF8280540182866FFF7F2FE88B14C
S315200114A070BD0A2BF0D0002B14BF012B012607D0CB
S315200114B0082BE9D00026072B1CBF0B2B092BE4D1C7
S315200114C00123E3E70EB1686F2060002070BD103064
S315200114D00022837C082B08BF0A4602D0102B08BFA6
S315200114E04A00006880187047B0F1004F02D80022E8
S315200114F0400B0BE045F20B20704720B1412802D268
S315200115000022400802E045F21020704701E0400821
S31520011510521C0028FBD10A707047000070B582B0BA
S315200115200546DFF89C4405F11006606A00F47C60EC
S315200115306062606A3168090B40EA01300DF10101F0
S3152001154060627068FFF7D0FF002824D1606A9DF899
S31520011550011000F0C5F96062606A40F00100606226
S315200115606068800C80046060707C317E192813DBF2
S315200115700A000AD01A2801DB012906D01B2801DB23
S31520011580022902D01C2802DB032900F0AC801D2889
S3152001159002DB45F20D2076BD052900F2A480DFE8A5
S315200115A001F08E92969A039E606840F00200606078
S315200115B0206820F0400020602068717E890101F0BA
S315200115C040010843DFF8FC132060206E08402066A6
S315200115D0206E317CB27E090201F44071920202F43E
S315200115E08062114308432066307D6946FFF785FFF7
S315200115F00028D0D1206E9DF80010090101F070015C
S3152001160008432066B07C08286ED1206E2066F07CC7
S31520011610811E0B296FD2C0F10C00216E0006000B32
S3152001162000F470400843206605F13800C279017A3A
S31520011630120602F0706242EA01718279120502F401
S31520011640700211434279120402F470221143027985
S31520011650120302F470421143C278120202F470623C
S3152001166011434278120102F0F0021143027802F08E
S315200116700F02114361668178827B090601F0706150
S31520011680120502F470021143427B120402F4702205
S315200116901143827A120302F470421143427A1202F2
S315200116A002F470621143027BC07A120102F0F00249
S315200116B0114300F00F000843A066002076BD606844
S315200116C040F0280073E7606840F4A0706FE7606817
S315200116D040F420606BE7606840F4A04067E76068EB
S315200116E040F4003063E700E1102803D1206E40F07A
S315200116F001008BE7FCE045F2112076BD70B582B082
S315200117000646AF4C06F11005206A00F47C60206283
S31520011710206A2968090B40EA013069462062686817
S31520011720FFF7E2FE00284ED1206A00F0D7F82062AA
S31520011730206A40F001002062206B00F47C60206367
S31520011740206BA968090B40EA013069462063E868E5
S31520011750FFF7CAFE002836D1206B00F0BFF82063C0
S31520011760206B40F0010020636068800C800460607B
S3152001177016F8300F04284CD8DFE800F03B3F4347EA
S315200117800300606840F00100606060686060206866
S3152001179020F08000206020687178C90101F0800165
S315200117A0084389492060206D08402065206D297CE9
S315200117B0C90101F0800108430DF101012065287D51
S315200117C0FFF79BFE002840F08880206D9DF80110D0
S315200117D0090101F0700108432065687C082819D1A8
S315200117E0206D2065697DE87C01291AD1401CC0B293
S315200117F017E0606840F02000C6E7606840F480701A
S31520011800C2E7606840F40060BEE7606840F480404B
S31520011810BAE76AE0102803D1206D40F00100E0E725
S3152001182066E0A0F10901082955D2C0F11000216D09
S315200118300006000C00F4E06008432065317FB07C8F
S31520011840090601F0706141EA0070B17D090501F4D4
S3152001185070010843717D090401F470210843317D2B
S31520011860090301F470410843F17C090201F4706116
S315200118700843717C090101F0F0010843317C01F034
S315200118800F0108436065F07EB17E000600F07C50B2
S31520011890890401F47C010843717E090301F47C313A
S315200118A00843317E890101F47C610843F17D01F011
S315200118B03F010843A065A97C8808800000F0040246
S315200118C04808400000F00200104301F001010843DE
S315200118D0E065002076BD45F2112076BD9DF8001009
S315200118E0490001F03E010843704745F20F2076BDBD
S315200118F045F20E2076BD70B50446344920688842EB
S3152001190001D0042070BDF1F76EFA2046F5F79AFF53
S31520011910207B072822DAF1F723FAF1F75EFA284D20
S31520011920286820F002002860286840F0010028601D
S315200119302868C007FCD4BFF34F8FBFF36F8F286889
S3152001194004F1210140F002002860207A020008D12A
S315200119504E782046FFF7E2FD68B170BD45F21220B0
S3152001196070BD012804D10E782046FFF7C7FEF3E7A4
S3152001197045F2082070BD1648A8603046FFF776FC70
S31520011980A8B9286813490840A17B40EA0140617B38
S31520011990090601F0F8510843E17B890001F00401B1
S315200119A008432860286820F002002860002070BDC6
S315200119B03C002F40C0002F4094002F4000005AA524
S315200119C000002F408E08FFFF0EF8FFFF53454D43C1
S315200119D085404000FBFF00E000210180704770B583
S315200119E0038800240EE00D5D83EA052308255E00A9
S315200119F01B0444BF86F4805686F021066D1E3346AD
S31520011A00F5D1641C9442EED3038070BD0088088012
S31520011A10704744F64E710180704770B503880024E3
S31520011A200EE00D5D83EA052308255E001B0444BFF5
S31520011A3086F4004686F005066D1E3346F5D1641CF4
S31520011A409442EED3038070BDF8B506460F46144680
S31520011A50032168460025F1F7CDFE00200FF22C2345
S31520011A602CE017F8012B9A5C02F03F0E52068EEA03
S31520011A70050522D54140C2438DF801109DF800107D
S31520011A805140B6F5007F8DF8001016D19DF8022041
S31520011A90010A02F0FD0E82EA4102C94302F0020266
S31520011AA042EA0E02514002F0FE0C01F001018DF8CE
S31520011AB0022041EA0C018DF80210401CB0429DF82B
S31520011AC00110CED3B6F5807F05D19DF8020040F0F6
S31520011AD003008DF802009DF800309DF802005B0896
S31520011AE040EA85029DF800008DF8022000F0FD00F5
S31520011AF040EA410000F0FB0040EA830000F0F703D2
S31520011B00480800F03CF89B0840EA031000F0DF0388
S31520011B10880800F02DF8DB0840EA831000F07F03E7
S31520011B20C80843EAC01020709DF80000C0F30013D6
S31520011B30080943EA40009DF8003000F0FB005B09EC
S31520011B4040EA830000F0F703480900F018F89B09E2
S31520011B5040EA031000F0DF03880900F009F801F0DC
S31520011B608001A270DB0940EA831008436070F1BD51
S31520011B7043EA40109DF8003000F0BF00704743EA69
S31520011B80C0009DF8003000F0EF00704710B500222C
S31520011B900B46591E4BB110F8013B1C001EBF03F02A
S31520011BA00104A2185B08F8D1F2E7104610BD2DE911
S31520011BB0FC4180460C4601A800211746016001AA76
S31520011BC021464046FFF740FF002001A93A5C095C07
S31520011BD051400DF80010401C0328F6D30321684616
S31520011BE0FFF7D4FFB8F5807F08BF0B2503D0B8F5E2
S31520011BF0007F08BF0C2510B945F2343044E0A842D5
S31520011C003CD19DF802009DF80030020902F0020243
S31520011C10C0F3C0011143420902F004029F08C3F335
S31520011C20400607F0020711433E43DF089DF80120D5
S31520011C3007F004071B093E4303F008033343D6008C
S31520011C4006F010063343960006F02006334356006D
S31520011C5006F04006334302F080021A43B8F5007FAE
S31520011C6003D1C00100F480700243A05C012303FA72
S31520011C7001F14840A05445F2353005E001280CBF5A
S31520011C8045F2373045F23630BDE8F6810055560328
S31520011C90590C0F5A5A0F0C590356550065303366A5
S31520011CA03C696A3F3F6A693C663330656633306515
S31520011CB03F6A693C3C696A3F653033660356550085
S31520011CC05A0F0C59590C0F5A00555603693C3F6A55
S31520011CD030656633336665306A3F3C690C595A0F65
S31520011CE055000356560300550F5A590C0F5A590CD5
S31520011CF056030055550003560C595A0F6A3F3C6945
S31520011D003366653030656633693C3F6A6A3F3C69B4
S31520011D103366653030656633693C3F6A0F5A590C24
S31520011D2056030055550003560C595A0F0C595A0F94
S31520011D3055000356560300550F5A590C693C3F6A04
S31520011D4030656633336665306A3F3C690356550014
S31520011D505A0F0C59590C0F5A0055560366333065E4
S31520011D603F6A693C3C696A3F653033666530336654
S31520011D703C696A3F3F6A693C6633306500555603C4
S31520011D80590C0F5A5A0F0C59035655000029D0F8F1
S31520011D90C01014BF41F4807121F4807107E000293D
S31520011DA0D0F8C01014BF41F0020121F00201C0F8A1
S31520011DB0C010704782B00021019142F2107209E0F1
S31520011DC000BF0099491C009100999142F8D30199CD
S31520011DD0491C01910199814238BF0021F3D302B0F8
S31520011DE07047F0B5144606460F460FF270228BB0A7
S31520011DF000F02DF900F088F8072002901DB120048B
S31520011E000390012001E00020039000F00EF86946BE
S31520011E103046B847002802BF05982D4908420BB025
S31520011E2014BF40F209700020F0BD8DF8110002A800
S31520011E30019000200090704770B5054614460FF2B8
S31520011E4024208CB000F019F837206946029020042E
S31520011E5003900120FFF7E9FF2846B047002803BF7A
S31520011E6005981B49084240F2097004D1800654BFE7
S31520011E7040F20C7000200CB070BD0E462421D0E932
S31520011E800023CDE9002302A8F1F7B4BC30B50446FE
S31520011E900FF2D8108BB000F032F80020694602907C
S31520011EA024E070B5054614460FF2C8108CB0FFF732
S31520011EB0E4FF102000F00EF8002802BF059804491F
S31520011EC008420CB014BF40F20970002070BD00001A
S31520011ED00800F9FF0394029001208DF8110002A851
S31520011EE0019000200090694628463047FFF79FFF62
S31520011EF02046A84708B140F209700BB030BD0D4607
S31520011F00D0E90023CDE9002302A82421F1F772BCF0
S31520011F1030B504460FF264108BB0FFF7F0FF00F0E6
S31520011F202AF810B140F209701AE000F01BF814D11A
S31520011F3001212046FFF733FF41F28830F0F7DBFC21
S31520011F4000F016F84FF47A70F0F7D5FC002100F076
S31520011F5010F8606A10F0706F01D1284600E0002069
S31520011F600BB030BD606A40F22A7510F0706F704771
S31520011F70012120460AE70B206946029000200390A2
S31520011F8001208DF8110002A8019000200090204622
S31520011F9028472DE9F0411446064688460FF2E40209
S31520011FA0B0B000F054F807A82421F1F723FC02A8C9
S31520011FB01421F1F71FFC10A88021F1F71BFC012742
S31520011FC0002007940123089010A88DF8257002227D
S31520011FD003950A210497059007A8019002A800906D
S31520011FE030468DF80B7000F02DFC0AE00123022209
S31520011FF00A21304600F026FC0A213046002700F04F
S3152001200013FC69463046C04710B140F209701BE007
S315200120100120FFF7CFFEF06B4002F2D4B06E10F034
S31520012020802F18BF002FE1D16420FFF7C3FEF06B8C
S31520012030000258BF40F2297006D5306C20F470603A
S315200120403064306C3064002030B0BDE8F0811D462C
S31520012050D2E90001CDE9000170470000000000002F
S315200120600000000000000000000000000000000049
S315200120700000000000000000000000000000000039
S3152001208000000000000000000000000000F01F0218
S31520012090DFF82C38000A914003EB800010B50324A9
S315200120A094400368A3431943016010BD00210FF634
S315200120B0580252F82130834203D0491CC9B2032960
S315200120C0F7D30846704738B50D460446616BDFF8ED
S315200120D0F40701406163A16B0840A0632046FFF726
S315200120E0E5FF00F0DBFB0CD000290AD400F0D0FB81
S315200120F0DFF8D427490942F82100BFF34F8FBFF3F8
S315200121006F8F616BDFF8C4070143616315B1A16B62
S315200121100843A06331BD000010B52AB19368B3F519
S31520012120803F01D3042010BD4B7A5B1E082B16D8A5
S31520012130DFE803F005090D111105090505000B6AF4
S3152001214043F4D0130AE00B6A43F4D81306E00B6A72
S3152001215043F4102302E00B6A43F400330B620B7A3B
S31520012160032B03D10B6A43F440030B62002A3FD0B1
S315200121700B6A43F400130B62D46814B143F01003C5
S315200121800B629368022B0ED30B6A43F022030B6278
S31520012190147814B143F004030B6253781BB10B6A14
S315200121A043F080030B624368546803F46043C4F32D
S315200121B00C042343946843EA0443436091F82010B6
S315200121C00906816C0BD541F080018164D0F8C810D5
S315200121D041F48051C0F8C8109168016008E021F0EF
S315200121E080018164D0F8C81021F48051C0F8C8104C
S315200121F0002010BD10B54A7AD2B10269CA604A7A66
S31520012200032A15D142690A6182694A61C0698861D6
S31520012210042001EB800293681B020228936003D3FA
S31520012220546843EA146393600246501E002AF0D193
S31520012230C86970B14A7A012A18BF022A03D0082A2E
S3152001224018BF062A05D1C968084202D041F6661090
S3152001225010BD002010BD70B5436C4C6814F0030FFF
S3152001226003F0FF0300F064F803D2A41A9C4288BF4E
S315200122701C46002305E0056ACE685B1C46F8225001
S31520012280521CA342F7D3104670BD2DE9F04100F050
S31520012290A1F811F0030202D0091D891A696000F024
S315200122A091F814E04A0105D54FF0806041F66A168F
S315200122B020631EE011F0B87F02D0A978B9B1276357
S315200122C0024629462046FFF7C6FF202121634045C5
S315200122D00FD2216BDFF8F8251142FAD0216BEA786B
S315200122E0002ADFD08A06DDD544F2200002E001264D
S315200122F02763022020633046BDE8F08130B5436C68
S315200123004C6814F0030FC3F3074300F011F803D20E
S31520012310A41A9C4288BF1C46002305E00D695B1C5C
S3152001232055F82250521C0562A342F7D3104630BD00
S3152001233004D0251D04F003042C1B4C608C684D68C9
S315200123406C43A408A34270472DE9F04100F042F8FE
S3152001235011F0030F04D00A1D01F00301511A69601F
S3152001236000F030F80CE011F0B87F02D0A978B9B1AD
S315200123702763024629462046FFF7C0FF1021216325
S3152001238040450FD2216BDFF84C251142FAD0216B43
S315200123904A01E8D54FF08060206341F66A100FE0CC
S315200123A001262763216BDFF830050142FAD0216B24
S315200123B011F0B87F02D0A97801B9012620633046F1
S315200123C0BDE8F081A9686A684FF0B87751434FEAB2
S315200123D0910870470D46044669680020002670471B
S315200123E030B5826CC3680C680B6A22F0360224066B
S315200123F004F07C5403F47B0503F036031A432C4383
S31520012400826449688160C46030BD10B504460020ED
S31520012410A2B9206BDFF8C4241042FAD0206B420106
S3152001242048BF41F66A1006D410F4702F12BF01205E
S315200124302046FFF7DFFEDFF8A814216310BD10B593
S315200124400023BAB1026BDFF89C442242FAD0026B18
S31520012450540148BF41F66A1308D4DFF88C4422425E
S3152001246004D0897809B1D10200D50123DFF87C1483
S31520012470016307E0CA6812B1FFF707FF01E0FFF722
S3152001248063FF0346184610BD38B504460D46FFF7CF
S315200124900DFE0FF28842032132F91000FFF7F6FDF7
S315200124A064224FF08071204600F02EF8A16A626CFA
S315200124B0E06A2B791B0103F0300321F44C71194397
S315200124C06B7902F0E02220F470201A43AB7942EABC
S315200124D00342EB791B0203F4F8531A432B7A1B06AA
S315200124E003F0F8531A432B681B0403F47023184393
S315200124F0E0626264A162A06C002140084000A064F1
S315200125002046BDE83440DEE510B5C36A01F0E0643B
S315200125102343C36201E03AB1521EC36A0B42FAD188
S31520012520100002D0012000E00020C0B210BD006CD6
S315200125304FF40072000C00F0070002FA00F08860E8
S315200125404FF6FF70C860704703460846F0B59E6C8B
S315200125500025002100244FF480773607B0FBF2F6E0
S3152001256044BF01244FF4007796B3B0FBF6FC6245D5
S3152001257038BF761C112E17D3310900E0491CB7FB51
S31520012580F1F201FB1272002AF8D10129F6D0B6FB2D
S31520012590F1F500E06D1C01FB05F2B242FAD3B0FB66
S315200125A0F5F0B0FBF1F00BE01022B2FBF6F272432C
S315200125B0B0FBF6F0D2F1100208BF314602D0354603
S315200125C005B16D1E21B1002C14BF02220122D1407A
S315200125D0DA6A2C0104F0F004090201F47F416FF359
S315200125E00F1222431143D962596A0907FCD5F0BD5E
S315200125F0C26A42F00062C26201E039B1491EC26A72
S315200126001201FAD4080002D0012000E00020C0B255
S3152001261070472DE9F04D5468956805FB04F8D46898
S3152001262004B914690A78012A02D1250507D101E0E6
S31520012630022A01D0150005D114F0030502D041F676
S31520012640681032E018F00305DFF8A4A24FF6FD7BEF
S315200126504FF6FC7C1CBF08F10406A6EB05081AB14F
S31520012660022A55D023D37DE01A0654BF046084651F
S315200126700A78032A14D0826ADFF878321A408262F5
S31520012680826A0B7849781B0203F44073C90601F06C
S315200126906051194311438162816C41F001018164CA
S315200126A0816B21F0300181630020BDE8F08D00F0BF
S315200126B05CF823F04043B3EB420F2FD34B684FF026
S315200126C0000E10E02F03AD0843F82E7047F01107D6
S315200126D043F82E702703776047F02107776004EBD4
S315200126E085040EF1020EBEEB420F03EB8E0605D2D8
S315200126F0D84526BF6546D0444546E3E756F8042C1F
S3152001270042F0020246F8042C002202608365AFE7FC
S3152001271000F02BF89B00DB08934201D20320C4E78B
S315200127204B684FF0000E0CE074602E0443F83E60B7
S3152001273046F0210643F83E60AD0804EB85040EF110
S31520012740010E964503EBCE0605D2D84526BF654632
S31520012750D0444546E8E756F8082C42F0020246F8EE
S31520012760082CD1E741F665109FE76246B8FBF2F2E5
S315200127700CFB128303B1521C8B6870472DE9F04183
S3152001278004468846556816680027606AC007FCD447
S3152001279016B1606A8007FCD4206BC00402D500F014
S315200127A038F834E0324629462046FFF7B5FC08B111
S315200127B004202CE0002E18BFB8F1000F11D0F078BC
S315200127C078B92B6A324641462046FFF722FF41F669
S315200127D06811884205D010B141F6651017E001272E
S315200127E001E000F01CF829462046FFF7F9FD002EEE
S315200127F0294620460CBF0022F278FFF706FE36B1A5
S3152001280028B93A4631462046BDE8F04117E6BDE8EB
S31520012810F0814FF48050206341F669107047A06C17
S3152001282040084000A0647047826E090201F4FE410F
S3152001283022F4FE4211438166806E10F0802018BF7B
S315200128400120704730B500F13C04B3B1E3682A4D4D
S3152001285001F0FF01120402F4E02243F00073E36069
S31520012860D0F8CC302B401943114341F08071C0F888
S31520012870CC10206840F4400008E0D0F8CC1021F0BC
S315200128808071C0F8CC10206820F44000206030BD53
S31520012890012200F01F0002FA00F070470FF27401C6
S315200128A031F91000014611F1800F7047134A14487F
S315200128B05168D2681047114A12489168D268104768
S315200128C068C00F40C0AE80EA80E100E0FB507F1572
S315200128D020007005100070050200700101000F0034
S315200128E001000F04020070150000701102407015DE
S315200128F00400FFFFFFFCFFC700FFF8FF70AC20209C
S3152001290000002C4000402C400000000000002C401C
S3152001291000402C4080FF6E006F000000FFFF020682
S315200129200406000070B584B00446086870B1684694
S315200129300022002300252CC002208DF80000012052
S315200129408DF801001B480190082002900A4669462D
S315200129502046FFF713FF0546012D12D1666AF007BF
S3152001296006D54FF47A724FF000712046FFF7CCFD61
S31520012970B00706D54FF47A724FF080612046FFF7F3
S31520012980C3FD284604B070BD10B504460F20A060D3
S31520012990022020738020607304F10801A0730820AF
S315200129A0E07320742068FFF76FFD03486062002002
S315200129B010BD0000D88720202529012000F14801DB
S315200129C000238A6F22F002028A670A6822F008022F
S315200129D00A6002220A21FFF735BF00007047000076
