S0130000666C6173686C6F616465722E737265638C
S31520002000406021207D2400207B240020E12901201E
S315200020107B2400207B2400207B240020000000005D
S315200020200000000000000000000000007B240020CB
S315200020307B240020000000007B2400207B2400203D
S315200020403F5F01203F5F01203F5F01203F5F01206E
S315200020503F5F01203F5F01203F5F01203F5F01205E
S315200020603F5F01203F5F01203F5F01203F5F01204E
S315200020703F5F01203F5F01203F5F01203F5F01203E
S315200020803F5F01203F5F01203F5F01203F5F01202E
S31520002090094B012011510120195101202151012004
S315200020A0295101203151012039510120415101206E
S315200020B049510120515101205951012061510120DE
S315200020C0695101207151012079510120815101204E
S315200020D089510120915101203F5F01203F5F01205E
S315200020E03F5F01203F5F01203F5F01203F5F0120CE
S315200020F03F5F01203F5F01203F5F01203F5F0120BE
S315200021003F5F01203F5F01203F5F01203F5F0120AD
S315200021103F5F01203F5F01203F5F01203F5F01209D
S315200021203F5F01203F5F01203F5F01203F5F01208D
S31520002130995101203F5F01203F5F01203F5F012031
S315200021403F5F01203F5F01203F5F01203F5F01206D
S315200021503F5F01203F5F01203F5F01203F5F01205D
S315200021603F5F01203F5F01203F5F01203F5F01204D
S315200021703F5F01203F5F01203F5F01203F5F01203D
S31520002180232A00203F5F01203F5F01203F5F01207F
S315200021903F5F01203F5F01203F5F01203F5F01201D
S315200021A03F5F01203F5F0120A1510120A95101205D
S315200021B03F5F01203F5F01203F5F01203F5F0120FD
S315200021C03F5F01203F5F01203F5F01203F5F0120ED
S315200021D03F5F01203F5F01203F5F01203F5F0120DD
S315200021E03F5F01203F5F01203F5F01203F5F0120CD
S315200021F0B15101203F5F0120B9510120C151012079
S315200022003F5F012075560120C9510120D15101207F
S315200022103F5F01203F5F01203F5F01203F5F01209C
S315200022203F5F01203F5F01203F5F01203F5F01208C
S315200022303F5F01203F5F01203F5F01203F5F01207C
S315200022403F5F01203F5F01203F5F01203F5F01206C
S315200022503F5F01203F5F01203F5F01203F5F01205C
S315200022603F5F01203F5F01203F5F01203F5F01204C
S315200022703F5F01203F5F01203F5F01203F5F01203C
S315200022803F5F01203F5F01203F5F01203F5F01202C
S315200022903F5F01203F5F01203F5F01203F5F01201C
S315200022A03F5F01203F5F01203F5F01203F5F01200C
S315200022B03F5F01203F5F01203F5F01203F5F0120FC
S315200022C03F5F01203F5F01203F5F01203F5F0120EC
S315200022D03F5F01203F5F01203F5F01203F5F0120DC
S315200022E03F5F01203F5F01203F5F01203F5F0120CC
S315200022F03F5F01203F5F01203F5F01203F5F0120BC
S315200023003F5F01203F5F01203F5F01203F5F0120AB
S315200023103F5F01203F5F01203F5F01203F5F01209B
S315200023203F5F01203F5F01203F5F01203F5F01208B
S315200023303F5F01203F5F01203F5F01203F5F01207B
S315200023403F5F01203F5F01203F5F01203F5F01206B
S315200023503F5F01203F5F01203F5F01203F5F01205B
S315200023603F5F01203F5F01203F5F01203F5F01204B
S315200023703F5F01203F5F01203F5F01203F5F01203B
S315200023803F5F01203F5F01203F5F01203F5F01202B
S315200023903F5F01203F5F01203F5F01203F5F01201B
S315200023A03F5F01203F5F01203F5F01203F5F01200B
S315200023B03F5F01203F5F01203F5F01203F5F0120FB
S315200023C03F5F01203F5F01203F5F01203F5F0120EB
S315200023D03F5F01203F5F01203F5F01203F5F0120DB
S315200023E03F5F01203F5F01203F5F01203F5F0120CB
S315200023F03F5F01203F5F01203F5F0120FFFFFFFF7E
S31520002400002A01D101207047F0B41F460346032459
S315200024102340002B09D00424E31A0170013008243C
S31520002420E141521E26D05B1EF7D1042A1ADB13D0B7
S31520002430002F11D00C460D460E46102A02DB72C024
S31520002440103AFAE70C2A02DB32C00C3AFAE7082ADD
S3152000245002DB12C0083AFAE7042A03DB01600430E3
S31520002460121FF9E7002A05D0017001300824E14146
S31520002470521EF7D1F0BC00207047FEE772B60E4818
S315200024800E4988600022002300240025002600270C
S31520002490B846B946BA46BB46BC46094885460948A9
S315200024A08047094880470948804762B600200021B6
S315200024B0074A9047FEE700000020002000ED00E0DC
S315200024C040602120FB51012081760020C776002024
S315200024D0B17300207931002000000000CB310020AC
S315200024E00000000019330020A3340020A33200206E
S315200024F0B9330020793500200000000000000000DC
S31520002500000000000932002000000000E131002018
S31520002510B93300209335002000000000F13500205B
S31520002520000000002F310020000000003B32002078
S31520002530000000000000000000000000113600200E
S31520002540000000003736002000000000653600201D
S31520002550A3340020513200200000000000000000BB
S3152000256000000000B9320020A33300200000000044
S31520002570195F0120235F01202D5F0120000000004C
S3152000258000000000090000003F3D0020010100007E
S3152000259017450020080000005B4D002000010000C8
S315200025A0B1530020100100007D5B002020010000B7
S315200025B09F680020210100000B630020000000001E
S315200025C000000000D7380020393A00204D3A00207C
S315200025D0CF3A00207F3B0020853C0020294A01205D
S315200025E0A74A0120C14A0120000000000000000087
S315200025F0F54A0120037100205D6E0020B96E00208F
S31520002600A16F0020DD6F0020F36F0020376F0020C0
S31520002610355F002019610020B3610020836200200D
S31520002620AD5F0020656200207762002065A900204A
S3152000263069A9002075A9002085A9002000000000B6
S31520002640000000000100000001000000BB2900205E
S31520002650DC250020EC250020F026002010000000BC
S3152000266001000000000000004427002000000000B8
S315200026705427002000000000000000000000000099
S31520002680000000000000000000000000554B012063
S315200026906F4B0120234C0120E34C012054B4202011
S315200026A091650020CD660020536700202968002010
S315200026B0D96500200B6800201D680020E94D002008
S315200026C08D500020875100208F5200206F4E002011
S315200026D07B5300208D530020A94A0020234C002044
S315200026E0354C0020694C002000000000D54C00200D
S315200026F0CD4D0120D34D0120414E0120D94E012040
S31520002700D14D0120E54E0120AD4D01200359002079
S315200027100D59002025590020F55900209B5A0020EC
S31520002720A159002000000000F93D00203941002079
S31520002730634200202D44002031400020F343002036
S3152000274005440020F5520120F9530120A754012009
S31520002750075501201555012039550120C355012063
S315200027605B5601206B5601206F56012000000000A9
S3152000277038B504463D4D00202862C5E90000C5E96C
S315200027800200C5E904006862394800F0ABF8C5E9E3
S31520002790060120460FF25901BDE8344000F050B939
S315200027A000F064B970B50C46304D296A072904BF7C
S315200027B0696A88421AD100F01CFBC0EB0016D5E9E5
S315200027C00001D5E9022310180A21B6FBF0F0484390
S315200027D04FF49661B0FBF1F0401D0A21B0FBF1F0F9
S315200027E04FF4966148432060002070BD012070BDE3
S315200027F02DE9F84306461D4F00F06AF80446386A6C
S31520002800D7E904598846421C651BD7E9060168EBBF
S315200028100909494502D82CBFA8420122012A3A6259
S3152000282006D0042A08D0052A0ED0072A0FD018E091
S31520002830C7E900487E6214E0D7E90001201A68EB58
S315200028400101C7E900010CE0C7E9024809E0D7E920
S315200028500201201A68EB0101C7E90201304600F0A7
S3152000286005F9C7E90448BDE8F18300000098202057
S315200028708038010080B52B480022016841F4405180
S31520002880016000202849086028484FF0FF31016187
S3152000289082610122C261826942F0040282618269F8
S315200028A042F00102826101600121C160816000F075
S315200028B0A0FAC0001E49B0FBF1F000B901201D4965
S315200028C0086001BD1848016841F0020101607047A7
S315200028D081B01948016840680090009801B0C9434A
S315200028E0C043704713490968A1FB0001C00840EAAC
S315200028F04170C908704738B50446FFF7E9FF0D4A0D
S315200029001268A2FB0423D20842EA4372141841EB50
S31520002910D305FFF7DDFFA942FBD301D8A042F8D3A8
S3152000292031BD00006CC00F40004008400041084007
S3152000293040420F0098AC2020E040084009010028C2
S3152000294002D4554A11547047544A00F00F001044DF
S3152000295000F8041C704710B5039C01F00701240100
S3152000296004F010042143016002B1136010BD002160
S31520002970016002B11160009808B1019901607047A9
S3152000298030B583B000F014F82068012220F480507E
S31520002990206007984168089B9A409143416037BD63
S315200029A030B583B000F004F841F2B000206037BDA6
S315200029B00025069C01950094CDE770B584B0384C6F
S315200029C0384D3948394A19B1022919D00DD37FBD5E
S315200029D041F2B00600950196002300F01EF80196FC
S315200029E00023009500F019F87FBD0D210092029179
S315200029F02F490191002300220521FFF7C1FF7FBD4A
S31520002A00009200230022FFF7CBFF0095002300222F
S31520002A1002212046FFF7C4FF7FBD00220221204667
S31520002A20A5E710B5234C2068800408D522484168C4
S31520002A30080004D0012088474FF40050206010BDC4
S31520002A4010B51D481A4C416004220D21204600F085
S31520002A5097FA6069012140F4005060615020FFF729
S31520002A606DFF4FF480301549086010BD80B54FF4D6
S31520002A70803013490860BFF34F8FBFF36F8F00215B
S31520002A805020FFF75BFF00220D21094800F078FA5D
S31520002A9000200949486001BD00E400E018ED00E08F
S31520002AA0EC801F40DC821F40F0801F40E0821F40E8
S31520002AB000801B4018801B404CB4202008E100E019
S31520002AC088E100E0002808BF00F023B87047DFF84F
S31520002AD04003016841F0030101604020DFF8341310
S31520002AE00860DFF834034FF0004181634FF08041E6
S31520002AF0816300210160DFF82403016841F4C011DD
S31520002B000160DFF81C0301684908490001600120C3
S31520002B107047F0B5DFF80C03DFF80C130860DFF818
S31520002B200C13086909680122DFF80443DFF804530F
S31520002B30C1F38003DFF800130E68400D00F0030098
S31520002B4002FA00F0BD4AF6037AD5002B14BFBC4E1C
S31520002B50BC4E0E600E68002EFCD50E6B26F48056F9
S31520002B600E630E6B002EFCD5B74EDFF8E0C2376938
S31520002B7027F03F374CEA070737614FF440570F617C
S31520002B800F69002FFCD50F69DFF8C4C227F4803700
S31520002B900F61376827F03F374CEA07073760AD4E9D
S31520002BA00127376003B92C46B4FBF0F313600122EA
S31520002BB0A94D00E0521CB3FBF2F4AC42FAD2736882
S31520002BC0A64C521E401E800200F4E05023401404FE
S31520002BD004F4E02423431202184302F44072104303
S31520002BE0706070699E4AC009C00140F003007061A0
S31520002BF0B06840F44020B060B068104040F0A0506B
S31520002C00B060F068974A104040F0C74040F001009D
S31520002C10F060F06840F44030F060706920F4E720FE
S31520002C2040F484307061086820F480300860086BB6
S31520002C3020F480300863086920F480300861F0BDF4
S31520002C4003B92C46B4FBF0F01060F0BD1AE170B564
S31520002C508AB00C46154605A80FF26C21142200F006
S31520002C60E1F968460FF27421142200F0DBF9002DF9
S31520002C7018BF012D36D1744801688A097A49002D7A
S31520002C800B680CBF05AD6D46260023F0607329D076
S31520002C900A2CA8BF012415F8146005EB44046478B7
S31520002CA0641EE40504F060742343704C06F03F066E
S31520002CB0256846EA821245F0020525604D6E25F408
S31520002CC040654D660568AA4218BF026008688342BF
S31520002CD018BF0B60486E40F440604866206820F0BC
S31520002CE0020020600AB070BD4948016841F4406185
S31520002CF0016070474648016821F4406101607047D1
S31520002D0030B54E4C002300202468594D19B10229B4
S31520002D100AD002D319E0234618E02968C1F301211D
S31520002D20491CB4FBF1F311E0A968524C46490968E5
S31520002D30AB6801F03F01B4FBF1F11224C3F3C25397
S31520002D4061435B1CB1FBF3F300E00420136030BD4C
S31520002D50042218B911B1484800220860104670476D
S31520002D6030B5434906280A6842F040020A600A68DC
S31520002D7022F080020A60414A13680C6823F47C130F
S31520002D8024F4E02414D8DFE800F0040608130B0D21
S31520002D90100023200DE0222000E01B20072509E05B
S31520002DA01D2003E01220042504E01320032501E062
S31520002DB01220082543EA00406B1E1B0403F4E0237F
S31520002DC023431468A04218BF10600868834203D0CA
S31520002DD00B60486BC007FCD430BD2948016841F020
S31520002DE03001016070472648016821F030010160FA
S31520002DF070471F48114A016880681268C1F3012193
S31520002E00491C00F03F00401CB2FBF1F147E00000F6
S31520002E1080C00F4014800D4000900D40B0810D40C1
S31520002E2040012E4000366E0114AB202060441F4026
S31520002E3000A4781F007B9A1700800D400086202072
S31520002E405820010042200100F0800D401818131868
S31520002E5023231A0F10C00F4001449508FFE0F8FF06
S31520002E60CFFFFFE380FF7F9C1CC00F4000802A40DD
S31520002E7014C00F4000389C1C80F5E40900810D40E9
S31520002E8074C00F400148024904E000BF14C00F403F
S31520002E900086202000680968C0F30120401CB1FB91
S31520002EA0F0F0704738B504460D4602E00120FFF7E2
S31520002EB022FD20462946441E61F10005002291424A
S31520002EC008BF9042F2D131BD00002208160818062C
S31520002ED01E0412060E0611040C0616020000180621
S31520002EE016040C061E021203160221011A011601EF
S31520002EF0F8B504460D46164600200FF2E40151F8B7
S31520002F002020A24202D0401C0628F8D30FF2E80166
S31520002F10144A31F9100000F01F01000A02EB80006C
S31520002F20032202FA01F102688A431143016001205B
S31520002F30616900FA05F7F84301406161317811B9FA
S31520002F406168084006E072782946204600F00CF8B1
S31520002F50606838436060B27829462046BDE8F8406C
S31520002F600EE0000068C00F400123002A026803FA21
S31520002F7001F10CBF22EA01011143016070470000F4
S31520002F80F0B5C469012303FA01F5AC431029C461E5
S31520002F9032BF00F10C0400F1100410394900032659
S31520002FA08E40F743521E042A19D8DFE802F00306A2
S31520002FB00A111500206838400CE0206803FA01F158
S31520002FC003E02068022202FA01F13840084301E0BA
S31520002FD0206830432060F0BDC1692943C161F0BD3E
S31520002FE00000000000801B4000C01B4000001C4069
S31520002FF000401C4000000C40FFFF1A011E001A0270
S315200030000C031E0162B38B0708D0521E11F8013B38
S3152000301000F8013B00F024808B07F6D1830740F0AF
S31520003020208000BF103A07D330B4B1E83810103AE8
S31520003030A0E83810F9D230BC530724BFB1E80810F5
S31520003040A0E8081044BF51F8043B40F8043BD207DF
S3152000305024BF31F8022B20F8022B44BF0B780370D3
S315200030607047083A07D3B1E80810083A40F8043BFD
S3152000307040F804CBF7D25307E4E70000DFF8E81660
S3152000308000200969C9680860704770B5DFF8D8461E
S3152000309082B0206A00258DF800504669002E44D063
S315200030A02169C9680A68012A2FD0756801F10802CA
S315200030B00023091DA84705001FBF42F21270854252
S315200030C042F21370854230D12369DE68B16861B35C
S315200030D072681078050006D0142804DA9B6803EB82
S315200030E0C003083B00E0002373623BB11B681D0050
S315200030F004D0104600259847012013E042F21075AF
S315200031000146284600F0C5FA0FE0486A40B14168FA
S31520003110080002D06846884705460DB1002001E028
S315200031209DF800002169C9680860284676BD80B5EB
S315200031300178002000F0ADFADFF82C06006A41691C
S3152000314009698847022000F029FBBFF34F8FDFF87B
S315200031501C06DFF81C26016801F4E06111430160BA
S31520003160BFF34F8F00BFFDE7DFF8FC05182100698C
S31520003170C0680C3000F03EBB10B5044660680838C5
S3152000318012D0401E0AD0F73811D0401E09D00F3871
S3152000319010D0103814D0401E0FD014E000F0A1FD3E
S315200031A012E001F093F90FE001F0CAFD0CE002F005
S315200031B0B9F809E002F036FC06E003F089F803E0EE
S315200031C003F050FB00E0042006E0DFF89C3510B544
S315200031D000F0D9F99B6998472178BDE8104058E25C
S315200031E010B500F097F8DFF8800561680069C068BF
S315200031F00161082180F820102178002000F049FA8A
S31520003200BDE8104003F092BD30B583B00021DFF851
S31520003210584501910091E568816840686B4601AA8E
S31520003220AD68C0B2A84722690021D2681161009911
S315200032308A08019900F041FA37BDDFF82C2510B530
S31520003240D26804466068A168D268C0B29047C3E7D6
S3152000325010B582B0044662680420092A03D1A0680A
S3152000326000F03BFB19E0082A03D1A06801F034FCEA
S3152000327013E0C2F3032101290FD16946104603F05A
S315200032800BFF50B9009ADFF8E01414238968A06870
S315200032905A431144096909698847217800F0F9F9E8
S315200032A013BD10B500F036F800F043F8042180F87D
S315200032B020102178002090E770B5DFF8AC5400F09C
S315200032C029F829691320DFF8AC64C96881F8200041
S315200032D02969E068C96881F82100E06848B9286949
S315200032E01021C0680161466121780020BDE8704048
S315200032F0CFE106F11001304603F02EFF2869482160
S31520003300C068016106F11001416148210020BDE835
S315200033107040E7E1044627E710B5FFF7FBFF00F012
S3152000332008F8032180F82010A1680020BDE810408D
S31520003330DCE1DFF83404E1680069C0688161A168D6
S31520003340016161684161704738B50446DFF8185459
S3152000335028690021C0684161016190F82000042895
S3152000336004D128680069804704B904462868406962
S31520003370804704B904462869C06890F82010204682
S3152000338000F087F942F21270844201BF2869C068B2
S3152000339090F82000082803D1BDE8314003F005BD90
S315200033A031BDDFF8C4130969C96891F821100029D5
S315200033B008BF00F001B874E02DE9F0430446DFF8B9
S315200033C0A863306983B0C068016921B900202070E4
S315200033D0FFF7BAFF62E0012101232170D0F818809F
S315200033E00769D0F8149000206A460090306A01A937
S315200033F045696D68A847050005D0306A4169C968E6
S315200034008847284603E0009830B942F21270FFF749
S315200034109BFF0020207042E0B84288BF38460090CB
S315200034203069C06890F82010082912D10199C1602E
S315200034300099C1610099019803F082FC054642F289
S315200034407D7085421CBF42F27470854213D10025DF
S3152000345011E0132905D1009A01994846FFF7D2FDBC
S3152000346007E03568019A009943464846AD68A84763
S3152000347005460098814400983F1A04D04DB1306A21
S315200034804169C96888472846FFF75EFF00202070FB
S3152000349004E03069C0680761C0F814900020BDE8D8
S315200034A0FE832DE9F84F0546AF4E3069C0680169A5
S315200034B021B900202870FFF747FF5AE00121DFF8E5
S315200034C0B8B22970816900910769D0F81480D0F8C4
S315200034D00C9090F820A0306A416949698847B84223
S315200034E088BF3846B9F1000F044613D02246494614
S315200034F05846FFF787FD306A3F1B2246012359466F
S315200035004469A468A04707B170B3FFF71DFF0020E8
S3152000351028702EE0BAF1030F04EB080919D1D6F86A
S3152000352000C0009B5A4621464046C846DCF804C0E7
S31520003530E0475FEA000ADED0306A012300225946BE
S315200035404469A468A0475046FFF7FEFE0020287075
S3152000355010E0BAF1130F01D0C846CCE72246414607
S315200035605846FFF74FFDF7E73069C0680761C0F896
S3152000357014800020BDE8F28F7B4B10B500F003F8D5
S31520003580DB68984728E61B680446E268A1686068FD
S3152000359070472DE9F0410446784F6568D4F80880D5
S315200035A0E0680026386018B103F06EFE00B90426E4
S315200035B0284603F051FE00B904262178304600F053
S315200035C068F89EB97D60002000F0E8F83868C7F8F2
S315200035D0088018B180F3088880F309887968404606
S315200035E088470020BDE8F04100F0D8B8BDE8F0815A
S315200035F038B50446606803F02FFE08B9042005E0BC
S315200036006568012000F0CAF8A068A84721780FE075
S3152000361038B5044603F024FFA368616804F10C0260
S31520003620574803F060FF054603F020FF217828461F
S31520003630BDE834402DE030B583B000210446CDE905
S31520003640001103F00DFFA36861686A464C4803F039
S315200036509FFF054603F00AFFA2686946284600F048
S315200036605EF837BD10B5FFF755FE3F48A2680169E1
S31520003670C9680A6162684A61102281F820200069BF
S31520003680E168C06880F82110A1680020BDE81040DC
S3152000369080E010B584B0A02201903348006A8DF8EE
S315200036A00020002202918DF8012000238DF80220AF
S315200036B002228DF8032044692CE010B588B0A72398
S315200036C000F060F8531C019000208DF8033006E0CE
S315200036D06C4651F8203004EB8004401CA3609042D5
S315200036E0F6D333E010B584B0142202E010B584B0CE
S315200036F0A32201901C48006A8DF800200122029125
S315200037008DF8012000228DF8022002228DF8032058
S31520003710446900230C226946A468A0471FBD10B542
S3152000372088B0AF2300F02EF802238DF803300190E5
S3152000373050B99DF80300029200EB92008DF8030029
S3152000374003A8FFF76FFC01E00020029006489DF8D1
S315200037500310006A0023446989000A1D6946A4688B
S31520003760A04708B010BD0000108020200CED00E01E
S315200037700400FA05509C202050982020A89C202048
S3152000378000401F408DF8003000238DF801308DF861
S315200037900230704710B584B0B022AAE770B504464F
S315200037A0012C0ED00026114D06E02844C1688968F8
S315200037B00A0018BF8847761C18207043295800290C
S315200037C0F3D174B903F04CFEFFF77CF803F07BFFCE
S315200037D00020074908600120FFF774F904F0B9F9C1
S315200037E062B6BFF36F8FBFF34F8F70BD44260020A4
S315200037F008ED00E0002204F0F3B90000BFF34F8F7C
S31520003800DFF8D82502E01060203020390129FADAC5
S31520003810BFF34F8FBFF36F8F704730B50546042037
S31520003820002D85B01EBFDFF8B8150A78002A50D0C3
S315200038302A68130F0B2B4CD1C2F303634FF4826417
S31520003840012B0C440CD0002B43D1284604F0E2F97E
S31520003850002811BF0021A96861600121217038E08C
S315200038602178002935D012F00F0F32D1002004A97B
S3152000387004900390012000F062FA50BB03A91020A7
S3152000388000F05DFA28BB01A9032000F058FA00BB1E
S31520003890646804986946251802A804F0F2F9C0B9AC
S315200038A0009A0399A218914213D30199491E0D42F9
S315200038B00FD10199284600F02BF910B942F2DB709E
S315200038C007E0029A0099284600F0C0F808B900F0EF
S315200038D056F905B030BD01207047FEB506460424D2
S315200038E003F0BAFC002872D006F2FF1003F0B4FCF5
S315200038F000286CD03068DFF8E8544FF483616F18E5
S31520003900010F0C2918D132463946002005F02CFE2D
S3152000391004005CD100203946287004F0D1F9040057
S3152000392055D1002006F0C0FC02A9102000F007FAAD
S31520003930002859D004464AE0DFF8A81488420FD15F
S31520003940287828B100F073F803F0FAFB002857D145
S31520003950687800BB06F010FE002838D0012041E030
S31520003960DFF88414884206D14FF400723146384677
S31520003970FFF748FBCEE7000F0E282AD1287830B370
S31520003980304606F001FE10B3304606F029FE04004C
S315200039901DD10120687000256A4601A9284606F037
S315200039A0FBFE88B9A80200F1C04606F580664FF4F2
S315200039B00071304600F0ACF830B1019A00993046DB
S315200039C000F044F800F0DBF86D1C022DE4D320460D
S315200039D0FEBD0B2805D13046FFF71FFF0400F6D1A8
S315200039E0B6E700206870F2E7DFF800040121816362
S315200039F0016B029A5118491E416301202870A7E7DE
S31520003A003A4600F014F800F021F8040004D000F043
S31520003A100EF800F0D0F9DAE700F0B1F8040097D0FC
S31520003A20D5F8DC154FF0C04000F02CF9CFE74FF465
S31520003A3000714FF0C0407047DFF8A4331B78002B8D
S31520003A4018BF06F091BF42F2DD7070472DE9F843AA
S31520003A500446DFF88C7338780D46914610B942F249
S31520003A60DD7032E085B3B87868B9D7F8D805401E3E
S31520003A70044202D044F6896027E001207C60B870B9
S31520003A800020B86004E0B86879680818A04216D10A
S31520003A90B868D7F8D88529184145494634BF2E46F7
S31520003AA0A8EB00063844324610303419FFF7AAFA3C
S31520003AB0B868AD1BB14430184045B860D2D100F08B
S31520003AC05EF80028CED000E00020BDE8F28376B56F
S31520003AD00446C348007810B942F2DD7076BD8D08E1
S31520003AE0AD0001F0030607E001AA04212046FFF7F6
S31520003AF0ADFF60B9241D2D1F002DF5D12EB101AAD1
S31520003B0031462046FFF7A2FF08B900F038F876BD07
S31520003B10F0B50646B2484078ADF5806D81B00D46C9
S31520003B20012418B1304606F014FE58B9294630460D
S31520003B3003F006FB044620460DF5806D01B0F0BD6E
S31520003B40ED1BBE19002DF6D0A8484FF48067B5F5B9
S31520003B50806F006B98BF2F463A46311A684600F0B0
S31520003B6032F96846002100E0491CB1EB970FE7D2F5
S31520003B7050F8042B12F1010FF6D00020DCE72DE9D6
S31520003B80F047974CADF5806D651C4FF000086878BE
S31520003B90002872D0261DD4F8D875706885F8018063
S31520003BA0B84205D0391A2044FF22103006F0F4FE20
S31520003BB030683946FFF7ACFF10B942F2DB705DE0A2
S31520003BC0D4F8D815306806F0C4FD48B1D4F8D81515
S31520003BD0306804F1100206F028FE5FEA00084CD196
S31520003BE0824F3068396B04F11003421A4FF4836018
S31520003BF02118002004F06AF980460020B8F1000F51
S31520003C006870706039D100F068F804D5D4F8D815FA
S31520003C103068FFF7F3FD2878D4F8D89504F1100A18
S31520003C20366800B34946304606F093FDD8B1B9F15F
S31520003C30000F22D04FF48064B9F5806F386B98BF9F
S31520003C404C462246311A684600F0BDF822465146B7
S31520003C50684606F0D5FE002802BFA9EB0409A6197E
S31520003C60A244E4D006E04A4604F11001304606F0AC
S31520003C70C7FE10B144F68A6000E040460DF5806D1F
S31520003C80BDE8F08770B5564A137813B942F2DD7055
S31520003C9070BDD2F8DC45624202EA000508184042AF
S31520003CA010404042461B3146284600F084F898B919
S31520003CB02146284606F015FE00F00FF803D52146CA
S31520003CC02846FFF79BFD31462846FFF721FF10B90E
S31520003CD044F68A6070BD002070BD45480068C00368
S31520003CE070473F4800B5017883B011B942F2DD70C4
S31520003CF00EBD4FF483610144002004F03EF9E8B97B
S31520003D0001A9012000F01BF8C0B96946102000F077
S31520003D1016F898B90099019806F0E3FDFFF7DDFF44
S31520003D2003D500990198FFF769FD0099019803F0E2
S31520003D3007FA10B944F68A600EBD00200EBD002990
S31520003D4010B52ED0264B4FF4BB629C184FF48D62D3
S31520003D501A4460B1012813D0022814D0032816D0A3
S31520003D60042816D0052816D0102817D019E0187860
S31520003D70002814BF002042F2DD700860002010BD2C
S31520003D804FF0C040F9E700F00EF8800AF5E720680A
S31520003D90F3E76068F1E7206918B1EEE700F003F871
S31520003DA0EBE7042010BD1068536818189368D26892
S31520003DB01818101870470B460C49096B421A0D4902
S31520003DC0002005F031BC80B500920B460246094919
S31520003DD0002005F066FC02BD000000005CEF00E05C
S31520003DE0FCA420200F0000F04643464250802020AD
S31520003DF014ED00E014A920203EB503F077FE02283A
S31520003E0001D001203EBDDFF8CC4B42F22C10251804
S31520003E10284606F03BFE20BB284600F07BFD00BB73
S31520003E2001A902A806F01EFE0199029800F042FCA4
S31520003E30B8B9284600F06EFD98B942F22C0020440D
S31520003E4000F0B8FC68B901206946207040F20110E4
S31520003E5003F022F928B900F066F9214400F05CF954
S31520003E6000203EBDF0B505460420002D83B01EBFC0
S31520003E70DFF8601B0A78002A4CD02A68130F0B2B18
S31520003E8048D1C2F3036342F22404012B0C440CD024
S31520003E90002B3FD1284603F0BDFE002811BF00218C
S31520003EA0A968616001212170FEBD237893B302F0D9
S31520003EB00F0008281AD201EBC00042F26C02676894
S31520003EC0104442F2EC2245688E580068694606FB8B
S31520003ED0007401A803F0D5FEE0B900983818B0FBAD
S31520003EE0F6F0854202D3701E044201D00420FEBDA6
S31520003EF0B4FBF6F40121204600F0BBFB10B942F2D8
S31520003F00DB70FEBD019A0099204600F0D2FC08B96C
S31520003F1000F06FFAFEBD00002DE9F04104460426AC
S31520003F200D46002C18BF002D0ED0287800F00F006B
S31520003F30C01E082827D24FF480612046FFF75AFC7E
S31520003F40686803F089F900286FD06868083003F0A4
S31520003F5083F9002869D06A684FF480702118002000
S31520003F6007F094F8060060D12868DFF8681AC0F3D5
S31520003F70032000281CBF0128002048602A6802F080
S31520003F800F00801E092850D2C2F303510329C2F321
S31520003F9003620CD8DFE801F002040609402108E09C
S31520003FA0802106E04FF4807103E0202101E02029E2
S31520003FB03BD3002A39D0052A37D2DFF81C3A218292
S31520003FC063600123A36011FB02F3E3600023628296
S31520003FD060610DE03F89D4F8C8C204EBC3085B1CBE
S31520003FE00CFB0EFE0CFB07F7C8F84470C8F840E03F
S31520003FF0834214D205EB830743B9D4F8C8C2B1FB78
S31520004000FCFC02FB0CFC4FEA4C0C04E0B7F806C0A3
S31520004010B7F804E0F444B7F80AE0E645DAD24FF4FC
S315200040207F71201D00F095FC20603046BDE8F081B0
S31520004030F8B50746042403F00FF900284ED007F2FE
S31520004040FF3003F009F9002848D03868DFF8845992
S3152000405042F22C016E18000F0C2841D13946304609
S31520004060FFF75AFF040039D10020287042F22C10A5
S31520004070284400F04FFC040030D1304600F09AFB73
S31520004080C8B1DFF85849FF224FF48461204603F077
S31520004090A3FDDFF84C0940F21C4160600120A060BE
S315200040A000202061201D00F054FC2060304600F0E6
S315200040B0AEFB040012D1304600F031FB04000DD1D6
S315200040C001206946287040F2011002F0E5FF040045
S315200040D004D100F028F8294400F01EF82046F2BD4D
S315200040E07968DFF8F42891420FD14FF48061384681
S315200040F000F022FC0028F1D000204FF480622870C6
S3152000410039463046FEF77EFFB0E70B28E6D1384623
S31520004110FFF7A8FE0446E1E70A68C260CA69896813
S3152000412051438160704700991422DFF8B808514343
S31520004130084442F2EC2170472DE9F04F91460424C1
S31520004140B9F1000F83B0884648D0DFF888783978EF
S3152000415011B942F2DD7441E07A6842F2EC217D1811
S315200041602968012A019112D13A7B52B9E96988421C
S3152000417034D20121B8603973A968002648430090DB
S315200041800BE0BA68AB68534301FB0300801A019A1F
S31520004190B0FBF1F1009102FB1106684642F2200ABB
S315200041A000F009FC41F20D0B12E0B81900F10D01E7
S315200041B022464846FEF726FF0198A619A8EB0408D2
S315200041C0A144864203D3361A0098401C009000244E
S315200041D0B8F1000F0DD10CB1002038732046BDE890
S315200041E0FE8F57F80A00401C47F80A00009820184E
S315200041F0009041F2100017F80B103A5800988242AE
S3152000420001D1080025D1AC680098B0FBF4F019B1B3
S31520004210B2FBF4F1884209D0E969884202D342F21E
S31520004220D874D9E700F0A6FB0028DAD10020009C3C
S3152000423007F80B00296807F10D02204600F023FB42
S3152000424028B9012107F80B1041F210017C50040017
S31520004250C1D1019808EB060188422CBF4446841B35
S31520004260A3E72DE9F04F91460427B9F1000F83B05B
S315200042708346884679D0DFF85C67307810B942F2F9
S31520004280DD7772E042F2140142F2EC2074183044D9
S31520004290716801900068012982463CD1317B91B931
S315200042A00198C069834560D2002000252070012036
S315200042B030730198C6F808B0806800FB0BF00090B8
S315200042C00AFB008023E0019AB16892684A4300FB0A
S315200042D002B0401AB0FBFAF10AFB11050091DFF893
S315200042E008170968884211D0207818B100F04CF9D7
S315200042F0070038D10199C6F808B00120002530738F
S3152000430058468968484300900AFB00F04044DFF88D
S31520004310D816086004E0BBFBFAF00AFB10B5009043
S315200043200098A16D884220D3684600F044FB16E031
S31520004330701941F214033A46494618447D19FEF78E
S3152000434061FE6068A8EB0708B944381855456060D7
S3152000435004D30098A5EB0A05401C00900027B8F16D
S31520004360000F0BD10FB1002030733846BDE8FE8F09
S31520004370E068401CE060009858440090A1680098CE
S315200043802778814200D167BB0198D0F808B0009801
S31520004390B0FBFBF01FB1B1FBFBF188420BD00199BA
S315200043A0C969884202D342F2D877DCE700F0E2FA04
S315200043B00028DDD11FB100F0E7F80700D2D115B1F2
S315200043C044F62A67CFE7002060600098A0600120AD
S315200043D0207008EB050082452CBF4746AAEB05074F
S315200043E0A6E76068A842F4D000F0CEF80700C5D052
S315200043F0B8E7DFF8F81500200978002918BF00F083
S31520004400C3B8704738B5DFF8CC5500206C1C21782E
S3152000441009B100F057F842F214012944002241F272
S315200044200D030A70EA54CA60E27232BD2DE9F843E0
S315200044300F46DFF8A0552978042411B942F2DD741D
S315200044402FE00FB900242CE06B6842F2EC216A18A9
S31520004450D6699168012B08BF80460DD01268B0FB43
S31520004460F2F33818401EB0FBF2F0B3FBF1F8B0FBC4
S31520004470F1F0A0EB0800471C42F26C002858B0FB74
S31520004480F1F0804507D20CE0404600F050FA0400D7
S315200044900AD17F1EC8465FB9687810B100F012F8BD
S315200044A004462046BDE8F283404600F073FAC8462B
S315200044B0B045F1D2404608F1010900F05BFA002828
S315200044C0E2D0F4E742F22C002844A0E170B5DFF8F0
S315200044D00445207810B942F2DD7070BD42F20830F2
S315200044E00025265800E06D1CB5420AD2284600F069
S315200044F041FA0028F7D1284600F019FA0028F2D010
S3152000450070BD607828B142F22C00204400F07FF97B
S3152000451000B9002070BD002910B52BD0DFF8B434C7
S3152000452042F2EC229C1842F27C121A4450B1012825
S3152000453011D0022811D0032813D0052813D0102813
S3152000454015D017E01878002814BF002042F2DD703D
S315200045500860002010BD0020FAE700F00DF8C00A20
S31520004560F6E72068F4E72068A2685043F0E700F0F9
S3152000457003F8EDE7042010BD1068536818189368F7
S31520004580D26818181018704742F214002DE9F04F1F
S31520004590DFF8404483B0251842F2EC2026186868DC
S315200045A0316842F2DB7888421CBF00202073D5F8A0
S315200045B00890002028700121484600F05AF8A0B340
S315200045C041F214002044696800900246484600F0F3
S315200045D070F900284BD0B068B9FBF0F738467F1C3D
S315200045E000F0D8F9E868401CE860F069019006E020
S315200045F0384600F0CFF9E8687F1C401CE860019837
S31520004600874232D2384600F0B5F90028F3D1B06897
S31520004610B9FBF0F100FB01FA00FB07FBA9EB0A004E
S31520004620411C584600F025F828B940461FE00AF1FB
S31520004630010A0BF1010BCA4531680ED204F10D02B5
S31520004640504600F020F960B9316804F10D02584651
S3152000465000F02FF90028EAD003E0009A584600F02F
S3152000466028F920B14045C3D101E042F2D870BDE817
S31520004670FE8FF8B50446D74E42F2EC200D46375849
S3152000468000E06D1EA5B106F10D0239462046641CD8
S3152000469000F0F9F850B906F10D0100E0001DB8420E
S315200046A0EFD251F8042B12F1010FF7D00020F2BD02
S315200046B00120F2BD2DE9F041002705460E46B846F9
S315200046C0C44C01E07F1CB044BFB2AF4224D204F1F7
S315200046D00D024FF48061404600F0D5F8002802BF55
S315200046E0D4F81100BC49884204BFD4F8150001282B
S315200046F0E8D14FF4806104F10D0000F01DF9002887
S31520004700E0D042F22C004FF4806204F10D012044E7
S31520004710FEF778FC002000E00120BDE8F0812DE9BD
S31520004720F84F814609F1100046880788D9F8C81243
S31520004730002444F62965A246DFF898B206FB07F066
S31520004740B0FBF1F801E0641CBA44B4422ED20BF15E
S315200047500D024FF48061504600F095F838B90122D9
S3152000476049460BF10D0006F04BF90028EBD000244A
S3152000477003E02046641C00F0DAF84445F9D300240F
S31520004780A24602E00025641CBA44B4420FD24A462F
S315200047904FF48061504600F08CF80028F2D0D9F80A
S315200047A0C802BAFBF0F000F0C2F8ECE70025284674
S315200047B0BDE8F28F2DE9F041884C00216160458AE1
S315200047C0068A0027D0F80C8001E07F1CB044BFB2D7
S315200047D0AF4219D2082F17DA22464FF48461404699
S315200047E000F051F8002802BF60687D49884204BF66
S315200047F0A0680128E9D14FF48461204600F09CF896
S315200048000028E2D0002000E00120BDE8F0812DE95B
S31520004810F84F814609F10C06B6F806B0B6F80480C2
S31520004820D9F8C80244F6296A00270BFB08F1B1FB28
S31520004830F0F43168B1FBF0F503E078197F1C00F045
S3152000484076F8BFB2A742F8D300243668614D634F8D
S3152000485004E068704FF0000A641C4644A4B25C452C
S315200048600ED23A464FF48461304600F022F80028F2
S31520004870EFD0D9F8C802B6FBF0F000F058F8EBE715
S315200048805046BDE8F28FF8B504460D46164602E0BE
S315200048903E44ED1B641C5DB15548324607682046F0
S315200048A0AF4228BF2F46394600F038F80028EFD00F
S315200048B0F2BD2DE9F84304460D469046454E02E0EA
S315200048C0B844ED1B641C15B342F2EC20434637581E
S315200048D042F22C102246AF4228BF2F4631180097AD
S315200048E0002006F034FB98B906F10D023946204621
S315200048F000F014F85FEA000909D13A4606F10D01E5
S31520004900404606F07DF80028DAD0012000E048462F
S31520004910BDE8F2830146002006F005BA80B51346AD
S31520004920009102463349002006F00FFA02BD0246E6
S315200049303049002006F0B8BA10B50446091F201DDC
S3152000494000F007F82168884201D1012010BD00201F
S3152000495010BD3EB504460D4601A806F0FBFC2A46CE
S31520004960214601A806F0FCFC694601A806F00EFDCA
S3152000497000983EBD0021194A00E0491C136999425E
S3152000498006D202EB81031B6A8342F6D101207047CF
S315200049900020704711490A69FF2A0AD801EB8202D2
S315200049A010620869401C086101200A4948700020ED
S315200049B0704701207047074942F2200310B5CB58B3
S315200049C042F2F4240268095901FB03210160002008
S315200049D010BD0000A81021204243464ED434212089
S315200049E054424244D0802020F4382120BC3021205B
S315200049F094332120D431212030B505460420002DC2
S31520004A0085B01EBFDFF8D4130A78002A4AD02A6858
S31520004A10130F0B2B46D1C2F303634FF48274012B81
S31520004A200C440CD0002B3DD1284603F0F3F8002887
S31520004A3011BF0021A96861600121217032E021782F
S31520004A4081B312F00F0F2DD1002004A904900390FA
S31520004A5000F03EF930BB03A900F070F910BB01A9A4
S31520004A60032000F07AF9E8B96468049869462518A5
S31520004A7002A803F006F9A8B9009A0399A218914250
S31520004A8010D30199491E0D420CD10199284607F0F1
S31520004A90B9F810B142F2DB7004E0029A0099284678
S31520004AA000F0C8F805B030BD38B503F01FF810285F
S31520004AB001D0012032BDC94C201D07F061FA050046
S31520004AC008D1201D07F0B9F8050003D100F070F9D0
S31520004AD001202070284632BDF0B583B0044602F08E
S31520004AE0BBFB20B104F1FF0002F0B6FB08B904209D
S31520004AF0FEBD2068BA49B94D88420DD14FF4807267
S31520004B002146281DFEF77EFA00202870281D07F072
S31520004B1094F800286BD0FEBD010F0D295ED1C0F39D
S31520004B20012101B9012120F4407040EA01202060D2
S31520004B30281D07F025FA00286ED1052005F1250647
S31520004B40287418203070207805F1450700F00300FE
S31520004B5078742068000AC00000F018007070206881
S31520004B60800A00F0010070722068000B00F0070038
S31520004B70F0712068C0F3810002283874C4D1A2885D
S31520004B8000F04BF8F075E28800F047F8307622897D
S31520004B9000F043F87076628900F03FF8B076A2897B
S31520004BA000F03BF8F076E28A00F037F8B077228BF7
S31520004BB00121281D06F000FEF077E28900F02DF88D
S31520004BC03870228A00F029F83077628A00F025F8BA
S31520004BD07077A28A00F021F8787095E70B2903D127
S31520004BE02046FFF709FFFEBD45F27C20FEBD00F002
S31520004BF0DFF801A9012000F0B0F86946102000F086
S31520004C00ACF8009A7748019901645118491E41640D
S31520004C100121816400202970FEBD0021281D06F097
S31520004C20CBBD6E4B1B78002B18BF05F09DBE42F204
S31520004C30DD707047F8B50446684F38780D4616463D
S31520004C4010B942F2DD70F2BD204606F0DBFF10B14E
S31520004C5042F2DB70F2BD2B4632462146381D01B0AA
S31520004C60BDE8F04007F03BB82DE9F44104465B4827
S31520004C7000788F0883B00E19BF0001F0030510B924
S31520004C8042F2DD7022E000F022F801A900F056F889
S31520004C900098844222BF01990818B0420CD245F2EE
S31520004CA06D2013E003AA04212046FFF7C3FF5FEA25
S31520004CB000080AD1241D3F1F002FF3D12DB103AACE
S31520004CC029462046FFF7B6FF8046404633E0694630
S31520004CD0012042E02DE9F04184B0404E04460D46C5
S31520004CE030782F1910B942F2DD7024E0FFF7EFFF7C
S31520004CF001A9052000F031F802A900F01FF800985C
S31520004D00844223BF02990818B84245F26D2012D377
S31520004D101DB900200FE001980419BC420AD2009860
S31520004D200199201AB0FBF1F1301D07F013F85FEA64
S31520004D300008F0D0404604B0BDE8F08110200CE019
S31520004D4000B583B001A9FFF7C3FF6946FFF7F6FF59
S31520004D5000990198FFF7BEFF0EBD39B31F4A02F135
S31520004D60A40350B1012811D0022811D0032814D051
S31520004D70052814D0102815D018E01078002814BF64
S31520004D80002042F2DD700860002070475069FAE783
S31520004D9058689A685043800AF5E71868F3E7586818
S31520004DA020B1F0E758689A685043ECE70420704732
S31520004DB000B583B001A90520FFF7CFFF6946102073
S31520004DC0FFF7CBFF0548009A8169914204D2019AE8
S31520004DD0B1FBF2F1C0F8AC1007BD00002807212076
S31520004DE053454D435080202030B583B002F07EFEDF
S31520004DF0202801D001203EBD00F0C6FCDFF8244A61
S31520004E0044F218102518284607F0BBF970BB28462F
S31520004E1007F068FF50BB694601A807F0EBF8009B36
S31520004E20019A0021002000F0D4FBF8B944F21800C2
S31520004E304FF48062A11C2044FEF7E4F8284607F0D0
S31520004E4051FF98B9009B019A44F224002158012071
S31520004E5000F0BFFB50B94FF48462A11CDFF8C809EB
S31520004E60FEF7D0F80120207000F0A7FC3EBD2DE90A
S31520004E70F047054602F0F0F920B105F2FF3002F0C6
S31520004E80EBF908B90420FFE0DFF8986944F2240022
S31520004E90371844F2181006EB00082946002000F0C7
S31520004EA07DFB90B300204FF48062307044F21800EE
S31520004EB029463044FEF7B6F8404607F013FF00288F
S31520004EC0E1D1BB88FA8839680120DFF85C494FF4C4
S31520004ED0846500F07EFB002800F0C880FF2229466A
S31520004EE0204602F079FEDFF8440940F21C4160605A
S31520004EF00120A06000202061201D00F034FC2060ED
S31520004F0000F039FA0028BED1B5E02868010F0D2936
S31520004F1040F0A980696811F00F0F14BF01F00F0946
S31520004F204FF00109C1F3034404B90124C0F3012160
S31520004F3001B9012120F4407040EA01202860686808
S31520004F40C0F3072101B9012120F47F4040EA012066
S31520004F506860287800F007000128B8BF45F2E420F1
S31520004F6091DB092C28BF45F2E5208CD20020307039
S31520004F7000F00AFC404607F004F9002835D144F237
S31520004F806A10304400210522817244F221113144F5
S31520004F90CA700022C27201220A702A7802F0070221
S31520004FA002702A68C2F3C002CA752A68C2F30212C6
S31520004FB0521C42702A68120AD20002F018020A769F
S31520004FC0296844F24812090B01F00701B1542968F7
S31520004FD0090C01F00101C1702968490C01F0010199
S31520004FE00171404607F07EFE00284DD16A6844F2E2
S31520004FF0C0103358C2F30721C2F3072219FB02F26D
S3152000500059435200002315E006EBC30E44F258081C
S3152000501056F800A05B1CC644BCF808800AFB08F8BA
S31520005020CEF80480BCF80AC056F8008008FB0CFCB9
S31520005030CEF800C0A3420ED205EB830C23B1BCF8F8
S315200050400620BCF804E07244BCF80AE09645DBD2A0
S3152000505045F2E62018E001FB09F0B980A7F8069092
S315200050603860BC602DE745F2E0200DE02A46B11CF1
S315200050702046FDF7C7FF002000F0D8FA20B901200E
S315200050803070BDE8F04798E3BDE8F0872DE9F84F8A
S315200050908846DFF8907744F2B81107EB0105D5F87A
S315200050A000905FEA020BB0FBF9F109FB110A0091AF
S315200050B008BF042021D0387810B942F2DD701CE0F8
S315200050C0684642F2020600F0A0FB12E007EB0A0057
S315200050D0811C22465846FDF795FFA244CA45A8EBF7
S315200050E00408A34404D30098AAEB090A401C0090A4
S315200050F00024B8F1000F0CD12046BDE8F28F44F20F
S31520005100140044F214013858401C78500098201896
S31520005110009042F20401B85D7A5800998A4201D182
S31520005120010028D1AC680099B1FBF4F118B1B2FBAB
S31520005130F4F081420CD0E8682A695043814202D3B8
S3152000514042F2D870D9E7009800F0F8FA0028D6D1B4
S31520005150009C0020B8552B6844F21810BA1C214632
S31520005160384407F04FFE20B90121B95542F2040117
S315200051707C500400C0D108EB0A0081452CBF444670
S31520005180A9EB0A04A2E72DE9F84FDFF8A4660C463E
S31520005190D6F800A05FEA0209B0FBFAF10AFB110873
S315200051A0009108BF04202DD0DFF87806007810B9CA
S315200051B042F2DD7026E0DFF87C560846296D8842EB
S315200051C038BF45F2E3201DD3684600F01EFB17E0EA
S315200051D0DFF8500642F20803404449463A4618444E
S315200051E0FDF710FF6868E41BB844B9443818D04569
S315200051F0686004D30098A8EB0A08401C009000279A
S3152000520044B93846BDE8F28FE868401CE86000984B
S3152000521058440090A96800982F78814200D177BB26
S31520005220D6F808B0B0FBFBF01FB1B1FBFBF188420A
S315200052300DD0F16832695143884202D342F2D870C8
S31520005240E0E7009800F07AFA0028DDD11FB100F0DF
S31520005250F4F80700D5D1B8F1000F02D045F2D120DD
S31520005260D0E7002068600098A8600120287004EB31
S31520005270080082452CBF2746AAEB0807A8E76868DE
S315200052804045F4D000F0D9F80700C3D0B9E72DE99E
S31520005290F047DFF8905544F2B812AE183269F36839
S315200052A003FB02F92A7812B942F2DD7029E009B926
S315200052B0002026E03368B268B0FBF3FC0818401ED5
S315200052C0B0FBF3F0BCFBF2F4B0FBF2F0001B471C82
S315200052D044F258002858B0FBF2F084420AD245F234
S315200052E0E3200EE0204600F04FF95FEA00080AD1DD
S315200052F07F1E54465FB9687810B100F03CF88046AE
S315200053004046BDE8F087204600F06EFA54464C45EC
S31520005310F1D2B06804F1010A604300F00FFA0028C8
S31520005320E0D0F3E744F2C0102DE9F041DFF8F46451
S3152000533000253718B868796801FB00F8307880B9FD
S3152000534042F2DD7015E03868684300F0F7F938B9A5
S31520005350284600F019F904001CBF284600F044FA3C
S315200053606D1C4545EFD3707810B100F004F8044663
S315200053702046BDE8F081012058E1DFF8B81400206E
S315200053800978002918BF00F058B8704710B5DFF823
S3152000539094440020617809B1FFF7EDFF44F208013B
S315200053A02144002242F202030A70E254CA6010BD70
S315200053B089B3DFF8703444F2B8121A4450B1012888
S315200053C011D0022811D0032818D0052818D010286B
S315200053D01AD020E01878002814BF002042F2DD7091
S315200053E00860002070470020FAE71069D368584308
S315200053F09368126858435043800AF1E71068EFE734
S31520005400906812685043EBE71069D3685843936855
S3152000541012685843F6E704207047DFF8080444F280
S31520005420F81101440A783AB942F20203C25442F210
S315200054300403C250801C486070472DE9FE4FDFF8F8
S31520005440E44344F20800251844F2B8102718D5F88A
S3152000545008A0B868F96842F20806BAFBF0F938697C
S31520005460484339680290002028706868884205D031
S31520005470091A2044FF22801905F08EFA44F21810EA
S31520005480204400900122514642F2DB7807F026FEA6
S3152000549070BB3968A0190190024601FB0AF000F0A2
S315200054A04CF8002847D0484609F1010900F09CF93C
S315200054B0E86805E0484600F097F9E86809F101092F
S315200054C0401CE8600298814533D2BE6806FB09FB82
S315200054D0584600F033F90028EFD1BAFBF6F04643E0
S315200054E05946AAEB0600421C009807F0F7FD20B1AA
S315200054F0404620E0761C0BF1010B56453B680ED248
S315200055000098A21C314607F07DFC70B93968A21CB0
S3152000551001FB0BF000F011F80028EBD005E0019A12
S3152000552003FB0AF0194600F008F820B14045C1D126
S3152000553001E042F2D870BDE8FE8F2DE9F84F0C4607
S3152000554044F2B815B74E934671590BEB0409B0FBDC
S31520005550F1FAFFF762FF03E0BB44E41B0AF1010AFC
S31520005560CB450ED2775944F218105A46514630444C
S31520005570BC4238BF27463B4607F0B6FC5FEA000828
S31520005580EAD04046BDE8F28F10B50446FFF745FF46
S315200055902146A948BDE8104007F048BD10B50C4685
S315200055A020B9A64A201D4FF47F7103E09F4A201D93
S315200055B040F21C416368934204BFA268012A06D1C7
S315200055C000F0D1F82168884201D1012010BD0020C9
S315200055D010BD2DE9F04704460D46924F90469A4657
S315200055E04FF40051B81C07F0E9FD20000CBF4FF422
S315200055F080694FF48469002601E05544761C4645AF
S3152000560011D244F2B810BA1C385849466843FFF7FD
S315200056103DFD0028F1D1B91C2046FFF7BFFF002829
S31520005620EBD0002000E00120BDE8F0872DE9F14F06
S315200056307C4D44F218002E1884B0708A0190308A6E
S31520005640029044F2B810284400900198022807D30B
S3152000565002980199484300998968B0FBF1F801E066
S315200056604FF001089DF8100080BB4FF0000A00247F
S31520005670002702E00298641CC7190198844212D2BE
S315200056800098AA1C4FF4806100687843FFF7FEFC5F
S3152000569038B94FF480623146A81C05F0B1F90028CC
S315200056A0E8D04FF0010A00270024BAF1000F45F296
S315200056B0E12903964FF4806B3BD044F21C004FF453
S315200056C07F71284400F04FF830600AE00098F468B3
S315200056D045F2E2294FF4846B8068B4FBF0F7524818
S315200056E00390002603E0F019761CFFF74DFF464590
S315200056F0F9D300260AE09DF810004FF00009012892
S3152000570004BF002068700298761C0419019886420E
S3152000571010D20098039A594600686043FFF70DFFA0
S315200057200028E8D000988068B4FBF0F0FFF72CFF43
S31520005730E9E7A146484605B0BDE8F08F10B5404BD5
S3152000574000221B680021B0FBF3F0374B00E0521C0F
S315200057501C69A24205D203EB8204246AA042F6D138
S315200057600121084610BD3EB504460D4601A805F0A8
S31520005770F1FD2A46214601A805F0F2FD694601A859
S3152000578005F004FE00983EBD38B5264C44F21800BC
S315200057902518FF224FF48061284602F01DFA27487B
S315200057A04FF47F7168600120A86044F21C002044F9
S315200057B0FFF7D9FF2860002032BD80B569464FF437
S315200057C0807001F069FC70B9009914221D4851437C
S315200057D0084417490A68C2600A69CB6889685A432F
S315200057E051438160002002BD0F490A69FF2A0AD869
S315200057F001EB820210620869401C086101200949F8
S3152000580048700020704701207047064944F214036F
S3152000581010B5CB5844F2C0140268095901FB032184
S31520005820016010BD34BE20204C0221205442424447
S31520005830ECFF20203CFE20204CFF20204243464EF9
S31520005840F4FF2020D080202030B505460420002DEE
S3152000585085B01EBFDFF890150A78002A4FD02A6837
S31520005860130F0B2B4BD1C2F30363012B01F23C44E4
S315200058700CD0002B43D1284602F0CCF9002811BFCA
S315200058800021A96861600121217038E02178002972
S3152000589035D012F00F0F32D1002004A904900390C6
S315200058A0012000F06BF950BB03A9102000F066F927
S315200058B028BB01A9032000F061F900BB64680498A5
S315200058C06946251802A802F0DCF9C0B9009A0399A6
S315200058D0A218914213D30199491E0D420FD1019965
S315200058E0284600F0B4F810B942F2DB7007E0029ABD
S315200058F00099284600F016F808B900F051F805B0CE
S3152000590030BD0020DFF8E014886070471346DFF8CA
S31520005910D824127812B942F2DD7070470A46194629
S3152000592007F07EBC2DE9F8430446DFF8BC743878CE
S315200059300D469146D7F8288410B942F2DD702DE045
S31520005940B8F5806F88BF4FF4806835B3B96878683A
S31520005950002904BF00287C6002D00818A04217D175
S31520005960681880452CBF2E46A8EB0106781800F152
S315200059700C01894504D0324649460C30FDF742FBDE
S31520005980B8683419AD1BB14430184045B860DCD135
S3152000599000F006F80028D8D000E00020BDE8F28309
S315200059A0F0B5DFF84454ADF5806DAE6881B00024C3
S315200059B0DEB16F686C60AC60324605F10C0138468A
S315200059C007F0B0FC040010D132466946384607F08D
S315200059D027FC040009D13246694605F10C0005F082
S315200059E00FF810B142F2DF7000E020460DF5806D11
S315200059F001B0F0BD38B50446DFF8EC0300780D465B
S31520005A0010B942F2DD7032BD204607F023FC40B9C2
S31520005A102946204600F01BF810B942F2DF7032BD4D
S31520005A20002032BD10B5DFF8C043207810B942F20D
S31520005A30DD7010BD07F04FFC40B9D4F8241400F0F7
S31520005A4006F810B942F2DF7010BD002010BD70B507
S31520005A50ADF5806D04460D4601E0AD1B3419C5B188
S31520005A604FF48066B5F5806F6946204698BF2E466E
S31520005A70324607F0D5FB6846002100E0491CB1EB11
S31520005A80960FEAD250F8042B12F1010FF6D000201F
S31520005A9000E001200DF5806D70BD2DE9F845074623
S31520005AA04FF0040801F0D8FB20B107F12B0001F0DC
S31520005AB0D3FB08B904205FE0CB4C4FF48260261854
S31520005AC0386804F20C45DFF824A3000F0C281CD1FB
S31520005AD02C213046FDF78EFE4FF480300121A86040
S31520005AE04FF486602044C5F804A00170022141705D
S31520005AF00321817005210171062180F803804171FF
S31520005B003946304600F0D4F813E03868010F0B29E7
S31520005B1004D13846FFF798FE80462CE050452AD11E
S31520005B202C213046FDF766FE2C2239463046FDF7FD
S31520005B3069FA00202E7B20704FF483602F69204461
S31520005B4001F062FF3046DFF8A88201F015FF4146DA
S31520005B50304601F04BFF3A464146304600F02FF8DA
S31520005B6029684FF48460204407F02CFB5FEA000884
S31520005B7004BF012020704046BDE8F285E9B19A4A6B
S31520005B8002F2244340B101280FD003280FD0042865
S31520005B900FD010280FD010E01078002814BF002056
S31520005BA042F2DD700860002070470020FAE758684E
S31520005BB0F8E79868F6E71868F4E70420704770B5A8
S31520005BC08CB004460D46164607A80FF2482114222B
S31520005BD0FDF728FA1C216846FDF70CFE08200096E2
S31520005BE0019000200099ADF808008DF80A00814840
S31520005BF02A46B0FBF1F0009903907E48B0FBF1F005
S31520005C00009904907B48B0FBF1F0059002208DF8B6
S31520005C10180000208DF819006946ADF81A0007A86B
S31520005C2050F8240007F0E6FC0CB070BD2DE9F041D9
S31520005C30074671488AB00C461646057890F80180CA
S31520005C4004A80FF2E4111422FDF7ECF900216846AE
S31520005C50002200238C46A0E80E104FF480100390FB
S31520005C600EB9012201E0032E05D14146284601F056
S31520005C709DFE002018E0012E08BF019702D0022EBB
S31520005C8008BF0097029404A8694650F8250007F03B
S31520005C9015FEB0F5C87FF6D030B100224146284621
S31520005CA001F084FE42F6CD100AB0BDE8F081000076
S31520005CB010B50C78514B00F1080204F00F0403EBE9
S31520005CC08404E46D14610C68C4F3031403EB8404A8
S31520005CD0246C54610C68C4F3032453F82430D36035
S31520005CE00C68474B240B04F00F04012C02D0022C25
S31520005CF00ED010E001201072D068B0F1011F38BF1D
S31520005D00102003D3984234BF18202020507231E04F
S31520005D10022010722EE000241472602480F828409D
S31520005D20D068984213D2182050724220907750693A
S31520005D30B0F5803F28BFD8201BD2B0F5805F08BFC2
S31520005D40202016D0B0F5004F14D1522011E020208B
S31520005D50507212205076132090760020907750694A
S31520005D60B0F5803F28BFDC2003D2B0F5805F01D19B
S31520005D702120D0770868000D00F00F00401E032870
S31520005D800BD8DFE800F002040608012006E0022016
S31520005D9004E0032002E0042000E0002010700868E0
S31520005DA0000C00F00F00012806D004D3032803D0EE
S31520005DB038BF022000D3002050700868C0F303606B
S31520005DC078B1087900F00F00012804D009D3032800
S31520005DD005D002D305E00B4804E00B4802E00B484F
S31520005DE000E00B48506010BDBC8120206B736563BA
S31520005DF0005A620200CA9A3BD4852020488120207E
S31520005E000100000180969800404B4C0080841E00C3
S31520005E10002D31010000000000403940008039404B
S31520005E2000C0394000003A400000000000403940E0
S31520005E300080394000C0394000003A4000F0FF01A0
S31520005E4001F1804101F57C21020A096802F01F0256
S31520005E50C0F34C3090400840D0407047F0B506461D
S31520005E600420002E85B063D0DFF8E0454FF465713D
S31520005E706518297800295BD031680A0F0B2A57D17B
S31520005E80C1F30362012A0CD0002A51D1304601F019
S31520005E90C1FE002811BF0021B168A9610121297521
S31520005EA046E02A7D002A43D011F00F0F40D1002072
S31520005EB004A904900090012000F027FA002837D189
S31520005EC06946022000F021FA90BB00984FF0FF3679
S31520005ED002A9B0F5800F88BF0096052000F015FABC
S31520005EE030BBAF69049801A93D1803A801F0C9FE8B
S31520005EF0F0B9019A0099BA18914219D30299491E0C
S31520005F000D4215D194F8000302990128284618BF9E
S31520005F100026324600F073FA10B942F2DB7007E031
S31520005F20039A0199284600F044F908B900F09AF935
S31520005F3005B0F0BDDFF8180530B5DFF8104583B0A1
S31520005F4020600E2007F074FE0546DFF80805FFF7EF
S31520005F5075FF401CB5FBF0F060604FF45B702518B0
S31520005F6040F2FF10A88402206884204607F0E0FF54
S31520005F70C0B9204608F09AFF88B901A940F221103D
S31520005F8001F08AF870B900F00EF858B9019A00F0BD
S31520005F90BDF82A68CA60009A8A60012100E00021C3
S31520005FA084F894133EBD6946204659E27FB50546DE
S31520005FB001F052F968B1E81D01F04EF948B12868A0
S31520005FC0000F0B2803D12846FFF748FF02E00C28D4
S31520005FD002D0042004B070BDDFF870444FF46C7119
S31520005FE02046FDF707FCDFF8680420600E2007F046
S31520005FF01FFE0646DFF85C04FFF720FF401C40F634
S31520006000C413B6FBF0F060604FF45B70261840F2C4
S31520006010FF10B08402207084296804F128000A0B3E
S31520006020090A02F00F0201F00F010270417069683F
S31520006030CA0C02F001020273CA0D090E01F0030117
S3152000604002F001020129427341F2883206D002D3BE
S31520006050032908D005D344F6206105E042F21071E9
S3152000606002E0114600E0194641606968C1F300511B
S3152000607001B11A4682606968890C01F001018173B9
S31520006080204608F013FF0028A4D12868000E00F04F
S315200060900701204609F0C8F800289BD103A9FFF77D
S315200060A083FF002896D102A940F2211000F0F4FFC8
S315200060B000288FD1029A00F029F83268CA60039A24
S315200060C08A602968CA071DD5080C00F003008DF8E0
S315200060D00300C1F301108DF80400080D00F007003D
S315200060E08DF80100880800F001008DF80000C8082E
S315200060F000F0010069468DF80200204609F0C5F936
S31520006100002802D1012184F8941363E71423DFF8D1
S3152000611048135A43114470472DE9F84F044600F0BE
S315200061209BF88A46904610B942F2DD703FE0600A3D
S31520006130670AA4EB402912E005EB09004FF46C71C5
S31520006140014440465A46D944FCF75CFFB9F5007F26
S31520006150AAEB0B0AD84424BFA9F500797F1CBAF113
S31520006160000F23D0707880B1706887420DD3411C10
S315200061708F420AD2A4EB40290AEB0900B0F5007F32
S3152000618094BFD346C9F5007BD6E700200123707063
S315200061904FF46C7029183A46284609F066F800280C
S315200061A002BF012070707760E6D000E00020BDE8D5
S315200061B0F28F2DE9F84F814600F04EF80F469046B3
S315200061C010B942F2DD7045E04FEA59204FEA592ACC
S315200061D0A9EB402415E028194FF4B6635A464146E8
S315200061E018445C44FCF70EFFF068B4F5007FA7EB7B
S315200061F00B07D8445844F06024BFA4F500740AF174
S31520006200010A37B3307A90B1306982450CD3411CEC
S315200062108A4509D2A9EB4024F068A04211D000F0AB
S31520006220A0F80028EED015E000F09BF890B914B144
S3152000623042F2DE700EE00020C6F810A0F0600120C9
S3152000624030723819B0F5007F94BFBB46C4F5007B89
S31520006250C1E70020BDE8F28F7C4D4FF465702E1803
S31520006260307870477949002091F89C13002918BF8F
S3152000627000F077B8704779480021C171017000207D
S31520006280704770B50446714D95F894030E4610B9C3
S3152000629042F2DD7070BD284608F0BEFF10B142F212
S315200062A0E07070BD9EB14FF45B702844C1690068F0
S315200062B03219521EB2FBF0F2B2FBF1F2B4FBF0F04F
S315200062C0B0FBF1F12846BDE8704009F013B870BD67
S315200062D038B55E4C4FF462702518287B10B942F20F
S315200062E0DD7032BD204608F097FF10B142F2E07013
S315200062F032BDFFF758FE38B900982968B0FBF1F295
S315200063000021204608F0F6FF32BD38B50C0026D015
S315200063104E4D30B101280ED002280ED005281BD0B4
S315200063201DE095F89403002814BF002042F2DD708A
S315200063302060002032BD0020FAE76946284600F09A
S315200063408FF80028F6D10098D5F86C13A1FB000130
S31520006350800A40EA8150EBE7D5F86C03E8E7042091
S3152000636032BDF8B5394C204608F056FF10B142F23E
S31520006370E070F2BD4FF46770251868684FF0FF365D
S31520006380B0F5007F0DD094F800134FF4B6630129C1
S31520006390C0F50071204418440CBF3246002204F098
S315200063A0FBFA0020287094F800030128A86818BF7B
S315200063B000263246012100F022F810B942F2DB70A5
S315200063C0F2BD4FF4B660AA6826180123314620464E
S315200063D008F062FF90B94FF46C70AA682718012361
S315200063E03946204608F041FF40B94FF4007239463D
S315200063F0304604F005FB08B142F2DF70F2BD2DE90C
S31520006400F8438046114F4FF46C700D4691463C1868
S3152000641000E0AD1BB5B1022D4246214638462CBFC1
S3152000642001262E46334608F020FF48B9214600E0D3
S31520006430001DB0EB462FECD251F8042B4A45F7D07D
S31520006440002000E00120BDE8F28300009CAC202063
S3152000645000402C4024F00080D080202031B0202025
S315200064604FF45C721044027F072A13D8DFE802F04B
S31520006470040808120A0C0E100068086000207047F5
S315200064804068FAE78068F8E7C068F6E70069F4E74D
S315200064904069F2E70420704700F0FF0101F18041D6
S315200064A001F57C21020A096802F01F02C0F34C3074
S315200064B090400840D0407047F0B506460420002E94
S315200064C085B01FBFDFF8001501F1AA04A27D002ABE
S315200064D05CD03268130F0B2B58D1C2F30363012B08
S315200064E001F1D4050CD0002B50D1304601F092FB9F
S315200064F0002811BF0021B16869600121297045E09B
S315200065002978002942D012F00F0F3FD1002004A98C
S3152000651004900090012000F0C2F9002836D1694687
S31520006520022000F0BCF988BB00984FF0FF3602A984
S31520006530B0F5800F88BF0096052000F0B0F928BB83
S315200065406F68049801A93D1803A801F09AFBE8B9E1
S31520006550019A0099BA18914218D30299491E0D4200
S3152000656014D120780299C007284658BF0026324603
S3152000657000F003FA10B942F2DB7007E0039A0199A2
S31520006580284600F0E6F808B900F03FF905B0F0BD5E
S3152000659038B5DFF83444DFF8340420600E2007F0E5
S315200065A047FB0546DFF82804FFF776FF401CB5FBBE
S315200065B0F0F06060204607F0F3FC60B92046B43462
S315200065C009F06AFD28B900F07CF820B900F06EF8D1
S315200065D000E00021217332BD70B582B0044600F080
S315200065E03BFE68B1E01C00F037FE48B12068000F82
S315200065F00B2803D12046FFF75FFF76BD0D2801D07B
S31520006600042076BDDFF8C053DC212846FDF7F2F8DA
S31520006610DFF8B80328600E2007F00AFB0646DFF8ED
S31520006620B003FFF739FF401C40F6C413B6FBF0F069
S315200066306860216805F128000A0B02F00702027043
S315200066400A0A02F001024270CA0C02F00102027329
S31520006650CA0D090E01F0030102F00102012942735D
S3152000666041F2883206D002D3032908D005D344F656
S31520006670206105E042F2107102E0114600E0194661
S3152000668041602168C1F3005101B11A468260284653
S3152000669009F002FD05F1B40428B900F012F820B97A
S315200066A000F004F800E00021217376BD009A14233F
S315200066B0C8495A4311446268CA6022688A60012127
S315200066C0704769464FF4907000F0E6BC2DE9F84F0C
S315200066D000F092F810B942F2DD7038E0600A650ADF
S315200066E0A4EB40290EE00AEB090000F1DC015A4632
S315200066F04046FCF787FCD94400F078F824BFA9F57A
S3152000670000796D1C17B3707880B1706885420DD3FF
S31520006710411C8D420AD2A4EB402907EB0900B0F5B3
S31520006720007F94BFBB46C9F5007BDCE70020012330
S3152000673070702A460AF1DC01504609F0F1FE002865
S3152000674002BF012070707560E7D000E00020BDE830
S31520006750F28F2DE9F84F00F04FF810B942F2DD70B4
S3152000676042E0600A650AA4EB402912E00AEB090020
S315200067704FF437735A4641461844D944FCF742FC35
S31520006780F06800F033F85844F06024BFA9F500798A
S315200067906D1C47B3307A90B13069A8420CD1411CA8
S315200067A08D4209D2A4EB4029F068484512D000F06A
S315200067B098F80028EED017E000F093F8A0B9B9F1C8
S315200067C0000F18BF42F2DE700ED10020F0600120CB
S315200067D03561307207EB0900B0F5007F94BFBB46E8
S315200067E0C9F5007BC2E70020BDE8F28FB9F5007F2E
S315200067F0A7EB0B07D8447047DFF8CCA104460AF173
S31520006800C0060F463078904670476F49002091F8B1
S31520006810C810002918BF00F064B870476E480021E0
S31520006820C17101700020704770B50446664E96F817
S31520006830C0000D4610B942F2DD7070BD304609F039
S3152000684067FE10B142F2E07070BD55B12819610A99
S31520006850401EC1EB5020421C3046BDE8704009F076
S31520006860ACBE70BD38B5584C04F1B405287B10B9C0
S3152000687042F2DD7032BD204609F04AFE10B142F2E6
S31520006880E07032BD28686968A1FB002320460021FC
S31520006890520A42EAC352BDE8384009F08EBEF1B131
S315200068A04E4A30B101280DD002280DD0052814D02B
S315200068B015E0107B002814BF002042F2DD7008602E
S315200068C0002070470020FAE710685268A2FB0023D8
S315200068D0920A42EA83520A60F2E75068EFE7042000
S315200068E07047F8B5384C204609F012FE10B142F236
S315200068F0E070F2BD04F1CC0504F1AA0628684FF039
S31520006900FF37B0F5007F0CD031784FF43773C907C5
S31520006910C0F50071204418444CBF3A46002204F0CA
S315200069203BF80020B0773078C007686858BF00274A
S315200069303A46012100F021F810B942F2DB70F2BD8F
S315200069404FF437706A68261801233146204609F02D
S315200069500BFE88B96A6804F1DC0701233946204614
S3152000696009F0DEFD40B94FF400723946304604F096
S3152000697047F808B142F2DF70F2BD2DE9F843DFF89F
S31520006980488004460E46154608F1DC0900E0F61B51
S31520006990B6B1022E2246494640462CBF012737462D
S315200069A03B4609F0BDFD48B9494600E0001DB0EB65
S315200069B0472FECD251F8042BAA42F7D0002000E052
S315200069C00120BDE8F2830000BCB5202000002C4049
S315200069D024EB0080D08020207DB6202070B6202099
S315200069E0416882688A4209D2891A826641600FF21A
S315200069F0AD210160012181600020704742F278704C
S31520006A0070470FF2050113E0416ADFF828344A89FE
S31520006A108282CA68921E42604A689A4202D1097AE4
S31520006A20022902DB42F2757070470FF20D0100BF9A
S31520006A300160002070470000416A43684A6882610D
S31520006A400A68D21E9A42826002D342F2767070475A
S31520006A500989002908BFFFF7C3BF42F27770704744
S31520006A60F8B50446DFF8D063B4F85A00376804F165
S31520006A705C0500F053F869682868B847A0B9306803
S31520006A800069804780B9616A102204F11C0004F075
S31520006A9067FC00F03EF80098A968884200D045E0DF
S31520006AA00FF2F91020600020F2BDF8B5044610223E
S31520006AB0616A04F11C00DFF8806304F15C0504F0D0
S31520006AC04FFCB4F85A00376800F028F828681021DF
S31520006AD0B847E8B928681030286068681038112847
S31520006AE0686028BFDFF8540310D210B1DFF85003D6
S31520006AF00CE030680069804750B900F00AF8009829
S31520006B00A968884200D011E00FF291102060002081
S31520006B10F2BD694604F11C0004F038BC626A010625
S31520006B20090F000ABF6840EA0123704742F27A70D3
S31520006B30F2BD10B5044604F11C0004F00BFC206ED7
S31520006B4011282CBFBD48BE48F7E0BB4B426E1B68E0
S31520006B50016EC06DDB681847B0F85A2011060B0F7E
S31520006B60110AD20741EA03214CBF08230423042932
S31520006B7001D00420704700F16002C16DB14800F0D9
S31520006B80B2BC70B5044642F27F76E56D284600F029
S31520006B9063FB80B1606E04F11801A8470646012EFA
S31520006BA003D12046BDE870401AE7022E03D100F03B
S31520006BB0BDF8002070BD304670BD10B500F15C01F7
S31520006BC0031D1C684A685A60944202D242F27670CB
S31520006BD010BD0C7AE40707D509685C69A14203D188
S31520006BE012B19A60002010BD90F85A10C90702D53C
S31520006BF042F27C7010BDBDE81040F1E6B0F85A2094
S31520006C00910717D411060B0F110AD20714D541EAA2
S31520006C10032008380AD0401E04D0F73808D0401E7A
S31520006C2002D007E0FDF75DB8FDF750BCFEF788B847
S31520006C30FEF778BB042070475C3041EA03227E4B86
S31520006C4041681B6800689B69184710B582B00446E6
S31520006C50B4F85A000106090F000A40EA0120092863
S31520006C6003D1E06DFCF739FE16BD082803D1E06D8F
S31520006C70FDF732FF16BD01290ED1694600F00CFA48
S31520006C8058B9009A6C4914238968E06D5A43114417
S31520006C9009690969884716BD042016BD70B50446E2
S31520006CA004F15806616A304610225A25FCF7BAF9D3
S31520006CB001202118401C91F858106D181028F8D37F
S31520006CC0307805F0FF01884202D042F2797070BD1B
S31520006CD0717842F212700A2925D8DFE801F01A06E7
S31520006CE00A0E26121A16261C20002046BDE87040E1
S31520006CF063E72046BDE870401BE72046BDE87040AC
S31520006D0023E72046BDE870403BE72046BDE87040BB
S31520006D1074E7002070BD2046BDE8704095E7204608
S31520006D20BDE8704018E742F27B7070BD10B5464C46
S31520006D3070212046FCF75EFD44482060002010BDEF
S31520006D40F8B504460D4600200026414FAE4217D026
S31520006D503869A91BC0F1100009E079B13B69A25D31
S31520006D60761C401E491EFA543A69521C3A61002884
S31520006D70F3D1386100F005F810B9E7E742F27D70EB
S31520006D80F2BD3149324A4A62CA6800202AB10B69EB
S31520006D90934209D0581C086101E08A6E12B9084650
S31520006DA009680847521E8A667047F8B5224C206843
S31520006DB00069804700283CD1234F97F859000428C2
S31520006DC023D107F15C052E68304600F045FAC8B19C
S31520006DD00020FCF7E3FC97F85A00800710D5686876
S31520006DE06861616860B10A68904222BF4968491C9F
S31520006DF0814201D20420F2BD80F3088880F30988FD
S31520006E00A868B04742F27E70F2BD08280FD1022052
S31520006E10FCF7C4FCBFF34F8F0E480F4A016801F4FC
S31520006E20E06111430160BFF34F8F00BFFDE742F2DF
S31520006E307B70F2BD53544D5010802020AB6A002049
S31520006E40616A002000401F4034B52020036A0020DC
S31520006E50A8B520200CED00E00400FA0570B50D0061
S31520006E60164682B004461A4601D1002076BD100A85
S31520006E7010F00F0002D0012808D017E000F019F812
S31520006E80B0B900F0A5F85B68984776BD6B462046FA
S31520006E9000F0DBF860B90098A74932460369986983
S31520006EA048605B6829462046984776BD42F2D870EE
S31520006EB076BD6A462046A7E0F8B50E001746054679
S31520006EC01A4601D10020F2BD100A10F00F009A4C8C
S31520006ED002D0012816D02BE0284600F0F4F838BB63
S31520006EE06A463146284600F08FF818BB009B3A4682
S31520006EF031462846DB689B689847B0B90099C9682F
S31520006F00096913E06B46284600F09FF890B900986F
S31520006F103A4631460369986960609B6828469847D7
S31520006F2018B900990969496900E000212160F2BD7C
S31520006F3042F2D870F2BD70B50446100A10F00F0068
S31520006F4082B00D4642F2D87602D0012813D025E031
S31520006F50FFF7AFFFF8B90098C0684069A8B1294685
S31520006F60204600F0B0F8C8B9009A29462046D268D3
S31520006F705269904776BD6B46204600F066F850B9B8
S31520006F8000980069C268100001D1662076BD2946A6
S31520006F902046904776BD15B9002076BD304676BD91
S31520006FA070B50D0082B00446164601D1002076BD8C
S31520006FB000F089F810B142F2D87076BD6A462946AB
S31520006FC0FFF778FF18B900F003F8DB68984776BD1D
S31520006FD0009B324629462046DB68704710B5564C42
S31520006FE02068010003D080470021216010BD0020C9
S31520006FF010BD10B5504C6068010003D080470021B9
S31520007000616010BD002010BD70B542F2D873D2B1B8
S315200070104A4C6468146011B915E010341460146881
S315200070208CB12568002D04BF6668002E01D1E66864
S315200070304EB1A84224BF65688542EED30818401E8B
S31520007040854228BF0023184670BDF0B51C0042F2C9
S31520007050D8731FD0394DAD68256011B91AE01435A3
S3152000706025602568B5B12E68002E04BF6F68002FF5
S3152000707007D1AF68002F04BFEF68002F01D12F6919
S3152000708047B1B242EBD1AA68EC6808186243824243
S3152000709028BF00231846F0BD70B50422002309B985
S315200070A0042070BD254CA46801E05B1C143444B157
S315200070B0256835B12669002E03D0A842F5D10B608C
S315200070C00022104670BD0918491E70B500221B4BC0
S315200070D0DC685D6816012469AD5904EBC2047C3472
S315200070E066682468AC4208BFAE4205D0864228BFF7
S315200070F0A14201D3012070BD521C022AE8D30020F0
S3152000710070BD70B50D4D00246E6804E00068010066
S3152000711018BF80471036F0680028F7D1AD6805E023
S315200071200068010001D080470446143528690028EC
S31520007130F6D1204670BD000090AC20201080202083
S31520007140012200E0491E21B110F8013BFF2BF9D0A6
S315200071500022104670470000F0B5044604260D466E
S31520007160002CA3B018BF002D56D03821284606F093
S3152000717025F83820A8704320E870812028706620E2
S315200071802871552068711020A8710020E8710EA87A
S3152000719009F062FA06003FD10020214F8DF83B000E
S315200071A00EA9384609F010FC060035D1102205F14B
S315200071B00801384609F038FC06002DD10D210AA811
S315200071C0FCF718FB06A809F081FC05F108018022CE
S315200071D006A809F08FFC10200294059005F12800DE
S315200071E0049005F118000390002001900D230090D3
S315200071F00AAA102106A809F04CFF0A49802206A8EF
S3152000720009F078FC102005F10803009005F108022A
S31520007210012106A809F0B7FD304623B0F0BD00BF16
S3152000722000C00C40AB89DCFE38B504460D46002074
S31520007230FCF7B4FA774800210560774A446011606C
S31520007240016881F3088881F3098840688047002017
S31520007250BDE83240FCF7A2BA002810B582B01EBFA6
S3152000726010F1010F6D49884201D1002016BD6A46F2
S3152000727002210024FFF7C8FE20B90098007AC00733
S3152000728048BF0124204616BD654A0021526800E009
S315200072901032D36863B1137A03F01103112BF7D19F
S315200072A013688342F4D253685B1C8342F0D30121D6
S315200072B0084670472DE9FC47DFF86481594DD8F818
S315200072C00C002E46006900F18C0709E0397C01424A
S315200072D005D0F26870695268816930469047183641
S315200072E030680028F2D10024A146CDE900494FF4A8
S315200072F07A70FBF7F7FA06468A4600F0F4FBA8BB3D
S31520007300FFF7AAFF90B3D8F80C00006990F8AA00FE
S31520007310C00703D400210020FFF786FF788A4FF6A6
S31520007320FF71884208BF41F28830A6FB00230AFB82
S315200073300033CDE90023FBF7CBFA04468946DDE985
S3152000734000010022914208BF90420FD0FBF7C0FAFD
S31520007350001B61EB0901DDE90023994206D301D820
S31520007360904203D300210020FFF75EFF2E4600E067
S31520007370183630680028E2D0397C0142F8D0F1680E
S315200073803046096888470028F2D0002ED7D009E079
S31520007390397C014218BFAE4203D0E9682846896885
S315200073A08847183528680028F2D13046BDE8F68788
S315200073B038B500F04FF800F0CAFB194CE0680068B9
S315200073C080470020FBF77EFBFBF754FA2068006815
S315200073D08047E06840688047FFF76CFF20620169BC
S315200073E019B109680A0018BF8847206A416919B18E
S315200073F009680A0018BF8847206900688047256AFF
S31520007400206940688047E868C1680800F8D02846A7
S315200074108847F5E7E09E202008ED00E07D24002047
S31520007420108020204426002070470000016070470D
S3152000743072B60168491C016062B601680029FCD158
S315200074400120704772B60168491E00E000210160E4
S3152000745062B6704772B600200949086062B6704766
S3152000746072B607480168491C0160704704480168E4
S31520007470022900D2EAE70168491E01607047000030
S315200074806CAB20202DE9F041FBF7E0FB0446DFF84A
S31520007490DC811122404600210023E2FB0401424602
S315200074A0734D002709F026FE401E4600686042F212
S315200074B0107270480021E2FB04014246002309F0C5
S315200074C019FE3018401CA8602520E0FB0487674A77
S315200074D000234046394609F00DFE3018401CE8606E
S315200074E00020BDE8F081002B2DE9F04104460D4631
S315200074F090464AD0042B02D1A809800101D004204D
