S02000006C65645F64656D6F5F65766B5F666C65787370695F6E6F722E737265631E
S315600020001020012001240060432600604326006002
S3156000201043260060432600604326006000000000FF
S315600020200000000000000000000000004326006081
S31560002030432600600000000043260060072500601C
S315600020402528006025280060252800602528006076
S315600020502528006025280060252800602528006066
S315600020602528006025280060252800602528006056
S315600020702528006025280060252800602528006046
S315600020802528006025280060252800602528006036
S31560002090AD260060B5260060BD260060C5260060DE
S315600020A0CD260060D5260060DD260060E52600604E
S315600020B0ED260060F5260060FD26006005270060BD
S315600020C00D270060152700601D270060252700602A
S315600020D02D270060352700602528006025280060D0
S315600020E025280060252800602528006025280060D6
S315600020F025280060252800602528006025280060C6
S3156000210025280060252800602528006025280060B5
S3156000211025280060252800602528006025280060A5
S315600021202528006025280060252800602528006095
S315600021303D2700602528006025280060252800606E
S315600021402528006025280060252800602528006075
S315600021502528006025280060252800602528006065
S315600021602528006025280060252800602528006055
S315600021702528006025280060252800602528006045
S315600021802528006025280060252800602528006035
S315600021902528006025280060252800602528006025
S315600021A02528006025280060452700604D270060CF
S315600021B02528006025280060252800602528006005
S315600021C025280060252800602528006025280060F5
S315600021D025280060252800602528006025280060E5
S315600021E025280060252800602528006025280060D5
S315600021F055270060252800605D2700606527006020
S3156000220025280060252800606D270060752700601E
S3156000221025280060252800602528006025280060A4
S315600022202528006025280060252800602528006094
S315600022302528006025280060252800602528006084
S315600022402528006025280060252800602528006074
S315600022502528006025280060252800602528006064
S315600022602528006025280060252800602528006054
S315600022702528006025280060252800602528006044
S315600022802528006025280060252800602528006034
S315600022902528006025280060252800602528006024
S315600022A02528006025280060252800602528006014
S315600022B02528006025280060252800602528006004
S315600022C025280060252800602528006025280060F4
S315600022D025280060252800602528006025280060E4
S315600022E025280060252800602528006025280060D4
S315600022F025280060252800602528006025280060C4
S3156000230025280060252800602528006025280060B3
S3156000231025280060252800602528006025280060A3
S315600023202528006025280060252800602528006093
S315600023302528006025280060252800602528006083
S315600023402528006025280060252800602528006073
S315600023502528006025280060252800602528006063
S315600023602528006025280060252800602528006053
S315600023702528006025280060252800602528006043
S315600023802528006025280060252800602528006033
S315600023902528006025280060252800602528006023
S315600023A02528006025280060252800602528006013
S315600023B02528006025280060252800602528006003
S315600023C025280060252800602528006025280060F3
S315600023D025280060252800602528006025280060E3
S315600023E025280060252800602528006025280060D3
S315600023F0252800602528006025280060FFFFFFFF74
S3156000240072B60E480E49886000220023002400251B
S3156000241000260027B846B946BA46BB46BC460948B8
S31560002420854609488047094880470948804762B61B
S3156000243000200021074A9047FEE700000020006068
S3156000244000ED00E0102001209F2700602525006038
S315600024506B250060792400601A4901EB8002085CF4
S315600024600121526813688140C340D80710684CBF89
S31560002470884308431060704710B5134813490860D5
S315600024800520134908601348416841F400714160B2
S31560002490016821F40071016000F01EF800242046F6
S315600024A0FFF7DAFF4FF47A7000F027F82046641CD5
S315600024B0FFF7D2FF4FF47A7000F01FF8012CEED1CF
S315600024C0ECE7000000000120007B9A17080001205D
S315600024D0E0801F4000801B400E480068800A401E56
S315600024E0B0F1807F08D20C490C4A4860F020107029
S315600024F000208860072008607047094908600868FE
S315600025000028FCD170470648016811B10168491E70
S31560002510016070470800012010E000E023ED00E054
S315600025200C00012080B51B481B4908601B491C48EC
S31560002530421A1C4888421CBF002A00F047F81A4815
S315600025401A49091A18BF00F07DF819481949091A7D
S3156000255018BF00F077F818491848421A04D018488E
S31560002560BDE8084000F032B801BD16484FF0FF31B3
S31560002570016041608160C160016141618161C161E9
S315600025801148016041608160C160016141618161A2
S31560002590C16170470020006008ED00E01828006007
S315600025A024280060000001200C000120100001209A
S315600025B0100001201000012084280060842800603B
S315600025C01000012080E100E080E200E062B38B074A
S315600025D008D0521E11F8013B00F8013B00F0248040
S315600025E08B07F6D1830740F0208000BF103A07D3EF
S315600025F030B4B1E83810103AA0E83810F9D230BCDF
S31560002600530724BFB1E80810A0E8081044BF51F88A
S31560002610043B40F8043BD20724BF31F8022B20F874
S31560002620022B44BF0B7803707047083A07D3B1E8B2
S315600026300810083A40F8043B40F804CBF7D2530739
S31560002640E4E7FEE7002200F001B80000401810F051
S31560002650030308D0C91A1FD3DB0748BF00F8012D52
S3156000266028BF20F8022D130030B4144615461039E1
S3156000267028BF20E93C00FAD8490728BF20E90C00AA
S3156000268048BF40F8042D890028BF20F8022D48BFB6
S3156000269000F8012D30BC7047C91818BF00F8012D2D
S315600026A0CB0728BF00F8012D70470000004800479F
S315600026B0252800600048004725280060004800473C
S315600026C0252800600048004725280060004800472C
S315600026D0252800600048004725280060004800471C
S315600026E0252800600048004725280060004800470C
S315600026F025280060004800472528006000480047FC
S3156000270025280060004800472528006000480047EB
S3156000271025280060004800472528006000480047DB
S3156000272025280060004800472528006000480047CB
S3156000273025280060004800472528006000480047BB
S3156000274025280060004800472528006000480047AB
S31560002750252800600048004725280060004800479B
S31560002760252800600048004725280060004800478B
S315600027702528006000480047252800600B488168CE
S315600027808160016841F0200101600949416001688A
S315600027900905FCD5016821F0800101607047034896
S315600027A00068000648BFFFF7E9BF704700C00B40EE
S315600027B020C528D900F00BF8002801D000F00AF8EF
S315600027C00020AFF30080FFF757FE00F017F80120F6
S315600027D07047000010B5074979441831064C7C44AF
S315600027E0163404E00A68081D114488470146A14270
S315600027F0F8D110BD800000008C00000000F000B829
S315600028000746384600F002F8FBE70000202109037E
S3156000281026311820ABBEF9E70900000000801B4096
S3156000282000A4781FFFF7FEBFAFF30080AFF3008010
S31560002830FFF7C0FF19E050F8041BCB0744BFA9F1AE
S3156000284001035918121F0023042A41F8043BF9D2E8
S315600028505FEA827C0B4604D54FF0000CA1F800C0FD
S315600028609B1CD10744BF0021197050F8042B002A25
S31560002870E1D17047C1FFFFFF040000000C0001209A
S3096000288000000000EE
S7056000240175
